{
  "_format": "hh-sol-artifact-1",
  "contractName": "Vault",
  "sourceName": "contracts/core/Vault.sol",
  "abi": [
    {
      "inputs": [
        {
          "internalType": "string",
          "name": "_name",
          "type": "string"
        },
        {
          "internalType": "string",
          "name": "_symbol",
          "type": "string"
        },
        {
          "internalType": "contract IERC20",
          "name": "_templeToken",
          "type": "address"
        },
        {
          "internalType": "contract Exposure",
          "name": "_templeExposureToken",
          "type": "address"
        },
        {
          "internalType": "address",
          "name": "_vaultedTempleAccount",
          "type": "address"
        },
        {
          "internalType": "uint256",
          "name": "_periodDuration",
          "type": "uint256"
        },
        {
          "internalType": "uint256",
          "name": "_enterExitWindowDuration",
          "type": "uint256"
        },
        {
          "components": [
            {
              "internalType": "uint256",
              "name": "p",
              "type": "uint256"
            },
            {
              "internalType": "uint256",
              "name": "q",
              "type": "uint256"
            }
          ],
          "internalType": "struct Rational",
          "name": "_shareBoostFactory",
          "type": "tuple"
        },
        {
          "internalType": "contract JoiningFee",
          "name": "_joiningFee",
          "type": "address"
        },
        {
          "internalType": "uint256",
          "name": "_firstPeriodStartTimestamp",
          "type": "uint256"
        }
      ],
      "stateMutability": "nonpayable",
      "type": "constructor"
    },
    {
      "inputs": [],
      "name": "InvalidShortString",
      "type": "error"
    },
    {
      "inputs": [
        {
          "internalType": "string",
          "name": "str",
          "type": "string"
        }
      ],
      "name": "StringTooLong",
      "type": "error"
    },
    {
      "anonymous": false,
      "inputs": [
        {
          "indexed": true,
          "internalType": "address",
          "name": "owner",
          "type": "address"
        },
        {
          "indexed": true,
          "internalType": "address",
          "name": "spender",
          "type": "address"
        },
        {
          "indexed": false,
          "internalType": "uint256",
          "name": "value",
          "type": "uint256"
        }
      ],
      "name": "Approval",
      "type": "event"
    },
    {
      "anonymous": false,
      "inputs": [
        {
          "indexed": false,
          "internalType": "address",
          "name": "account",
          "type": "address"
        },
        {
          "indexed": false,
          "internalType": "uint256",
          "name": "amount",
          "type": "uint256"
        },
        {
          "indexed": false,
          "internalType": "uint256",
          "name": "amountStaked",
          "type": "uint256"
        }
      ],
      "name": "Deposit",
      "type": "event"
    },
    {
      "anonymous": false,
      "inputs": [],
      "name": "EIP712DomainChanged",
      "type": "event"
    },
    {
      "anonymous": false,
      "inputs": [
        {
          "indexed": true,
          "internalType": "address",
          "name": "previousOwner",
          "type": "address"
        },
        {
          "indexed": true,
          "internalType": "address",
          "name": "newOwner",
          "type": "address"
        }
      ],
      "name": "OwnershipTransferred",
      "type": "event"
    },
    {
      "anonymous": false,
      "inputs": [
        {
          "indexed": true,
          "internalType": "address",
          "name": "from",
          "type": "address"
        },
        {
          "indexed": true,
          "internalType": "address",
          "name": "to",
          "type": "address"
        },
        {
          "indexed": false,
          "internalType": "uint256",
          "name": "value",
          "type": "uint256"
        }
      ],
      "name": "Transfer",
      "type": "event"
    },
    {
      "anonymous": false,
      "inputs": [
        {
          "indexed": false,
          "internalType": "address",
          "name": "account",
          "type": "address"
        },
        {
          "indexed": false,
          "internalType": "uint256",
          "name": "amount",
          "type": "uint256"
        }
      ],
      "name": "Withdraw",
      "type": "event"
    },
    {
      "inputs": [],
      "name": "DOMAIN_SEPARATOR",
      "outputs": [
        {
          "internalType": "bytes32",
          "name": "",
          "type": "bytes32"
        }
      ],
      "stateMutability": "view",
      "type": "function"
    },
    {
      "inputs": [],
      "name": "ENTER_EXIT_WINDOW_BUFFER",
      "outputs": [
        {
          "internalType": "uint256",
          "name": "",
          "type": "uint256"
        }
      ],
      "stateMutability": "view",
      "type": "function"
    },
    {
      "inputs": [],
      "name": "WITHDRAW_FOR_TYPEHASH",
      "outputs": [
        {
          "internalType": "bytes32",
          "name": "",
          "type": "bytes32"
        }
      ],
      "stateMutability": "view",
      "type": "function"
    },
    {
      "inputs": [
        {
          "internalType": "address",
          "name": "",
          "type": "address"
        }
      ],
      "name": "_nonces",
      "outputs": [
        {
          "internalType": "uint256",
          "name": "_value",
          "type": "uint256"
        }
      ],
      "stateMutability": "view",
      "type": "function"
    },
    {
      "inputs": [
        {
          "internalType": "address",
          "name": "owner",
          "type": "address"
        },
        {
          "internalType": "address",
          "name": "spender",
          "type": "address"
        }
      ],
      "name": "allowance",
      "outputs": [
        {
          "internalType": "uint256",
          "name": "",
          "type": "uint256"
        }
      ],
      "stateMutability": "view",
      "type": "function"
    },
    {
      "inputs": [],
      "name": "amountPerShare",
      "outputs": [
        {
          "internalType": "uint256",
          "name": "p",
          "type": "uint256"
        },
        {
          "internalType": "uint256",
          "name": "q",
          "type": "uint256"
        }
      ],
      "stateMutability": "view",
      "type": "function"
    },
    {
      "inputs": [
        {
          "internalType": "address",
          "name": "spender",
          "type": "address"
        },
        {
          "internalType": "uint256",
          "name": "amount",
          "type": "uint256"
        }
      ],
      "name": "approve",
      "outputs": [
        {
          "internalType": "bool",
          "name": "",
          "type": "bool"
        }
      ],
      "stateMutability": "nonpayable",
      "type": "function"
    },
    {
      "inputs": [
        {
          "internalType": "address",
          "name": "account",
          "type": "address"
        }
      ],
      "name": "balanceOf",
      "outputs": [
        {
          "internalType": "uint256",
          "name": "",
          "type": "uint256"
        }
      ],
      "stateMutability": "view",
      "type": "function"
    },
    {
      "inputs": [],
      "name": "canEnter",
      "outputs": [
        {
          "internalType": "bool",
          "name": "",
          "type": "bool"
        }
      ],
      "stateMutability": "view",
      "type": "function"
    },
    {
      "inputs": [],
      "name": "canExit",
      "outputs": [
        {
          "internalType": "bool",
          "name": "",
          "type": "bool"
        }
      ],
      "stateMutability": "view",
      "type": "function"
    },
    {
      "inputs": [],
      "name": "decimals",
      "outputs": [
        {
          "internalType": "uint8",
          "name": "",
          "type": "uint8"
        }
      ],
      "stateMutability": "view",
      "type": "function"
    },
    {
      "inputs": [
        {
          "internalType": "address",
          "name": "spender",
          "type": "address"
        },
        {
          "internalType": "uint256",
          "name": "subtractedValue",
          "type": "uint256"
        }
      ],
      "name": "decreaseAllowance",
      "outputs": [
        {
          "internalType": "bool",
          "name": "",
          "type": "bool"
        }
      ],
      "stateMutability": "nonpayable",
      "type": "function"
    },
    {
      "inputs": [
        {
          "internalType": "uint256",
          "name": "amount",
          "type": "uint256"
        }
      ],
      "name": "deposit",
      "outputs": [],
      "stateMutability": "nonpayable",
      "type": "function"
    },
    {
      "inputs": [
        {
          "internalType": "address",
          "name": "_account",
          "type": "address"
        },
        {
          "internalType": "uint256",
          "name": "_amount",
          "type": "uint256"
        }
      ],
      "name": "depositFor",
      "outputs": [],
      "stateMutability": "nonpayable",
      "type": "function"
    },
    {
      "inputs": [],
      "name": "eip712Domain",
      "outputs": [
        {
          "internalType": "bytes1",
          "name": "fields",
          "type": "bytes1"
        },
        {
          "internalType": "string",
          "name": "name",
          "type": "string"
        },
        {
          "internalType": "string",
          "name": "version",
          "type": "string"
        },
        {
          "internalType": "uint256",
          "name": "chainId",
          "type": "uint256"
        },
        {
          "internalType": "address",
          "name": "verifyingContract",
          "type": "address"
        },
        {
          "internalType": "bytes32",
          "name": "salt",
          "type": "bytes32"
        },
        {
          "internalType": "uint256[]",
          "name": "extensions",
          "type": "uint256[]"
        }
      ],
      "stateMutability": "view",
      "type": "function"
    },
    {
      "inputs": [],
      "name": "enterExitWindowDuration",
      "outputs": [
        {
          "internalType": "uint256",
          "name": "",
          "type": "uint256"
        }
      ],
      "stateMutability": "view",
      "type": "function"
    },
    {
      "inputs": [],
      "name": "firstPeriodStartTimestamp",
      "outputs": [
        {
          "internalType": "uint256",
          "name": "",
          "type": "uint256"
        }
      ],
      "stateMutability": "view",
      "type": "function"
    },
    {
      "inputs": [],
      "name": "inEnterExitWindow",
      "outputs": [
        {
          "internalType": "uint256",
          "name": "cycleNumber",
          "type": "uint256"
        },
        {
          "internalType": "bool",
          "name": "inWindow",
          "type": "bool"
        }
      ],
      "stateMutability": "view",
      "type": "function"
    },
    {
      "inputs": [
        {
          "internalType": "address",
          "name": "spender",
          "type": "address"
        },
        {
          "internalType": "uint256",
          "name": "addedValue",
          "type": "uint256"
        }
      ],
      "name": "increaseAllowance",
      "outputs": [
        {
          "internalType": "bool",
          "name": "",
          "type": "bool"
        }
      ],
      "stateMutability": "nonpayable",
      "type": "function"
    },
    {
      "inputs": [],
      "name": "joiningFee",
      "outputs": [
        {
          "internalType": "contract JoiningFee",
          "name": "",
          "type": "address"
        }
      ],
      "stateMutability": "view",
      "type": "function"
    },
    {
      "inputs": [],
      "name": "name",
      "outputs": [
        {
          "internalType": "string",
          "name": "",
          "type": "string"
        }
      ],
      "stateMutability": "view",
      "type": "function"
    },
    {
      "inputs": [
        {
          "internalType": "address",
          "name": "owner",
          "type": "address"
        }
      ],
      "name": "nonces",
      "outputs": [
        {
          "internalType": "uint256",
          "name": "",
          "type": "uint256"
        }
      ],
      "stateMutability": "view",
      "type": "function"
    },
    {
      "inputs": [],
      "name": "owner",
      "outputs": [
        {
          "internalType": "address",
          "name": "",
          "type": "address"
        }
      ],
      "stateMutability": "view",
      "type": "function"
    },
    {
      "inputs": [],
      "name": "periodDuration",
      "outputs": [
        {
          "internalType": "uint256",
          "name": "",
          "type": "uint256"
        }
      ],
      "stateMutability": "view",
      "type": "function"
    },
    {
      "inputs": [
        {
          "internalType": "contract Exposure[]",
          "name": "exposures",
          "type": "address[]"
        }
      ],
      "name": "redeemExposures",
      "outputs": [],
      "stateMutability": "nonpayable",
      "type": "function"
    },
    {
      "inputs": [],
      "name": "renounceOwnership",
      "outputs": [],
      "stateMutability": "nonpayable",
      "type": "function"
    },
    {
      "inputs": [
        {
          "internalType": "address",
          "name": "",
          "type": "address"
        }
      ],
      "name": "shareBalanceOf",
      "outputs": [
        {
          "internalType": "uint256",
          "name": "",
          "type": "uint256"
        }
      ],
      "stateMutability": "view",
      "type": "function"
    },
    {
      "inputs": [],
      "name": "shareBoostFactor",
      "outputs": [
        {
          "internalType": "uint256",
          "name": "p",
          "type": "uint256"
        },
        {
          "internalType": "uint256",
          "name": "q",
          "type": "uint256"
        }
      ],
      "stateMutability": "view",
      "type": "function"
    },
    {
      "inputs": [],
      "name": "symbol",
      "outputs": [
        {
          "internalType": "string",
          "name": "",
          "type": "string"
        }
      ],
      "stateMutability": "view",
      "type": "function"
    },
    {
      "inputs": [],
      "name": "targetRevenueShare",
      "outputs": [
        {
          "internalType": "uint256",
          "name": "",
          "type": "uint256"
        }
      ],
      "stateMutability": "view",
      "type": "function"
    },
    {
      "inputs": [],
      "name": "templeExposureToken",
      "outputs": [
        {
          "internalType": "contract Exposure",
          "name": "",
          "type": "address"
        }
      ],
      "stateMutability": "view",
      "type": "function"
    },
    {
      "inputs": [],
      "name": "templeToken",
      "outputs": [
        {
          "internalType": "contract IERC20",
          "name": "",
          "type": "address"
        }
      ],
      "stateMutability": "view",
      "type": "function"
    },
    {
      "inputs": [
        {
          "internalType": "uint256",
          "name": "tokenAmount",
          "type": "uint256"
        }
      ],
      "name": "toSharesAmount",
      "outputs": [
        {
          "internalType": "uint256",
          "name": "sharesAmount",
          "type": "uint256"
        }
      ],
      "stateMutability": "view",
      "type": "function"
    },
    {
      "inputs": [
        {
          "internalType": "uint256",
          "name": "sharesAmount",
          "type": "uint256"
        }
      ],
      "name": "toTokenAmount",
      "outputs": [
        {
          "internalType": "uint256",
          "name": "tokenAmount",
          "type": "uint256"
        }
      ],
      "stateMutability": "view",
      "type": "function"
    },
    {
      "inputs": [],
      "name": "totalShares",
      "outputs": [
        {
          "internalType": "uint256",
          "name": "",
          "type": "uint256"
        }
      ],
      "stateMutability": "view",
      "type": "function"
    },
    {
      "inputs": [],
      "name": "totalSupply",
      "outputs": [
        {
          "internalType": "uint256",
          "name": "",
          "type": "uint256"
        }
      ],
      "stateMutability": "view",
      "type": "function"
    },
    {
      "inputs": [
        {
          "internalType": "address",
          "name": "to",
          "type": "address"
        },
        {
          "internalType": "uint256",
          "name": "amount",
          "type": "uint256"
        }
      ],
      "name": "transfer",
      "outputs": [
        {
          "internalType": "bool",
          "name": "",
          "type": "bool"
        }
      ],
      "stateMutability": "nonpayable",
      "type": "function"
    },
    {
      "inputs": [
        {
          "internalType": "address",
          "name": "from",
          "type": "address"
        },
        {
          "internalType": "address",
          "name": "to",
          "type": "address"
        },
        {
          "internalType": "uint256",
          "name": "amount",
          "type": "uint256"
        }
      ],
      "name": "transferFrom",
      "outputs": [
        {
          "internalType": "bool",
          "name": "",
          "type": "bool"
        }
      ],
      "stateMutability": "nonpayable",
      "type": "function"
    },
    {
      "inputs": [
        {
          "internalType": "address",
          "name": "newOwner",
          "type": "address"
        }
      ],
      "name": "transferOwnership",
      "outputs": [],
      "stateMutability": "nonpayable",
      "type": "function"
    },
    {
      "inputs": [],
      "name": "vaultedTempleAccount",
      "outputs": [
        {
          "internalType": "address",
          "name": "",
          "type": "address"
        }
      ],
      "stateMutability": "view",
      "type": "function"
    },
    {
      "inputs": [
        {
          "internalType": "uint256",
          "name": "amount",
          "type": "uint256"
        }
      ],
      "name": "withdraw",
      "outputs": [],
      "stateMutability": "nonpayable",
      "type": "function"
    },
    {
      "inputs": [
        {
          "internalType": "address",
          "name": "owner",
          "type": "address"
        },
        {
          "internalType": "uint256",
          "name": "amount",
          "type": "uint256"
        },
        {
          "internalType": "uint256",
          "name": "deadline",
          "type": "uint256"
        },
        {
          "internalType": "uint8",
          "name": "v",
          "type": "uint8"
        },
        {
          "internalType": "bytes32",
          "name": "r",
          "type": "bytes32"
        },
        {
          "internalType": "bytes32",
          "name": "s",
          "type": "bytes32"
        }
      ],
      "name": "withdrawFor",
      "outputs": [],
      "stateMutability": "nonpayable",
      "type": "function"
    }
  ],
  "bytecode": "0x6102606040527f826f68b7f2dc717b262281384d6e69ddaba3805f6e37a8c771db2cc5d6ba4013610160523480156200003757600080fd5b5060405162003609380380620036098339810160408190526200005a91620003b3565b6040805180820190915260018152603160f81b60208201528a908a90829062000085826000620001a0565b6101205262000096816001620001a0565b61014052815160208084019190912060e052815190820120610100524660a0526200012460e05161010051604080517f8b73c3c69bb8fe3d512ecc4cf759cc79239f7b179b0ffacaa9a75d522b39400f60208201529081019290925260608201524660808201523060a082015260009060c00160405160208183030381529060405280519060200120905090565b60805250503060c0526200013833620001d9565b600662000146838262000529565b50600762000155828262000529565b5050506001600160a01b03978816610180529587166101a0529386166101c05261020092909252610220528051600b5560200151600c55909116610240526101e052506200064f9050565b6000602083511015620001c057620001b8836200022b565b9050620001d3565b81620001cd848262000529565b5060ff90505b92915050565b600280546001600160a01b038381166001600160a01b0319831681179093556040519116919082907f8be0079c531659141344cd1fd0a4f28419497f9722a3daafe3b4186f6b6457e090600090a35050565b600080829050601f8151111562000262578260405163305a27a960e01b8152600401620002599190620005f5565b60405180910390fd5b80516200026f826200062a565b179392505050565b634e487b7160e01b600052604160045260246000fd5b60005b83811015620002aa57818101518382015260200162000290565b50506000910152565b600082601f830112620002c557600080fd5b81516001600160401b0380821115620002e257620002e262000277565b604051601f8301601f19908116603f011681019082821181831017156200030d576200030d62000277565b816040528381528660208588010111156200032757600080fd5b6200033a8460208301602089016200028d565b9695505050505050565b80516001600160a01b03811681146200035c57600080fd5b919050565b6000604082840312156200037457600080fd5b604080519081016001600160401b038111828210171562000399576200039962000277565b604052825181526020928301519281019290925250919050565b6000806000806000806000806000806101608b8d031215620003d457600080fd5b8a516001600160401b0380821115620003ec57600080fd5b620003fa8e838f01620002b3565b9b5060208d01519150808211156200041157600080fd5b50620004208d828e01620002b3565b9950506200043160408c0162000344565b97506200044160608c0162000344565b96506200045160808c0162000344565b955060a08b0151945060c08b01519350620004708c60e08d0162000361565b9250620004816101208c0162000344565b91506101408b015190509295989b9194979a5092959850565b600181811c90821680620004af57607f821691505b602082108103620004d057634e487b7160e01b600052602260045260246000fd5b50919050565b601f8211156200052457600081815260208120601f850160051c81016020861015620004ff5750805b601f850160051c820191505b8181101562000520578281556001016200050b565b5050505b505050565b81516001600160401b0381111562000545576200054562000277565b6200055d816200055684546200049a565b84620004d6565b602080601f8311600181146200059557600084156200057c5750858301515b600019600386901b1c1916600185901b17855562000520565b600085815260208120601f198616915b82811015620005c657888601518255948401946001909101908401620005a5565b5085821015620005e55787850151600019600388901b60f8161c191681555b5050505050600190811b01905550565b6020815260008251806020840152620006168160408501602087016200028d565b601f01601f19169190910160400192915050565b80516020808301519190811015620004d05760001960209190910360031b1b16919050565b60805160a05160c05160e05161010051610120516101405161016051610180516101a0516101c0516101e051610200516102205161024051612e97620007726000396000818161047d0152610aed0152600081816106d90152610f500152600081816105f601528181610abe01528181610ef50152610f9501526000818161042601528181610a9801528181610ec401528181610f190152610f7101526000818161069f0152610c6401526000818161052601528181610cbe0152818161106a0152818161120f01526115f20152600081816105cf0152610c420152600081816104ff015261076e0152600061115b0152600061113101526000611e9301526000611e6b01526000611dc601526000611df001526000611e1a0152612e976000f3fe608060405234801561001057600080fd5b50600436106102de5760003560e01c8063715018a611610186578063a9059cbb116100e3578063b9844d8d11610097578063e1eda8f911610071578063e1eda8f91461069a578063f2fde38b146106c1578063fc1d3de2146106d457600080fd5b8063b9844d8d1461062b578063bca8371f1461064b578063dd62ed3e1461065457600080fd5b8063b1a9069c116100c8578063b1a9069c146105ca578063b470aade146105f1578063b6b55f251461061857600080fd5b8063a9059cbb146105a4578063b0ff1106146105b757600080fd5b806384b0196e1161013a57806395d89b411161011f57806395d89b4114610581578063981fc37214610589578063a457c2d71461059157600080fd5b806384b0196e146105485780638da5cb5b1461056357600080fd5b80637ecebe001161016b5780637ecebe00146104e757806381771329146104fa57806382dad8ac1461052157600080fd5b8063715018a6146104d75780637c5a227c146104df57600080fd5b80633644e5151161023f5780634473ad52116101f35780636b2f1417116101cd5780636b2f14171461045b5780636eeeaaa51461047857806370a08231146104c457600080fd5b80634473ad521461040157806363ceec65146104215780636823920a1461044857600080fd5b80633a98ef39116102245780633a98ef39146103e85780633d355f76146103f157806341ffb72e146103f957600080fd5b80633644e515146103cd57806339509351146103d557600080fd5b806323b872dd116102965780632f4f21e21161027b5780632f4f21e214610388578063313ce5671461039b578063341533d9146103aa57600080fd5b806323b872dd146103625780632e1a7d4d1461037557600080fd5b8063095ea7b3116102c7578063095ea7b314610316578063174e4ea61461033957806318160ddd1461035a57600080fd5b8063061e5844146102e357806306fdde03146102f8575b600080fd5b6102f66102f13660046128e0565b6106fb565b005b6103006108bd565b60405161030d91906129b0565b60405180910390f35b6103296103243660046129c3565b61094f565b604051901515815260200161030d565b61034c6103473660046129ef565b610969565b60405190815260200161030d565b61034c610998565b610329610370366004612a08565b6109aa565b6102f66103833660046129ef565b6109ce565b6102f66103963660046129c3565b6109dc565b6040516012815260200161030d565b600b54600c546103b8919082565b6040805192835260208301919091520161030d565b61034c610d8e565b6103296103e33660046129c3565b610d98565b61034c60085481565b610329610de4565b610329610df6565b61034c61040f366004612a49565b60096020526000908152604090205481565b61034c7f000000000000000000000000000000000000000000000000000000000000000081565b6102f6610456366004612aa5565b610e1b565b610463610ebf565b6040805192835290151560208301520161030d565b61049f7f000000000000000000000000000000000000000000000000000000000000000081565b60405173ffffffffffffffffffffffffffffffffffffffff909116815260200161030d565b61034c6104d2366004612a49565b610fdf565b6102f661100e565b6103b8611022565b61034c6104f5366004612a49565b6110f8565b61034c7f000000000000000000000000000000000000000000000000000000000000000081565b61049f7f000000000000000000000000000000000000000000000000000000000000000081565b610550611123565b60405161030d9796959493929190612b88565b60025473ffffffffffffffffffffffffffffffffffffffff1661049f565b6103006111c7565b61034c6111d6565b61032961059f3660046129c3565b6112a3565b6103296105b23660046129c3565b611374565b61034c6105c53660046129ef565b611382565b61049f7f000000000000000000000000000000000000000000000000000000000000000081565b61034c7f000000000000000000000000000000000000000000000000000000000000000081565b6102f66106263660046129ef565b61139f565b61034c610639366004612a49565b600a6020526000908152604090205481565b61034c61012c81565b61034c610662366004612c47565b73ffffffffffffffffffffffffffffffffffffffff918216600090815260046020908152604080832093909416825291909152205490565b61049f7f000000000000000000000000000000000000000000000000000000000000000081565b6102f66106cf366004612a49565b6113a9565b61034c7f000000000000000000000000000000000000000000000000000000000000000081565b8342111561076a576040517f08c379a000000000000000000000000000000000000000000000000000000000815260206004820152601760248201527f5661756c743a206578706972656420646561646c696e6500000000000000000060448201526064015b60405180910390fd5b60007f00000000000000000000000000000000000000000000000000000000000000008733888861079a8c61145d565b60408051602081019790975273ffffffffffffffffffffffffffffffffffffffff95861690870152939092166060850152608084015260a083015260c082015260e001604051602081830303815290604052805190602001209050600061080082611492565b90506000610810828787876114da565b90508873ffffffffffffffffffffffffffffffffffffffff168173ffffffffffffffffffffffffffffffffffffffff16146108a7576040517f08c379a000000000000000000000000000000000000000000000000000000000815260206004820152601860248201527f5661756c743a20696e76616c6964207369676e617475726500000000000000006044820152606401610761565b6108b289338a611502565b505050505050505050565b6060600680546108cc90612c80565b80601f01602080910402602001604051908101604052809291908181526020018280546108f890612c80565b80156109455780601f1061091a57610100808354040283529160200191610945565b820191906000526020600020905b81548152906001019060200180831161092857829003601f168201915b5050505050905090565b60003361095d8185856116a3565b60019150505b92915050565b6000806000610976611022565b9092509050806109868386612cfc565b6109909190612d13565b949350505050565b60006109a5600854610969565b905090565b6000336109b8858285611857565b6109c385858561192e565b506001949350505050565b6109d9333383611502565b50565b6109e4610de4565b610a70576040517f08c379a000000000000000000000000000000000000000000000000000000000815260206004820152603a60248201527f5661756c743a2043616e6e6f74206a6f696e207661756c74207768656e206f7560448201527f7473696465206f6620656e7465722f657869742077696e646f770000000000006064820152608401610761565b6040517f07e7cc270000000000000000000000000000000000000000000000000000000081527f000000000000000000000000000000000000000000000000000000000000000060048201527f000000000000000000000000000000000000000000000000000000000000000060248201523060448201526000907f000000000000000000000000000000000000000000000000000000000000000073ffffffffffffffffffffffffffffffffffffffff16906307e7cc2790606401602060405180830381865afa158015610b49573d6000803e3d6000fd5b505050506040513d601f19601f82011682018060405250810190610b6d9190612d4e565b90506000670de0b6b3a7640000610b848385612cfc565b610b8e9190612d13565b9050808311610c1f576040517f08c379a000000000000000000000000000000000000000000000000000000000815260206004820152603160248201527f5661756c743a2043616e6e6f74206a6f696e207768656e20666565206973206860448201527f6967686572207468616e20616d6f756e740000000000000000000000000000006064820152608401610761565b6000610c2b8285612d67565b90508315610d3057610c3d8582611bf1565b610c897f0000000000000000000000000000000000000000000000000000000000000000337f000000000000000000000000000000000000000000000000000000000000000087611d17565b6040517f40c10f19000000000000000000000000000000000000000000000000000000008152306004820152602481018590527f000000000000000000000000000000000000000000000000000000000000000073ffffffffffffffffffffffffffffffffffffffff16906340c10f1990604401600060405180830381600087803b158015610d1757600080fd5b505af1158015610d2b573d6000803e3d6000fd5b505050505b6040805173ffffffffffffffffffffffffffffffffffffffff87168152602081018690529081018290527f90890809c654f11d6e72a28fa60149770a0d11ec6c92319d6ceb2bb0a4ea1a159060600160405180910390a15050505050565b60006109a5611dac565b33600081815260046020908152604080832073ffffffffffffffffffffffffffffffffffffffff8716845290915281205490919061095d9082908690610ddf908790612d7a565b6116a3565b600080610def610ebf565b9392505050565b6000806000610e03610ebf565b91509150808015610e145750600082115b9250505090565b610e23611ee4565b60005b8151811015610ebb57818181518110610e4157610e41612d8d565b602002602001015173ffffffffffffffffffffffffffffffffffffffff1663be040fb06040518163ffffffff1660e01b8152600401600060405180830381600087803b158015610e9057600080fd5b505af1158015610ea4573d6000803e3d6000fd5b505050508080610eb390612dbc565b915050610e26565b5050565b6000807f0000000000000000000000000000000000000000000000000000000000000000421015610ef35750600091829150565b7f0000000000000000000000000000000000000000000000000000000000000000610f3e7f000000000000000000000000000000000000000000000000000000000000000042612d67565b610f489190612d13565b91504261012c7f00000000000000000000000000000000000000000000000000000000000000007f0000000000000000000000000000000000000000000000000000000000000000610fba7f000000000000000000000000000000000000000000000000000000000000000087612cfc565b610fc49190612d7a565b610fce9190612d7a565b610fd89190612d7a565b1190509091565b73ffffffffffffffffffffffffffffffffffffffff811660009081526009602052604081205461096390610969565b611016611ee4565b6110206000611f65565b565b6040517f70a08231000000000000000000000000000000000000000000000000000000008152306004820152600090819073ffffffffffffffffffffffffffffffffffffffff7f000000000000000000000000000000000000000000000000000000000000000016906370a0823190602401602060405180830381865afa1580156110b1573d6000803e3d6000fd5b505050506040513d601f19601f820116820180604052508101906110d59190612d4e565b91506008549050816000036110e957600191505b806000036110f45750805b9091565b73ffffffffffffffffffffffffffffffffffffffff81166000908152600a6020526040812054610963565b6000606080828080836111567f000000000000000000000000000000000000000000000000000000000000000083611fdc565b6111817f00000000000000000000000000000000000000000000000000000000000000006001611fdc565b604080516000808252602082019092527f0f000000000000000000000000000000000000000000000000000000000000009b939a50919850469750309650945092509050565b6060600780546108cc90612c80565b600c54600b546040517f70a0823100000000000000000000000000000000000000000000000000000000815230600482015260009291907f000000000000000000000000000000000000000000000000000000000000000073ffffffffffffffffffffffffffffffffffffffff16906370a0823190602401602060405180830381865afa15801561126b573d6000803e3d6000fd5b505050506040513d601f19601f8201168201806040525081019061128f9190612d4e565b6112999190612cfc565b6109a59190612d13565b33600081815260046020908152604080832073ffffffffffffffffffffffffffffffffffffffff8716845290915281205490919083811015611367576040517f08c379a000000000000000000000000000000000000000000000000000000000815260206004820152602560248201527f45524332303a2064656372656173656420616c6c6f77616e63652062656c6f7760448201527f207a65726f0000000000000000000000000000000000000000000000000000006064820152608401610761565b6109c382868684036116a3565b60003361095d81858561192e565b600080600061138f611022565b9092509050816109868286612cfc565b6109d933826109dc565b6113b1611ee4565b73ffffffffffffffffffffffffffffffffffffffff8116611454576040517f08c379a000000000000000000000000000000000000000000000000000000000815260206004820152602660248201527f4f776e61626c653a206e6577206f776e657220697320746865207a65726f206160448201527f64647265737300000000000000000000000000000000000000000000000000006064820152608401610761565b6109d981611f65565b73ffffffffffffffffffffffffffffffffffffffff81166000908152600a602052604090208054600181018255905b50919050565b600061096361149f611dac565b836040517f19010000000000000000000000000000000000000000000000000000000000008152600281019290925260228201526042902090565b60008060006114eb87878787612087565b915091506114f881612176565b5095945050505050565b61150a610df6565b611596576040517f08c379a000000000000000000000000000000000000000000000000000000000815260206004820152603a60248201527f5661756c743a2043616e6e6f742065786974207661756c74207768656e206f7560448201527f7473696465206f6620656e7465722f657869742077696e646f770000000000006064820152608401610761565b80156115a6576115a68382612329565b6040517f982755930000000000000000000000000000000000000000000000000000000081526004810182905273ffffffffffffffffffffffffffffffffffffffff83811660248301527f00000000000000000000000000000000000000000000000000000000000000001690639827559390604401600060405180830381600087803b15801561163657600080fd5b505af115801561164a573d6000803e3d6000fd5b50506040805173ffffffffffffffffffffffffffffffffffffffff87168152602081018590527f884edad9ce6fa2440d8a54cc123490eb96d2768479d49ff9c7366125a9424364935001905060405180910390a1505050565b73ffffffffffffffffffffffffffffffffffffffff8316611745576040517f08c379a0000000000000000000000000000000000000000000000000000000008152602060048201526024808201527f45524332303a20617070726f76652066726f6d20746865207a65726f2061646460448201527f72657373000000000000000000000000000000000000000000000000000000006064820152608401610761565b73ffffffffffffffffffffffffffffffffffffffff82166117e8576040517f08c379a000000000000000000000000000000000000000000000000000000000815260206004820152602260248201527f45524332303a20617070726f766520746f20746865207a65726f20616464726560448201527f73730000000000000000000000000000000000000000000000000000000000006064820152608401610761565b73ffffffffffffffffffffffffffffffffffffffff83811660008181526004602090815260408083209487168084529482529182902085905590518481527f8c5be1e5ebec7d5bd14f71427d1e84f3dd0314c0f7b2291e5b200ac8c7c3b92591015b60405180910390a3505050565b73ffffffffffffffffffffffffffffffffffffffff8381166000908152600460209081526040808320938616835292905220547fffffffffffffffffffffffffffffffffffffffffffffffffffffffffffffffff8114611928578181101561191b576040517f08c379a000000000000000000000000000000000000000000000000000000000815260206004820152601d60248201527f45524332303a20696e73756666696369656e7420616c6c6f77616e63650000006044820152606401610761565b61192884848484036116a3565b50505050565b73ffffffffffffffffffffffffffffffffffffffff83166119d1576040517f08c379a000000000000000000000000000000000000000000000000000000000815260206004820152602560248201527f45524332303a207472616e736665722066726f6d20746865207a65726f20616460448201527f64726573730000000000000000000000000000000000000000000000000000006064820152608401610761565b73ffffffffffffffffffffffffffffffffffffffff8216611a74576040517f08c379a000000000000000000000000000000000000000000000000000000000815260206004820152602360248201527f45524332303a207472616e7366657220746f20746865207a65726f206164647260448201527f65737300000000000000000000000000000000000000000000000000000000006064820152608401610761565b73ffffffffffffffffffffffffffffffffffffffff831660009081526009602052604081205490611aa483611382565b905080821015611b36576040517f08c379a000000000000000000000000000000000000000000000000000000000815260206004820152602660248201527f45524332303a207472616e7366657220616d6f756e742065786365656473206260448201527f616c616e636500000000000000000000000000000000000000000000000000006064820152608401610761565b73ffffffffffffffffffffffffffffffffffffffff8086166000908152600960205260408082208054859003905591861681529081208054839290611b7c908490612d7a565b925050819055508373ffffffffffffffffffffffffffffffffffffffff168573ffffffffffffffffffffffffffffffffffffffff167fddf252ad1be2c89b69c2b068fc378daa952ba7f163c4a11628f55a4df523b3ef85604051611be291815260200190565b60405180910390a35050505050565b73ffffffffffffffffffffffffffffffffffffffff8216611c6e576040517f08c379a000000000000000000000000000000000000000000000000000000000815260206004820152601f60248201527f45524332303a206d696e7420746f20746865207a65726f2061646472657373006044820152606401610761565b6000611c7982611382565b90508060086000828254611c8d9190612d7a565b909155505073ffffffffffffffffffffffffffffffffffffffff831660009081526009602052604081208054839290611cc7908490612d7a565b909155505060405182815273ffffffffffffffffffffffffffffffffffffffff8416906000907fddf252ad1be2c89b69c2b068fc378daa952ba7f163c4a11628f55a4df523b3ef9060200161184a565b6040805173ffffffffffffffffffffffffffffffffffffffff85811660248301528416604482015260648082018490528251808303909101815260849091019091526020810180517bffffffffffffffffffffffffffffffffffffffffffffffffffffffff167f23b872dd00000000000000000000000000000000000000000000000000000000179052611928908590612523565b60003073ffffffffffffffffffffffffffffffffffffffff7f000000000000000000000000000000000000000000000000000000000000000016148015611e1257507f000000000000000000000000000000000000000000000000000000000000000046145b15611e3c57507f000000000000000000000000000000000000000000000000000000000000000090565b6109a5604080517f8b73c3c69bb8fe3d512ecc4cf759cc79239f7b179b0ffacaa9a75d522b39400f60208201527f0000000000000000000000000000000000000000000000000000000000000000918101919091527f000000000000000000000000000000000000000000000000000000000000000060608201524660808201523060a082015260009060c00160405160208183030381529060405280519060200120905090565b60025473ffffffffffffffffffffffffffffffffffffffff163314611020576040517f08c379a000000000000000000000000000000000000000000000000000000000815260206004820181905260248201527f4f776e61626c653a2063616c6c6572206973206e6f7420746865206f776e65726044820152606401610761565b6002805473ffffffffffffffffffffffffffffffffffffffff8381167fffffffffffffffffffffffff0000000000000000000000000000000000000000831681179093556040519116919082907f8be0079c531659141344cd1fd0a4f28419497f9722a3daafe3b4186f6b6457e090600090a35050565b606060ff8314611ff657611fef83612637565b9050610963565b81805461200290612c80565b80601f016020809104026020016040519081016040528092919081815260200182805461202e90612c80565b801561207b5780601f106120505761010080835404028352916020019161207b565b820191906000526020600020905b81548152906001019060200180831161205e57829003601f168201915b50505050509050610963565b6000807f7fffffffffffffffffffffffffffffff5d576e7357a4501ddfe92f46681b20a08311156120be575060009050600361216d565b6040805160008082526020820180845289905260ff881692820192909252606081018690526080810185905260019060a0016020604051602081039080840390855afa158015612112573d6000803e3d6000fd5b50506040517fffffffffffffffffffffffffffffffffffffffffffffffffffffffffffffffe0015191505073ffffffffffffffffffffffffffffffffffffffff81166121665760006001925092505061216d565b9150600090505b94509492505050565b600081600481111561218a5761218a612df4565b036121925750565b60018160048111156121a6576121a6612df4565b0361220d576040517f08c379a000000000000000000000000000000000000000000000000000000000815260206004820152601860248201527f45434453413a20696e76616c6964207369676e617475726500000000000000006044820152606401610761565b600281600481111561222157612221612df4565b03612288576040517f08c379a000000000000000000000000000000000000000000000000000000000815260206004820152601f60248201527f45434453413a20696e76616c6964207369676e6174757265206c656e677468006044820152606401610761565b600381600481111561229c5761229c612df4565b036109d9576040517f08c379a000000000000000000000000000000000000000000000000000000000815260206004820152602260248201527f45434453413a20696e76616c6964207369676e6174757265202773272076616c60448201527f75650000000000000000000000000000000000000000000000000000000000006064820152608401610761565b73ffffffffffffffffffffffffffffffffffffffff82166123cc576040517f08c379a000000000000000000000000000000000000000000000000000000000815260206004820152602160248201527f45524332303a206275726e2066726f6d20746865207a65726f2061646472657360448201527f73000000000000000000000000000000000000000000000000000000000000006064820152608401610761565b73ffffffffffffffffffffffffffffffffffffffff8216600090815260096020526040812054906123fc83611382565b90508082101561248e576040517f08c379a000000000000000000000000000000000000000000000000000000000815260206004820152602260248201527f45524332303a206275726e20616d6f756e7420657863656564732062616c616e60448201527f63650000000000000000000000000000000000000000000000000000000000006064820152608401610761565b73ffffffffffffffffffffffffffffffffffffffff841660009081526009602052604081208284039055600880548392906124ca908490612d67565b909155505060405183815260009073ffffffffffffffffffffffffffffffffffffffff8616907fddf252ad1be2c89b69c2b068fc378daa952ba7f163c4a11628f55a4df523b3ef9060200160405180910390a350505050565b6000612585826040518060400160405280602081526020017f5361666545524332303a206c6f772d6c6576656c2063616c6c206661696c65648152508573ffffffffffffffffffffffffffffffffffffffff166126769092919063ffffffff16565b90508051600014806125a65750808060200190518101906125a69190612e23565b612632576040517f08c379a000000000000000000000000000000000000000000000000000000000815260206004820152602a60248201527f5361666545524332303a204552433230206f7065726174696f6e20646964206e60448201527f6f742073756363656564000000000000000000000000000000000000000000006064820152608401610761565b505050565b6060600061264483612685565b604080516020808252818301909252919250600091906020820181803683375050509182525060208101929092525090565b606061099084846000856126c6565b600060ff8216601f811115610963576040517fb3512b0c00000000000000000000000000000000000000000000000000000000815260040160405180910390fd5b606082471015612758576040517f08c379a000000000000000000000000000000000000000000000000000000000815260206004820152602660248201527f416464726573733a20696e73756666696369656e742062616c616e636520666f60448201527f722063616c6c00000000000000000000000000000000000000000000000000006064820152608401610761565b6000808673ffffffffffffffffffffffffffffffffffffffff1685876040516127819190612e45565b60006040518083038185875af1925050503d80600081146127be576040519150601f19603f3d011682016040523d82523d6000602084013e6127c3565b606091505b50915091506127d4878383876127df565b979650505050505050565b6060831561287557825160000361286e5773ffffffffffffffffffffffffffffffffffffffff85163b61286e576040517f08c379a000000000000000000000000000000000000000000000000000000000815260206004820152601d60248201527f416464726573733a2063616c6c20746f206e6f6e2d636f6e74726163740000006044820152606401610761565b5081610990565b610990838381511561288a5781518083602001fd5b806040517f08c379a000000000000000000000000000000000000000000000000000000000815260040161076191906129b0565b73ffffffffffffffffffffffffffffffffffffffff811681146109d957600080fd5b60008060008060008060c087890312156128f957600080fd5b8635612904816128be565b95506020870135945060408701359350606087013560ff8116811461292857600080fd5b9598949750929560808101359460a0909101359350915050565b60005b8381101561295d578181015183820152602001612945565b50506000910152565b6000815180845261297e816020860160208601612942565b601f017fffffffffffffffffffffffffffffffffffffffffffffffffffffffffffffffe0169290920160200192915050565b602081526000610def6020830184612966565b600080604083850312156129d657600080fd5b82356129e1816128be565b946020939093013593505050565b600060208284031215612a0157600080fd5b5035919050565b600080600060608486031215612a1d57600080fd5b8335612a28816128be565b92506020840135612a38816128be565b929592945050506040919091013590565b600060208284031215612a5b57600080fd5b8135610def816128be565b7f4e487b7100000000000000000000000000000000000000000000000000000000600052604160045260246000fd5b8035612aa0816128be565b919050565b60006020808385031215612ab857600080fd5b823567ffffffffffffffff80821115612ad057600080fd5b818501915085601f830112612ae457600080fd5b813581811115612af657612af6612a66565b8060051b6040517fffffffffffffffffffffffffffffffffffffffffffffffffffffffffffffffe0603f83011681018181108582111715612b3957612b39612a66565b604052918252848201925083810185019188831115612b5757600080fd5b938501935b82851015612b7c57612b6d85612a95565b84529385019392850192612b5c565b98975050505050505050565b7fff00000000000000000000000000000000000000000000000000000000000000881681526000602060e081840152612bc460e084018a612966565b8381036040850152612bd6818a612966565b6060850189905273ffffffffffffffffffffffffffffffffffffffff8816608086015260a0850187905284810360c0860152855180825283870192509083019060005b81811015612c3557835183529284019291840191600101612c19565b50909c9b505050505050505050505050565b60008060408385031215612c5a57600080fd5b8235612c65816128be565b91506020830135612c75816128be565b809150509250929050565b600181811c90821680612c9457607f821691505b60208210810361148c577f4e487b7100000000000000000000000000000000000000000000000000000000600052602260045260246000fd5b7f4e487b7100000000000000000000000000000000000000000000000000000000600052601160045260246000fd5b808202811582820484141761096357610963612ccd565b600082612d49577f4e487b7100000000000000000000000000000000000000000000000000000000600052601260045260246000fd5b500490565b600060208284031215612d6057600080fd5b5051919050565b8181038181111561096357610963612ccd565b8082018082111561096357610963612ccd565b7f4e487b7100000000000000000000000000000000000000000000000000000000600052603260045260246000fd5b60007fffffffffffffffffffffffffffffffffffffffffffffffffffffffffffffffff8203612ded57612ded612ccd565b5060010190565b7f4e487b7100000000000000000000000000000000000000000000000000000000600052602160045260246000fd5b600060208284031215612e3557600080fd5b81518015158114610def57600080fd5b60008251612e57818460208701612942565b919091019291505056fea26469706673582212208eb65146c9730b3f8a30161afade6d0783f540d14bdd5d5796102ae071443b0364736f6c63430008130033",
  "linkReferences": {},
  "deployedLinkReferences": {}
}