{
  "_format": "hh-sol-artifact-1",
  "contractName": "Exposure",
  "sourceName": "contracts/core/Exposure.sol",
  "abi": [
    {
      "inputs": [
        {
          "internalType": "string",
          "name": "_name",
          "type": "string"
        },
        {
          "internalType": "string",
          "name": "_symbol",
          "type": "string"
        },
        {
          "internalType": "contract IERC20",
          "name": "_revalToken",
          "type": "address"
        }
      ],
      "stateMutability": "nonpayable",
      "type": "constructor"
    },
    {
      "anonymous": false,
      "inputs": [
        {
          "indexed": true,
          "internalType": "address",
          "name": "owner",
          "type": "address"
        },
        {
          "indexed": true,
          "internalType": "address",
          "name": "spender",
          "type": "address"
        },
        {
          "indexed": false,
          "internalType": "uint256",
          "name": "value",
          "type": "uint256"
        }
      ],
      "name": "Approval",
      "type": "event"
    },
    {
      "anonymous": false,
      "inputs": [
        {
          "indexed": false,
          "internalType": "uint256",
          "name": "oldVal",
          "type": "uint256"
        },
        {
          "indexed": false,
          "internalType": "uint256",
          "name": "newVal",
          "type": "uint256"
        }
      ],
      "name": "DecreaseReval",
      "type": "event"
    },
    {
      "anonymous": false,
      "inputs": [
        {
          "indexed": false,
          "internalType": "uint256",
          "name": "oldVal",
          "type": "uint256"
        },
        {
          "indexed": false,
          "internalType": "uint256",
          "name": "newVal",
          "type": "uint256"
        }
      ],
      "name": "IncreaseReval",
      "type": "event"
    },
    {
      "anonymous": false,
      "inputs": [
        {
          "indexed": true,
          "internalType": "address",
          "name": "previousOwner",
          "type": "address"
        },
        {
          "indexed": true,
          "internalType": "address",
          "name": "newOwner",
          "type": "address"
        }
      ],
      "name": "OwnershipTransferred",
      "type": "event"
    },
    {
      "anonymous": false,
      "inputs": [
        {
          "indexed": false,
          "internalType": "address",
          "name": "revalToken",
          "type": "address"
        },
        {
          "indexed": false,
          "internalType": "address",
          "name": "caller",
          "type": "address"
        },
        {
          "indexed": false,
          "internalType": "address",
          "name": "to",
          "type": "address"
        },
        {
          "indexed": false,
          "internalType": "uint256",
          "name": "amount",
          "type": "uint256"
        }
      ],
      "name": "Redeem",
      "type": "event"
    },
    {
      "anonymous": false,
      "inputs": [
        {
          "indexed": false,
          "internalType": "address",
          "name": "liquidator",
          "type": "address"
        }
      ],
      "name": "SetLiquidator",
      "type": "event"
    },
    {
      "anonymous": false,
      "inputs": [
        {
          "indexed": false,
          "internalType": "address",
          "name": "account",
          "type": "address"
        },
        {
          "indexed": false,
          "internalType": "bool",
          "name": "state",
          "type": "bool"
        }
      ],
      "name": "SetMinterState",
      "type": "event"
    },
    {
      "anonymous": false,
      "inputs": [
        {
          "indexed": true,
          "internalType": "address",
          "name": "from",
          "type": "address"
        },
        {
          "indexed": true,
          "internalType": "address",
          "name": "to",
          "type": "address"
        },
        {
          "indexed": false,
          "internalType": "uint256",
          "name": "value",
          "type": "uint256"
        }
      ],
      "name": "Transfer",
      "type": "event"
    },
    {
      "inputs": [
        {
          "internalType": "address",
          "name": "owner",
          "type": "address"
        },
        {
          "internalType": "address",
          "name": "spender",
          "type": "address"
        }
      ],
      "name": "allowance",
      "outputs": [
        {
          "internalType": "uint256",
          "name": "",
          "type": "uint256"
        }
      ],
      "stateMutability": "view",
      "type": "function"
    },
    {
      "inputs": [],
      "name": "amountPerShare",
      "outputs": [
        {
          "internalType": "uint256",
          "name": "p",
          "type": "uint256"
        },
        {
          "internalType": "uint256",
          "name": "q",
          "type": "uint256"
        }
      ],
      "stateMutability": "view",
      "type": "function"
    },
    {
      "inputs": [
        {
          "internalType": "address",
          "name": "spender",
          "type": "address"
        },
        {
          "internalType": "uint256",
          "name": "amount",
          "type": "uint256"
        }
      ],
      "name": "approve",
      "outputs": [
        {
          "internalType": "bool",
          "name": "",
          "type": "bool"
        }
      ],
      "stateMutability": "nonpayable",
      "type": "function"
    },
    {
      "inputs": [
        {
          "internalType": "address",
          "name": "account",
          "type": "address"
        }
      ],
      "name": "balanceOf",
      "outputs": [
        {
          "internalType": "uint256",
          "name": "",
          "type": "uint256"
        }
      ],
      "stateMutability": "view",
      "type": "function"
    },
    {
      "inputs": [
        {
          "internalType": "address",
          "name": "",
          "type": "address"
        }
      ],
      "name": "canMint",
      "outputs": [
        {
          "internalType": "bool",
          "name": "",
          "type": "bool"
        }
      ],
      "stateMutability": "view",
      "type": "function"
    },
    {
      "inputs": [],
      "name": "decimals",
      "outputs": [
        {
          "internalType": "uint8",
          "name": "",
          "type": "uint8"
        }
      ],
      "stateMutability": "view",
      "type": "function"
    },
    {
      "inputs": [
        {
          "internalType": "address",
          "name": "spender",
          "type": "address"
        },
        {
          "internalType": "uint256",
          "name": "subtractedValue",
          "type": "uint256"
        }
      ],
      "name": "decreaseAllowance",
      "outputs": [
        {
          "internalType": "bool",
          "name": "",
          "type": "bool"
        }
      ],
      "stateMutability": "nonpayable",
      "type": "function"
    },
    {
      "inputs": [
        {
          "internalType": "uint256",
          "name": "amount",
          "type": "uint256"
        }
      ],
      "name": "decreaseReval",
      "outputs": [],
      "stateMutability": "nonpayable",
      "type": "function"
    },
    {
      "inputs": [
        {
          "internalType": "address",
          "name": "spender",
          "type": "address"
        },
        {
          "internalType": "uint256",
          "name": "addedValue",
          "type": "uint256"
        }
      ],
      "name": "increaseAllowance",
      "outputs": [
        {
          "internalType": "bool",
          "name": "",
          "type": "bool"
        }
      ],
      "stateMutability": "nonpayable",
      "type": "function"
    },
    {
      "inputs": [
        {
          "internalType": "uint256",
          "name": "amount",
          "type": "uint256"
        }
      ],
      "name": "increaseReval",
      "outputs": [],
      "stateMutability": "nonpayable",
      "type": "function"
    },
    {
      "inputs": [],
      "name": "liquidator",
      "outputs": [
        {
          "internalType": "contract ILiquidator",
          "name": "",
          "type": "address"
        }
      ],
      "stateMutability": "view",
      "type": "function"
    },
    {
      "inputs": [
        {
          "internalType": "address",
          "name": "account",
          "type": "address"
        },
        {
          "internalType": "uint256",
          "name": "amount",
          "type": "uint256"
        }
      ],
      "name": "mint",
      "outputs": [],
      "stateMutability": "nonpayable",
      "type": "function"
    },
    {
      "inputs": [],
      "name": "name",
      "outputs": [
        {
          "internalType": "string",
          "name": "",
          "type": "string"
        }
      ],
      "stateMutability": "view",
      "type": "function"
    },
    {
      "inputs": [],
      "name": "owner",
      "outputs": [
        {
          "internalType": "address",
          "name": "",
          "type": "address"
        }
      ],
      "stateMutability": "view",
      "type": "function"
    },
    {
      "inputs": [],
      "name": "redeem",
      "outputs": [],
      "stateMutability": "nonpayable",
      "type": "function"
    },
    {
      "inputs": [
        {
          "internalType": "uint256",
          "name": "amount",
          "type": "uint256"
        },
        {
          "internalType": "address",
          "name": "to",
          "type": "address"
        }
      ],
      "name": "redeemAmount",
      "outputs": [],
      "stateMutability": "nonpayable",
      "type": "function"
    },
    {
      "inputs": [],
      "name": "renounceOwnership",
      "outputs": [],
      "stateMutability": "nonpayable",
      "type": "function"
    },
    {
      "inputs": [],
      "name": "reval",
      "outputs": [
        {
          "internalType": "uint256",
          "name": "",
          "type": "uint256"
        }
      ],
      "stateMutability": "view",
      "type": "function"
    },
    {
      "inputs": [],
      "name": "revalToken",
      "outputs": [
        {
          "internalType": "contract IERC20",
          "name": "",
          "type": "address"
        }
      ],
      "stateMutability": "view",
      "type": "function"
    },
    {
      "inputs": [
        {
          "internalType": "contract ILiquidator",
          "name": "_liquidator",
          "type": "address"
        }
      ],
      "name": "setLiqidator",
      "outputs": [],
      "stateMutability": "nonpayable",
      "type": "function"
    },
    {
      "inputs": [
        {
          "internalType": "address",
          "name": "account",
          "type": "address"
        },
        {
          "internalType": "bool",
          "name": "state",
          "type": "bool"
        }
      ],
      "name": "setMinterState",
      "outputs": [],
      "stateMutability": "nonpayable",
      "type": "function"
    },
    {
      "inputs": [
        {
          "internalType": "address",
          "name": "",
          "type": "address"
        }
      ],
      "name": "shareBalanceOf",
      "outputs": [
        {
          "internalType": "uint256",
          "name": "",
          "type": "uint256"
        }
      ],
      "stateMutability": "view",
      "type": "function"
    },
    {
      "inputs": [],
      "name": "symbol",
      "outputs": [
        {
          "internalType": "string",
          "name": "",
          "type": "string"
        }
      ],
      "stateMutability": "view",
      "type": "function"
    },
    {
      "inputs": [
        {
          "internalType": "uint256",
          "name": "tokenAmount",
          "type": "uint256"
        }
      ],
      "name": "toSharesAmount",
      "outputs": [
        {
          "internalType": "uint256",
          "name": "sharesAmount",
          "type": "uint256"
        }
      ],
      "stateMutability": "view",
      "type": "function"
    },
    {
      "inputs": [
        {
          "internalType": "uint256",
          "name": "sharesAmount",
          "type": "uint256"
        }
      ],
      "name": "toTokenAmount",
      "outputs": [
        {
          "internalType": "uint256",
          "name": "tokenAmount",
          "type": "uint256"
        }
      ],
      "stateMutability": "view",
      "type": "function"
    },
    {
      "inputs": [],
      "name": "totalShares",
      "outputs": [
        {
          "internalType": "uint256",
          "name": "",
          "type": "uint256"
        }
      ],
      "stateMutability": "view",
      "type": "function"
    },
    {
      "inputs": [],
      "name": "totalSupply",
      "outputs": [
        {
          "internalType": "uint256",
          "name": "",
          "type": "uint256"
        }
      ],
      "stateMutability": "view",
      "type": "function"
    },
    {
      "inputs": [
        {
          "internalType": "address",
          "name": "recipient",
          "type": "address"
        },
        {
          "internalType": "uint256",
          "name": "amount",
          "type": "uint256"
        }
      ],
      "name": "transfer",
      "outputs": [
        {
          "internalType": "bool",
          "name": "",
          "type": "bool"
        }
      ],
      "stateMutability": "nonpayable",
      "type": "function"
    },
    {
      "inputs": [
        {
          "internalType": "address",
          "name": "sender",
          "type": "address"
        },
        {
          "internalType": "address",
          "name": "recipient",
          "type": "address"
        },
        {
          "internalType": "uint256",
          "name": "amount",
          "type": "uint256"
        }
      ],
      "name": "transferFrom",
      "outputs": [
        {
          "internalType": "bool",
          "name": "",
          "type": "bool"
        }
      ],
      "stateMutability": "nonpayable",
      "type": "function"
    },
    {
      "inputs": [
        {
          "internalType": "address",
          "name": "newOwner",
          "type": "address"
        }
      ],
      "name": "transferOwnership",
      "outputs": [],
      "stateMutability": "nonpayable",
      "type": "function"
    }
  ],
  "bytecode": "0x60806040523480156200001157600080fd5b5060405162001dc938038062001dc9833981016040819052620000349162000242565b8282620000413362000099565b815162000056906004906020850190620000e9565b5080516200006c906005906020840190620000e9565b5050600880546001600160a01b0319166001600160a01b039390931692909217909155506200031e915050565b600080546001600160a01b038381166001600160a01b0319831681178455604051919092169283917f8be0079c531659141344cd1fd0a4f28419497f9722a3daafe3b4186f6b6457e09190a35050565b828054620000f790620002cb565b90600052602060002090601f0160209004810192826200011b576000855562000166565b82601f106200013657805160ff191683800117855562000166565b8280016001018555821562000166579182015b828111156200016657825182559160200191906001019062000149565b506200017492915062000178565b5090565b5b8082111562000174576000815560010162000179565b600082601f830112620001a0578081fd5b81516001600160401b0380821115620001bd57620001bd62000308565b604051601f8301601f19908116603f01168101908282118183101715620001e857620001e862000308565b8160405283815260209250868385880101111562000204578485fd5b8491505b8382101562000227578582018301518183018401529082019062000208565b838211156200023857848385830101525b9695505050505050565b60008060006060848603121562000257578283fd5b83516001600160401b03808211156200026e578485fd5b6200027c878388016200018f565b9450602086015191508082111562000292578384fd5b50620002a1868287016200018f565b604086015190935090506001600160a01b0381168114620002c0578182fd5b809150509250925092565b600181811c90821680620002e057607f821691505b602082108114156200030257634e487b7160e01b600052602260045260246000fd5b50919050565b634e487b7160e01b600052604160045260246000fd5b611a9b806200032e6000396000f3fe608060405234801561001057600080fd5b50600436106101da5760003560e01c8063715018a611610104578063a746f93a116100a2578063be040fb011610071578063be040fb014610420578063c2ba474414610428578063dd62ed3e1461044b578063f2fde38b1461049157600080fd5b8063a746f93a146103d4578063a9059cbb146103e7578063ae85d641146103fa578063b0ff11061461040d57600080fd5b80638da5cb5b116100de5780638da5cb5b1461038857806395d89b41146103a657806398275593146103ae578063a457c2d7146103c157600080fd5b8063715018a6146103435780637c5a227c1461034b578063873924e41461036857600080fd5b8063313ce5671161017c5780634046ebae1161014b5780634046ebae146102b857806340c10f19146102fd5780634473ad521461031057806370a082311461033057600080fd5b8063313ce5671461028457806339509351146102935780633a98ef39146102a65780633f3a0c5b146102af57600080fd5b8063095ea7b3116101b8578063095ea7b314610225578063174e4ea61461024857806318160ddd1461026957806323b872dd1461027157600080fd5b8063057ac848146101df578063064c97d6146101f457806306fdde0314610207575b600080fd5b6101f26101ed36600461186e565b6104a4565b005b6101f261020236600461186e565b610584565b61020f610657565b60405161021c91906118aa565b60405180910390f35b610238610233366004611843565b6106e9565b604051901515815260200161021c565b61025b61025636600461186e565b6106ff565b60405190815260200161021c565b61025b61072e565b61023861027f3660046117d2565b610740565b6040516012815260200161021c565b6102386102a1366004611843565b610826565b61025b60065481565b61025b60095481565b600b546102d89073ffffffffffffffffffffffffffffffffffffffff1681565b60405173ffffffffffffffffffffffffffffffffffffffff909116815260200161021c565b6101f261030b366004611843565b61086f565b61025b61031e366004611777565b60076020526000908152604090205481565b61025b61033e366004611777565b61090d565b6101f2610942565b6103536109cf565b6040805192835260208301919091520161021c565b6008546102d89073ffffffffffffffffffffffffffffffffffffffff1681565b60005473ffffffffffffffffffffffffffffffffffffffff166102d8565b61020f6109eb565b6101f26103bc366004611886565b6109fa565b6102386103cf366004611843565b610b25565b6101f26103e2366004611812565b610bfd565b6102386103f5366004611843565b610d05565b6101f2610408366004611777565b610d12565b61025b61041b36600461186e565b610e0c565b6101f2610e29565b610238610436366004611777565b600a6020526000908152604090205460ff1681565b61025b61045936600461179a565b73ffffffffffffffffffffffffffffffffffffffff918216600090815260026020908152604080832093909416825291909152205490565b6101f261049f366004611777565b610e3b565b60005473ffffffffffffffffffffffffffffffffffffffff16331461052a576040517f08c379a000000000000000000000000000000000000000000000000000000000815260206004820181905260248201527f4f776e61626c653a2063616c6c6572206973206e6f7420746865206f776e657260448201526064015b60405180910390fd5b60098054908290600061053d838561191b565b90915550506009546040805183815260208101929092527fa59e96b3c1d252b5b2fd20d08a77732f3af73142db0af5e50ced94b558c7fa0591015b60405180910390a15050565b60005473ffffffffffffffffffffffffffffffffffffffff163314610605576040517f08c379a000000000000000000000000000000000000000000000000000000000815260206004820181905260248201527f4f776e61626c653a2063616c6c6572206973206e6f7420746865206f776e65726044820152606401610521565b60098054908290600061061883856119a9565b90915550506009546040805183815260208101929092527f307076957a8ce6e01b7d381f303646d1011fb16a9842dfa0859a9eddfd312e429101610578565b606060048054610666906119c0565b80601f0160208091040260200160405190810160405280929190818152602001828054610692906119c0565b80156106df5780601f106106b4576101008083540402835291602001916106df565b820191906000526020600020905b8154815290600101906020018083116106c257829003601f168201915b5050505050905090565b60006106f6338484610f6b565b50600192915050565b600080600061070c6109cf565b90925090508061071c838661196c565b6107269190611933565b949350505050565b600061073b6006546106ff565b905090565b600061074d84848461111f565b73ffffffffffffffffffffffffffffffffffffffff841660009081526002602090815260408083203384529091529020548281101561080e576040517f08c379a000000000000000000000000000000000000000000000000000000000815260206004820152602860248201527f45524332303a207472616e7366657220616d6f756e742065786365656473206160448201527f6c6c6f77616e63650000000000000000000000000000000000000000000000006064820152608401610521565b61081b8533858403610f6b565b506001949350505050565b33600081815260026020908152604080832073ffffffffffffffffffffffffffffffffffffffff8716845290915281205490916106f691859061086a90869061191b565b610f6b565b336000908152600a602052604090205460ff166108e8576040517f08c379a000000000000000000000000000000000000000000000000000000000815260206004820152601f60248201527f4578706f737572653a2063616c6c6572206973206e6f742061207661756c74006044820152606401610521565b6108f282826113e2565b8060096000828254610904919061191b565b90915550505050565b73ffffffffffffffffffffffffffffffffffffffff811660009081526007602052604081205461093c906106ff565b92915050565b60005473ffffffffffffffffffffffffffffffffffffffff1633146109c3576040517f08c379a000000000000000000000000000000000000000000000000000000000815260206004820181905260248201527f4f776e61626c653a2063616c6c6572206973206e6f7420746865206f776e65726044820152606401610521565b6109cd6000611508565b565b600954600654816109df57600191505b806109e75750805b9091565b606060058054610666906119c0565b610a04338361157d565b8160096000828254610a1691906119a9565b9091555050600b5473ffffffffffffffffffffffffffffffffffffffff1615610ac657600b546040517f4d4c23a80000000000000000000000000000000000000000000000000000000081526004810184905273ffffffffffffffffffffffffffffffffffffffff838116602483015290911690634d4c23a890604401600060405180830381600087803b158015610aad57600080fd5b505af1158015610ac1573d6000803e3d6000fd5b505050505b6008546040805173ffffffffffffffffffffffffffffffffffffffff928316815233602082015291831690820152606081018390527fee02732fab40ece8284c756220846dff4b8d32058b86b35b4f0459bf172fcef090608001610578565b33600090815260026020908152604080832073ffffffffffffffffffffffffffffffffffffffff8616845290915281205482811015610be6576040517f08c379a000000000000000000000000000000000000000000000000000000000815260206004820152602560248201527f45524332303a2064656372656173656420616c6c6f77616e63652062656c6f7760448201527f207a65726f0000000000000000000000000000000000000000000000000000006064820152608401610521565b610bf33385858403610f6b565b5060019392505050565b60005473ffffffffffffffffffffffffffffffffffffffff163314610c7e576040517f08c379a000000000000000000000000000000000000000000000000000000000815260206004820181905260248201527f4f776e61626c653a2063616c6c6572206973206e6f7420746865206f776e65726044820152606401610521565b73ffffffffffffffffffffffffffffffffffffffff82166000818152600a602090815260409182902080547fffffffffffffffffffffffffffffffffffffffffffffffffffffffffffffff00168515159081179091558251938452908301527f73d5b2f10126b99916a4c71d591a354f52ed52ca3b0278eaf584e35220addb779101610578565b60006106f633848461111f565b60005473ffffffffffffffffffffffffffffffffffffffff163314610d93576040517f08c379a000000000000000000000000000000000000000000000000000000000815260206004820181905260248201527f4f776e61626c653a2063616c6c6572206973206e6f7420746865206f776e65726044820152606401610521565b600b80547fffffffffffffffffffffffff00000000000000000000000000000000000000001673ffffffffffffffffffffffffffffffffffffffff83169081179091556040519081527f111c6aeb2006d748bdae2ddf082866e6ce7eb3d48ef324b5d9547570f5694e4f9060200160405180910390a150565b6000806000610e196109cf565b90925090508161071c828661196c565b6109cd610e353361090d565b336109fa565b60005473ffffffffffffffffffffffffffffffffffffffff163314610ebc576040517f08c379a000000000000000000000000000000000000000000000000000000000815260206004820181905260248201527f4f776e61626c653a2063616c6c6572206973206e6f7420746865206f776e65726044820152606401610521565b73ffffffffffffffffffffffffffffffffffffffff8116610f5f576040517f08c379a000000000000000000000000000000000000000000000000000000000815260206004820152602660248201527f4f776e61626c653a206e6577206f776e657220697320746865207a65726f206160448201527f64647265737300000000000000000000000000000000000000000000000000006064820152608401610521565b610f6881611508565b50565b73ffffffffffffffffffffffffffffffffffffffff831661100d576040517f08c379a0000000000000000000000000000000000000000000000000000000008152602060048201526024808201527f45524332303a20617070726f76652066726f6d20746865207a65726f2061646460448201527f72657373000000000000000000000000000000000000000000000000000000006064820152608401610521565b73ffffffffffffffffffffffffffffffffffffffff82166110b0576040517f08c379a000000000000000000000000000000000000000000000000000000000815260206004820152602260248201527f45524332303a20617070726f766520746f20746865207a65726f20616464726560448201527f73730000000000000000000000000000000000000000000000000000000000006064820152608401610521565b73ffffffffffffffffffffffffffffffffffffffff83811660008181526002602090815260408083209487168084529482529182902085905590518481527f8c5be1e5ebec7d5bd14f71427d1e84f3dd0314c0f7b2291e5b200ac8c7c3b92591015b60405180910390a3505050565b73ffffffffffffffffffffffffffffffffffffffff83166111c2576040517f08c379a000000000000000000000000000000000000000000000000000000000815260206004820152602560248201527f45524332303a207472616e736665722066726f6d20746865207a65726f20616460448201527f64726573730000000000000000000000000000000000000000000000000000006064820152608401610521565b73ffffffffffffffffffffffffffffffffffffffff8216611265576040517f08c379a000000000000000000000000000000000000000000000000000000000815260206004820152602360248201527f45524332303a207472616e7366657220746f20746865207a65726f206164647260448201527f65737300000000000000000000000000000000000000000000000000000000006064820152608401610521565b73ffffffffffffffffffffffffffffffffffffffff83166000908152600760205260408120549061129583610e0c565b905080821015611327576040517f08c379a000000000000000000000000000000000000000000000000000000000815260206004820152602660248201527f45524332303a207472616e7366657220616d6f756e742065786365656473206260448201527f616c616e636500000000000000000000000000000000000000000000000000006064820152608401610521565b73ffffffffffffffffffffffffffffffffffffffff808616600090815260076020526040808220805485900390559186168152908120805483929061136d90849061191b565b925050819055508373ffffffffffffffffffffffffffffffffffffffff168573ffffffffffffffffffffffffffffffffffffffff167fddf252ad1be2c89b69c2b068fc378daa952ba7f163c4a11628f55a4df523b3ef856040516113d391815260200190565b60405180910390a35050505050565b73ffffffffffffffffffffffffffffffffffffffff821661145f576040517f08c379a000000000000000000000000000000000000000000000000000000000815260206004820152601f60248201527f45524332303a206d696e7420746f20746865207a65726f2061646472657373006044820152606401610521565b600061146a82610e0c565b9050806006600082825461147e919061191b565b909155505073ffffffffffffffffffffffffffffffffffffffff8316600090815260076020526040812080548392906114b890849061191b565b909155505060405182815273ffffffffffffffffffffffffffffffffffffffff8416906000907fddf252ad1be2c89b69c2b068fc378daa952ba7f163c4a11628f55a4df523b3ef90602001611112565b6000805473ffffffffffffffffffffffffffffffffffffffff8381167fffffffffffffffffffffffff0000000000000000000000000000000000000000831681178455604051919092169283917f8be0079c531659141344cd1fd0a4f28419497f9722a3daafe3b4186f6b6457e09190a35050565b73ffffffffffffffffffffffffffffffffffffffff8216611620576040517f08c379a000000000000000000000000000000000000000000000000000000000815260206004820152602160248201527f45524332303a206275726e2066726f6d20746865207a65726f2061646472657360448201527f73000000000000000000000000000000000000000000000000000000000000006064820152608401610521565b73ffffffffffffffffffffffffffffffffffffffff82166000908152600760205260408120549061165083610e0c565b9050808210156116e2576040517f08c379a000000000000000000000000000000000000000000000000000000000815260206004820152602260248201527f45524332303a206275726e20616d6f756e7420657863656564732062616c616e60448201527f63650000000000000000000000000000000000000000000000000000000000006064820152608401610521565b73ffffffffffffffffffffffffffffffffffffffff8416600090815260076020526040812082840390556006805483929061171e9084906119a9565b909155505060405183815260009073ffffffffffffffffffffffffffffffffffffffff8616907fddf252ad1be2c89b69c2b068fc378daa952ba7f163c4a11628f55a4df523b3ef9060200160405180910390a350505050565b600060208284031215611788578081fd5b813561179381611a43565b9392505050565b600080604083850312156117ac578081fd5b82356117b781611a43565b915060208301356117c781611a43565b809150509250929050565b6000806000606084860312156117e6578081fd5b83356117f181611a43565b9250602084013561180181611a43565b929592945050506040919091013590565b60008060408385031215611824578182fd5b823561182f81611a43565b9150602083013580151581146117c7578182fd5b60008060408385031215611855578182fd5b823561186081611a43565b946020939093013593505050565b60006020828403121561187f578081fd5b5035919050565b60008060408385031215611898578182fd5b8235915060208301356117c781611a43565b6000602080835283518082850152825b818110156118d6578581018301518582016040015282016118ba565b818111156118e75783604083870101525b50601f017fffffffffffffffffffffffffffffffffffffffffffffffffffffffffffffffe016929092016040019392505050565b6000821982111561192e5761192e611a14565b500190565b600082611967577f4e487b710000000000000000000000000000000000000000000000000000000081526012600452602481fd5b500490565b6000817fffffffffffffffffffffffffffffffffffffffffffffffffffffffffffffffff04831182151516156119a4576119a4611a14565b500290565b6000828210156119bb576119bb611a14565b500390565b600181811c908216806119d457607f821691505b60208210811415611a0e577f4e487b7100000000000000000000000000000000000000000000000000000000600052602260045260246000fd5b50919050565b7f4e487b7100000000000000000000000000000000000000000000000000000000600052601160045260246000fd5b73ffffffffffffffffffffffffffffffffffffffff81168114610f6857600080fdfea26469706673582212209e6c71cc0f9ec06c8beccf7a76a241170f79b8ae598dfd293549fd4a1b38331c64736f6c63430008040033",
  "linkReferences": {},
  "deployedLinkReferences": {}
}