{
  "_format": "hh-sol-artifact-1",
  "contractName": "JoiningFee",
  "sourceName": "contracts/core/JoiningFee.sol",
  "abi": [
    {
      "inputs": [
        {
          "internalType": "uint256",
          "name": "_defaultHourlyJoiningFee",
          "type": "uint256"
        }
      ],
      "stateMutability": "nonpayable",
      "type": "constructor"
    },
    {
      "anonymous": false,
      "inputs": [
        {
          "indexed": true,
          "internalType": "address",
          "name": "previousOwner",
          "type": "address"
        },
        {
          "indexed": true,
          "internalType": "address",
          "name": "newOwner",
          "type": "address"
        }
      ],
      "name": "OwnershipTransferred",
      "type": "event"
    },
    {
      "anonymous": false,
      "inputs": [
        {
          "indexed": false,
          "internalType": "address",
          "name": "vault",
          "type": "address"
        },
        {
          "indexed": false,
          "internalType": "uint256",
          "name": "amount",
          "type": "uint256"
        }
      ],
      "name": "SetJoiningFee",
      "type": "event"
    },
    {
      "inputs": [
        {
          "internalType": "uint256",
          "name": "firstPeriodStartTimestamp",
          "type": "uint256"
        },
        {
          "internalType": "uint256",
          "name": "periodDuration",
          "type": "uint256"
        },
        {
          "internalType": "address",
          "name": "vault",
          "type": "address"
        }
      ],
      "name": "calc",
      "outputs": [
        {
          "internalType": "uint256",
          "name": "",
          "type": "uint256"
        }
      ],
      "stateMutability": "view",
      "type": "function"
    },
    {
      "inputs": [],
      "name": "defaultHourlyJoiningFee",
      "outputs": [
        {
          "internalType": "uint256",
          "name": "",
          "type": "uint256"
        }
      ],
      "stateMutability": "view",
      "type": "function"
    },
    {
      "inputs": [
        {
          "internalType": "address",
          "name": "",
          "type": "address"
        }
      ],
      "name": "hourlyJoiningFeeFor",
      "outputs": [
        {
          "internalType": "uint256",
          "name": "",
          "type": "uint256"
        }
      ],
      "stateMutability": "view",
      "type": "function"
    },
    {
      "inputs": [],
      "name": "owner",
      "outputs": [
        {
          "internalType": "address",
          "name": "",
          "type": "address"
        }
      ],
      "stateMutability": "view",
      "type": "function"
    },
    {
      "inputs": [],
      "name": "renounceOwnership",
      "outputs": [],
      "stateMutability": "nonpayable",
      "type": "function"
    },
    {
      "inputs": [
        {
          "internalType": "address",
          "name": "vault",
          "type": "address"
        },
        {
          "internalType": "uint256",
          "name": "amount",
          "type": "uint256"
        }
      ],
      "name": "setHourlyJoiningFeeFor",
      "outputs": [],
      "stateMutability": "nonpayable",
      "type": "function"
    },
    {
      "inputs": [
        {
          "internalType": "address",
          "name": "newOwner",
          "type": "address"
        }
      ],
      "name": "transferOwnership",
      "outputs": [],
      "stateMutability": "nonpayable",
      "type": "function"
    }
  ],
  "bytecode": "0x608060405234801561001057600080fd5b5060405161075c38038061075c83398101604081905261002f91610090565b61003833610040565b6001556100a8565b600080546001600160a01b038381166001600160a01b0319831681178455604051919092169283917f8be0079c531659141344cd1fd0a4f28419497f9722a3daafe3b4186f6b6457e09190a35050565b6000602082840312156100a1578081fd5b5051919050565b6106a5806100b76000396000f3fe608060405234801561001057600080fd5b506004361061007d5760003560e01c80638530a9761161005b5780638530a976146100c55780638da5cb5b146100ce578063cb7d6e44146100f6578063f2fde38b1461011657600080fd5b806307e7cc2714610082578063715018a6146100a85780637cb30b21146100b2575b600080fd5b61009561009036600461057f565b610129565b6040519081526020015b60405180910390f35b6100b06101b3565b005b6100b06100c0366004610556565b610245565b61009560015481565b60005460405173ffffffffffffffffffffffffffffffffffffffff909116815260200161009f565b610095610104366004610535565b60026020526000908152604090205481565b6100b0610124366004610535565b610367565b73ffffffffffffffffffffffffffffffffffffffff81166000908152600260205260408120548061015957506001545b6000846101668742610629565b61017091906105b3565b905081610e108761018188856105ec565b61018b9042610629565b6101959190610629565b61019f91906105b3565b6101a991906105ec565b9695505050505050565b60005473ffffffffffffffffffffffffffffffffffffffff163314610239576040517f08c379a000000000000000000000000000000000000000000000000000000000815260206004820181905260248201527f4f776e61626c653a2063616c6c6572206973206e6f7420746865206f776e657260448201526064015b60405180910390fd5b6102436000610497565b565b60005473ffffffffffffffffffffffffffffffffffffffff1633146102c6576040517f08c379a000000000000000000000000000000000000000000000000000000000815260206004820181905260248201527f4f776e61626c653a2063616c6c6572206973206e6f7420746865206f776e65726044820152606401610230565b73ffffffffffffffffffffffffffffffffffffffff82166102eb576001819055610314565b73ffffffffffffffffffffffffffffffffffffffff821660009081526002602052604090208190555b6040805173ffffffffffffffffffffffffffffffffffffffff84168152602081018390527fdbc1891aa43b25d34c9e91ae51cf4bdd4cee6562180419a686d464e7514aced1910160405180910390a15050565b60005473ffffffffffffffffffffffffffffffffffffffff1633146103e8576040517f08c379a000000000000000000000000000000000000000000000000000000000815260206004820181905260248201527f4f776e61626c653a2063616c6c6572206973206e6f7420746865206f776e65726044820152606401610230565b73ffffffffffffffffffffffffffffffffffffffff811661048b576040517f08c379a000000000000000000000000000000000000000000000000000000000815260206004820152602660248201527f4f776e61626c653a206e6577206f776e657220697320746865207a65726f206160448201527f64647265737300000000000000000000000000000000000000000000000000006064820152608401610230565b61049481610497565b50565b6000805473ffffffffffffffffffffffffffffffffffffffff8381167fffffffffffffffffffffffff0000000000000000000000000000000000000000831681178455604051919092169283917f8be0079c531659141344cd1fd0a4f28419497f9722a3daafe3b4186f6b6457e09190a35050565b803573ffffffffffffffffffffffffffffffffffffffff8116811461053057600080fd5b919050565b600060208284031215610546578081fd5b61054f8261050c565b9392505050565b60008060408385031215610568578081fd5b6105718361050c565b946020939093013593505050565b600080600060608486031215610593578081fd5b83359250602084013591506105aa6040850161050c565b90509250925092565b6000826105e7577f4e487b710000000000000000000000000000000000000000000000000000000081526012600452602481fd5b500490565b6000817fffffffffffffffffffffffffffffffffffffffffffffffffffffffffffffffff048311821515161561062457610624610640565b500290565b60008282101561063b5761063b610640565b500390565b7f4e487b7100000000000000000000000000000000000000000000000000000000600052601160045260246000fdfea2646970667358221220fe279249a6cd29b851899a308ea1082afbf09cb0cabff67df03a50aff1f2804164736f6c63430008040033",
  "linkReferences": {},
  "deployedLinkReferences": {}
}