{
  "_format": "hh-sol-artifact-1",
  "contractName": "OpsManager",
  "sourceName": "contracts/core/OpsManager.sol",
  "abi": [
    {
      "inputs": [
        {
          "internalType": "contract IERC20",
          "name": "_templeToken",
          "type": "address"
        },
        {
          "internalType": "contract JoiningFee",
          "name": "_joiningFee",
          "type": "address"
        }
      ],
      "stateMutability": "nonpayable",
      "type": "constructor"
    },
    {
      "anonymous": false,
      "inputs": [
        {
          "indexed": false,
          "internalType": "address",
          "name": "exposure",
          "type": "address"
        },
        {
          "indexed": false,
          "internalType": "address",
          "name": "primaryRevenue",
          "type": "address"
        }
      ],
      "name": "CreateExposure",
      "type": "event"
    },
    {
      "anonymous": false,
      "inputs": [
        {
          "indexed": false,
          "internalType": "address",
          "name": "vault",
          "type": "address"
        }
      ],
      "name": "CreateVaultInstance",
      "type": "event"
    },
    {
      "anonymous": false,
      "inputs": [
        {
          "indexed": true,
          "internalType": "address",
          "name": "previousOwner",
          "type": "address"
        },
        {
          "indexed": true,
          "internalType": "address",
          "name": "newOwner",
          "type": "address"
        }
      ],
      "name": "OwnershipTransferred",
      "type": "event"
    },
    {
      "inputs": [
        {
          "internalType": "address",
          "name": "",
          "type": "address"
        }
      ],
      "name": "activeVaults",
      "outputs": [
        {
          "internalType": "bool",
          "name": "",
          "type": "bool"
        }
      ],
      "stateMutability": "view",
      "type": "function"
    },
    {
      "inputs": [
        {
          "internalType": "contract IERC20[]",
          "name": "exposureTokens",
          "type": "address[]"
        },
        {
          "internalType": "uint256[]",
          "name": "amounts",
          "type": "uint256[]"
        }
      ],
      "name": "addRevenue",
      "outputs": [],
      "stateMutability": "nonpayable",
      "type": "function"
    },
    {
      "inputs": [
        {
          "internalType": "string",
          "name": "name",
          "type": "string"
        },
        {
          "internalType": "string",
          "name": "symbol",
          "type": "string"
        },
        {
          "internalType": "contract IERC20",
          "name": "revalToken",
          "type": "address"
        }
      ],
      "name": "createExposure",
      "outputs": [],
      "stateMutability": "nonpayable",
      "type": "function"
    },
    {
      "inputs": [
        {
          "internalType": "string",
          "name": "name",
          "type": "string"
        },
        {
          "internalType": "string",
          "name": "symbol",
          "type": "string"
        },
        {
          "internalType": "uint256",
          "name": "periodDuration",
          "type": "uint256"
        },
        {
          "internalType": "uint256",
          "name": "enterExitWindowDuration",
          "type": "uint256"
        },
        {
          "components": [
            {
              "internalType": "uint256",
              "name": "p",
              "type": "uint256"
            },
            {
              "internalType": "uint256",
              "name": "q",
              "type": "uint256"
            }
          ],
          "internalType": "struct Rational",
          "name": "shareBoostFactory",
          "type": "tuple"
        },
        {
          "internalType": "uint256",
          "name": "firstPeriodStartTimestamp",
          "type": "uint256"
        }
      ],
      "name": "createVaultInstance",
      "outputs": [],
      "stateMutability": "nonpayable",
      "type": "function"
    },
    {
      "inputs": [
        {
          "internalType": "contract Vault[]",
          "name": "vaults",
          "type": "address[]"
        },
        {
          "internalType": "uint256[]",
          "name": "amountsTemple",
          "type": "uint256[]"
        }
      ],
      "name": "increaseVaultTemple",
      "outputs": [],
      "stateMutability": "nonpayable",
      "type": "function"
    },
    {
      "inputs": [],
      "name": "joiningFee",
      "outputs": [
        {
          "internalType": "contract JoiningFee",
          "name": "",
          "type": "address"
        }
      ],
      "stateMutability": "view",
      "type": "function"
    },
    {
      "inputs": [
        {
          "internalType": "contract Vault[]",
          "name": "vaults",
          "type": "address[]"
        },
        {
          "internalType": "contract IERC20[]",
          "name": "exposureTokens",
          "type": "address[]"
        }
      ],
      "name": "liquidateExposures",
      "outputs": [],
      "stateMutability": "nonpayable",
      "type": "function"
    },
    {
      "inputs": [],
      "name": "owner",
      "outputs": [
        {
          "internalType": "address",
          "name": "",
          "type": "address"
        }
      ],
      "stateMutability": "view",
      "type": "function"
    },
    {
      "inputs": [
        {
          "internalType": "contract IERC20",
          "name": "",
          "type": "address"
        }
      ],
      "name": "pools",
      "outputs": [
        {
          "internalType": "contract TreasuryFarmingRevenue",
          "name": "",
          "type": "address"
        }
      ],
      "stateMutability": "view",
      "type": "function"
    },
    {
      "inputs": [
        {
          "internalType": "contract Vault[]",
          "name": "vaults",
          "type": "address[]"
        },
        {
          "internalType": "contract IERC20",
          "name": "exposureToken",
          "type": "address"
        }
      ],
      "name": "rebalance",
      "outputs": [],
      "stateMutability": "nonpayable",
      "type": "function"
    },
    {
      "inputs": [],
      "name": "renounceOwnership",
      "outputs": [],
      "stateMutability": "nonpayable",
      "type": "function"
    },
    {
      "inputs": [
        {
          "internalType": "contract Vault[]",
          "name": "vaults",
          "type": "address[]"
        },
        {
          "internalType": "contract IERC20",
          "name": "exposureToken",
          "type": "address"
        }
      ],
      "name": "requiresRebalance",
      "outputs": [
        {
          "internalType": "bool[]",
          "name": "",
          "type": "bool[]"
        }
      ],
      "stateMutability": "view",
      "type": "function"
    },
    {
      "inputs": [
        {
          "internalType": "uint256",
          "name": "",
          "type": "uint256"
        }
      ],
      "name": "revalTokens",
      "outputs": [
        {
          "internalType": "address",
          "name": "",
          "type": "address"
        }
      ],
      "stateMutability": "view",
      "type": "function"
    },
    {
      "inputs": [],
      "name": "templeExposure",
      "outputs": [
        {
          "internalType": "contract Exposure",
          "name": "",
          "type": "address"
        }
      ],
      "stateMutability": "view",
      "type": "function"
    },
    {
      "inputs": [],
      "name": "templeToken",
      "outputs": [
        {
          "internalType": "contract IERC20",
          "name": "",
          "type": "address"
        }
      ],
      "stateMutability": "view",
      "type": "function"
    },
    {
      "inputs": [
        {
          "internalType": "address",
          "name": "newOwner",
          "type": "address"
        }
      ],
      "name": "transferOwnership",
      "outputs": [],
      "stateMutability": "nonpayable",
      "type": "function"
    },
    {
      "inputs": [
        {
          "internalType": "contract IERC20[]",
          "name": "exposureTokens",
          "type": "address[]"
        },
        {
          "internalType": "uint256[]",
          "name": "revals",
          "type": "uint256[]"
        }
      ],
      "name": "updateExposureReval",
      "outputs": [],
      "stateMutability": "nonpayable",
      "type": "function"
    },
    {
      "inputs": [],
      "name": "vaultedTemple",
      "outputs": [
        {
          "internalType": "contract VaultedTemple",
          "name": "",
          "type": "address"
        }
      ],
      "stateMutability": "view",
      "type": "function"
    }
  ],
  "bytecode": "0x60c06040523480156200001157600080fd5b50604051620088e7380380620088e7833981016040819052620000349162000292565b6200003f3362000226565b6001600160601b0319606083811b821660805282901b1660a0526040518290620000699062000276565b6060808252600e908201526d7661756c7465642074656d706c6560901b608082015260a06020820181905260089082015267565f54454d504c4560c01b60c08201526001600160a01b03909116604082015260e001604051809103906000f080158015620000db573d6000803e3d6000fd5b50600580546001600160a01b0319166001600160a01b039290921691821790556040516353a37c9d60e11b81523060048201526001602482015263a746f93a90604401600060405180830381600087803b1580156200013957600080fd5b505af11580156200014e573d6000803e3d6000fd5b50506005546040518593506001600160a01b039091169150620001719062000284565b6001600160a01b03928316815291166020820152604001604051809103906000f080158015620001a5573d6000803e3d6000fd5b50600680546001600160a01b0319166001600160a01b0392831690811790915560055460405163ae85d64160e01b815260048101929092529091169063ae85d64190602401600060405180830381600087803b1580156200020557600080fd5b505af11580156200021a573d6000803e3d6000fd5b505050505050620002e9565b600080546001600160a01b038381166001600160a01b0319831681178455604051919092169283917f8be0079c531659141344cd1fd0a4f28419497f9722a3daafe3b4186f6b6457e09190a35050565b611dc98062005e2e83390190565b610cf08062007bf783390190565b60008060408385031215620002a5578182fd5b8251620002b281620002d0565b6020840151909250620002c581620002d0565b809150509250929050565b6001600160a01b0381168114620002e657600080fd5b50565b60805160601c60a05160601c615b0b62000323600039600081816101ec01526109de015260008181610367015261099b0152615b0b6000f3fe60806040523480156200001157600080fd5b50600436106200014f5760003560e01c80638bc1437b11620000c0578063a4063dbc116200008b578063aa5220f8116200006e578063aa5220f8146200034a578063b1a9069c1462000361578063f2fde38b146200038957600080fd5b8063a4063dbc14620002fa578063a7cd2a95146200033357600080fd5b80638bc1437b146200028c5780638ccf2e9a14620002ad5780638da5cb5b14620002c45780639d10ab8a14620002e357600080fd5b80636eeeaaa5116200011e5780638142fc3e11620001015780638142fc3e146200021857806387cc5f79146200023e57806389ce1a31146200027557600080fd5b80636eeeaaa514620001e6578063715018a6146200020e57600080fd5b80632ce8cfbf14620001545780634d420cf5146200016d578063558d9f1814620001b85780636bacd59314620001cf575b600080fd5b6200016b6200016536600462002185565b620003a0565b005b6006546200018e9073ffffffffffffffffffffffffffffffffffffffff1681565b60405173ffffffffffffffffffffffffffffffffffffffff90911681526020015b60405180910390f35b6200016b620001c936600462002086565b6200067c565b6200016b620001e036600462002278565b62000906565b6200018e7f000000000000000000000000000000000000000000000000000000000000000081565b6200016b62000bb6565b6200022f6200022936600462002185565b62000c47565b604051620001af9190620023ed565b620002646200024f36600462001fbd565b60036020526000908152604090205460ff1681565b6040519015158152602001620001af565b6200016b6200028636600462002086565b62000d43565b6005546200018e9073ffffffffffffffffffffffffffffffffffffffff1681565b6200016b620002be3660046200214c565b620011f7565b60005473ffffffffffffffffffffffffffffffffffffffff166200018e565b6200018e620002f43660046200234f565b6200154b565b6200018e6200030b36600462001fbd565b60016020526000908152604090205473ffffffffffffffffffffffffffffffffffffffff1681565b6200016b62000344366004620020ee565b62001583565b6200016b6200035b366004620021fa565b620019f4565b6200018e7f000000000000000000000000000000000000000000000000000000000000000081565b6200016b6200039a36600462001fbd565b62001c1f565b73ffffffffffffffffffffffffffffffffffffffff818116600090815260016020526040902054166200045a576040517f08c379a000000000000000000000000000000000000000000000000000000000815260206004820152603a60248201527f4e6f206578706f737572652f726576656e7565206661726d696e6720706f6f6c60448201527f20666f722074686520676976656e20455243323020546f6b656e00000000000060648201526084015b60405180910390fd5b60005b8251811015620006775760036000848381518110620004a5577f4e487b7100000000000000000000000000000000000000000000000000000000600052603260045260246000fd5b60209081029190910181015173ffffffffffffffffffffffffffffffffffffffff1682528101919091526040016000205460ff1662000567576040517f08c379a000000000000000000000000000000000000000000000000000000000815260206004820152603660248201527f4661726d696e67526576656e75654d616e616765723a20696e76616c69642f6960448201527f6e616374697665207661756c7420696e20617272617900000000000000000000606482015260840162000451565b73__$c588408e34393e9644b73b59296e6d3047$__63789654b9848381518110620005bb577f4e487b7100000000000000000000000000000000000000000000000000000000600052603260045260246000fd5b60209081029190910181015173ffffffffffffffffffffffffffffffffffffffff8681166000908152600190935260409283902054925160e085901b7fffffffff00000000000000000000000000000000000000000000000000000000168152918116600483015291909116602482015260440160006040518083038186803b1580156200064857600080fd5b505af41580156200065d573d6000803e3d6000fd5b5050505080806200066e90620026a3565b9150506200045d565b505050565b60005473ffffffffffffffffffffffffffffffffffffffff163314620006ff576040517f08c379a000000000000000000000000000000000000000000000000000000000815260206004820181905260248201527f4f776e61626c653a2063616c6c6572206973206e6f7420746865206f776e6572604482015260640162000451565b805182511462000792576040517f08c379a000000000000000000000000000000000000000000000000000000000815260206004820152603360248201527f4578706f737572657320616e6420616d6f756e7473206172726179206d75737460448201527f206265207468652073616d65206c656e67746800000000000000000000000000606482015260840162000451565b60005b8251811015620006775760016000848381518110620007dd577f4e487b7100000000000000000000000000000000000000000000000000000000600052603260045260246000fd5b602002602001015173ffffffffffffffffffffffffffffffffffffffff1673ffffffffffffffffffffffffffffffffffffffff16815260200190815260200160002060009054906101000a900473ffffffffffffffffffffffffffffffffffffffff1673ffffffffffffffffffffffffffffffffffffffff166363ec512d83838151811062000895577f4e487b7100000000000000000000000000000000000000000000000000000000600052603260045260246000fd5b60200260200101516040518263ffffffff1660e01b8152600401620008bc91815260200190565b600060405180830381600087803b158015620008d757600080fd5b505af1158015620008ec573d6000803e3d6000fd5b505050508080620008fd90620026a3565b91505062000795565b60005473ffffffffffffffffffffffffffffffffffffffff16331462000989576040517f08c379a000000000000000000000000000000000000000000000000000000000815260206004820181905260248201527f4f776e61626c653a2063616c6c6572206973206e6f7420746865206f776e6572604482015260640162000451565b600554600654604051600092899289927f00000000000000000000000000000000000000000000000000000000000000009273ffffffffffffffffffffffffffffffffffffffff9081169216908a908a908a907f0000000000000000000000000000000000000000000000000000000000000000908b9062000a0b9062001dca565b62000a209a99989796959493929190620024fe565b604051809103906000f08015801562000a3d573d6000803e3d6000fd5b5073ffffffffffffffffffffffffffffffffffffffff81811660008181526003602052604080822080547fffffffffffffffffffffffffffffffffffffffffffffffffffffffffffffff00166001908117909155600480548083018255938190527f8a35acfbc15ff81a39ae7d344fd709f28e8600b4aa8c65c6b64bfe7fe36bd19b90930180547fffffffffffffffffffffffff0000000000000000000000000000000000000000168517905560055491517fa746f93a000000000000000000000000000000000000000000000000000000008152928301939093526024820192909252929350169063a746f93a90604401600060405180830381600087803b15801562000b4a57600080fd5b505af115801562000b5f573d6000803e3d6000fd5b505060405173ffffffffffffffffffffffffffffffffffffffff841681527ff7d22e822fc5be306576f8f850c78d7957f332e493ceffa7ef2714b4e44aceac9250602001905060405180910390a150505050505050565b60005473ffffffffffffffffffffffffffffffffffffffff16331462000c39576040517f08c379a000000000000000000000000000000000000000000000000000000000815260206004820181905260248201527f4f776e61626c653a2063616c6c6572206973206e6f7420746865206f776e6572604482015260640162000451565b62000c45600062001d55565b565b73ffffffffffffffffffffffffffffffffffffffff808216600090815260016020526040908190205490517f1e2e006500000000000000000000000000000000000000000000000000000000815260609273__$c588408e34393e9644b73b59296e6d3047$__92631e2e00659262000cc6928892169060040162002485565b60006040518083038186803b15801562000cdf57600080fd5b505af415801562000cf4573d6000803e3d6000fd5b505050506040513d6000823e601f3d9081017fffffffffffffffffffffffffffffffffffffffffffffffffffffffffffffffe016820160405262000d3c919081019062001fdc565b9392505050565b60005473ffffffffffffffffffffffffffffffffffffffff16331462000dc6576040517f08c379a000000000000000000000000000000000000000000000000000000000815260206004820181905260248201527f4f776e61626c653a2063616c6c6572206973206e6f7420746865206f776e6572604482015260640162000451565b805182511462000e59576040517f08c379a000000000000000000000000000000000000000000000000000000000815260206004820152603960248201527f4578706f737572657320616e6420726576616c20616d6f756e7473206172726160448201527f79206d757374206265207468652073616d65206c656e67746800000000000000606482015260840162000451565b60005b8251811015620006775760006001600085848151811062000ea6577f4e487b7100000000000000000000000000000000000000000000000000000000600052603260045260246000fd5b602002602001015173ffffffffffffffffffffffffffffffffffffffff1673ffffffffffffffffffffffffffffffffffffffff16815260200190815260200160002060009054906101000a900473ffffffffffffffffffffffffffffffffffffffff1673ffffffffffffffffffffffffffffffffffffffff1663ebf7a41e6040518163ffffffff1660e01b815260040160206040518083038186803b15801562000f4f57600080fd5b505afa15801562000f64573d6000803e3d6000fd5b505050506040513d601f19601f8201168201806040525081019062000f8a9190620021db565b905060008173ffffffffffffffffffffffffffffffffffffffff16633f3a0c5b6040518163ffffffff1660e01b815260040160206040518083038186803b15801562000fd557600080fd5b505afa15801562000fea573d6000803e3d6000fd5b505050506040513d601f19601f8201168201806040525081019062001010919062002368565b90508383815181106200104c577f4e487b7100000000000000000000000000000000000000000000000000000000600052603260045260246000fd5b602002602001015181111562001120578173ffffffffffffffffffffffffffffffffffffffff1663064c97d6858581518110620010b2577f4e487b7100000000000000000000000000000000000000000000000000000000600052603260045260246000fd5b602002602001015183620010c7919062002689565b6040518263ffffffff1660e01b8152600401620010e691815260200190565b600060405180830381600087803b1580156200110157600080fd5b505af115801562001116573d6000803e3d6000fd5b50505050620011df565b8173ffffffffffffffffffffffffffffffffffffffff1663057ac8488286868151811062001177577f4e487b7100000000000000000000000000000000000000000000000000000000600052603260045260246000fd5b60200260200101516200118b919062002689565b6040518263ffffffff1660e01b8152600401620011aa91815260200190565b600060405180830381600087803b158015620011c557600080fd5b505af1158015620011da573d6000803e3d6000fd5b505050505b50508080620011ee90620026a3565b91505062000e5c565b60005473ffffffffffffffffffffffffffffffffffffffff1633146200127a576040517f08c379a000000000000000000000000000000000000000000000000000000000815260206004820181905260248201527f4f776e61626c653a2063616c6c6572206973206e6f7420746865206f776e6572604482015260640162000451565b80518251146200130d576040517f08c379a000000000000000000000000000000000000000000000000000000000815260206004820152603060248201527f7661756c747320616e6420616d6f756e7473206172726179206d75737420626560448201527f207468652073616d65206c656e67746800000000000000000000000000000000606482015260840162000451565b60005b825181101562000677576003600084838151811062001358577f4e487b7100000000000000000000000000000000000000000000000000000000600052603260045260246000fd5b60209081029190910181015173ffffffffffffffffffffffffffffffffffffffff1682528101919091526040016000205460ff166200141a576040517f08c379a000000000000000000000000000000000000000000000000000000000815260206004820152602d60248201527f4661726d696e67526576656e75654d616e616765723a20696e76616c6964207660448201527f61756c7420696e20617272617900000000000000000000000000000000000000606482015260840162000451565b600554835173ffffffffffffffffffffffffffffffffffffffff909116906340c10f199085908490811062001478577f4e487b7100000000000000000000000000000000000000000000000000000000600052603260045260246000fd5b6020026020010151848481518110620014ba577f4e487b7100000000000000000000000000000000000000000000000000000000600052603260045260246000fd5b60200260200101516040518363ffffffff1660e01b81526004016200150192919073ffffffffffffffffffffffffffffffffffffffff929092168252602082015260400190565b600060405180830381600087803b1580156200151c57600080fd5b505af115801562001531573d6000803e3d6000fd5b5050505080806200154290620026a3565b91505062001310565b600281815481106200155c57600080fd5b60009182526020909120015473ffffffffffffffffffffffffffffffffffffffff16905081565b60005473ffffffffffffffffffffffffffffffffffffffff16331462001606576040517f08c379a000000000000000000000000000000000000000000000000000000000815260206004820181905260248201527f4f776e61626c653a2063616c6c6572206973206e6f7420746865206f776e6572604482015260640162000451565b6000815167ffffffffffffffff8111156200164a577f4e487b7100000000000000000000000000000000000000000000000000000000600052604160045260246000fd5b60405190808252806020026020018201604052801562001674578160200160208202803683370190505b50905060005b82518110156200181a5760016000848381518110620016c2577f4e487b7100000000000000000000000000000000000000000000000000000000600052603260045260246000fd5b602002602001015173ffffffffffffffffffffffffffffffffffffffff1673ffffffffffffffffffffffffffffffffffffffff16815260200190815260200160002060009054906101000a900473ffffffffffffffffffffffffffffffffffffffff1673ffffffffffffffffffffffffffffffffffffffff1663ebf7a41e6040518163ffffffff1660e01b815260040160206040518083038186803b1580156200176b57600080fd5b505afa15801562001780573d6000803e3d6000fd5b505050506040513d601f19601f82011682018060405250810190620017a69190620021db565b828281518110620017e0577f4e487b7100000000000000000000000000000000000000000000000000000000600052603260045260246000fd5b73ffffffffffffffffffffffffffffffffffffffff90921660209283029190910190910152806200181181620026a3565b9150506200167a565b5060005b8351811015620019ee576003600085838151811062001866577f4e487b7100000000000000000000000000000000000000000000000000000000600052603260045260246000fd5b60209081029190910181015173ffffffffffffffffffffffffffffffffffffffff1682528101919091526040016000205460ff1662001928576040517f08c379a000000000000000000000000000000000000000000000000000000000815260206004820152602d60248201527f4661726d696e67526576656e75654d616e616765723a20696e76616c6964207660448201527f61756c7420696e20617272617900000000000000000000000000000000000000606482015260840162000451565b83818151811062001962577f4e487b7100000000000000000000000000000000000000000000000000000000600052603260045260246000fd5b602002602001015173ffffffffffffffffffffffffffffffffffffffff16636823920a836040518263ffffffff1660e01b8152600401620019a4919062002435565b600060405180830381600087803b158015620019bf57600080fd5b505af1158015620019d4573d6000803e3d6000fd5b505050508080620019e590620026a3565b9150506200181e565b50505050565b60005473ffffffffffffffffffffffffffffffffffffffff16331462001a77576040517f08c379a000000000000000000000000000000000000000000000000000000000815260206004820181905260248201527f4f776e61626c653a2063616c6c6572206973206e6f7420746865206f776e6572604482015260640162000451565b73ffffffffffffffffffffffffffffffffffffffff818116600090815260016020526040902054161562001aaa57600080fd5b6040517f02fab49800000000000000000000000000000000000000000000000000000000815260009073__$c588408e34393e9644b73b59296e6d3047$__906302fab4989062001b069087908790879060019060040162002591565b60206040518083038186803b15801562001b1f57600080fd5b505af415801562001b34573d6000803e3d6000fd5b505050506040513d601f19601f8201168201806040525081019062001b5a9190620021db565b6002805460018082019092557f405787fa12a823e0f2b7631cc41b3ba8828b3321ca811111fa75cd3aa3bb5ace0180547fffffffffffffffffffffffff00000000000000000000000000000000000000001673ffffffffffffffffffffffffffffffffffffffff8681169182179092556000908152602092835260409081902054815185841681529216928201929092529192507f390f4da03f9e74fca8b97195d2227fcc77f077755b8b358e42782b69c5faeb36910160405180910390a150505050565b60005473ffffffffffffffffffffffffffffffffffffffff16331462001ca2576040517f08c379a000000000000000000000000000000000000000000000000000000000815260206004820181905260248201527f4f776e61626c653a2063616c6c6572206973206e6f7420746865206f776e6572604482015260640162000451565b73ffffffffffffffffffffffffffffffffffffffff811662001d47576040517f08c379a000000000000000000000000000000000000000000000000000000000815260206004820152602660248201527f4f776e61626c653a206e6577206f776e657220697320746865207a65726f206160448201527f6464726573730000000000000000000000000000000000000000000000000000606482015260840162000451565b62001d528162001d55565b50565b6000805473ffffffffffffffffffffffffffffffffffffffff8381167fffffffffffffffffffffffff0000000000000000000000000000000000000000831681178455604051919092169283917f8be0079c531659141344cd1fd0a4f28419497f9722a3daafe3b4186f6b6457e09190a35050565b613375806200276183390190565b600082601f83011262001de9578081fd5b8135602062001e0262001dfc8362002662565b62002610565b80838252828201915082860187848660051b890101111562001e22578586fd5b855b8581101562001e4d57813562001e3a816200273d565b8452928401929084019060010162001e24565b5090979650505050505050565b600082601f83011262001e6b578081fd5b8135602062001e7e62001dfc8362002662565b80838252828201915082860187848660051b890101111562001e9e578586fd5b855b8581101562001e4d57813562001eb6816200273d565b8452928401929084019060010162001ea0565b600082601f83011262001eda578081fd5b8135602062001eed62001dfc8362002662565b80838252828201915082860187848660051b890101111562001f0d578586fd5b855b8581101562001e4d5781358452928401929084019060010162001f0f565b600082601f83011262001f3e578081fd5b813567ffffffffffffffff81111562001f5b5762001f5b6200270e565b62001f8e60207fffffffffffffffffffffffffffffffffffffffffffffffffffffffffffffffe0601f8401160162002610565b81815284602083860101111562001fa3578283fd5b816020850160208301379081016020019190915292915050565b60006020828403121562001fcf578081fd5b813562000d3c816200273d565b6000602080838503121562001fef578182fd5b825167ffffffffffffffff81111562002006578283fd5b8301601f8101851362002017578283fd5b80516200202862001dfc8262002662565b80828252848201915084840188868560051b870101111562002048578687fd5b8694505b838510156200207a578051801515811462002065578788fd5b8352600194909401939185019185016200204c565b50979650505050505050565b6000806040838503121562002099578081fd5b823567ffffffffffffffff80821115620020b1578283fd5b620020bf8683870162001dd8565b93506020850135915080821115620020d5578283fd5b50620020e48582860162001ec9565b9150509250929050565b6000806040838503121562002101578182fd5b823567ffffffffffffffff8082111562002119578384fd5b620021278683870162001e5a565b935060208501359150808211156200213d578283fd5b50620020e48582860162001dd8565b600080604083850312156200215f578182fd5b823567ffffffffffffffff8082111562002177578384fd5b620020bf8683870162001e5a565b6000806040838503121562002198578081fd5b823567ffffffffffffffff811115620021af578182fd5b620021bd8582860162001e5a565b9250506020830135620021d0816200273d565b809150509250929050565b600060208284031215620021ed578081fd5b815162000d3c816200273d565b6000806000606084860312156200220f578081fd5b833567ffffffffffffffff8082111562002227578283fd5b620022358783880162001f2d565b945060208601359150808211156200224b578283fd5b506200225a8682870162001f2d565b92505060408401356200226d816200273d565b809150509250925092565b60008060008060008086880360e081121562002292578485fd5b873567ffffffffffffffff80821115620022aa578687fd5b620022b88b838c0162001f2d565b985060208a0135915080821115620022ce578687fd5b50620022dd8a828b0162001f2d565b965050604088013594506060880135935060407fffffffffffffffffffffffffffffffffffffffffffffffffffffffffffffff80820112156200231e578283fd5b5062002329620025e4565b6080880135815260a088013560208201528092505060c087013590509295509295509295565b60006020828403121562002361578081fd5b5035919050565b6000602082840312156200237a578081fd5b5051919050565b60008151808452815b81811015620023a8576020818501810151868301820152016200238a565b81811115620023ba5782602083870101525b50601f017fffffffffffffffffffffffffffffffffffffffffffffffffffffffffffffffe0169290920160200192915050565b6020808252825182820181905260009190848201906040850190845b818110156200242957835115158352928401929184019160010162002409565b50909695505050505050565b6020808252825182820181905260009190848201906040850190845b818110156200242957835173ffffffffffffffffffffffffffffffffffffffff168352928401929184019160010162002451565b604080825283519082018190526000906020906060840190828701845b82811015620024d657815173ffffffffffffffffffffffffffffffffffffffff1684529284019290840190600101620024a2565b50505073ffffffffffffffffffffffffffffffffffffffff9490941692019190915250919050565b6000610160808352620025148184018e62002381565b905082810360208401526200252a818d62002381565b73ffffffffffffffffffffffffffffffffffffffff9b8c166040850152998b1660608401525050958816608087015260a086019490945260c0850192909252805160e085015260200151610100840152909316610120820152610140019190915292915050565b608081526000620025a6608083018762002381565b8281036020840152620025ba818762002381565b73ffffffffffffffffffffffffffffffffffffffff95909516604084015250506060015292915050565b6040805190810167ffffffffffffffff811182821017156200260a576200260a6200270e565b60405290565b604051601f82017fffffffffffffffffffffffffffffffffffffffffffffffffffffffffffffffe016810167ffffffffffffffff811182821017156200265a576200265a6200270e565b604052919050565b600067ffffffffffffffff8211156200267f576200267f6200270e565b5060051b60200190565b6000828210156200269e576200269e620026df565b500390565b60007fffffffffffffffffffffffffffffffffffffffffffffffffffffffffffffffff821415620026d857620026d8620026df565b5060010190565b7f4e487b7100000000000000000000000000000000000000000000000000000000600052601160045260246000fd5b7f4e487b7100000000000000000000000000000000000000000000000000000000600052604160045260246000fd5b73ffffffffffffffffffffffffffffffffffffffff8116811462001d5257600080fdfe6102406040527f826f68b7f2dc717b262281384d6e69ddaba3805f6e37a8c771db2cc5d6ba4013610140523480156200003757600080fd5b5060405162003375380380620033758339810160408190526200005a916200039d565b60408051808201825260018152603160f81b6020918201528b518c82012060e08190527fc89efdaa54c0f20c7adf612882df0950f5a951637e0307cdcb4c672f298b8bc66101008190524660a081815285517f8b73c3c69bb8fe3d512ecc4cf759cc79239f7b179b0ffacaa9a75d522b39400f81870181905281880195909552606081810194909452608080820193909352308183018190528751808303909301835260c09182019097528151919095012090529290921b90526101205289896200012533620001a8565b81516200013a906004906020850190620001f8565b50805162000150906005906020840190620001f8565b5050506001600160601b0319606098891b81166101605296881b87166101805294871b86166101a0526101e09390935261020091909152805160095560200151600a5590921b16610220526101c05250620005079050565b600080546001600160a01b038381166001600160a01b0319831681178455604051919092169283917f8be0079c531659141344cd1fd0a4f28419497f9722a3daafe3b4186f6b6457e09190a35050565b8280546200020690620004b4565b90600052602060002090601f0160209004810192826200022a576000855562000275565b82601f106200024557805160ff191683800117855562000275565b8280016001018555821562000275579182015b828111156200027557825182559160200191906001019062000258565b506200028392915062000287565b5090565b5b8082111562000283576000815560010162000288565b80516001600160a01b0381168114620002b657600080fd5b919050565b600082601f830112620002cc578081fd5b81516001600160401b03811115620002e857620002e8620004f1565b6020620002fe601f8301601f1916820162000481565b828152858284870101111562000312578384fd5b835b838110156200033157858101830151828201840152820162000314565b838111156200034257848385840101525b5095945050505050565b6000604082840312156200035e578081fd5b604080519081016001600160401b0381118282101715620003835762000383620004f1565b604052825181526020928301519281019290925250919050565b6000806000806000806000806000806101608b8d031215620003bd578586fd5b8a516001600160401b0380821115620003d4578788fd5b620003e28e838f01620002bb565b9b5060208d0151915080821115620003f8578788fd5b50620004078d828e01620002bb565b9950506200041860408c016200029e565b97506200042860608c016200029e565b96506200043860808c016200029e565b955060a08b0151945060c08b01519350620004578c60e08d016200034c565b9250620004686101208c016200029e565b91506101408b015190509295989b9194979a5092959850565b604051601f8201601f191681016001600160401b0381118282101715620004ac57620004ac620004f1565b604052919050565b600181811c90821680620004c957607f821691505b60208210811415620004eb57634e487b7160e01b600052602260045260246000fd5b50919050565b634e487b7160e01b600052604160045260246000fd5b60805160a05160c05160601c60e0516101005161012051610140516101605160601c6101805160601c6101a05160601c6101c0516101e051610200516102205160601c612d476200062e600039600081816104270152610b3c015260008181610668015261101201526000818161058501528181610b0d01528181610fb701526110570152600081816103e501528181610ae701528181610f8701528181610fdb015261103301526000818161062e0152610cc20152600081816104d001528181610d1c015281816111ab015281816112b9015261174b01526000818161055e0152610ca00152600081816104a901526106fd01526000611ecb01526000611f1a01526000611ef501526000611e4e01526000611e7801526000611ea20152612d476000f3fe608060405234801561001057600080fd5b50600436106102ad5760003560e01c8063715018a61161017b578063b0ff1106116100d8578063bca8371f1161008c578063e1eda8f911610071578063e1eda8f914610629578063f2fde38b14610650578063fc1d3de21461066357600080fd5b8063bca8371f146105da578063dd62ed3e146105e357600080fd5b8063b470aade116100bd578063b470aade14610580578063b6b55f25146105a7578063b9844d8d146105ba57600080fd5b8063b0ff110614610546578063b1a9069c1461055957600080fd5b80638da5cb5b1161012f578063981fc37211610114578063981fc37214610518578063a457c2d714610520578063a9059cbb1461053357600080fd5b80638da5cb5b146104f257806395d89b411461051057600080fd5b80637ecebe00116101605780637ecebe001461049157806381771329146104a457806382dad8ac146104cb57600080fd5b8063715018a6146104815780637c5a227c1461048957600080fd5b8063341533d91161022957806363ceec65116101dd5780636b2f1417116101c25780636b2f14171461041a5780636eeeaaa51461042257806370a082311461046e57600080fd5b806363ceec65146103e05780636823920a1461040757600080fd5b8063395093511161020e57806339509351146103a45780633a98ef39146103b75780634473ad52146103c057600080fd5b8063341533d9146103795780633644e5151461039c57600080fd5b806318160ddd116102805780632e1a7d4d116102655780632e1a7d4d146103445780632f4f21e214610357578063313ce5671461036a57600080fd5b806318160ddd1461032957806323b872dd1461033157600080fd5b8063061e5844146102b257806306fdde03146102c7578063095ea7b3146102e5578063174e4ea614610308575b600080fd5b6102c56102c0366004612937565b61068a565b005b6102cf61084c565b6040516102dc9190612ae8565b60405180910390f35b6102f86102f336600461290c565b6108de565b60405190151581526020016102dc565b61031b610316366004612a9c565b6108f4565b6040519081526020016102dc565b61031b610923565b6102f861033f3660046128cc565b610935565b6102c5610352366004612a9c565b610a1d565b6102c561036536600461290c565b610a2b565b604051601281526020016102dc565b600954600a54610387919082565b604080519283526020830191909152016102dc565b61031b610dec565b6102f86103b236600461290c565b610df6565b61031b60065481565b61031b6103ce366004612878565b60076020526000908152604090205481565b61031b7f000000000000000000000000000000000000000000000000000000000000000081565b6102c5610415366004612997565b610e3f565b6102f8610f83565b6104497f000000000000000000000000000000000000000000000000000000000000000081565b60405173ffffffffffffffffffffffffffffffffffffffff90911681526020016102dc565b61031b61047c366004612878565b6110a1565b6102c56110d6565b610387611163565b61031b61049f366004612878565b611246565b61031b7f000000000000000000000000000000000000000000000000000000000000000081565b6104497f000000000000000000000000000000000000000000000000000000000000000081565b60005473ffffffffffffffffffffffffffffffffffffffff16610449565b6102cf611271565b61031b611280565b6102f861052e36600461290c565b61135c565b6102f861054136600461290c565b611434565b61031b610554366004612a9c565b611441565b6104497f000000000000000000000000000000000000000000000000000000000000000081565b61031b7f000000000000000000000000000000000000000000000000000000000000000081565b6102c56105b5366004612a9c565b61145e565b61031b6105c8366004612878565b60086020526000908152604090205481565b61031b61012c81565b61031b6105f1366004612894565b73ffffffffffffffffffffffffffffffffffffffff918216600090815260026020908152604080832093909416825291909152205490565b6104497f000000000000000000000000000000000000000000000000000000000000000081565b6102c561065e366004612878565b611468565b61031b7f000000000000000000000000000000000000000000000000000000000000000081565b834211156106f9576040517f08c379a000000000000000000000000000000000000000000000000000000000815260206004820152601760248201527f5661756c743a206578706972656420646561646c696e6500000000000000000060448201526064015b60405180910390fd5b60007f0000000000000000000000000000000000000000000000000000000000000000873388886107298c611595565b60408051602081019790975273ffffffffffffffffffffffffffffffffffffffff95861690870152939092166060850152608084015260a083015260c082015260e001604051602081830303815290604052805190602001209050600061078f826115ca565b9050600061079f82878787611633565b90508873ffffffffffffffffffffffffffffffffffffffff168173ffffffffffffffffffffffffffffffffffffffff1614610836576040517f08c379a000000000000000000000000000000000000000000000000000000000815260206004820152601860248201527f5661756c743a20696e76616c6964207369676e6174757265000000000000000060448201526064016106f0565b61084189338a61165b565b505050505050505050565b60606004805461085b90612c0a565b80601f016020809104026020016040519081016040528092919081815260200182805461088790612c0a565b80156108d45780601f106108a9576101008083540402835291602001916108d4565b820191906000526020600020905b8154815290600101906020018083116108b757829003601f168201915b5050505050905090565b60006108eb3384846117fc565b50600192915050565b6000806000610901611163565b9092509050806109118386612b8a565b61091b9190612b51565b949350505050565b60006109306006546108f4565b905090565b60006109428484846119b0565b73ffffffffffffffffffffffffffffffffffffffff8416600090815260026020908152604080832033845290915290205482811015610a03576040517f08c379a000000000000000000000000000000000000000000000000000000000815260206004820152602860248201527f45524332303a207472616e7366657220616d6f756e742065786365656473206160448201527f6c6c6f77616e636500000000000000000000000000000000000000000000000060648201526084016106f0565b610a1085338584036117fc565b60019150505b9392505050565b610a2833338361165b565b50565b610a33610f83565b610abf576040517f08c379a000000000000000000000000000000000000000000000000000000000815260206004820152603a60248201527f5661756c743a2043616e6e6f74206a6f696e207661756c74207768656e206f7560448201527f7473696465206f6620656e7465722f657869742077696e646f7700000000000060648201526084016106f0565b6040517f07e7cc270000000000000000000000000000000000000000000000000000000081527f000000000000000000000000000000000000000000000000000000000000000060048201527f000000000000000000000000000000000000000000000000000000000000000060248201523060448201526000907f000000000000000000000000000000000000000000000000000000000000000073ffffffffffffffffffffffffffffffffffffffff16906307e7cc279060640160206040518083038186803b158015610b9357600080fd5b505afa158015610ba7573d6000803e3d6000fd5b505050506040513d601f19601f82011682018060405250810190610bcb9190612ab4565b90506000670de0b6b3a7640000610be28385612b8a565b610bec9190612b51565b9050808311610c7d576040517f08c379a000000000000000000000000000000000000000000000000000000000815260206004820152603160248201527f5661756c743a2043616e6e6f74206a6f696e207768656e20666565206973206860448201527f6967686572207468616e20616d6f756e7400000000000000000000000000000060648201526084016106f0565b6000610c898285612bc7565b90508315610d8e57610c9b8582611c73565b610ce77f0000000000000000000000000000000000000000000000000000000000000000337f000000000000000000000000000000000000000000000000000000000000000087611d99565b6040517f40c10f19000000000000000000000000000000000000000000000000000000008152306004820152602481018590527f000000000000000000000000000000000000000000000000000000000000000073ffffffffffffffffffffffffffffffffffffffff16906340c10f1990604401600060405180830381600087803b158015610d7557600080fd5b505af1158015610d89573d6000803e3d6000fd5b505050505b6040805173ffffffffffffffffffffffffffffffffffffffff87168152602081018690529081018290527f90890809c654f11d6e72a28fa60149770a0d11ec6c92319d6ceb2bb0a4ea1a159060600160405180910390a15050505050565b6000610930611e34565b33600081815260026020908152604080832073ffffffffffffffffffffffffffffffffffffffff8716845290915281205490916108eb918590610e3a908690612b39565b6117fc565b60005473ffffffffffffffffffffffffffffffffffffffff163314610ec0576040517f08c379a000000000000000000000000000000000000000000000000000000000815260206004820181905260248201527f4f776e61626c653a2063616c6c6572206973206e6f7420746865206f776e657260448201526064016106f0565b60005b8151811015610f7f57818181518110610f05577f4e487b7100000000000000000000000000000000000000000000000000000000600052603260045260246000fd5b602002602001015173ffffffffffffffffffffffffffffffffffffffff1663be040fb06040518163ffffffff1660e01b8152600401600060405180830381600087803b158015610f5457600080fd5b505af1158015610f68573d6000803e3d6000fd5b505050508080610f7790612c58565b915050610ec3565b5050565b60007f0000000000000000000000000000000000000000000000000000000000000000421015610fb35750600090565b60007f00000000000000000000000000000000000000000000000000000000000000006110007f000000000000000000000000000000000000000000000000000000000000000042612bc7565b61100a9190612b51565b90504261012c7f00000000000000000000000000000000000000000000000000000000000000007f000000000000000000000000000000000000000000000000000000000000000061107c7f000000000000000000000000000000000000000000000000000000000000000086612b8a565b6110869190612b39565b6110909190612b39565b61109a9190612b39565b1191505090565b73ffffffffffffffffffffffffffffffffffffffff81166000908152600760205260408120546110d0906108f4565b92915050565b60005473ffffffffffffffffffffffffffffffffffffffff163314611157576040517f08c379a000000000000000000000000000000000000000000000000000000000815260206004820181905260248201527f4f776e61626c653a2063616c6c6572206973206e6f7420746865206f776e657260448201526064016106f0565b6111616000611f68565b565b6040517f70a08231000000000000000000000000000000000000000000000000000000008152306004820152600090819073ffffffffffffffffffffffffffffffffffffffff7f000000000000000000000000000000000000000000000000000000000000000016906370a082319060240160206040518083038186803b1580156111ed57600080fd5b505afa158015611201573d6000803e3d6000fd5b505050506040513d601f19601f820116820180604052508101906112259190612ab4565b91506006549050816000141561123a57600191505b806112425750805b9091565b73ffffffffffffffffffffffffffffffffffffffff81166000908152600860205260408120546110d0565b60606005805461085b90612c0a565b600a546009546040517f70a0823100000000000000000000000000000000000000000000000000000000815230600482015260009291907f000000000000000000000000000000000000000000000000000000000000000073ffffffffffffffffffffffffffffffffffffffff16906370a082319060240160206040518083038186803b15801561131057600080fd5b505afa158015611324573d6000803e3d6000fd5b505050506040513d601f19601f820116820180604052508101906113489190612ab4565b6113529190612b8a565b6109309190612b51565b33600090815260026020908152604080832073ffffffffffffffffffffffffffffffffffffffff861684529091528120548281101561141d576040517f08c379a000000000000000000000000000000000000000000000000000000000815260206004820152602560248201527f45524332303a2064656372656173656420616c6c6f77616e63652062656c6f7760448201527f207a65726f00000000000000000000000000000000000000000000000000000060648201526084016106f0565b61142a33858584036117fc565b5060019392505050565b60006108eb3384846119b0565b600080600061144e611163565b9092509050816109118286612b8a565b610a283382610a2b565b60005473ffffffffffffffffffffffffffffffffffffffff1633146114e9576040517f08c379a000000000000000000000000000000000000000000000000000000000815260206004820181905260248201527f4f776e61626c653a2063616c6c6572206973206e6f7420746865206f776e657260448201526064016106f0565b73ffffffffffffffffffffffffffffffffffffffff811661158c576040517f08c379a000000000000000000000000000000000000000000000000000000000815260206004820152602660248201527f4f776e61626c653a206e6577206f776e657220697320746865207a65726f206160448201527f646472657373000000000000000000000000000000000000000000000000000060648201526084016106f0565b610a2881611f68565b73ffffffffffffffffffffffffffffffffffffffff811660009081526008602052604090208054600181018255905b50919050565b60006110d06115d7611e34565b836040517f19010000000000000000000000000000000000000000000000000000000000006020820152602281018390526042810182905260009060620160405160208183030381529060405280519060200120905092915050565b600080600061164487878787611fdd565b91509150611651816120f5565b5095945050505050565b611663610f83565b6116ef576040517f08c379a000000000000000000000000000000000000000000000000000000000815260206004820152603a60248201527f5661756c743a2043616e6e6f742065786974207661756c74207768656e206f7560448201527f7473696465206f6620656e7465722f657869742077696e646f7700000000000060648201526084016106f0565b80156116ff576116ff8382612411565b6040517f982755930000000000000000000000000000000000000000000000000000000081526004810182905273ffffffffffffffffffffffffffffffffffffffff83811660248301527f00000000000000000000000000000000000000000000000000000000000000001690639827559390604401600060405180830381600087803b15801561178f57600080fd5b505af11580156117a3573d6000803e3d6000fd5b50506040805173ffffffffffffffffffffffffffffffffffffffff87168152602081018590527f884edad9ce6fa2440d8a54cc123490eb96d2768479d49ff9c7366125a9424364935001905060405180910390a1505050565b73ffffffffffffffffffffffffffffffffffffffff831661189e576040517f08c379a0000000000000000000000000000000000000000000000000000000008152602060048201526024808201527f45524332303a20617070726f76652066726f6d20746865207a65726f2061646460448201527f726573730000000000000000000000000000000000000000000000000000000060648201526084016106f0565b73ffffffffffffffffffffffffffffffffffffffff8216611941576040517f08c379a000000000000000000000000000000000000000000000000000000000815260206004820152602260248201527f45524332303a20617070726f766520746f20746865207a65726f20616464726560448201527f737300000000000000000000000000000000000000000000000000000000000060648201526084016106f0565b73ffffffffffffffffffffffffffffffffffffffff83811660008181526002602090815260408083209487168084529482529182902085905590518481527f8c5be1e5ebec7d5bd14f71427d1e84f3dd0314c0f7b2291e5b200ac8c7c3b92591015b60405180910390a3505050565b73ffffffffffffffffffffffffffffffffffffffff8316611a53576040517f08c379a000000000000000000000000000000000000000000000000000000000815260206004820152602560248201527f45524332303a207472616e736665722066726f6d20746865207a65726f20616460448201527f647265737300000000000000000000000000000000000000000000000000000060648201526084016106f0565b73ffffffffffffffffffffffffffffffffffffffff8216611af6576040517f08c379a000000000000000000000000000000000000000000000000000000000815260206004820152602360248201527f45524332303a207472616e7366657220746f20746865207a65726f206164647260448201527f657373000000000000000000000000000000000000000000000000000000000060648201526084016106f0565b73ffffffffffffffffffffffffffffffffffffffff831660009081526007602052604081205490611b2683611441565b905080821015611bb8576040517f08c379a000000000000000000000000000000000000000000000000000000000815260206004820152602660248201527f45524332303a207472616e7366657220616d6f756e742065786365656473206260448201527f616c616e6365000000000000000000000000000000000000000000000000000060648201526084016106f0565b73ffffffffffffffffffffffffffffffffffffffff8086166000908152600760205260408082208054859003905591861681529081208054839290611bfe908490612b39565b925050819055508373ffffffffffffffffffffffffffffffffffffffff168573ffffffffffffffffffffffffffffffffffffffff167fddf252ad1be2c89b69c2b068fc378daa952ba7f163c4a11628f55a4df523b3ef85604051611c6491815260200190565b60405180910390a35050505050565b73ffffffffffffffffffffffffffffffffffffffff8216611cf0576040517f08c379a000000000000000000000000000000000000000000000000000000000815260206004820152601f60248201527f45524332303a206d696e7420746f20746865207a65726f20616464726573730060448201526064016106f0565b6000611cfb82611441565b90508060066000828254611d0f9190612b39565b909155505073ffffffffffffffffffffffffffffffffffffffff831660009081526007602052604081208054839290611d49908490612b39565b909155505060405182815273ffffffffffffffffffffffffffffffffffffffff8416906000907fddf252ad1be2c89b69c2b068fc378daa952ba7f163c4a11628f55a4df523b3ef906020016119a3565b6040805173ffffffffffffffffffffffffffffffffffffffff85811660248301528416604482015260648082018490528251808303909101815260849091019091526020810180517bffffffffffffffffffffffffffffffffffffffffffffffffffffffff167f23b872dd00000000000000000000000000000000000000000000000000000000179052611e2e90859061260b565b50505050565b60003073ffffffffffffffffffffffffffffffffffffffff7f000000000000000000000000000000000000000000000000000000000000000016148015611e9a57507f000000000000000000000000000000000000000000000000000000000000000046145b15611ec457507f000000000000000000000000000000000000000000000000000000000000000090565b50604080517f00000000000000000000000000000000000000000000000000000000000000006020808301919091527f0000000000000000000000000000000000000000000000000000000000000000828401527f000000000000000000000000000000000000000000000000000000000000000060608301524660808301523060a0808401919091528351808403909101815260c0909201909252805191012090565b6000805473ffffffffffffffffffffffffffffffffffffffff8381167fffffffffffffffffffffffff0000000000000000000000000000000000000000831681178455604051919092169283917f8be0079c531659141344cd1fd0a4f28419497f9722a3daafe3b4186f6b6457e09190a35050565b6000807f7fffffffffffffffffffffffffffffff5d576e7357a4501ddfe92f46681b20a083111561201457506000905060036120ec565b8460ff16601b1415801561202c57508460ff16601c14155b1561203d57506000905060046120ec565b6040805160008082526020820180845289905260ff881692820192909252606081018690526080810185905260019060a0016020604051602081039080840390855afa158015612091573d6000803e3d6000fd5b50506040517fffffffffffffffffffffffffffffffffffffffffffffffffffffffffffffffe0015191505073ffffffffffffffffffffffffffffffffffffffff81166120e5576000600192509250506120ec565b9150600090505b94509492505050565b6000816004811115612130577f4e487b7100000000000000000000000000000000000000000000000000000000600052602160045260246000fd5b14156121395750565b6001816004811115612174577f4e487b7100000000000000000000000000000000000000000000000000000000600052602160045260246000fd5b14156121dc576040517f08c379a000000000000000000000000000000000000000000000000000000000815260206004820152601860248201527f45434453413a20696e76616c6964207369676e6174757265000000000000000060448201526064016106f0565b6002816004811115612217577f4e487b7100000000000000000000000000000000000000000000000000000000600052602160045260246000fd5b141561227f576040517f08c379a000000000000000000000000000000000000000000000000000000000815260206004820152601f60248201527f45434453413a20696e76616c6964207369676e6174757265206c656e6774680060448201526064016106f0565b60038160048111156122ba577f4e487b7100000000000000000000000000000000000000000000000000000000600052602160045260246000fd5b1415612348576040517f08c379a000000000000000000000000000000000000000000000000000000000815260206004820152602260248201527f45434453413a20696e76616c6964207369676e6174757265202773272076616c60448201527f756500000000000000000000000000000000000000000000000000000000000060648201526084016106f0565b6004816004811115612383577f4e487b7100000000000000000000000000000000000000000000000000000000600052602160045260246000fd5b1415610a28576040517f08c379a000000000000000000000000000000000000000000000000000000000815260206004820152602260248201527f45434453413a20696e76616c6964207369676e6174757265202776272076616c60448201527f756500000000000000000000000000000000000000000000000000000000000060648201526084016106f0565b73ffffffffffffffffffffffffffffffffffffffff82166124b4576040517f08c379a000000000000000000000000000000000000000000000000000000000815260206004820152602160248201527f45524332303a206275726e2066726f6d20746865207a65726f2061646472657360448201527f730000000000000000000000000000000000000000000000000000000000000060648201526084016106f0565b73ffffffffffffffffffffffffffffffffffffffff8216600090815260076020526040812054906124e483611441565b905080821015612576576040517f08c379a000000000000000000000000000000000000000000000000000000000815260206004820152602260248201527f45524332303a206275726e20616d6f756e7420657863656564732062616c616e60448201527f636500000000000000000000000000000000000000000000000000000000000060648201526084016106f0565b73ffffffffffffffffffffffffffffffffffffffff841660009081526007602052604081208284039055600680548392906125b2908490612bc7565b909155505060405183815260009073ffffffffffffffffffffffffffffffffffffffff8616907fddf252ad1be2c89b69c2b068fc378daa952ba7f163c4a11628f55a4df523b3ef9060200160405180910390a350505050565b600061266d826040518060400160405280602081526020017f5361666545524332303a206c6f772d6c6576656c2063616c6c206661696c65648152508573ffffffffffffffffffffffffffffffffffffffff1661271c9092919063ffffffff16565b805190915015612717578080602001905181019061268b9190612a7c565b612717576040517f08c379a000000000000000000000000000000000000000000000000000000000815260206004820152602a60248201527f5361666545524332303a204552433230206f7065726174696f6e20646964206e60448201527f6f7420737563636565640000000000000000000000000000000000000000000060648201526084016106f0565b505050565b606061091b848460008585843b61278f576040517f08c379a000000000000000000000000000000000000000000000000000000000815260206004820152601d60248201527f416464726573733a2063616c6c20746f206e6f6e2d636f6e747261637400000060448201526064016106f0565b6000808673ffffffffffffffffffffffffffffffffffffffff1685876040516127b89190612acc565b60006040518083038185875af1925050503d80600081146127f5576040519150601f19603f3d011682016040523d82523d6000602084013e6127fa565b606091505b509150915061280a828286612815565b979650505050505050565b60608315612824575081610a16565b8251156128345782518084602001fd5b816040517f08c379a00000000000000000000000000000000000000000000000000000000081526004016106f09190612ae8565b803561287381612cef565b919050565b600060208284031215612889578081fd5b8135610a1681612cef565b600080604083850312156128a6578081fd5b82356128b181612cef565b915060208301356128c181612cef565b809150509250929050565b6000806000606084860312156128e0578081fd5b83356128eb81612cef565b925060208401356128fb81612cef565b929592945050506040919091013590565b6000806040838503121561291e578182fd5b823561292981612cef565b946020939093013593505050565b60008060008060008060c0878903121561294f578182fd5b863561295a81612cef565b95506020870135945060408701359350606087013560ff8116811461297d578283fd5b9598949750929560808101359460a0909101359350915050565b600060208083850312156129a9578182fd5b823567ffffffffffffffff808211156129c0578384fd5b818501915085601f8301126129d3578384fd5b8135818111156129e5576129e5612cc0565b8060051b6040517fffffffffffffffffffffffffffffffffffffffffffffffffffffffffffffffe0603f83011681018181108582111715612a2857612a28612cc0565b604052828152858101935084860182860187018a1015612a46578788fd5b8795505b83861015612a6f57612a5b81612868565b855260019590950194938601938601612a4a565b5098975050505050505050565b600060208284031215612a8d578081fd5b81518015158114610a16578182fd5b600060208284031215612aad578081fd5b5035919050565b600060208284031215612ac5578081fd5b5051919050565b60008251612ade818460208701612bde565b9190910192915050565b6020815260008251806020840152612b07816040850160208701612bde565b601f017fffffffffffffffffffffffffffffffffffffffffffffffffffffffffffffffe0169190910160400192915050565b60008219821115612b4c57612b4c612c91565b500190565b600082612b85577f4e487b710000000000000000000000000000000000000000000000000000000081526012600452602481fd5b500490565b6000817fffffffffffffffffffffffffffffffffffffffffffffffffffffffffffffffff0483118215151615612bc257612bc2612c91565b500290565b600082821015612bd957612bd9612c91565b500390565b60005b83811015612bf9578181015183820152602001612be1565b83811115611e2e5750506000910152565b600181811c90821680612c1e57607f821691505b602082108114156115c4577f4e487b7100000000000000000000000000000000000000000000000000000000600052602260045260246000fd5b60007fffffffffffffffffffffffffffffffffffffffffffffffffffffffffffffffff821415612c8a57612c8a612c91565b5060010190565b7f4e487b7100000000000000000000000000000000000000000000000000000000600052601160045260246000fd5b7f4e487b7100000000000000000000000000000000000000000000000000000000600052604160045260246000fd5b73ffffffffffffffffffffffffffffffffffffffff81168114610a2857600080fdfea26469706673582212202f45e962c35a4d88d1415867e0b85b59cddff88547c4eecc7a0e1de10030dd3164736f6c63430008040033a2646970667358221220414b9d7a4ca167b24ba0c877d3e2a6690de5408d59583ceb14904efd41bb59e964736f6c6343000804003360806040523480156200001157600080fd5b5060405162001dc938038062001dc9833981016040819052620000349162000242565b8282620000413362000099565b815162000056906004906020850190620000e9565b5080516200006c906005906020840190620000e9565b5050600880546001600160a01b0319166001600160a01b039390931692909217909155506200031e915050565b600080546001600160a01b038381166001600160a01b0319831681178455604051919092169283917f8be0079c531659141344cd1fd0a4f28419497f9722a3daafe3b4186f6b6457e09190a35050565b828054620000f790620002cb565b90600052602060002090601f0160209004810192826200011b576000855562000166565b82601f106200013657805160ff191683800117855562000166565b8280016001018555821562000166579182015b828111156200016657825182559160200191906001019062000149565b506200017492915062000178565b5090565b5b8082111562000174576000815560010162000179565b600082601f830112620001a0578081fd5b81516001600160401b0380821115620001bd57620001bd62000308565b604051601f8301601f19908116603f01168101908282118183101715620001e857620001e862000308565b8160405283815260209250868385880101111562000204578485fd5b8491505b8382101562000227578582018301518183018401529082019062000208565b838211156200023857848385830101525b9695505050505050565b60008060006060848603121562000257578283fd5b83516001600160401b03808211156200026e578485fd5b6200027c878388016200018f565b9450602086015191508082111562000292578384fd5b50620002a1868287016200018f565b604086015190935090506001600160a01b0381168114620002c0578182fd5b809150509250925092565b600181811c90821680620002e057607f821691505b602082108114156200030257634e487b7160e01b600052602260045260246000fd5b50919050565b634e487b7160e01b600052604160045260246000fd5b611a9b806200032e6000396000f3fe608060405234801561001057600080fd5b50600436106101da5760003560e01c8063715018a611610104578063a746f93a116100a2578063be040fb011610071578063be040fb014610420578063c2ba474414610428578063dd62ed3e1461044b578063f2fde38b1461049157600080fd5b8063a746f93a146103d4578063a9059cbb146103e7578063ae85d641146103fa578063b0ff11061461040d57600080fd5b80638da5cb5b116100de5780638da5cb5b1461038857806395d89b41146103a657806398275593146103ae578063a457c2d7146103c157600080fd5b8063715018a6146103435780637c5a227c1461034b578063873924e41461036857600080fd5b8063313ce5671161017c5780634046ebae1161014b5780634046ebae146102b857806340c10f19146102fd5780634473ad521461031057806370a082311461033057600080fd5b8063313ce5671461028457806339509351146102935780633a98ef39146102a65780633f3a0c5b146102af57600080fd5b8063095ea7b3116101b8578063095ea7b314610225578063174e4ea61461024857806318160ddd1461026957806323b872dd1461027157600080fd5b8063057ac848146101df578063064c97d6146101f457806306fdde0314610207575b600080fd5b6101f26101ed36600461186e565b6104a4565b005b6101f261020236600461186e565b610584565b61020f610657565b60405161021c91906118aa565b60405180910390f35b610238610233366004611843565b6106e9565b604051901515815260200161021c565b61025b61025636600461186e565b6106ff565b60405190815260200161021c565b61025b61072e565b61023861027f3660046117d2565b610740565b6040516012815260200161021c565b6102386102a1366004611843565b610826565b61025b60065481565b61025b60095481565b600b546102d89073ffffffffffffffffffffffffffffffffffffffff1681565b60405173ffffffffffffffffffffffffffffffffffffffff909116815260200161021c565b6101f261030b366004611843565b61086f565b61025b61031e366004611777565b60076020526000908152604090205481565b61025b61033e366004611777565b61090d565b6101f2610942565b6103536109cf565b6040805192835260208301919091520161021c565b6008546102d89073ffffffffffffffffffffffffffffffffffffffff1681565b60005473ffffffffffffffffffffffffffffffffffffffff166102d8565b61020f6109eb565b6101f26103bc366004611886565b6109fa565b6102386103cf366004611843565b610b25565b6101f26103e2366004611812565b610bfd565b6102386103f5366004611843565b610d05565b6101f2610408366004611777565b610d12565b61025b61041b36600461186e565b610e0c565b6101f2610e29565b610238610436366004611777565b600a6020526000908152604090205460ff1681565b61025b61045936600461179a565b73ffffffffffffffffffffffffffffffffffffffff918216600090815260026020908152604080832093909416825291909152205490565b6101f261049f366004611777565b610e3b565b60005473ffffffffffffffffffffffffffffffffffffffff16331461052a576040517f08c379a000000000000000000000000000000000000000000000000000000000815260206004820181905260248201527f4f776e61626c653a2063616c6c6572206973206e6f7420746865206f776e657260448201526064015b60405180910390fd5b60098054908290600061053d838561191b565b90915550506009546040805183815260208101929092527fa59e96b3c1d252b5b2fd20d08a77732f3af73142db0af5e50ced94b558c7fa0591015b60405180910390a15050565b60005473ffffffffffffffffffffffffffffffffffffffff163314610605576040517f08c379a000000000000000000000000000000000000000000000000000000000815260206004820181905260248201527f4f776e61626c653a2063616c6c6572206973206e6f7420746865206f776e65726044820152606401610521565b60098054908290600061061883856119a9565b90915550506009546040805183815260208101929092527f307076957a8ce6e01b7d381f303646d1011fb16a9842dfa0859a9eddfd312e429101610578565b606060048054610666906119c0565b80601f0160208091040260200160405190810160405280929190818152602001828054610692906119c0565b80156106df5780601f106106b4576101008083540402835291602001916106df565b820191906000526020600020905b8154815290600101906020018083116106c257829003601f168201915b5050505050905090565b60006106f6338484610f6b565b50600192915050565b600080600061070c6109cf565b90925090508061071c838661196c565b6107269190611933565b949350505050565b600061073b6006546106ff565b905090565b600061074d84848461111f565b73ffffffffffffffffffffffffffffffffffffffff841660009081526002602090815260408083203384529091529020548281101561080e576040517f08c379a000000000000000000000000000000000000000000000000000000000815260206004820152602860248201527f45524332303a207472616e7366657220616d6f756e742065786365656473206160448201527f6c6c6f77616e63650000000000000000000000000000000000000000000000006064820152608401610521565b61081b8533858403610f6b565b506001949350505050565b33600081815260026020908152604080832073ffffffffffffffffffffffffffffffffffffffff8716845290915281205490916106f691859061086a90869061191b565b610f6b565b336000908152600a602052604090205460ff166108e8576040517f08c379a000000000000000000000000000000000000000000000000000000000815260206004820152601f60248201527f4578706f737572653a2063616c6c6572206973206e6f742061207661756c74006044820152606401610521565b6108f282826113e2565b8060096000828254610904919061191b565b90915550505050565b73ffffffffffffffffffffffffffffffffffffffff811660009081526007602052604081205461093c906106ff565b92915050565b60005473ffffffffffffffffffffffffffffffffffffffff1633146109c3576040517f08c379a000000000000000000000000000000000000000000000000000000000815260206004820181905260248201527f4f776e61626c653a2063616c6c6572206973206e6f7420746865206f776e65726044820152606401610521565b6109cd6000611508565b565b600954600654816109df57600191505b806109e75750805b9091565b606060058054610666906119c0565b610a04338361157d565b8160096000828254610a1691906119a9565b9091555050600b5473ffffffffffffffffffffffffffffffffffffffff1615610ac657600b546040517f4d4c23a80000000000000000000000000000000000000000000000000000000081526004810184905273ffffffffffffffffffffffffffffffffffffffff838116602483015290911690634d4c23a890604401600060405180830381600087803b158015610aad57600080fd5b505af1158015610ac1573d6000803e3d6000fd5b505050505b6008546040805173ffffffffffffffffffffffffffffffffffffffff928316815233602082015291831690820152606081018390527fee02732fab40ece8284c756220846dff4b8d32058b86b35b4f0459bf172fcef090608001610578565b33600090815260026020908152604080832073ffffffffffffffffffffffffffffffffffffffff8616845290915281205482811015610be6576040517f08c379a000000000000000000000000000000000000000000000000000000000815260206004820152602560248201527f45524332303a2064656372656173656420616c6c6f77616e63652062656c6f7760448201527f207a65726f0000000000000000000000000000000000000000000000000000006064820152608401610521565b610bf33385858403610f6b565b5060019392505050565b60005473ffffffffffffffffffffffffffffffffffffffff163314610c7e576040517f08c379a000000000000000000000000000000000000000000000000000000000815260206004820181905260248201527f4f776e61626c653a2063616c6c6572206973206e6f7420746865206f776e65726044820152606401610521565b73ffffffffffffffffffffffffffffffffffffffff82166000818152600a602090815260409182902080547fffffffffffffffffffffffffffffffffffffffffffffffffffffffffffffff00168515159081179091558251938452908301527f73d5b2f10126b99916a4c71d591a354f52ed52ca3b0278eaf584e35220addb779101610578565b60006106f633848461111f565b60005473ffffffffffffffffffffffffffffffffffffffff163314610d93576040517f08c379a000000000000000000000000000000000000000000000000000000000815260206004820181905260248201527f4f776e61626c653a2063616c6c6572206973206e6f7420746865206f776e65726044820152606401610521565b600b80547fffffffffffffffffffffffff00000000000000000000000000000000000000001673ffffffffffffffffffffffffffffffffffffffff83169081179091556040519081527f111c6aeb2006d748bdae2ddf082866e6ce7eb3d48ef324b5d9547570f5694e4f9060200160405180910390a150565b6000806000610e196109cf565b90925090508161071c828661196c565b6109cd610e353361090d565b336109fa565b60005473ffffffffffffffffffffffffffffffffffffffff163314610ebc576040517f08c379a000000000000000000000000000000000000000000000000000000000815260206004820181905260248201527f4f776e61626c653a2063616c6c6572206973206e6f7420746865206f776e65726044820152606401610521565b73ffffffffffffffffffffffffffffffffffffffff8116610f5f576040517f08c379a000000000000000000000000000000000000000000000000000000000815260206004820152602660248201527f4f776e61626c653a206e6577206f776e657220697320746865207a65726f206160448201527f64647265737300000000000000000000000000000000000000000000000000006064820152608401610521565b610f6881611508565b50565b73ffffffffffffffffffffffffffffffffffffffff831661100d576040517f08c379a0000000000000000000000000000000000000000000000000000000008152602060048201526024808201527f45524332303a20617070726f76652066726f6d20746865207a65726f2061646460448201527f72657373000000000000000000000000000000000000000000000000000000006064820152608401610521565b73ffffffffffffffffffffffffffffffffffffffff82166110b0576040517f08c379a000000000000000000000000000000000000000000000000000000000815260206004820152602260248201527f45524332303a20617070726f766520746f20746865207a65726f20616464726560448201527f73730000000000000000000000000000000000000000000000000000000000006064820152608401610521565b73ffffffffffffffffffffffffffffffffffffffff83811660008181526002602090815260408083209487168084529482529182902085905590518481527f8c5be1e5ebec7d5bd14f71427d1e84f3dd0314c0f7b2291e5b200ac8c7c3b92591015b60405180910390a3505050565b73ffffffffffffffffffffffffffffffffffffffff83166111c2576040517f08c379a000000000000000000000000000000000000000000000000000000000815260206004820152602560248201527f45524332303a207472616e736665722066726f6d20746865207a65726f20616460448201527f64726573730000000000000000000000000000000000000000000000000000006064820152608401610521565b73ffffffffffffffffffffffffffffffffffffffff8216611265576040517f08c379a000000000000000000000000000000000000000000000000000000000815260206004820152602360248201527f45524332303a207472616e7366657220746f20746865207a65726f206164647260448201527f65737300000000000000000000000000000000000000000000000000000000006064820152608401610521565b73ffffffffffffffffffffffffffffffffffffffff83166000908152600760205260408120549061129583610e0c565b905080821015611327576040517f08c379a000000000000000000000000000000000000000000000000000000000815260206004820152602660248201527f45524332303a207472616e7366657220616d6f756e742065786365656473206260448201527f616c616e636500000000000000000000000000000000000000000000000000006064820152608401610521565b73ffffffffffffffffffffffffffffffffffffffff808616600090815260076020526040808220805485900390559186168152908120805483929061136d90849061191b565b925050819055508373ffffffffffffffffffffffffffffffffffffffff168573ffffffffffffffffffffffffffffffffffffffff167fddf252ad1be2c89b69c2b068fc378daa952ba7f163c4a11628f55a4df523b3ef856040516113d391815260200190565b60405180910390a35050505050565b73ffffffffffffffffffffffffffffffffffffffff821661145f576040517f08c379a000000000000000000000000000000000000000000000000000000000815260206004820152601f60248201527f45524332303a206d696e7420746f20746865207a65726f2061646472657373006044820152606401610521565b600061146a82610e0c565b9050806006600082825461147e919061191b565b909155505073ffffffffffffffffffffffffffffffffffffffff8316600090815260076020526040812080548392906114b890849061191b565b909155505060405182815273ffffffffffffffffffffffffffffffffffffffff8416906000907fddf252ad1be2c89b69c2b068fc378daa952ba7f163c4a11628f55a4df523b3ef90602001611112565b6000805473ffffffffffffffffffffffffffffffffffffffff8381167fffffffffffffffffffffffff0000000000000000000000000000000000000000831681178455604051919092169283917f8be0079c531659141344cd1fd0a4f28419497f9722a3daafe3b4186f6b6457e09190a35050565b73ffffffffffffffffffffffffffffffffffffffff8216611620576040517f08c379a000000000000000000000000000000000000000000000000000000000815260206004820152602160248201527f45524332303a206275726e2066726f6d20746865207a65726f2061646472657360448201527f73000000000000000000000000000000000000000000000000000000000000006064820152608401610521565b73ffffffffffffffffffffffffffffffffffffffff82166000908152600760205260408120549061165083610e0c565b9050808210156116e2576040517f08c379a000000000000000000000000000000000000000000000000000000000815260206004820152602260248201527f45524332303a206275726e20616d6f756e7420657863656564732062616c616e60448201527f63650000000000000000000000000000000000000000000000000000000000006064820152608401610521565b73ffffffffffffffffffffffffffffffffffffffff8416600090815260076020526040812082840390556006805483929061171e9084906119a9565b909155505060405183815260009073ffffffffffffffffffffffffffffffffffffffff8616907fddf252ad1be2c89b69c2b068fc378daa952ba7f163c4a11628f55a4df523b3ef9060200160405180910390a350505050565b600060208284031215611788578081fd5b813561179381611a43565b9392505050565b600080604083850312156117ac578081fd5b82356117b781611a43565b915060208301356117c781611a43565b809150509250929050565b6000806000606084860312156117e6578081fd5b83356117f181611a43565b9250602084013561180181611a43565b929592945050506040919091013590565b60008060408385031215611824578182fd5b823561182f81611a43565b9150602083013580151581146117c7578182fd5b60008060408385031215611855578182fd5b823561186081611a43565b946020939093013593505050565b60006020828403121561187f578081fd5b5035919050565b60008060408385031215611898578182fd5b8235915060208301356117c781611a43565b6000602080835283518082850152825b818110156118d6578581018301518582016040015282016118ba565b818111156118e75783604083870101525b50601f017fffffffffffffffffffffffffffffffffffffffffffffffffffffffffffffffe016929092016040019392505050565b6000821982111561192e5761192e611a14565b500190565b600082611967577f4e487b710000000000000000000000000000000000000000000000000000000081526012600452602481fd5b500490565b6000817fffffffffffffffffffffffffffffffffffffffffffffffffffffffffffffffff04831182151516156119a4576119a4611a14565b500290565b6000828210156119bb576119bb611a14565b500390565b600181811c908216806119d457607f821691505b60208210811415611a0e577f4e487b7100000000000000000000000000000000000000000000000000000000600052602260045260246000fd5b50919050565b7f4e487b7100000000000000000000000000000000000000000000000000000000600052601160045260246000fd5b73ffffffffffffffffffffffffffffffffffffffff81168114610f6857600080fdfea26469706673582212209e6c71cc0f9ec06c8beccf7a76a241170f79b8ae598dfd293549fd4a1b38331c64736f6c6343000804003360c060405234801561001057600080fd5b50604051610cf0380380610cf083398101604081905261002f916100a6565b61003833610056565b6001600160601b0319606092831b8116608052911b1660a0526100f7565b600080546001600160a01b038381166001600160a01b0319831681178455604051919092169283917f8be0079c531659141344cd1fd0a4f28419497f9722a3daafe3b4186f6b6457e09190a35050565b600080604083850312156100b8578182fd5b82516100c3816100df565b60208401519092506100d4816100df565b809150509250929050565b6001600160a01b03811681146100f457600080fd5b50565b60805160601c60a05160601c610bc161012f6000396000818160a40152610172015260008181610112015261024f0152610bc16000f3fe608060405234801561001057600080fd5b506004361061007d5760003560e01c80638da5cb5b1161005b5780638da5cb5b146100ef578063b1a9069c1461010d578063d9caed1214610134578063f2fde38b1461014757600080fd5b80634d4c23a814610082578063715018a6146100975780638bc1437b1461009f575b600080fd5b610095610090366004610ac7565b61015a565b005b610095610279565b6100c67f000000000000000000000000000000000000000000000000000000000000000081565b60405173ffffffffffffffffffffffffffffffffffffffff909116815260200160405180910390f35b60005473ffffffffffffffffffffffffffffffffffffffff166100c6565b6100c67f000000000000000000000000000000000000000000000000000000000000000081565b610095610142366004610a6c565b610306565b610095610155366004610a52565b6104ff565b3373ffffffffffffffffffffffffffffffffffffffff7f0000000000000000000000000000000000000000000000000000000000000000161461024a576040517f08c379a000000000000000000000000000000000000000000000000000000000815260206004820152604860248201527f5661756c74656454656d706c653a204f6e6c792054656d70654578706f73757260448201527f652063616e2072656465656d2074656d706c65206f6e20626568616c66206f6660648201527f2061207661756c74000000000000000000000000000000000000000000000000608482015260a4015b60405180910390fd5b6102757f0000000000000000000000000000000000000000000000000000000000000000828461062f565b5050565b60005473ffffffffffffffffffffffffffffffffffffffff1633146102fa576040517f08c379a000000000000000000000000000000000000000000000000000000000815260206004820181905260248201527f4f776e61626c653a2063616c6c6572206973206e6f7420746865206f776e65726044820152606401610241565b61030460006106bc565b565b60005473ffffffffffffffffffffffffffffffffffffffff163314610387576040517f08c379a000000000000000000000000000000000000000000000000000000000815260206004820181905260248201527f4f776e61626c653a2063616c6c6572206973206e6f7420746865206f776e65726044820152606401610241565b73ffffffffffffffffffffffffffffffffffffffff8216610404576040517f08c379a000000000000000000000000000000000000000000000000000000000815260206004820152600f60248201527f746f2061646472657373207a65726f00000000000000000000000000000000006044820152606401610241565b73ffffffffffffffffffffffffffffffffffffffff83166104ef5760008273ffffffffffffffffffffffffffffffffffffffff168260405160006040518083038185875af1925050503d8060008114610479576040519150601f19603f3d011682016040523d82523d6000602084013e61047e565b606091505b50509050806104e9576040517f08c379a000000000000000000000000000000000000000000000000000000000815260206004820152600b60248201527f73656e64206661696c65640000000000000000000000000000000000000000006044820152606401610241565b50505050565b6104fa83838361062f565b505050565b60005473ffffffffffffffffffffffffffffffffffffffff163314610580576040517f08c379a000000000000000000000000000000000000000000000000000000000815260206004820181905260248201527f4f776e61626c653a2063616c6c6572206973206e6f7420746865206f776e65726044820152606401610241565b73ffffffffffffffffffffffffffffffffffffffff8116610623576040517f08c379a000000000000000000000000000000000000000000000000000000000815260206004820152602660248201527f4f776e61626c653a206e6577206f776e657220697320746865207a65726f206160448201527f64647265737300000000000000000000000000000000000000000000000000006064820152608401610241565b61062c816106bc565b50565b6040805173ffffffffffffffffffffffffffffffffffffffff8416602482015260448082018490528251808303909101815260649091019091526020810180517bffffffffffffffffffffffffffffffffffffffffffffffffffffffff167fa9059cbb000000000000000000000000000000000000000000000000000000001790526104fa908490610731565b6000805473ffffffffffffffffffffffffffffffffffffffff8381167fffffffffffffffffffffffff0000000000000000000000000000000000000000831681178455604051919092169283917f8be0079c531659141344cd1fd0a4f28419497f9722a3daafe3b4186f6b6457e09190a35050565b6000610793826040518060400160405280602081526020017f5361666545524332303a206c6f772d6c6576656c2063616c6c206661696c65648152508573ffffffffffffffffffffffffffffffffffffffff1661083d9092919063ffffffff16565b8051909150156104fa57808060200190518101906107b19190610aa7565b6104fa576040517f08c379a000000000000000000000000000000000000000000000000000000000815260206004820152602a60248201527f5361666545524332303a204552433230206f7065726174696f6e20646964206e60448201527f6f742073756363656564000000000000000000000000000000000000000000006064820152608401610241565b606061084c8484600085610856565b90505b9392505050565b6060824710156108e8576040517f08c379a000000000000000000000000000000000000000000000000000000000815260206004820152602660248201527f416464726573733a20696e73756666696369656e742062616c616e636520666f60448201527f722063616c6c00000000000000000000000000000000000000000000000000006064820152608401610241565b843b610950576040517f08c379a000000000000000000000000000000000000000000000000000000000815260206004820152601d60248201527f416464726573733a2063616c6c20746f206e6f6e2d636f6e74726163740000006044820152606401610241565b6000808673ffffffffffffffffffffffffffffffffffffffff1685876040516109799190610af2565b60006040518083038185875af1925050503d80600081146109b6576040519150601f19603f3d011682016040523d82523d6000602084013e6109bb565b606091505b50915091506109cb8282866109d6565b979650505050505050565b606083156109e557508161084f565b8251156109f55782518084602001fd5b816040517f08c379a00000000000000000000000000000000000000000000000000000000081526004016102419190610b0e565b803573ffffffffffffffffffffffffffffffffffffffff81168114610a4d57600080fd5b919050565b600060208284031215610a63578081fd5b61084f82610a29565b600080600060608486031215610a80578182fd5b610a8984610a29565b9250610a9760208501610a29565b9150604084013590509250925092565b600060208284031215610ab8578081fd5b8151801515811461084f578182fd5b60008060408385031215610ad9578182fd5b82359150610ae960208401610a29565b90509250929050565b60008251610b04818460208701610b5f565b9190910192915050565b6020815260008251806020840152610b2d816040850160208701610b5f565b601f017fffffffffffffffffffffffffffffffffffffffffffffffffffffffffffffffe0169190910160400192915050565b60005b83811015610b7a578181015183820152602001610b62565b838111156104e9575050600091015256fea26469706673582212202b8c6430fd5cdb2c5865c92073abdb56c28b582899cec4f6790c5b22c3169a2f64736f6c63430008040033",
  "linkReferences": {
    "contracts/core/OpsManagerLib.sol": {
      "OpsManagerLib": [
        {
          "length": 20,
          "start": 2188
        },
        {
          "length": 20,
          "start": 4029
        },
        {
          "length": 20,
          "start": 7672
        }
      ]
    }
  },
  "deployedLinkReferences": {
    "contracts/core/OpsManagerLib.sol": {
      "OpsManagerLib": [
        {
          "length": 20,
          "start": 1385
        },
        {
          "length": 20,
          "start": 3226
        },
        {
          "length": 20,
          "start": 6869
        }
      ]
    }
  }
}