{
  "_format": "hh-sol-artifact-1",
  "contractName": "OpsManager",
  "sourceName": "contracts/core/OpsManager.sol",
  "abi": [
    {
      "inputs": [
        {
          "internalType": "contract IERC20",
          "name": "_templeToken",
          "type": "address"
        },
        {
          "internalType": "contract JoiningFee",
          "name": "_joiningFee",
          "type": "address"
        }
      ],
      "stateMutability": "nonpayable",
      "type": "constructor"
    },
    {
      "anonymous": false,
      "inputs": [
        {
          "indexed": false,
          "internalType": "address",
          "name": "exposure",
          "type": "address"
        },
        {
          "indexed": false,
          "internalType": "address",
          "name": "primaryRevenue",
          "type": "address"
        }
      ],
      "name": "CreateExposure",
      "type": "event"
    },
    {
      "anonymous": false,
      "inputs": [
        {
          "indexed": false,
          "internalType": "address",
          "name": "vault",
          "type": "address"
        }
      ],
      "name": "CreateVault",
      "type": "event"
    },
    {
      "anonymous": false,
      "inputs": [
        {
          "indexed": true,
          "internalType": "address",
          "name": "previousOwner",
          "type": "address"
        },
        {
          "indexed": true,
          "internalType": "address",
          "name": "newOwner",
          "type": "address"
        }
      ],
      "name": "OwnershipTransferred",
      "type": "event"
    },
    {
      "inputs": [
        {
          "internalType": "uint256",
          "name": "",
          "type": "uint256"
        }
      ],
      "name": "activeExposures",
      "outputs": [
        {
          "internalType": "contract Exposure",
          "name": "",
          "type": "address"
        }
      ],
      "stateMutability": "view",
      "type": "function"
    },
    {
      "inputs": [
        {
          "internalType": "address",
          "name": "",
          "type": "address"
        }
      ],
      "name": "activeVaults",
      "outputs": [
        {
          "internalType": "bool",
          "name": "",
          "type": "bool"
        }
      ],
      "stateMutability": "view",
      "type": "function"
    },
    {
      "inputs": [
        {
          "internalType": "contract Exposure[]",
          "name": "exposures",
          "type": "address[]"
        },
        {
          "internalType": "uint256",
          "name": "amount",
          "type": "uint256"
        }
      ],
      "name": "addRevenue",
      "outputs": [],
      "stateMutability": "nonpayable",
      "type": "function"
    },
    {
      "inputs": [
        {
          "internalType": "contract Vault[]",
          "name": "vaults",
          "type": "address[]"
        },
        {
          "internalType": "contract Exposure",
          "name": "exposure",
          "type": "address"
        }
      ],
      "name": "claim",
      "outputs": [],
      "stateMutability": "nonpayable",
      "type": "function"
    },
    {
      "inputs": [
        {
          "internalType": "string",
          "name": "name",
          "type": "string"
        },
        {
          "internalType": "string",
          "name": "symbol",
          "type": "string"
        },
        {
          "internalType": "contract ERC20",
          "name": "revalToken",
          "type": "address"
        }
      ],
      "name": "createExposure",
      "outputs": [],
      "stateMutability": "nonpayable",
      "type": "function"
    },
    {
      "inputs": [
        {
          "internalType": "string",
          "name": "name",
          "type": "string"
        },
        {
          "internalType": "string",
          "name": "symbol",
          "type": "string"
        },
        {
          "internalType": "uint256",
          "name": "periodDuration",
          "type": "uint256"
        },
        {
          "internalType": "uint256",
          "name": "enterExitWindowDuration",
          "type": "uint256"
        },
        {
          "components": [
            {
              "internalType": "uint256",
              "name": "p",
              "type": "uint256"
            },
            {
              "internalType": "uint256",
              "name": "q",
              "type": "uint256"
            }
          ],
          "internalType": "struct Rational",
          "name": "shareBoostFactory",
          "type": "tuple"
        }
      ],
      "name": "createVault",
      "outputs": [],
      "stateMutability": "nonpayable",
      "type": "function"
    },
    {
      "inputs": [],
      "name": "joiningFee",
      "outputs": [
        {
          "internalType": "contract JoiningFee",
          "name": "",
          "type": "address"
        }
      ],
      "stateMutability": "view",
      "type": "function"
    },
    {
      "inputs": [
        {
          "internalType": "contract Vault[]",
          "name": "vaults",
          "type": "address[]"
        },
        {
          "internalType": "contract Exposure[]",
          "name": "exposures",
          "type": "address[]"
        }
      ],
      "name": "liquidateExposures",
      "outputs": [],
      "stateMutability": "nonpayable",
      "type": "function"
    },
    {
      "inputs": [],
      "name": "owner",
      "outputs": [
        {
          "internalType": "address",
          "name": "",
          "type": "address"
        }
      ],
      "stateMutability": "view",
      "type": "function"
    },
    {
      "inputs": [
        {
          "internalType": "contract Exposure",
          "name": "",
          "type": "address"
        }
      ],
      "name": "pools",
      "outputs": [
        {
          "internalType": "contract TreasuryFarmingRevenue",
          "name": "",
          "type": "address"
        }
      ],
      "stateMutability": "view",
      "type": "function"
    },
    {
      "inputs": [
        {
          "internalType": "contract Vault[]",
          "name": "vaults",
          "type": "address[]"
        },
        {
          "internalType": "contract Exposure",
          "name": "exposure",
          "type": "address"
        }
      ],
      "name": "rebalance",
      "outputs": [],
      "stateMutability": "nonpayable",
      "type": "function"
    },
    {
      "inputs": [],
      "name": "renounceOwnership",
      "outputs": [],
      "stateMutability": "nonpayable",
      "type": "function"
    },
    {
      "inputs": [
        {
          "internalType": "contract Vault[]",
          "name": "vaults",
          "type": "address[]"
        },
        {
          "internalType": "contract Exposure",
          "name": "exposure",
          "type": "address"
        }
      ],
      "name": "requiresRebalance",
      "outputs": [
        {
          "internalType": "bool[]",
          "name": "",
          "type": "bool[]"
        }
      ],
      "stateMutability": "view",
      "type": "function"
    },
    {
      "inputs": [],
      "name": "templeToken",
      "outputs": [
        {
          "internalType": "contract IERC20",
          "name": "",
          "type": "address"
        }
      ],
      "stateMutability": "view",
      "type": "function"
    },
    {
      "inputs": [
        {
          "internalType": "address",
          "name": "newOwner",
          "type": "address"
        }
      ],
      "name": "transferOwnership",
      "outputs": [],
      "stateMutability": "nonpayable",
      "type": "function"
    }
  ],
  "bytecode": "0x60806040523480156200001157600080fd5b5060405162007f8b38038062007f8b8339810160408190526200003491620000c1565b6200003f3362000071565b600480546001600160a01b039384166001600160a01b0319918216179091556005805492909316911617905562000118565b600080546001600160a01b038381166001600160a01b0319831681178455604051919092169283917f8be0079c531659141344cd1fd0a4f28419497f9722a3daafe3b4186f6b6457e09190a35050565b60008060408385031215620000d4578182fd5b8251620000e181620000ff565b6020840151909250620000f481620000ff565b809150509250929050565b6001600160a01b03811681146200011557600080fd5b50565b617e6380620001286000396000f3fe60806040523480156200001157600080fd5b5060043610620001095760003560e01c80638da5cb5b11620000a3578063ade6ae8a116200006e578063ade6ae8a146200028d578063b1a9069c14620002a4578063bfcdee4414620002c5578063f2fde38b14620002dc57600080fd5b80638da5cb5b1462000207578063a4063dbc1462000226578063a7cd2a95146200025f578063aa5220f8146200027657600080fd5b80636eeeaaa511620000e45780636eeeaaa5146200017f578063715018a614620001a05780638142fc3e14620001aa57806387cc5f7914620001d057600080fd5b806325181bb0146200010e5780632ce8cfbf14620001275780636a6a8e61146200013e575b600080fd5b620001256200011f36600462001c55565b620002f3565b005b620001256200013836600462001c55565b62000500565b620001556200014f36600462001e30565b62000bea565b60405173ffffffffffffffffffffffffffffffffffffffff90911681526020015b60405180910390f35b600554620001559073ffffffffffffffffffffffffffffffffffffffff1681565b6200012562000c22565b620001c1620001bb36600462001c55565b62000cb3565b60405162000176919062001ece565b620001f6620001e136600462001b80565b60036020526000908152604090205460ff1681565b604051901515815260200162000176565b60005473ffffffffffffffffffffffffffffffffffffffff1662000155565b620001556200023736600462001b80565b60016020526000908152604090205473ffffffffffffffffffffffffffffffffffffffff1681565b620001256200027036600462001bed565b62001030565b620001256200028736600462001ccd565b62001203565b620001256200029e36600462001d4b565b62001526565b600454620001559073ffffffffffffffffffffffffffffffffffffffff1681565b62000125620002d636600462001ba6565b620016a4565b62000125620002ed36600462001b80565b6200182a565b60005b8251811015620004fb57600360008483815181106200033e577f4e487b7100000000000000000000000000000000000000000000000000000000600052603260045260246000fd5b60209081029190910181015173ffffffffffffffffffffffffffffffffffffffff1682528101919091526040016000205460ff1662000404576040517f08c379a000000000000000000000000000000000000000000000000000000000815260206004820152603560248201527f4661726d696e67526576656e75654d6e616765723a20696e76616c69642f696e60448201527f616374697665207661756c7420696e206172726179000000000000000000000060648201526084015b60405180910390fd5b73ffffffffffffffffffffffffffffffffffffffff808316600090815260016020526040902054845191169063ddeae0339085908490811062000470577f4e487b7100000000000000000000000000000000000000000000000000000000600052603260045260246000fd5b60200260200101516040518263ffffffff1660e01b8152600401620004b1919073ffffffffffffffffffffffffffffffffffffffff91909116815260200190565b600060405180830381600087803b158015620004cc57600080fd5b505af1158015620004e1573d6000803e3d6000fd5b505050508080620004f290620020d2565b915050620002f6565b505050565b60005b8251811015620004fb57600360008483815181106200054b577f4e487b7100000000000000000000000000000000000000000000000000000000600052603260045260246000fd5b60209081029190910181015173ffffffffffffffffffffffffffffffffffffffff1682528101919091526040016000205460ff166200060d576040517f08c379a000000000000000000000000000000000000000000000000000000000815260206004820152603560248201527f4661726d696e67526576656e75654d6e616765723a20696e76616c69642f696e60448201527f616374697665207661756c7420696e20617272617900000000000000000000006064820152608401620003fb565b82818151811062000647577f4e487b7100000000000000000000000000000000000000000000000000000000600052603260045260246000fd5b602002602001015173ffffffffffffffffffffffffffffffffffffffff16636b2f14176040518163ffffffff1660e01b815260040160206040518083038186803b1580156200069557600080fd5b505afa158015620006aa573d6000803e3d6000fd5b505050506040513d601f19601f82011682018060405250810190620006d0919062001cab565b62000784576040517f08c379a000000000000000000000000000000000000000000000000000000000815260206004820152604860248201527f4661726d696e67526576656e75654d6e616765723a2043616e6e6f742072656260448201527f616c616e6365207661756c747320696e20746865697220657869742f656e747260648201527f792077696e646f77000000000000000000000000000000000000000000000000608482015260a401620003fb565b73ffffffffffffffffffffffffffffffffffffffff80831660009081526001602052604081205485519192169063ce7c2ac290869085908110620007f1577f4e487b7100000000000000000000000000000000000000000000000000000000600052603260045260246000fd5b60200260200101516040518263ffffffff1660e01b815260040162000832919073ffffffffffffffffffffffffffffffffffffffff91909116815260200190565b60206040518083038186803b1580156200084b57600080fd5b505afa15801562000860573d6000803e3d6000fd5b505050506040513d601f19601f8201168201806040525081019062000886919062001e49565b90506000848381518110620008c4577f4e487b7100000000000000000000000000000000000000000000000000000000600052603260045260246000fd5b602002602001015173ffffffffffffffffffffffffffffffffffffffff1663981fc3726040518163ffffffff1660e01b815260040160206040518083038186803b1580156200091257600080fd5b505afa15801562000927573d6000803e3d6000fd5b505050506040513d601f19601f820116820180604052508101906200094d919062001e49565b90508181111562000a655773ffffffffffffffffffffffffffffffffffffffff80851660009081526001602052604090205486519116906386c011db90879086908110620009c4577f4e487b7100000000000000000000000000000000000000000000000000000000600052603260045260246000fd5b60200260200101518484620009da9190620020b8565b6040517fffffffff0000000000000000000000000000000000000000000000000000000060e085901b16815273ffffffffffffffffffffffffffffffffffffffff90921660048301526024820152604401600060405180830381600087803b15801562000a4657600080fd5b505af115801562000a5b573d6000803e3d6000fd5b5050505062000bd2565b8181101562000af05773ffffffffffffffffffffffffffffffffffffffff80851660009081526001602052604090205486519116906387983d139087908690811062000ada577f4e487b7100000000000000000000000000000000000000000000000000000000600052603260045260246000fd5b60200260200101518385620009da9190620020b8565b73ffffffffffffffffffffffffffffffffffffffff808516600090815260016020526040902054865191169063ddeae0339087908690811062000b5c577f4e487b7100000000000000000000000000000000000000000000000000000000600052603260045260246000fd5b60200260200101516040518263ffffffff1660e01b815260040162000b9d919073ffffffffffffffffffffffffffffffffffffffff91909116815260200190565b600060405180830381600087803b15801562000bb857600080fd5b505af115801562000bcd573d6000803e3d6000fd5b505050505b5050808062000be190620020d2565b91505062000503565b6002818154811062000bfb57600080fd5b60009182526020909120015473ffffffffffffffffffffffffffffffffffffffff16905081565b60005473ffffffffffffffffffffffffffffffffffffffff16331462000ca5576040517f08c379a000000000000000000000000000000000000000000000000000000000815260206004820181905260248201527f4f776e61626c653a2063616c6c6572206973206e6f7420746865206f776e65726044820152606401620003fb565b62000cb1600062001960565b565b60606000835167ffffffffffffffff81111562000cf9577f4e487b7100000000000000000000000000000000000000000000000000000000600052604160045260246000fd5b60405190808252806020026020018201604052801562000d23578160200160208202803683370190505b50905060005b8451811015620010285784818151811062000d6d577f4e487b7100000000000000000000000000000000000000000000000000000000600052603260045260246000fd5b602002602001015173ffffffffffffffffffffffffffffffffffffffff16636b2f14176040518163ffffffff1660e01b815260040160206040518083038186803b15801562000dbb57600080fd5b505afa15801562000dd0573d6000803e3d6000fd5b505050506040513d601f19601f8201168201806040525081019062000df6919062001cab565b1562000e025762001013565b84818151811062000e3c577f4e487b7100000000000000000000000000000000000000000000000000000000600052603260045260246000fd5b602002602001015173ffffffffffffffffffffffffffffffffffffffff1663981fc3726040518163ffffffff1660e01b815260040160206040518083038186803b15801562000e8a57600080fd5b505afa15801562000e9f573d6000803e3d6000fd5b505050506040513d601f19601f8201168201806040525081019062000ec5919062001e49565b73ffffffffffffffffffffffffffffffffffffffff808616600090815260016020526040902054875191169063ce7c2ac29088908590811062000f31577f4e487b7100000000000000000000000000000000000000000000000000000000600052603260045260246000fd5b60200260200101516040518263ffffffff1660e01b815260040162000f72919073ffffffffffffffffffffffffffffffffffffffff91909116815260200190565b60206040518083038186803b15801562000f8b57600080fd5b505afa15801562000fa0573d6000803e3d6000fd5b505050506040513d601f19601f8201168201806040525081019062000fc6919062001e49565b141582828151811062001002577f4e487b7100000000000000000000000000000000000000000000000000000000600052603260045260246000fd5b911515602092830291909101909101525b806200101f81620020d2565b91505062000d29565b509392505050565b60005b8251811015620004fb57600360008483815181106200107b577f4e487b7100000000000000000000000000000000000000000000000000000000600052603260045260246000fd5b60209081029190910181015173ffffffffffffffffffffffffffffffffffffffff1682528101919091526040016000205460ff166200113d576040517f08c379a000000000000000000000000000000000000000000000000000000000815260206004820152603560248201527f4661726d696e67526576656e75654d6e616765723a20696e76616c69642f696e60448201527f616374697665207661756c7420696e20617272617900000000000000000000006064820152608401620003fb565b82818151811062001177577f4e487b7100000000000000000000000000000000000000000000000000000000600052603260045260246000fd5b602002602001015173ffffffffffffffffffffffffffffffffffffffff16636823920a836040518263ffffffff1660e01b8152600401620011b9919062001f16565b600060405180830381600087803b158015620011d457600080fd5b505af1158015620011e9573d6000803e3d6000fd5b505050508080620011fa90620020d2565b91505062001033565b60005473ffffffffffffffffffffffffffffffffffffffff16331462001286576040517f08c379a000000000000000000000000000000000000000000000000000000000815260206004820181905260248201527f4f776e61626c653a2063616c6c6572206973206e6f7420746865206f776e65726044820152606401620003fb565b6000838383306040516200129a90620019d5565b620012a9949392919062001f66565b604051809103906000f080158015620012c6573d6000803e3d6000fd5b50600280546001810182556000919091527f405787fa12a823e0f2b7631cc41b3ba8828b3321ca811111fa75cd3aa3bb5ace0180547fffffffffffffffffffffffff00000000000000000000000000000000000000001673ffffffffffffffffffffffffffffffffffffffff83169081179091556040517ff2fde38b0000000000000000000000000000000000000000000000000000000081523360048201529192509063f2fde38b90602401600060405180830381600087803b1580156200138e57600080fd5b505af1158015620013a3573d6000803e3d6000fd5b5050505080604051620013b690620019e3565b73ffffffffffffffffffffffffffffffffffffffff9091168152602001604051809103906000f080158015620013f0573d6000803e3d6000fd5b5073ffffffffffffffffffffffffffffffffffffffff82811660008181526001602081905260409182902080547fffffffffffffffffffffffff00000000000000000000000000000000000000001695909416948517909355517fa746f93a000000000000000000000000000000000000000000000000000000008152600481019390935260248301919091529063a746f93a90604401600060405180830381600087803b158015620014a257600080fd5b505af1158015620014b7573d6000803e3d6000fd5b5050505073ffffffffffffffffffffffffffffffffffffffff818116600081815260016020908152604091829020548251938452909316928201929092527f390f4da03f9e74fca8b97195d2227fcc77f077755b8b358e42782b69c5faeb36910160405180910390a150505050565b60005473ffffffffffffffffffffffffffffffffffffffff163314620015a9576040517f08c379a000000000000000000000000000000000000000000000000000000000815260206004820181905260248201527f4f776e61626c653a2063616c6c6572206973206e6f7420746865206f776e65726044820152606401620003fb565b6004546005546040516000928892889273ffffffffffffffffffffffffffffffffffffffff9283169289928992899290911690620015e790620019f1565b620015f9979695949392919062001fc1565b604051809103906000f08015801562001616573d6000803e3d6000fd5b5073ffffffffffffffffffffffffffffffffffffffff811660008181526003602090815260409182902080547fffffffffffffffffffffffffffffffffffffffffffffffffffffffffffffff0016600117905590519182529192507ffb83ca910097c70646250238daf4abcd392f91992164890d564d81e0e218f2b2910160405180910390a1505050505050565b60005473ffffffffffffffffffffffffffffffffffffffff16331462001727576040517f08c379a000000000000000000000000000000000000000000000000000000000815260206004820181905260248201527f4f776e61626c653a2063616c6c6572206973206e6f7420746865206f776e65726044820152606401620003fb565b60005b8251811015620004fb576001600084838151811062001772577f4e487b7100000000000000000000000000000000000000000000000000000000600052603260045260246000fd5b60209081029190910181015173ffffffffffffffffffffffffffffffffffffffff90811683529082019290925260409081016000205490517f63ec512d000000000000000000000000000000000000000000000000000000008152600481018590529116906363ec512d90602401600060405180830381600087803b158015620017fb57600080fd5b505af115801562001810573d6000803e3d6000fd5b5050505080806200182190620020d2565b9150506200172a565b60005473ffffffffffffffffffffffffffffffffffffffff163314620018ad576040517f08c379a000000000000000000000000000000000000000000000000000000000815260206004820181905260248201527f4f776e61626c653a2063616c6c6572206973206e6f7420746865206f776e65726044820152606401620003fb565b73ffffffffffffffffffffffffffffffffffffffff811662001952576040517f08c379a000000000000000000000000000000000000000000000000000000000815260206004820152602660248201527f4f776e61626c653a206e6577206f776e657220697320746865207a65726f206160448201527f64647265737300000000000000000000000000000000000000000000000000006064820152608401620003fb565b6200195d8162001960565b50565b6000805473ffffffffffffffffffffffffffffffffffffffff8381167fffffffffffffffffffffffff0000000000000000000000000000000000000000831681178455604051919092169283917f8be0079c531659141344cd1fd0a4f28419497f9722a3daafe3b4186f6b6457e09190a35050565b611e52806200219083390190565b610c658062003fe283390190565b6131e78062004c4783390190565b600082601f83011262001a10578081fd5b8135602062001a2962001a238362002091565b6200203f565b80838252828201915082860187848660051b890101111562001a49578586fd5b855b8581101562001a7457813562001a61816200216c565b8452928401929084019060010162001a4b565b5090979650505050505050565b600082601f83011262001a92578081fd5b8135602062001aa562001a238362002091565b80838252828201915082860187848660051b890101111562001ac5578586fd5b855b8581101562001a7457813562001add816200216c565b8452928401929084019060010162001ac7565b600082601f83011262001b01578081fd5b813567ffffffffffffffff81111562001b1e5762001b1e6200213d565b62001b5160207fffffffffffffffffffffffffffffffffffffffffffffffffffffffffffffffe0601f840116016200203f565b81815284602083860101111562001b66578283fd5b816020850160208301379081016020019190915292915050565b60006020828403121562001b92578081fd5b813562001b9f816200216c565b9392505050565b6000806040838503121562001bb9578081fd5b823567ffffffffffffffff81111562001bd0578182fd5b62001bde85828601620019ff565b95602094909401359450505050565b6000806040838503121562001c00578182fd5b823567ffffffffffffffff8082111562001c18578384fd5b62001c268683870162001a81565b9350602085013591508082111562001c3c578283fd5b5062001c4b85828601620019ff565b9150509250929050565b6000806040838503121562001c68578182fd5b823567ffffffffffffffff81111562001c7f578283fd5b62001c8d8582860162001a81565b925050602083013562001ca0816200216c565b809150509250929050565b60006020828403121562001cbd578081fd5b8151801515811462001b9f578182fd5b60008060006060848603121562001ce2578081fd5b833567ffffffffffffffff8082111562001cfa578283fd5b62001d088783880162001af0565b9450602086013591508082111562001d1e578283fd5b5062001d2d8682870162001af0565b925050604084013562001d40816200216c565b809150509250925092565b600080600080600085870360c081121562001d64578182fd5b863567ffffffffffffffff8082111562001d7c578384fd5b62001d8a8a838b0162001af0565b9750602089013591508082111562001da0578384fd5b62001dae8a838b0162001af0565b9650604089013595506060890135945060407fffffffffffffffffffffffffffffffffffffffffffffffffffffffffffffff808401121562001dee578384fd5b6040519250604083019150828210818311171562001e105762001e106200213d565b506040526080870135815260a09096013560208701525092959194509290565b60006020828403121562001e42578081fd5b5035919050565b60006020828403121562001e5b578081fd5b5051919050565b60008151808452815b8181101562001e895760208185018101518683018201520162001e6b565b8181111562001e9b5782602083870101525b50601f017fffffffffffffffffffffffffffffffffffffffffffffffffffffffffffffffe0169290920160200192915050565b6020808252825182820181905260009190848201906040850190845b8181101562001f0a57835115158352928401929184019160010162001eea565b50909695505050505050565b6020808252825182820181905260009190848201906040850190845b8181101562001f0a57835173ffffffffffffffffffffffffffffffffffffffff168352928401929184019160010162001f32565b60808152600062001f7b608083018762001e62565b828103602084015262001f8f818762001e62565b91505073ffffffffffffffffffffffffffffffffffffffff808516604084015280841660608401525095945050505050565b600061010080835262001fd78184018b62001e62565b9050828103602084015262001fed818a62001e62565b91505073ffffffffffffffffffffffffffffffffffffffff8088166040840152866060840152856080840152845160a0840152602085015160c084015280841660e08401525098975050505050505050565b604051601f82017fffffffffffffffffffffffffffffffffffffffffffffffffffffffffffffffe016810167ffffffffffffffff811182821017156200208957620020896200213d565b604052919050565b600067ffffffffffffffff821115620020ae57620020ae6200213d565b5060051b60200190565b600082821015620020cd57620020cd6200210e565b500390565b60007fffffffffffffffffffffffffffffffffffffffffffffffffffffffffffffffff8214156200210757620021076200210e565b5060010190565b7f4e487b7100000000000000000000000000000000000000000000000000000000600052601160045260246000fd5b7f4e487b7100000000000000000000000000000000000000000000000000000000600052604160045260246000fd5b73ffffffffffffffffffffffffffffffffffffffff811681146200195d57600080fdfe60806040523480156200001157600080fd5b5060405162001e5238038062001e52833981016040819052620000349162000251565b83836200004133620000a8565b815162000056906004906020850190620000f8565b5080516200006c906005906020840190620000f8565b5050600880546001600160a01b039485166001600160a01b031991821617909155600b805493909416921691909117909155506200034e915050565b600080546001600160a01b038381166001600160a01b0319831681178455604051919092169283917f8be0079c531659141344cd1fd0a4f28419497f9722a3daafe3b4186f6b6457e09190a35050565b8280546200010690620002e2565b90600052602060002090601f0160209004810192826200012a576000855562000175565b82601f106200014557805160ff191683800117855562000175565b8280016001018555821562000175579182015b828111156200017557825182559160200191906001019062000158565b506200018392915062000187565b5090565b5b8082111562000183576000815560010162000188565b600082601f830112620001af578081fd5b81516001600160401b0380821115620001cc57620001cc6200031f565b604051601f8301601f19908116603f01168101908282118183101715620001f757620001f76200031f565b8160405283815260209250868385880101111562000213578485fd5b8491505b8382101562000236578582018301518183018401529082019062000217565b838211156200024757848385830101525b9695505050505050565b6000806000806080858703121562000267578384fd5b84516001600160401b03808211156200027e578586fd5b6200028c888389016200019e565b95506020870151915080821115620002a2578485fd5b50620002b1878288016200019e565b9350506040850151620002c48162000335565b6060860151909250620002d78162000335565b939692955090935050565b600181811c90821680620002f757607f821691505b602082108114156200031957634e487b7160e01b600052602260045260246000fd5b50919050565b634e487b7160e01b600052604160045260246000fd5b6001600160a01b03811681146200034b57600080fd5b50565b611af4806200035e6000396000f3fe608060405234801561001057600080fd5b50600436106101da5760003560e01c806370a0823111610104578063a746f93a116100a2578063be040fb011610071578063be040fb01461042d578063c2ba474414610435578063dd62ed3e14610458578063f2fde38b1461049e57600080fd5b8063a746f93a146103e1578063a9059cbb146103f4578063ae85d64114610407578063b0ff11061461041a57600080fd5b8063873924e4116100de578063873924e4146103885780638da5cb5b146103a857806395d89b41146103c6578063a457c2d7146103ce57600080fd5b806370a0823114610350578063715018a6146103635780637c5a227c1461036b57600080fd5b8063313ce5671161017c5780634046ebae1161014b5780634046ebae146102b857806340c10f19146102fd5780634473ad521461031057806348bd91611461033057600080fd5b8063313ce5671461028457806339509351146102935780633a98ef39146102a65780633f3a0c5b146102af57600080fd5b8063095ea7b3116101b8578063095ea7b314610225578063174e4ea61461024857806318160ddd1461026957806323b872dd1461027157600080fd5b8063057ac848146101df578063064c97d6146101f457806306fdde0314610207575b600080fd5b6101f26101ed3660046118d3565b6104b1565b005b6101f26102023660046118d3565b610591565b61020f610664565b60405161021c9190611903565b60405180910390f35b6102386102333660046118a8565b6106f6565b604051901515815260200161021c565b61025b6102563660046118d3565b61070c565b60405190815260200161021c565b61025b61073b565b61023861027f366004611837565b61074d565b6040516012815260200161021c565b6102386102a13660046118a8565b610833565b61025b60065481565b61025b60095481565b600c546102d89073ffffffffffffffffffffffffffffffffffffffff1681565b60405173ffffffffffffffffffffffffffffffffffffffff909116815260200161021c565b6101f261030b3660046118a8565b61087c565b61025b61031e3660046117dc565b60076020526000908152604090205481565b600b546102d89073ffffffffffffffffffffffffffffffffffffffff1681565b61025b61035e3660046117dc565b61091a565b6101f261094f565b6103736109dc565b6040805192835260208301919091520161021c565b6008546102d89073ffffffffffffffffffffffffffffffffffffffff1681565b60005473ffffffffffffffffffffffffffffffffffffffff166102d8565b61020f6109f8565b6102386103dc3660046118a8565b610a07565b6101f26103ef366004611877565b610adf565b6102386104023660046118a8565b610c2f565b6101f26104153660046117dc565b610c3c565b61025b6104283660046118d3565b610d37565b6101f2610d54565b6102386104433660046117dc565b600a6020526000908152604090205460ff1681565b61025b6104663660046117ff565b73ffffffffffffffffffffffffffffffffffffffff918216600090815260026020908152604080832093909416825291909152205490565b6101f26104ac3660046117dc565b610ea0565b60005473ffffffffffffffffffffffffffffffffffffffff163314610537576040517f08c379a000000000000000000000000000000000000000000000000000000000815260206004820181905260248201527f4f776e61626c653a2063616c6c6572206973206e6f7420746865206f776e657260448201526064015b60405180910390fd5b60098054908290600061054a8385611974565b90915550506009546040805183815260208101929092527fa59e96b3c1d252b5b2fd20d08a77732f3af73142db0af5e50ced94b558c7fa0591015b60405180910390a15050565b60005473ffffffffffffffffffffffffffffffffffffffff163314610612576040517f08c379a000000000000000000000000000000000000000000000000000000000815260206004820181905260248201527f4f776e61626c653a2063616c6c6572206973206e6f7420746865206f776e6572604482015260640161052e565b6009805490829060006106258385611a02565b90915550506009546040805183815260208101929092527f307076957a8ce6e01b7d381f303646d1011fb16a9842dfa0859a9eddfd312e429101610585565b60606004805461067390611a19565b80601f016020809104026020016040519081016040528092919081815260200182805461069f90611a19565b80156106ec5780601f106106c1576101008083540402835291602001916106ec565b820191906000526020600020905b8154815290600101906020018083116106cf57829003601f168201915b5050505050905090565b6000610703338484610fd0565b50600192915050565b60008060006107196109dc565b90925090508061072983866119c5565b610733919061198c565b949350505050565b600061074860065461070c565b905090565b600061075a848484611184565b73ffffffffffffffffffffffffffffffffffffffff841660009081526002602090815260408083203384529091529020548281101561081b576040517f08c379a000000000000000000000000000000000000000000000000000000000815260206004820152602860248201527f45524332303a207472616e7366657220616d6f756e742065786365656473206160448201527f6c6c6f77616e6365000000000000000000000000000000000000000000000000606482015260840161052e565b6108288533858403610fd0565b506001949350505050565b33600081815260026020908152604080832073ffffffffffffffffffffffffffffffffffffffff871684529091528120549091610703918590610877908690611974565b610fd0565b336000908152600a602052604090205460ff166108f5576040517f08c379a000000000000000000000000000000000000000000000000000000000815260206004820152601f60248201527f53747261746567793a2063616c6c6572206973206e6f742061207661756c7400604482015260640161052e565b6108ff8282611447565b80600960008282546109119190611974565b90915550505050565b73ffffffffffffffffffffffffffffffffffffffff81166000908152600760205260408120546109499061070c565b92915050565b60005473ffffffffffffffffffffffffffffffffffffffff1633146109d0576040517f08c379a000000000000000000000000000000000000000000000000000000000815260206004820181905260248201527f4f776e61626c653a2063616c6c6572206973206e6f7420746865206f776e6572604482015260640161052e565b6109da600061156d565b565b600954600654816109ec57600191505b806109f45750805b9091565b60606005805461067390611a19565b33600090815260026020908152604080832073ffffffffffffffffffffffffffffffffffffffff8616845290915281205482811015610ac8576040517f08c379a000000000000000000000000000000000000000000000000000000000815260206004820152602560248201527f45524332303a2064656372656173656420616c6c6f77616e63652062656c6f7760448201527f207a65726f000000000000000000000000000000000000000000000000000000606482015260840161052e565b610ad53385858403610fd0565b5060019392505050565b600b5473ffffffffffffffffffffffffffffffffffffffff16331480610b1c575060005473ffffffffffffffffffffffffffffffffffffffff1633145b610ba8576040517f08c379a000000000000000000000000000000000000000000000000000000000815260206004820152602960248201527f53747261746567793a2063616c6c6572206973206e6f742061206d696e74657260448201527f206f72206f776e65720000000000000000000000000000000000000000000000606482015260840161052e565b73ffffffffffffffffffffffffffffffffffffffff82166000818152600a602090815260409182902080547fffffffffffffffffffffffffffffffffffffffffffffffffffffffffffffff00168515159081179091558251938452908301527f73d5b2f10126b99916a4c71d591a354f52ed52ca3b0278eaf584e35220addb779101610585565b6000610703338484611184565b60005473ffffffffffffffffffffffffffffffffffffffff163314610cbd576040517f08c379a000000000000000000000000000000000000000000000000000000000815260206004820181905260248201527f4f776e61626c653a2063616c6c6572206973206e6f7420746865206f776e6572604482015260640161052e565b600c80547fffffffffffffffffffffffff00000000000000000000000000000000000000001673ffffffffffffffffffffffffffffffffffffffff83169081179091556040519081527f111c6aeb2006d748bdae2ddf082866e6ce7eb3d48ef324b5d9547570f5694e4f906020015b60405180910390a150565b6000806000610d446109dc565b90925090508161072982866119c5565b6000610d5f3361091a565b9050610d6b33826115e2565b8060096000828254610d7d9190611a02565b9091555050600c5473ffffffffffffffffffffffffffffffffffffffff1615610e4a57600c546040517f4d4c23a80000000000000000000000000000000000000000000000000000000081526004810183905233602482015273ffffffffffffffffffffffffffffffffffffffff90911690634d4c23a89060440160206040518083038186803b158015610e1057600080fd5b505afa158015610e24573d6000803e3d6000fd5b505050506040513d601f19601f82011682018060405250810190610e4891906118eb565b505b6008546040805173ffffffffffffffffffffffffffffffffffffffff909216825233602083015281018290527fd12200efa34901b99367694174c3b0d32c99585fdf37c7c26892136ddd0836d990606001610d2c565b60005473ffffffffffffffffffffffffffffffffffffffff163314610f21576040517f08c379a000000000000000000000000000000000000000000000000000000000815260206004820181905260248201527f4f776e61626c653a2063616c6c6572206973206e6f7420746865206f776e6572604482015260640161052e565b73ffffffffffffffffffffffffffffffffffffffff8116610fc4576040517f08c379a000000000000000000000000000000000000000000000000000000000815260206004820152602660248201527f4f776e61626c653a206e6577206f776e657220697320746865207a65726f206160448201527f6464726573730000000000000000000000000000000000000000000000000000606482015260840161052e565b610fcd8161156d565b50565b73ffffffffffffffffffffffffffffffffffffffff8316611072576040517f08c379a0000000000000000000000000000000000000000000000000000000008152602060048201526024808201527f45524332303a20617070726f76652066726f6d20746865207a65726f2061646460448201527f7265737300000000000000000000000000000000000000000000000000000000606482015260840161052e565b73ffffffffffffffffffffffffffffffffffffffff8216611115576040517f08c379a000000000000000000000000000000000000000000000000000000000815260206004820152602260248201527f45524332303a20617070726f766520746f20746865207a65726f20616464726560448201527f7373000000000000000000000000000000000000000000000000000000000000606482015260840161052e565b73ffffffffffffffffffffffffffffffffffffffff83811660008181526002602090815260408083209487168084529482529182902085905590518481527f8c5be1e5ebec7d5bd14f71427d1e84f3dd0314c0f7b2291e5b200ac8c7c3b92591015b60405180910390a3505050565b73ffffffffffffffffffffffffffffffffffffffff8316611227576040517f08c379a000000000000000000000000000000000000000000000000000000000815260206004820152602560248201527f45524332303a207472616e736665722066726f6d20746865207a65726f20616460448201527f6472657373000000000000000000000000000000000000000000000000000000606482015260840161052e565b73ffffffffffffffffffffffffffffffffffffffff82166112ca576040517f08c379a000000000000000000000000000000000000000000000000000000000815260206004820152602360248201527f45524332303a207472616e7366657220746f20746865207a65726f206164647260448201527f6573730000000000000000000000000000000000000000000000000000000000606482015260840161052e565b73ffffffffffffffffffffffffffffffffffffffff8316600090815260076020526040812054906112fa83610d37565b90508082101561138c576040517f08c379a000000000000000000000000000000000000000000000000000000000815260206004820152602660248201527f45524332303a207472616e7366657220616d6f756e742065786365656473206260448201527f616c616e63650000000000000000000000000000000000000000000000000000606482015260840161052e565b73ffffffffffffffffffffffffffffffffffffffff80861660009081526007602052604080822080548590039055918616815290812080548392906113d2908490611974565b925050819055508373ffffffffffffffffffffffffffffffffffffffff168573ffffffffffffffffffffffffffffffffffffffff167fddf252ad1be2c89b69c2b068fc378daa952ba7f163c4a11628f55a4df523b3ef8560405161143891815260200190565b60405180910390a35050505050565b73ffffffffffffffffffffffffffffffffffffffff82166114c4576040517f08c379a000000000000000000000000000000000000000000000000000000000815260206004820152601f60248201527f45524332303a206d696e7420746f20746865207a65726f206164647265737300604482015260640161052e565b60006114cf82610d37565b905080600660008282546114e39190611974565b909155505073ffffffffffffffffffffffffffffffffffffffff83166000908152600760205260408120805483929061151d908490611974565b909155505060405182815273ffffffffffffffffffffffffffffffffffffffff8416906000907fddf252ad1be2c89b69c2b068fc378daa952ba7f163c4a11628f55a4df523b3ef90602001611177565b6000805473ffffffffffffffffffffffffffffffffffffffff8381167fffffffffffffffffffffffff0000000000000000000000000000000000000000831681178455604051919092169283917f8be0079c531659141344cd1fd0a4f28419497f9722a3daafe3b4186f6b6457e09190a35050565b73ffffffffffffffffffffffffffffffffffffffff8216611685576040517f08c379a000000000000000000000000000000000000000000000000000000000815260206004820152602160248201527f45524332303a206275726e2066726f6d20746865207a65726f2061646472657360448201527f7300000000000000000000000000000000000000000000000000000000000000606482015260840161052e565b73ffffffffffffffffffffffffffffffffffffffff8216600090815260076020526040812054906116b583610d37565b905080821015611747576040517f08c379a000000000000000000000000000000000000000000000000000000000815260206004820152602260248201527f45524332303a206275726e20616d6f756e7420657863656564732062616c616e60448201527f6365000000000000000000000000000000000000000000000000000000000000606482015260840161052e565b73ffffffffffffffffffffffffffffffffffffffff84166000908152600760205260408120828403905560068054839290611783908490611a02565b909155505060405183815260009073ffffffffffffffffffffffffffffffffffffffff8616907fddf252ad1be2c89b69c2b068fc378daa952ba7f163c4a11628f55a4df523b3ef9060200160405180910390a350505050565b6000602082840312156117ed578081fd5b81356117f881611a9c565b9392505050565b60008060408385031215611811578081fd5b823561181c81611a9c565b9150602083013561182c81611a9c565b809150509250929050565b60008060006060848603121561184b578081fd5b833561185681611a9c565b9250602084013561186681611a9c565b929592945050506040919091013590565b60008060408385031215611889578182fd5b823561189481611a9c565b91506020830135801515811461182c578182fd5b600080604083850312156118ba578182fd5b82356118c581611a9c565b946020939093013593505050565b6000602082840312156118e4578081fd5b5035919050565b6000602082840312156118fc578081fd5b5051919050565b6000602080835283518082850152825b8181101561192f57858101830151858201604001528201611913565b818111156119405783604083870101525b50601f017fffffffffffffffffffffffffffffffffffffffffffffffffffffffffffffffe016929092016040019392505050565b6000821982111561198757611987611a6d565b500190565b6000826119c0577f4e487b710000000000000000000000000000000000000000000000000000000081526012600452602481fd5b500490565b6000817fffffffffffffffffffffffffffffffffffffffffffffffffffffffffffffffff04831182151516156119fd576119fd611a6d565b500290565b600082821015611a1457611a14611a6d565b500390565b600181811c90821680611a2d57607f821691505b60208210811415611a67577f4e487b7100000000000000000000000000000000000000000000000000000000600052602260045260246000fd5b50919050565b7f4e487b7100000000000000000000000000000000000000000000000000000000600052601160045260246000fd5b73ffffffffffffffffffffffffffffffffffffffff81168114610fcd57600080fdfea2646970667358221220e6aa99d053e61e7c8c62a97a769b6ad9213bd9ffb9703da033e75b5e96dcbb2064736f6c63430008040033608060405234801561001057600080fd5b50604051610c65380380610c6583398101604081905261002f916100ad565b6100383361005d565b600180546001600160a01b0319166001600160a01b03929092169190911790556100db565b600080546001600160a01b038381166001600160a01b0319831681178455604051919092169283917f8be0079c531659141344cd1fd0a4f28419497f9722a3daafe3b4186f6b6457e09190a35050565b6000602082840312156100be578081fd5b81516001600160a01b03811681146100d4578182fd5b9392505050565b610b7b806100ea6000396000f3fe608060405234801561001057600080fd5b50600436106100d45760003560e01c80638da5cb5b11610081578063de5e63301161005b578063de5e6330146101ca578063ebf7a41e146101d3578063f2fde38b146101f357600080fd5b80638da5cb5b14610158578063ce7c2ac214610197578063ddeae033146101b757600080fd5b8063715018a6116100b2578063715018a61461012a57806386c011db1461013257806387983d131461014557600080fd5b806326603b95146100d95780633a98ef391461010c57806363ec512d14610115575b600080fd5b6100f96100e7366004610a0f565b60046020526000908152604090205481565b6040519081526020015b60405180910390f35b6100f960035481565b610128610123366004610a59565b610206565b005b610128610301565b610128610140366004610a30565b61038e565b610128610153366004610a30565b610506565b60005473ffffffffffffffffffffffffffffffffffffffff165b60405173ffffffffffffffffffffffffffffffffffffffff9091168152602001610103565b6100f96101a5366004610a0f565b60026020526000908152604090205481565b6101286101c5366004610a0f565b610676565b6100f960055481565b6001546101729073ffffffffffffffffffffffffffffffffffffffff1681565b610128610201366004610a0f565b610841565b60005473ffffffffffffffffffffffffffffffffffffffff16331461028c576040517f08c379a000000000000000000000000000000000000000000000000000000000815260206004820181905260248201527f4f776e61626c653a2063616c6c6572206973206e6f7420746865206f776e657260448201526064015b60405180910390fd5b6003546102a1670de0b6b3a764000083610ac2565b6102ab9190610a89565b600560008282546102bc9190610a71565b90915550506005546040805183815260208101929092527f44c8e79be0ba50742684a585db3a9db56735a204cfa14b6d54fadc2b141ebd89910160405180910390a150565b60005473ffffffffffffffffffffffffffffffffffffffff163314610382576040517f08c379a000000000000000000000000000000000000000000000000000000000815260206004820181905260248201527f4f776e61626c653a2063616c6c6572206973206e6f7420746865206f776e65726044820152606401610283565b61038c6000610971565b565b60005473ffffffffffffffffffffffffffffffffffffffff16331461040f576040517f08c379a000000000000000000000000000000000000000000000000000000000815260206004820181905260248201527f4f776e61626c653a2063616c6c6572206973206e6f7420746865206f776e65726044820152606401610283565b61041882610676565b73ffffffffffffffffffffffffffffffffffffffff82166000908152600260205260408120805483929061044d908490610a71565b9250508190555080600360008282546104669190610a71565b90915550506005546104789082610ac2565b73ffffffffffffffffffffffffffffffffffffffff8316600090815260046020526040812080549091906104ad908490610a71565b90915550506040805173ffffffffffffffffffffffffffffffffffffffff84168152602081018390527f50de8324aee226699209f9c49e31220e9e7e4f7a3d2d76060d913995cd11148e91015b60405180910390a15050565b60005473ffffffffffffffffffffffffffffffffffffffff163314610587576040517f08c379a000000000000000000000000000000000000000000000000000000000815260206004820181905260248201527f4f776e61626c653a2063616c6c6572206973206e6f7420746865206f776e65726044820152606401610283565b61059082610676565b73ffffffffffffffffffffffffffffffffffffffff8216600090815260026020526040812080548392906105c5908490610aff565b9250508190555080600360008282546105de9190610aff565b90915550506005546105f09082610ac2565b73ffffffffffffffffffffffffffffffffffffffff831660009081526004602052604081208054909190610625908490610aff565b90915550506040805173ffffffffffffffffffffffffffffffffffffffff84168152602081018390527f7f057847ef731c18392c410072b87537e1ebd5fc3ca97d90d44e23f10010e29191016104fa565b73ffffffffffffffffffffffffffffffffffffffff8116600090815260026020526040902054156106a45750565b60055473ffffffffffffffffffffffffffffffffffffffff821660009081526002602052604081205490916106d891610ac2565b73ffffffffffffffffffffffffffffffffffffffff83166000908152600460205260408120549192509061070c9083610aff565b73ffffffffffffffffffffffffffffffffffffffff8085166000908152600460205260409020849055600154919250166340c10f1984610754670de0b6b3a764000085610a89565b6040517fffffffff0000000000000000000000000000000000000000000000000000000060e085901b16815273ffffffffffffffffffffffffffffffffffffffff90921660048301526024820152604401600060405180830381600087803b1580156107bf57600080fd5b505af11580156107d3573d6000803e3d6000fd5b505050507fc15f451120b13b6b40c6ad6203614ab3088308bef9150c0d6f46ea79bf46422483670de0b6b3a76400008361080d9190610a89565b6040805173ffffffffffffffffffffffffffffffffffffffff909316835260208301919091520160405180910390a1505050565b60005473ffffffffffffffffffffffffffffffffffffffff1633146108c2576040517f08c379a000000000000000000000000000000000000000000000000000000000815260206004820181905260248201527f4f776e61626c653a2063616c6c6572206973206e6f7420746865206f776e65726044820152606401610283565b73ffffffffffffffffffffffffffffffffffffffff8116610965576040517f08c379a000000000000000000000000000000000000000000000000000000000815260206004820152602660248201527f4f776e61626c653a206e6577206f776e657220697320746865207a65726f206160448201527f64647265737300000000000000000000000000000000000000000000000000006064820152608401610283565b61096e81610971565b50565b6000805473ffffffffffffffffffffffffffffffffffffffff8381167fffffffffffffffffffffffff0000000000000000000000000000000000000000831681178455604051919092169283917f8be0079c531659141344cd1fd0a4f28419497f9722a3daafe3b4186f6b6457e09190a35050565b803573ffffffffffffffffffffffffffffffffffffffff81168114610a0a57600080fd5b919050565b600060208284031215610a20578081fd5b610a29826109e6565b9392505050565b60008060408385031215610a42578081fd5b610a4b836109e6565b946020939093013593505050565b600060208284031215610a6a578081fd5b5035919050565b60008219821115610a8457610a84610b16565b500190565b600082610abd577f4e487b710000000000000000000000000000000000000000000000000000000081526012600452602481fd5b500490565b6000817fffffffffffffffffffffffffffffffffffffffffffffffffffffffffffffffff0483118215151615610afa57610afa610b16565b500290565b600082821015610b1157610b11610b16565b500390565b7f4e487b7100000000000000000000000000000000000000000000000000000000600052601160045260246000fdfea26469706673582212200362361a644d176c48b5f6713e132ffd4a5677a4cf066f6a6284fcc978a5342564736f6c634300080400336101806040527f7120de34e4902782fcb31784e861022cac3b3f14c1533c0b400ac26d620bc8fc610140527fd3718192a7de05eaa3f3aad7ef3096c16af3f6da2a921129252c715f262c5173610160523480156200005c57600080fd5b50604051620031e7380380620031e78339810160408190526200007f9162000361565b60408051808201825260018152603160f81b60209182015288518982012060e08190527fc89efdaa54c0f20c7adf612882df0950f5a951637e0307cdcb4c672f298b8bc66101008190524660a081815285517f8b73c3c69bb8fe3d512ecc4cf759cc79239f7b179b0ffacaa9a75d522b39400f81870181905281880195909552606081810194909452608080820193909352308183018190528751808303909301835260c09182019097528151919095012090529290921b90526101205286866200014a33620001c8565b81516200015f90600490602085019062000218565b5080516200017590600590602084019062000218565b5050600980546001600160a01b039788166001600160a01b031991821617909155600b9590955550600c929092558051600d5560200151600e55600f8054919093169116179055505042600a5562000502565b600080546001600160a01b038381166001600160a01b0319831681178455604051919092169283917f8be0079c531659141344cd1fd0a4f28419497f9722a3daafe3b4186f6b6457e09190a35050565b828054620002269062000496565b90600052602060002090601f0160209004810192826200024a576000855562000295565b82601f106200026557805160ff191683800117855562000295565b8280016001018555821562000295579182015b828111156200029557825182559160200191906001019062000278565b50620002a3929150620002a7565b5090565b5b80821115620002a35760008155600101620002a8565b8051620002cb81620004e9565b919050565b600082601f830112620002e1578081fd5b81516001600160401b03811115620002fd57620002fd620004d3565b602062000313601f8301601f1916820162000463565b828152858284870101111562000327578384fd5b835b838110156200034657858101830151828201840152820162000329565b838111156200035757848385840101525b5095945050505050565b60008060008060008060008789036101008112156200037e578384fd5b88516001600160401b038082111562000395578586fd5b620003a38c838d01620002d0565b995060208b0151915080821115620003b9578586fd5b50620003c88b828c01620002d0565b9750506040890151620003db81620004e9565b60608a015160808b0151919750955093506040609f1982011215620003fe578283fd5b506200040962000438565b60a0890151815260c0890151602082015291506200042a60e08901620002be565b905092959891949750929550565b604080519081016001600160401b03811182821017156200045d576200045d620004d3565b60405290565b604051601f8201601f191681016001600160401b03811182821017156200048e576200048e620004d3565b604052919050565b600181811c90821680620004ab57607f821691505b60208210811415620004cd57634e487b7160e01b600052602260045260246000fd5b50919050565b634e487b7160e01b600052604160045260246000fd5b6001600160a01b0381168114620004ff57600080fd5b50565b60805160a05160c05160601c60e05161010051610120516101405161016051612c6e620005796000396000818161043b015261062f0152600081816104b60152610fdc01526000611943015260006119920152600061196d015260006118c6015260006118f00152600061191a0152612c6e6000f3fe608060405234801561001057600080fd5b50600436106102775760003560e01c8063715018a611610160578063acf66004116100d8578063b9844d8d1161008c578063dd62ed3e11610071578063dd62ed3e1461055a578063f2fde38b146105a0578063fc1d3de2146105b357600080fd5b8063b9844d8d14610527578063d29d729d1461054757600080fd5b8063b1a9069c116100bd578063b1a9069c146104eb578063b470aade1461050b578063b6b55f251461051457600080fd5b8063acf66004146104b1578063b0ff1106146104d857600080fd5b80638da5cb5b1161012f578063981fc37211610114578063981fc37214610483578063a457c2d71461048b578063a9059cbb1461049e57600080fd5b80638da5cb5b1461045d57806395d89b411461047b57600080fd5b8063715018a6146104135780637c5a227c1461041b5780637ecebe0014610423578063817713291461043657600080fd5b80633644e515116101f357806363ceec65116101c25780636b2f1417116101a75780636b2f1417146103b35780636eeeaaa5146103bb57806370a082311461040057600080fd5b806363ceec65146103975780636823920a146103a057600080fd5b80633644e51514610353578063395093511461035b5780633a98ef391461036e5780634473ad521461037757600080fd5b806318160ddd1161024a5780632e1a7d4d1161022f5780632e1a7d4d1461030e578063313ce56714610321578063341533d91461033057600080fd5b806318160ddd146102f357806323b872dd146102fb57600080fd5b8063061e58441461027c57806306fdde0314610291578063095ea7b3146102af578063174e4ea6146102d2575b600080fd5b61028f61028a366004612865565b6105bc565b005b610299610779565b6040516102a69190612a0f565b60405180910390f35b6102c26102bd3660046127d6565b61080b565b60405190151581526020016102a6565b6102e56102e03660046129c3565b610821565b6040519081526020016102a6565b6102e5610850565b6102c2610309366004612796565b610862565b61028f61031c3660046129c3565b61094a565b604051601281526020016102a6565b600d54600e5461033e919082565b604080519283526020830191909152016102a6565b6102e5610957565b6102c26103693660046127d6565b610961565b6102e560065481565b6102e5610385366004612742565b60076020526000908152604090205481565b6102e5600a5481565b61028f6103ae3660046128be565b6109aa565b6102c2610b01565b600f546103db9073ffffffffffffffffffffffffffffffffffffffff1681565b60405173ffffffffffffffffffffffffffffffffffffffff90911681526020016102a6565b6102e561040e366004612742565b610b51565b61028f610b86565b61033e610c13565b6102e5610431366004612742565b610cda565b6102e57f000000000000000000000000000000000000000000000000000000000000000081565b60005473ffffffffffffffffffffffffffffffffffffffff166103db565b610299610d05565b6102e5610d14565b6102c26104993660046127d6565b610dd2565b6102c26104ac3660046127d6565b610eaa565b6102e57f000000000000000000000000000000000000000000000000000000000000000081565b6102e56104e63660046129c3565b610eb7565b6009546103db9073ffffffffffffffffffffffffffffffffffffffff1681565b6102e5600b5481565b61028f6105223660046129c3565b610ed4565b6102e5610535366004612742565b60086020526000908152604090205481565b61028f610555366004612801565b610ede565b6102e561056836600461275e565b73ffffffffffffffffffffffffffffffffffffffff918216600090815260026020908152604080832093909416825291909152205490565b61028f6105ae366004612742565b611127565b6102e5600c5481565b8342111561062b576040517f08c379a000000000000000000000000000000000000000000000000000000000815260206004820152601760248201527f5661756c743a206578706972656420646561646c696e6500000000000000000060448201526064015b60405180910390fd5b60007f000000000000000000000000000000000000000000000000000000000000000087878761065a8b611254565b60408051602081019690965273ffffffffffffffffffffffffffffffffffffffff909416938501939093526060840191909152608083015260a082015260c00160405160208183030381529060405280519060200120905060006106bd82611289565b905060006106cd828787876112f2565b90508873ffffffffffffffffffffffffffffffffffffffff168173ffffffffffffffffffffffffffffffffffffffff1614610764576040517f08c379a000000000000000000000000000000000000000000000000000000000815260206004820152601860248201527f5661756c743a20696e76616c6964207369676e617475726500000000000000006044820152606401610622565b61076e898961131a565b505050505050505050565b60606004805461078890612b31565b80601f01602080910402602001604051908101604052809291908181526020018280546107b490612b31565b80156108015780601f106107d657610100808354040283529160200191610801565b820191906000526020600020905b8154815290600101906020018083116107e457829003601f168201915b5050505050905090565b6000610818338484611435565b50600192915050565b600080600061082e610c13565b90925090508061083e8386612ab1565b6108489190612a78565b949350505050565b600061085d600654610821565b905090565b600061086f8484846115e9565b73ffffffffffffffffffffffffffffffffffffffff8416600090815260026020908152604080832033845290915290205482811015610930576040517f08c379a000000000000000000000000000000000000000000000000000000000815260206004820152602860248201527f45524332303a207472616e7366657220616d6f756e742065786365656473206160448201527f6c6c6f77616e63650000000000000000000000000000000000000000000000006064820152608401610622565b61093d8533858403611435565b60019150505b9392505050565b610954338261131a565b50565b600061085d6118ac565b33600081815260026020908152604080832073ffffffffffffffffffffffffffffffffffffffff8716845290915281205490916108189185906109a5908690612a60565b611435565b6109b2610b01565b610a3e576040517f08c379a000000000000000000000000000000000000000000000000000000000815260206004820152603660248201527f5661756c743a2043616e6e6f742072656465656d207768656e206f757473696460448201527f65206f6620656e7465722f657869742077696e646f77000000000000000000006064820152608401610622565b60005b8151811015610afd57818181518110610a83577f4e487b7100000000000000000000000000000000000000000000000000000000600052603260045260246000fd5b602002602001015173ffffffffffffffffffffffffffffffffffffffff1663be040fb06040518163ffffffff1660e01b8152600401600060405180830381600087803b158015610ad257600080fd5b505af1158015610ae6573d6000803e3d6000fd5b505050508080610af590612b7f565b915050610a41565b5050565b600080600b54600a5442610b159190612aee565b610b1f9190612a78565b905042600c54600a54600b5484610b369190612ab1565b610b409190612a60565b610b4a9190612a60565b1191505090565b73ffffffffffffffffffffffffffffffffffffffff8116600090815260076020526040812054610b8090610821565b92915050565b60005473ffffffffffffffffffffffffffffffffffffffff163314610c07576040517f08c379a000000000000000000000000000000000000000000000000000000000815260206004820181905260248201527f4f776e61626c653a2063616c6c6572206973206e6f7420746865206f776e65726044820152606401610622565b610c1160006119e0565b565b6009546040517f70a08231000000000000000000000000000000000000000000000000000000008152306004820152600091829173ffffffffffffffffffffffffffffffffffffffff909116906370a082319060240160206040518083038186803b158015610c8157600080fd5b505afa158015610c95573d6000803e3d6000fd5b505050506040513d601f19601f82011682018060405250810190610cb991906129db565b915060065490508160001415610cce57600191505b80610cd65750805b9091565b73ffffffffffffffffffffffffffffffffffffffff8116600090815260086020526040812054610b80565b60606005805461078890612b31565b600e54600d546009546040517f70a08231000000000000000000000000000000000000000000000000000000008152306004820152600093929173ffffffffffffffffffffffffffffffffffffffff16906370a082319060240160206040518083038186803b158015610d8657600080fd5b505afa158015610d9a573d6000803e3d6000fd5b505050506040513d601f19601f82011682018060405250810190610dbe91906129db565b610dc89190612ab1565b61085d9190612a78565b33600090815260026020908152604080832073ffffffffffffffffffffffffffffffffffffffff8616845290915281205482811015610e93576040517f08c379a000000000000000000000000000000000000000000000000000000000815260206004820152602560248201527f45524332303a2064656372656173656420616c6c6f77616e63652062656c6f7760448201527f207a65726f0000000000000000000000000000000000000000000000000000006064820152608401610622565b610ea03385858403611435565b5060019392505050565b60006108183384846115e9565b6000806000610ec4610c13565b90925090508161083e8286612ab1565b6109543382611a55565b83421115610f48576040517f08c379a000000000000000000000000000000000000000000000000000000000815260206004820152601760248201527f5661756c743a206578706972656420646561646c696e650000000000000000006044820152606401610622565b84861115610fd8576040517f08c379a000000000000000000000000000000000000000000000000000000000815260206004820152603460248201527f5661756c743a20616d6f756e74206d757374206265206c657373207468616e2060448201527f617574686f72697a6564206d6178416d6f756e740000000000000000000000006064820152608401610622565b60007f00000000000000000000000000000000000000000000000000000000000000008887876110078c611254565b60408051602081019690965273ffffffffffffffffffffffffffffffffffffffff909416938501939093526060840191909152608083015260a082015260c001604051602081830303815290604052805190602001209050600061106a82611289565b9050600061107a828787876112f2565b90508973ffffffffffffffffffffffffffffffffffffffff168173ffffffffffffffffffffffffffffffffffffffff1614611111576040517f08c379a000000000000000000000000000000000000000000000000000000000815260206004820152601860248201527f5661756c743a20696e76616c6964207369676e617475726500000000000000006044820152606401610622565b61111b8a8a611a55565b50505050505050505050565b60005473ffffffffffffffffffffffffffffffffffffffff1633146111a8576040517f08c379a000000000000000000000000000000000000000000000000000000000815260206004820181905260248201527f4f776e61626c653a2063616c6c6572206973206e6f7420746865206f776e65726044820152606401610622565b73ffffffffffffffffffffffffffffffffffffffff811661124b576040517f08c379a000000000000000000000000000000000000000000000000000000000815260206004820152602660248201527f4f776e61626c653a206e6577206f776e657220697320746865207a65726f206160448201527f64647265737300000000000000000000000000000000000000000000000000006064820152608401610622565b610954816119e0565b73ffffffffffffffffffffffffffffffffffffffff811660009081526008602052604090208054600181018255905b50919050565b6000610b806112966118ac565b836040517f19010000000000000000000000000000000000000000000000000000000000006020820152602281018390526042810182905260009060620160405160208183030381529060405280519060200120905092915050565b600080600061130387878787611c38565b9150915061131081611d50565b5095945050505050565b611322610b01565b6113ae576040517f08c379a000000000000000000000000000000000000000000000000000000000815260206004820152603a60248201527f5661756c743a2043616e6e6f742065786974207661756c74207768656e206f7560448201527f7473696465206f6620656e7465722f657869742077696e646f770000000000006064820152608401610622565b80156113be576113be828261206c565b6009546113e29073ffffffffffffffffffffffffffffffffffffffff163383612266565b6040805173ffffffffffffffffffffffffffffffffffffffff84168152602081018390527f884edad9ce6fa2440d8a54cc123490eb96d2768479d49ff9c7366125a9424364910160405180910390a15050565b73ffffffffffffffffffffffffffffffffffffffff83166114d7576040517f08c379a0000000000000000000000000000000000000000000000000000000008152602060048201526024808201527f45524332303a20617070726f76652066726f6d20746865207a65726f2061646460448201527f72657373000000000000000000000000000000000000000000000000000000006064820152608401610622565b73ffffffffffffffffffffffffffffffffffffffff821661157a576040517f08c379a000000000000000000000000000000000000000000000000000000000815260206004820152602260248201527f45524332303a20617070726f766520746f20746865207a65726f20616464726560448201527f73730000000000000000000000000000000000000000000000000000000000006064820152608401610622565b73ffffffffffffffffffffffffffffffffffffffff83811660008181526002602090815260408083209487168084529482529182902085905590518481527f8c5be1e5ebec7d5bd14f71427d1e84f3dd0314c0f7b2291e5b200ac8c7c3b92591015b60405180910390a3505050565b73ffffffffffffffffffffffffffffffffffffffff831661168c576040517f08c379a000000000000000000000000000000000000000000000000000000000815260206004820152602560248201527f45524332303a207472616e736665722066726f6d20746865207a65726f20616460448201527f64726573730000000000000000000000000000000000000000000000000000006064820152608401610622565b73ffffffffffffffffffffffffffffffffffffffff821661172f576040517f08c379a000000000000000000000000000000000000000000000000000000000815260206004820152602360248201527f45524332303a207472616e7366657220746f20746865207a65726f206164647260448201527f65737300000000000000000000000000000000000000000000000000000000006064820152608401610622565b73ffffffffffffffffffffffffffffffffffffffff83166000908152600760205260408120549061175f83610eb7565b9050808210156117f1576040517f08c379a000000000000000000000000000000000000000000000000000000000815260206004820152602660248201527f45524332303a207472616e7366657220616d6f756e742065786365656473206260448201527f616c616e636500000000000000000000000000000000000000000000000000006064820152608401610622565b73ffffffffffffffffffffffffffffffffffffffff8086166000908152600760205260408082208054859003905591861681529081208054839290611837908490612a60565b925050819055508373ffffffffffffffffffffffffffffffffffffffff168573ffffffffffffffffffffffffffffffffffffffff167fddf252ad1be2c89b69c2b068fc378daa952ba7f163c4a11628f55a4df523b3ef8560405161189d91815260200190565b60405180910390a35050505050565b60003073ffffffffffffffffffffffffffffffffffffffff7f00000000000000000000000000000000000000000000000000000000000000001614801561191257507f000000000000000000000000000000000000000000000000000000000000000046145b1561193c57507f000000000000000000000000000000000000000000000000000000000000000090565b50604080517f00000000000000000000000000000000000000000000000000000000000000006020808301919091527f0000000000000000000000000000000000000000000000000000000000000000828401527f000000000000000000000000000000000000000000000000000000000000000060608301524660808301523060a0808401919091528351808403909101815260c0909201909252805191012090565b6000805473ffffffffffffffffffffffffffffffffffffffff8381167fffffffffffffffffffffffff0000000000000000000000000000000000000000831681178455604051919092169283917f8be0079c531659141344cd1fd0a4f28419497f9722a3daafe3b4186f6b6457e09190a35050565b611a5d610b01565b611ae9576040517f08c379a000000000000000000000000000000000000000000000000000000000815260206004820152603a60248201527f5661756c743a2043616e6e6f74206a6f696e207661756c74207768656e206f7560448201527f7473696465206f6620656e7465722f657869742077696e646f770000000000006064820152608401610622565b600f54600a54600b546040517f07e7cc270000000000000000000000000000000000000000000000000000000081526004810192909252602482015230604482015260009173ffffffffffffffffffffffffffffffffffffffff16906307e7cc279060640160206040518083038186803b158015611b6657600080fd5b505afa158015611b7a573d6000803e3d6000fd5b505050506040513d601f19601f82011682018060405250810190611b9e91906129db565b90506000611bac8284612aee565b90508215611be357611bbe848261233f565b600954611be39073ffffffffffffffffffffffffffffffffffffffff16853086612465565b6040805173ffffffffffffffffffffffffffffffffffffffff86168152602081018590527fe1fffcc4923d04b559f4d29a8bfc6cda04eb5b0d3c460751c2402c5c5cc9109c910160405180910390a150505050565b6000807f7fffffffffffffffffffffffffffffff5d576e7357a4501ddfe92f46681b20a0831115611c6f5750600090506003611d47565b8460ff16601b14158015611c8757508460ff16601c14155b15611c985750600090506004611d47565b6040805160008082526020820180845289905260ff881692820192909252606081018690526080810185905260019060a0016020604051602081039080840390855afa158015611cec573d6000803e3d6000fd5b50506040517fffffffffffffffffffffffffffffffffffffffffffffffffffffffffffffffe0015191505073ffffffffffffffffffffffffffffffffffffffff8116611d4057600060019250925050611d47565b9150600090505b94509492505050565b6000816004811115611d8b577f4e487b7100000000000000000000000000000000000000000000000000000000600052602160045260246000fd5b1415611d945750565b6001816004811115611dcf577f4e487b7100000000000000000000000000000000000000000000000000000000600052602160045260246000fd5b1415611e37576040517f08c379a000000000000000000000000000000000000000000000000000000000815260206004820152601860248201527f45434453413a20696e76616c6964207369676e617475726500000000000000006044820152606401610622565b6002816004811115611e72577f4e487b7100000000000000000000000000000000000000000000000000000000600052602160045260246000fd5b1415611eda576040517f08c379a000000000000000000000000000000000000000000000000000000000815260206004820152601f60248201527f45434453413a20696e76616c6964207369676e6174757265206c656e677468006044820152606401610622565b6003816004811115611f15577f4e487b7100000000000000000000000000000000000000000000000000000000600052602160045260246000fd5b1415611fa3576040517f08c379a000000000000000000000000000000000000000000000000000000000815260206004820152602260248201527f45434453413a20696e76616c6964207369676e6174757265202773272076616c60448201527f75650000000000000000000000000000000000000000000000000000000000006064820152608401610622565b6004816004811115611fde577f4e487b7100000000000000000000000000000000000000000000000000000000600052602160045260246000fd5b1415610954576040517f08c379a000000000000000000000000000000000000000000000000000000000815260206004820152602260248201527f45434453413a20696e76616c6964207369676e6174757265202776272076616c60448201527f75650000000000000000000000000000000000000000000000000000000000006064820152608401610622565b73ffffffffffffffffffffffffffffffffffffffff821661210f576040517f08c379a000000000000000000000000000000000000000000000000000000000815260206004820152602160248201527f45524332303a206275726e2066726f6d20746865207a65726f2061646472657360448201527f73000000000000000000000000000000000000000000000000000000000000006064820152608401610622565b73ffffffffffffffffffffffffffffffffffffffff82166000908152600760205260408120549061213f83610eb7565b9050808210156121d1576040517f08c379a000000000000000000000000000000000000000000000000000000000815260206004820152602260248201527f45524332303a206275726e20616d6f756e7420657863656564732062616c616e60448201527f63650000000000000000000000000000000000000000000000000000000000006064820152608401610622565b73ffffffffffffffffffffffffffffffffffffffff8416600090815260076020526040812082840390556006805483929061220d908490612aee565b909155505060405183815260009073ffffffffffffffffffffffffffffffffffffffff8616907fddf252ad1be2c89b69c2b068fc378daa952ba7f163c4a11628f55a4df523b3ef9060200160405180910390a350505050565b60405173ffffffffffffffffffffffffffffffffffffffff831660248201526044810182905261233a9084907fa9059cbb00000000000000000000000000000000000000000000000000000000906064015b604080517fffffffffffffffffffffffffffffffffffffffffffffffffffffffffffffffe08184030181529190526020810180517bffffffffffffffffffffffffffffffffffffffffffffffffffffffff167fffffffff00000000000000000000000000000000000000000000000000000000909316929092179091526124c9565b505050565b73ffffffffffffffffffffffffffffffffffffffff82166123bc576040517f08c379a000000000000000000000000000000000000000000000000000000000815260206004820152601f60248201527f45524332303a206d696e7420746f20746865207a65726f2061646472657373006044820152606401610622565b60006123c782610eb7565b905080600660008282546123db9190612a60565b909155505073ffffffffffffffffffffffffffffffffffffffff831660009081526007602052604081208054839290612415908490612a60565b909155505060405182815273ffffffffffffffffffffffffffffffffffffffff8416906000907fddf252ad1be2c89b69c2b068fc378daa952ba7f163c4a11628f55a4df523b3ef906020016115dc565b60405173ffffffffffffffffffffffffffffffffffffffff808516602483015283166044820152606481018290526124c39085907f23b872dd00000000000000000000000000000000000000000000000000000000906084016122b8565b50505050565b600061252b826040518060400160405280602081526020017f5361666545524332303a206c6f772d6c6576656c2063616c6c206661696c65648152508573ffffffffffffffffffffffffffffffffffffffff166125d59092919063ffffffff16565b80519091501561233a578080602001905181019061254991906129a3565b61233a576040517f08c379a000000000000000000000000000000000000000000000000000000000815260206004820152602a60248201527f5361666545524332303a204552433230206f7065726174696f6e20646964206e60448201527f6f742073756363656564000000000000000000000000000000000000000000006064820152608401610622565b6060610848848460008585843b612648576040517f08c379a000000000000000000000000000000000000000000000000000000000815260206004820152601d60248201527f416464726573733a2063616c6c20746f206e6f6e2d636f6e74726163740000006044820152606401610622565b6000808673ffffffffffffffffffffffffffffffffffffffff16858760405161267191906129f3565b60006040518083038185875af1925050503d80600081146126ae576040519150601f19603f3d011682016040523d82523d6000602084013e6126b3565b606091505b50915091506126c38282866126ce565b979650505050505050565b606083156126dd575081610943565b8251156126ed5782518084602001fd5b816040517f08c379a00000000000000000000000000000000000000000000000000000000081526004016106229190612a0f565b803561272c81612c16565b919050565b803560ff8116811461272c57600080fd5b600060208284031215612753578081fd5b813561094381612c16565b60008060408385031215612770578081fd5b823561277b81612c16565b9150602083013561278b81612c16565b809150509250929050565b6000806000606084860312156127aa578081fd5b83356127b581612c16565b925060208401356127c581612c16565b929592945050506040919091013590565b600080604083850312156127e8578182fd5b82356127f381612c16565b946020939093013593505050565b600080600080600080600060e0888a03121561281b578283fd5b873561282681612c16565b965060208801359550604088013594506060880135935061284960808901612731565b925060a0880135915060c0880135905092959891949750929550565b60008060008060008060c0878903121561287d578182fd5b863561288881612c16565b955060208701359450604087013593506128a460608801612731565b92506080870135915060a087013590509295509295509295565b600060208083850312156128d0578182fd5b823567ffffffffffffffff808211156128e7578384fd5b818501915085601f8301126128fa578384fd5b81358181111561290c5761290c612be7565b8060051b6040517fffffffffffffffffffffffffffffffffffffffffffffffffffffffffffffffe0603f8301168101818110858211171561294f5761294f612be7565b604052828152858101935084860182860187018a101561296d578788fd5b8795505b838610156129965761298281612721565b855260019590950194938601938601612971565b5098975050505050505050565b6000602082840312156129b4578081fd5b81518015158114610943578182fd5b6000602082840312156129d4578081fd5b5035919050565b6000602082840312156129ec578081fd5b5051919050565b60008251612a05818460208701612b05565b9190910192915050565b6020815260008251806020840152612a2e816040850160208701612b05565b601f017fffffffffffffffffffffffffffffffffffffffffffffffffffffffffffffffe0169190910160400192915050565b60008219821115612a7357612a73612bb8565b500190565b600082612aac577f4e487b710000000000000000000000000000000000000000000000000000000081526012600452602481fd5b500490565b6000817fffffffffffffffffffffffffffffffffffffffffffffffffffffffffffffffff0483118215151615612ae957612ae9612bb8565b500290565b600082821015612b0057612b00612bb8565b500390565b60005b83811015612b20578181015183820152602001612b08565b838111156124c35750506000910152565b600181811c90821680612b4557607f821691505b60208210811415611283577f4e487b7100000000000000000000000000000000000000000000000000000000600052602260045260246000fd5b60007fffffffffffffffffffffffffffffffffffffffffffffffffffffffffffffffff821415612bb157612bb1612bb8565b5060010190565b7f4e487b7100000000000000000000000000000000000000000000000000000000600052601160045260246000fd5b7f4e487b7100000000000000000000000000000000000000000000000000000000600052604160045260246000fd5b73ffffffffffffffffffffffffffffffffffffffff8116811461095457600080fdfea2646970667358221220832056fcc6e8effb3c0630864023cda5e15af79e6b9ea246c30a337894e7221f64736f6c63430008040033a26469706673582212207fc76976420d8d4376fbf87d07a91b96b3b731b13b8180b687dadb5653884a1664736f6c63430008040033",
  "linkReferences": {},
  "deployedLinkReferences": {}
}