{
  "_format": "hh-sol-artifact-1",
  "contractName": "OpsManager",
  "sourceName": "contracts/core/OpsManager.sol",
  "abi": [
    {
      "inputs": [
        {
          "internalType": "contract IERC20",
          "name": "_templeToken",
          "type": "address"
        },
        {
          "internalType": "contract JoiningFee",
          "name": "_joiningFee",
          "type": "address"
        }
      ],
      "stateMutability": "nonpayable",
      "type": "constructor"
    },
    {
      "anonymous": false,
      "inputs": [
        {
          "indexed": false,
          "internalType": "address",
          "name": "exposure",
          "type": "address"
        },
        {
          "indexed": false,
          "internalType": "address",
          "name": "primaryRevenue",
          "type": "address"
        }
      ],
      "name": "CreateExposure",
      "type": "event"
    },
    {
      "anonymous": false,
      "inputs": [
        {
          "indexed": false,
          "internalType": "address",
          "name": "vault",
          "type": "address"
        }
      ],
      "name": "CreateVaultInstance",
      "type": "event"
    },
    {
      "anonymous": false,
      "inputs": [
        {
          "indexed": true,
          "internalType": "address",
          "name": "previousOwner",
          "type": "address"
        },
        {
          "indexed": true,
          "internalType": "address",
          "name": "newOwner",
          "type": "address"
        }
      ],
      "name": "OwnershipTransferred",
      "type": "event"
    },
    {
      "inputs": [
        {
          "internalType": "address",
          "name": "",
          "type": "address"
        }
      ],
      "name": "activeVaults",
      "outputs": [
        {
          "internalType": "bool",
          "name": "",
          "type": "bool"
        }
      ],
      "stateMutability": "view",
      "type": "function"
    },
    {
      "inputs": [
        {
          "internalType": "contract IERC20[]",
          "name": "exposureTokens",
          "type": "address[]"
        },
        {
          "internalType": "uint256[]",
          "name": "amounts",
          "type": "uint256[]"
        }
      ],
      "name": "addRevenue",
      "outputs": [],
      "stateMutability": "nonpayable",
      "type": "function"
    },
    {
      "inputs": [
        {
          "internalType": "string",
          "name": "name",
          "type": "string"
        },
        {
          "internalType": "string",
          "name": "symbol",
          "type": "string"
        },
        {
          "internalType": "contract IERC20",
          "name": "revalToken",
          "type": "address"
        }
      ],
      "name": "createExposure",
      "outputs": [],
      "stateMutability": "nonpayable",
      "type": "function"
    },
    {
      "inputs": [
        {
          "internalType": "string",
          "name": "name",
          "type": "string"
        },
        {
          "internalType": "string",
          "name": "symbol",
          "type": "string"
        },
        {
          "internalType": "uint256",
          "name": "periodDuration",
          "type": "uint256"
        },
        {
          "internalType": "uint256",
          "name": "enterExitWindowDuration",
          "type": "uint256"
        },
        {
          "components": [
            {
              "internalType": "uint256",
              "name": "p",
              "type": "uint256"
            },
            {
              "internalType": "uint256",
              "name": "q",
              "type": "uint256"
            }
          ],
          "internalType": "struct Rational",
          "name": "shareBoostFactory",
          "type": "tuple"
        },
        {
          "internalType": "uint256",
          "name": "firstPeriodStartTimestamp",
          "type": "uint256"
        }
      ],
      "name": "createVaultInstance",
      "outputs": [],
      "stateMutability": "nonpayable",
      "type": "function"
    },
    {
      "inputs": [
        {
          "internalType": "contract Vault[]",
          "name": "vaults",
          "type": "address[]"
        },
        {
          "internalType": "uint256",
          "name": "delta",
          "type": "uint256"
        }
      ],
      "name": "decreaseStartTime",
      "outputs": [],
      "stateMutability": "nonpayable",
      "type": "function"
    },
    {
      "inputs": [
        {
          "internalType": "contract Vault[]",
          "name": "vaults",
          "type": "address[]"
        },
        {
          "internalType": "uint256[]",
          "name": "amountsTemple",
          "type": "uint256[]"
        }
      ],
      "name": "increaseVaultTemple",
      "outputs": [],
      "stateMutability": "nonpayable",
      "type": "function"
    },
    {
      "inputs": [],
      "name": "joiningFee",
      "outputs": [
        {
          "internalType": "contract JoiningFee",
          "name": "",
          "type": "address"
        }
      ],
      "stateMutability": "view",
      "type": "function"
    },
    {
      "inputs": [
        {
          "internalType": "contract Vault[]",
          "name": "vaults",
          "type": "address[]"
        },
        {
          "internalType": "contract IERC20[]",
          "name": "exposureTokens",
          "type": "address[]"
        }
      ],
      "name": "liquidateExposures",
      "outputs": [],
      "stateMutability": "nonpayable",
      "type": "function"
    },
    {
      "inputs": [],
      "name": "owner",
      "outputs": [
        {
          "internalType": "address",
          "name": "",
          "type": "address"
        }
      ],
      "stateMutability": "view",
      "type": "function"
    },
    {
      "inputs": [
        {
          "internalType": "contract IERC20",
          "name": "",
          "type": "address"
        }
      ],
      "name": "pools",
      "outputs": [
        {
          "internalType": "contract TreasuryFarmingRevenue",
          "name": "",
          "type": "address"
        }
      ],
      "stateMutability": "view",
      "type": "function"
    },
    {
      "inputs": [
        {
          "internalType": "contract Vault[]",
          "name": "vaults",
          "type": "address[]"
        },
        {
          "internalType": "contract IERC20",
          "name": "exposureToken",
          "type": "address"
        }
      ],
      "name": "rebalance",
      "outputs": [],
      "stateMutability": "nonpayable",
      "type": "function"
    },
    {
      "inputs": [],
      "name": "renounceOwnership",
      "outputs": [],
      "stateMutability": "nonpayable",
      "type": "function"
    },
    {
      "inputs": [
        {
          "internalType": "contract Vault[]",
          "name": "vaults",
          "type": "address[]"
        },
        {
          "internalType": "contract IERC20",
          "name": "exposureToken",
          "type": "address"
        }
      ],
      "name": "requiresRebalance",
      "outputs": [
        {
          "internalType": "bool[]",
          "name": "",
          "type": "bool[]"
        }
      ],
      "stateMutability": "view",
      "type": "function"
    },
    {
      "inputs": [
        {
          "internalType": "uint256",
          "name": "",
          "type": "uint256"
        }
      ],
      "name": "revalTokens",
      "outputs": [
        {
          "internalType": "address",
          "name": "",
          "type": "address"
        }
      ],
      "stateMutability": "view",
      "type": "function"
    },
    {
      "inputs": [],
      "name": "templeExposure",
      "outputs": [
        {
          "internalType": "contract Exposure",
          "name": "",
          "type": "address"
        }
      ],
      "stateMutability": "view",
      "type": "function"
    },
    {
      "inputs": [],
      "name": "templeToken",
      "outputs": [
        {
          "internalType": "contract IERC20",
          "name": "",
          "type": "address"
        }
      ],
      "stateMutability": "view",
      "type": "function"
    },
    {
      "inputs": [
        {
          "internalType": "address",
          "name": "newOwner",
          "type": "address"
        }
      ],
      "name": "transferOwnership",
      "outputs": [],
      "stateMutability": "nonpayable",
      "type": "function"
    },
    {
      "inputs": [
        {
          "internalType": "contract IERC20[]",
          "name": "exposureTokens",
          "type": "address[]"
        },
        {
          "internalType": "uint256[]",
          "name": "revals",
          "type": "uint256[]"
        }
      ],
      "name": "updateExposureReval",
      "outputs": [],
      "stateMutability": "nonpayable",
      "type": "function"
    },
    {
      "inputs": [],
      "name": "vaultedTemple",
      "outputs": [
        {
          "internalType": "contract VaultedTemple",
          "name": "",
          "type": "address"
        }
      ],
      "stateMutability": "view",
      "type": "function"
    }
  ],
  "bytecode": "0x60a06040523480156200001157600080fd5b50604051620088083803806200880883398101604081905262000034916200024a565b6200003f33620001de565b606082901b6001600160601b031916608052600580546001600160a01b0319166001600160a01b038316179055604051829030906200007e906200022e565b6080808252600e908201526d7661756c7465642074656d706c6560901b60a082015260c06020820181905260089082015267565f54454d504c4560c01b60e08201526001600160a01b0392831660408201529116606082015261010001604051809103906000f080158015620000f8573d6000803e3d6000fd5b50600680546001600160a01b0319166001600160a01b0392909216918217905560405183919062000129906200023c565b6001600160a01b03928316815291166020820152604001604051809103906000f0801580156200015d573d6000803e3d6000fd5b50600780546001600160a01b0319166001600160a01b0392831690811790915560065460405163ae85d64160e01b815260048101929092529091169063ae85d64190602401600060405180830381600087803b158015620001bd57600080fd5b505af1158015620001d2573d6000803e3d6000fd5b505050505050620002a1565b600080546001600160a01b038381166001600160a01b0319831681178455604051919092169283917f8be0079c531659141344cd1fd0a4f28419497f9722a3daafe3b4186f6b6457e09190a35050565b611e638062005d6f83390190565b610c368062007bd283390190565b600080604083850312156200025d578182fd5b82516200026a8162000288565b60208401519092506200027d8162000288565b809150509250929050565b6001600160a01b03811681146200029e57600080fd5b50565b60805160601c615aa8620002c7600039600081816103940152610c220152615aa86000f3fe60806040523480156200001157600080fd5b50600436106200016c5760003560e01c806389ce1a3111620000dd578063a4063dbc116200008b578063aa5220f8116200006e578063aa5220f81462000377578063b1a9069c146200038e578063f2fde38b14620003b657600080fd5b8063a4063dbc1462000327578063a7cd2a95146200036057600080fd5b80638ccf2e9a11620000c05780638ccf2e9a14620002da5780638da5cb5b14620002f15780639d10ab8a146200031057600080fd5b806389ce1a3114620002a25780638bc1437b14620002b957600080fd5b80636bacd593116200013b578063715018a6116200011e578063715018a6146200023b5780638142fc3e146200024557806387cc5f79146200026b57600080fd5b80636bacd59314620002035780636eeeaaa5146200021a57600080fd5b80632ce8cfbf146200017157806345e99ecc146200018a5780634d420cf514620001a1578063558d9f1814620001ec575b600080fd5b6200018862000182366004620022b7565b620003cd565b005b620001886200019b3660046200230d565b620006a9565b600754620001c29073ffffffffffffffffffffffffffffffffffffffff1681565b60405173ffffffffffffffffffffffffffffffffffffffff90911681526020015b60405180910390f35b62000188620001fd366004620021b8565b62000900565b6200018862000214366004620023f1565b62000b8a565b600554620001c29073ffffffffffffffffffffffffffffffffffffffff1681565b6200018862000e21565b6200025c62000256366004620022b7565b62000eb2565b604051620001e3919062002566565b620002916200027c366004620020ef565b60036020526000908152604090205460ff1681565b6040519015158152602001620001e3565b62000188620002b3366004620021b8565b62000fae565b600654620001c29073ffffffffffffffffffffffffffffffffffffffff1681565b62000188620002eb3660046200227e565b62001462565b60005473ffffffffffffffffffffffffffffffffffffffff16620001c2565b620001c262000321366004620024c8565b62001733565b620001c262000338366004620020ef565b60016020526000908152604090205473ffffffffffffffffffffffffffffffffffffffff1681565b620001886200037136600462002220565b6200176b565b620001886200038836600462002373565b62001b59565b620001c27f000000000000000000000000000000000000000000000000000000000000000081565b62000188620003c7366004620020ef565b62001d51565b73ffffffffffffffffffffffffffffffffffffffff8181166000908152600160205260409020541662000487576040517f08c379a000000000000000000000000000000000000000000000000000000000815260206004820152603a60248201527f4e6f206578706f737572652f726576656e7565206661726d696e6720706f6f6c60448201527f20666f722074686520676976656e20455243323020546f6b656e00000000000060648201526084015b60405180910390fd5b60005b8251811015620006a45760036000848381518110620004d2577f4e487b7100000000000000000000000000000000000000000000000000000000600052603260045260246000fd5b60209081029190910181015173ffffffffffffffffffffffffffffffffffffffff1682528101919091526040016000205460ff1662000594576040517f08c379a000000000000000000000000000000000000000000000000000000000815260206004820152603660248201527f4661726d696e67526576656e75654d616e616765723a20696e76616c69642f6960448201527f6e616374697665207661756c7420696e2061727261790000000000000000000060648201526084016200047e565b73__$c588408e34393e9644b73b59296e6d3047$__63789654b9848381518110620005e8577f4e487b7100000000000000000000000000000000000000000000000000000000600052603260045260246000fd5b60209081029190910181015173ffffffffffffffffffffffffffffffffffffffff8681166000908152600190935260409283902054925160e085901b7fffffffff00000000000000000000000000000000000000000000000000000000168152918116600483015291909116602482015260440160006040518083038186803b1580156200067557600080fd5b505af41580156200068a573d6000803e3d6000fd5b5050505080806200069b906200281c565b9150506200048a565b505050565b60005473ffffffffffffffffffffffffffffffffffffffff1633146200072c576040517f08c379a000000000000000000000000000000000000000000000000000000000815260206004820181905260248201527f4f776e61626c653a2063616c6c6572206973206e6f7420746865206f776e657260448201526064016200047e565b60005b8251811015620006a4576003600084838151811062000777577f4e487b7100000000000000000000000000000000000000000000000000000000600052603260045260246000fd5b60209081029190910181015173ffffffffffffffffffffffffffffffffffffffff1682528101919091526040016000205460ff1662000839576040517f08c379a000000000000000000000000000000000000000000000000000000000815260206004820152603660248201527f4661726d696e67526576656e75654d616e616765723a20696e76616c69642f6960448201527f6e616374697665207661756c7420696e2061727261790000000000000000000060648201526084016200047e565b82818151811062000873577f4e487b7100000000000000000000000000000000000000000000000000000000600052603260045260246000fd5b602002602001015173ffffffffffffffffffffffffffffffffffffffff16633c58c877836040518263ffffffff1660e01b8152600401620008b691815260200190565b600060405180830381600087803b158015620008d157600080fd5b505af1158015620008e6573d6000803e3d6000fd5b505050508080620008f7906200281c565b9150506200072f565b60005473ffffffffffffffffffffffffffffffffffffffff16331462000983576040517f08c379a000000000000000000000000000000000000000000000000000000000815260206004820181905260248201527f4f776e61626c653a2063616c6c6572206973206e6f7420746865206f776e657260448201526064016200047e565b805182511462000a16576040517f08c379a000000000000000000000000000000000000000000000000000000000815260206004820152603360248201527f4578706f737572657320616e6420616d6f756e7473206172726179206d75737460448201527f206265207468652073616d65206c656e6774680000000000000000000000000060648201526084016200047e565b60005b8251811015620006a4576001600084838151811062000a61577f4e487b7100000000000000000000000000000000000000000000000000000000600052603260045260246000fd5b602002602001015173ffffffffffffffffffffffffffffffffffffffff1673ffffffffffffffffffffffffffffffffffffffff16815260200190815260200160002060009054906101000a900473ffffffffffffffffffffffffffffffffffffffff1673ffffffffffffffffffffffffffffffffffffffff166363ec512d83838151811062000b19577f4e487b7100000000000000000000000000000000000000000000000000000000600052603260045260246000fd5b60200260200101516040518263ffffffff1660e01b815260040162000b4091815260200190565b600060405180830381600087803b15801562000b5b57600080fd5b505af115801562000b70573d6000803e3d6000fd5b50505050808062000b81906200281c565b91505062000a19565b60005473ffffffffffffffffffffffffffffffffffffffff16331462000c0d576040517f08c379a000000000000000000000000000000000000000000000000000000000815260206004820181905260248201527f4f776e61626c653a2063616c6c6572206973206e6f7420746865206f776e657260448201526064016200047e565b6006546007546005546040516000938a938a937f00000000000000000000000000000000000000000000000000000000000000009373ffffffffffffffffffffffffffffffffffffffff93841693928316928c928c928c92909116908b9062000c769062001efc565b62000c8b9a9998979695949392919062002677565b604051809103906000f08015801562000ca8573d6000803e3d6000fd5b5073ffffffffffffffffffffffffffffffffffffffff81811660008181526003602052604080822080547fffffffffffffffffffffffffffffffffffffffffffffffffffffffffffffff00166001908117909155600480548083018255938190527f8a35acfbc15ff81a39ae7d344fd709f28e8600b4aa8c65c6b64bfe7fe36bd19b90930180547fffffffffffffffffffffffff0000000000000000000000000000000000000000168517905560065491517fa746f93a000000000000000000000000000000000000000000000000000000008152928301939093526024820192909252929350169063a746f93a90604401600060405180830381600087803b15801562000db557600080fd5b505af115801562000dca573d6000803e3d6000fd5b505060405173ffffffffffffffffffffffffffffffffffffffff841681527ff7d22e822fc5be306576f8f850c78d7957f332e493ceffa7ef2714b4e44aceac9250602001905060405180910390a150505050505050565b60005473ffffffffffffffffffffffffffffffffffffffff16331462000ea4576040517f08c379a000000000000000000000000000000000000000000000000000000000815260206004820181905260248201527f4f776e61626c653a2063616c6c6572206973206e6f7420746865206f776e657260448201526064016200047e565b62000eb0600062001e87565b565b73ffffffffffffffffffffffffffffffffffffffff808216600090815260016020526040908190205490517f1e2e006500000000000000000000000000000000000000000000000000000000815260609273__$c588408e34393e9644b73b59296e6d3047$__92631e2e00659262000f319288921690600401620025fe565b60006040518083038186803b15801562000f4a57600080fd5b505af415801562000f5f573d6000803e3d6000fd5b505050506040513d6000823e601f3d9081017fffffffffffffffffffffffffffffffffffffffffffffffffffffffffffffffe016820160405262000fa791908101906200210e565b9392505050565b60005473ffffffffffffffffffffffffffffffffffffffff16331462001031576040517f08c379a000000000000000000000000000000000000000000000000000000000815260206004820181905260248201527f4f776e61626c653a2063616c6c6572206973206e6f7420746865206f776e657260448201526064016200047e565b8051825114620010c4576040517f08c379a000000000000000000000000000000000000000000000000000000000815260206004820152603960248201527f4578706f737572657320616e6420726576616c20616d6f756e7473206172726160448201527f79206d757374206265207468652073616d65206c656e6774680000000000000060648201526084016200047e565b60005b8251811015620006a45760006001600085848151811062001111577f4e487b7100000000000000000000000000000000000000000000000000000000600052603260045260246000fd5b602002602001015173ffffffffffffffffffffffffffffffffffffffff1673ffffffffffffffffffffffffffffffffffffffff16815260200190815260200160002060009054906101000a900473ffffffffffffffffffffffffffffffffffffffff1673ffffffffffffffffffffffffffffffffffffffff1663ebf7a41e6040518163ffffffff1660e01b815260040160206040518083038186803b158015620011ba57600080fd5b505afa158015620011cf573d6000803e3d6000fd5b505050506040513d601f19601f82011682018060405250810190620011f5919062002354565b905060008173ffffffffffffffffffffffffffffffffffffffff16633f3a0c5b6040518163ffffffff1660e01b815260040160206040518083038186803b1580156200124057600080fd5b505afa15801562001255573d6000803e3d6000fd5b505050506040513d601f19601f820116820180604052508101906200127b9190620024e1565b9050838381518110620012b7577f4e487b7100000000000000000000000000000000000000000000000000000000600052603260045260246000fd5b60200260200101518111156200138b578173ffffffffffffffffffffffffffffffffffffffff1663064c97d68585815181106200131d577f4e487b7100000000000000000000000000000000000000000000000000000000600052603260045260246000fd5b60200260200101518362001332919062002802565b6040518263ffffffff1660e01b81526004016200135191815260200190565b600060405180830381600087803b1580156200136c57600080fd5b505af115801562001381573d6000803e3d6000fd5b505050506200144a565b8173ffffffffffffffffffffffffffffffffffffffff1663057ac84882868681518110620013e2577f4e487b7100000000000000000000000000000000000000000000000000000000600052603260045260246000fd5b6020026020010151620013f6919062002802565b6040518263ffffffff1660e01b81526004016200141591815260200190565b600060405180830381600087803b1580156200143057600080fd5b505af115801562001445573d6000803e3d6000fd5b505050505b5050808062001459906200281c565b915050620010c7565b8051825114620014f5576040517f08c379a000000000000000000000000000000000000000000000000000000000815260206004820152603060248201527f7661756c747320616e6420616d6f756e7473206172726179206d75737420626560448201527f207468652073616d65206c656e6774680000000000000000000000000000000060648201526084016200047e565b60005b8251811015620006a4576003600084838151811062001540577f4e487b7100000000000000000000000000000000000000000000000000000000600052603260045260246000fd5b60209081029190910181015173ffffffffffffffffffffffffffffffffffffffff1682528101919091526040016000205460ff1662001602576040517f08c379a000000000000000000000000000000000000000000000000000000000815260206004820152602d60248201527f4661726d696e67526576656e75654d616e616765723a20696e76616c6964207660448201527f61756c7420696e2061727261790000000000000000000000000000000000000060648201526084016200047e565b600654835173ffffffffffffffffffffffffffffffffffffffff909116906340c10f199085908490811062001660577f4e487b7100000000000000000000000000000000000000000000000000000000600052603260045260246000fd5b6020026020010151848481518110620016a2577f4e487b7100000000000000000000000000000000000000000000000000000000600052603260045260246000fd5b60200260200101516040518363ffffffff1660e01b8152600401620016e992919073ffffffffffffffffffffffffffffffffffffffff929092168252602082015260400190565b600060405180830381600087803b1580156200170457600080fd5b505af115801562001719573d6000803e3d6000fd5b5050505080806200172a906200281c565b915050620014f8565b600281815481106200174457600080fd5b60009182526020909120015473ffffffffffffffffffffffffffffffffffffffff16905081565b6000815167ffffffffffffffff811115620017af577f4e487b7100000000000000000000000000000000000000000000000000000000600052604160045260246000fd5b604051908082528060200260200182016040528015620017d9578160200160208202803683370190505b50905060005b82518110156200197f576001600084838151811062001827577f4e487b7100000000000000000000000000000000000000000000000000000000600052603260045260246000fd5b602002602001015173ffffffffffffffffffffffffffffffffffffffff1673ffffffffffffffffffffffffffffffffffffffff16815260200190815260200160002060009054906101000a900473ffffffffffffffffffffffffffffffffffffffff1673ffffffffffffffffffffffffffffffffffffffff1663ebf7a41e6040518163ffffffff1660e01b815260040160206040518083038186803b158015620018d057600080fd5b505afa158015620018e5573d6000803e3d6000fd5b505050506040513d601f19601f820116820180604052508101906200190b919062002354565b82828151811062001945577f4e487b7100000000000000000000000000000000000000000000000000000000600052603260045260246000fd5b73ffffffffffffffffffffffffffffffffffffffff909216602092830291909101909101528062001976816200281c565b915050620017df565b5060005b835181101562001b535760036000858381518110620019cb577f4e487b7100000000000000000000000000000000000000000000000000000000600052603260045260246000fd5b60209081029190910181015173ffffffffffffffffffffffffffffffffffffffff1682528101919091526040016000205460ff1662001a8d576040517f08c379a000000000000000000000000000000000000000000000000000000000815260206004820152602d60248201527f4661726d696e67526576656e75654d616e616765723a20696e76616c6964207660448201527f61756c7420696e2061727261790000000000000000000000000000000000000060648201526084016200047e565b83818151811062001ac7577f4e487b7100000000000000000000000000000000000000000000000000000000600052603260045260246000fd5b602002602001015173ffffffffffffffffffffffffffffffffffffffff16636823920a836040518263ffffffff1660e01b815260040162001b099190620025ae565b600060405180830381600087803b15801562001b2457600080fd5b505af115801562001b39573d6000803e3d6000fd5b50505050808062001b4a906200281c565b91505062001983565b50505050565b60005473ffffffffffffffffffffffffffffffffffffffff16331462001bdc576040517f08c379a000000000000000000000000000000000000000000000000000000000815260206004820181905260248201527f4f776e61626c653a2063616c6c6572206973206e6f7420746865206f776e657260448201526064016200047e565b6040517f02fab49800000000000000000000000000000000000000000000000000000000815260009073__$c588408e34393e9644b73b59296e6d3047$__906302fab4989062001c38908790879087906001906004016200270a565b60206040518083038186803b15801562001c5157600080fd5b505af415801562001c66573d6000803e3d6000fd5b505050506040513d601f19601f8201168201806040525081019062001c8c919062002354565b6002805460018082019092557f405787fa12a823e0f2b7631cc41b3ba8828b3321ca811111fa75cd3aa3bb5ace0180547fffffffffffffffffffffffff00000000000000000000000000000000000000001673ffffffffffffffffffffffffffffffffffffffff8681169182179092556000908152602092835260409081902054815185841681529216928201929092529192507f390f4da03f9e74fca8b97195d2227fcc77f077755b8b358e42782b69c5faeb36910160405180910390a150505050565b60005473ffffffffffffffffffffffffffffffffffffffff16331462001dd4576040517f08c379a000000000000000000000000000000000000000000000000000000000815260206004820181905260248201527f4f776e61626c653a2063616c6c6572206973206e6f7420746865206f776e657260448201526064016200047e565b73ffffffffffffffffffffffffffffffffffffffff811662001e79576040517f08c379a000000000000000000000000000000000000000000000000000000000815260206004820152602660248201527f4f776e61626c653a206e6577206f776e657220697320746865207a65726f206160448201527f646472657373000000000000000000000000000000000000000000000000000060648201526084016200047e565b62001e848162001e87565b50565b6000805473ffffffffffffffffffffffffffffffffffffffff8381167fffffffffffffffffffffffff0000000000000000000000000000000000000000831681178455604051919092169283917f8be0079c531659141344cd1fd0a4f28419497f9722a3daafe3b4186f6b6457e09190a35050565b61319980620028da83390190565b600082601f83011262001f1b578081fd5b8135602062001f3462001f2e83620027db565b62002789565b80838252828201915082860187848660051b890101111562001f54578586fd5b855b8581101562001f7f57813562001f6c81620028b6565b8452928401929084019060010162001f56565b5090979650505050505050565b600082601f83011262001f9d578081fd5b8135602062001fb062001f2e83620027db565b80838252828201915082860187848660051b890101111562001fd0578586fd5b855b8581101562001f7f57813562001fe881620028b6565b8452928401929084019060010162001fd2565b600082601f8301126200200c578081fd5b813560206200201f62001f2e83620027db565b80838252828201915082860187848660051b89010111156200203f578586fd5b855b8581101562001f7f5781358452928401929084019060010162002041565b600082601f83011262002070578081fd5b813567ffffffffffffffff8111156200208d576200208d62002887565b620020c060207fffffffffffffffffffffffffffffffffffffffffffffffffffffffffffffffe0601f8401160162002789565b818152846020838601011115620020d5578283fd5b816020850160208301379081016020019190915292915050565b60006020828403121562002101578081fd5b813562000fa781620028b6565b6000602080838503121562002121578182fd5b825167ffffffffffffffff81111562002138578283fd5b8301601f8101851362002149578283fd5b80516200215a62001f2e82620027db565b80828252848201915084840188868560051b87010111156200217a578687fd5b8694505b83851015620021ac578051801515811462002197578788fd5b8352600194909401939185019185016200217e565b50979650505050505050565b60008060408385031215620021cb578081fd5b823567ffffffffffffffff80821115620021e3578283fd5b620021f18683870162001f0a565b9350602085013591508082111562002207578283fd5b50620022168582860162001ffb565b9150509250929050565b6000806040838503121562002233578182fd5b823567ffffffffffffffff808211156200224b578384fd5b620022598683870162001f8c565b935060208501359150808211156200226f578283fd5b50620022168582860162001f0a565b6000806040838503121562002291578182fd5b823567ffffffffffffffff80821115620022a9578384fd5b620021f18683870162001f8c565b60008060408385031215620022ca578081fd5b823567ffffffffffffffff811115620022e1578182fd5b620022ef8582860162001f8c565b92505060208301356200230281620028b6565b809150509250929050565b6000806040838503121562002320578182fd5b823567ffffffffffffffff81111562002337578283fd5b620023458582860162001f8c565b95602094909401359450505050565b60006020828403121562002366578081fd5b815162000fa781620028b6565b60008060006060848603121562002388578081fd5b833567ffffffffffffffff80821115620023a0578283fd5b620023ae878388016200205f565b94506020860135915080821115620023c4578283fd5b50620023d3868287016200205f565b9250506040840135620023e681620028b6565b809150509250925092565b60008060008060008086880360e08112156200240b578485fd5b873567ffffffffffffffff8082111562002423578687fd5b620024318b838c016200205f565b985060208a013591508082111562002447578687fd5b50620024568a828b016200205f565b965050604088013594506060880135935060407fffffffffffffffffffffffffffffffffffffffffffffffffffffffffffffff808201121562002497578283fd5b50620024a26200275d565b6080880135815260a088013560208201528092505060c087013590509295509295509295565b600060208284031215620024da578081fd5b5035919050565b600060208284031215620024f3578081fd5b5051919050565b60008151808452815b81811015620025215760208185018101518683018201520162002503565b81811115620025335782602083870101525b50601f017fffffffffffffffffffffffffffffffffffffffffffffffffffffffffffffffe0169290920160200192915050565b6020808252825182820181905260009190848201906040850190845b81811015620025a257835115158352928401929184019160010162002582565b50909695505050505050565b6020808252825182820181905260009190848201906040850190845b81811015620025a257835173ffffffffffffffffffffffffffffffffffffffff1683529284019291840191600101620025ca565b604080825283519082018190526000906020906060840190828701845b828110156200264f57815173ffffffffffffffffffffffffffffffffffffffff16845292840192908401906001016200261b565b50505073ffffffffffffffffffffffffffffffffffffffff9490941692019190915250919050565b60006101608083526200268d8184018e620024fa565b90508281036020840152620026a3818d620024fa565b73ffffffffffffffffffffffffffffffffffffffff9b8c166040850152998b1660608401525050958816608087015260a086019490945260c0850192909252805160e085015260200151610100840152909316610120820152610140019190915292915050565b6080815260006200271f6080830187620024fa565b8281036020840152620027338187620024fa565b73ffffffffffffffffffffffffffffffffffffffff95909516604084015250506060015292915050565b6040805190810167ffffffffffffffff8111828210171562002783576200278362002887565b60405290565b604051601f82017fffffffffffffffffffffffffffffffffffffffffffffffffffffffffffffffe016810167ffffffffffffffff81118282101715620027d357620027d362002887565b604052919050565b600067ffffffffffffffff821115620027f857620027f862002887565b5060051b60200190565b60008282101562002817576200281762002858565b500390565b60007fffffffffffffffffffffffffffffffffffffffffffffffffffffffffffffffff82141562002851576200285162002858565b5060010190565b7f4e487b7100000000000000000000000000000000000000000000000000000000600052601160045260246000fd5b7f4e487b7100000000000000000000000000000000000000000000000000000000600052604160045260246000fd5b73ffffffffffffffffffffffffffffffffffffffff8116811462001e8457600080fdfe6101606040527fb64cd1c65a9d91dac94ce350ef50c7a70ddbc5f0d1deb9c993efa7daa3686038610140523480156200003757600080fd5b5060405162003199380380620031998339810160408190526200005a91620003ba565b60408051808201825260018152603160f81b6020918201528b518c82012060e08190527fc89efdaa54c0f20c7adf612882df0950f5a951637e0307cdcb4c672f298b8bc66101008190524660a081815285517f8b73c3c69bb8fe3d512ecc4cf759cc79239f7b179b0ffacaa9a75d522b39400f81870181905281880195909552606081810194909452608080820193909352308183018190528751808303909301835260c09182019097528151919095012090529290921b90526101205289896200012533620001c5565b81516200013a90600490602085019062000215565b5080516200015090600590602084019062000215565b5050600980546001600160a01b03199081166001600160a01b039b8c1617909155600a80548216998b169990991790985550600b8054881696891696909617909555600d93909355600e919091558051600f5560200151601055601180549093169316929092179055600c5550620005249050565b600080546001600160a01b038381166001600160a01b0319831681178455604051919092169283917f8be0079c531659141344cd1fd0a4f28419497f9722a3daafe3b4186f6b6457e09190a35050565b8280546200022390620004d1565b90600052602060002090601f01602090048101928262000247576000855562000292565b82601f106200026257805160ff191683800117855562000292565b8280016001018555821562000292579182015b828111156200029257825182559160200191906001019062000275565b50620002a0929150620002a4565b5090565b5b80821115620002a05760008155600101620002a5565b80516001600160a01b0381168114620002d357600080fd5b919050565b600082601f830112620002e9578081fd5b81516001600160401b038111156200030557620003056200050e565b60206200031b601f8301601f191682016200049e565b82815285828487010111156200032f578384fd5b835b838110156200034e57858101830151828201840152820162000331565b838111156200035f57848385840101525b5095945050505050565b6000604082840312156200037b578081fd5b604080519081016001600160401b0381118282101715620003a057620003a06200050e565b604052825181526020928301519281019290925250919050565b6000806000806000806000806000806101608b8d031215620003da578586fd5b8a516001600160401b0380821115620003f1578788fd5b620003ff8e838f01620002d8565b9b5060208d015191508082111562000415578788fd5b50620004248d828e01620002d8565b9950506200043560408c01620002bb565b97506200044560608c01620002bb565b96506200045560808c01620002bb565b955060a08b0151945060c08b01519350620004748c60e08d0162000369565b9250620004856101208c01620002bb565b91506101408b015190509295989b9194979a5092959850565b604051601f8201601f191681016001600160401b0381118282101715620004c957620004c96200050e565b604052919050565b600181811c90821680620004e657607f821691505b602082108114156200050857634e487b7160e01b600052602260045260246000fd5b50919050565b634e487b7160e01b600052604160045260246000fd5b60805160a05160c05160601c60e051610100516101205161014051612c10620005896000396000818161049f01526106b501526000611bd301526000611c2201526000611bfd01526000611b5601526000611b8001526000611baa0152612c106000f3fe608060405234801561001057600080fd5b50600436106102c85760003560e01c80637c5a227c1161017b578063b1a9069c116100d8578063bca8371f1161008c578063e1eda8f911610071578063e1eda8f914610606578063f2fde38b14610626578063fc1d3de21461063957600080fd5b8063bca8371f146105b7578063dd62ed3e146105c057600080fd5b8063b470aade116100bd578063b470aade1461057b578063b6b55f2514610584578063b9844d8d1461059757600080fd5b8063b1a9069c14610548578063b3db428b1461056857600080fd5b806395d89b411161012f578063a457c2d711610114578063a457c2d71461050f578063a9059cbb14610522578063b0ff11061461053557600080fd5b806395d89b41146104ff578063981fc3721461050757600080fd5b80638177132911610160578063817713291461049a57806382dad8ac146104c15780638da5cb5b146104e157600080fd5b80637c5a227c1461047f5780637ecebe001461048757600080fd5b806339509351116102295780636823920a116101dd5780636eeeaaa5116101c25780636eeeaaa51461041f57806370a0823114610464578063715018a61461047757600080fd5b80636823920a146104045780636b2f14171461041757600080fd5b80633c58c8771161020e5780633c58c877146103c85780634473ad52146103db57806363ceec65146103fb57600080fd5b806339509351146103ac5780633a98ef39146103bf57600080fd5b806323b872dd11610280578063313ce56711610265578063313ce56714610372578063341533d9146103815780633644e515146103a457600080fd5b806323b872dd1461034c5780632e1a7d4d1461035f57600080fd5b8063095ea7b3116102b1578063095ea7b314610300578063174e4ea61461032357806318160ddd1461034457600080fd5b8063061e5844146102cd57806306fdde03146102e2575b600080fd5b6102e06102db366004612800565b610642565b005b6102ea610800565b6040516102f791906129b1565b60405180910390f35b61031361030e3660046127d5565b610892565b60405190151581526020016102f7565b610336610331366004612965565b6108a8565b6040519081526020016102f7565b6103366108d7565b61031361035a366004612795565b6108e9565b6102e061036d366004612965565b6109d1565b604051601281526020016102f7565b600f5460105461038f919082565b604080519283526020830191909152016102f7565b6103366109df565b6103136103ba3660046127d5565b6109e9565b61033660065481565b6102e06103d6366004612965565b610a32565b6103366103e9366004612741565b60076020526000908152604090205481565b610336600c5481565b6102e0610412366004612860565b610acd565b610313610c24565b60115461043f9073ffffffffffffffffffffffffffffffffffffffff1681565b60405173ffffffffffffffffffffffffffffffffffffffff90911681526020016102f7565b610336610472366004612741565b610c92565b6102e0610cc7565b61038f610d54565b610336610495366004612741565b610e1b565b6103367f000000000000000000000000000000000000000000000000000000000000000081565b600a5461043f9073ffffffffffffffffffffffffffffffffffffffff1681565b60005473ffffffffffffffffffffffffffffffffffffffff1661043f565b6102ea610e46565b610336610e55565b61031361051d3660046127d5565b610f13565b6103136105303660046127d5565b610feb565b610336610543366004612965565b610ff8565b60095461043f9073ffffffffffffffffffffffffffffffffffffffff1681565b6102e0610576366004612795565b611015565b610336600d5481565b6102e0610592366004612965565b611344565b6103366105a5366004612741565b60086020526000908152604090205481565b61033661012c81565b6103366105ce36600461275d565b73ffffffffffffffffffffffffffffffffffffffff918216600090815260026020908152604080832093909416825291909152205490565b600b5461043f9073ffffffffffffffffffffffffffffffffffffffff1681565b6102e0610634366004612741565b61134f565b610336600e5481565b834211156106b1576040517f08c379a000000000000000000000000000000000000000000000000000000000815260206004820152601760248201527f5661756c743a206578706972656420646561646c696e6500000000000000000060448201526064015b60405180910390fd5b60007f00000000000000000000000000000000000000000000000000000000000000008787876106e08b61147c565b60408051602081019690965273ffffffffffffffffffffffffffffffffffffffff909416938501939093526060840191909152608083015260a082015260c0016040516020818303038152906040528051906020012090506000610743826114b1565b905060006107538287878761151a565b90508873ffffffffffffffffffffffffffffffffffffffff168173ffffffffffffffffffffffffffffffffffffffff16146107ea576040517f08c379a000000000000000000000000000000000000000000000000000000000815260206004820152601860248201527f5661756c743a20696e76616c6964207369676e6174757265000000000000000060448201526064016106a8565b6107f589338a611542565b505050505050505050565b60606004805461080f90612ad3565b80601f016020809104026020016040519081016040528092919081815260200182805461083b90612ad3565b80156108885780601f1061085d57610100808354040283529160200191610888565b820191906000526020600020905b81548152906001019060200180831161086b57829003601f168201915b5050505050905090565b600061089f3384846116c5565b50600192915050565b60008060006108b5610d54565b9092509050806108c58386612a53565b6108cf9190612a1a565b949350505050565b60006108e46006546108a8565b905090565b60006108f6848484611879565b73ffffffffffffffffffffffffffffffffffffffff84166000908152600260209081526040808320338452909152902054828110156109b7576040517f08c379a000000000000000000000000000000000000000000000000000000000815260206004820152602860248201527f45524332303a207472616e7366657220616d6f756e742065786365656473206160448201527f6c6c6f77616e636500000000000000000000000000000000000000000000000060648201526084016106a8565b6109c485338584036116c5565b60019150505b9392505050565b6109dc333383611542565b50565b60006108e4611b3c565b33600081815260026020908152604080832073ffffffffffffffffffffffffffffffffffffffff87168452909152812054909161089f918590610a2d908690612a02565b6116c5565b60005473ffffffffffffffffffffffffffffffffffffffff163314610ab3576040517f08c379a000000000000000000000000000000000000000000000000000000000815260206004820181905260248201527f4f776e61626c653a2063616c6c6572206973206e6f7420746865206f776e657260448201526064016106a8565b80600c6000828254610ac59190612a90565b909155505050565b610ad5610c24565b610b61576040517f08c379a000000000000000000000000000000000000000000000000000000000815260206004820152603660248201527f5661756c743a2043616e6e6f742072656465656d207768656e206f757473696460448201527f65206f6620656e7465722f657869742077696e646f770000000000000000000060648201526084016106a8565b60005b8151811015610c2057818181518110610ba6577f4e487b7100000000000000000000000000000000000000000000000000000000600052603260045260246000fd5b602002602001015173ffffffffffffffffffffffffffffffffffffffff1663be040fb06040518163ffffffff1660e01b8152600401600060405180830381600087803b158015610bf557600080fd5b505af1158015610c09573d6000803e3d6000fd5b505050508080610c1890612b21565b915050610b64565b5050565b6000600c54421015610c365750600090565b6000600d54600c5442610c499190612a90565b610c539190612a1a565b90504261012c600e54600c54600d5485610c6d9190612a53565b610c779190612a02565b610c819190612a02565b610c8b9190612a02565b1191505090565b73ffffffffffffffffffffffffffffffffffffffff8116600090815260076020526040812054610cc1906108a8565b92915050565b60005473ffffffffffffffffffffffffffffffffffffffff163314610d48576040517f08c379a000000000000000000000000000000000000000000000000000000000815260206004820181905260248201527f4f776e61626c653a2063616c6c6572206973206e6f7420746865206f776e657260448201526064016106a8565b610d526000611c70565b565b600a546040517f70a08231000000000000000000000000000000000000000000000000000000008152306004820152600091829173ffffffffffffffffffffffffffffffffffffffff909116906370a082319060240160206040518083038186803b158015610dc257600080fd5b505afa158015610dd6573d6000803e3d6000fd5b505050506040513d601f19601f82011682018060405250810190610dfa919061297d565b915060065490508160001415610e0f57600191505b80610e175750805b9091565b73ffffffffffffffffffffffffffffffffffffffff8116600090815260086020526040812054610cc1565b60606005805461080f90612ad3565b601054600f54600a546040517f70a08231000000000000000000000000000000000000000000000000000000008152306004820152600093929173ffffffffffffffffffffffffffffffffffffffff16906370a082319060240160206040518083038186803b158015610ec757600080fd5b505afa158015610edb573d6000803e3d6000fd5b505050506040513d601f19601f82011682018060405250810190610eff919061297d565b610f099190612a53565b6108e49190612a1a565b33600090815260026020908152604080832073ffffffffffffffffffffffffffffffffffffffff8616845290915281205482811015610fd4576040517f08c379a000000000000000000000000000000000000000000000000000000000815260206004820152602560248201527f45524332303a2064656372656173656420616c6c6f77616e63652062656c6f7760448201527f207a65726f00000000000000000000000000000000000000000000000000000060648201526084016106a8565b610fe133858584036116c5565b5060019392505050565b600061089f338484611879565b6000806000611005610d54565b9092509050816108c58286612a53565b61101d610c24565b6110a9576040517f08c379a000000000000000000000000000000000000000000000000000000000815260206004820152603a60248201527f5661756c743a2043616e6e6f74206a6f696e207661756c74207768656e206f7560448201527f7473696465206f6620656e7465722f657869742077696e646f7700000000000060648201526084016106a8565b601154600c54600d546040517f07e7cc270000000000000000000000000000000000000000000000000000000081526004810192909252602482015230604482015260009173ffffffffffffffffffffffffffffffffffffffff16906307e7cc279060640160206040518083038186803b15801561112657600080fd5b505afa15801561113a573d6000803e3d6000fd5b505050506040513d601f19601f8201168201806040525081019061115e919061297d565b90506000670de0b6b3a76400006111758385612a53565b61117f9190612a1a565b9050808311611210576040517f08c379a000000000000000000000000000000000000000000000000000000000815260206004820152603160248201527f5661756c743a2043616e6e6f74206a6f696e207768656e20666565206973206860448201527f6967686572207468616e20616d6f756e7400000000000000000000000000000060648201526084016106a8565b600061121c8285612a90565b905083156112e55761122e8582611ce5565b600954600b5461125a9173ffffffffffffffffffffffffffffffffffffffff9081169188911687611e0b565b600a546040517f40c10f190000000000000000000000000000000000000000000000000000000081523060048201526024810186905273ffffffffffffffffffffffffffffffffffffffff909116906340c10f1990604401600060405180830381600087803b1580156112cc57600080fd5b505af11580156112e0573d6000803e3d6000fd5b505050505b6040805173ffffffffffffffffffffffffffffffffffffffff87168152602081018690529081018290527f90890809c654f11d6e72a28fa60149770a0d11ec6c92319d6ceb2bb0a4ea1a159060600160405180910390a1505050505050565b6109dc333383611015565b60005473ffffffffffffffffffffffffffffffffffffffff1633146113d0576040517f08c379a000000000000000000000000000000000000000000000000000000000815260206004820181905260248201527f4f776e61626c653a2063616c6c6572206973206e6f7420746865206f776e657260448201526064016106a8565b73ffffffffffffffffffffffffffffffffffffffff8116611473576040517f08c379a000000000000000000000000000000000000000000000000000000000815260206004820152602660248201527f4f776e61626c653a206e6577206f776e657220697320746865207a65726f206160448201527f646472657373000000000000000000000000000000000000000000000000000060648201526084016106a8565b6109dc81611c70565b73ffffffffffffffffffffffffffffffffffffffff811660009081526008602052604090208054600181018255905b50919050565b6000610cc16114be611b3c565b836040517f19010000000000000000000000000000000000000000000000000000000000006020820152602281018390526042810182905260009060620160405160208183030381529060405280519060200120905092915050565b600080600061152b87878787611ea6565b9150915061153881611fbe565b5095945050505050565b61154a610c24565b6115d6576040517f08c379a000000000000000000000000000000000000000000000000000000000815260206004820152603a60248201527f5661756c743a2043616e6e6f742065786974207661756c74207768656e206f7560448201527f7473696465206f6620656e7465722f657869742077696e646f7700000000000060648201526084016106a8565b80156115e6576115e683826122da565b600a546040517f982755930000000000000000000000000000000000000000000000000000000081526004810183905233602482015273ffffffffffffffffffffffffffffffffffffffff90911690639827559390604401600060405180830381600087803b15801561165857600080fd5b505af115801561166c573d6000803e3d6000fd5b50506040805173ffffffffffffffffffffffffffffffffffffffff87168152602081018590527f884edad9ce6fa2440d8a54cc123490eb96d2768479d49ff9c7366125a9424364935001905060405180910390a1505050565b73ffffffffffffffffffffffffffffffffffffffff8316611767576040517f08c379a0000000000000000000000000000000000000000000000000000000008152602060048201526024808201527f45524332303a20617070726f76652066726f6d20746865207a65726f2061646460448201527f726573730000000000000000000000000000000000000000000000000000000060648201526084016106a8565b73ffffffffffffffffffffffffffffffffffffffff821661180a576040517f08c379a000000000000000000000000000000000000000000000000000000000815260206004820152602260248201527f45524332303a20617070726f766520746f20746865207a65726f20616464726560448201527f737300000000000000000000000000000000000000000000000000000000000060648201526084016106a8565b73ffffffffffffffffffffffffffffffffffffffff83811660008181526002602090815260408083209487168084529482529182902085905590518481527f8c5be1e5ebec7d5bd14f71427d1e84f3dd0314c0f7b2291e5b200ac8c7c3b92591015b60405180910390a3505050565b73ffffffffffffffffffffffffffffffffffffffff831661191c576040517f08c379a000000000000000000000000000000000000000000000000000000000815260206004820152602560248201527f45524332303a207472616e736665722066726f6d20746865207a65726f20616460448201527f647265737300000000000000000000000000000000000000000000000000000060648201526084016106a8565b73ffffffffffffffffffffffffffffffffffffffff82166119bf576040517f08c379a000000000000000000000000000000000000000000000000000000000815260206004820152602360248201527f45524332303a207472616e7366657220746f20746865207a65726f206164647260448201527f657373000000000000000000000000000000000000000000000000000000000060648201526084016106a8565b73ffffffffffffffffffffffffffffffffffffffff8316600090815260076020526040812054906119ef83610ff8565b905080821015611a81576040517f08c379a000000000000000000000000000000000000000000000000000000000815260206004820152602660248201527f45524332303a207472616e7366657220616d6f756e742065786365656473206260448201527f616c616e6365000000000000000000000000000000000000000000000000000060648201526084016106a8565b73ffffffffffffffffffffffffffffffffffffffff8086166000908152600760205260408082208054859003905591861681529081208054839290611ac7908490612a02565b925050819055508373ffffffffffffffffffffffffffffffffffffffff168573ffffffffffffffffffffffffffffffffffffffff167fddf252ad1be2c89b69c2b068fc378daa952ba7f163c4a11628f55a4df523b3ef85604051611b2d91815260200190565b60405180910390a35050505050565b60003073ffffffffffffffffffffffffffffffffffffffff7f000000000000000000000000000000000000000000000000000000000000000016148015611ba257507f000000000000000000000000000000000000000000000000000000000000000046145b15611bcc57507f000000000000000000000000000000000000000000000000000000000000000090565b50604080517f00000000000000000000000000000000000000000000000000000000000000006020808301919091527f0000000000000000000000000000000000000000000000000000000000000000828401527f000000000000000000000000000000000000000000000000000000000000000060608301524660808301523060a0808401919091528351808403909101815260c0909201909252805191012090565b6000805473ffffffffffffffffffffffffffffffffffffffff8381167fffffffffffffffffffffffff0000000000000000000000000000000000000000831681178455604051919092169283917f8be0079c531659141344cd1fd0a4f28419497f9722a3daafe3b4186f6b6457e09190a35050565b73ffffffffffffffffffffffffffffffffffffffff8216611d62576040517f08c379a000000000000000000000000000000000000000000000000000000000815260206004820152601f60248201527f45524332303a206d696e7420746f20746865207a65726f20616464726573730060448201526064016106a8565b6000611d6d82610ff8565b90508060066000828254611d819190612a02565b909155505073ffffffffffffffffffffffffffffffffffffffff831660009081526007602052604081208054839290611dbb908490612a02565b909155505060405182815273ffffffffffffffffffffffffffffffffffffffff8416906000907fddf252ad1be2c89b69c2b068fc378daa952ba7f163c4a11628f55a4df523b3ef9060200161186c565b6040805173ffffffffffffffffffffffffffffffffffffffff85811660248301528416604482015260648082018490528251808303909101815260849091019091526020810180517bffffffffffffffffffffffffffffffffffffffffffffffffffffffff167f23b872dd00000000000000000000000000000000000000000000000000000000179052611ea09085906124d4565b50505050565b6000807f7fffffffffffffffffffffffffffffff5d576e7357a4501ddfe92f46681b20a0831115611edd5750600090506003611fb5565b8460ff16601b14158015611ef557508460ff16601c14155b15611f065750600090506004611fb5565b6040805160008082526020820180845289905260ff881692820192909252606081018690526080810185905260019060a0016020604051602081039080840390855afa158015611f5a573d6000803e3d6000fd5b50506040517fffffffffffffffffffffffffffffffffffffffffffffffffffffffffffffffe0015191505073ffffffffffffffffffffffffffffffffffffffff8116611fae57600060019250925050611fb5565b9150600090505b94509492505050565b6000816004811115611ff9577f4e487b7100000000000000000000000000000000000000000000000000000000600052602160045260246000fd5b14156120025750565b600181600481111561203d577f4e487b7100000000000000000000000000000000000000000000000000000000600052602160045260246000fd5b14156120a5576040517f08c379a000000000000000000000000000000000000000000000000000000000815260206004820152601860248201527f45434453413a20696e76616c6964207369676e6174757265000000000000000060448201526064016106a8565b60028160048111156120e0577f4e487b7100000000000000000000000000000000000000000000000000000000600052602160045260246000fd5b1415612148576040517f08c379a000000000000000000000000000000000000000000000000000000000815260206004820152601f60248201527f45434453413a20696e76616c6964207369676e6174757265206c656e6774680060448201526064016106a8565b6003816004811115612183577f4e487b7100000000000000000000000000000000000000000000000000000000600052602160045260246000fd5b1415612211576040517f08c379a000000000000000000000000000000000000000000000000000000000815260206004820152602260248201527f45434453413a20696e76616c6964207369676e6174757265202773272076616c60448201527f756500000000000000000000000000000000000000000000000000000000000060648201526084016106a8565b600481600481111561224c577f4e487b7100000000000000000000000000000000000000000000000000000000600052602160045260246000fd5b14156109dc576040517f08c379a000000000000000000000000000000000000000000000000000000000815260206004820152602260248201527f45434453413a20696e76616c6964207369676e6174757265202776272076616c60448201527f756500000000000000000000000000000000000000000000000000000000000060648201526084016106a8565b73ffffffffffffffffffffffffffffffffffffffff821661237d576040517f08c379a000000000000000000000000000000000000000000000000000000000815260206004820152602160248201527f45524332303a206275726e2066726f6d20746865207a65726f2061646472657360448201527f730000000000000000000000000000000000000000000000000000000000000060648201526084016106a8565b73ffffffffffffffffffffffffffffffffffffffff8216600090815260076020526040812054906123ad83610ff8565b90508082101561243f576040517f08c379a000000000000000000000000000000000000000000000000000000000815260206004820152602260248201527f45524332303a206275726e20616d6f756e7420657863656564732062616c616e60448201527f636500000000000000000000000000000000000000000000000000000000000060648201526084016106a8565b73ffffffffffffffffffffffffffffffffffffffff8416600090815260076020526040812082840390556006805483929061247b908490612a90565b909155505060405183815260009073ffffffffffffffffffffffffffffffffffffffff8616907fddf252ad1be2c89b69c2b068fc378daa952ba7f163c4a11628f55a4df523b3ef9060200160405180910390a350505050565b6000612536826040518060400160405280602081526020017f5361666545524332303a206c6f772d6c6576656c2063616c6c206661696c65648152508573ffffffffffffffffffffffffffffffffffffffff166125e59092919063ffffffff16565b8051909150156125e057808060200190518101906125549190612945565b6125e0576040517f08c379a000000000000000000000000000000000000000000000000000000000815260206004820152602a60248201527f5361666545524332303a204552433230206f7065726174696f6e20646964206e60448201527f6f7420737563636565640000000000000000000000000000000000000000000060648201526084016106a8565b505050565b60606108cf848460008585843b612658576040517f08c379a000000000000000000000000000000000000000000000000000000000815260206004820152601d60248201527f416464726573733a2063616c6c20746f206e6f6e2d636f6e747261637400000060448201526064016106a8565b6000808673ffffffffffffffffffffffffffffffffffffffff1685876040516126819190612995565b60006040518083038185875af1925050503d80600081146126be576040519150601f19603f3d011682016040523d82523d6000602084013e6126c3565b606091505b50915091506126d38282866126de565b979650505050505050565b606083156126ed5750816109ca565b8251156126fd5782518084602001fd5b816040517f08c379a00000000000000000000000000000000000000000000000000000000081526004016106a891906129b1565b803561273c81612bb8565b919050565b600060208284031215612752578081fd5b81356109ca81612bb8565b6000806040838503121561276f578081fd5b823561277a81612bb8565b9150602083013561278a81612bb8565b809150509250929050565b6000806000606084860312156127a9578081fd5b83356127b481612bb8565b925060208401356127c481612bb8565b929592945050506040919091013590565b600080604083850312156127e7578182fd5b82356127f281612bb8565b946020939093013593505050565b60008060008060008060c08789031215612818578182fd5b863561282381612bb8565b95506020870135945060408701359350606087013560ff81168114612846578283fd5b9598949750929560808101359460a0909101359350915050565b60006020808385031215612872578182fd5b823567ffffffffffffffff80821115612889578384fd5b818501915085601f83011261289c578384fd5b8135818111156128ae576128ae612b89565b8060051b6040517fffffffffffffffffffffffffffffffffffffffffffffffffffffffffffffffe0603f830116810181811085821117156128f1576128f1612b89565b604052828152858101935084860182860187018a101561290f578788fd5b8795505b838610156129385761292481612731565b855260019590950194938601938601612913565b5098975050505050505050565b600060208284031215612956578081fd5b815180151581146109ca578182fd5b600060208284031215612976578081fd5b5035919050565b60006020828403121561298e578081fd5b5051919050565b600082516129a7818460208701612aa7565b9190910192915050565b60208152600082518060208401526129d0816040850160208701612aa7565b601f017fffffffffffffffffffffffffffffffffffffffffffffffffffffffffffffffe0169190910160400192915050565b60008219821115612a1557612a15612b5a565b500190565b600082612a4e577f4e487b710000000000000000000000000000000000000000000000000000000081526012600452602481fd5b500490565b6000817fffffffffffffffffffffffffffffffffffffffffffffffffffffffffffffffff0483118215151615612a8b57612a8b612b5a565b500290565b600082821015612aa257612aa2612b5a565b500390565b60005b83811015612ac2578181015183820152602001612aaa565b83811115611ea05750506000910152565b600181811c90821680612ae757607f821691505b602082108114156114ab577f4e487b7100000000000000000000000000000000000000000000000000000000600052602260045260246000fd5b60007fffffffffffffffffffffffffffffffffffffffffffffffffffffffffffffffff821415612b5357612b53612b5a565b5060010190565b7f4e487b7100000000000000000000000000000000000000000000000000000000600052601160045260246000fd5b7f4e487b7100000000000000000000000000000000000000000000000000000000600052604160045260246000fd5b73ffffffffffffffffffffffffffffffffffffffff811681146109dc57600080fdfea2646970667358221220e77bd6c8fd527623d33d758b4f0bd50d5c91ae0d3482e9b4432053727be1372864736f6c63430008040033a2646970667358221220842dfdb79f0afb16946956b31a01ae0d679be07160b86ab0a401f655aa9746ce64736f6c6343000804003360806040523480156200001157600080fd5b5060405162001e6338038062001e63833981016040819052620000349162000251565b83836200004133620000a8565b815162000056906004906020850190620000f8565b5080516200006c906005906020840190620000f8565b5050600880546001600160a01b039485166001600160a01b031991821617909155600b805493909416921691909117909155506200034e915050565b600080546001600160a01b038381166001600160a01b0319831681178455604051919092169283917f8be0079c531659141344cd1fd0a4f28419497f9722a3daafe3b4186f6b6457e09190a35050565b8280546200010690620002e2565b90600052602060002090601f0160209004810192826200012a576000855562000175565b82601f106200014557805160ff191683800117855562000175565b8280016001018555821562000175579182015b828111156200017557825182559160200191906001019062000158565b506200018392915062000187565b5090565b5b8082111562000183576000815560010162000188565b600082601f830112620001af578081fd5b81516001600160401b0380821115620001cc57620001cc6200031f565b604051601f8301601f19908116603f01168101908282118183101715620001f757620001f76200031f565b8160405283815260209250868385880101111562000213578485fd5b8491505b8382101562000236578582018301518183018401529082019062000217565b838211156200024757848385830101525b9695505050505050565b6000806000806080858703121562000267578384fd5b84516001600160401b03808211156200027e578586fd5b6200028c888389016200019e565b95506020870151915080821115620002a2578485fd5b50620002b1878288016200019e565b9350506040850151620002c48162000335565b6060860151909250620002d78162000335565b939692955090935050565b600181811c90821680620002f757607f821691505b602082108114156200031957634e487b7160e01b600052602260045260246000fd5b50919050565b634e487b7160e01b600052604160045260246000fd5b6001600160a01b03811681146200034b57600080fd5b50565b611b05806200035e6000396000f3fe608060405234801561001057600080fd5b50600436106101e55760003560e01c806370a082311161010f578063a746f93a116100a2578063be040fb011610071578063be040fb01461044b578063c2ba474414610453578063dd62ed3e14610476578063f2fde38b146104bc57600080fd5b8063a746f93a146103ff578063a9059cbb14610412578063ae85d64114610425578063b0ff11061461043857600080fd5b80638da5cb5b116100de5780638da5cb5b146103b357806395d89b41146103d157806398275593146103d9578063a457c2d7146103ec57600080fd5b806370a082311461035b578063715018a61461036e5780637c5a227c14610376578063873924e41461039357600080fd5b8063313ce567116101875780634046ebae116101565780634046ebae146102c357806340c10f19146103085780634473ad521461031b57806348bd91611461033b57600080fd5b8063313ce5671461028f578063395093511461029e5780633a98ef39146102b15780633f3a0c5b146102ba57600080fd5b8063095ea7b3116101c3578063095ea7b314610230578063174e4ea61461025357806318160ddd1461027457806323b872dd1461027c57600080fd5b8063057ac848146101ea578063064c97d6146101ff57806306fdde0314610212575b600080fd5b6101fd6101f83660046118d8565b6104cf565b005b6101fd61020d3660046118d8565b6105af565b61021a610682565b6040516102279190611914565b60405180910390f35b61024361023e3660046118ad565b610714565b6040519015158152602001610227565b6102666102613660046118d8565b61072a565b604051908152602001610227565b610266610759565b61024361028a36600461183c565b61076b565b60405160128152602001610227565b6102436102ac3660046118ad565b610851565b61026660065481565b61026660095481565b600c546102e39073ffffffffffffffffffffffffffffffffffffffff1681565b60405173ffffffffffffffffffffffffffffffffffffffff9091168152602001610227565b6101fd6103163660046118ad565b61089a565b6102666103293660046117e1565b60076020526000908152604090205481565b600b546102e39073ffffffffffffffffffffffffffffffffffffffff1681565b6102666103693660046117e1565b610938565b6101fd61096d565b61037e6109fa565b60408051928352602083019190915201610227565b6008546102e39073ffffffffffffffffffffffffffffffffffffffff1681565b60005473ffffffffffffffffffffffffffffffffffffffff166102e3565b61021a610a16565b6101fd6103e73660046118f0565b610a25565b6102436103fa3660046118ad565b610b47565b6101fd61040d36600461187c565b610c1f565b6102436104203660046118ad565b610d6f565b6101fd6104333660046117e1565b610d7c565b6102666104463660046118d8565b610e76565b6101fd610e93565b6102436104613660046117e1565b600a6020526000908152604090205460ff1681565b610266610484366004611804565b73ffffffffffffffffffffffffffffffffffffffff918216600090815260026020908152604080832093909416825291909152205490565b6101fd6104ca3660046117e1565b610ea5565b60005473ffffffffffffffffffffffffffffffffffffffff163314610555576040517f08c379a000000000000000000000000000000000000000000000000000000000815260206004820181905260248201527f4f776e61626c653a2063616c6c6572206973206e6f7420746865206f776e657260448201526064015b60405180910390fd5b6009805490829060006105688385611985565b90915550506009546040805183815260208101929092527fa59e96b3c1d252b5b2fd20d08a77732f3af73142db0af5e50ced94b558c7fa0591015b60405180910390a15050565b60005473ffffffffffffffffffffffffffffffffffffffff163314610630576040517f08c379a000000000000000000000000000000000000000000000000000000000815260206004820181905260248201527f4f776e61626c653a2063616c6c6572206973206e6f7420746865206f776e6572604482015260640161054c565b6009805490829060006106438385611a13565b90915550506009546040805183815260208101929092527f307076957a8ce6e01b7d381f303646d1011fb16a9842dfa0859a9eddfd312e4291016105a3565b60606004805461069190611a2a565b80601f01602080910402602001604051908101604052809291908181526020018280546106bd90611a2a565b801561070a5780601f106106df5761010080835404028352916020019161070a565b820191906000526020600020905b8154815290600101906020018083116106ed57829003601f168201915b5050505050905090565b6000610721338484610fd5565b50600192915050565b60008060006107376109fa565b90925090508061074783866119d6565b610751919061199d565b949350505050565b600061076660065461072a565b905090565b6000610778848484611189565b73ffffffffffffffffffffffffffffffffffffffff8416600090815260026020908152604080832033845290915290205482811015610839576040517f08c379a000000000000000000000000000000000000000000000000000000000815260206004820152602860248201527f45524332303a207472616e7366657220616d6f756e742065786365656473206160448201527f6c6c6f77616e6365000000000000000000000000000000000000000000000000606482015260840161054c565b6108468533858403610fd5565b506001949350505050565b33600081815260026020908152604080832073ffffffffffffffffffffffffffffffffffffffff871684529091528120549091610721918590610895908690611985565b610fd5565b336000908152600a602052604090205460ff16610913576040517f08c379a000000000000000000000000000000000000000000000000000000000815260206004820152601f60248201527f4578706f737572653a2063616c6c6572206973206e6f742061207661756c7400604482015260640161054c565b61091d828261144c565b806009600082825461092f9190611985565b90915550505050565b73ffffffffffffffffffffffffffffffffffffffff81166000908152600760205260408120546109679061072a565b92915050565b60005473ffffffffffffffffffffffffffffffffffffffff1633146109ee576040517f08c379a000000000000000000000000000000000000000000000000000000000815260206004820181905260248201527f4f776e61626c653a2063616c6c6572206973206e6f7420746865206f776e6572604482015260640161054c565b6109f86000611572565b565b60095460065481610a0a57600191505b80610a125750805b9091565b60606005805461069190611a2a565b610a2f33836115e7565b8160096000828254610a419190611a13565b9091555050600c5473ffffffffffffffffffffffffffffffffffffffff1615610af157600c546040517f4d4c23a80000000000000000000000000000000000000000000000000000000081526004810184905273ffffffffffffffffffffffffffffffffffffffff838116602483015290911690634d4c23a890604401600060405180830381600087803b158015610ad857600080fd5b505af1158015610aec573d6000803e3d6000fd5b505050505b6008546040805173ffffffffffffffffffffffffffffffffffffffff909216825233602083015281018390527fd12200efa34901b99367694174c3b0d32c99585fdf37c7c26892136ddd0836d9906060016105a3565b33600090815260026020908152604080832073ffffffffffffffffffffffffffffffffffffffff8616845290915281205482811015610c08576040517f08c379a000000000000000000000000000000000000000000000000000000000815260206004820152602560248201527f45524332303a2064656372656173656420616c6c6f77616e63652062656c6f7760448201527f207a65726f000000000000000000000000000000000000000000000000000000606482015260840161054c565b610c153385858403610fd5565b5060019392505050565b600b5473ffffffffffffffffffffffffffffffffffffffff16331480610c5c575060005473ffffffffffffffffffffffffffffffffffffffff1633145b610ce8576040517f08c379a000000000000000000000000000000000000000000000000000000000815260206004820152602960248201527f4578706f737572653a2063616c6c6572206973206e6f742061206d696e74657260448201527f206f72206f776e65720000000000000000000000000000000000000000000000606482015260840161054c565b73ffffffffffffffffffffffffffffffffffffffff82166000818152600a602090815260409182902080547fffffffffffffffffffffffffffffffffffffffffffffffffffffffffffffff00168515159081179091558251938452908301527f73d5b2f10126b99916a4c71d591a354f52ed52ca3b0278eaf584e35220addb7791016105a3565b6000610721338484611189565b60005473ffffffffffffffffffffffffffffffffffffffff163314610dfd576040517f08c379a000000000000000000000000000000000000000000000000000000000815260206004820181905260248201527f4f776e61626c653a2063616c6c6572206973206e6f7420746865206f776e6572604482015260640161054c565b600c80547fffffffffffffffffffffffff00000000000000000000000000000000000000001673ffffffffffffffffffffffffffffffffffffffff83169081179091556040519081527f111c6aeb2006d748bdae2ddf082866e6ce7eb3d48ef324b5d9547570f5694e4f9060200160405180910390a150565b6000806000610e836109fa565b90925090508161074782866119d6565b6109f8610e9f33610938565b33610a25565b60005473ffffffffffffffffffffffffffffffffffffffff163314610f26576040517f08c379a000000000000000000000000000000000000000000000000000000000815260206004820181905260248201527f4f776e61626c653a2063616c6c6572206973206e6f7420746865206f776e6572604482015260640161054c565b73ffffffffffffffffffffffffffffffffffffffff8116610fc9576040517f08c379a000000000000000000000000000000000000000000000000000000000815260206004820152602660248201527f4f776e61626c653a206e6577206f776e657220697320746865207a65726f206160448201527f6464726573730000000000000000000000000000000000000000000000000000606482015260840161054c565b610fd281611572565b50565b73ffffffffffffffffffffffffffffffffffffffff8316611077576040517f08c379a0000000000000000000000000000000000000000000000000000000008152602060048201526024808201527f45524332303a20617070726f76652066726f6d20746865207a65726f2061646460448201527f7265737300000000000000000000000000000000000000000000000000000000606482015260840161054c565b73ffffffffffffffffffffffffffffffffffffffff821661111a576040517f08c379a000000000000000000000000000000000000000000000000000000000815260206004820152602260248201527f45524332303a20617070726f766520746f20746865207a65726f20616464726560448201527f7373000000000000000000000000000000000000000000000000000000000000606482015260840161054c565b73ffffffffffffffffffffffffffffffffffffffff83811660008181526002602090815260408083209487168084529482529182902085905590518481527f8c5be1e5ebec7d5bd14f71427d1e84f3dd0314c0f7b2291e5b200ac8c7c3b92591015b60405180910390a3505050565b73ffffffffffffffffffffffffffffffffffffffff831661122c576040517f08c379a000000000000000000000000000000000000000000000000000000000815260206004820152602560248201527f45524332303a207472616e736665722066726f6d20746865207a65726f20616460448201527f6472657373000000000000000000000000000000000000000000000000000000606482015260840161054c565b73ffffffffffffffffffffffffffffffffffffffff82166112cf576040517f08c379a000000000000000000000000000000000000000000000000000000000815260206004820152602360248201527f45524332303a207472616e7366657220746f20746865207a65726f206164647260448201527f6573730000000000000000000000000000000000000000000000000000000000606482015260840161054c565b73ffffffffffffffffffffffffffffffffffffffff8316600090815260076020526040812054906112ff83610e76565b905080821015611391576040517f08c379a000000000000000000000000000000000000000000000000000000000815260206004820152602660248201527f45524332303a207472616e7366657220616d6f756e742065786365656473206260448201527f616c616e63650000000000000000000000000000000000000000000000000000606482015260840161054c565b73ffffffffffffffffffffffffffffffffffffffff80861660009081526007602052604080822080548590039055918616815290812080548392906113d7908490611985565b925050819055508373ffffffffffffffffffffffffffffffffffffffff168573ffffffffffffffffffffffffffffffffffffffff167fddf252ad1be2c89b69c2b068fc378daa952ba7f163c4a11628f55a4df523b3ef8560405161143d91815260200190565b60405180910390a35050505050565b73ffffffffffffffffffffffffffffffffffffffff82166114c9576040517f08c379a000000000000000000000000000000000000000000000000000000000815260206004820152601f60248201527f45524332303a206d696e7420746f20746865207a65726f206164647265737300604482015260640161054c565b60006114d482610e76565b905080600660008282546114e89190611985565b909155505073ffffffffffffffffffffffffffffffffffffffff831660009081526007602052604081208054839290611522908490611985565b909155505060405182815273ffffffffffffffffffffffffffffffffffffffff8416906000907fddf252ad1be2c89b69c2b068fc378daa952ba7f163c4a11628f55a4df523b3ef9060200161117c565b6000805473ffffffffffffffffffffffffffffffffffffffff8381167fffffffffffffffffffffffff0000000000000000000000000000000000000000831681178455604051919092169283917f8be0079c531659141344cd1fd0a4f28419497f9722a3daafe3b4186f6b6457e09190a35050565b73ffffffffffffffffffffffffffffffffffffffff821661168a576040517f08c379a000000000000000000000000000000000000000000000000000000000815260206004820152602160248201527f45524332303a206275726e2066726f6d20746865207a65726f2061646472657360448201527f7300000000000000000000000000000000000000000000000000000000000000606482015260840161054c565b73ffffffffffffffffffffffffffffffffffffffff8216600090815260076020526040812054906116ba83610e76565b90508082101561174c576040517f08c379a000000000000000000000000000000000000000000000000000000000815260206004820152602260248201527f45524332303a206275726e20616d6f756e7420657863656564732062616c616e60448201527f6365000000000000000000000000000000000000000000000000000000000000606482015260840161054c565b73ffffffffffffffffffffffffffffffffffffffff84166000908152600760205260408120828403905560068054839290611788908490611a13565b909155505060405183815260009073ffffffffffffffffffffffffffffffffffffffff8616907fddf252ad1be2c89b69c2b068fc378daa952ba7f163c4a11628f55a4df523b3ef9060200160405180910390a350505050565b6000602082840312156117f2578081fd5b81356117fd81611aad565b9392505050565b60008060408385031215611816578081fd5b823561182181611aad565b9150602083013561183181611aad565b809150509250929050565b600080600060608486031215611850578081fd5b833561185b81611aad565b9250602084013561186b81611aad565b929592945050506040919091013590565b6000806040838503121561188e578182fd5b823561189981611aad565b915060208301358015158114611831578182fd5b600080604083850312156118bf578182fd5b82356118ca81611aad565b946020939093013593505050565b6000602082840312156118e9578081fd5b5035919050565b60008060408385031215611902578182fd5b82359150602083013561183181611aad565b6000602080835283518082850152825b8181101561194057858101830151858201604001528201611924565b818111156119515783604083870101525b50601f017fffffffffffffffffffffffffffffffffffffffffffffffffffffffffffffffe016929092016040019392505050565b6000821982111561199857611998611a7e565b500190565b6000826119d1577f4e487b710000000000000000000000000000000000000000000000000000000081526012600452602481fd5b500490565b6000817fffffffffffffffffffffffffffffffffffffffffffffffffffffffffffffffff0483118215151615611a0e57611a0e611a7e565b500290565b600082821015611a2557611a25611a7e565b500390565b600181811c90821680611a3e57607f821691505b60208210811415611a78577f4e487b7100000000000000000000000000000000000000000000000000000000600052602260045260246000fd5b50919050565b7f4e487b7100000000000000000000000000000000000000000000000000000000600052601160045260246000fd5b73ffffffffffffffffffffffffffffffffffffffff81168114610fd257600080fdfea26469706673582212209fdea71eec3bb1e8e77f93573a8553b13bfb7650945acd03be8813d3d447198b64736f6c63430008040033608060405234801561001057600080fd5b50604051610c36380380610c3683398101604081905261002f916100b9565b61003833610069565b600180546001600160a01b039384166001600160a01b0319918216179091556002805492909316911617905561010a565b600080546001600160a01b038381166001600160a01b0319831681178455604051919092169283917f8be0079c531659141344cd1fd0a4f28419497f9722a3daafe3b4186f6b6457e09190a35050565b600080604083850312156100cb578182fd5b82516100d6816100f2565b60208401519092506100e7816100f2565b809150509250929050565b6001600160a01b038116811461010757600080fd5b50565b610b1d806101196000396000f3fe608060405234801561001057600080fd5b50600436106100675760003560e01c80638da5cb5b116100505780638da5cb5b14610089578063d9caed12146100b5578063f2fde38b146100c857600080fd5b80634d4c23a81461006c578063715018a614610081575b600080fd5b61007f61007a366004610a23565b6100db565b005b61007f6101d5565b6000546040805173ffffffffffffffffffffffffffffffffffffffff9092168252519081900360200190f35b61007f6100c33660046109c8565b610262565b61007f6100d63660046109ae565b61045b565b60025473ffffffffffffffffffffffffffffffffffffffff1633146101ad576040517f08c379a000000000000000000000000000000000000000000000000000000000815260206004820152604d60248201527f5661756c7454656d706c654d616e616765723a204f6e6c792054656d7065457860448201527f706f737572652063616e2072656465656d2074656d706c65206f6e206265686160648201527f6c66206f662061207661756c7400000000000000000000000000000000000000608482015260a4015b60405180910390fd5b6001546101d19073ffffffffffffffffffffffffffffffffffffffff16828461058b565b5050565b60005473ffffffffffffffffffffffffffffffffffffffff163314610256576040517f08c379a000000000000000000000000000000000000000000000000000000000815260206004820181905260248201527f4f776e61626c653a2063616c6c6572206973206e6f7420746865206f776e657260448201526064016101a4565b6102606000610618565b565b60005473ffffffffffffffffffffffffffffffffffffffff1633146102e3576040517f08c379a000000000000000000000000000000000000000000000000000000000815260206004820181905260248201527f4f776e61626c653a2063616c6c6572206973206e6f7420746865206f776e657260448201526064016101a4565b73ffffffffffffffffffffffffffffffffffffffff8216610360576040517f08c379a000000000000000000000000000000000000000000000000000000000815260206004820152600f60248201527f746f2061646472657373207a65726f000000000000000000000000000000000060448201526064016101a4565b73ffffffffffffffffffffffffffffffffffffffff831661044b5760008273ffffffffffffffffffffffffffffffffffffffff168260405160006040518083038185875af1925050503d80600081146103d5576040519150601f19603f3d011682016040523d82523d6000602084013e6103da565b606091505b5050905080610445576040517f08c379a000000000000000000000000000000000000000000000000000000000815260206004820152600b60248201527f73656e64206661696c656400000000000000000000000000000000000000000060448201526064016101a4565b50505050565b61045683838361058b565b505050565b60005473ffffffffffffffffffffffffffffffffffffffff1633146104dc576040517f08c379a000000000000000000000000000000000000000000000000000000000815260206004820181905260248201527f4f776e61626c653a2063616c6c6572206973206e6f7420746865206f776e657260448201526064016101a4565b73ffffffffffffffffffffffffffffffffffffffff811661057f576040517f08c379a000000000000000000000000000000000000000000000000000000000815260206004820152602660248201527f4f776e61626c653a206e6577206f776e657220697320746865207a65726f206160448201527f646472657373000000000000000000000000000000000000000000000000000060648201526084016101a4565b61058881610618565b50565b6040805173ffffffffffffffffffffffffffffffffffffffff8416602482015260448082018490528251808303909101815260649091019091526020810180517bffffffffffffffffffffffffffffffffffffffffffffffffffffffff167fa9059cbb0000000000000000000000000000000000000000000000000000000017905261045690849061068d565b6000805473ffffffffffffffffffffffffffffffffffffffff8381167fffffffffffffffffffffffff0000000000000000000000000000000000000000831681178455604051919092169283917f8be0079c531659141344cd1fd0a4f28419497f9722a3daafe3b4186f6b6457e09190a35050565b60006106ef826040518060400160405280602081526020017f5361666545524332303a206c6f772d6c6576656c2063616c6c206661696c65648152508573ffffffffffffffffffffffffffffffffffffffff166107999092919063ffffffff16565b805190915015610456578080602001905181019061070d9190610a03565b610456576040517f08c379a000000000000000000000000000000000000000000000000000000000815260206004820152602a60248201527f5361666545524332303a204552433230206f7065726174696f6e20646964206e60448201527f6f7420737563636565640000000000000000000000000000000000000000000060648201526084016101a4565b60606107a884846000856107b2565b90505b9392505050565b606082471015610844576040517f08c379a000000000000000000000000000000000000000000000000000000000815260206004820152602660248201527f416464726573733a20696e73756666696369656e742062616c616e636520666f60448201527f722063616c6c000000000000000000000000000000000000000000000000000060648201526084016101a4565b843b6108ac576040517f08c379a000000000000000000000000000000000000000000000000000000000815260206004820152601d60248201527f416464726573733a2063616c6c20746f206e6f6e2d636f6e747261637400000060448201526064016101a4565b6000808673ffffffffffffffffffffffffffffffffffffffff1685876040516108d59190610a4e565b60006040518083038185875af1925050503d8060008114610912576040519150601f19603f3d011682016040523d82523d6000602084013e610917565b606091505b5091509150610927828286610932565b979650505050505050565b606083156109415750816107ab565b8251156109515782518084602001fd5b816040517f08c379a00000000000000000000000000000000000000000000000000000000081526004016101a49190610a6a565b803573ffffffffffffffffffffffffffffffffffffffff811681146109a957600080fd5b919050565b6000602082840312156109bf578081fd5b6107ab82610985565b6000806000606084860312156109dc578182fd5b6109e584610985565b92506109f360208501610985565b9150604084013590509250925092565b600060208284031215610a14578081fd5b815180151581146107ab578182fd5b60008060408385031215610a35578182fd5b82359150610a4560208401610985565b90509250929050565b60008251610a60818460208701610abb565b9190910192915050565b6020815260008251806020840152610a89816040850160208701610abb565b601f017fffffffffffffffffffffffffffffffffffffffffffffffffffffffffffffffe0169190910160400192915050565b60005b83811015610ad6578181015183820152602001610abe565b83811115610445575050600091015256fea2646970667358221220c51aaaab22230d09f15ceafe7a6ff25b9e9299219c9a31ee1641b675b130183064736f6c63430008040033",
  "linkReferences": {
    "contracts/core/OpsManagerLib.sol": {
      "OpsManagerLib": [
        {
          "length": 20,
          "start": 2141
        },
        {
          "length": 20,
          "start": 4556
        },
        {
          "length": 20,
          "start": 7886
        }
      ]
    }
  },
  "deployedLinkReferences": {
    "contracts/core/OpsManagerLib.sol": {
      "OpsManagerLib": [
        {
          "length": 20,
          "start": 1430
        },
        {
          "length": 20,
          "start": 3845
        },
        {
          "length": 20,
          "start": 7175
        }
      ]
    }
  }
}