{
  "_format": "hh-sol-artifact-1",
  "contractName": "Vault",
  "sourceName": "contracts/core/Vault.sol",
  "abi": [
    {
      "inputs": [
        {
          "internalType": "string",
          "name": "_name",
          "type": "string"
        },
        {
          "internalType": "string",
          "name": "_symbol",
          "type": "string"
        },
        {
          "internalType": "contract IERC20",
          "name": "_templeToken",
          "type": "address"
        },
        {
          "internalType": "contract Exposure",
          "name": "_templeExposureToken",
          "type": "address"
        },
        {
          "internalType": "address",
          "name": "_vaultedTempleAccount",
          "type": "address"
        },
        {
          "internalType": "uint256",
          "name": "_periodDuration",
          "type": "uint256"
        },
        {
          "internalType": "uint256",
          "name": "_enterExitWindowDuration",
          "type": "uint256"
        },
        {
          "components": [
            {
              "internalType": "uint256",
              "name": "p",
              "type": "uint256"
            },
            {
              "internalType": "uint256",
              "name": "q",
              "type": "uint256"
            }
          ],
          "internalType": "struct Rational",
          "name": "_shareBoostFactory",
          "type": "tuple"
        },
        {
          "internalType": "contract JoiningFee",
          "name": "_joiningFee",
          "type": "address"
        },
        {
          "internalType": "uint256",
          "name": "_firstPeriodStartTimestamp",
          "type": "uint256"
        }
      ],
      "stateMutability": "nonpayable",
      "type": "constructor"
    },
    {
      "anonymous": false,
      "inputs": [
        {
          "indexed": true,
          "internalType": "address",
          "name": "owner",
          "type": "address"
        },
        {
          "indexed": true,
          "internalType": "address",
          "name": "spender",
          "type": "address"
        },
        {
          "indexed": false,
          "internalType": "uint256",
          "name": "value",
          "type": "uint256"
        }
      ],
      "name": "Approval",
      "type": "event"
    },
    {
      "anonymous": false,
      "inputs": [
        {
          "indexed": false,
          "internalType": "address",
          "name": "account",
          "type": "address"
        },
        {
          "indexed": false,
          "internalType": "uint256",
          "name": "amount",
          "type": "uint256"
        },
        {
          "indexed": false,
          "internalType": "uint256",
          "name": "amountStaked",
          "type": "uint256"
        }
      ],
      "name": "Deposit",
      "type": "event"
    },
    {
      "anonymous": false,
      "inputs": [
        {
          "indexed": true,
          "internalType": "address",
          "name": "previousOwner",
          "type": "address"
        },
        {
          "indexed": true,
          "internalType": "address",
          "name": "newOwner",
          "type": "address"
        }
      ],
      "name": "OwnershipTransferred",
      "type": "event"
    },
    {
      "anonymous": false,
      "inputs": [
        {
          "indexed": true,
          "internalType": "address",
          "name": "from",
          "type": "address"
        },
        {
          "indexed": true,
          "internalType": "address",
          "name": "to",
          "type": "address"
        },
        {
          "indexed": false,
          "internalType": "uint256",
          "name": "value",
          "type": "uint256"
        }
      ],
      "name": "Transfer",
      "type": "event"
    },
    {
      "anonymous": false,
      "inputs": [
        {
          "indexed": false,
          "internalType": "address",
          "name": "account",
          "type": "address"
        },
        {
          "indexed": false,
          "internalType": "uint256",
          "name": "amount",
          "type": "uint256"
        }
      ],
      "name": "Withdraw",
      "type": "event"
    },
    {
      "inputs": [],
      "name": "DOMAIN_SEPARATOR",
      "outputs": [
        {
          "internalType": "bytes32",
          "name": "",
          "type": "bytes32"
        }
      ],
      "stateMutability": "view",
      "type": "function"
    },
    {
      "inputs": [],
      "name": "ENTER_EXIT_WINDOW_BUFFER",
      "outputs": [
        {
          "internalType": "uint256",
          "name": "",
          "type": "uint256"
        }
      ],
      "stateMutability": "view",
      "type": "function"
    },
    {
      "inputs": [],
      "name": "WITHDRAW_FOR_TYPEHASH",
      "outputs": [
        {
          "internalType": "bytes32",
          "name": "",
          "type": "bytes32"
        }
      ],
      "stateMutability": "view",
      "type": "function"
    },
    {
      "inputs": [
        {
          "internalType": "address",
          "name": "",
          "type": "address"
        }
      ],
      "name": "_nonces",
      "outputs": [
        {
          "internalType": "uint256",
          "name": "_value",
          "type": "uint256"
        }
      ],
      "stateMutability": "view",
      "type": "function"
    },
    {
      "inputs": [
        {
          "internalType": "address",
          "name": "owner",
          "type": "address"
        },
        {
          "internalType": "address",
          "name": "spender",
          "type": "address"
        }
      ],
      "name": "allowance",
      "outputs": [
        {
          "internalType": "uint256",
          "name": "",
          "type": "uint256"
        }
      ],
      "stateMutability": "view",
      "type": "function"
    },
    {
      "inputs": [],
      "name": "amountPerShare",
      "outputs": [
        {
          "internalType": "uint256",
          "name": "p",
          "type": "uint256"
        },
        {
          "internalType": "uint256",
          "name": "q",
          "type": "uint256"
        }
      ],
      "stateMutability": "view",
      "type": "function"
    },
    {
      "inputs": [
        {
          "internalType": "address",
          "name": "spender",
          "type": "address"
        },
        {
          "internalType": "uint256",
          "name": "amount",
          "type": "uint256"
        }
      ],
      "name": "approve",
      "outputs": [
        {
          "internalType": "bool",
          "name": "",
          "type": "bool"
        }
      ],
      "stateMutability": "nonpayable",
      "type": "function"
    },
    {
      "inputs": [
        {
          "internalType": "address",
          "name": "account",
          "type": "address"
        }
      ],
      "name": "balanceOf",
      "outputs": [
        {
          "internalType": "uint256",
          "name": "",
          "type": "uint256"
        }
      ],
      "stateMutability": "view",
      "type": "function"
    },
    {
      "inputs": [],
      "name": "canEnter",
      "outputs": [
        {
          "internalType": "bool",
          "name": "",
          "type": "bool"
        }
      ],
      "stateMutability": "view",
      "type": "function"
    },
    {
      "inputs": [],
      "name": "canExit",
      "outputs": [
        {
          "internalType": "bool",
          "name": "",
          "type": "bool"
        }
      ],
      "stateMutability": "view",
      "type": "function"
    },
    {
      "inputs": [],
      "name": "decimals",
      "outputs": [
        {
          "internalType": "uint8",
          "name": "",
          "type": "uint8"
        }
      ],
      "stateMutability": "view",
      "type": "function"
    },
    {
      "inputs": [
        {
          "internalType": "address",
          "name": "spender",
          "type": "address"
        },
        {
          "internalType": "uint256",
          "name": "subtractedValue",
          "type": "uint256"
        }
      ],
      "name": "decreaseAllowance",
      "outputs": [
        {
          "internalType": "bool",
          "name": "",
          "type": "bool"
        }
      ],
      "stateMutability": "nonpayable",
      "type": "function"
    },
    {
      "inputs": [
        {
          "internalType": "uint256",
          "name": "amount",
          "type": "uint256"
        }
      ],
      "name": "deposit",
      "outputs": [],
      "stateMutability": "nonpayable",
      "type": "function"
    },
    {
      "inputs": [
        {
          "internalType": "address",
          "name": "_account",
          "type": "address"
        },
        {
          "internalType": "uint256",
          "name": "_amount",
          "type": "uint256"
        }
      ],
      "name": "depositFor",
      "outputs": [],
      "stateMutability": "nonpayable",
      "type": "function"
    },
    {
      "inputs": [],
      "name": "enterExitWindowDuration",
      "outputs": [
        {
          "internalType": "uint256",
          "name": "",
          "type": "uint256"
        }
      ],
      "stateMutability": "view",
      "type": "function"
    },
    {
      "inputs": [],
      "name": "firstPeriodStartTimestamp",
      "outputs": [
        {
          "internalType": "uint256",
          "name": "",
          "type": "uint256"
        }
      ],
      "stateMutability": "view",
      "type": "function"
    },
    {
      "inputs": [],
      "name": "inEnterExitWindow",
      "outputs": [
        {
          "internalType": "uint256",
          "name": "cycleNumber",
          "type": "uint256"
        },
        {
          "internalType": "bool",
          "name": "inWindow",
          "type": "bool"
        }
      ],
      "stateMutability": "view",
      "type": "function"
    },
    {
      "inputs": [
        {
          "internalType": "address",
          "name": "spender",
          "type": "address"
        },
        {
          "internalType": "uint256",
          "name": "addedValue",
          "type": "uint256"
        }
      ],
      "name": "increaseAllowance",
      "outputs": [
        {
          "internalType": "bool",
          "name": "",
          "type": "bool"
        }
      ],
      "stateMutability": "nonpayable",
      "type": "function"
    },
    {
      "inputs": [],
      "name": "joiningFee",
      "outputs": [
        {
          "internalType": "contract JoiningFee",
          "name": "",
          "type": "address"
        }
      ],
      "stateMutability": "view",
      "type": "function"
    },
    {
      "inputs": [],
      "name": "name",
      "outputs": [
        {
          "internalType": "string",
          "name": "",
          "type": "string"
        }
      ],
      "stateMutability": "view",
      "type": "function"
    },
    {
      "inputs": [
        {
          "internalType": "address",
          "name": "owner",
          "type": "address"
        }
      ],
      "name": "nonces",
      "outputs": [
        {
          "internalType": "uint256",
          "name": "",
          "type": "uint256"
        }
      ],
      "stateMutability": "view",
      "type": "function"
    },
    {
      "inputs": [],
      "name": "owner",
      "outputs": [
        {
          "internalType": "address",
          "name": "",
          "type": "address"
        }
      ],
      "stateMutability": "view",
      "type": "function"
    },
    {
      "inputs": [],
      "name": "periodDuration",
      "outputs": [
        {
          "internalType": "uint256",
          "name": "",
          "type": "uint256"
        }
      ],
      "stateMutability": "view",
      "type": "function"
    },
    {
      "inputs": [
        {
          "internalType": "contract Exposure[]",
          "name": "exposures",
          "type": "address[]"
        }
      ],
      "name": "redeemExposures",
      "outputs": [],
      "stateMutability": "nonpayable",
      "type": "function"
    },
    {
      "inputs": [],
      "name": "renounceOwnership",
      "outputs": [],
      "stateMutability": "nonpayable",
      "type": "function"
    },
    {
      "inputs": [
        {
          "internalType": "address",
          "name": "",
          "type": "address"
        }
      ],
      "name": "shareBalanceOf",
      "outputs": [
        {
          "internalType": "uint256",
          "name": "",
          "type": "uint256"
        }
      ],
      "stateMutability": "view",
      "type": "function"
    },
    {
      "inputs": [],
      "name": "shareBoostFactor",
      "outputs": [
        {
          "internalType": "uint256",
          "name": "p",
          "type": "uint256"
        },
        {
          "internalType": "uint256",
          "name": "q",
          "type": "uint256"
        }
      ],
      "stateMutability": "view",
      "type": "function"
    },
    {
      "inputs": [],
      "name": "symbol",
      "outputs": [
        {
          "internalType": "string",
          "name": "",
          "type": "string"
        }
      ],
      "stateMutability": "view",
      "type": "function"
    },
    {
      "inputs": [],
      "name": "targetRevenueShare",
      "outputs": [
        {
          "internalType": "uint256",
          "name": "",
          "type": "uint256"
        }
      ],
      "stateMutability": "view",
      "type": "function"
    },
    {
      "inputs": [],
      "name": "templeExposureToken",
      "outputs": [
        {
          "internalType": "contract Exposure",
          "name": "",
          "type": "address"
        }
      ],
      "stateMutability": "view",
      "type": "function"
    },
    {
      "inputs": [],
      "name": "templeToken",
      "outputs": [
        {
          "internalType": "contract IERC20",
          "name": "",
          "type": "address"
        }
      ],
      "stateMutability": "view",
      "type": "function"
    },
    {
      "inputs": [
        {
          "internalType": "uint256",
          "name": "tokenAmount",
          "type": "uint256"
        }
      ],
      "name": "toSharesAmount",
      "outputs": [
        {
          "internalType": "uint256",
          "name": "sharesAmount",
          "type": "uint256"
        }
      ],
      "stateMutability": "view",
      "type": "function"
    },
    {
      "inputs": [
        {
          "internalType": "uint256",
          "name": "sharesAmount",
          "type": "uint256"
        }
      ],
      "name": "toTokenAmount",
      "outputs": [
        {
          "internalType": "uint256",
          "name": "tokenAmount",
          "type": "uint256"
        }
      ],
      "stateMutability": "view",
      "type": "function"
    },
    {
      "inputs": [],
      "name": "totalShares",
      "outputs": [
        {
          "internalType": "uint256",
          "name": "",
          "type": "uint256"
        }
      ],
      "stateMutability": "view",
      "type": "function"
    },
    {
      "inputs": [],
      "name": "totalSupply",
      "outputs": [
        {
          "internalType": "uint256",
          "name": "",
          "type": "uint256"
        }
      ],
      "stateMutability": "view",
      "type": "function"
    },
    {
      "inputs": [
        {
          "internalType": "address",
          "name": "recipient",
          "type": "address"
        },
        {
          "internalType": "uint256",
          "name": "amount",
          "type": "uint256"
        }
      ],
      "name": "transfer",
      "outputs": [
        {
          "internalType": "bool",
          "name": "",
          "type": "bool"
        }
      ],
      "stateMutability": "nonpayable",
      "type": "function"
    },
    {
      "inputs": [
        {
          "internalType": "address",
          "name": "sender",
          "type": "address"
        },
        {
          "internalType": "address",
          "name": "recipient",
          "type": "address"
        },
        {
          "internalType": "uint256",
          "name": "amount",
          "type": "uint256"
        }
      ],
      "name": "transferFrom",
      "outputs": [
        {
          "internalType": "bool",
          "name": "",
          "type": "bool"
        }
      ],
      "stateMutability": "nonpayable",
      "type": "function"
    },
    {
      "inputs": [
        {
          "internalType": "address",
          "name": "newOwner",
          "type": "address"
        }
      ],
      "name": "transferOwnership",
      "outputs": [],
      "stateMutability": "nonpayable",
      "type": "function"
    },
    {
      "inputs": [],
      "name": "vaultedTempleAccount",
      "outputs": [
        {
          "internalType": "address",
          "name": "",
          "type": "address"
        }
      ],
      "stateMutability": "view",
      "type": "function"
    },
    {
      "inputs": [
        {
          "internalType": "uint256",
          "name": "amount",
          "type": "uint256"
        }
      ],
      "name": "withdraw",
      "outputs": [],
      "stateMutability": "nonpayable",
      "type": "function"
    },
    {
      "inputs": [
        {
          "internalType": "address",
          "name": "owner",
          "type": "address"
        },
        {
          "internalType": "uint256",
          "name": "amount",
          "type": "uint256"
        },
        {
          "internalType": "uint256",
          "name": "deadline",
          "type": "uint256"
        },
        {
          "internalType": "uint8",
          "name": "v",
          "type": "uint8"
        },
        {
          "internalType": "bytes32",
          "name": "r",
          "type": "bytes32"
        },
        {
          "internalType": "bytes32",
          "name": "s",
          "type": "bytes32"
        }
      ],
      "name": "withdrawFor",
      "outputs": [],
      "stateMutability": "nonpayable",
      "type": "function"
    }
  ],
  "bytecode": "0x6102406040527f826f68b7f2dc717b262281384d6e69ddaba3805f6e37a8c771db2cc5d6ba4013610140523480156200003757600080fd5b50604051620033f2380380620033f28339810160408190526200005a916200039d565b60408051808201825260018152603160f81b6020918201528b518c82012060e08190527fc89efdaa54c0f20c7adf612882df0950f5a951637e0307cdcb4c672f298b8bc66101008190524660a081815285517f8b73c3c69bb8fe3d512ecc4cf759cc79239f7b179b0ffacaa9a75d522b39400f81870181905281880195909552606081810194909452608080820193909352308183018190528751808303909301835260c09182019097528151919095012090529290921b90526101205289896200012533620001a8565b81516200013a906004906020850190620001f8565b50805162000150906005906020840190620001f8565b5050506001600160601b0319606098891b81166101605296881b87166101805294871b86166101a0526101e09390935261020091909152805160095560200151600a5590921b16610220526101c05250620005079050565b600080546001600160a01b038381166001600160a01b0319831681178455604051919092169283917f8be0079c531659141344cd1fd0a4f28419497f9722a3daafe3b4186f6b6457e09190a35050565b8280546200020690620004b4565b90600052602060002090601f0160209004810192826200022a576000855562000275565b82601f106200024557805160ff191683800117855562000275565b8280016001018555821562000275579182015b828111156200027557825182559160200191906001019062000258565b506200028392915062000287565b5090565b5b8082111562000283576000815560010162000288565b80516001600160a01b0381168114620002b657600080fd5b919050565b600082601f830112620002cc578081fd5b81516001600160401b03811115620002e857620002e8620004f1565b6020620002fe601f8301601f1916820162000481565b828152858284870101111562000312578384fd5b835b838110156200033157858101830151828201840152820162000314565b838111156200034257848385840101525b5095945050505050565b6000604082840312156200035e578081fd5b604080519081016001600160401b0381118282101715620003835762000383620004f1565b604052825181526020928301519281019290925250919050565b6000806000806000806000806000806101608b8d031215620003bd578586fd5b8a516001600160401b0380821115620003d4578788fd5b620003e28e838f01620002bb565b9b5060208d0151915080821115620003f8578788fd5b50620004078d828e01620002bb565b9950506200041860408c016200029e565b97506200042860608c016200029e565b96506200043860808c016200029e565b955060a08b0151945060c08b01519350620004578c60e08d016200034c565b9250620004686101208c016200029e565b91506101408b015190509295989b9194979a5092959850565b604051601f8201601f191681016001600160401b0381118282101715620004ac57620004ac620004f1565b604052919050565b600181811c90821680620004c957607f821691505b60208210811415620004eb57634e487b7160e01b600052602260045260246000fd5b50919050565b634e487b7160e01b600052604160045260246000fd5b60805160a05160c05160601c60e0516101005161012051610140516101605160601c6101805160601c6101a05160601c6101c0516101e051610200516102205160601c612dc46200062e600039600081816104720152610b870152600081816106b3015261108f0152600081816105d001528181610b580152818161103401526110d401526000818161041b01528181610b32015281816110030152818161105801526110b00152600081816106790152610d0d01526000818161051b01528181610d67015281816112280152818161133601526117c80152600081816105a90152610ceb0152600081816104f4015261074801526000611f4801526000611f9701526000611f7201526000611ecb01526000611ef501526000611f1f0152612dc46000f3fe608060405234801561001057600080fd5b50600436106102d35760003560e01c806370a0823111610186578063a9059cbb116100e3578063b9844d8d11610097578063e1eda8f911610071578063e1eda8f914610674578063f2fde38b1461069b578063fc1d3de2146106ae57600080fd5b8063b9844d8d14610605578063bca8371f14610625578063dd62ed3e1461062e57600080fd5b8063b1a9069c116100c8578063b1a9069c146105a4578063b470aade146105cb578063b6b55f25146105f257600080fd5b8063a9059cbb1461057e578063b0ff11061461059157600080fd5b806382dad8ac1161013a57806395d89b411161011f57806395d89b411461055b578063981fc37214610563578063a457c2d71461056b57600080fd5b806382dad8ac146105165780638da5cb5b1461053d57600080fd5b80637c5a227c1161016b5780637c5a227c146104d45780637ecebe00146104dc57806381771329146104ef57600080fd5b806370a08231146104b9578063715018a6146104cc57600080fd5b80633644e515116102345780634473ad52116101e85780636823920a116101cd5780636823920a1461043d5780636b2f1417146104505780636eeeaaa51461046d57600080fd5b80634473ad52146103f657806363ceec651461041657600080fd5b80633a98ef39116102195780633a98ef39146103dd5780633d355f76146103e657806341ffb72e146103ee57600080fd5b80633644e515146103c257806339509351146103ca57600080fd5b806323b872dd1161028b5780632f4f21e2116102705780632f4f21e21461037d578063313ce56714610390578063341533d91461039f57600080fd5b806323b872dd146103575780632e1a7d4d1461036a57600080fd5b8063095ea7b3116102bc578063095ea7b31461030b578063174e4ea61461032e57806318160ddd1461034f57600080fd5b8063061e5844146102d857806306fdde03146102ed575b600080fd5b6102eb6102e63660046129b4565b6106d5565b005b6102f5610897565b6040516103029190612b65565b60405180910390f35b61031e610319366004612989565b610929565b6040519015158152602001610302565b61034161033c366004612b19565b61093f565b604051908152602001610302565b61034161096e565b61031e610365366004612949565b610980565b6102eb610378366004612b19565b610a68565b6102eb61038b366004612989565b610a76565b60405160128152602001610302565b600954600a546103ad919082565b60408051928352602083019190915201610302565b610341610e37565b61031e6103d8366004612989565b610e41565b61034160065481565b61031e610e8a565b61031e610e95565b6103416104043660046128f5565b60076020526000908152604090205481565b6103417f000000000000000000000000000000000000000000000000000000000000000081565b6102eb61044b366004612a14565b610eba565b610458610ffe565b60408051928352901515602083015201610302565b6104947f000000000000000000000000000000000000000000000000000000000000000081565b60405173ffffffffffffffffffffffffffffffffffffffff9091168152602001610302565b6103416104c73660046128f5565b61111e565b6102eb611153565b6103ad6111e0565b6103416104ea3660046128f5565b6112c3565b6103417f000000000000000000000000000000000000000000000000000000000000000081565b6104947f000000000000000000000000000000000000000000000000000000000000000081565b60005473ffffffffffffffffffffffffffffffffffffffff16610494565b6102f56112ee565b6103416112fd565b61031e610579366004612989565b6113d9565b61031e61058c366004612989565b6114b1565b61034161059f366004612b19565b6114be565b6104947f000000000000000000000000000000000000000000000000000000000000000081565b6103417f000000000000000000000000000000000000000000000000000000000000000081565b6102eb610600366004612b19565b6114db565b6103416106133660046128f5565b60086020526000908152604090205481565b61034161012c81565b61034161063c366004612911565b73ffffffffffffffffffffffffffffffffffffffff918216600090815260026020908152604080832093909416825291909152205490565b6104947f000000000000000000000000000000000000000000000000000000000000000081565b6102eb6106a93660046128f5565b6114e5565b6103417f000000000000000000000000000000000000000000000000000000000000000081565b83421115610744576040517f08c379a000000000000000000000000000000000000000000000000000000000815260206004820152601760248201527f5661756c743a206578706972656420646561646c696e6500000000000000000060448201526064015b60405180910390fd5b60007f0000000000000000000000000000000000000000000000000000000000000000873388886107748c611612565b60408051602081019790975273ffffffffffffffffffffffffffffffffffffffff95861690870152939092166060850152608084015260a083015260c082015260e00160405160208183030381529060405280519060200120905060006107da82611647565b905060006107ea828787876116b0565b90508873ffffffffffffffffffffffffffffffffffffffff168173ffffffffffffffffffffffffffffffffffffffff1614610881576040517f08c379a000000000000000000000000000000000000000000000000000000000815260206004820152601860248201527f5661756c743a20696e76616c6964207369676e61747572650000000000000000604482015260640161073b565b61088c89338a6116d8565b505050505050505050565b6060600480546108a690612c87565b80601f01602080910402602001604051908101604052809291908181526020018280546108d290612c87565b801561091f5780601f106108f45761010080835404028352916020019161091f565b820191906000526020600020905b81548152906001019060200180831161090257829003601f168201915b5050505050905090565b6000610936338484611879565b50600192915050565b600080600061094c6111e0565b90925090508061095c8386612c07565b6109669190612bce565b949350505050565b600061097b60065461093f565b905090565b600061098d848484611a2d565b73ffffffffffffffffffffffffffffffffffffffff8416600090815260026020908152604080832033845290915290205482811015610a4e576040517f08c379a000000000000000000000000000000000000000000000000000000000815260206004820152602860248201527f45524332303a207472616e7366657220616d6f756e742065786365656473206160448201527f6c6c6f77616e6365000000000000000000000000000000000000000000000000606482015260840161073b565b610a5b8533858403611879565b60019150505b9392505050565b610a733333836116d8565b50565b610a7e610e8a565b610b0a576040517f08c379a000000000000000000000000000000000000000000000000000000000815260206004820152603a60248201527f5661756c743a2043616e6e6f74206a6f696e207661756c74207768656e206f7560448201527f7473696465206f6620656e7465722f657869742077696e646f77000000000000606482015260840161073b565b6040517f07e7cc270000000000000000000000000000000000000000000000000000000081527f000000000000000000000000000000000000000000000000000000000000000060048201527f000000000000000000000000000000000000000000000000000000000000000060248201523060448201526000907f000000000000000000000000000000000000000000000000000000000000000073ffffffffffffffffffffffffffffffffffffffff16906307e7cc279060640160206040518083038186803b158015610bde57600080fd5b505afa158015610bf2573d6000803e3d6000fd5b505050506040513d601f19601f82011682018060405250810190610c169190612b31565b90506000670de0b6b3a7640000610c2d8385612c07565b610c379190612bce565b9050808311610cc8576040517f08c379a000000000000000000000000000000000000000000000000000000000815260206004820152603160248201527f5661756c743a2043616e6e6f74206a6f696e207768656e20666565206973206860448201527f6967686572207468616e20616d6f756e74000000000000000000000000000000606482015260840161073b565b6000610cd48285612c44565b90508315610dd957610ce68582611cf0565b610d327f0000000000000000000000000000000000000000000000000000000000000000337f000000000000000000000000000000000000000000000000000000000000000087611e16565b6040517f40c10f19000000000000000000000000000000000000000000000000000000008152306004820152602481018590527f000000000000000000000000000000000000000000000000000000000000000073ffffffffffffffffffffffffffffffffffffffff16906340c10f1990604401600060405180830381600087803b158015610dc057600080fd5b505af1158015610dd4573d6000803e3d6000fd5b505050505b6040805173ffffffffffffffffffffffffffffffffffffffff87168152602081018690529081018290527f90890809c654f11d6e72a28fa60149770a0d11ec6c92319d6ceb2bb0a4ea1a159060600160405180910390a15050505050565b600061097b611eb1565b33600081815260026020908152604080832073ffffffffffffffffffffffffffffffffffffffff871684529091528120549091610936918590610e85908690612bb6565b611879565b600080610a61610ffe565b6000806000610ea2610ffe565b91509150808015610eb35750600082115b9250505090565b60005473ffffffffffffffffffffffffffffffffffffffff163314610f3b576040517f08c379a000000000000000000000000000000000000000000000000000000000815260206004820181905260248201527f4f776e61626c653a2063616c6c6572206973206e6f7420746865206f776e6572604482015260640161073b565b60005b8151811015610ffa57818181518110610f80577f4e487b7100000000000000000000000000000000000000000000000000000000600052603260045260246000fd5b602002602001015173ffffffffffffffffffffffffffffffffffffffff1663be040fb06040518163ffffffff1660e01b8152600401600060405180830381600087803b158015610fcf57600080fd5b505af1158015610fe3573d6000803e3d6000fd5b505050508080610ff290612cd5565b915050610f3e565b5050565b6000807f00000000000000000000000000000000000000000000000000000000000000004210156110325750600091829150565b7f000000000000000000000000000000000000000000000000000000000000000061107d7f000000000000000000000000000000000000000000000000000000000000000042612c44565b6110879190612bce565b91504261012c7f00000000000000000000000000000000000000000000000000000000000000007f00000000000000000000000000000000000000000000000000000000000000006110f97f000000000000000000000000000000000000000000000000000000000000000087612c07565b6111039190612bb6565b61110d9190612bb6565b6111179190612bb6565b1190509091565b73ffffffffffffffffffffffffffffffffffffffff811660009081526007602052604081205461114d9061093f565b92915050565b60005473ffffffffffffffffffffffffffffffffffffffff1633146111d4576040517f08c379a000000000000000000000000000000000000000000000000000000000815260206004820181905260248201527f4f776e61626c653a2063616c6c6572206973206e6f7420746865206f776e6572604482015260640161073b565b6111de6000611fe5565b565b6040517f70a08231000000000000000000000000000000000000000000000000000000008152306004820152600090819073ffffffffffffffffffffffffffffffffffffffff7f000000000000000000000000000000000000000000000000000000000000000016906370a082319060240160206040518083038186803b15801561126a57600080fd5b505afa15801561127e573d6000803e3d6000fd5b505050506040513d601f19601f820116820180604052508101906112a29190612b31565b9150600654905081600014156112b757600191505b806112bf5750805b9091565b73ffffffffffffffffffffffffffffffffffffffff811660009081526008602052604081205461114d565b6060600580546108a690612c87565b600a546009546040517f70a0823100000000000000000000000000000000000000000000000000000000815230600482015260009291907f000000000000000000000000000000000000000000000000000000000000000073ffffffffffffffffffffffffffffffffffffffff16906370a082319060240160206040518083038186803b15801561138d57600080fd5b505afa1580156113a1573d6000803e3d6000fd5b505050506040513d601f19601f820116820180604052508101906113c59190612b31565b6113cf9190612c07565b61097b9190612bce565b33600090815260026020908152604080832073ffffffffffffffffffffffffffffffffffffffff861684529091528120548281101561149a576040517f08c379a000000000000000000000000000000000000000000000000000000000815260206004820152602560248201527f45524332303a2064656372656173656420616c6c6f77616e63652062656c6f7760448201527f207a65726f000000000000000000000000000000000000000000000000000000606482015260840161073b565b6114a73385858403611879565b5060019392505050565b6000610936338484611a2d565b60008060006114cb6111e0565b90925090508161095c8286612c07565b610a733382610a76565b60005473ffffffffffffffffffffffffffffffffffffffff163314611566576040517f08c379a000000000000000000000000000000000000000000000000000000000815260206004820181905260248201527f4f776e61626c653a2063616c6c6572206973206e6f7420746865206f776e6572604482015260640161073b565b73ffffffffffffffffffffffffffffffffffffffff8116611609576040517f08c379a000000000000000000000000000000000000000000000000000000000815260206004820152602660248201527f4f776e61626c653a206e6577206f776e657220697320746865207a65726f206160448201527f6464726573730000000000000000000000000000000000000000000000000000606482015260840161073b565b610a7381611fe5565b73ffffffffffffffffffffffffffffffffffffffff811660009081526008602052604090208054600181018255905b50919050565b600061114d611654611eb1565b836040517f19010000000000000000000000000000000000000000000000000000000000006020820152602281018390526042810182905260009060620160405160208183030381529060405280519060200120905092915050565b60008060006116c18787878761205a565b915091506116ce81612172565b5095945050505050565b6116e0610e95565b61176c576040517f08c379a000000000000000000000000000000000000000000000000000000000815260206004820152603a60248201527f5661756c743a2043616e6e6f742065786974207661756c74207768656e206f7560448201527f7473696465206f6620656e7465722f657869742077696e646f77000000000000606482015260840161073b565b801561177c5761177c838261248e565b6040517f982755930000000000000000000000000000000000000000000000000000000081526004810182905273ffffffffffffffffffffffffffffffffffffffff83811660248301527f00000000000000000000000000000000000000000000000000000000000000001690639827559390604401600060405180830381600087803b15801561180c57600080fd5b505af1158015611820573d6000803e3d6000fd5b50506040805173ffffffffffffffffffffffffffffffffffffffff87168152602081018590527f884edad9ce6fa2440d8a54cc123490eb96d2768479d49ff9c7366125a9424364935001905060405180910390a1505050565b73ffffffffffffffffffffffffffffffffffffffff831661191b576040517f08c379a0000000000000000000000000000000000000000000000000000000008152602060048201526024808201527f45524332303a20617070726f76652066726f6d20746865207a65726f2061646460448201527f7265737300000000000000000000000000000000000000000000000000000000606482015260840161073b565b73ffffffffffffffffffffffffffffffffffffffff82166119be576040517f08c379a000000000000000000000000000000000000000000000000000000000815260206004820152602260248201527f45524332303a20617070726f766520746f20746865207a65726f20616464726560448201527f7373000000000000000000000000000000000000000000000000000000000000606482015260840161073b565b73ffffffffffffffffffffffffffffffffffffffff83811660008181526002602090815260408083209487168084529482529182902085905590518481527f8c5be1e5ebec7d5bd14f71427d1e84f3dd0314c0f7b2291e5b200ac8c7c3b92591015b60405180910390a3505050565b73ffffffffffffffffffffffffffffffffffffffff8316611ad0576040517f08c379a000000000000000000000000000000000000000000000000000000000815260206004820152602560248201527f45524332303a207472616e736665722066726f6d20746865207a65726f20616460448201527f6472657373000000000000000000000000000000000000000000000000000000606482015260840161073b565b73ffffffffffffffffffffffffffffffffffffffff8216611b73576040517f08c379a000000000000000000000000000000000000000000000000000000000815260206004820152602360248201527f45524332303a207472616e7366657220746f20746865207a65726f206164647260448201527f6573730000000000000000000000000000000000000000000000000000000000606482015260840161073b565b73ffffffffffffffffffffffffffffffffffffffff831660009081526007602052604081205490611ba3836114be565b905080821015611c35576040517f08c379a000000000000000000000000000000000000000000000000000000000815260206004820152602660248201527f45524332303a207472616e7366657220616d6f756e742065786365656473206260448201527f616c616e63650000000000000000000000000000000000000000000000000000606482015260840161073b565b73ffffffffffffffffffffffffffffffffffffffff8086166000908152600760205260408082208054859003905591861681529081208054839290611c7b908490612bb6565b925050819055508373ffffffffffffffffffffffffffffffffffffffff168573ffffffffffffffffffffffffffffffffffffffff167fddf252ad1be2c89b69c2b068fc378daa952ba7f163c4a11628f55a4df523b3ef85604051611ce191815260200190565b60405180910390a35050505050565b73ffffffffffffffffffffffffffffffffffffffff8216611d6d576040517f08c379a000000000000000000000000000000000000000000000000000000000815260206004820152601f60248201527f45524332303a206d696e7420746f20746865207a65726f206164647265737300604482015260640161073b565b6000611d78826114be565b90508060066000828254611d8c9190612bb6565b909155505073ffffffffffffffffffffffffffffffffffffffff831660009081526007602052604081208054839290611dc6908490612bb6565b909155505060405182815273ffffffffffffffffffffffffffffffffffffffff8416906000907fddf252ad1be2c89b69c2b068fc378daa952ba7f163c4a11628f55a4df523b3ef90602001611a20565b6040805173ffffffffffffffffffffffffffffffffffffffff85811660248301528416604482015260648082018490528251808303909101815260849091019091526020810180517bffffffffffffffffffffffffffffffffffffffffffffffffffffffff167f23b872dd00000000000000000000000000000000000000000000000000000000179052611eab908590612688565b50505050565b60003073ffffffffffffffffffffffffffffffffffffffff7f000000000000000000000000000000000000000000000000000000000000000016148015611f1757507f000000000000000000000000000000000000000000000000000000000000000046145b15611f4157507f000000000000000000000000000000000000000000000000000000000000000090565b50604080517f00000000000000000000000000000000000000000000000000000000000000006020808301919091527f0000000000000000000000000000000000000000000000000000000000000000828401527f000000000000000000000000000000000000000000000000000000000000000060608301524660808301523060a0808401919091528351808403909101815260c0909201909252805191012090565b6000805473ffffffffffffffffffffffffffffffffffffffff8381167fffffffffffffffffffffffff0000000000000000000000000000000000000000831681178455604051919092169283917f8be0079c531659141344cd1fd0a4f28419497f9722a3daafe3b4186f6b6457e09190a35050565b6000807f7fffffffffffffffffffffffffffffff5d576e7357a4501ddfe92f46681b20a08311156120915750600090506003612169565b8460ff16601b141580156120a957508460ff16601c14155b156120ba5750600090506004612169565b6040805160008082526020820180845289905260ff881692820192909252606081018690526080810185905260019060a0016020604051602081039080840390855afa15801561210e573d6000803e3d6000fd5b50506040517fffffffffffffffffffffffffffffffffffffffffffffffffffffffffffffffe0015191505073ffffffffffffffffffffffffffffffffffffffff811661216257600060019250925050612169565b9150600090505b94509492505050565b60008160048111156121ad577f4e487b7100000000000000000000000000000000000000000000000000000000600052602160045260246000fd5b14156121b65750565b60018160048111156121f1577f4e487b7100000000000000000000000000000000000000000000000000000000600052602160045260246000fd5b1415612259576040517f08c379a000000000000000000000000000000000000000000000000000000000815260206004820152601860248201527f45434453413a20696e76616c6964207369676e61747572650000000000000000604482015260640161073b565b6002816004811115612294577f4e487b7100000000000000000000000000000000000000000000000000000000600052602160045260246000fd5b14156122fc576040517f08c379a000000000000000000000000000000000000000000000000000000000815260206004820152601f60248201527f45434453413a20696e76616c6964207369676e6174757265206c656e67746800604482015260640161073b565b6003816004811115612337577f4e487b7100000000000000000000000000000000000000000000000000000000600052602160045260246000fd5b14156123c5576040517f08c379a000000000000000000000000000000000000000000000000000000000815260206004820152602260248201527f45434453413a20696e76616c6964207369676e6174757265202773272076616c60448201527f7565000000000000000000000000000000000000000000000000000000000000606482015260840161073b565b6004816004811115612400577f4e487b7100000000000000000000000000000000000000000000000000000000600052602160045260246000fd5b1415610a73576040517f08c379a000000000000000000000000000000000000000000000000000000000815260206004820152602260248201527f45434453413a20696e76616c6964207369676e6174757265202776272076616c60448201527f7565000000000000000000000000000000000000000000000000000000000000606482015260840161073b565b73ffffffffffffffffffffffffffffffffffffffff8216612531576040517f08c379a000000000000000000000000000000000000000000000000000000000815260206004820152602160248201527f45524332303a206275726e2066726f6d20746865207a65726f2061646472657360448201527f7300000000000000000000000000000000000000000000000000000000000000606482015260840161073b565b73ffffffffffffffffffffffffffffffffffffffff821660009081526007602052604081205490612561836114be565b9050808210156125f3576040517f08c379a000000000000000000000000000000000000000000000000000000000815260206004820152602260248201527f45524332303a206275726e20616d6f756e7420657863656564732062616c616e60448201527f6365000000000000000000000000000000000000000000000000000000000000606482015260840161073b565b73ffffffffffffffffffffffffffffffffffffffff8416600090815260076020526040812082840390556006805483929061262f908490612c44565b909155505060405183815260009073ffffffffffffffffffffffffffffffffffffffff8616907fddf252ad1be2c89b69c2b068fc378daa952ba7f163c4a11628f55a4df523b3ef9060200160405180910390a350505050565b60006126ea826040518060400160405280602081526020017f5361666545524332303a206c6f772d6c6576656c2063616c6c206661696c65648152508573ffffffffffffffffffffffffffffffffffffffff166127999092919063ffffffff16565b80519091501561279457808060200190518101906127089190612af9565b612794576040517f08c379a000000000000000000000000000000000000000000000000000000000815260206004820152602a60248201527f5361666545524332303a204552433230206f7065726174696f6e20646964206e60448201527f6f74207375636365656400000000000000000000000000000000000000000000606482015260840161073b565b505050565b6060610966848460008585843b61280c576040517f08c379a000000000000000000000000000000000000000000000000000000000815260206004820152601d60248201527f416464726573733a2063616c6c20746f206e6f6e2d636f6e7472616374000000604482015260640161073b565b6000808673ffffffffffffffffffffffffffffffffffffffff1685876040516128359190612b49565b60006040518083038185875af1925050503d8060008114612872576040519150601f19603f3d011682016040523d82523d6000602084013e612877565b606091505b5091509150612887828286612892565b979650505050505050565b606083156128a1575081610a61565b8251156128b15782518084602001fd5b816040517f08c379a000000000000000000000000000000000000000000000000000000000815260040161073b9190612b65565b80356128f081612d6c565b919050565b600060208284031215612906578081fd5b8135610a6181612d6c565b60008060408385031215612923578081fd5b823561292e81612d6c565b9150602083013561293e81612d6c565b809150509250929050565b60008060006060848603121561295d578081fd5b833561296881612d6c565b9250602084013561297881612d6c565b929592945050506040919091013590565b6000806040838503121561299b578182fd5b82356129a681612d6c565b946020939093013593505050565b60008060008060008060c087890312156129cc578182fd5b86356129d781612d6c565b95506020870135945060408701359350606087013560ff811681146129fa578283fd5b9598949750929560808101359460a0909101359350915050565b60006020808385031215612a26578182fd5b823567ffffffffffffffff80821115612a3d578384fd5b818501915085601f830112612a50578384fd5b813581811115612a6257612a62612d3d565b8060051b6040517fffffffffffffffffffffffffffffffffffffffffffffffffffffffffffffffe0603f83011681018181108582111715612aa557612aa5612d3d565b604052828152858101935084860182860187018a1015612ac3578788fd5b8795505b83861015612aec57612ad8816128e5565b855260019590950194938601938601612ac7565b5098975050505050505050565b600060208284031215612b0a578081fd5b81518015158114610a61578182fd5b600060208284031215612b2a578081fd5b5035919050565b600060208284031215612b42578081fd5b5051919050565b60008251612b5b818460208701612c5b565b9190910192915050565b6020815260008251806020840152612b84816040850160208701612c5b565b601f017fffffffffffffffffffffffffffffffffffffffffffffffffffffffffffffffe0169190910160400192915050565b60008219821115612bc957612bc9612d0e565b500190565b600082612c02577f4e487b710000000000000000000000000000000000000000000000000000000081526012600452602481fd5b500490565b6000817fffffffffffffffffffffffffffffffffffffffffffffffffffffffffffffffff0483118215151615612c3f57612c3f612d0e565b500290565b600082821015612c5657612c56612d0e565b500390565b60005b83811015612c76578181015183820152602001612c5e565b83811115611eab5750506000910152565b600181811c90821680612c9b57607f821691505b60208210811415611641577f4e487b7100000000000000000000000000000000000000000000000000000000600052602260045260246000fd5b60007fffffffffffffffffffffffffffffffffffffffffffffffffffffffffffffffff821415612d0757612d07612d0e565b5060010190565b7f4e487b7100000000000000000000000000000000000000000000000000000000600052601160045260246000fd5b7f4e487b7100000000000000000000000000000000000000000000000000000000600052604160045260246000fd5b73ffffffffffffffffffffffffffffffffffffffff81168114610a7357600080fdfea26469706673582212200e36cf53c0a5c42e3a16897eae33531dd51c68632077fcb4cc9114509fe86a0464736f6c63430008040033",
  "linkReferences": {},
  "deployedLinkReferences": {}
}