{
  "_format": "hh-sol-artifact-1",
  "contractName": "Vault",
  "sourceName": "contracts/core/Vault.sol",
  "abi": [
    {
      "inputs": [
        {
          "internalType": "string",
          "name": "_name",
          "type": "string"
        },
        {
          "internalType": "string",
          "name": "_symbol",
          "type": "string"
        },
        {
          "internalType": "contract IERC20",
          "name": "_templeToken",
          "type": "address"
        },
        {
          "internalType": "uint256",
          "name": "_periodDuration",
          "type": "uint256"
        },
        {
          "internalType": "uint256",
          "name": "_enterExitWindowDuration",
          "type": "uint256"
        },
        {
          "components": [
            {
              "internalType": "uint256",
              "name": "p",
              "type": "uint256"
            },
            {
              "internalType": "uint256",
              "name": "q",
              "type": "uint256"
            }
          ],
          "internalType": "struct Rational",
          "name": "_shareBoostFactory",
          "type": "tuple"
        },
        {
          "internalType": "contract JoiningFee",
          "name": "_joiningFee",
          "type": "address"
        },
        {
          "internalType": "uint256",
          "name": "_firstPeriodStartTimestamp",
          "type": "uint256"
        }
      ],
      "stateMutability": "nonpayable",
      "type": "constructor"
    },
    {
      "anonymous": false,
      "inputs": [
        {
          "indexed": true,
          "internalType": "address",
          "name": "owner",
          "type": "address"
        },
        {
          "indexed": true,
          "internalType": "address",
          "name": "spender",
          "type": "address"
        },
        {
          "indexed": false,
          "internalType": "uint256",
          "name": "value",
          "type": "uint256"
        }
      ],
      "name": "Approval",
      "type": "event"
    },
    {
      "anonymous": false,
      "inputs": [
        {
          "indexed": false,
          "internalType": "address",
          "name": "account",
          "type": "address"
        },
        {
          "indexed": false,
          "internalType": "uint256",
          "name": "amount",
          "type": "uint256"
        },
        {
          "indexed": false,
          "internalType": "uint256",
          "name": "amountStaked",
          "type": "uint256"
        }
      ],
      "name": "Deposit",
      "type": "event"
    },
    {
      "anonymous": false,
      "inputs": [
        {
          "indexed": true,
          "internalType": "address",
          "name": "previousOwner",
          "type": "address"
        },
        {
          "indexed": true,
          "internalType": "address",
          "name": "newOwner",
          "type": "address"
        }
      ],
      "name": "OwnershipTransferred",
      "type": "event"
    },
    {
      "anonymous": false,
      "inputs": [
        {
          "indexed": true,
          "internalType": "address",
          "name": "from",
          "type": "address"
        },
        {
          "indexed": true,
          "internalType": "address",
          "name": "to",
          "type": "address"
        },
        {
          "indexed": false,
          "internalType": "uint256",
          "name": "value",
          "type": "uint256"
        }
      ],
      "name": "Transfer",
      "type": "event"
    },
    {
      "anonymous": false,
      "inputs": [
        {
          "indexed": false,
          "internalType": "address",
          "name": "account",
          "type": "address"
        },
        {
          "indexed": false,
          "internalType": "uint256",
          "name": "amount",
          "type": "uint256"
        }
      ],
      "name": "Withdraw",
      "type": "event"
    },
    {
      "inputs": [],
      "name": "DOMAIN_SEPARATOR",
      "outputs": [
        {
          "internalType": "bytes32",
          "name": "",
          "type": "bytes32"
        }
      ],
      "stateMutability": "view",
      "type": "function"
    },
    {
      "inputs": [],
      "name": "ENTER_EXIT_WINDOW_BUFFER",
      "outputs": [
        {
          "internalType": "uint256",
          "name": "",
          "type": "uint256"
        }
      ],
      "stateMutability": "view",
      "type": "function"
    },
    {
      "inputs": [],
      "name": "WITHDRAW_FOR_TYPEHASH",
      "outputs": [
        {
          "internalType": "bytes32",
          "name": "",
          "type": "bytes32"
        }
      ],
      "stateMutability": "view",
      "type": "function"
    },
    {
      "inputs": [
        {
          "internalType": "address",
          "name": "",
          "type": "address"
        }
      ],
      "name": "_nonces",
      "outputs": [
        {
          "internalType": "uint256",
          "name": "_value",
          "type": "uint256"
        }
      ],
      "stateMutability": "view",
      "type": "function"
    },
    {
      "inputs": [
        {
          "internalType": "address",
          "name": "owner",
          "type": "address"
        },
        {
          "internalType": "address",
          "name": "spender",
          "type": "address"
        }
      ],
      "name": "allowance",
      "outputs": [
        {
          "internalType": "uint256",
          "name": "",
          "type": "uint256"
        }
      ],
      "stateMutability": "view",
      "type": "function"
    },
    {
      "inputs": [],
      "name": "amountPerShare",
      "outputs": [
        {
          "internalType": "uint256",
          "name": "p",
          "type": "uint256"
        },
        {
          "internalType": "uint256",
          "name": "q",
          "type": "uint256"
        }
      ],
      "stateMutability": "view",
      "type": "function"
    },
    {
      "inputs": [
        {
          "internalType": "address",
          "name": "spender",
          "type": "address"
        },
        {
          "internalType": "uint256",
          "name": "amount",
          "type": "uint256"
        }
      ],
      "name": "approve",
      "outputs": [
        {
          "internalType": "bool",
          "name": "",
          "type": "bool"
        }
      ],
      "stateMutability": "nonpayable",
      "type": "function"
    },
    {
      "inputs": [
        {
          "internalType": "address",
          "name": "account",
          "type": "address"
        }
      ],
      "name": "balanceOf",
      "outputs": [
        {
          "internalType": "uint256",
          "name": "",
          "type": "uint256"
        }
      ],
      "stateMutability": "view",
      "type": "function"
    },
    {
      "inputs": [],
      "name": "decimals",
      "outputs": [
        {
          "internalType": "uint8",
          "name": "",
          "type": "uint8"
        }
      ],
      "stateMutability": "view",
      "type": "function"
    },
    {
      "inputs": [
        {
          "internalType": "address",
          "name": "spender",
          "type": "address"
        },
        {
          "internalType": "uint256",
          "name": "subtractedValue",
          "type": "uint256"
        }
      ],
      "name": "decreaseAllowance",
      "outputs": [
        {
          "internalType": "bool",
          "name": "",
          "type": "bool"
        }
      ],
      "stateMutability": "nonpayable",
      "type": "function"
    },
    {
      "inputs": [
        {
          "internalType": "uint256",
          "name": "delta",
          "type": "uint256"
        }
      ],
      "name": "decreaseStartTime",
      "outputs": [],
      "stateMutability": "nonpayable",
      "type": "function"
    },
    {
      "inputs": [
        {
          "internalType": "uint256",
          "name": "amount",
          "type": "uint256"
        }
      ],
      "name": "deposit",
      "outputs": [],
      "stateMutability": "nonpayable",
      "type": "function"
    },
    {
      "inputs": [
        {
          "internalType": "address",
          "name": "_funder",
          "type": "address"
        },
        {
          "internalType": "address",
          "name": "_account",
          "type": "address"
        },
        {
          "internalType": "uint256",
          "name": "_amount",
          "type": "uint256"
        }
      ],
      "name": "depositFor",
      "outputs": [],
      "stateMutability": "nonpayable",
      "type": "function"
    },
    {
      "inputs": [],
      "name": "enterExitWindowDuration",
      "outputs": [
        {
          "internalType": "uint256",
          "name": "",
          "type": "uint256"
        }
      ],
      "stateMutability": "view",
      "type": "function"
    },
    {
      "inputs": [],
      "name": "firstPeriodStartTimestamp",
      "outputs": [
        {
          "internalType": "uint256",
          "name": "",
          "type": "uint256"
        }
      ],
      "stateMutability": "view",
      "type": "function"
    },
    {
      "inputs": [],
      "name": "inEnterExitWindow",
      "outputs": [
        {
          "internalType": "bool",
          "name": "",
          "type": "bool"
        }
      ],
      "stateMutability": "view",
      "type": "function"
    },
    {
      "inputs": [
        {
          "internalType": "address",
          "name": "spender",
          "type": "address"
        },
        {
          "internalType": "uint256",
          "name": "addedValue",
          "type": "uint256"
        }
      ],
      "name": "increaseAllowance",
      "outputs": [
        {
          "internalType": "bool",
          "name": "",
          "type": "bool"
        }
      ],
      "stateMutability": "nonpayable",
      "type": "function"
    },
    {
      "inputs": [],
      "name": "joiningFee",
      "outputs": [
        {
          "internalType": "contract JoiningFee",
          "name": "",
          "type": "address"
        }
      ],
      "stateMutability": "view",
      "type": "function"
    },
    {
      "inputs": [],
      "name": "name",
      "outputs": [
        {
          "internalType": "string",
          "name": "",
          "type": "string"
        }
      ],
      "stateMutability": "view",
      "type": "function"
    },
    {
      "inputs": [
        {
          "internalType": "address",
          "name": "owner",
          "type": "address"
        }
      ],
      "name": "nonces",
      "outputs": [
        {
          "internalType": "uint256",
          "name": "",
          "type": "uint256"
        }
      ],
      "stateMutability": "view",
      "type": "function"
    },
    {
      "inputs": [],
      "name": "owner",
      "outputs": [
        {
          "internalType": "address",
          "name": "",
          "type": "address"
        }
      ],
      "stateMutability": "view",
      "type": "function"
    },
    {
      "inputs": [],
      "name": "periodDuration",
      "outputs": [
        {
          "internalType": "uint256",
          "name": "",
          "type": "uint256"
        }
      ],
      "stateMutability": "view",
      "type": "function"
    },
    {
      "inputs": [
        {
          "internalType": "contract Exposure[]",
          "name": "exposures",
          "type": "address[]"
        }
      ],
      "name": "redeemExposures",
      "outputs": [],
      "stateMutability": "nonpayable",
      "type": "function"
    },
    {
      "inputs": [],
      "name": "renounceOwnership",
      "outputs": [],
      "stateMutability": "nonpayable",
      "type": "function"
    },
    {
      "inputs": [
        {
          "internalType": "address",
          "name": "",
          "type": "address"
        }
      ],
      "name": "shareBalanceOf",
      "outputs": [
        {
          "internalType": "uint256",
          "name": "",
          "type": "uint256"
        }
      ],
      "stateMutability": "view",
      "type": "function"
    },
    {
      "inputs": [],
      "name": "shareBoostFactor",
      "outputs": [
        {
          "internalType": "uint256",
          "name": "p",
          "type": "uint256"
        },
        {
          "internalType": "uint256",
          "name": "q",
          "type": "uint256"
        }
      ],
      "stateMutability": "view",
      "type": "function"
    },
    {
      "inputs": [],
      "name": "symbol",
      "outputs": [
        {
          "internalType": "string",
          "name": "",
          "type": "string"
        }
      ],
      "stateMutability": "view",
      "type": "function"
    },
    {
      "inputs": [],
      "name": "targetRevenueShare",
      "outputs": [
        {
          "internalType": "uint256",
          "name": "",
          "type": "uint256"
        }
      ],
      "stateMutability": "view",
      "type": "function"
    },
    {
      "inputs": [],
      "name": "templeToken",
      "outputs": [
        {
          "internalType": "contract IERC20",
          "name": "",
          "type": "address"
        }
      ],
      "stateMutability": "view",
      "type": "function"
    },
    {
      "inputs": [
        {
          "internalType": "uint256",
          "name": "tokenAmount",
          "type": "uint256"
        }
      ],
      "name": "toSharesAmount",
      "outputs": [
        {
          "internalType": "uint256",
          "name": "sharesAmount",
          "type": "uint256"
        }
      ],
      "stateMutability": "view",
      "type": "function"
    },
    {
      "inputs": [
        {
          "internalType": "uint256",
          "name": "sharesAmount",
          "type": "uint256"
        }
      ],
      "name": "toTokenAmount",
      "outputs": [
        {
          "internalType": "uint256",
          "name": "tokenAmount",
          "type": "uint256"
        }
      ],
      "stateMutability": "view",
      "type": "function"
    },
    {
      "inputs": [],
      "name": "totalShares",
      "outputs": [
        {
          "internalType": "uint256",
          "name": "",
          "type": "uint256"
        }
      ],
      "stateMutability": "view",
      "type": "function"
    },
    {
      "inputs": [],
      "name": "totalSupply",
      "outputs": [
        {
          "internalType": "uint256",
          "name": "",
          "type": "uint256"
        }
      ],
      "stateMutability": "view",
      "type": "function"
    },
    {
      "inputs": [
        {
          "internalType": "address",
          "name": "recipient",
          "type": "address"
        },
        {
          "internalType": "uint256",
          "name": "amount",
          "type": "uint256"
        }
      ],
      "name": "transfer",
      "outputs": [
        {
          "internalType": "bool",
          "name": "",
          "type": "bool"
        }
      ],
      "stateMutability": "nonpayable",
      "type": "function"
    },
    {
      "inputs": [
        {
          "internalType": "address",
          "name": "sender",
          "type": "address"
        },
        {
          "internalType": "address",
          "name": "recipient",
          "type": "address"
        },
        {
          "internalType": "uint256",
          "name": "amount",
          "type": "uint256"
        }
      ],
      "name": "transferFrom",
      "outputs": [
        {
          "internalType": "bool",
          "name": "",
          "type": "bool"
        }
      ],
      "stateMutability": "nonpayable",
      "type": "function"
    },
    {
      "inputs": [
        {
          "internalType": "address",
          "name": "newOwner",
          "type": "address"
        }
      ],
      "name": "transferOwnership",
      "outputs": [],
      "stateMutability": "nonpayable",
      "type": "function"
    },
    {
      "inputs": [
        {
          "internalType": "uint256",
          "name": "amount",
          "type": "uint256"
        }
      ],
      "name": "withdraw",
      "outputs": [],
      "stateMutability": "nonpayable",
      "type": "function"
    },
    {
      "inputs": [
        {
          "internalType": "address",
          "name": "owner",
          "type": "address"
        },
        {
          "internalType": "uint256",
          "name": "amount",
          "type": "uint256"
        },
        {
          "internalType": "uint256",
          "name": "deadline",
          "type": "uint256"
        },
        {
          "internalType": "uint8",
          "name": "v",
          "type": "uint8"
        },
        {
          "internalType": "bytes32",
          "name": "r",
          "type": "bytes32"
        },
        {
          "internalType": "bytes32",
          "name": "s",
          "type": "bytes32"
        }
      ],
      "name": "withdrawFor",
      "outputs": [],
      "stateMutability": "nonpayable",
      "type": "function"
    }
  ],
  "bytecode": "0x6101606040527fb64cd1c65a9d91dac94ce350ef50c7a70ddbc5f0d1deb9c993efa7daa3686038610140523480156200003757600080fd5b506040516200308e3803806200308e8339810160408190526200005a9162000340565b60408051808201825260018152603160f81b60209182015289518a82012060e08190527fc89efdaa54c0f20c7adf612882df0950f5a951637e0307cdcb4c672f298b8bc66101008190524660a081815285517f8b73c3c69bb8fe3d512ecc4cf759cc79239f7b179b0ffacaa9a75d522b39400f81870181905281880195909552606081810194909452608080820193909352308183018190528751808303909301835260c09182019097528151919095012090529290921b90526101205287876200012533620001a7565b81516200013a906004906020850190620001f7565b50805162000150906005906020840190620001f7565b5050600980546001600160a01b03199081166001600160a01b03998a1617909155600b9690965550600c939093558151600d55602090910151600e55600f80549093169316929092179055600a5550620004eb9050565b600080546001600160a01b038381166001600160a01b0319831681178455604051919092169283917f8be0079c531659141344cd1fd0a4f28419497f9722a3daafe3b4186f6b6457e09190a35050565b82805462000205906200047f565b90600052602060002090601f01602090048101928262000229576000855562000274565b82601f106200024457805160ff191683800117855562000274565b8280016001018555821562000274579182015b828111156200027457825182559160200191906001019062000257565b506200028292915062000286565b5090565b5b8082111562000282576000815560010162000287565b8051620002aa81620004d2565b919050565b600082601f830112620002c0578081fd5b81516001600160401b03811115620002dc57620002dc620004bc565b6020620002f2601f8301601f191682016200044c565b828152858284870101111562000306578384fd5b835b838110156200032557858101830151828201840152820162000308565b838111156200033657848385840101525b5095945050505050565b600080600080600080600080888a036101208112156200035e578485fd5b89516001600160401b038082111562000375578687fd5b620003838d838e01620002af565b9a5060208c015191508082111562000399578687fd5b50620003a88c828d01620002af565b98505060408a0151620003bb81620004d2565b60608b015160808c0151919850965094506040609f1982011215620003de578384fd5b50620003e962000421565b60a08a0151815260c08a0151602082015292506200040a60e08a016200029d565b915061010089015190509295985092959890939650565b604080519081016001600160401b0381118282101715620004465762000446620004bc565b60405290565b604051601f8201601f191681016001600160401b0381118282101715620004775762000477620004bc565b604052919050565b600181811c908216806200049457607f821691505b60208210811415620004b657634e487b7160e01b600052602260045260246000fd5b50919050565b634e487b7160e01b600052604160045260246000fd5b6001600160a01b0381168114620004e857600080fd5b50565b60805160a05160c05160601c60e051610100516101205161014051612b3e6200055060003960008181610469015261063f01526000611a6401526000611ab301526000611a8e015260006119e701526000611a1101526000611a3b0152612b3e6000f3fe608060405234801561001057600080fd5b50600436106102925760003560e01c8063715018a611610160578063b0ff1106116100d8578063b9844d8d1161008c578063dd62ed3e11610071578063dd62ed3e1461056a578063f2fde38b146105b0578063fc1d3de2146105c357600080fd5b8063b9844d8d14610541578063bca8371f1461056157600080fd5b8063b3db428b116100bd578063b3db428b14610512578063b470aade14610525578063b6b55f251461052e57600080fd5b8063b0ff1106146104df578063b1a9069c146104f257600080fd5b80638da5cb5b1161012f578063981fc37211610114578063981fc372146104b1578063a457c2d7146104b9578063a9059cbb146104cc57600080fd5b80638da5cb5b1461048b57806395d89b41146104a957600080fd5b8063715018a6146104415780637c5a227c146104495780637ecebe0014610451578063817713291461046457600080fd5b80633644e5151161020e57806363ceec65116101c25780636b2f1417116101a75780636b2f1417146103e15780636eeeaaa5146103e957806370a082311461042e57600080fd5b806363ceec65146103c55780636823920a146103ce57600080fd5b80633a98ef39116101f35780633a98ef39146103895780633c58c877146103925780634473ad52146103a557600080fd5b80633644e5151461036e578063395093511461037657600080fd5b806318160ddd116102655780632e1a7d4d1161024a5780632e1a7d4d14610329578063313ce5671461033c578063341533d91461034b57600080fd5b806318160ddd1461030e57806323b872dd1461031657600080fd5b8063061e58441461029757806306fdde03146102ac578063095ea7b3146102ca578063174e4ea6146102ed575b600080fd5b6102aa6102a536600461272e565b6105cc565b005b6102b461078a565b6040516102c191906128df565b60405180910390f35b6102dd6102d8366004612703565b61081c565b60405190151581526020016102c1565b6103006102fb366004612893565b610832565b6040519081526020016102c1565b610300610861565b6102dd6103243660046126c3565b610873565b6102aa610337366004612893565b61095b565b604051601281526020016102c1565b600d54600e54610359919082565b604080519283526020830191909152016102c1565b610300610969565b6102dd610384366004612703565b610973565b61030060065481565b6102aa6103a0366004612893565b6109bc565b6103006103b336600461266f565b60076020526000908152604090205481565b610300600a5481565b6102aa6103dc36600461278e565b610a57565b6102dd610bae565b600f546104099073ffffffffffffffffffffffffffffffffffffffff1681565b60405173ffffffffffffffffffffffffffffffffffffffff90911681526020016102c1565b61030061043c36600461266f565b610c1c565b6102aa610c51565b610359610cde565b61030061045f36600461266f565b610da5565b6103007f000000000000000000000000000000000000000000000000000000000000000081565b60005473ffffffffffffffffffffffffffffffffffffffff16610409565b6102b4610dd0565b610300610ddf565b6102dd6104c7366004612703565b610e9d565b6102dd6104da366004612703565b610f75565b6103006104ed366004612893565b610f82565b6009546104099073ffffffffffffffffffffffffffffffffffffffff1681565b6102aa6105203660046126c3565b610f9f565b610300600b5481565b6102aa61053c366004612893565b61123c565b61030061054f36600461266f565b60086020526000908152604090205481565b61030061012c81565b61030061057836600461268b565b73ffffffffffffffffffffffffffffffffffffffff918216600090815260026020908152604080832093909416825291909152205490565b6102aa6105be36600461266f565b611247565b610300600c5481565b8342111561063b576040517f08c379a000000000000000000000000000000000000000000000000000000000815260206004820152601760248201527f5661756c743a206578706972656420646561646c696e6500000000000000000060448201526064015b60405180910390fd5b60007f000000000000000000000000000000000000000000000000000000000000000087878761066a8b611374565b60408051602081019690965273ffffffffffffffffffffffffffffffffffffffff909416938501939093526060840191909152608083015260a082015260c00160405160208183030381529060405280519060200120905060006106cd826113a9565b905060006106dd82878787611412565b90508873ffffffffffffffffffffffffffffffffffffffff168173ffffffffffffffffffffffffffffffffffffffff1614610774576040517f08c379a000000000000000000000000000000000000000000000000000000000815260206004820152601860248201527f5661756c743a20696e76616c6964207369676e617475726500000000000000006044820152606401610632565b61077f89338a61143a565b505050505050505050565b60606004805461079990612a01565b80601f01602080910402602001604051908101604052809291908181526020018280546107c590612a01565b80156108125780601f106107e757610100808354040283529160200191610812565b820191906000526020600020905b8154815290600101906020018083116107f557829003601f168201915b5050505050905090565b6000610829338484611556565b50600192915050565b600080600061083f610cde565b90925090508061084f8386612981565b6108599190612948565b949350505050565b600061086e600654610832565b905090565b600061088084848461170a565b73ffffffffffffffffffffffffffffffffffffffff8416600090815260026020908152604080832033845290915290205482811015610941576040517f08c379a000000000000000000000000000000000000000000000000000000000815260206004820152602860248201527f45524332303a207472616e7366657220616d6f756e742065786365656473206160448201527f6c6c6f77616e63650000000000000000000000000000000000000000000000006064820152608401610632565b61094e8533858403611556565b60019150505b9392505050565b61096633338361143a565b50565b600061086e6119cd565b33600081815260026020908152604080832073ffffffffffffffffffffffffffffffffffffffff8716845290915281205490916108299185906109b7908690612930565b611556565b60005473ffffffffffffffffffffffffffffffffffffffff163314610a3d576040517f08c379a000000000000000000000000000000000000000000000000000000000815260206004820181905260248201527f4f776e61626c653a2063616c6c6572206973206e6f7420746865206f776e65726044820152606401610632565b80600a6000828254610a4f91906129be565b909155505050565b610a5f610bae565b610aeb576040517f08c379a000000000000000000000000000000000000000000000000000000000815260206004820152603660248201527f5661756c743a2043616e6e6f742072656465656d207768656e206f757473696460448201527f65206f6620656e7465722f657869742077696e646f77000000000000000000006064820152608401610632565b60005b8151811015610baa57818181518110610b30577f4e487b7100000000000000000000000000000000000000000000000000000000600052603260045260246000fd5b602002602001015173ffffffffffffffffffffffffffffffffffffffff1663be040fb06040518163ffffffff1660e01b8152600401600060405180830381600087803b158015610b7f57600080fd5b505af1158015610b93573d6000803e3d6000fd5b505050508080610ba290612a4f565b915050610aee565b5050565b6000600a54421015610bc05750600090565b6000600b54600a5442610bd391906129be565b610bdd9190612948565b90504261012c600c54600a54600b5485610bf79190612981565b610c019190612930565b610c0b9190612930565b610c159190612930565b1191505090565b73ffffffffffffffffffffffffffffffffffffffff8116600090815260076020526040812054610c4b90610832565b92915050565b60005473ffffffffffffffffffffffffffffffffffffffff163314610cd2576040517f08c379a000000000000000000000000000000000000000000000000000000000815260206004820181905260248201527f4f776e61626c653a2063616c6c6572206973206e6f7420746865206f776e65726044820152606401610632565b610cdc6000611b01565b565b6009546040517f70a08231000000000000000000000000000000000000000000000000000000008152306004820152600091829173ffffffffffffffffffffffffffffffffffffffff909116906370a082319060240160206040518083038186803b158015610d4c57600080fd5b505afa158015610d60573d6000803e3d6000fd5b505050506040513d601f19601f82011682018060405250810190610d8491906128ab565b915060065490508160001415610d9957600191505b80610da15750805b9091565b73ffffffffffffffffffffffffffffffffffffffff8116600090815260086020526040812054610c4b565b60606005805461079990612a01565b600e54600d546009546040517f70a08231000000000000000000000000000000000000000000000000000000008152306004820152600093929173ffffffffffffffffffffffffffffffffffffffff16906370a082319060240160206040518083038186803b158015610e5157600080fd5b505afa158015610e65573d6000803e3d6000fd5b505050506040513d601f19601f82011682018060405250810190610e8991906128ab565b610e939190612981565b61086e9190612948565b33600090815260026020908152604080832073ffffffffffffffffffffffffffffffffffffffff8616845290915281205482811015610f5e576040517f08c379a000000000000000000000000000000000000000000000000000000000815260206004820152602560248201527f45524332303a2064656372656173656420616c6c6f77616e63652062656c6f7760448201527f207a65726f0000000000000000000000000000000000000000000000000000006064820152608401610632565b610f6b3385858403611556565b5060019392505050565b600061082933848461170a565b6000806000610f8f610cde565b90925090508161084f8286612981565b610fa7610bae565b611033576040517f08c379a000000000000000000000000000000000000000000000000000000000815260206004820152603a60248201527f5661756c743a2043616e6e6f74206a6f696e207661756c74207768656e206f7560448201527f7473696465206f6620656e7465722f657869742077696e646f770000000000006064820152608401610632565b600f54600a54600b546040517f07e7cc270000000000000000000000000000000000000000000000000000000081526004810192909252602482015230604482015260009173ffffffffffffffffffffffffffffffffffffffff16906307e7cc279060640160206040518083038186803b1580156110b057600080fd5b505afa1580156110c4573d6000803e3d6000fd5b505050506040513d601f19601f820116820180604052508101906110e891906128ab565b90506000670de0b6b3a76400006110ff8385612981565b6111099190612948565b905080831161119a576040517f08c379a000000000000000000000000000000000000000000000000000000000815260206004820152603160248201527f5661756c743a2043616e6e6f74206a6f696e207768656e20666565206973206860448201527f6967686572207468616e20616d6f756e740000000000000000000000000000006064820152608401610632565b60006111a682856129be565b905083156111dd576111b88582611b76565b6009546111dd9073ffffffffffffffffffffffffffffffffffffffff16873087611c9c565b6040805173ffffffffffffffffffffffffffffffffffffffff87168152602081018690529081018290527f90890809c654f11d6e72a28fa60149770a0d11ec6c92319d6ceb2bb0a4ea1a159060600160405180910390a1505050505050565b610966333383610f9f565b60005473ffffffffffffffffffffffffffffffffffffffff1633146112c8576040517f08c379a000000000000000000000000000000000000000000000000000000000815260206004820181905260248201527f4f776e61626c653a2063616c6c6572206973206e6f7420746865206f776e65726044820152606401610632565b73ffffffffffffffffffffffffffffffffffffffff811661136b576040517f08c379a000000000000000000000000000000000000000000000000000000000815260206004820152602660248201527f4f776e61626c653a206e6577206f776e657220697320746865207a65726f206160448201527f64647265737300000000000000000000000000000000000000000000000000006064820152608401610632565b61096681611b01565b73ffffffffffffffffffffffffffffffffffffffff811660009081526008602052604090208054600181018255905b50919050565b6000610c4b6113b66119cd565b836040517f19010000000000000000000000000000000000000000000000000000000000006020820152602281018390526042810182905260009060620160405160208183030381529060405280519060200120905092915050565b600080600061142387878787611d7e565b9150915061143081611e96565b5095945050505050565b611442610bae565b6114ce576040517f08c379a000000000000000000000000000000000000000000000000000000000815260206004820152603a60248201527f5661756c743a2043616e6e6f742065786974207661756c74207768656e206f7560448201527f7473696465206f6620656e7465722f657869742077696e646f770000000000006064820152608401610632565b80156114de576114de83826121b2565b6009546115029073ffffffffffffffffffffffffffffffffffffffff1683836123ac565b6040805173ffffffffffffffffffffffffffffffffffffffff85168152602081018390527f884edad9ce6fa2440d8a54cc123490eb96d2768479d49ff9c7366125a9424364910160405180910390a1505050565b73ffffffffffffffffffffffffffffffffffffffff83166115f8576040517f08c379a0000000000000000000000000000000000000000000000000000000008152602060048201526024808201527f45524332303a20617070726f76652066726f6d20746865207a65726f2061646460448201527f72657373000000000000000000000000000000000000000000000000000000006064820152608401610632565b73ffffffffffffffffffffffffffffffffffffffff821661169b576040517f08c379a000000000000000000000000000000000000000000000000000000000815260206004820152602260248201527f45524332303a20617070726f766520746f20746865207a65726f20616464726560448201527f73730000000000000000000000000000000000000000000000000000000000006064820152608401610632565b73ffffffffffffffffffffffffffffffffffffffff83811660008181526002602090815260408083209487168084529482529182902085905590518481527f8c5be1e5ebec7d5bd14f71427d1e84f3dd0314c0f7b2291e5b200ac8c7c3b92591015b60405180910390a3505050565b73ffffffffffffffffffffffffffffffffffffffff83166117ad576040517f08c379a000000000000000000000000000000000000000000000000000000000815260206004820152602560248201527f45524332303a207472616e736665722066726f6d20746865207a65726f20616460448201527f64726573730000000000000000000000000000000000000000000000000000006064820152608401610632565b73ffffffffffffffffffffffffffffffffffffffff8216611850576040517f08c379a000000000000000000000000000000000000000000000000000000000815260206004820152602360248201527f45524332303a207472616e7366657220746f20746865207a65726f206164647260448201527f65737300000000000000000000000000000000000000000000000000000000006064820152608401610632565b73ffffffffffffffffffffffffffffffffffffffff83166000908152600760205260408120549061188083610f82565b905080821015611912576040517f08c379a000000000000000000000000000000000000000000000000000000000815260206004820152602660248201527f45524332303a207472616e7366657220616d6f756e742065786365656473206260448201527f616c616e636500000000000000000000000000000000000000000000000000006064820152608401610632565b73ffffffffffffffffffffffffffffffffffffffff8086166000908152600760205260408082208054859003905591861681529081208054839290611958908490612930565b925050819055508373ffffffffffffffffffffffffffffffffffffffff168573ffffffffffffffffffffffffffffffffffffffff167fddf252ad1be2c89b69c2b068fc378daa952ba7f163c4a11628f55a4df523b3ef856040516119be91815260200190565b60405180910390a35050505050565b60003073ffffffffffffffffffffffffffffffffffffffff7f000000000000000000000000000000000000000000000000000000000000000016148015611a3357507f000000000000000000000000000000000000000000000000000000000000000046145b15611a5d57507f000000000000000000000000000000000000000000000000000000000000000090565b50604080517f00000000000000000000000000000000000000000000000000000000000000006020808301919091527f0000000000000000000000000000000000000000000000000000000000000000828401527f000000000000000000000000000000000000000000000000000000000000000060608301524660808301523060a0808401919091528351808403909101815260c0909201909252805191012090565b6000805473ffffffffffffffffffffffffffffffffffffffff8381167fffffffffffffffffffffffff0000000000000000000000000000000000000000831681178455604051919092169283917f8be0079c531659141344cd1fd0a4f28419497f9722a3daafe3b4186f6b6457e09190a35050565b73ffffffffffffffffffffffffffffffffffffffff8216611bf3576040517f08c379a000000000000000000000000000000000000000000000000000000000815260206004820152601f60248201527f45524332303a206d696e7420746f20746865207a65726f2061646472657373006044820152606401610632565b6000611bfe82610f82565b90508060066000828254611c129190612930565b909155505073ffffffffffffffffffffffffffffffffffffffff831660009081526007602052604081208054839290611c4c908490612930565b909155505060405182815273ffffffffffffffffffffffffffffffffffffffff8416906000907fddf252ad1be2c89b69c2b068fc378daa952ba7f163c4a11628f55a4df523b3ef906020016116fd565b60405173ffffffffffffffffffffffffffffffffffffffff80851660248301528316604482015260648101829052611d789085907f23b872dd00000000000000000000000000000000000000000000000000000000906084015b604080517fffffffffffffffffffffffffffffffffffffffffffffffffffffffffffffffe08184030181529190526020810180517bffffffffffffffffffffffffffffffffffffffffffffffffffffffff167fffffffff0000000000000000000000000000000000000000000000000000000090931692909217909152612407565b50505050565b6000807f7fffffffffffffffffffffffffffffff5d576e7357a4501ddfe92f46681b20a0831115611db55750600090506003611e8d565b8460ff16601b14158015611dcd57508460ff16601c14155b15611dde5750600090506004611e8d565b6040805160008082526020820180845289905260ff881692820192909252606081018690526080810185905260019060a0016020604051602081039080840390855afa158015611e32573d6000803e3d6000fd5b50506040517fffffffffffffffffffffffffffffffffffffffffffffffffffffffffffffffe0015191505073ffffffffffffffffffffffffffffffffffffffff8116611e8657600060019250925050611e8d565b9150600090505b94509492505050565b6000816004811115611ed1577f4e487b7100000000000000000000000000000000000000000000000000000000600052602160045260246000fd5b1415611eda5750565b6001816004811115611f15577f4e487b7100000000000000000000000000000000000000000000000000000000600052602160045260246000fd5b1415611f7d576040517f08c379a000000000000000000000000000000000000000000000000000000000815260206004820152601860248201527f45434453413a20696e76616c6964207369676e617475726500000000000000006044820152606401610632565b6002816004811115611fb8577f4e487b7100000000000000000000000000000000000000000000000000000000600052602160045260246000fd5b1415612020576040517f08c379a000000000000000000000000000000000000000000000000000000000815260206004820152601f60248201527f45434453413a20696e76616c6964207369676e6174757265206c656e677468006044820152606401610632565b600381600481111561205b577f4e487b7100000000000000000000000000000000000000000000000000000000600052602160045260246000fd5b14156120e9576040517f08c379a000000000000000000000000000000000000000000000000000000000815260206004820152602260248201527f45434453413a20696e76616c6964207369676e6174757265202773272076616c60448201527f75650000000000000000000000000000000000000000000000000000000000006064820152608401610632565b6004816004811115612124577f4e487b7100000000000000000000000000000000000000000000000000000000600052602160045260246000fd5b1415610966576040517f08c379a000000000000000000000000000000000000000000000000000000000815260206004820152602260248201527f45434453413a20696e76616c6964207369676e6174757265202776272076616c60448201527f75650000000000000000000000000000000000000000000000000000000000006064820152608401610632565b73ffffffffffffffffffffffffffffffffffffffff8216612255576040517f08c379a000000000000000000000000000000000000000000000000000000000815260206004820152602160248201527f45524332303a206275726e2066726f6d20746865207a65726f2061646472657360448201527f73000000000000000000000000000000000000000000000000000000000000006064820152608401610632565b73ffffffffffffffffffffffffffffffffffffffff82166000908152600760205260408120549061228583610f82565b905080821015612317576040517f08c379a000000000000000000000000000000000000000000000000000000000815260206004820152602260248201527f45524332303a206275726e20616d6f756e7420657863656564732062616c616e60448201527f63650000000000000000000000000000000000000000000000000000000000006064820152608401610632565b73ffffffffffffffffffffffffffffffffffffffff841660009081526007602052604081208284039055600680548392906123539084906129be565b909155505060405183815260009073ffffffffffffffffffffffffffffffffffffffff8616907fddf252ad1be2c89b69c2b068fc378daa952ba7f163c4a11628f55a4df523b3ef9060200160405180910390a350505050565b60405173ffffffffffffffffffffffffffffffffffffffff83166024820152604481018290526124029084907fa9059cbb0000000000000000000000000000000000000000000000000000000090606401611cf6565b505050565b6000612469826040518060400160405280602081526020017f5361666545524332303a206c6f772d6c6576656c2063616c6c206661696c65648152508573ffffffffffffffffffffffffffffffffffffffff166125139092919063ffffffff16565b80519091501561240257808060200190518101906124879190612873565b612402576040517f08c379a000000000000000000000000000000000000000000000000000000000815260206004820152602a60248201527f5361666545524332303a204552433230206f7065726174696f6e20646964206e60448201527f6f742073756363656564000000000000000000000000000000000000000000006064820152608401610632565b6060610859848460008585843b612586576040517f08c379a000000000000000000000000000000000000000000000000000000000815260206004820152601d60248201527f416464726573733a2063616c6c20746f206e6f6e2d636f6e74726163740000006044820152606401610632565b6000808673ffffffffffffffffffffffffffffffffffffffff1685876040516125af91906128c3565b60006040518083038185875af1925050503d80600081146125ec576040519150601f19603f3d011682016040523d82523d6000602084013e6125f1565b606091505b509150915061260182828661260c565b979650505050505050565b6060831561261b575081610954565b82511561262b5782518084602001fd5b816040517f08c379a000000000000000000000000000000000000000000000000000000000815260040161063291906128df565b803561266a81612ae6565b919050565b600060208284031215612680578081fd5b813561095481612ae6565b6000806040838503121561269d578081fd5b82356126a881612ae6565b915060208301356126b881612ae6565b809150509250929050565b6000806000606084860312156126d7578081fd5b83356126e281612ae6565b925060208401356126f281612ae6565b929592945050506040919091013590565b60008060408385031215612715578182fd5b823561272081612ae6565b946020939093013593505050565b60008060008060008060c08789031215612746578182fd5b863561275181612ae6565b95506020870135945060408701359350606087013560ff81168114612774578283fd5b9598949750929560808101359460a0909101359350915050565b600060208083850312156127a0578182fd5b823567ffffffffffffffff808211156127b7578384fd5b818501915085601f8301126127ca578384fd5b8135818111156127dc576127dc612ab7565b8060051b6040517fffffffffffffffffffffffffffffffffffffffffffffffffffffffffffffffe0603f8301168101818110858211171561281f5761281f612ab7565b604052828152858101935084860182860187018a101561283d578788fd5b8795505b83861015612866576128528161265f565b855260019590950194938601938601612841565b5098975050505050505050565b600060208284031215612884578081fd5b81518015158114610954578182fd5b6000602082840312156128a4578081fd5b5035919050565b6000602082840312156128bc578081fd5b5051919050565b600082516128d58184602087016129d5565b9190910192915050565b60208152600082518060208401526128fe8160408501602087016129d5565b601f017fffffffffffffffffffffffffffffffffffffffffffffffffffffffffffffffe0169190910160400192915050565b6000821982111561294357612943612a88565b500190565b60008261297c577f4e487b710000000000000000000000000000000000000000000000000000000081526012600452602481fd5b500490565b6000817fffffffffffffffffffffffffffffffffffffffffffffffffffffffffffffffff04831182151516156129b9576129b9612a88565b500290565b6000828210156129d0576129d0612a88565b500390565b60005b838110156129f05781810151838201526020016129d8565b83811115611d785750506000910152565b600181811c90821680612a1557607f821691505b602082108114156113a3577f4e487b7100000000000000000000000000000000000000000000000000000000600052602260045260246000fd5b60007fffffffffffffffffffffffffffffffffffffffffffffffffffffffffffffffff821415612a8157612a81612a88565b5060010190565b7f4e487b7100000000000000000000000000000000000000000000000000000000600052601160045260246000fd5b7f4e487b7100000000000000000000000000000000000000000000000000000000600052604160045260246000fd5b73ffffffffffffffffffffffffffffffffffffffff8116811461096657600080fdfea2646970667358221220add38959fbdea3d987982ab0cca4b455dc44bcaa3a01215a8f3c6ab000c1700664736f6c63430008040033",
  "linkReferences": {},
  "deployedLinkReferences": {}
}