{
  "_format": "hh-sol-artifact-1",
  "contractName": "Vault",
  "sourceName": "contracts/core/Vault.sol",
  "abi": [
    {
      "inputs": [
        {
          "internalType": "string",
          "name": "_name",
          "type": "string"
        },
        {
          "internalType": "string",
          "name": "_symbol",
          "type": "string"
        },
        {
          "internalType": "contract IERC20",
          "name": "_templeToken",
          "type": "address"
        },
        {
          "internalType": "contract Exposure",
          "name": "_templeExposureToken",
          "type": "address"
        },
        {
          "internalType": "address",
          "name": "_vaultedTempleAccount",
          "type": "address"
        },
        {
          "internalType": "uint256",
          "name": "_periodDuration",
          "type": "uint256"
        },
        {
          "internalType": "uint256",
          "name": "_enterExitWindowDuration",
          "type": "uint256"
        },
        {
          "components": [
            {
              "internalType": "uint256",
              "name": "p",
              "type": "uint256"
            },
            {
              "internalType": "uint256",
              "name": "q",
              "type": "uint256"
            }
          ],
          "internalType": "struct Rational",
          "name": "_shareBoostFactory",
          "type": "tuple"
        },
        {
          "internalType": "contract JoiningFee",
          "name": "_joiningFee",
          "type": "address"
        },
        {
          "internalType": "uint256",
          "name": "_firstPeriodStartTimestamp",
          "type": "uint256"
        }
      ],
      "stateMutability": "nonpayable",
      "type": "constructor"
    },
    {
      "anonymous": false,
      "inputs": [
        {
          "indexed": true,
          "internalType": "address",
          "name": "owner",
          "type": "address"
        },
        {
          "indexed": true,
          "internalType": "address",
          "name": "spender",
          "type": "address"
        },
        {
          "indexed": false,
          "internalType": "uint256",
          "name": "value",
          "type": "uint256"
        }
      ],
      "name": "Approval",
      "type": "event"
    },
    {
      "anonymous": false,
      "inputs": [
        {
          "indexed": false,
          "internalType": "address",
          "name": "account",
          "type": "address"
        },
        {
          "indexed": false,
          "internalType": "uint256",
          "name": "amount",
          "type": "uint256"
        },
        {
          "indexed": false,
          "internalType": "uint256",
          "name": "amountStaked",
          "type": "uint256"
        }
      ],
      "name": "Deposit",
      "type": "event"
    },
    {
      "anonymous": false,
      "inputs": [
        {
          "indexed": true,
          "internalType": "address",
          "name": "previousOwner",
          "type": "address"
        },
        {
          "indexed": true,
          "internalType": "address",
          "name": "newOwner",
          "type": "address"
        }
      ],
      "name": "OwnershipTransferred",
      "type": "event"
    },
    {
      "anonymous": false,
      "inputs": [
        {
          "indexed": true,
          "internalType": "address",
          "name": "from",
          "type": "address"
        },
        {
          "indexed": true,
          "internalType": "address",
          "name": "to",
          "type": "address"
        },
        {
          "indexed": false,
          "internalType": "uint256",
          "name": "value",
          "type": "uint256"
        }
      ],
      "name": "Transfer",
      "type": "event"
    },
    {
      "anonymous": false,
      "inputs": [
        {
          "indexed": false,
          "internalType": "address",
          "name": "account",
          "type": "address"
        },
        {
          "indexed": false,
          "internalType": "uint256",
          "name": "amount",
          "type": "uint256"
        }
      ],
      "name": "Withdraw",
      "type": "event"
    },
    {
      "inputs": [],
      "name": "DOMAIN_SEPARATOR",
      "outputs": [
        {
          "internalType": "bytes32",
          "name": "",
          "type": "bytes32"
        }
      ],
      "stateMutability": "view",
      "type": "function"
    },
    {
      "inputs": [],
      "name": "ENTER_EXIT_WINDOW_BUFFER",
      "outputs": [
        {
          "internalType": "uint256",
          "name": "",
          "type": "uint256"
        }
      ],
      "stateMutability": "view",
      "type": "function"
    },
    {
      "inputs": [],
      "name": "WITHDRAW_FOR_TYPEHASH",
      "outputs": [
        {
          "internalType": "bytes32",
          "name": "",
          "type": "bytes32"
        }
      ],
      "stateMutability": "view",
      "type": "function"
    },
    {
      "inputs": [
        {
          "internalType": "address",
          "name": "",
          "type": "address"
        }
      ],
      "name": "_nonces",
      "outputs": [
        {
          "internalType": "uint256",
          "name": "_value",
          "type": "uint256"
        }
      ],
      "stateMutability": "view",
      "type": "function"
    },
    {
      "inputs": [
        {
          "internalType": "address",
          "name": "owner",
          "type": "address"
        },
        {
          "internalType": "address",
          "name": "spender",
          "type": "address"
        }
      ],
      "name": "allowance",
      "outputs": [
        {
          "internalType": "uint256",
          "name": "",
          "type": "uint256"
        }
      ],
      "stateMutability": "view",
      "type": "function"
    },
    {
      "inputs": [],
      "name": "amountPerShare",
      "outputs": [
        {
          "internalType": "uint256",
          "name": "p",
          "type": "uint256"
        },
        {
          "internalType": "uint256",
          "name": "q",
          "type": "uint256"
        }
      ],
      "stateMutability": "view",
      "type": "function"
    },
    {
      "inputs": [
        {
          "internalType": "address",
          "name": "spender",
          "type": "address"
        },
        {
          "internalType": "uint256",
          "name": "amount",
          "type": "uint256"
        }
      ],
      "name": "approve",
      "outputs": [
        {
          "internalType": "bool",
          "name": "",
          "type": "bool"
        }
      ],
      "stateMutability": "nonpayable",
      "type": "function"
    },
    {
      "inputs": [
        {
          "internalType": "address",
          "name": "account",
          "type": "address"
        }
      ],
      "name": "balanceOf",
      "outputs": [
        {
          "internalType": "uint256",
          "name": "",
          "type": "uint256"
        }
      ],
      "stateMutability": "view",
      "type": "function"
    },
    {
      "inputs": [],
      "name": "decimals",
      "outputs": [
        {
          "internalType": "uint8",
          "name": "",
          "type": "uint8"
        }
      ],
      "stateMutability": "view",
      "type": "function"
    },
    {
      "inputs": [
        {
          "internalType": "address",
          "name": "spender",
          "type": "address"
        },
        {
          "internalType": "uint256",
          "name": "subtractedValue",
          "type": "uint256"
        }
      ],
      "name": "decreaseAllowance",
      "outputs": [
        {
          "internalType": "bool",
          "name": "",
          "type": "bool"
        }
      ],
      "stateMutability": "nonpayable",
      "type": "function"
    },
    {
      "inputs": [
        {
          "internalType": "uint256",
          "name": "delta",
          "type": "uint256"
        }
      ],
      "name": "decreaseStartTime",
      "outputs": [],
      "stateMutability": "nonpayable",
      "type": "function"
    },
    {
      "inputs": [
        {
          "internalType": "uint256",
          "name": "amount",
          "type": "uint256"
        }
      ],
      "name": "deposit",
      "outputs": [],
      "stateMutability": "nonpayable",
      "type": "function"
    },
    {
      "inputs": [
        {
          "internalType": "address",
          "name": "_funder",
          "type": "address"
        },
        {
          "internalType": "address",
          "name": "_account",
          "type": "address"
        },
        {
          "internalType": "uint256",
          "name": "_amount",
          "type": "uint256"
        }
      ],
      "name": "depositFor",
      "outputs": [],
      "stateMutability": "nonpayable",
      "type": "function"
    },
    {
      "inputs": [],
      "name": "enterExitWindowDuration",
      "outputs": [
        {
          "internalType": "uint256",
          "name": "",
          "type": "uint256"
        }
      ],
      "stateMutability": "view",
      "type": "function"
    },
    {
      "inputs": [],
      "name": "firstPeriodStartTimestamp",
      "outputs": [
        {
          "internalType": "uint256",
          "name": "",
          "type": "uint256"
        }
      ],
      "stateMutability": "view",
      "type": "function"
    },
    {
      "inputs": [],
      "name": "inEnterExitWindow",
      "outputs": [
        {
          "internalType": "bool",
          "name": "",
          "type": "bool"
        }
      ],
      "stateMutability": "view",
      "type": "function"
    },
    {
      "inputs": [
        {
          "internalType": "address",
          "name": "spender",
          "type": "address"
        },
        {
          "internalType": "uint256",
          "name": "addedValue",
          "type": "uint256"
        }
      ],
      "name": "increaseAllowance",
      "outputs": [
        {
          "internalType": "bool",
          "name": "",
          "type": "bool"
        }
      ],
      "stateMutability": "nonpayable",
      "type": "function"
    },
    {
      "inputs": [],
      "name": "joiningFee",
      "outputs": [
        {
          "internalType": "contract JoiningFee",
          "name": "",
          "type": "address"
        }
      ],
      "stateMutability": "view",
      "type": "function"
    },
    {
      "inputs": [],
      "name": "name",
      "outputs": [
        {
          "internalType": "string",
          "name": "",
          "type": "string"
        }
      ],
      "stateMutability": "view",
      "type": "function"
    },
    {
      "inputs": [
        {
          "internalType": "address",
          "name": "owner",
          "type": "address"
        }
      ],
      "name": "nonces",
      "outputs": [
        {
          "internalType": "uint256",
          "name": "",
          "type": "uint256"
        }
      ],
      "stateMutability": "view",
      "type": "function"
    },
    {
      "inputs": [],
      "name": "owner",
      "outputs": [
        {
          "internalType": "address",
          "name": "",
          "type": "address"
        }
      ],
      "stateMutability": "view",
      "type": "function"
    },
    {
      "inputs": [],
      "name": "periodDuration",
      "outputs": [
        {
          "internalType": "uint256",
          "name": "",
          "type": "uint256"
        }
      ],
      "stateMutability": "view",
      "type": "function"
    },
    {
      "inputs": [
        {
          "internalType": "contract Exposure[]",
          "name": "exposures",
          "type": "address[]"
        }
      ],
      "name": "redeemExposures",
      "outputs": [],
      "stateMutability": "nonpayable",
      "type": "function"
    },
    {
      "inputs": [],
      "name": "renounceOwnership",
      "outputs": [],
      "stateMutability": "nonpayable",
      "type": "function"
    },
    {
      "inputs": [
        {
          "internalType": "address",
          "name": "",
          "type": "address"
        }
      ],
      "name": "shareBalanceOf",
      "outputs": [
        {
          "internalType": "uint256",
          "name": "",
          "type": "uint256"
        }
      ],
      "stateMutability": "view",
      "type": "function"
    },
    {
      "inputs": [],
      "name": "shareBoostFactor",
      "outputs": [
        {
          "internalType": "uint256",
          "name": "p",
          "type": "uint256"
        },
        {
          "internalType": "uint256",
          "name": "q",
          "type": "uint256"
        }
      ],
      "stateMutability": "view",
      "type": "function"
    },
    {
      "inputs": [],
      "name": "symbol",
      "outputs": [
        {
          "internalType": "string",
          "name": "",
          "type": "string"
        }
      ],
      "stateMutability": "view",
      "type": "function"
    },
    {
      "inputs": [],
      "name": "targetRevenueShare",
      "outputs": [
        {
          "internalType": "uint256",
          "name": "",
          "type": "uint256"
        }
      ],
      "stateMutability": "view",
      "type": "function"
    },
    {
      "inputs": [],
      "name": "templeExposureToken",
      "outputs": [
        {
          "internalType": "contract Exposure",
          "name": "",
          "type": "address"
        }
      ],
      "stateMutability": "view",
      "type": "function"
    },
    {
      "inputs": [],
      "name": "templeToken",
      "outputs": [
        {
          "internalType": "contract IERC20",
          "name": "",
          "type": "address"
        }
      ],
      "stateMutability": "view",
      "type": "function"
    },
    {
      "inputs": [
        {
          "internalType": "uint256",
          "name": "tokenAmount",
          "type": "uint256"
        }
      ],
      "name": "toSharesAmount",
      "outputs": [
        {
          "internalType": "uint256",
          "name": "sharesAmount",
          "type": "uint256"
        }
      ],
      "stateMutability": "view",
      "type": "function"
    },
    {
      "inputs": [
        {
          "internalType": "uint256",
          "name": "sharesAmount",
          "type": "uint256"
        }
      ],
      "name": "toTokenAmount",
      "outputs": [
        {
          "internalType": "uint256",
          "name": "tokenAmount",
          "type": "uint256"
        }
      ],
      "stateMutability": "view",
      "type": "function"
    },
    {
      "inputs": [],
      "name": "totalShares",
      "outputs": [
        {
          "internalType": "uint256",
          "name": "",
          "type": "uint256"
        }
      ],
      "stateMutability": "view",
      "type": "function"
    },
    {
      "inputs": [],
      "name": "totalSupply",
      "outputs": [
        {
          "internalType": "uint256",
          "name": "",
          "type": "uint256"
        }
      ],
      "stateMutability": "view",
      "type": "function"
    },
    {
      "inputs": [
        {
          "internalType": "address",
          "name": "recipient",
          "type": "address"
        },
        {
          "internalType": "uint256",
          "name": "amount",
          "type": "uint256"
        }
      ],
      "name": "transfer",
      "outputs": [
        {
          "internalType": "bool",
          "name": "",
          "type": "bool"
        }
      ],
      "stateMutability": "nonpayable",
      "type": "function"
    },
    {
      "inputs": [
        {
          "internalType": "address",
          "name": "sender",
          "type": "address"
        },
        {
          "internalType": "address",
          "name": "recipient",
          "type": "address"
        },
        {
          "internalType": "uint256",
          "name": "amount",
          "type": "uint256"
        }
      ],
      "name": "transferFrom",
      "outputs": [
        {
          "internalType": "bool",
          "name": "",
          "type": "bool"
        }
      ],
      "stateMutability": "nonpayable",
      "type": "function"
    },
    {
      "inputs": [
        {
          "internalType": "address",
          "name": "newOwner",
          "type": "address"
        }
      ],
      "name": "transferOwnership",
      "outputs": [],
      "stateMutability": "nonpayable",
      "type": "function"
    },
    {
      "inputs": [],
      "name": "vaultedTempleAccount",
      "outputs": [
        {
          "internalType": "address",
          "name": "",
          "type": "address"
        }
      ],
      "stateMutability": "view",
      "type": "function"
    },
    {
      "inputs": [
        {
          "internalType": "uint256",
          "name": "amount",
          "type": "uint256"
        }
      ],
      "name": "withdraw",
      "outputs": [],
      "stateMutability": "nonpayable",
      "type": "function"
    },
    {
      "inputs": [
        {
          "internalType": "address",
          "name": "owner",
          "type": "address"
        },
        {
          "internalType": "uint256",
          "name": "amount",
          "type": "uint256"
        },
        {
          "internalType": "uint256",
          "name": "deadline",
          "type": "uint256"
        },
        {
          "internalType": "uint8",
          "name": "v",
          "type": "uint8"
        },
        {
          "internalType": "bytes32",
          "name": "r",
          "type": "bytes32"
        },
        {
          "internalType": "bytes32",
          "name": "s",
          "type": "bytes32"
        }
      ],
      "name": "withdrawFor",
      "outputs": [],
      "stateMutability": "nonpayable",
      "type": "function"
    }
  ],
  "bytecode": "0x6101606040527fb64cd1c65a9d91dac94ce350ef50c7a70ddbc5f0d1deb9c993efa7daa3686038610140523480156200003757600080fd5b5060405162003199380380620031998339810160408190526200005a91620003ba565b60408051808201825260018152603160f81b6020918201528b518c82012060e08190527fc89efdaa54c0f20c7adf612882df0950f5a951637e0307cdcb4c672f298b8bc66101008190524660a081815285517f8b73c3c69bb8fe3d512ecc4cf759cc79239f7b179b0ffacaa9a75d522b39400f81870181905281880195909552606081810194909452608080820193909352308183018190528751808303909301835260c09182019097528151919095012090529290921b90526101205289896200012533620001c5565b81516200013a90600490602085019062000215565b5080516200015090600590602084019062000215565b5050600980546001600160a01b03199081166001600160a01b039b8c1617909155600a80548216998b169990991790985550600b8054881696891696909617909555600d93909355600e919091558051600f5560200151601055601180549093169316929092179055600c5550620005249050565b600080546001600160a01b038381166001600160a01b0319831681178455604051919092169283917f8be0079c531659141344cd1fd0a4f28419497f9722a3daafe3b4186f6b6457e09190a35050565b8280546200022390620004d1565b90600052602060002090601f01602090048101928262000247576000855562000292565b82601f106200026257805160ff191683800117855562000292565b8280016001018555821562000292579182015b828111156200029257825182559160200191906001019062000275565b50620002a0929150620002a4565b5090565b5b80821115620002a05760008155600101620002a5565b80516001600160a01b0381168114620002d357600080fd5b919050565b600082601f830112620002e9578081fd5b81516001600160401b038111156200030557620003056200050e565b60206200031b601f8301601f191682016200049e565b82815285828487010111156200032f578384fd5b835b838110156200034e57858101830151828201840152820162000331565b838111156200035f57848385840101525b5095945050505050565b6000604082840312156200037b578081fd5b604080519081016001600160401b0381118282101715620003a057620003a06200050e565b604052825181526020928301519281019290925250919050565b6000806000806000806000806000806101608b8d031215620003da578586fd5b8a516001600160401b0380821115620003f1578788fd5b620003ff8e838f01620002d8565b9b5060208d015191508082111562000415578788fd5b50620004248d828e01620002d8565b9950506200043560408c01620002bb565b97506200044560608c01620002bb565b96506200045560808c01620002bb565b955060a08b0151945060c08b01519350620004748c60e08d0162000369565b9250620004856101208c01620002bb565b91506101408b015190509295989b9194979a5092959850565b604051601f8201601f191681016001600160401b0381118282101715620004c957620004c96200050e565b604052919050565b600181811c90821680620004e657607f821691505b602082108114156200050857634e487b7160e01b600052602260045260246000fd5b50919050565b634e487b7160e01b600052604160045260246000fd5b60805160a05160c05160601c60e051610100516101205161014051612c10620005896000396000818161049f01526106b501526000611bd301526000611c2201526000611bfd01526000611b5601526000611b8001526000611baa0152612c106000f3fe608060405234801561001057600080fd5b50600436106102c85760003560e01c80637c5a227c1161017b578063b1a9069c116100d8578063bca8371f1161008c578063e1eda8f911610071578063e1eda8f914610606578063f2fde38b14610626578063fc1d3de21461063957600080fd5b8063bca8371f146105b7578063dd62ed3e146105c057600080fd5b8063b470aade116100bd578063b470aade1461057b578063b6b55f2514610584578063b9844d8d1461059757600080fd5b8063b1a9069c14610548578063b3db428b1461056857600080fd5b806395d89b411161012f578063a457c2d711610114578063a457c2d71461050f578063a9059cbb14610522578063b0ff11061461053557600080fd5b806395d89b41146104ff578063981fc3721461050757600080fd5b80638177132911610160578063817713291461049a57806382dad8ac146104c15780638da5cb5b146104e157600080fd5b80637c5a227c1461047f5780637ecebe001461048757600080fd5b806339509351116102295780636823920a116101dd5780636eeeaaa5116101c25780636eeeaaa51461041f57806370a0823114610464578063715018a61461047757600080fd5b80636823920a146104045780636b2f14171461041757600080fd5b80633c58c8771161020e5780633c58c877146103c85780634473ad52146103db57806363ceec65146103fb57600080fd5b806339509351146103ac5780633a98ef39146103bf57600080fd5b806323b872dd11610280578063313ce56711610265578063313ce56714610372578063341533d9146103815780633644e515146103a457600080fd5b806323b872dd1461034c5780632e1a7d4d1461035f57600080fd5b8063095ea7b3116102b1578063095ea7b314610300578063174e4ea61461032357806318160ddd1461034457600080fd5b8063061e5844146102cd57806306fdde03146102e2575b600080fd5b6102e06102db366004612800565b610642565b005b6102ea610800565b6040516102f791906129b1565b60405180910390f35b61031361030e3660046127d5565b610892565b60405190151581526020016102f7565b610336610331366004612965565b6108a8565b6040519081526020016102f7565b6103366108d7565b61031361035a366004612795565b6108e9565b6102e061036d366004612965565b6109d1565b604051601281526020016102f7565b600f5460105461038f919082565b604080519283526020830191909152016102f7565b6103366109df565b6103136103ba3660046127d5565b6109e9565b61033660065481565b6102e06103d6366004612965565b610a32565b6103366103e9366004612741565b60076020526000908152604090205481565b610336600c5481565b6102e0610412366004612860565b610acd565b610313610c24565b60115461043f9073ffffffffffffffffffffffffffffffffffffffff1681565b60405173ffffffffffffffffffffffffffffffffffffffff90911681526020016102f7565b610336610472366004612741565b610c92565b6102e0610cc7565b61038f610d54565b610336610495366004612741565b610e1b565b6103367f000000000000000000000000000000000000000000000000000000000000000081565b600a5461043f9073ffffffffffffffffffffffffffffffffffffffff1681565b60005473ffffffffffffffffffffffffffffffffffffffff1661043f565b6102ea610e46565b610336610e55565b61031361051d3660046127d5565b610f13565b6103136105303660046127d5565b610feb565b610336610543366004612965565b610ff8565b60095461043f9073ffffffffffffffffffffffffffffffffffffffff1681565b6102e0610576366004612795565b611015565b610336600d5481565b6102e0610592366004612965565b611344565b6103366105a5366004612741565b60086020526000908152604090205481565b61033661012c81565b6103366105ce36600461275d565b73ffffffffffffffffffffffffffffffffffffffff918216600090815260026020908152604080832093909416825291909152205490565b600b5461043f9073ffffffffffffffffffffffffffffffffffffffff1681565b6102e0610634366004612741565b61134f565b610336600e5481565b834211156106b1576040517f08c379a000000000000000000000000000000000000000000000000000000000815260206004820152601760248201527f5661756c743a206578706972656420646561646c696e6500000000000000000060448201526064015b60405180910390fd5b60007f00000000000000000000000000000000000000000000000000000000000000008787876106e08b61147c565b60408051602081019690965273ffffffffffffffffffffffffffffffffffffffff909416938501939093526060840191909152608083015260a082015260c0016040516020818303038152906040528051906020012090506000610743826114b1565b905060006107538287878761151a565b90508873ffffffffffffffffffffffffffffffffffffffff168173ffffffffffffffffffffffffffffffffffffffff16146107ea576040517f08c379a000000000000000000000000000000000000000000000000000000000815260206004820152601860248201527f5661756c743a20696e76616c6964207369676e6174757265000000000000000060448201526064016106a8565b6107f589338a611542565b505050505050505050565b60606004805461080f90612ad3565b80601f016020809104026020016040519081016040528092919081815260200182805461083b90612ad3565b80156108885780601f1061085d57610100808354040283529160200191610888565b820191906000526020600020905b81548152906001019060200180831161086b57829003601f168201915b5050505050905090565b600061089f3384846116c5565b50600192915050565b60008060006108b5610d54565b9092509050806108c58386612a53565b6108cf9190612a1a565b949350505050565b60006108e46006546108a8565b905090565b60006108f6848484611879565b73ffffffffffffffffffffffffffffffffffffffff84166000908152600260209081526040808320338452909152902054828110156109b7576040517f08c379a000000000000000000000000000000000000000000000000000000000815260206004820152602860248201527f45524332303a207472616e7366657220616d6f756e742065786365656473206160448201527f6c6c6f77616e636500000000000000000000000000000000000000000000000060648201526084016106a8565b6109c485338584036116c5565b60019150505b9392505050565b6109dc333383611542565b50565b60006108e4611b3c565b33600081815260026020908152604080832073ffffffffffffffffffffffffffffffffffffffff87168452909152812054909161089f918590610a2d908690612a02565b6116c5565b60005473ffffffffffffffffffffffffffffffffffffffff163314610ab3576040517f08c379a000000000000000000000000000000000000000000000000000000000815260206004820181905260248201527f4f776e61626c653a2063616c6c6572206973206e6f7420746865206f776e657260448201526064016106a8565b80600c6000828254610ac59190612a90565b909155505050565b610ad5610c24565b610b61576040517f08c379a000000000000000000000000000000000000000000000000000000000815260206004820152603660248201527f5661756c743a2043616e6e6f742072656465656d207768656e206f757473696460448201527f65206f6620656e7465722f657869742077696e646f770000000000000000000060648201526084016106a8565b60005b8151811015610c2057818181518110610ba6577f4e487b7100000000000000000000000000000000000000000000000000000000600052603260045260246000fd5b602002602001015173ffffffffffffffffffffffffffffffffffffffff1663be040fb06040518163ffffffff1660e01b8152600401600060405180830381600087803b158015610bf557600080fd5b505af1158015610c09573d6000803e3d6000fd5b505050508080610c1890612b21565b915050610b64565b5050565b6000600c54421015610c365750600090565b6000600d54600c5442610c499190612a90565b610c539190612a1a565b90504261012c600e54600c54600d5485610c6d9190612a53565b610c779190612a02565b610c819190612a02565b610c8b9190612a02565b1191505090565b73ffffffffffffffffffffffffffffffffffffffff8116600090815260076020526040812054610cc1906108a8565b92915050565b60005473ffffffffffffffffffffffffffffffffffffffff163314610d48576040517f08c379a000000000000000000000000000000000000000000000000000000000815260206004820181905260248201527f4f776e61626c653a2063616c6c6572206973206e6f7420746865206f776e657260448201526064016106a8565b610d526000611c70565b565b600a546040517f70a08231000000000000000000000000000000000000000000000000000000008152306004820152600091829173ffffffffffffffffffffffffffffffffffffffff909116906370a082319060240160206040518083038186803b158015610dc257600080fd5b505afa158015610dd6573d6000803e3d6000fd5b505050506040513d601f19601f82011682018060405250810190610dfa919061297d565b915060065490508160001415610e0f57600191505b80610e175750805b9091565b73ffffffffffffffffffffffffffffffffffffffff8116600090815260086020526040812054610cc1565b60606005805461080f90612ad3565b601054600f54600a546040517f70a08231000000000000000000000000000000000000000000000000000000008152306004820152600093929173ffffffffffffffffffffffffffffffffffffffff16906370a082319060240160206040518083038186803b158015610ec757600080fd5b505afa158015610edb573d6000803e3d6000fd5b505050506040513d601f19601f82011682018060405250810190610eff919061297d565b610f099190612a53565b6108e49190612a1a565b33600090815260026020908152604080832073ffffffffffffffffffffffffffffffffffffffff8616845290915281205482811015610fd4576040517f08c379a000000000000000000000000000000000000000000000000000000000815260206004820152602560248201527f45524332303a2064656372656173656420616c6c6f77616e63652062656c6f7760448201527f207a65726f00000000000000000000000000000000000000000000000000000060648201526084016106a8565b610fe133858584036116c5565b5060019392505050565b600061089f338484611879565b6000806000611005610d54565b9092509050816108c58286612a53565b61101d610c24565b6110a9576040517f08c379a000000000000000000000000000000000000000000000000000000000815260206004820152603a60248201527f5661756c743a2043616e6e6f74206a6f696e207661756c74207768656e206f7560448201527f7473696465206f6620656e7465722f657869742077696e646f7700000000000060648201526084016106a8565b601154600c54600d546040517f07e7cc270000000000000000000000000000000000000000000000000000000081526004810192909252602482015230604482015260009173ffffffffffffffffffffffffffffffffffffffff16906307e7cc279060640160206040518083038186803b15801561112657600080fd5b505afa15801561113a573d6000803e3d6000fd5b505050506040513d601f19601f8201168201806040525081019061115e919061297d565b90506000670de0b6b3a76400006111758385612a53565b61117f9190612a1a565b9050808311611210576040517f08c379a000000000000000000000000000000000000000000000000000000000815260206004820152603160248201527f5661756c743a2043616e6e6f74206a6f696e207768656e20666565206973206860448201527f6967686572207468616e20616d6f756e7400000000000000000000000000000060648201526084016106a8565b600061121c8285612a90565b905083156112e55761122e8582611ce5565b600954600b5461125a9173ffffffffffffffffffffffffffffffffffffffff9081169188911687611e0b565b600a546040517f40c10f190000000000000000000000000000000000000000000000000000000081523060048201526024810186905273ffffffffffffffffffffffffffffffffffffffff909116906340c10f1990604401600060405180830381600087803b1580156112cc57600080fd5b505af11580156112e0573d6000803e3d6000fd5b505050505b6040805173ffffffffffffffffffffffffffffffffffffffff87168152602081018690529081018290527f90890809c654f11d6e72a28fa60149770a0d11ec6c92319d6ceb2bb0a4ea1a159060600160405180910390a1505050505050565b6109dc333383611015565b60005473ffffffffffffffffffffffffffffffffffffffff1633146113d0576040517f08c379a000000000000000000000000000000000000000000000000000000000815260206004820181905260248201527f4f776e61626c653a2063616c6c6572206973206e6f7420746865206f776e657260448201526064016106a8565b73ffffffffffffffffffffffffffffffffffffffff8116611473576040517f08c379a000000000000000000000000000000000000000000000000000000000815260206004820152602660248201527f4f776e61626c653a206e6577206f776e657220697320746865207a65726f206160448201527f646472657373000000000000000000000000000000000000000000000000000060648201526084016106a8565b6109dc81611c70565b73ffffffffffffffffffffffffffffffffffffffff811660009081526008602052604090208054600181018255905b50919050565b6000610cc16114be611b3c565b836040517f19010000000000000000000000000000000000000000000000000000000000006020820152602281018390526042810182905260009060620160405160208183030381529060405280519060200120905092915050565b600080600061152b87878787611ea6565b9150915061153881611fbe565b5095945050505050565b61154a610c24565b6115d6576040517f08c379a000000000000000000000000000000000000000000000000000000000815260206004820152603a60248201527f5661756c743a2043616e6e6f742065786974207661756c74207768656e206f7560448201527f7473696465206f6620656e7465722f657869742077696e646f7700000000000060648201526084016106a8565b80156115e6576115e683826122da565b600a546040517f982755930000000000000000000000000000000000000000000000000000000081526004810183905233602482015273ffffffffffffffffffffffffffffffffffffffff90911690639827559390604401600060405180830381600087803b15801561165857600080fd5b505af115801561166c573d6000803e3d6000fd5b50506040805173ffffffffffffffffffffffffffffffffffffffff87168152602081018590527f884edad9ce6fa2440d8a54cc123490eb96d2768479d49ff9c7366125a9424364935001905060405180910390a1505050565b73ffffffffffffffffffffffffffffffffffffffff8316611767576040517f08c379a0000000000000000000000000000000000000000000000000000000008152602060048201526024808201527f45524332303a20617070726f76652066726f6d20746865207a65726f2061646460448201527f726573730000000000000000000000000000000000000000000000000000000060648201526084016106a8565b73ffffffffffffffffffffffffffffffffffffffff821661180a576040517f08c379a000000000000000000000000000000000000000000000000000000000815260206004820152602260248201527f45524332303a20617070726f766520746f20746865207a65726f20616464726560448201527f737300000000000000000000000000000000000000000000000000000000000060648201526084016106a8565b73ffffffffffffffffffffffffffffffffffffffff83811660008181526002602090815260408083209487168084529482529182902085905590518481527f8c5be1e5ebec7d5bd14f71427d1e84f3dd0314c0f7b2291e5b200ac8c7c3b92591015b60405180910390a3505050565b73ffffffffffffffffffffffffffffffffffffffff831661191c576040517f08c379a000000000000000000000000000000000000000000000000000000000815260206004820152602560248201527f45524332303a207472616e736665722066726f6d20746865207a65726f20616460448201527f647265737300000000000000000000000000000000000000000000000000000060648201526084016106a8565b73ffffffffffffffffffffffffffffffffffffffff82166119bf576040517f08c379a000000000000000000000000000000000000000000000000000000000815260206004820152602360248201527f45524332303a207472616e7366657220746f20746865207a65726f206164647260448201527f657373000000000000000000000000000000000000000000000000000000000060648201526084016106a8565b73ffffffffffffffffffffffffffffffffffffffff8316600090815260076020526040812054906119ef83610ff8565b905080821015611a81576040517f08c379a000000000000000000000000000000000000000000000000000000000815260206004820152602660248201527f45524332303a207472616e7366657220616d6f756e742065786365656473206260448201527f616c616e6365000000000000000000000000000000000000000000000000000060648201526084016106a8565b73ffffffffffffffffffffffffffffffffffffffff8086166000908152600760205260408082208054859003905591861681529081208054839290611ac7908490612a02565b925050819055508373ffffffffffffffffffffffffffffffffffffffff168573ffffffffffffffffffffffffffffffffffffffff167fddf252ad1be2c89b69c2b068fc378daa952ba7f163c4a11628f55a4df523b3ef85604051611b2d91815260200190565b60405180910390a35050505050565b60003073ffffffffffffffffffffffffffffffffffffffff7f000000000000000000000000000000000000000000000000000000000000000016148015611ba257507f000000000000000000000000000000000000000000000000000000000000000046145b15611bcc57507f000000000000000000000000000000000000000000000000000000000000000090565b50604080517f00000000000000000000000000000000000000000000000000000000000000006020808301919091527f0000000000000000000000000000000000000000000000000000000000000000828401527f000000000000000000000000000000000000000000000000000000000000000060608301524660808301523060a0808401919091528351808403909101815260c0909201909252805191012090565b6000805473ffffffffffffffffffffffffffffffffffffffff8381167fffffffffffffffffffffffff0000000000000000000000000000000000000000831681178455604051919092169283917f8be0079c531659141344cd1fd0a4f28419497f9722a3daafe3b4186f6b6457e09190a35050565b73ffffffffffffffffffffffffffffffffffffffff8216611d62576040517f08c379a000000000000000000000000000000000000000000000000000000000815260206004820152601f60248201527f45524332303a206d696e7420746f20746865207a65726f20616464726573730060448201526064016106a8565b6000611d6d82610ff8565b90508060066000828254611d819190612a02565b909155505073ffffffffffffffffffffffffffffffffffffffff831660009081526007602052604081208054839290611dbb908490612a02565b909155505060405182815273ffffffffffffffffffffffffffffffffffffffff8416906000907fddf252ad1be2c89b69c2b068fc378daa952ba7f163c4a11628f55a4df523b3ef9060200161186c565b6040805173ffffffffffffffffffffffffffffffffffffffff85811660248301528416604482015260648082018490528251808303909101815260849091019091526020810180517bffffffffffffffffffffffffffffffffffffffffffffffffffffffff167f23b872dd00000000000000000000000000000000000000000000000000000000179052611ea09085906124d4565b50505050565b6000807f7fffffffffffffffffffffffffffffff5d576e7357a4501ddfe92f46681b20a0831115611edd5750600090506003611fb5565b8460ff16601b14158015611ef557508460ff16601c14155b15611f065750600090506004611fb5565b6040805160008082526020820180845289905260ff881692820192909252606081018690526080810185905260019060a0016020604051602081039080840390855afa158015611f5a573d6000803e3d6000fd5b50506040517fffffffffffffffffffffffffffffffffffffffffffffffffffffffffffffffe0015191505073ffffffffffffffffffffffffffffffffffffffff8116611fae57600060019250925050611fb5565b9150600090505b94509492505050565b6000816004811115611ff9577f4e487b7100000000000000000000000000000000000000000000000000000000600052602160045260246000fd5b14156120025750565b600181600481111561203d577f4e487b7100000000000000000000000000000000000000000000000000000000600052602160045260246000fd5b14156120a5576040517f08c379a000000000000000000000000000000000000000000000000000000000815260206004820152601860248201527f45434453413a20696e76616c6964207369676e6174757265000000000000000060448201526064016106a8565b60028160048111156120e0577f4e487b7100000000000000000000000000000000000000000000000000000000600052602160045260246000fd5b1415612148576040517f08c379a000000000000000000000000000000000000000000000000000000000815260206004820152601f60248201527f45434453413a20696e76616c6964207369676e6174757265206c656e6774680060448201526064016106a8565b6003816004811115612183577f4e487b7100000000000000000000000000000000000000000000000000000000600052602160045260246000fd5b1415612211576040517f08c379a000000000000000000000000000000000000000000000000000000000815260206004820152602260248201527f45434453413a20696e76616c6964207369676e6174757265202773272076616c60448201527f756500000000000000000000000000000000000000000000000000000000000060648201526084016106a8565b600481600481111561224c577f4e487b7100000000000000000000000000000000000000000000000000000000600052602160045260246000fd5b14156109dc576040517f08c379a000000000000000000000000000000000000000000000000000000000815260206004820152602260248201527f45434453413a20696e76616c6964207369676e6174757265202776272076616c60448201527f756500000000000000000000000000000000000000000000000000000000000060648201526084016106a8565b73ffffffffffffffffffffffffffffffffffffffff821661237d576040517f08c379a000000000000000000000000000000000000000000000000000000000815260206004820152602160248201527f45524332303a206275726e2066726f6d20746865207a65726f2061646472657360448201527f730000000000000000000000000000000000000000000000000000000000000060648201526084016106a8565b73ffffffffffffffffffffffffffffffffffffffff8216600090815260076020526040812054906123ad83610ff8565b90508082101561243f576040517f08c379a000000000000000000000000000000000000000000000000000000000815260206004820152602260248201527f45524332303a206275726e20616d6f756e7420657863656564732062616c616e60448201527f636500000000000000000000000000000000000000000000000000000000000060648201526084016106a8565b73ffffffffffffffffffffffffffffffffffffffff8416600090815260076020526040812082840390556006805483929061247b908490612a90565b909155505060405183815260009073ffffffffffffffffffffffffffffffffffffffff8616907fddf252ad1be2c89b69c2b068fc378daa952ba7f163c4a11628f55a4df523b3ef9060200160405180910390a350505050565b6000612536826040518060400160405280602081526020017f5361666545524332303a206c6f772d6c6576656c2063616c6c206661696c65648152508573ffffffffffffffffffffffffffffffffffffffff166125e59092919063ffffffff16565b8051909150156125e057808060200190518101906125549190612945565b6125e0576040517f08c379a000000000000000000000000000000000000000000000000000000000815260206004820152602a60248201527f5361666545524332303a204552433230206f7065726174696f6e20646964206e60448201527f6f7420737563636565640000000000000000000000000000000000000000000060648201526084016106a8565b505050565b60606108cf848460008585843b612658576040517f08c379a000000000000000000000000000000000000000000000000000000000815260206004820152601d60248201527f416464726573733a2063616c6c20746f206e6f6e2d636f6e747261637400000060448201526064016106a8565b6000808673ffffffffffffffffffffffffffffffffffffffff1685876040516126819190612995565b60006040518083038185875af1925050503d80600081146126be576040519150601f19603f3d011682016040523d82523d6000602084013e6126c3565b606091505b50915091506126d38282866126de565b979650505050505050565b606083156126ed5750816109ca565b8251156126fd5782518084602001fd5b816040517f08c379a00000000000000000000000000000000000000000000000000000000081526004016106a891906129b1565b803561273c81612bb8565b919050565b600060208284031215612752578081fd5b81356109ca81612bb8565b6000806040838503121561276f578081fd5b823561277a81612bb8565b9150602083013561278a81612bb8565b809150509250929050565b6000806000606084860312156127a9578081fd5b83356127b481612bb8565b925060208401356127c481612bb8565b929592945050506040919091013590565b600080604083850312156127e7578182fd5b82356127f281612bb8565b946020939093013593505050565b60008060008060008060c08789031215612818578182fd5b863561282381612bb8565b95506020870135945060408701359350606087013560ff81168114612846578283fd5b9598949750929560808101359460a0909101359350915050565b60006020808385031215612872578182fd5b823567ffffffffffffffff80821115612889578384fd5b818501915085601f83011261289c578384fd5b8135818111156128ae576128ae612b89565b8060051b6040517fffffffffffffffffffffffffffffffffffffffffffffffffffffffffffffffe0603f830116810181811085821117156128f1576128f1612b89565b604052828152858101935084860182860187018a101561290f578788fd5b8795505b838610156129385761292481612731565b855260019590950194938601938601612913565b5098975050505050505050565b600060208284031215612956578081fd5b815180151581146109ca578182fd5b600060208284031215612976578081fd5b5035919050565b60006020828403121561298e578081fd5b5051919050565b600082516129a7818460208701612aa7565b9190910192915050565b60208152600082518060208401526129d0816040850160208701612aa7565b601f017fffffffffffffffffffffffffffffffffffffffffffffffffffffffffffffffe0169190910160400192915050565b60008219821115612a1557612a15612b5a565b500190565b600082612a4e577f4e487b710000000000000000000000000000000000000000000000000000000081526012600452602481fd5b500490565b6000817fffffffffffffffffffffffffffffffffffffffffffffffffffffffffffffffff0483118215151615612a8b57612a8b612b5a565b500290565b600082821015612aa257612aa2612b5a565b500390565b60005b83811015612ac2578181015183820152602001612aaa565b83811115611ea05750506000910152565b600181811c90821680612ae757607f821691505b602082108114156114ab577f4e487b7100000000000000000000000000000000000000000000000000000000600052602260045260246000fd5b60007fffffffffffffffffffffffffffffffffffffffffffffffffffffffffffffffff821415612b5357612b53612b5a565b5060010190565b7f4e487b7100000000000000000000000000000000000000000000000000000000600052601160045260246000fd5b7f4e487b7100000000000000000000000000000000000000000000000000000000600052604160045260246000fd5b73ffffffffffffffffffffffffffffffffffffffff811681146109dc57600080fdfea2646970667358221220e77bd6c8fd527623d33d758b4f0bd50d5c91ae0d3482e9b4432053727be1372864736f6c63430008040033",
  "linkReferences": {},
  "deployedLinkReferences": {}
}