{
  "_format": "hh-sol-artifact-1",
  "contractName": "Vault",
  "sourceName": "contracts/core/Vault.sol",
  "abi": [
    {
      "inputs": [
        {
          "internalType": "string",
          "name": "_name",
          "type": "string"
        },
        {
          "internalType": "string",
          "name": "_symbol",
          "type": "string"
        },
        {
          "internalType": "contract IERC20",
          "name": "_templeToken",
          "type": "address"
        },
        {
          "internalType": "uint256",
          "name": "_periodDuration",
          "type": "uint256"
        },
        {
          "internalType": "uint256",
          "name": "_enterExitWindowDuration",
          "type": "uint256"
        },
        {
          "components": [
            {
              "internalType": "uint256",
              "name": "p",
              "type": "uint256"
            },
            {
              "internalType": "uint256",
              "name": "q",
              "type": "uint256"
            }
          ],
          "internalType": "struct Rational",
          "name": "_shareBoostFactory",
          "type": "tuple"
        },
        {
          "internalType": "contract JoiningFee",
          "name": "_joiningFee",
          "type": "address"
        }
      ],
      "stateMutability": "nonpayable",
      "type": "constructor"
    },
    {
      "anonymous": false,
      "inputs": [
        {
          "indexed": true,
          "internalType": "address",
          "name": "owner",
          "type": "address"
        },
        {
          "indexed": true,
          "internalType": "address",
          "name": "spender",
          "type": "address"
        },
        {
          "indexed": false,
          "internalType": "uint256",
          "name": "value",
          "type": "uint256"
        }
      ],
      "name": "Approval",
      "type": "event"
    },
    {
      "anonymous": false,
      "inputs": [
        {
          "indexed": false,
          "internalType": "address",
          "name": "account",
          "type": "address"
        },
        {
          "indexed": false,
          "internalType": "uint256",
          "name": "amount",
          "type": "uint256"
        }
      ],
      "name": "Deposit",
      "type": "event"
    },
    {
      "anonymous": false,
      "inputs": [
        {
          "indexed": true,
          "internalType": "address",
          "name": "previousOwner",
          "type": "address"
        },
        {
          "indexed": true,
          "internalType": "address",
          "name": "newOwner",
          "type": "address"
        }
      ],
      "name": "OwnershipTransferred",
      "type": "event"
    },
    {
      "anonymous": false,
      "inputs": [
        {
          "indexed": true,
          "internalType": "address",
          "name": "from",
          "type": "address"
        },
        {
          "indexed": true,
          "internalType": "address",
          "name": "to",
          "type": "address"
        },
        {
          "indexed": false,
          "internalType": "uint256",
          "name": "value",
          "type": "uint256"
        }
      ],
      "name": "Transfer",
      "type": "event"
    },
    {
      "anonymous": false,
      "inputs": [
        {
          "indexed": false,
          "internalType": "address",
          "name": "account",
          "type": "address"
        },
        {
          "indexed": false,
          "internalType": "uint256",
          "name": "amount",
          "type": "uint256"
        }
      ],
      "name": "Withdraw",
      "type": "event"
    },
    {
      "inputs": [],
      "name": "DEPOSIT_FOR_TYPEHASH",
      "outputs": [
        {
          "internalType": "bytes32",
          "name": "",
          "type": "bytes32"
        }
      ],
      "stateMutability": "view",
      "type": "function"
    },
    {
      "inputs": [],
      "name": "DOMAIN_SEPARATOR",
      "outputs": [
        {
          "internalType": "bytes32",
          "name": "",
          "type": "bytes32"
        }
      ],
      "stateMutability": "view",
      "type": "function"
    },
    {
      "inputs": [],
      "name": "WITHDRAW_FOR_TYPEHASH",
      "outputs": [
        {
          "internalType": "bytes32",
          "name": "",
          "type": "bytes32"
        }
      ],
      "stateMutability": "view",
      "type": "function"
    },
    {
      "inputs": [
        {
          "internalType": "address",
          "name": "",
          "type": "address"
        }
      ],
      "name": "_nonces",
      "outputs": [
        {
          "internalType": "uint256",
          "name": "_value",
          "type": "uint256"
        }
      ],
      "stateMutability": "view",
      "type": "function"
    },
    {
      "inputs": [
        {
          "internalType": "address",
          "name": "owner",
          "type": "address"
        },
        {
          "internalType": "address",
          "name": "spender",
          "type": "address"
        }
      ],
      "name": "allowance",
      "outputs": [
        {
          "internalType": "uint256",
          "name": "",
          "type": "uint256"
        }
      ],
      "stateMutability": "view",
      "type": "function"
    },
    {
      "inputs": [],
      "name": "amountPerShare",
      "outputs": [
        {
          "internalType": "uint256",
          "name": "p",
          "type": "uint256"
        },
        {
          "internalType": "uint256",
          "name": "q",
          "type": "uint256"
        }
      ],
      "stateMutability": "view",
      "type": "function"
    },
    {
      "inputs": [
        {
          "internalType": "address",
          "name": "spender",
          "type": "address"
        },
        {
          "internalType": "uint256",
          "name": "amount",
          "type": "uint256"
        }
      ],
      "name": "approve",
      "outputs": [
        {
          "internalType": "bool",
          "name": "",
          "type": "bool"
        }
      ],
      "stateMutability": "nonpayable",
      "type": "function"
    },
    {
      "inputs": [
        {
          "internalType": "address",
          "name": "account",
          "type": "address"
        }
      ],
      "name": "balanceOf",
      "outputs": [
        {
          "internalType": "uint256",
          "name": "",
          "type": "uint256"
        }
      ],
      "stateMutability": "view",
      "type": "function"
    },
    {
      "inputs": [],
      "name": "decimals",
      "outputs": [
        {
          "internalType": "uint8",
          "name": "",
          "type": "uint8"
        }
      ],
      "stateMutability": "view",
      "type": "function"
    },
    {
      "inputs": [
        {
          "internalType": "address",
          "name": "spender",
          "type": "address"
        },
        {
          "internalType": "uint256",
          "name": "subtractedValue",
          "type": "uint256"
        }
      ],
      "name": "decreaseAllowance",
      "outputs": [
        {
          "internalType": "bool",
          "name": "",
          "type": "bool"
        }
      ],
      "stateMutability": "nonpayable",
      "type": "function"
    },
    {
      "inputs": [
        {
          "internalType": "uint256",
          "name": "amount",
          "type": "uint256"
        }
      ],
      "name": "deposit",
      "outputs": [],
      "stateMutability": "nonpayable",
      "type": "function"
    },
    {
      "inputs": [
        {
          "internalType": "address",
          "name": "owner",
          "type": "address"
        },
        {
          "internalType": "uint256",
          "name": "amount",
          "type": "uint256"
        },
        {
          "internalType": "uint256",
          "name": "maxAmount",
          "type": "uint256"
        },
        {
          "internalType": "uint256",
          "name": "deadline",
          "type": "uint256"
        },
        {
          "internalType": "uint8",
          "name": "v",
          "type": "uint8"
        },
        {
          "internalType": "bytes32",
          "name": "r",
          "type": "bytes32"
        },
        {
          "internalType": "bytes32",
          "name": "s",
          "type": "bytes32"
        }
      ],
      "name": "depositFor",
      "outputs": [],
      "stateMutability": "nonpayable",
      "type": "function"
    },
    {
      "inputs": [],
      "name": "enterExitWindowDuration",
      "outputs": [
        {
          "internalType": "uint256",
          "name": "",
          "type": "uint256"
        }
      ],
      "stateMutability": "view",
      "type": "function"
    },
    {
      "inputs": [],
      "name": "firstPeriodStartTimestamp",
      "outputs": [
        {
          "internalType": "uint256",
          "name": "",
          "type": "uint256"
        }
      ],
      "stateMutability": "view",
      "type": "function"
    },
    {
      "inputs": [],
      "name": "inEnterExitWindow",
      "outputs": [
        {
          "internalType": "bool",
          "name": "",
          "type": "bool"
        }
      ],
      "stateMutability": "view",
      "type": "function"
    },
    {
      "inputs": [
        {
          "internalType": "address",
          "name": "spender",
          "type": "address"
        },
        {
          "internalType": "uint256",
          "name": "addedValue",
          "type": "uint256"
        }
      ],
      "name": "increaseAllowance",
      "outputs": [
        {
          "internalType": "bool",
          "name": "",
          "type": "bool"
        }
      ],
      "stateMutability": "nonpayable",
      "type": "function"
    },
    {
      "inputs": [],
      "name": "joiningFee",
      "outputs": [
        {
          "internalType": "contract JoiningFee",
          "name": "",
          "type": "address"
        }
      ],
      "stateMutability": "view",
      "type": "function"
    },
    {
      "inputs": [],
      "name": "name",
      "outputs": [
        {
          "internalType": "string",
          "name": "",
          "type": "string"
        }
      ],
      "stateMutability": "view",
      "type": "function"
    },
    {
      "inputs": [
        {
          "internalType": "address",
          "name": "owner",
          "type": "address"
        }
      ],
      "name": "nonces",
      "outputs": [
        {
          "internalType": "uint256",
          "name": "",
          "type": "uint256"
        }
      ],
      "stateMutability": "view",
      "type": "function"
    },
    {
      "inputs": [],
      "name": "owner",
      "outputs": [
        {
          "internalType": "address",
          "name": "",
          "type": "address"
        }
      ],
      "stateMutability": "view",
      "type": "function"
    },
    {
      "inputs": [],
      "name": "periodDuration",
      "outputs": [
        {
          "internalType": "uint256",
          "name": "",
          "type": "uint256"
        }
      ],
      "stateMutability": "view",
      "type": "function"
    },
    {
      "inputs": [
        {
          "internalType": "contract Exposure[]",
          "name": "exposures",
          "type": "address[]"
        }
      ],
      "name": "redeemExposures",
      "outputs": [],
      "stateMutability": "nonpayable",
      "type": "function"
    },
    {
      "inputs": [],
      "name": "renounceOwnership",
      "outputs": [],
      "stateMutability": "nonpayable",
      "type": "function"
    },
    {
      "inputs": [
        {
          "internalType": "address",
          "name": "",
          "type": "address"
        }
      ],
      "name": "shareBalanceOf",
      "outputs": [
        {
          "internalType": "uint256",
          "name": "",
          "type": "uint256"
        }
      ],
      "stateMutability": "view",
      "type": "function"
    },
    {
      "inputs": [],
      "name": "shareBoostFactor",
      "outputs": [
        {
          "internalType": "uint256",
          "name": "p",
          "type": "uint256"
        },
        {
          "internalType": "uint256",
          "name": "q",
          "type": "uint256"
        }
      ],
      "stateMutability": "view",
      "type": "function"
    },
    {
      "inputs": [],
      "name": "symbol",
      "outputs": [
        {
          "internalType": "string",
          "name": "",
          "type": "string"
        }
      ],
      "stateMutability": "view",
      "type": "function"
    },
    {
      "inputs": [],
      "name": "targetRevenueShare",
      "outputs": [
        {
          "internalType": "uint256",
          "name": "",
          "type": "uint256"
        }
      ],
      "stateMutability": "view",
      "type": "function"
    },
    {
      "inputs": [],
      "name": "templeToken",
      "outputs": [
        {
          "internalType": "contract IERC20",
          "name": "",
          "type": "address"
        }
      ],
      "stateMutability": "view",
      "type": "function"
    },
    {
      "inputs": [
        {
          "internalType": "uint256",
          "name": "tokenAmount",
          "type": "uint256"
        }
      ],
      "name": "toSharesAmount",
      "outputs": [
        {
          "internalType": "uint256",
          "name": "sharesAmount",
          "type": "uint256"
        }
      ],
      "stateMutability": "view",
      "type": "function"
    },
    {
      "inputs": [
        {
          "internalType": "uint256",
          "name": "sharesAmount",
          "type": "uint256"
        }
      ],
      "name": "toTokenAmount",
      "outputs": [
        {
          "internalType": "uint256",
          "name": "tokenAmount",
          "type": "uint256"
        }
      ],
      "stateMutability": "view",
      "type": "function"
    },
    {
      "inputs": [],
      "name": "totalShares",
      "outputs": [
        {
          "internalType": "uint256",
          "name": "",
          "type": "uint256"
        }
      ],
      "stateMutability": "view",
      "type": "function"
    },
    {
      "inputs": [],
      "name": "totalSupply",
      "outputs": [
        {
          "internalType": "uint256",
          "name": "",
          "type": "uint256"
        }
      ],
      "stateMutability": "view",
      "type": "function"
    },
    {
      "inputs": [
        {
          "internalType": "address",
          "name": "recipient",
          "type": "address"
        },
        {
          "internalType": "uint256",
          "name": "amount",
          "type": "uint256"
        }
      ],
      "name": "transfer",
      "outputs": [
        {
          "internalType": "bool",
          "name": "",
          "type": "bool"
        }
      ],
      "stateMutability": "nonpayable",
      "type": "function"
    },
    {
      "inputs": [
        {
          "internalType": "address",
          "name": "sender",
          "type": "address"
        },
        {
          "internalType": "address",
          "name": "recipient",
          "type": "address"
        },
        {
          "internalType": "uint256",
          "name": "amount",
          "type": "uint256"
        }
      ],
      "name": "transferFrom",
      "outputs": [
        {
          "internalType": "bool",
          "name": "",
          "type": "bool"
        }
      ],
      "stateMutability": "nonpayable",
      "type": "function"
    },
    {
      "inputs": [
        {
          "internalType": "address",
          "name": "newOwner",
          "type": "address"
        }
      ],
      "name": "transferOwnership",
      "outputs": [],
      "stateMutability": "nonpayable",
      "type": "function"
    },
    {
      "inputs": [
        {
          "internalType": "uint256",
          "name": "amount",
          "type": "uint256"
        }
      ],
      "name": "withdraw",
      "outputs": [],
      "stateMutability": "nonpayable",
      "type": "function"
    },
    {
      "inputs": [
        {
          "internalType": "address",
          "name": "owner",
          "type": "address"
        },
        {
          "internalType": "uint256",
          "name": "amount",
          "type": "uint256"
        },
        {
          "internalType": "uint256",
          "name": "deadline",
          "type": "uint256"
        },
        {
          "internalType": "uint8",
          "name": "v",
          "type": "uint8"
        },
        {
          "internalType": "bytes32",
          "name": "r",
          "type": "bytes32"
        },
        {
          "internalType": "bytes32",
          "name": "s",
          "type": "bytes32"
        }
      ],
      "name": "withdrawFor",
      "outputs": [],
      "stateMutability": "nonpayable",
      "type": "function"
    }
  ],
  "bytecode": "0x6101806040527f7120de34e4902782fcb31784e861022cac3b3f14c1533c0b400ac26d620bc8fc610140527fd3718192a7de05eaa3f3aad7ef3096c16af3f6da2a921129252c715f262c5173610160523480156200005c57600080fd5b50604051620031e7380380620031e78339810160408190526200007f9162000361565b60408051808201825260018152603160f81b60209182015288518982012060e08190527fc89efdaa54c0f20c7adf612882df0950f5a951637e0307cdcb4c672f298b8bc66101008190524660a081815285517f8b73c3c69bb8fe3d512ecc4cf759cc79239f7b179b0ffacaa9a75d522b39400f81870181905281880195909552606081810194909452608080820193909352308183018190528751808303909301835260c09182019097528151919095012090529290921b90526101205286866200014a33620001c8565b81516200015f90600490602085019062000218565b5080516200017590600590602084019062000218565b5050600980546001600160a01b039788166001600160a01b031991821617909155600b9590955550600c929092558051600d5560200151600e55600f8054919093169116179055505042600a5562000502565b600080546001600160a01b038381166001600160a01b0319831681178455604051919092169283917f8be0079c531659141344cd1fd0a4f28419497f9722a3daafe3b4186f6b6457e09190a35050565b828054620002269062000496565b90600052602060002090601f0160209004810192826200024a576000855562000295565b82601f106200026557805160ff191683800117855562000295565b8280016001018555821562000295579182015b828111156200029557825182559160200191906001019062000278565b50620002a3929150620002a7565b5090565b5b80821115620002a35760008155600101620002a8565b8051620002cb81620004e9565b919050565b600082601f830112620002e1578081fd5b81516001600160401b03811115620002fd57620002fd620004d3565b602062000313601f8301601f1916820162000463565b828152858284870101111562000327578384fd5b835b838110156200034657858101830151828201840152820162000329565b838111156200035757848385840101525b5095945050505050565b60008060008060008060008789036101008112156200037e578384fd5b88516001600160401b038082111562000395578586fd5b620003a38c838d01620002d0565b995060208b0151915080821115620003b9578586fd5b50620003c88b828c01620002d0565b9750506040890151620003db81620004e9565b60608a015160808b0151919750955093506040609f1982011215620003fe578283fd5b506200040962000438565b60a0890151815260c0890151602082015291506200042a60e08901620002be565b905092959891949750929550565b604080519081016001600160401b03811182821017156200045d576200045d620004d3565b60405290565b604051601f8201601f191681016001600160401b03811182821017156200048e576200048e620004d3565b604052919050565b600181811c90821680620004ab57607f821691505b60208210811415620004cd57634e487b7160e01b600052602260045260246000fd5b50919050565b634e487b7160e01b600052604160045260246000fd5b6001600160a01b0381168114620004ff57600080fd5b50565b60805160a05160c05160601c60e05161010051610120516101405161016051612c6e620005796000396000818161043b015261062f0152600081816104b60152610fdc01526000611943015260006119920152600061196d015260006118c6015260006118f00152600061191a0152612c6e6000f3fe608060405234801561001057600080fd5b50600436106102775760003560e01c8063715018a611610160578063acf66004116100d8578063b9844d8d1161008c578063dd62ed3e11610071578063dd62ed3e1461055a578063f2fde38b146105a0578063fc1d3de2146105b357600080fd5b8063b9844d8d14610527578063d29d729d1461054757600080fd5b8063b1a9069c116100bd578063b1a9069c146104eb578063b470aade1461050b578063b6b55f251461051457600080fd5b8063acf66004146104b1578063b0ff1106146104d857600080fd5b80638da5cb5b1161012f578063981fc37211610114578063981fc37214610483578063a457c2d71461048b578063a9059cbb1461049e57600080fd5b80638da5cb5b1461045d57806395d89b411461047b57600080fd5b8063715018a6146104135780637c5a227c1461041b5780637ecebe0014610423578063817713291461043657600080fd5b80633644e515116101f357806363ceec65116101c25780636b2f1417116101a75780636b2f1417146103b35780636eeeaaa5146103bb57806370a082311461040057600080fd5b806363ceec65146103975780636823920a146103a057600080fd5b80633644e51514610353578063395093511461035b5780633a98ef391461036e5780634473ad521461037757600080fd5b806318160ddd1161024a5780632e1a7d4d1161022f5780632e1a7d4d1461030e578063313ce56714610321578063341533d91461033057600080fd5b806318160ddd146102f357806323b872dd146102fb57600080fd5b8063061e58441461027c57806306fdde0314610291578063095ea7b3146102af578063174e4ea6146102d2575b600080fd5b61028f61028a366004612865565b6105bc565b005b610299610779565b6040516102a69190612a0f565b60405180910390f35b6102c26102bd3660046127d6565b61080b565b60405190151581526020016102a6565b6102e56102e03660046129c3565b610821565b6040519081526020016102a6565b6102e5610850565b6102c2610309366004612796565b610862565b61028f61031c3660046129c3565b61094a565b604051601281526020016102a6565b600d54600e5461033e919082565b604080519283526020830191909152016102a6565b6102e5610957565b6102c26103693660046127d6565b610961565b6102e560065481565b6102e5610385366004612742565b60076020526000908152604090205481565b6102e5600a5481565b61028f6103ae3660046128be565b6109aa565b6102c2610b01565b600f546103db9073ffffffffffffffffffffffffffffffffffffffff1681565b60405173ffffffffffffffffffffffffffffffffffffffff90911681526020016102a6565b6102e561040e366004612742565b610b51565b61028f610b86565b61033e610c13565b6102e5610431366004612742565b610cda565b6102e57f000000000000000000000000000000000000000000000000000000000000000081565b60005473ffffffffffffffffffffffffffffffffffffffff166103db565b610299610d05565b6102e5610d14565b6102c26104993660046127d6565b610dd2565b6102c26104ac3660046127d6565b610eaa565b6102e57f000000000000000000000000000000000000000000000000000000000000000081565b6102e56104e63660046129c3565b610eb7565b6009546103db9073ffffffffffffffffffffffffffffffffffffffff1681565b6102e5600b5481565b61028f6105223660046129c3565b610ed4565b6102e5610535366004612742565b60086020526000908152604090205481565b61028f610555366004612801565b610ede565b6102e561056836600461275e565b73ffffffffffffffffffffffffffffffffffffffff918216600090815260026020908152604080832093909416825291909152205490565b61028f6105ae366004612742565b611127565b6102e5600c5481565b8342111561062b576040517f08c379a000000000000000000000000000000000000000000000000000000000815260206004820152601760248201527f5661756c743a206578706972656420646561646c696e6500000000000000000060448201526064015b60405180910390fd5b60007f000000000000000000000000000000000000000000000000000000000000000087878761065a8b611254565b60408051602081019690965273ffffffffffffffffffffffffffffffffffffffff909416938501939093526060840191909152608083015260a082015260c00160405160208183030381529060405280519060200120905060006106bd82611289565b905060006106cd828787876112f2565b90508873ffffffffffffffffffffffffffffffffffffffff168173ffffffffffffffffffffffffffffffffffffffff1614610764576040517f08c379a000000000000000000000000000000000000000000000000000000000815260206004820152601860248201527f5661756c743a20696e76616c6964207369676e617475726500000000000000006044820152606401610622565b61076e898961131a565b505050505050505050565b60606004805461078890612b31565b80601f01602080910402602001604051908101604052809291908181526020018280546107b490612b31565b80156108015780601f106107d657610100808354040283529160200191610801565b820191906000526020600020905b8154815290600101906020018083116107e457829003601f168201915b5050505050905090565b6000610818338484611435565b50600192915050565b600080600061082e610c13565b90925090508061083e8386612ab1565b6108489190612a78565b949350505050565b600061085d600654610821565b905090565b600061086f8484846115e9565b73ffffffffffffffffffffffffffffffffffffffff8416600090815260026020908152604080832033845290915290205482811015610930576040517f08c379a000000000000000000000000000000000000000000000000000000000815260206004820152602860248201527f45524332303a207472616e7366657220616d6f756e742065786365656473206160448201527f6c6c6f77616e63650000000000000000000000000000000000000000000000006064820152608401610622565b61093d8533858403611435565b60019150505b9392505050565b610954338261131a565b50565b600061085d6118ac565b33600081815260026020908152604080832073ffffffffffffffffffffffffffffffffffffffff8716845290915281205490916108189185906109a5908690612a60565b611435565b6109b2610b01565b610a3e576040517f08c379a000000000000000000000000000000000000000000000000000000000815260206004820152603660248201527f5661756c743a2043616e6e6f742072656465656d207768656e206f757473696460448201527f65206f6620656e7465722f657869742077696e646f77000000000000000000006064820152608401610622565b60005b8151811015610afd57818181518110610a83577f4e487b7100000000000000000000000000000000000000000000000000000000600052603260045260246000fd5b602002602001015173ffffffffffffffffffffffffffffffffffffffff1663be040fb06040518163ffffffff1660e01b8152600401600060405180830381600087803b158015610ad257600080fd5b505af1158015610ae6573d6000803e3d6000fd5b505050508080610af590612b7f565b915050610a41565b5050565b600080600b54600a5442610b159190612aee565b610b1f9190612a78565b905042600c54600a54600b5484610b369190612ab1565b610b409190612a60565b610b4a9190612a60565b1191505090565b73ffffffffffffffffffffffffffffffffffffffff8116600090815260076020526040812054610b8090610821565b92915050565b60005473ffffffffffffffffffffffffffffffffffffffff163314610c07576040517f08c379a000000000000000000000000000000000000000000000000000000000815260206004820181905260248201527f4f776e61626c653a2063616c6c6572206973206e6f7420746865206f776e65726044820152606401610622565b610c1160006119e0565b565b6009546040517f70a08231000000000000000000000000000000000000000000000000000000008152306004820152600091829173ffffffffffffffffffffffffffffffffffffffff909116906370a082319060240160206040518083038186803b158015610c8157600080fd5b505afa158015610c95573d6000803e3d6000fd5b505050506040513d601f19601f82011682018060405250810190610cb991906129db565b915060065490508160001415610cce57600191505b80610cd65750805b9091565b73ffffffffffffffffffffffffffffffffffffffff8116600090815260086020526040812054610b80565b60606005805461078890612b31565b600e54600d546009546040517f70a08231000000000000000000000000000000000000000000000000000000008152306004820152600093929173ffffffffffffffffffffffffffffffffffffffff16906370a082319060240160206040518083038186803b158015610d8657600080fd5b505afa158015610d9a573d6000803e3d6000fd5b505050506040513d601f19601f82011682018060405250810190610dbe91906129db565b610dc89190612ab1565b61085d9190612a78565b33600090815260026020908152604080832073ffffffffffffffffffffffffffffffffffffffff8616845290915281205482811015610e93576040517f08c379a000000000000000000000000000000000000000000000000000000000815260206004820152602560248201527f45524332303a2064656372656173656420616c6c6f77616e63652062656c6f7760448201527f207a65726f0000000000000000000000000000000000000000000000000000006064820152608401610622565b610ea03385858403611435565b5060019392505050565b60006108183384846115e9565b6000806000610ec4610c13565b90925090508161083e8286612ab1565b6109543382611a55565b83421115610f48576040517f08c379a000000000000000000000000000000000000000000000000000000000815260206004820152601760248201527f5661756c743a206578706972656420646561646c696e650000000000000000006044820152606401610622565b84861115610fd8576040517f08c379a000000000000000000000000000000000000000000000000000000000815260206004820152603460248201527f5661756c743a20616d6f756e74206d757374206265206c657373207468616e2060448201527f617574686f72697a6564206d6178416d6f756e740000000000000000000000006064820152608401610622565b60007f00000000000000000000000000000000000000000000000000000000000000008887876110078c611254565b60408051602081019690965273ffffffffffffffffffffffffffffffffffffffff909416938501939093526060840191909152608083015260a082015260c001604051602081830303815290604052805190602001209050600061106a82611289565b9050600061107a828787876112f2565b90508973ffffffffffffffffffffffffffffffffffffffff168173ffffffffffffffffffffffffffffffffffffffff1614611111576040517f08c379a000000000000000000000000000000000000000000000000000000000815260206004820152601860248201527f5661756c743a20696e76616c6964207369676e617475726500000000000000006044820152606401610622565b61111b8a8a611a55565b50505050505050505050565b60005473ffffffffffffffffffffffffffffffffffffffff1633146111a8576040517f08c379a000000000000000000000000000000000000000000000000000000000815260206004820181905260248201527f4f776e61626c653a2063616c6c6572206973206e6f7420746865206f776e65726044820152606401610622565b73ffffffffffffffffffffffffffffffffffffffff811661124b576040517f08c379a000000000000000000000000000000000000000000000000000000000815260206004820152602660248201527f4f776e61626c653a206e6577206f776e657220697320746865207a65726f206160448201527f64647265737300000000000000000000000000000000000000000000000000006064820152608401610622565b610954816119e0565b73ffffffffffffffffffffffffffffffffffffffff811660009081526008602052604090208054600181018255905b50919050565b6000610b806112966118ac565b836040517f19010000000000000000000000000000000000000000000000000000000000006020820152602281018390526042810182905260009060620160405160208183030381529060405280519060200120905092915050565b600080600061130387878787611c38565b9150915061131081611d50565b5095945050505050565b611322610b01565b6113ae576040517f08c379a000000000000000000000000000000000000000000000000000000000815260206004820152603a60248201527f5661756c743a2043616e6e6f742065786974207661756c74207768656e206f7560448201527f7473696465206f6620656e7465722f657869742077696e646f770000000000006064820152608401610622565b80156113be576113be828261206c565b6009546113e29073ffffffffffffffffffffffffffffffffffffffff163383612266565b6040805173ffffffffffffffffffffffffffffffffffffffff84168152602081018390527f884edad9ce6fa2440d8a54cc123490eb96d2768479d49ff9c7366125a9424364910160405180910390a15050565b73ffffffffffffffffffffffffffffffffffffffff83166114d7576040517f08c379a0000000000000000000000000000000000000000000000000000000008152602060048201526024808201527f45524332303a20617070726f76652066726f6d20746865207a65726f2061646460448201527f72657373000000000000000000000000000000000000000000000000000000006064820152608401610622565b73ffffffffffffffffffffffffffffffffffffffff821661157a576040517f08c379a000000000000000000000000000000000000000000000000000000000815260206004820152602260248201527f45524332303a20617070726f766520746f20746865207a65726f20616464726560448201527f73730000000000000000000000000000000000000000000000000000000000006064820152608401610622565b73ffffffffffffffffffffffffffffffffffffffff83811660008181526002602090815260408083209487168084529482529182902085905590518481527f8c5be1e5ebec7d5bd14f71427d1e84f3dd0314c0f7b2291e5b200ac8c7c3b92591015b60405180910390a3505050565b73ffffffffffffffffffffffffffffffffffffffff831661168c576040517f08c379a000000000000000000000000000000000000000000000000000000000815260206004820152602560248201527f45524332303a207472616e736665722066726f6d20746865207a65726f20616460448201527f64726573730000000000000000000000000000000000000000000000000000006064820152608401610622565b73ffffffffffffffffffffffffffffffffffffffff821661172f576040517f08c379a000000000000000000000000000000000000000000000000000000000815260206004820152602360248201527f45524332303a207472616e7366657220746f20746865207a65726f206164647260448201527f65737300000000000000000000000000000000000000000000000000000000006064820152608401610622565b73ffffffffffffffffffffffffffffffffffffffff83166000908152600760205260408120549061175f83610eb7565b9050808210156117f1576040517f08c379a000000000000000000000000000000000000000000000000000000000815260206004820152602660248201527f45524332303a207472616e7366657220616d6f756e742065786365656473206260448201527f616c616e636500000000000000000000000000000000000000000000000000006064820152608401610622565b73ffffffffffffffffffffffffffffffffffffffff8086166000908152600760205260408082208054859003905591861681529081208054839290611837908490612a60565b925050819055508373ffffffffffffffffffffffffffffffffffffffff168573ffffffffffffffffffffffffffffffffffffffff167fddf252ad1be2c89b69c2b068fc378daa952ba7f163c4a11628f55a4df523b3ef8560405161189d91815260200190565b60405180910390a35050505050565b60003073ffffffffffffffffffffffffffffffffffffffff7f00000000000000000000000000000000000000000000000000000000000000001614801561191257507f000000000000000000000000000000000000000000000000000000000000000046145b1561193c57507f000000000000000000000000000000000000000000000000000000000000000090565b50604080517f00000000000000000000000000000000000000000000000000000000000000006020808301919091527f0000000000000000000000000000000000000000000000000000000000000000828401527f000000000000000000000000000000000000000000000000000000000000000060608301524660808301523060a0808401919091528351808403909101815260c0909201909252805191012090565b6000805473ffffffffffffffffffffffffffffffffffffffff8381167fffffffffffffffffffffffff0000000000000000000000000000000000000000831681178455604051919092169283917f8be0079c531659141344cd1fd0a4f28419497f9722a3daafe3b4186f6b6457e09190a35050565b611a5d610b01565b611ae9576040517f08c379a000000000000000000000000000000000000000000000000000000000815260206004820152603a60248201527f5661756c743a2043616e6e6f74206a6f696e207661756c74207768656e206f7560448201527f7473696465206f6620656e7465722f657869742077696e646f770000000000006064820152608401610622565b600f54600a54600b546040517f07e7cc270000000000000000000000000000000000000000000000000000000081526004810192909252602482015230604482015260009173ffffffffffffffffffffffffffffffffffffffff16906307e7cc279060640160206040518083038186803b158015611b6657600080fd5b505afa158015611b7a573d6000803e3d6000fd5b505050506040513d601f19601f82011682018060405250810190611b9e91906129db565b90506000611bac8284612aee565b90508215611be357611bbe848261233f565b600954611be39073ffffffffffffffffffffffffffffffffffffffff16853086612465565b6040805173ffffffffffffffffffffffffffffffffffffffff86168152602081018590527fe1fffcc4923d04b559f4d29a8bfc6cda04eb5b0d3c460751c2402c5c5cc9109c910160405180910390a150505050565b6000807f7fffffffffffffffffffffffffffffff5d576e7357a4501ddfe92f46681b20a0831115611c6f5750600090506003611d47565b8460ff16601b14158015611c8757508460ff16601c14155b15611c985750600090506004611d47565b6040805160008082526020820180845289905260ff881692820192909252606081018690526080810185905260019060a0016020604051602081039080840390855afa158015611cec573d6000803e3d6000fd5b50506040517fffffffffffffffffffffffffffffffffffffffffffffffffffffffffffffffe0015191505073ffffffffffffffffffffffffffffffffffffffff8116611d4057600060019250925050611d47565b9150600090505b94509492505050565b6000816004811115611d8b577f4e487b7100000000000000000000000000000000000000000000000000000000600052602160045260246000fd5b1415611d945750565b6001816004811115611dcf577f4e487b7100000000000000000000000000000000000000000000000000000000600052602160045260246000fd5b1415611e37576040517f08c379a000000000000000000000000000000000000000000000000000000000815260206004820152601860248201527f45434453413a20696e76616c6964207369676e617475726500000000000000006044820152606401610622565b6002816004811115611e72577f4e487b7100000000000000000000000000000000000000000000000000000000600052602160045260246000fd5b1415611eda576040517f08c379a000000000000000000000000000000000000000000000000000000000815260206004820152601f60248201527f45434453413a20696e76616c6964207369676e6174757265206c656e677468006044820152606401610622565b6003816004811115611f15577f4e487b7100000000000000000000000000000000000000000000000000000000600052602160045260246000fd5b1415611fa3576040517f08c379a000000000000000000000000000000000000000000000000000000000815260206004820152602260248201527f45434453413a20696e76616c6964207369676e6174757265202773272076616c60448201527f75650000000000000000000000000000000000000000000000000000000000006064820152608401610622565b6004816004811115611fde577f4e487b7100000000000000000000000000000000000000000000000000000000600052602160045260246000fd5b1415610954576040517f08c379a000000000000000000000000000000000000000000000000000000000815260206004820152602260248201527f45434453413a20696e76616c6964207369676e6174757265202776272076616c60448201527f75650000000000000000000000000000000000000000000000000000000000006064820152608401610622565b73ffffffffffffffffffffffffffffffffffffffff821661210f576040517f08c379a000000000000000000000000000000000000000000000000000000000815260206004820152602160248201527f45524332303a206275726e2066726f6d20746865207a65726f2061646472657360448201527f73000000000000000000000000000000000000000000000000000000000000006064820152608401610622565b73ffffffffffffffffffffffffffffffffffffffff82166000908152600760205260408120549061213f83610eb7565b9050808210156121d1576040517f08c379a000000000000000000000000000000000000000000000000000000000815260206004820152602260248201527f45524332303a206275726e20616d6f756e7420657863656564732062616c616e60448201527f63650000000000000000000000000000000000000000000000000000000000006064820152608401610622565b73ffffffffffffffffffffffffffffffffffffffff8416600090815260076020526040812082840390556006805483929061220d908490612aee565b909155505060405183815260009073ffffffffffffffffffffffffffffffffffffffff8616907fddf252ad1be2c89b69c2b068fc378daa952ba7f163c4a11628f55a4df523b3ef9060200160405180910390a350505050565b60405173ffffffffffffffffffffffffffffffffffffffff831660248201526044810182905261233a9084907fa9059cbb00000000000000000000000000000000000000000000000000000000906064015b604080517fffffffffffffffffffffffffffffffffffffffffffffffffffffffffffffffe08184030181529190526020810180517bffffffffffffffffffffffffffffffffffffffffffffffffffffffff167fffffffff00000000000000000000000000000000000000000000000000000000909316929092179091526124c9565b505050565b73ffffffffffffffffffffffffffffffffffffffff82166123bc576040517f08c379a000000000000000000000000000000000000000000000000000000000815260206004820152601f60248201527f45524332303a206d696e7420746f20746865207a65726f2061646472657373006044820152606401610622565b60006123c782610eb7565b905080600660008282546123db9190612a60565b909155505073ffffffffffffffffffffffffffffffffffffffff831660009081526007602052604081208054839290612415908490612a60565b909155505060405182815273ffffffffffffffffffffffffffffffffffffffff8416906000907fddf252ad1be2c89b69c2b068fc378daa952ba7f163c4a11628f55a4df523b3ef906020016115dc565b60405173ffffffffffffffffffffffffffffffffffffffff808516602483015283166044820152606481018290526124c39085907f23b872dd00000000000000000000000000000000000000000000000000000000906084016122b8565b50505050565b600061252b826040518060400160405280602081526020017f5361666545524332303a206c6f772d6c6576656c2063616c6c206661696c65648152508573ffffffffffffffffffffffffffffffffffffffff166125d59092919063ffffffff16565b80519091501561233a578080602001905181019061254991906129a3565b61233a576040517f08c379a000000000000000000000000000000000000000000000000000000000815260206004820152602a60248201527f5361666545524332303a204552433230206f7065726174696f6e20646964206e60448201527f6f742073756363656564000000000000000000000000000000000000000000006064820152608401610622565b6060610848848460008585843b612648576040517f08c379a000000000000000000000000000000000000000000000000000000000815260206004820152601d60248201527f416464726573733a2063616c6c20746f206e6f6e2d636f6e74726163740000006044820152606401610622565b6000808673ffffffffffffffffffffffffffffffffffffffff16858760405161267191906129f3565b60006040518083038185875af1925050503d80600081146126ae576040519150601f19603f3d011682016040523d82523d6000602084013e6126b3565b606091505b50915091506126c38282866126ce565b979650505050505050565b606083156126dd575081610943565b8251156126ed5782518084602001fd5b816040517f08c379a00000000000000000000000000000000000000000000000000000000081526004016106229190612a0f565b803561272c81612c16565b919050565b803560ff8116811461272c57600080fd5b600060208284031215612753578081fd5b813561094381612c16565b60008060408385031215612770578081fd5b823561277b81612c16565b9150602083013561278b81612c16565b809150509250929050565b6000806000606084860312156127aa578081fd5b83356127b581612c16565b925060208401356127c581612c16565b929592945050506040919091013590565b600080604083850312156127e8578182fd5b82356127f381612c16565b946020939093013593505050565b600080600080600080600060e0888a03121561281b578283fd5b873561282681612c16565b965060208801359550604088013594506060880135935061284960808901612731565b925060a0880135915060c0880135905092959891949750929550565b60008060008060008060c0878903121561287d578182fd5b863561288881612c16565b955060208701359450604087013593506128a460608801612731565b92506080870135915060a087013590509295509295509295565b600060208083850312156128d0578182fd5b823567ffffffffffffffff808211156128e7578384fd5b818501915085601f8301126128fa578384fd5b81358181111561290c5761290c612be7565b8060051b6040517fffffffffffffffffffffffffffffffffffffffffffffffffffffffffffffffe0603f8301168101818110858211171561294f5761294f612be7565b604052828152858101935084860182860187018a101561296d578788fd5b8795505b838610156129965761298281612721565b855260019590950194938601938601612971565b5098975050505050505050565b6000602082840312156129b4578081fd5b81518015158114610943578182fd5b6000602082840312156129d4578081fd5b5035919050565b6000602082840312156129ec578081fd5b5051919050565b60008251612a05818460208701612b05565b9190910192915050565b6020815260008251806020840152612a2e816040850160208701612b05565b601f017fffffffffffffffffffffffffffffffffffffffffffffffffffffffffffffffe0169190910160400192915050565b60008219821115612a7357612a73612bb8565b500190565b600082612aac577f4e487b710000000000000000000000000000000000000000000000000000000081526012600452602481fd5b500490565b6000817fffffffffffffffffffffffffffffffffffffffffffffffffffffffffffffffff0483118215151615612ae957612ae9612bb8565b500290565b600082821015612b0057612b00612bb8565b500390565b60005b83811015612b20578181015183820152602001612b08565b838111156124c35750506000910152565b600181811c90821680612b4557607f821691505b60208210811415611283577f4e487b7100000000000000000000000000000000000000000000000000000000600052602260045260246000fd5b60007fffffffffffffffffffffffffffffffffffffffffffffffffffffffffffffffff821415612bb157612bb1612bb8565b5060010190565b7f4e487b7100000000000000000000000000000000000000000000000000000000600052601160045260246000fd5b7f4e487b7100000000000000000000000000000000000000000000000000000000600052604160045260246000fd5b73ffffffffffffffffffffffffffffffffffffffff8116811461095457600080fdfea2646970667358221220832056fcc6e8effb3c0630864023cda5e15af79e6b9ea246c30a337894e7221f64736f6c63430008040033",
  "linkReferences": {},
  "deployedLinkReferences": {}
}