{
  "_format": "hh-sol-artifact-1",
  "contractName": "Vault",
  "sourceName": "contracts/core/Vault.sol",
  "abi": [
    {
      "inputs": [
        {
          "internalType": "string",
          "name": "_name",
          "type": "string"
        },
        {
          "internalType": "string",
          "name": "_symbol",
          "type": "string"
        },
        {
          "internalType": "contract IERC20",
          "name": "_templeToken",
          "type": "address"
        },
        {
          "internalType": "contract Exposure",
          "name": "_templeExposureToken",
          "type": "address"
        },
        {
          "internalType": "address",
          "name": "_vaultedTempleAccount",
          "type": "address"
        },
        {
          "internalType": "uint256",
          "name": "_periodDuration",
          "type": "uint256"
        },
        {
          "internalType": "uint256",
          "name": "_enterExitWindowDuration",
          "type": "uint256"
        },
        {
          "components": [
            {
              "internalType": "uint256",
              "name": "p",
              "type": "uint256"
            },
            {
              "internalType": "uint256",
              "name": "q",
              "type": "uint256"
            }
          ],
          "internalType": "struct Rational",
          "name": "_shareBoostFactory",
          "type": "tuple"
        },
        {
          "internalType": "contract JoiningFee",
          "name": "_joiningFee",
          "type": "address"
        },
        {
          "internalType": "uint256",
          "name": "_firstPeriodStartTimestamp",
          "type": "uint256"
        }
      ],
      "stateMutability": "nonpayable",
      "type": "constructor"
    },
    {
      "anonymous": false,
      "inputs": [
        {
          "indexed": true,
          "internalType": "address",
          "name": "owner",
          "type": "address"
        },
        {
          "indexed": true,
          "internalType": "address",
          "name": "spender",
          "type": "address"
        },
        {
          "indexed": false,
          "internalType": "uint256",
          "name": "value",
          "type": "uint256"
        }
      ],
      "name": "Approval",
      "type": "event"
    },
    {
      "anonymous": false,
      "inputs": [
        {
          "indexed": false,
          "internalType": "address",
          "name": "account",
          "type": "address"
        },
        {
          "indexed": false,
          "internalType": "uint256",
          "name": "amount",
          "type": "uint256"
        },
        {
          "indexed": false,
          "internalType": "uint256",
          "name": "amountStaked",
          "type": "uint256"
        }
      ],
      "name": "Deposit",
      "type": "event"
    },
    {
      "anonymous": false,
      "inputs": [
        {
          "indexed": true,
          "internalType": "address",
          "name": "previousOwner",
          "type": "address"
        },
        {
          "indexed": true,
          "internalType": "address",
          "name": "newOwner",
          "type": "address"
        }
      ],
      "name": "OwnershipTransferred",
      "type": "event"
    },
    {
      "anonymous": false,
      "inputs": [
        {
          "indexed": true,
          "internalType": "address",
          "name": "from",
          "type": "address"
        },
        {
          "indexed": true,
          "internalType": "address",
          "name": "to",
          "type": "address"
        },
        {
          "indexed": false,
          "internalType": "uint256",
          "name": "value",
          "type": "uint256"
        }
      ],
      "name": "Transfer",
      "type": "event"
    },
    {
      "anonymous": false,
      "inputs": [
        {
          "indexed": false,
          "internalType": "address",
          "name": "account",
          "type": "address"
        },
        {
          "indexed": false,
          "internalType": "uint256",
          "name": "amount",
          "type": "uint256"
        }
      ],
      "name": "Withdraw",
      "type": "event"
    },
    {
      "inputs": [],
      "name": "DOMAIN_SEPARATOR",
      "outputs": [
        {
          "internalType": "bytes32",
          "name": "",
          "type": "bytes32"
        }
      ],
      "stateMutability": "view",
      "type": "function"
    },
    {
      "inputs": [],
      "name": "ENTER_EXIT_WINDOW_BUFFER",
      "outputs": [
        {
          "internalType": "uint256",
          "name": "",
          "type": "uint256"
        }
      ],
      "stateMutability": "view",
      "type": "function"
    },
    {
      "inputs": [],
      "name": "WITHDRAW_FOR_TYPEHASH",
      "outputs": [
        {
          "internalType": "bytes32",
          "name": "",
          "type": "bytes32"
        }
      ],
      "stateMutability": "view",
      "type": "function"
    },
    {
      "inputs": [
        {
          "internalType": "address",
          "name": "",
          "type": "address"
        }
      ],
      "name": "_nonces",
      "outputs": [
        {
          "internalType": "uint256",
          "name": "_value",
          "type": "uint256"
        }
      ],
      "stateMutability": "view",
      "type": "function"
    },
    {
      "inputs": [
        {
          "internalType": "address",
          "name": "owner",
          "type": "address"
        },
        {
          "internalType": "address",
          "name": "spender",
          "type": "address"
        }
      ],
      "name": "allowance",
      "outputs": [
        {
          "internalType": "uint256",
          "name": "",
          "type": "uint256"
        }
      ],
      "stateMutability": "view",
      "type": "function"
    },
    {
      "inputs": [],
      "name": "amountPerShare",
      "outputs": [
        {
          "internalType": "uint256",
          "name": "p",
          "type": "uint256"
        },
        {
          "internalType": "uint256",
          "name": "q",
          "type": "uint256"
        }
      ],
      "stateMutability": "view",
      "type": "function"
    },
    {
      "inputs": [
        {
          "internalType": "address",
          "name": "spender",
          "type": "address"
        },
        {
          "internalType": "uint256",
          "name": "amount",
          "type": "uint256"
        }
      ],
      "name": "approve",
      "outputs": [
        {
          "internalType": "bool",
          "name": "",
          "type": "bool"
        }
      ],
      "stateMutability": "nonpayable",
      "type": "function"
    },
    {
      "inputs": [
        {
          "internalType": "address",
          "name": "account",
          "type": "address"
        }
      ],
      "name": "balanceOf",
      "outputs": [
        {
          "internalType": "uint256",
          "name": "",
          "type": "uint256"
        }
      ],
      "stateMutability": "view",
      "type": "function"
    },
    {
      "inputs": [],
      "name": "decimals",
      "outputs": [
        {
          "internalType": "uint8",
          "name": "",
          "type": "uint8"
        }
      ],
      "stateMutability": "view",
      "type": "function"
    },
    {
      "inputs": [
        {
          "internalType": "address",
          "name": "spender",
          "type": "address"
        },
        {
          "internalType": "uint256",
          "name": "subtractedValue",
          "type": "uint256"
        }
      ],
      "name": "decreaseAllowance",
      "outputs": [
        {
          "internalType": "bool",
          "name": "",
          "type": "bool"
        }
      ],
      "stateMutability": "nonpayable",
      "type": "function"
    },
    {
      "inputs": [
        {
          "internalType": "uint256",
          "name": "amount",
          "type": "uint256"
        }
      ],
      "name": "deposit",
      "outputs": [],
      "stateMutability": "nonpayable",
      "type": "function"
    },
    {
      "inputs": [
        {
          "internalType": "address",
          "name": "_account",
          "type": "address"
        },
        {
          "internalType": "uint256",
          "name": "_amount",
          "type": "uint256"
        }
      ],
      "name": "depositFor",
      "outputs": [],
      "stateMutability": "nonpayable",
      "type": "function"
    },
    {
      "inputs": [],
      "name": "enterExitWindowDuration",
      "outputs": [
        {
          "internalType": "uint256",
          "name": "",
          "type": "uint256"
        }
      ],
      "stateMutability": "view",
      "type": "function"
    },
    {
      "inputs": [],
      "name": "firstPeriodStartTimestamp",
      "outputs": [
        {
          "internalType": "uint256",
          "name": "",
          "type": "uint256"
        }
      ],
      "stateMutability": "view",
      "type": "function"
    },
    {
      "inputs": [],
      "name": "inEnterExitWindow",
      "outputs": [
        {
          "internalType": "bool",
          "name": "",
          "type": "bool"
        }
      ],
      "stateMutability": "view",
      "type": "function"
    },
    {
      "inputs": [
        {
          "internalType": "address",
          "name": "spender",
          "type": "address"
        },
        {
          "internalType": "uint256",
          "name": "addedValue",
          "type": "uint256"
        }
      ],
      "name": "increaseAllowance",
      "outputs": [
        {
          "internalType": "bool",
          "name": "",
          "type": "bool"
        }
      ],
      "stateMutability": "nonpayable",
      "type": "function"
    },
    {
      "inputs": [],
      "name": "joiningFee",
      "outputs": [
        {
          "internalType": "contract JoiningFee",
          "name": "",
          "type": "address"
        }
      ],
      "stateMutability": "view",
      "type": "function"
    },
    {
      "inputs": [],
      "name": "name",
      "outputs": [
        {
          "internalType": "string",
          "name": "",
          "type": "string"
        }
      ],
      "stateMutability": "view",
      "type": "function"
    },
    {
      "inputs": [
        {
          "internalType": "address",
          "name": "owner",
          "type": "address"
        }
      ],
      "name": "nonces",
      "outputs": [
        {
          "internalType": "uint256",
          "name": "",
          "type": "uint256"
        }
      ],
      "stateMutability": "view",
      "type": "function"
    },
    {
      "inputs": [],
      "name": "owner",
      "outputs": [
        {
          "internalType": "address",
          "name": "",
          "type": "address"
        }
      ],
      "stateMutability": "view",
      "type": "function"
    },
    {
      "inputs": [],
      "name": "periodDuration",
      "outputs": [
        {
          "internalType": "uint256",
          "name": "",
          "type": "uint256"
        }
      ],
      "stateMutability": "view",
      "type": "function"
    },
    {
      "inputs": [
        {
          "internalType": "contract Exposure[]",
          "name": "exposures",
          "type": "address[]"
        }
      ],
      "name": "redeemExposures",
      "outputs": [],
      "stateMutability": "nonpayable",
      "type": "function"
    },
    {
      "inputs": [],
      "name": "renounceOwnership",
      "outputs": [],
      "stateMutability": "nonpayable",
      "type": "function"
    },
    {
      "inputs": [
        {
          "internalType": "address",
          "name": "",
          "type": "address"
        }
      ],
      "name": "shareBalanceOf",
      "outputs": [
        {
          "internalType": "uint256",
          "name": "",
          "type": "uint256"
        }
      ],
      "stateMutability": "view",
      "type": "function"
    },
    {
      "inputs": [],
      "name": "shareBoostFactor",
      "outputs": [
        {
          "internalType": "uint256",
          "name": "p",
          "type": "uint256"
        },
        {
          "internalType": "uint256",
          "name": "q",
          "type": "uint256"
        }
      ],
      "stateMutability": "view",
      "type": "function"
    },
    {
      "inputs": [],
      "name": "symbol",
      "outputs": [
        {
          "internalType": "string",
          "name": "",
          "type": "string"
        }
      ],
      "stateMutability": "view",
      "type": "function"
    },
    {
      "inputs": [],
      "name": "targetRevenueShare",
      "outputs": [
        {
          "internalType": "uint256",
          "name": "",
          "type": "uint256"
        }
      ],
      "stateMutability": "view",
      "type": "function"
    },
    {
      "inputs": [],
      "name": "templeExposureToken",
      "outputs": [
        {
          "internalType": "contract Exposure",
          "name": "",
          "type": "address"
        }
      ],
      "stateMutability": "view",
      "type": "function"
    },
    {
      "inputs": [],
      "name": "templeToken",
      "outputs": [
        {
          "internalType": "contract IERC20",
          "name": "",
          "type": "address"
        }
      ],
      "stateMutability": "view",
      "type": "function"
    },
    {
      "inputs": [
        {
          "internalType": "uint256",
          "name": "tokenAmount",
          "type": "uint256"
        }
      ],
      "name": "toSharesAmount",
      "outputs": [
        {
          "internalType": "uint256",
          "name": "sharesAmount",
          "type": "uint256"
        }
      ],
      "stateMutability": "view",
      "type": "function"
    },
    {
      "inputs": [
        {
          "internalType": "uint256",
          "name": "sharesAmount",
          "type": "uint256"
        }
      ],
      "name": "toTokenAmount",
      "outputs": [
        {
          "internalType": "uint256",
          "name": "tokenAmount",
          "type": "uint256"
        }
      ],
      "stateMutability": "view",
      "type": "function"
    },
    {
      "inputs": [],
      "name": "totalShares",
      "outputs": [
        {
          "internalType": "uint256",
          "name": "",
          "type": "uint256"
        }
      ],
      "stateMutability": "view",
      "type": "function"
    },
    {
      "inputs": [],
      "name": "totalSupply",
      "outputs": [
        {
          "internalType": "uint256",
          "name": "",
          "type": "uint256"
        }
      ],
      "stateMutability": "view",
      "type": "function"
    },
    {
      "inputs": [
        {
          "internalType": "address",
          "name": "recipient",
          "type": "address"
        },
        {
          "internalType": "uint256",
          "name": "amount",
          "type": "uint256"
        }
      ],
      "name": "transfer",
      "outputs": [
        {
          "internalType": "bool",
          "name": "",
          "type": "bool"
        }
      ],
      "stateMutability": "nonpayable",
      "type": "function"
    },
    {
      "inputs": [
        {
          "internalType": "address",
          "name": "sender",
          "type": "address"
        },
        {
          "internalType": "address",
          "name": "recipient",
          "type": "address"
        },
        {
          "internalType": "uint256",
          "name": "amount",
          "type": "uint256"
        }
      ],
      "name": "transferFrom",
      "outputs": [
        {
          "internalType": "bool",
          "name": "",
          "type": "bool"
        }
      ],
      "stateMutability": "nonpayable",
      "type": "function"
    },
    {
      "inputs": [
        {
          "internalType": "address",
          "name": "newOwner",
          "type": "address"
        }
      ],
      "name": "transferOwnership",
      "outputs": [],
      "stateMutability": "nonpayable",
      "type": "function"
    },
    {
      "inputs": [],
      "name": "vaultedTempleAccount",
      "outputs": [
        {
          "internalType": "address",
          "name": "",
          "type": "address"
        }
      ],
      "stateMutability": "view",
      "type": "function"
    },
    {
      "inputs": [
        {
          "internalType": "uint256",
          "name": "amount",
          "type": "uint256"
        }
      ],
      "name": "withdraw",
      "outputs": [],
      "stateMutability": "nonpayable",
      "type": "function"
    },
    {
      "inputs": [
        {
          "internalType": "address",
          "name": "owner",
          "type": "address"
        },
        {
          "internalType": "uint256",
          "name": "amount",
          "type": "uint256"
        },
        {
          "internalType": "uint256",
          "name": "deadline",
          "type": "uint256"
        },
        {
          "internalType": "uint8",
          "name": "v",
          "type": "uint8"
        },
        {
          "internalType": "bytes32",
          "name": "r",
          "type": "bytes32"
        },
        {
          "internalType": "bytes32",
          "name": "s",
          "type": "bytes32"
        }
      ],
      "name": "withdrawFor",
      "outputs": [],
      "stateMutability": "nonpayable",
      "type": "function"
    }
  ],
  "bytecode": "0x6102406040527f826f68b7f2dc717b262281384d6e69ddaba3805f6e37a8c771db2cc5d6ba4013610140523480156200003757600080fd5b5060405162003375380380620033758339810160408190526200005a916200039d565b60408051808201825260018152603160f81b6020918201528b518c82012060e08190527fc89efdaa54c0f20c7adf612882df0950f5a951637e0307cdcb4c672f298b8bc66101008190524660a081815285517f8b73c3c69bb8fe3d512ecc4cf759cc79239f7b179b0ffacaa9a75d522b39400f81870181905281880195909552606081810194909452608080820193909352308183018190528751808303909301835260c09182019097528151919095012090529290921b90526101205289896200012533620001a8565b81516200013a906004906020850190620001f8565b50805162000150906005906020840190620001f8565b5050506001600160601b0319606098891b81166101605296881b87166101805294871b86166101a0526101e09390935261020091909152805160095560200151600a5590921b16610220526101c05250620005079050565b600080546001600160a01b038381166001600160a01b0319831681178455604051919092169283917f8be0079c531659141344cd1fd0a4f28419497f9722a3daafe3b4186f6b6457e09190a35050565b8280546200020690620004b4565b90600052602060002090601f0160209004810192826200022a576000855562000275565b82601f106200024557805160ff191683800117855562000275565b8280016001018555821562000275579182015b828111156200027557825182559160200191906001019062000258565b506200028392915062000287565b5090565b5b8082111562000283576000815560010162000288565b80516001600160a01b0381168114620002b657600080fd5b919050565b600082601f830112620002cc578081fd5b81516001600160401b03811115620002e857620002e8620004f1565b6020620002fe601f8301601f1916820162000481565b828152858284870101111562000312578384fd5b835b838110156200033157858101830151828201840152820162000314565b838111156200034257848385840101525b5095945050505050565b6000604082840312156200035e578081fd5b604080519081016001600160401b0381118282101715620003835762000383620004f1565b604052825181526020928301519281019290925250919050565b6000806000806000806000806000806101608b8d031215620003bd578586fd5b8a516001600160401b0380821115620003d4578788fd5b620003e28e838f01620002bb565b9b5060208d0151915080821115620003f8578788fd5b50620004078d828e01620002bb565b9950506200041860408c016200029e565b97506200042860608c016200029e565b96506200043860808c016200029e565b955060a08b0151945060c08b01519350620004578c60e08d016200034c565b9250620004686101208c016200029e565b91506101408b015190509295989b9194979a5092959850565b604051601f8201601f191681016001600160401b0381118282101715620004ac57620004ac620004f1565b604052919050565b600181811c90821680620004c957607f821691505b60208210811415620004eb57634e487b7160e01b600052602260045260246000fd5b50919050565b634e487b7160e01b600052604160045260246000fd5b60805160a05160c05160601c60e0516101005161012051610140516101605160601c6101805160601c6101a05160601c6101c0516101e051610200516102205160601c612d476200062e600039600081816104270152610b3c015260008181610668015261101201526000818161058501528181610b0d01528181610fb701526110570152600081816103e501528181610ae701528181610f8701528181610fdb015261103301526000818161062e0152610cc20152600081816104d001528181610d1c015281816111ab015281816112b9015261174b01526000818161055e0152610ca00152600081816104a901526106fd01526000611ecb01526000611f1a01526000611ef501526000611e4e01526000611e7801526000611ea20152612d476000f3fe608060405234801561001057600080fd5b50600436106102ad5760003560e01c8063715018a61161017b578063b0ff1106116100d8578063bca8371f1161008c578063e1eda8f911610071578063e1eda8f914610629578063f2fde38b14610650578063fc1d3de21461066357600080fd5b8063bca8371f146105da578063dd62ed3e146105e357600080fd5b8063b470aade116100bd578063b470aade14610580578063b6b55f25146105a7578063b9844d8d146105ba57600080fd5b8063b0ff110614610546578063b1a9069c1461055957600080fd5b80638da5cb5b1161012f578063981fc37211610114578063981fc37214610518578063a457c2d714610520578063a9059cbb1461053357600080fd5b80638da5cb5b146104f257806395d89b411461051057600080fd5b80637ecebe00116101605780637ecebe001461049157806381771329146104a457806382dad8ac146104cb57600080fd5b8063715018a6146104815780637c5a227c1461048957600080fd5b8063341533d91161022957806363ceec65116101dd5780636b2f1417116101c25780636b2f14171461041a5780636eeeaaa51461042257806370a082311461046e57600080fd5b806363ceec65146103e05780636823920a1461040757600080fd5b8063395093511161020e57806339509351146103a45780633a98ef39146103b75780634473ad52146103c057600080fd5b8063341533d9146103795780633644e5151461039c57600080fd5b806318160ddd116102805780632e1a7d4d116102655780632e1a7d4d146103445780632f4f21e214610357578063313ce5671461036a57600080fd5b806318160ddd1461032957806323b872dd1461033157600080fd5b8063061e5844146102b257806306fdde03146102c7578063095ea7b3146102e5578063174e4ea614610308575b600080fd5b6102c56102c0366004612937565b61068a565b005b6102cf61084c565b6040516102dc9190612ae8565b60405180910390f35b6102f86102f336600461290c565b6108de565b60405190151581526020016102dc565b61031b610316366004612a9c565b6108f4565b6040519081526020016102dc565b61031b610923565b6102f861033f3660046128cc565b610935565b6102c5610352366004612a9c565b610a1d565b6102c561036536600461290c565b610a2b565b604051601281526020016102dc565b600954600a54610387919082565b604080519283526020830191909152016102dc565b61031b610dec565b6102f86103b236600461290c565b610df6565b61031b60065481565b61031b6103ce366004612878565b60076020526000908152604090205481565b61031b7f000000000000000000000000000000000000000000000000000000000000000081565b6102c5610415366004612997565b610e3f565b6102f8610f83565b6104497f000000000000000000000000000000000000000000000000000000000000000081565b60405173ffffffffffffffffffffffffffffffffffffffff90911681526020016102dc565b61031b61047c366004612878565b6110a1565b6102c56110d6565b610387611163565b61031b61049f366004612878565b611246565b61031b7f000000000000000000000000000000000000000000000000000000000000000081565b6104497f000000000000000000000000000000000000000000000000000000000000000081565b60005473ffffffffffffffffffffffffffffffffffffffff16610449565b6102cf611271565b61031b611280565b6102f861052e36600461290c565b61135c565b6102f861054136600461290c565b611434565b61031b610554366004612a9c565b611441565b6104497f000000000000000000000000000000000000000000000000000000000000000081565b61031b7f000000000000000000000000000000000000000000000000000000000000000081565b6102c56105b5366004612a9c565b61145e565b61031b6105c8366004612878565b60086020526000908152604090205481565b61031b61012c81565b61031b6105f1366004612894565b73ffffffffffffffffffffffffffffffffffffffff918216600090815260026020908152604080832093909416825291909152205490565b6104497f000000000000000000000000000000000000000000000000000000000000000081565b6102c561065e366004612878565b611468565b61031b7f000000000000000000000000000000000000000000000000000000000000000081565b834211156106f9576040517f08c379a000000000000000000000000000000000000000000000000000000000815260206004820152601760248201527f5661756c743a206578706972656420646561646c696e6500000000000000000060448201526064015b60405180910390fd5b60007f0000000000000000000000000000000000000000000000000000000000000000873388886107298c611595565b60408051602081019790975273ffffffffffffffffffffffffffffffffffffffff95861690870152939092166060850152608084015260a083015260c082015260e001604051602081830303815290604052805190602001209050600061078f826115ca565b9050600061079f82878787611633565b90508873ffffffffffffffffffffffffffffffffffffffff168173ffffffffffffffffffffffffffffffffffffffff1614610836576040517f08c379a000000000000000000000000000000000000000000000000000000000815260206004820152601860248201527f5661756c743a20696e76616c6964207369676e6174757265000000000000000060448201526064016106f0565b61084189338a61165b565b505050505050505050565b60606004805461085b90612c0a565b80601f016020809104026020016040519081016040528092919081815260200182805461088790612c0a565b80156108d45780601f106108a9576101008083540402835291602001916108d4565b820191906000526020600020905b8154815290600101906020018083116108b757829003601f168201915b5050505050905090565b60006108eb3384846117fc565b50600192915050565b6000806000610901611163565b9092509050806109118386612b8a565b61091b9190612b51565b949350505050565b60006109306006546108f4565b905090565b60006109428484846119b0565b73ffffffffffffffffffffffffffffffffffffffff8416600090815260026020908152604080832033845290915290205482811015610a03576040517f08c379a000000000000000000000000000000000000000000000000000000000815260206004820152602860248201527f45524332303a207472616e7366657220616d6f756e742065786365656473206160448201527f6c6c6f77616e636500000000000000000000000000000000000000000000000060648201526084016106f0565b610a1085338584036117fc565b60019150505b9392505050565b610a2833338361165b565b50565b610a33610f83565b610abf576040517f08c379a000000000000000000000000000000000000000000000000000000000815260206004820152603a60248201527f5661756c743a2043616e6e6f74206a6f696e207661756c74207768656e206f7560448201527f7473696465206f6620656e7465722f657869742077696e646f7700000000000060648201526084016106f0565b6040517f07e7cc270000000000000000000000000000000000000000000000000000000081527f000000000000000000000000000000000000000000000000000000000000000060048201527f000000000000000000000000000000000000000000000000000000000000000060248201523060448201526000907f000000000000000000000000000000000000000000000000000000000000000073ffffffffffffffffffffffffffffffffffffffff16906307e7cc279060640160206040518083038186803b158015610b9357600080fd5b505afa158015610ba7573d6000803e3d6000fd5b505050506040513d601f19601f82011682018060405250810190610bcb9190612ab4565b90506000670de0b6b3a7640000610be28385612b8a565b610bec9190612b51565b9050808311610c7d576040517f08c379a000000000000000000000000000000000000000000000000000000000815260206004820152603160248201527f5661756c743a2043616e6e6f74206a6f696e207768656e20666565206973206860448201527f6967686572207468616e20616d6f756e7400000000000000000000000000000060648201526084016106f0565b6000610c898285612bc7565b90508315610d8e57610c9b8582611c73565b610ce77f0000000000000000000000000000000000000000000000000000000000000000337f000000000000000000000000000000000000000000000000000000000000000087611d99565b6040517f40c10f19000000000000000000000000000000000000000000000000000000008152306004820152602481018590527f000000000000000000000000000000000000000000000000000000000000000073ffffffffffffffffffffffffffffffffffffffff16906340c10f1990604401600060405180830381600087803b158015610d7557600080fd5b505af1158015610d89573d6000803e3d6000fd5b505050505b6040805173ffffffffffffffffffffffffffffffffffffffff87168152602081018690529081018290527f90890809c654f11d6e72a28fa60149770a0d11ec6c92319d6ceb2bb0a4ea1a159060600160405180910390a15050505050565b6000610930611e34565b33600081815260026020908152604080832073ffffffffffffffffffffffffffffffffffffffff8716845290915281205490916108eb918590610e3a908690612b39565b6117fc565b60005473ffffffffffffffffffffffffffffffffffffffff163314610ec0576040517f08c379a000000000000000000000000000000000000000000000000000000000815260206004820181905260248201527f4f776e61626c653a2063616c6c6572206973206e6f7420746865206f776e657260448201526064016106f0565b60005b8151811015610f7f57818181518110610f05577f4e487b7100000000000000000000000000000000000000000000000000000000600052603260045260246000fd5b602002602001015173ffffffffffffffffffffffffffffffffffffffff1663be040fb06040518163ffffffff1660e01b8152600401600060405180830381600087803b158015610f5457600080fd5b505af1158015610f68573d6000803e3d6000fd5b505050508080610f7790612c58565b915050610ec3565b5050565b60007f0000000000000000000000000000000000000000000000000000000000000000421015610fb35750600090565b60007f00000000000000000000000000000000000000000000000000000000000000006110007f000000000000000000000000000000000000000000000000000000000000000042612bc7565b61100a9190612b51565b90504261012c7f00000000000000000000000000000000000000000000000000000000000000007f000000000000000000000000000000000000000000000000000000000000000061107c7f000000000000000000000000000000000000000000000000000000000000000086612b8a565b6110869190612b39565b6110909190612b39565b61109a9190612b39565b1191505090565b73ffffffffffffffffffffffffffffffffffffffff81166000908152600760205260408120546110d0906108f4565b92915050565b60005473ffffffffffffffffffffffffffffffffffffffff163314611157576040517f08c379a000000000000000000000000000000000000000000000000000000000815260206004820181905260248201527f4f776e61626c653a2063616c6c6572206973206e6f7420746865206f776e657260448201526064016106f0565b6111616000611f68565b565b6040517f70a08231000000000000000000000000000000000000000000000000000000008152306004820152600090819073ffffffffffffffffffffffffffffffffffffffff7f000000000000000000000000000000000000000000000000000000000000000016906370a082319060240160206040518083038186803b1580156111ed57600080fd5b505afa158015611201573d6000803e3d6000fd5b505050506040513d601f19601f820116820180604052508101906112259190612ab4565b91506006549050816000141561123a57600191505b806112425750805b9091565b73ffffffffffffffffffffffffffffffffffffffff81166000908152600860205260408120546110d0565b60606005805461085b90612c0a565b600a546009546040517f70a0823100000000000000000000000000000000000000000000000000000000815230600482015260009291907f000000000000000000000000000000000000000000000000000000000000000073ffffffffffffffffffffffffffffffffffffffff16906370a082319060240160206040518083038186803b15801561131057600080fd5b505afa158015611324573d6000803e3d6000fd5b505050506040513d601f19601f820116820180604052508101906113489190612ab4565b6113529190612b8a565b6109309190612b51565b33600090815260026020908152604080832073ffffffffffffffffffffffffffffffffffffffff861684529091528120548281101561141d576040517f08c379a000000000000000000000000000000000000000000000000000000000815260206004820152602560248201527f45524332303a2064656372656173656420616c6c6f77616e63652062656c6f7760448201527f207a65726f00000000000000000000000000000000000000000000000000000060648201526084016106f0565b61142a33858584036117fc565b5060019392505050565b60006108eb3384846119b0565b600080600061144e611163565b9092509050816109118286612b8a565b610a283382610a2b565b60005473ffffffffffffffffffffffffffffffffffffffff1633146114e9576040517f08c379a000000000000000000000000000000000000000000000000000000000815260206004820181905260248201527f4f776e61626c653a2063616c6c6572206973206e6f7420746865206f776e657260448201526064016106f0565b73ffffffffffffffffffffffffffffffffffffffff811661158c576040517f08c379a000000000000000000000000000000000000000000000000000000000815260206004820152602660248201527f4f776e61626c653a206e6577206f776e657220697320746865207a65726f206160448201527f646472657373000000000000000000000000000000000000000000000000000060648201526084016106f0565b610a2881611f68565b73ffffffffffffffffffffffffffffffffffffffff811660009081526008602052604090208054600181018255905b50919050565b60006110d06115d7611e34565b836040517f19010000000000000000000000000000000000000000000000000000000000006020820152602281018390526042810182905260009060620160405160208183030381529060405280519060200120905092915050565b600080600061164487878787611fdd565b91509150611651816120f5565b5095945050505050565b611663610f83565b6116ef576040517f08c379a000000000000000000000000000000000000000000000000000000000815260206004820152603a60248201527f5661756c743a2043616e6e6f742065786974207661756c74207768656e206f7560448201527f7473696465206f6620656e7465722f657869742077696e646f7700000000000060648201526084016106f0565b80156116ff576116ff8382612411565b6040517f982755930000000000000000000000000000000000000000000000000000000081526004810182905273ffffffffffffffffffffffffffffffffffffffff83811660248301527f00000000000000000000000000000000000000000000000000000000000000001690639827559390604401600060405180830381600087803b15801561178f57600080fd5b505af11580156117a3573d6000803e3d6000fd5b50506040805173ffffffffffffffffffffffffffffffffffffffff87168152602081018590527f884edad9ce6fa2440d8a54cc123490eb96d2768479d49ff9c7366125a9424364935001905060405180910390a1505050565b73ffffffffffffffffffffffffffffffffffffffff831661189e576040517f08c379a0000000000000000000000000000000000000000000000000000000008152602060048201526024808201527f45524332303a20617070726f76652066726f6d20746865207a65726f2061646460448201527f726573730000000000000000000000000000000000000000000000000000000060648201526084016106f0565b73ffffffffffffffffffffffffffffffffffffffff8216611941576040517f08c379a000000000000000000000000000000000000000000000000000000000815260206004820152602260248201527f45524332303a20617070726f766520746f20746865207a65726f20616464726560448201527f737300000000000000000000000000000000000000000000000000000000000060648201526084016106f0565b73ffffffffffffffffffffffffffffffffffffffff83811660008181526002602090815260408083209487168084529482529182902085905590518481527f8c5be1e5ebec7d5bd14f71427d1e84f3dd0314c0f7b2291e5b200ac8c7c3b92591015b60405180910390a3505050565b73ffffffffffffffffffffffffffffffffffffffff8316611a53576040517f08c379a000000000000000000000000000000000000000000000000000000000815260206004820152602560248201527f45524332303a207472616e736665722066726f6d20746865207a65726f20616460448201527f647265737300000000000000000000000000000000000000000000000000000060648201526084016106f0565b73ffffffffffffffffffffffffffffffffffffffff8216611af6576040517f08c379a000000000000000000000000000000000000000000000000000000000815260206004820152602360248201527f45524332303a207472616e7366657220746f20746865207a65726f206164647260448201527f657373000000000000000000000000000000000000000000000000000000000060648201526084016106f0565b73ffffffffffffffffffffffffffffffffffffffff831660009081526007602052604081205490611b2683611441565b905080821015611bb8576040517f08c379a000000000000000000000000000000000000000000000000000000000815260206004820152602660248201527f45524332303a207472616e7366657220616d6f756e742065786365656473206260448201527f616c616e6365000000000000000000000000000000000000000000000000000060648201526084016106f0565b73ffffffffffffffffffffffffffffffffffffffff8086166000908152600760205260408082208054859003905591861681529081208054839290611bfe908490612b39565b925050819055508373ffffffffffffffffffffffffffffffffffffffff168573ffffffffffffffffffffffffffffffffffffffff167fddf252ad1be2c89b69c2b068fc378daa952ba7f163c4a11628f55a4df523b3ef85604051611c6491815260200190565b60405180910390a35050505050565b73ffffffffffffffffffffffffffffffffffffffff8216611cf0576040517f08c379a000000000000000000000000000000000000000000000000000000000815260206004820152601f60248201527f45524332303a206d696e7420746f20746865207a65726f20616464726573730060448201526064016106f0565b6000611cfb82611441565b90508060066000828254611d0f9190612b39565b909155505073ffffffffffffffffffffffffffffffffffffffff831660009081526007602052604081208054839290611d49908490612b39565b909155505060405182815273ffffffffffffffffffffffffffffffffffffffff8416906000907fddf252ad1be2c89b69c2b068fc378daa952ba7f163c4a11628f55a4df523b3ef906020016119a3565b6040805173ffffffffffffffffffffffffffffffffffffffff85811660248301528416604482015260648082018490528251808303909101815260849091019091526020810180517bffffffffffffffffffffffffffffffffffffffffffffffffffffffff167f23b872dd00000000000000000000000000000000000000000000000000000000179052611e2e90859061260b565b50505050565b60003073ffffffffffffffffffffffffffffffffffffffff7f000000000000000000000000000000000000000000000000000000000000000016148015611e9a57507f000000000000000000000000000000000000000000000000000000000000000046145b15611ec457507f000000000000000000000000000000000000000000000000000000000000000090565b50604080517f00000000000000000000000000000000000000000000000000000000000000006020808301919091527f0000000000000000000000000000000000000000000000000000000000000000828401527f000000000000000000000000000000000000000000000000000000000000000060608301524660808301523060a0808401919091528351808403909101815260c0909201909252805191012090565b6000805473ffffffffffffffffffffffffffffffffffffffff8381167fffffffffffffffffffffffff0000000000000000000000000000000000000000831681178455604051919092169283917f8be0079c531659141344cd1fd0a4f28419497f9722a3daafe3b4186f6b6457e09190a35050565b6000807f7fffffffffffffffffffffffffffffff5d576e7357a4501ddfe92f46681b20a083111561201457506000905060036120ec565b8460ff16601b1415801561202c57508460ff16601c14155b1561203d57506000905060046120ec565b6040805160008082526020820180845289905260ff881692820192909252606081018690526080810185905260019060a0016020604051602081039080840390855afa158015612091573d6000803e3d6000fd5b50506040517fffffffffffffffffffffffffffffffffffffffffffffffffffffffffffffffe0015191505073ffffffffffffffffffffffffffffffffffffffff81166120e5576000600192509250506120ec565b9150600090505b94509492505050565b6000816004811115612130577f4e487b7100000000000000000000000000000000000000000000000000000000600052602160045260246000fd5b14156121395750565b6001816004811115612174577f4e487b7100000000000000000000000000000000000000000000000000000000600052602160045260246000fd5b14156121dc576040517f08c379a000000000000000000000000000000000000000000000000000000000815260206004820152601860248201527f45434453413a20696e76616c6964207369676e6174757265000000000000000060448201526064016106f0565b6002816004811115612217577f4e487b7100000000000000000000000000000000000000000000000000000000600052602160045260246000fd5b141561227f576040517f08c379a000000000000000000000000000000000000000000000000000000000815260206004820152601f60248201527f45434453413a20696e76616c6964207369676e6174757265206c656e6774680060448201526064016106f0565b60038160048111156122ba577f4e487b7100000000000000000000000000000000000000000000000000000000600052602160045260246000fd5b1415612348576040517f08c379a000000000000000000000000000000000000000000000000000000000815260206004820152602260248201527f45434453413a20696e76616c6964207369676e6174757265202773272076616c60448201527f756500000000000000000000000000000000000000000000000000000000000060648201526084016106f0565b6004816004811115612383577f4e487b7100000000000000000000000000000000000000000000000000000000600052602160045260246000fd5b1415610a28576040517f08c379a000000000000000000000000000000000000000000000000000000000815260206004820152602260248201527f45434453413a20696e76616c6964207369676e6174757265202776272076616c60448201527f756500000000000000000000000000000000000000000000000000000000000060648201526084016106f0565b73ffffffffffffffffffffffffffffffffffffffff82166124b4576040517f08c379a000000000000000000000000000000000000000000000000000000000815260206004820152602160248201527f45524332303a206275726e2066726f6d20746865207a65726f2061646472657360448201527f730000000000000000000000000000000000000000000000000000000000000060648201526084016106f0565b73ffffffffffffffffffffffffffffffffffffffff8216600090815260076020526040812054906124e483611441565b905080821015612576576040517f08c379a000000000000000000000000000000000000000000000000000000000815260206004820152602260248201527f45524332303a206275726e20616d6f756e7420657863656564732062616c616e60448201527f636500000000000000000000000000000000000000000000000000000000000060648201526084016106f0565b73ffffffffffffffffffffffffffffffffffffffff841660009081526007602052604081208284039055600680548392906125b2908490612bc7565b909155505060405183815260009073ffffffffffffffffffffffffffffffffffffffff8616907fddf252ad1be2c89b69c2b068fc378daa952ba7f163c4a11628f55a4df523b3ef9060200160405180910390a350505050565b600061266d826040518060400160405280602081526020017f5361666545524332303a206c6f772d6c6576656c2063616c6c206661696c65648152508573ffffffffffffffffffffffffffffffffffffffff1661271c9092919063ffffffff16565b805190915015612717578080602001905181019061268b9190612a7c565b612717576040517f08c379a000000000000000000000000000000000000000000000000000000000815260206004820152602a60248201527f5361666545524332303a204552433230206f7065726174696f6e20646964206e60448201527f6f7420737563636565640000000000000000000000000000000000000000000060648201526084016106f0565b505050565b606061091b848460008585843b61278f576040517f08c379a000000000000000000000000000000000000000000000000000000000815260206004820152601d60248201527f416464726573733a2063616c6c20746f206e6f6e2d636f6e747261637400000060448201526064016106f0565b6000808673ffffffffffffffffffffffffffffffffffffffff1685876040516127b89190612acc565b60006040518083038185875af1925050503d80600081146127f5576040519150601f19603f3d011682016040523d82523d6000602084013e6127fa565b606091505b509150915061280a828286612815565b979650505050505050565b60608315612824575081610a16565b8251156128345782518084602001fd5b816040517f08c379a00000000000000000000000000000000000000000000000000000000081526004016106f09190612ae8565b803561287381612cef565b919050565b600060208284031215612889578081fd5b8135610a1681612cef565b600080604083850312156128a6578081fd5b82356128b181612cef565b915060208301356128c181612cef565b809150509250929050565b6000806000606084860312156128e0578081fd5b83356128eb81612cef565b925060208401356128fb81612cef565b929592945050506040919091013590565b6000806040838503121561291e578182fd5b823561292981612cef565b946020939093013593505050565b60008060008060008060c0878903121561294f578182fd5b863561295a81612cef565b95506020870135945060408701359350606087013560ff8116811461297d578283fd5b9598949750929560808101359460a0909101359350915050565b600060208083850312156129a9578182fd5b823567ffffffffffffffff808211156129c0578384fd5b818501915085601f8301126129d3578384fd5b8135818111156129e5576129e5612cc0565b8060051b6040517fffffffffffffffffffffffffffffffffffffffffffffffffffffffffffffffe0603f83011681018181108582111715612a2857612a28612cc0565b604052828152858101935084860182860187018a1015612a46578788fd5b8795505b83861015612a6f57612a5b81612868565b855260019590950194938601938601612a4a565b5098975050505050505050565b600060208284031215612a8d578081fd5b81518015158114610a16578182fd5b600060208284031215612aad578081fd5b5035919050565b600060208284031215612ac5578081fd5b5051919050565b60008251612ade818460208701612bde565b9190910192915050565b6020815260008251806020840152612b07816040850160208701612bde565b601f017fffffffffffffffffffffffffffffffffffffffffffffffffffffffffffffffe0169190910160400192915050565b60008219821115612b4c57612b4c612c91565b500190565b600082612b85577f4e487b710000000000000000000000000000000000000000000000000000000081526012600452602481fd5b500490565b6000817fffffffffffffffffffffffffffffffffffffffffffffffffffffffffffffffff0483118215151615612bc257612bc2612c91565b500290565b600082821015612bd957612bd9612c91565b500390565b60005b83811015612bf9578181015183820152602001612be1565b83811115611e2e5750506000910152565b600181811c90821680612c1e57607f821691505b602082108114156115c4577f4e487b7100000000000000000000000000000000000000000000000000000000600052602260045260246000fd5b60007fffffffffffffffffffffffffffffffffffffffffffffffffffffffffffffffff821415612c8a57612c8a612c91565b5060010190565b7f4e487b7100000000000000000000000000000000000000000000000000000000600052601160045260246000fd5b7f4e487b7100000000000000000000000000000000000000000000000000000000600052604160045260246000fd5b73ffffffffffffffffffffffffffffffffffffffff81168114610a2857600080fdfea26469706673582212202f45e962c35a4d88d1415867e0b85b59cddff88547c4eecc7a0e1de10030dd3164736f6c63430008040033",
  "linkReferences": {},
  "deployedLinkReferences": {}
}