{
  "_format": "hh-sol-artifact-1",
  "contractName": "Faith",
  "sourceName": "contracts/deprecated/Faith.sol",
  "abi": [
    {
      "inputs": [],
      "stateMutability": "nonpayable",
      "type": "constructor"
    },
    {
      "anonymous": false,
      "inputs": [
        {
          "indexed": false,
          "internalType": "address",
          "name": "account",
          "type": "address"
        },
        {
          "indexed": false,
          "internalType": "uint256",
          "name": "amount",
          "type": "uint256"
        }
      ],
      "name": "Gain",
      "type": "event"
    },
    {
      "anonymous": false,
      "inputs": [
        {
          "indexed": false,
          "internalType": "address",
          "name": "account",
          "type": "address"
        },
        {
          "indexed": false,
          "internalType": "uint256",
          "name": "amount",
          "type": "uint256"
        }
      ],
      "name": "Loose",
      "type": "event"
    },
    {
      "anonymous": false,
      "inputs": [
        {
          "indexed": true,
          "internalType": "address",
          "name": "previousOwner",
          "type": "address"
        },
        {
          "indexed": true,
          "internalType": "address",
          "name": "newOwner",
          "type": "address"
        }
      ],
      "name": "OwnershipTransferred",
      "type": "event"
    },
    {
      "inputs": [
        {
          "internalType": "address",
          "name": "account",
          "type": "address"
        }
      ],
      "name": "addManager",
      "outputs": [],
      "stateMutability": "nonpayable",
      "type": "function"
    },
    {
      "inputs": [
        {
          "internalType": "address",
          "name": "",
          "type": "address"
        }
      ],
      "name": "balances",
      "outputs": [
        {
          "internalType": "uint112",
          "name": "lifeTimeFaith",
          "type": "uint112"
        },
        {
          "internalType": "uint112",
          "name": "usableFaith",
          "type": "uint112"
        }
      ],
      "stateMutability": "view",
      "type": "function"
    },
    {
      "inputs": [
        {
          "internalType": "address",
          "name": "to",
          "type": "address"
        },
        {
          "internalType": "uint112",
          "name": "amount",
          "type": "uint112"
        }
      ],
      "name": "gain",
      "outputs": [],
      "stateMutability": "nonpayable",
      "type": "function"
    },
    {
      "inputs": [],
      "name": "owner",
      "outputs": [
        {
          "internalType": "address",
          "name": "",
          "type": "address"
        }
      ],
      "stateMutability": "view",
      "type": "function"
    },
    {
      "inputs": [
        {
          "internalType": "address",
          "name": "to",
          "type": "address"
        },
        {
          "internalType": "uint112",
          "name": "amount",
          "type": "uint112"
        }
      ],
      "name": "redeem",
      "outputs": [],
      "stateMutability": "nonpayable",
      "type": "function"
    },
    {
      "inputs": [
        {
          "internalType": "address",
          "name": "account",
          "type": "address"
        }
      ],
      "name": "removeManager",
      "outputs": [],
      "stateMutability": "nonpayable",
      "type": "function"
    },
    {
      "inputs": [],
      "name": "renounceOwnership",
      "outputs": [],
      "stateMutability": "nonpayable",
      "type": "function"
    },
    {
      "inputs": [],
      "name": "totalSupply",
      "outputs": [
        {
          "internalType": "uint256",
          "name": "",
          "type": "uint256"
        }
      ],
      "stateMutability": "view",
      "type": "function"
    },
    {
      "inputs": [
        {
          "internalType": "address",
          "name": "newOwner",
          "type": "address"
        }
      ],
      "name": "transferOwnership",
      "outputs": [],
      "stateMutability": "nonpayable",
      "type": "function"
    }
  ],
  "bytecode": "0x608060405234801561001057600080fd5b5061001a336100c9565b60016003600082825461002d919061012f565b9091555050306000908152600160208190526040822080549192909161005d9084906001600160701b0316610148565b82546101009290920a6001600160701b0381810219909316918316021790915530600090815260016020819052604082208054919450926100a091859116610148565b92506101000a8154816001600160701b0302191690836001600160701b0316021790555061016f565b600080546001600160a01b038381166001600160a01b0319831681178455604051919092169283917f8be0079c531659141344cd1fd0a4f28419497f9722a3daafe3b4186f6b6457e09190a35050565b634e487b7160e01b600052601160045260246000fd5b8082018082111561014257610142610119565b92915050565b6001600160701b0381811683821601908082111561016857610168610119565b5092915050565b6109e78061017e6000396000f3fe608060405234801561001057600080fd5b50600436106100a35760003560e01c806364a3bc57116100765780638da5cb5b1161005b5780638da5cb5b14610174578063ac18de431461019c578063f2fde38b146101af57600080fd5b806364a3bc5714610159578063715018a61461016c57600080fd5b806318160ddd146100a857806327e235e3146100c45780632d06177a146101315780633a847cb214610146575b600080fd5b6100b160035481565b6040519081526020015b60405180910390f35b61010a6100d23660046108bc565b6001602052600090815260409020546dffffffffffffffffffffffffffff808216916e01000000000000000000000000000090041682565b604080516dffffffffffffffffffffffffffff9384168152929091166020830152016100bb565b61014461013f3660046108bc565b6101c2565b005b6101446101543660046108de565b610219565b6101446101673660046108de565b61045a565b61014461067e565b60005460405173ffffffffffffffffffffffffffffffffffffffff90911681526020016100bb565b6101446101aa3660046108bc565b610692565b6101446101bd3660046108bc565b6106e6565b6101ca61079d565b73ffffffffffffffffffffffffffffffffffffffff16600090815260026020526040902080547fffffffffffffffffffffffffffffffffffffffffffffffffffffffffffffff00166001179055565b3360009081526002602052604090205460ff1615156001146102c2576040517f08c379a000000000000000000000000000000000000000000000000000000000815260206004820152602160248201527f46616974683a2063616c6c65722063616e6e6f74206d616e616765206661697460448201527f680000000000000000000000000000000000000000000000000000000000000060648201526084015b60405180910390fd5b73ffffffffffffffffffffffffffffffffffffffff82166000908152600160205260409020546dffffffffffffffffffffffffffff6e0100000000000000000000000000009091048116908216811015610378576040517f08c379a000000000000000000000000000000000000000000000000000000000815260206004820152601660248201527f4275726e206578636565647320616c6c6f77616e63650000000000000000000060448201526064016102b9565b816dffffffffffffffffffffffffffff166003600082825461039a9190610957565b909155505073ffffffffffffffffffffffffffffffffffffffff831660008181526001602090815260409182902080547fffffffff0000000000000000000000000000ffffffffffffffffffffffffffff81166e010000000000000000000000000000918290046dffffffffffffffffffffffffffff90811689900381169092021790915582519384528516908301527fe055ae8faf25eafc77d79a58434a4a72a90571abf61e48a8e051d62547f783a5910160405180910390a1505050565b3360009081526002602052604090205460ff1615156001146104fe576040517f08c379a000000000000000000000000000000000000000000000000000000000815260206004820152602160248201527f46616974683a2063616c6c65722063616e6e6f74206d616e616765206661697460448201527f680000000000000000000000000000000000000000000000000000000000000060648201526084016102b9565b806dffffffffffffffffffffffffffff16600360008282546105209190610970565b909155505073ffffffffffffffffffffffffffffffffffffffff82166000908152600160205260408120805483929061056a9084906dffffffffffffffffffffffffffff16610983565b82546101009290920a6dffffffffffffffffffffffffffff81810219909316918316021790915573ffffffffffffffffffffffffffffffffffffffff8416600090815260016020526040902080548493509091600e916105de9185916e010000000000000000000000000000900416610983565b92506101000a8154816dffffffffffffffffffffffffffff02191690836dffffffffffffffffffffffffffff1602179055507fd2ff26b9fa2e246942febada60f642d2d8338bd3c40ca9f3e65d01a24eb57009828260405161067292919073ffffffffffffffffffffffffffffffffffffffff9290921682526dffffffffffffffffffffffffffff16602082015260400190565b60405180910390a15050565b61068661079d565b610690600061081e565b565b61069a61079d565b73ffffffffffffffffffffffffffffffffffffffff16600090815260026020526040902080547fffffffffffffffffffffffffffffffffffffffffffffffffffffffffffffff00169055565b6106ee61079d565b73ffffffffffffffffffffffffffffffffffffffff8116610791576040517f08c379a000000000000000000000000000000000000000000000000000000000815260206004820152602660248201527f4f776e61626c653a206e6577206f776e657220697320746865207a65726f206160448201527f646472657373000000000000000000000000000000000000000000000000000060648201526084016102b9565b61079a8161081e565b50565b60005473ffffffffffffffffffffffffffffffffffffffff163314610690576040517f08c379a000000000000000000000000000000000000000000000000000000000815260206004820181905260248201527f4f776e61626c653a2063616c6c6572206973206e6f7420746865206f776e657260448201526064016102b9565b6000805473ffffffffffffffffffffffffffffffffffffffff8381167fffffffffffffffffffffffff0000000000000000000000000000000000000000831681178455604051919092169283917f8be0079c531659141344cd1fd0a4f28419497f9722a3daafe3b4186f6b6457e09190a35050565b803573ffffffffffffffffffffffffffffffffffffffff811681146108b757600080fd5b919050565b6000602082840312156108ce57600080fd5b6108d782610893565b9392505050565b600080604083850312156108f157600080fd5b6108fa83610893565b915060208301356dffffffffffffffffffffffffffff8116811461091d57600080fd5b809150509250929050565b7f4e487b7100000000000000000000000000000000000000000000000000000000600052601160045260246000fd5b8181038181111561096a5761096a610928565b92915050565b8082018082111561096a5761096a610928565b6dffffffffffffffffffffffffffff8181168382160190808211156109aa576109aa610928565b509291505056fea2646970667358221220a77efbd0f36e4aff7195225518acaaa6a047be6917772f8c1b6191a89d990d1864736f6c63430008130033",
  "linkReferences": {},
  "deployedLinkReferences": {}
}