{
  "_format": "hh-sol-artifact-1",
  "contractName": "CompoundedInterest",
  "sourceName": "contracts/v2/interestRate/CompoundedInterest.sol",
  "abi": [
    {
      "inputs": [],
      "name": "ONE_YEAR",
      "outputs": [
        {
          "internalType": "uint256",
          "name": "",
          "type": "uint256"
        }
      ],
      "stateMutability": "view",
      "type": "function"
    }
  ],
  "bytecode": "0x608a610038600b82828239805160001a607314602b57634e487b7160e01b600052600060045260246000fd5b30600052607381538281f3fe730000000000000000000000000000000000000000301460806040526004361060335760003560e01c806316d3bfbb146038575b600080fd5b60426301e1338081565b60405190815260200160405180910390f3fea264697066735822122020e04714de28d360c5ab299342237fa163f17981e212a64592d3f034150e31ee64736f6c63430008130033",
  "linkReferences": {},
  "deployedLinkReferences": {}
}