{
  "_format": "hh-sol-artifact-1",
  "contractName": "RamosTestnetTempleTokenVault",
  "sourceName": "contracts/amo/test/RamosTestnetTempleTokenVault.sol",
  "abi": [
    {
      "inputs": [
        {
          "internalType": "address",
          "name": "_templeToken",
          "type": "address"
        },
        {
          "internalType": "address",
          "name": "_quoteToken",
          "type": "address"
        }
      ],
      "stateMutability": "nonpayable",
      "type": "constructor"
    },
    {
      "inputs": [
        {
          "internalType": "uint256",
          "name": "amount",
          "type": "uint256"
        },
        {
          "internalType": "address",
          "name": "recipient",
          "type": "address"
        }
      ],
      "name": "borrowProtocolToken",
      "outputs": [],
      "stateMutability": "nonpayable",
      "type": "function"
    },
    {
      "inputs": [
        {
          "internalType": "uint256",
          "name": "amount",
          "type": "uint256"
        },
        {
          "internalType": "address",
          "name": "recipient",
          "type": "address"
        }
      ],
      "name": "borrowQuoteToken",
      "outputs": [],
      "stateMutability": "nonpayable",
      "type": "function"
    },
    {
      "inputs": [],
      "name": "quoteToken",
      "outputs": [
        {
          "internalType": "contract IERC20",
          "name": "",
          "type": "address"
        }
      ],
      "stateMutability": "view",
      "type": "function"
    },
    {
      "inputs": [
        {
          "internalType": "uint256",
          "name": "amount",
          "type": "uint256"
        }
      ],
      "name": "repayProtocolToken",
      "outputs": [],
      "stateMutability": "nonpayable",
      "type": "function"
    },
    {
      "inputs": [
        {
          "internalType": "uint256",
          "name": "amount",
          "type": "uint256"
        }
      ],
      "name": "repayQuoteToken",
      "outputs": [],
      "stateMutability": "nonpayable",
      "type": "function"
    },
    {
      "inputs": [],
      "name": "templeToken",
      "outputs": [
        {
          "internalType": "contract ITempleERC20Token",
          "name": "",
          "type": "address"
        }
      ],
      "stateMutability": "view",
      "type": "function"
    }
  ],
  "bytecode": "0x60c060405234801561001057600080fd5b506040516109e53803806109e583398101604081905261002f91610062565b6001600160a01b039182166080521660a052610095565b80516001600160a01b038116811461005d57600080fd5b919050565b6000806040838503121561007557600080fd5b61007e83610046565b915061008c60208401610046565b90509250929050565b60805160a0516109096100dc600039600081816091015281816102e7015261032c01526000818161010701528181610156015281816101ad015261026d01526109096000f3fe608060405234801561001057600080fd5b50600436106100725760003560e01c8063a2736b8211610050578063a2736b82146100ef578063b1a9069c14610102578063b926f2c21461012957600080fd5b8063082f21eb14610077578063217a4b701461008c57806327a06a29146100dc575b600080fd5b61008a6100853660046107b7565b61013c565b005b6100b37f000000000000000000000000000000000000000000000000000000000000000081565b60405173ffffffffffffffffffffffffffffffffffffffff909116815260200160405180910390f35b61008a6100ea3660046107d0565b610221565b61008a6100fd3660046107b7565b6102cd565b6100b37f000000000000000000000000000000000000000000000000000000000000000081565b61008a6101373660046107d0565b610312565b61017e73ffffffffffffffffffffffffffffffffffffffff7f000000000000000000000000000000000000000000000000000000000000000016333084610357565b6040517f42966c68000000000000000000000000000000000000000000000000000000008152600481018290527f000000000000000000000000000000000000000000000000000000000000000073ffffffffffffffffffffffffffffffffffffffff16906342966c6890602401600060405180830381600087803b15801561020657600080fd5b505af115801561021a573d6000803e3d6000fd5b5050505050565b6040517f40c10f1900000000000000000000000000000000000000000000000000000000815273ffffffffffffffffffffffffffffffffffffffff8281166004830152602482018490527f000000000000000000000000000000000000000000000000000000000000000016906340c10f1990604401600060405180830381600087803b1580156102b157600080fd5b505af11580156102c5573d6000803e3d6000fd5b505050505050565b61030f73ffffffffffffffffffffffffffffffffffffffff7f000000000000000000000000000000000000000000000000000000000000000016333084610357565b50565b61035373ffffffffffffffffffffffffffffffffffffffff7f0000000000000000000000000000000000000000000000000000000000000000168284610439565b5050565b60405173ffffffffffffffffffffffffffffffffffffffff808516602483015283166044820152606481018290526104339085907f23b872dd00000000000000000000000000000000000000000000000000000000906084015b604080517fffffffffffffffffffffffffffffffffffffffffffffffffffffffffffffffe08184030181529190526020810180517bffffffffffffffffffffffffffffffffffffffffffffffffffffffff167fffffffff0000000000000000000000000000000000000000000000000000000090931692909217909152610494565b50505050565b60405173ffffffffffffffffffffffffffffffffffffffff831660248201526044810182905261048f9084907fa9059cbb00000000000000000000000000000000000000000000000000000000906064016103b1565b505050565b60006104f6826040518060400160405280602081526020017f5361666545524332303a206c6f772d6c6576656c2063616c6c206661696c65648152508573ffffffffffffffffffffffffffffffffffffffff166105a89092919063ffffffff16565b90508051600014806105175750808060200190518101906105179190610819565b61048f576040517f08c379a000000000000000000000000000000000000000000000000000000000815260206004820152602a60248201527f5361666545524332303a204552433230206f7065726174696f6e20646964206e60448201527f6f7420737563636565640000000000000000000000000000000000000000000060648201526084015b60405180910390fd5b60606105b784846000856105bf565b949350505050565b606082471015610651576040517f08c379a000000000000000000000000000000000000000000000000000000000815260206004820152602660248201527f416464726573733a20696e73756666696369656e742062616c616e636520666f60448201527f722063616c6c0000000000000000000000000000000000000000000000000000606482015260840161059f565b6000808673ffffffffffffffffffffffffffffffffffffffff16858760405161067a9190610866565b60006040518083038185875af1925050503d80600081146106b7576040519150601f19603f3d011682016040523d82523d6000602084013e6106bc565b606091505b50915091506106cd878383876106d8565b979650505050505050565b6060831561076e5782516000036107675773ffffffffffffffffffffffffffffffffffffffff85163b610767576040517f08c379a000000000000000000000000000000000000000000000000000000000815260206004820152601d60248201527f416464726573733a2063616c6c20746f206e6f6e2d636f6e7472616374000000604482015260640161059f565b50816105b7565b6105b783838151156107835781518083602001fd5b806040517f08c379a000000000000000000000000000000000000000000000000000000000815260040161059f9190610882565b6000602082840312156107c957600080fd5b5035919050565b600080604083850312156107e357600080fd5b82359150602083013573ffffffffffffffffffffffffffffffffffffffff8116811461080e57600080fd5b809150509250929050565b60006020828403121561082b57600080fd5b8151801515811461083b57600080fd5b9392505050565b60005b8381101561085d578181015183820152602001610845565b50506000910152565b60008251610878818460208701610842565b9190910192915050565b60208152600082518060208401526108a1816040850160208701610842565b601f017fffffffffffffffffffffffffffffffffffffffffffffffffffffffffffffffe016919091016040019291505056fea2646970667358221220cbd9db6a33d7c5d483bfaa09fcadde15d0285976168b3fc1328d6d56cbc0469a64736f6c63430008130033",
  "linkReferences": {},
  "deployedLinkReferences": {}
}