{
  "_format": "hh-sol-artifact-1",
  "contractName": "TreasuryFarmingRevenue",
  "sourceName": "contracts/core/TreasuryFarmingRevenue.sol",
  "abi": [
    {
      "inputs": [
        {
          "internalType": "contract Exposure",
          "name": "_exposure",
          "type": "address"
        }
      ],
      "stateMutability": "nonpayable",
      "type": "constructor"
    },
    {
      "anonymous": false,
      "inputs": [
        {
          "indexed": false,
          "internalType": "address",
          "name": "account",
          "type": "address"
        },
        {
          "indexed": false,
          "internalType": "uint256",
          "name": "amount",
          "type": "uint256"
        }
      ],
      "name": "DecreaseShares",
      "type": "event"
    },
    {
      "anonymous": false,
      "inputs": [
        {
          "indexed": false,
          "internalType": "address",
          "name": "account",
          "type": "address"
        },
        {
          "indexed": false,
          "internalType": "uint256",
          "name": "amount",
          "type": "uint256"
        }
      ],
      "name": "IncreaseShares",
      "type": "event"
    },
    {
      "anonymous": false,
      "inputs": [
        {
          "indexed": true,
          "internalType": "address",
          "name": "previousOwner",
          "type": "address"
        },
        {
          "indexed": true,
          "internalType": "address",
          "name": "newOwner",
          "type": "address"
        }
      ],
      "name": "OwnershipTransferred",
      "type": "event"
    },
    {
      "anonymous": false,
      "inputs": [
        {
          "indexed": false,
          "internalType": "address",
          "name": "account",
          "type": "address"
        },
        {
          "indexed": false,
          "internalType": "uint256",
          "name": "revenueClaimed",
          "type": "uint256"
        }
      ],
      "name": "RevenueClaimed",
      "type": "event"
    },
    {
      "anonymous": false,
      "inputs": [
        {
          "indexed": false,
          "internalType": "uint256",
          "name": "revenueEarned",
          "type": "uint256"
        },
        {
          "indexed": false,
          "internalType": "uint256",
          "name": "lifetimeAccRevenueScaledByShare",
          "type": "uint256"
        }
      ],
      "name": "RevenueEarned",
      "type": "event"
    },
    {
      "inputs": [
        {
          "internalType": "uint256",
          "name": "revenueEarned",
          "type": "uint256"
        }
      ],
      "name": "addRevenue",
      "outputs": [],
      "stateMutability": "nonpayable",
      "type": "function"
    },
    {
      "inputs": [
        {
          "internalType": "address",
          "name": "account",
          "type": "address"
        }
      ],
      "name": "claimFor",
      "outputs": [],
      "stateMutability": "nonpayable",
      "type": "function"
    },
    {
      "inputs": [
        {
          "internalType": "address",
          "name": "",
          "type": "address"
        }
      ],
      "name": "claimedByScaled",
      "outputs": [
        {
          "internalType": "uint256",
          "name": "",
          "type": "uint256"
        }
      ],
      "stateMutability": "view",
      "type": "function"
    },
    {
      "inputs": [
        {
          "internalType": "address",
          "name": "account",
          "type": "address"
        },
        {
          "internalType": "uint256",
          "name": "amount",
          "type": "uint256"
        }
      ],
      "name": "decreaseShares",
      "outputs": [],
      "stateMutability": "nonpayable",
      "type": "function"
    },
    {
      "inputs": [],
      "name": "exposure",
      "outputs": [
        {
          "internalType": "contract Exposure",
          "name": "",
          "type": "address"
        }
      ],
      "stateMutability": "view",
      "type": "function"
    },
    {
      "inputs": [
        {
          "internalType": "address",
          "name": "account",
          "type": "address"
        },
        {
          "internalType": "uint256",
          "name": "amount",
          "type": "uint256"
        }
      ],
      "name": "increaseShares",
      "outputs": [],
      "stateMutability": "nonpayable",
      "type": "function"
    },
    {
      "inputs": [],
      "name": "lifetimeAccRevenueScaledByShare",
      "outputs": [
        {
          "internalType": "uint256",
          "name": "",
          "type": "uint256"
        }
      ],
      "stateMutability": "view",
      "type": "function"
    },
    {
      "inputs": [],
      "name": "owner",
      "outputs": [
        {
          "internalType": "address",
          "name": "",
          "type": "address"
        }
      ],
      "stateMutability": "view",
      "type": "function"
    },
    {
      "inputs": [],
      "name": "renounceOwnership",
      "outputs": [],
      "stateMutability": "nonpayable",
      "type": "function"
    },
    {
      "inputs": [
        {
          "internalType": "address",
          "name": "",
          "type": "address"
        }
      ],
      "name": "shares",
      "outputs": [
        {
          "internalType": "uint256",
          "name": "",
          "type": "uint256"
        }
      ],
      "stateMutability": "view",
      "type": "function"
    },
    {
      "inputs": [],
      "name": "totalShares",
      "outputs": [
        {
          "internalType": "uint256",
          "name": "",
          "type": "uint256"
        }
      ],
      "stateMutability": "view",
      "type": "function"
    },
    {
      "inputs": [
        {
          "internalType": "address",
          "name": "newOwner",
          "type": "address"
        }
      ],
      "name": "transferOwnership",
      "outputs": [],
      "stateMutability": "nonpayable",
      "type": "function"
    }
  ],
  "bytecode": "0x60a060405234801561001057600080fd5b50604051610a5d380380610a5d83398101604081905261002f91610099565b61003833610049565b6001600160a01b03166080526100c9565b600080546001600160a01b038381166001600160a01b0319831681178455604051919092169283917f8be0079c531659141344cd1fd0a4f28419497f9722a3daafe3b4186f6b6457e09190a35050565b6000602082840312156100ab57600080fd5b81516001600160a01b03811681146100c257600080fd5b9392505050565b6080516109726100eb600039600081816101d8015261052a01526109726000f3fe608060405234801561001057600080fd5b50600436106100d45760003560e01c80638da5cb5b11610081578063de5e63301161005b578063de5e6330146101ca578063ebf7a41e146101d3578063f2fde38b146101fa57600080fd5b80638da5cb5b14610158578063ce7c2ac214610197578063ddeae033146101b757600080fd5b8063715018a6116100b2578063715018a61461012a57806386c011db1461013257806387983d131461014557600080fd5b806326603b95146100d95780633a98ef391461010c57806363ec512d14610115575b600080fd5b6100f96100e736600461082a565b60036020526000908152604090205481565b6040519081526020015b60405180910390f35b6100f960025481565b61012861012336600461084c565b61020d565b005b61012861028a565b610128610140366004610865565b61029e565b610128610153366004610865565b61039d565b60005473ffffffffffffffffffffffffffffffffffffffff165b60405173ffffffffffffffffffffffffffffffffffffffff9091168152602001610103565b6100f96101a536600461082a565b60016020526000908152604090205481565b6101286101c536600461082a565b610494565b6100f960045481565b6101727f000000000000000000000000000000000000000000000000000000000000000081565b61012861020836600461082a565b61064f565b61021561070b565b60025461022a670de0b6b3a7640000836108be565b61023491906108db565b600460008282546102459190610916565b90915550506004546040805183815260208101929092527f44c8e79be0ba50742684a585db3a9db56735a204cfa14b6d54fadc2b141ebd89910160405180910390a150565b61029261070b565b61029c600061078c565b565b6102a661070b565b6102af82610494565b73ffffffffffffffffffffffffffffffffffffffff8216600090815260016020526040812080548392906102e4908490610916565b9250508190555080600260008282546102fd9190610916565b909155505060045461030f90826108be565b73ffffffffffffffffffffffffffffffffffffffff831660009081526003602052604081208054909190610344908490610916565b90915550506040805173ffffffffffffffffffffffffffffffffffffffff84168152602081018390527f50de8324aee226699209f9c49e31220e9e7e4f7a3d2d76060d913995cd11148e91015b60405180910390a15050565b6103a561070b565b6103ae82610494565b73ffffffffffffffffffffffffffffffffffffffff8216600090815260016020526040812080548392906103e3908490610929565b9250508190555080600260008282546103fc9190610929565b909155505060045461040e90826108be565b73ffffffffffffffffffffffffffffffffffffffff831660009081526003602052604081208054909190610443908490610929565b90915550506040805173ffffffffffffffffffffffffffffffffffffffff84168152602081018390527f7f057847ef731c18392c410072b87537e1ebd5fc3ca97d90d44e23f10010e2919101610391565b60045473ffffffffffffffffffffffffffffffffffffffff821660009081526001602052604081205490916104c8916108be565b73ffffffffffffffffffffffffffffffffffffffff8316600090815260036020526040812054919250906104fc9083610929565b73ffffffffffffffffffffffffffffffffffffffff80851660009081526003602052604090208490559091507f0000000000000000000000000000000000000000000000000000000000000000166340c10f1984610562670de0b6b3a7640000856108db565b6040517fffffffff0000000000000000000000000000000000000000000000000000000060e085901b16815273ffffffffffffffffffffffffffffffffffffffff90921660048301526024820152604401600060405180830381600087803b1580156105cd57600080fd5b505af11580156105e1573d6000803e3d6000fd5b505050507fc15f451120b13b6b40c6ad6203614ab3088308bef9150c0d6f46ea79bf46422483670de0b6b3a76400008361061b91906108db565b6040805173ffffffffffffffffffffffffffffffffffffffff909316835260208301919091520160405180910390a1505050565b61065761070b565b73ffffffffffffffffffffffffffffffffffffffff81166106ff576040517f08c379a000000000000000000000000000000000000000000000000000000000815260206004820152602660248201527f4f776e61626c653a206e6577206f776e657220697320746865207a65726f206160448201527f646472657373000000000000000000000000000000000000000000000000000060648201526084015b60405180910390fd5b6107088161078c565b50565b60005473ffffffffffffffffffffffffffffffffffffffff16331461029c576040517f08c379a000000000000000000000000000000000000000000000000000000000815260206004820181905260248201527f4f776e61626c653a2063616c6c6572206973206e6f7420746865206f776e657260448201526064016106f6565b6000805473ffffffffffffffffffffffffffffffffffffffff8381167fffffffffffffffffffffffff0000000000000000000000000000000000000000831681178455604051919092169283917f8be0079c531659141344cd1fd0a4f28419497f9722a3daafe3b4186f6b6457e09190a35050565b803573ffffffffffffffffffffffffffffffffffffffff8116811461082557600080fd5b919050565b60006020828403121561083c57600080fd5b61084582610801565b9392505050565b60006020828403121561085e57600080fd5b5035919050565b6000806040838503121561087857600080fd5b61088183610801565b946020939093013593505050565b7f4e487b7100000000000000000000000000000000000000000000000000000000600052601160045260246000fd5b80820281158282048414176108d5576108d561088f565b92915050565b600082610911577f4e487b7100000000000000000000000000000000000000000000000000000000600052601260045260246000fd5b500490565b808201808211156108d5576108d561088f565b818103818111156108d5576108d561088f56fea264697066735822122082ef6a9750978f29dd4b1407381b94710f57d0208bca6046e88541cf4adcf35664736f6c63430008130033",
  "linkReferences": {},
  "deployedLinkReferences": {}
}