{
  "_format": "hh-sol-artifact-1",
  "contractName": "DaiGoldAuction",
  "sourceName": "contracts/templegold/DaiGoldAuction.sol",
  "abi": [
    {
      "inputs": [
        {
          "internalType": "address",
          "name": "_templeGold",
          "type": "address"
        },
        {
          "internalType": "address",
          "name": "_bidToken",
          "type": "address"
        },
        {
          "internalType": "address",
          "name": "_treasury",
          "type": "address"
        },
        {
          "internalType": "address",
          "name": "_rescuer",
          "type": "address"
        },
        {
          "internalType": "address",
          "name": "_executor",
          "type": "address"
        },
        {
          "internalType": "address",
          "name": "_auctionStarter",
          "type": "address"
        }
      ],
      "stateMutability": "nonpayable",
      "type": "constructor"
    },
    {
      "inputs": [
        {
          "internalType": "address",
          "name": "target",
          "type": "address"
        }
      ],
      "name": "AddressEmptyCode",
      "type": "error"
    },
    {
      "inputs": [
        {
          "internalType": "address",
          "name": "account",
          "type": "address"
        }
      ],
      "name": "AddressInsufficientBalance",
      "type": "error"
    },
    {
      "inputs": [],
      "name": "AlreadyClaimed",
      "type": "error"
    },
    {
      "inputs": [],
      "name": "AlreadyRecovered",
      "type": "error"
    },
    {
      "inputs": [],
      "name": "AuctionActive",
      "type": "error"
    },
    {
      "inputs": [],
      "name": "AuctionEnded",
      "type": "error"
    },
    {
      "inputs": [
        {
          "internalType": "uint256",
          "name": "epochId",
          "type": "uint256"
        }
      ],
      "name": "CannotClaim",
      "type": "error"
    },
    {
      "inputs": [],
      "name": "CannotDeposit",
      "type": "error"
    },
    {
      "inputs": [],
      "name": "CannotStartAuction",
      "type": "error"
    },
    {
      "inputs": [],
      "name": "ExpectedNonZero",
      "type": "error"
    },
    {
      "inputs": [],
      "name": "FailedInnerCall",
      "type": "error"
    },
    {
      "inputs": [],
      "name": "InvalidAccess",
      "type": "error"
    },
    {
      "inputs": [],
      "name": "InvalidAddress",
      "type": "error"
    },
    {
      "inputs": [
        {
          "internalType": "address",
          "name": "token",
          "type": "address"
        },
        {
          "internalType": "uint256",
          "name": "amount",
          "type": "uint256"
        }
      ],
      "name": "InvalidAmount",
      "type": "error"
    },
    {
      "inputs": [],
      "name": "InvalidEpoch",
      "type": "error"
    },
    {
      "inputs": [],
      "name": "InvalidOperation",
      "type": "error"
    },
    {
      "inputs": [
        {
          "internalType": "uint256",
          "name": "epochGoldAmount",
          "type": "uint256"
        }
      ],
      "name": "LowGoldDistributed",
      "type": "error"
    },
    {
      "inputs": [
        {
          "internalType": "uint256",
          "name": "x",
          "type": "uint256"
        },
        {
          "internalType": "uint256",
          "name": "y",
          "type": "uint256"
        },
        {
          "internalType": "uint256",
          "name": "denominator",
          "type": "uint256"
        }
      ],
      "name": "PRBMath_MulDiv_Overflow",
      "type": "error"
    },
    {
      "inputs": [
        {
          "internalType": "address",
          "name": "token",
          "type": "address"
        }
      ],
      "name": "SafeERC20FailedOperation",
      "type": "error"
    },
    {
      "anonymous": false,
      "inputs": [
        {
          "indexed": false,
          "internalType": "uint256",
          "name": "epochId",
          "type": "uint256"
        },
        {
          "components": [
            {
              "internalType": "uint32",
              "name": "auctionsTimeDiff",
              "type": "uint32"
            },
            {
              "internalType": "uint32",
              "name": "auctionStartCooldown",
              "type": "uint32"
            },
            {
              "internalType": "uint192",
              "name": "auctionMinimumDistributedGold",
              "type": "uint192"
            }
          ],
          "indexed": false,
          "internalType": "struct IDaiGoldAuction.AuctionConfig",
          "name": "config",
          "type": "tuple"
        }
      ],
      "name": "AuctionConfigSet",
      "type": "event"
    },
    {
      "anonymous": false,
      "inputs": [
        {
          "indexed": false,
          "internalType": "uint256",
          "name": "epochId",
          "type": "uint256"
        },
        {
          "indexed": true,
          "internalType": "address",
          "name": "starter",
          "type": "address"
        },
        {
          "indexed": false,
          "internalType": "uint128",
          "name": "startTime",
          "type": "uint128"
        },
        {
          "indexed": false,
          "internalType": "uint128",
          "name": "endTime",
          "type": "uint128"
        },
        {
          "indexed": false,
          "internalType": "uint256",
          "name": "auctionTokenAmount",
          "type": "uint256"
        }
      ],
      "name": "AuctionStarted",
      "type": "event"
    },
    {
      "anonymous": false,
      "inputs": [
        {
          "indexed": true,
          "internalType": "address",
          "name": "starter",
          "type": "address"
        }
      ],
      "name": "AuctionStarterSet",
      "type": "event"
    },
    {
      "anonymous": false,
      "inputs": [
        {
          "indexed": false,
          "internalType": "address",
          "name": "bidToken",
          "type": "address"
        }
      ],
      "name": "BidTokenSet",
      "type": "event"
    },
    {
      "anonymous": false,
      "inputs": [
        {
          "indexed": true,
          "internalType": "address",
          "name": "user",
          "type": "address"
        },
        {
          "indexed": false,
          "internalType": "uint256",
          "name": "epochId",
          "type": "uint256"
        },
        {
          "indexed": false,
          "internalType": "uint256",
          "name": "bidTokenAmount",
          "type": "uint256"
        },
        {
          "indexed": false,
          "internalType": "uint256",
          "name": "auctionTokenAmount",
          "type": "uint256"
        }
      ],
      "name": "Claim",
      "type": "event"
    },
    {
      "anonymous": false,
      "inputs": [
        {
          "indexed": true,
          "internalType": "address",
          "name": "depositor",
          "type": "address"
        },
        {
          "indexed": false,
          "internalType": "uint256",
          "name": "epochId",
          "type": "uint256"
        },
        {
          "indexed": false,
          "internalType": "uint256",
          "name": "amount",
          "type": "uint256"
        }
      ],
      "name": "Deposit",
      "type": "event"
    },
    {
      "anonymous": false,
      "inputs": [
        {
          "indexed": true,
          "internalType": "address",
          "name": "account",
          "type": "address"
        },
        {
          "indexed": true,
          "internalType": "bytes4",
          "name": "fnSelector",
          "type": "bytes4"
        },
        {
          "indexed": true,
          "internalType": "bool",
          "name": "value",
          "type": "bool"
        }
      ],
      "name": "ExplicitAccessSet",
      "type": "event"
    },
    {
      "anonymous": false,
      "inputs": [
        {
          "indexed": false,
          "internalType": "uint256",
          "name": "amount",
          "type": "uint256"
        },
        {
          "indexed": false,
          "internalType": "uint256",
          "name": "timestamp",
          "type": "uint256"
        }
      ],
      "name": "GoldDistributionNotified",
      "type": "event"
    },
    {
      "anonymous": false,
      "inputs": [
        {
          "indexed": true,
          "internalType": "address",
          "name": "oldExecutor",
          "type": "address"
        },
        {
          "indexed": true,
          "internalType": "address",
          "name": "newExecutor",
          "type": "address"
        }
      ],
      "name": "NewExecutorAccepted",
      "type": "event"
    },
    {
      "anonymous": false,
      "inputs": [
        {
          "indexed": true,
          "internalType": "address",
          "name": "oldExecutor",
          "type": "address"
        },
        {
          "indexed": true,
          "internalType": "address",
          "name": "oldProposedExecutor",
          "type": "address"
        },
        {
          "indexed": true,
          "internalType": "address",
          "name": "newProposedExecutor",
          "type": "address"
        }
      ],
      "name": "NewExecutorProposed",
      "type": "event"
    },
    {
      "anonymous": false,
      "inputs": [
        {
          "indexed": true,
          "internalType": "address",
          "name": "oldRescuer",
          "type": "address"
        },
        {
          "indexed": true,
          "internalType": "address",
          "name": "newRescuer",
          "type": "address"
        }
      ],
      "name": "NewRescuerAccepted",
      "type": "event"
    },
    {
      "anonymous": false,
      "inputs": [
        {
          "indexed": true,
          "internalType": "address",
          "name": "oldRescuer",
          "type": "address"
        },
        {
          "indexed": true,
          "internalType": "address",
          "name": "oldProposedRescuer",
          "type": "address"
        },
        {
          "indexed": true,
          "internalType": "address",
          "name": "newProposedRescuer",
          "type": "address"
        }
      ],
      "name": "NewRescuerProposed",
      "type": "event"
    },
    {
      "anonymous": false,
      "inputs": [
        {
          "indexed": true,
          "internalType": "bool",
          "name": "value",
          "type": "bool"
        }
      ],
      "name": "RescueModeSet",
      "type": "event"
    },
    {
      "anonymous": false,
      "inputs": [
        {
          "indexed": true,
          "internalType": "address",
          "name": "to",
          "type": "address"
        },
        {
          "indexed": true,
          "internalType": "address",
          "name": "token",
          "type": "address"
        },
        {
          "indexed": false,
          "internalType": "uint256",
          "name": "amount",
          "type": "uint256"
        }
      ],
      "name": "TokenRecovered",
      "type": "event"
    },
    {
      "inputs": [],
      "name": "AUCTION_DURATION",
      "outputs": [
        {
          "internalType": "uint64",
          "name": "",
          "type": "uint64"
        }
      ],
      "stateMutability": "view",
      "type": "function"
    },
    {
      "inputs": [],
      "name": "acceptExecutor",
      "outputs": [],
      "stateMutability": "nonpayable",
      "type": "function"
    },
    {
      "inputs": [],
      "name": "acceptRescuer",
      "outputs": [],
      "stateMutability": "nonpayable",
      "type": "function"
    },
    {
      "inputs": [],
      "name": "auctionStarter",
      "outputs": [
        {
          "internalType": "address",
          "name": "",
          "type": "address"
        }
      ],
      "stateMutability": "view",
      "type": "function"
    },
    {
      "inputs": [
        {
          "internalType": "uint256",
          "name": "amount",
          "type": "uint256"
        }
      ],
      "name": "bid",
      "outputs": [],
      "stateMutability": "nonpayable",
      "type": "function"
    },
    {
      "inputs": [],
      "name": "bidToken",
      "outputs": [
        {
          "internalType": "contract IERC20",
          "name": "",
          "type": "address"
        }
      ],
      "stateMutability": "view",
      "type": "function"
    },
    {
      "inputs": [],
      "name": "canDeposit",
      "outputs": [
        {
          "internalType": "bool",
          "name": "",
          "type": "bool"
        }
      ],
      "stateMutability": "view",
      "type": "function"
    },
    {
      "inputs": [
        {
          "internalType": "uint256",
          "name": "epochId",
          "type": "uint256"
        }
      ],
      "name": "claim",
      "outputs": [],
      "stateMutability": "nonpayable",
      "type": "function"
    },
    {
      "inputs": [
        {
          "internalType": "address",
          "name": "depositor",
          "type": "address"
        },
        {
          "internalType": "uint256",
          "name": "epochId",
          "type": "uint256"
        }
      ],
      "name": "claimed",
      "outputs": [
        {
          "internalType": "bool",
          "name": "claimed",
          "type": "bool"
        }
      ],
      "stateMutability": "view",
      "type": "function"
    },
    {
      "inputs": [
        {
          "internalType": "address",
          "name": "depositor",
          "type": "address"
        },
        {
          "internalType": "uint256",
          "name": "epochId",
          "type": "uint256"
        }
      ],
      "name": "claimedAmount",
      "outputs": [
        {
          "internalType": "uint256",
          "name": "claimedAmount",
          "type": "uint256"
        }
      ],
      "stateMutability": "view",
      "type": "function"
    },
    {
      "inputs": [],
      "name": "currentEpoch",
      "outputs": [
        {
          "internalType": "uint256",
          "name": "",
          "type": "uint256"
        }
      ],
      "stateMutability": "view",
      "type": "function"
    },
    {
      "inputs": [
        {
          "internalType": "address",
          "name": "depositor",
          "type": "address"
        },
        {
          "internalType": "uint256",
          "name": "epochId",
          "type": "uint256"
        }
      ],
      "name": "depositors",
      "outputs": [
        {
          "internalType": "uint256",
          "name": "amount",
          "type": "uint256"
        }
      ],
      "stateMutability": "view",
      "type": "function"
    },
    {
      "inputs": [],
      "name": "distributeGold",
      "outputs": [],
      "stateMutability": "nonpayable",
      "type": "function"
    },
    {
      "inputs": [
        {
          "internalType": "uint256",
          "name": "epochId",
          "type": "uint256"
        }
      ],
      "name": "epochGoldSupply",
      "outputs": [
        {
          "internalType": "uint256",
          "name": "",
          "type": "uint256"
        }
      ],
      "stateMutability": "view",
      "type": "function"
    },
    {
      "inputs": [
        {
          "internalType": "uint256",
          "name": "epochId",
          "type": "uint256"
        }
      ],
      "name": "epochsWithoutBidsRecovered",
      "outputs": [
        {
          "internalType": "bool",
          "name": "recovered",
          "type": "bool"
        }
      ],
      "stateMutability": "view",
      "type": "function"
    },
    {
      "inputs": [],
      "name": "executor",
      "outputs": [
        {
          "internalType": "address",
          "name": "",
          "type": "address"
        }
      ],
      "stateMutability": "view",
      "type": "function"
    },
    {
      "inputs": [
        {
          "internalType": "address",
          "name": "",
          "type": "address"
        },
        {
          "internalType": "bytes4",
          "name": "",
          "type": "bytes4"
        }
      ],
      "name": "explicitFunctionAccess",
      "outputs": [
        {
          "internalType": "bool",
          "name": "",
          "type": "bool"
        }
      ],
      "stateMutability": "view",
      "type": "function"
    },
    {
      "inputs": [],
      "name": "getAuctionConfig",
      "outputs": [
        {
          "components": [
            {
              "internalType": "uint32",
              "name": "auctionsTimeDiff",
              "type": "uint32"
            },
            {
              "internalType": "uint32",
              "name": "auctionStartCooldown",
              "type": "uint32"
            },
            {
              "internalType": "uint192",
              "name": "auctionMinimumDistributedGold",
              "type": "uint192"
            }
          ],
          "internalType": "struct IDaiGoldAuction.AuctionConfig",
          "name": "",
          "type": "tuple"
        }
      ],
      "stateMutability": "view",
      "type": "function"
    },
    {
      "inputs": [
        {
          "internalType": "address",
          "name": "depositor",
          "type": "address"
        }
      ],
      "name": "getClaimableAtCurrentEpoch",
      "outputs": [
        {
          "internalType": "uint256",
          "name": "",
          "type": "uint256"
        }
      ],
      "stateMutability": "view",
      "type": "function"
    },
    {
      "inputs": [
        {
          "internalType": "address",
          "name": "depositor",
          "type": "address"
        },
        {
          "internalType": "uint256",
          "name": "epochId",
          "type": "uint256"
        }
      ],
      "name": "getClaimableAtEpoch",
      "outputs": [
        {
          "internalType": "uint256",
          "name": "",
          "type": "uint256"
        }
      ],
      "stateMutability": "view",
      "type": "function"
    },
    {
      "inputs": [
        {
          "internalType": "uint256",
          "name": "epochId",
          "type": "uint256"
        }
      ],
      "name": "getEpochInfo",
      "outputs": [
        {
          "components": [
            {
              "internalType": "uint128",
              "name": "startTime",
              "type": "uint128"
            },
            {
              "internalType": "uint128",
              "name": "endTime",
              "type": "uint128"
            },
            {
              "internalType": "uint256",
              "name": "totalBidTokenAmount",
              "type": "uint256"
            },
            {
              "internalType": "uint256",
              "name": "totalAuctionTokenAmount",
              "type": "uint256"
            }
          ],
          "internalType": "struct IAuctionBase.EpochInfo",
          "name": "",
          "type": "tuple"
        }
      ],
      "stateMutability": "view",
      "type": "function"
    },
    {
      "inputs": [],
      "name": "inRescueMode",
      "outputs": [
        {
          "internalType": "bool",
          "name": "",
          "type": "bool"
        }
      ],
      "stateMutability": "view",
      "type": "function"
    },
    {
      "inputs": [],
      "name": "isCurrentEpochEnded",
      "outputs": [
        {
          "internalType": "bool",
          "name": "",
          "type": "bool"
        }
      ],
      "stateMutability": "view",
      "type": "function"
    },
    {
      "inputs": [],
      "name": "nextAuctionGoldAmount",
      "outputs": [
        {
          "internalType": "uint256",
          "name": "",
          "type": "uint256"
        }
      ],
      "stateMutability": "view",
      "type": "function"
    },
    {
      "inputs": [],
      "name": "nextEpoch",
      "outputs": [
        {
          "internalType": "uint256",
          "name": "",
          "type": "uint256"
        }
      ],
      "stateMutability": "view",
      "type": "function"
    },
    {
      "inputs": [
        {
          "internalType": "uint256",
          "name": "amount",
          "type": "uint256"
        }
      ],
      "name": "notifyDistribution",
      "outputs": [],
      "stateMutability": "nonpayable",
      "type": "function"
    },
    {
      "inputs": [
        {
          "internalType": "address",
          "name": "account",
          "type": "address"
        }
      ],
      "name": "proposeNewExecutor",
      "outputs": [],
      "stateMutability": "nonpayable",
      "type": "function"
    },
    {
      "inputs": [
        {
          "internalType": "address",
          "name": "account",
          "type": "address"
        }
      ],
      "name": "proposeNewRescuer",
      "outputs": [],
      "stateMutability": "nonpayable",
      "type": "function"
    },
    {
      "inputs": [
        {
          "internalType": "uint256",
          "name": "epochId",
          "type": "uint256"
        },
        {
          "internalType": "address",
          "name": "to",
          "type": "address"
        }
      ],
      "name": "recoverTempleGoldForZeroBidAuction",
      "outputs": [],
      "stateMutability": "nonpayable",
      "type": "function"
    },
    {
      "inputs": [
        {
          "internalType": "address",
          "name": "token",
          "type": "address"
        },
        {
          "internalType": "address",
          "name": "to",
          "type": "address"
        },
        {
          "internalType": "uint256",
          "name": "amount",
          "type": "uint256"
        }
      ],
      "name": "recoverToken",
      "outputs": [],
      "stateMutability": "nonpayable",
      "type": "function"
    },
    {
      "inputs": [],
      "name": "rescuer",
      "outputs": [
        {
          "internalType": "address",
          "name": "",
          "type": "address"
        }
      ],
      "stateMutability": "view",
      "type": "function"
    },
    {
      "inputs": [
        {
          "components": [
            {
              "internalType": "uint32",
              "name": "auctionsTimeDiff",
              "type": "uint32"
            },
            {
              "internalType": "uint32",
              "name": "auctionStartCooldown",
              "type": "uint32"
            },
            {
              "internalType": "uint192",
              "name": "auctionMinimumDistributedGold",
              "type": "uint192"
            }
          ],
          "internalType": "struct IDaiGoldAuction.AuctionConfig",
          "name": "_config",
          "type": "tuple"
        }
      ],
      "name": "setAuctionConfig",
      "outputs": [],
      "stateMutability": "nonpayable",
      "type": "function"
    },
    {
      "inputs": [
        {
          "internalType": "address",
          "name": "_starter",
          "type": "address"
        }
      ],
      "name": "setAuctionStarter",
      "outputs": [],
      "stateMutability": "nonpayable",
      "type": "function"
    },
    {
      "inputs": [
        {
          "internalType": "address",
          "name": "_bidToken",
          "type": "address"
        }
      ],
      "name": "setBidToken",
      "outputs": [],
      "stateMutability": "nonpayable",
      "type": "function"
    },
    {
      "inputs": [
        {
          "internalType": "address",
          "name": "allowedCaller",
          "type": "address"
        },
        {
          "components": [
            {
              "internalType": "bytes4",
              "name": "fnSelector",
              "type": "bytes4"
            },
            {
              "internalType": "bool",
              "name": "allowed",
              "type": "bool"
            }
          ],
          "internalType": "struct ITempleElevatedAccess.ExplicitAccess[]",
          "name": "access",
          "type": "tuple[]"
        }
      ],
      "name": "setExplicitAccess",
      "outputs": [],
      "stateMutability": "nonpayable",
      "type": "function"
    },
    {
      "inputs": [
        {
          "internalType": "bool",
          "name": "value",
          "type": "bool"
        }
      ],
      "name": "setRescueMode",
      "outputs": [],
      "stateMutability": "nonpayable",
      "type": "function"
    },
    {
      "inputs": [],
      "name": "startAuction",
      "outputs": [],
      "stateMutability": "nonpayable",
      "type": "function"
    },
    {
      "inputs": [],
      "name": "templeGold",
      "outputs": [
        {
          "internalType": "contract ITempleGold",
          "name": "",
          "type": "address"
        }
      ],
      "stateMutability": "view",
      "type": "function"
    },
    {
      "inputs": [],
      "name": "treasury",
      "outputs": [
        {
          "internalType": "address",
          "name": "",
          "type": "address"
        }
      ],
      "stateMutability": "view",
      "type": "function"
    }
  ],
  "bytecode": "0x60c06040523480156200001157600080fd5b50604051620031ea380380620031ea833981016040819052620000349162000161565b82826001600160a01b0382166200005e5760405163e6c4247b60e01b815260040160405180910390fd5b6001600160a01b038116620000865760405163e6c4247b60e01b815260040160405180910390fd5b816001600160a01b0316816001600160a01b031603620000b95760405163e6c4247b60e01b815260040160405180910390fd5b600680546001600160a01b03199081166001600160a01b039485161790915560078054821692841692909217909155878216608052600b8054821688841617905585821660a052600c805490911691831691821790556040517f9912e2a4535169ea3ec6c9138afab89a1ba028d9534726bbedd154a25f11392c90600090a2505050505050620001e2565b80516001600160a01b03811681146200015c57600080fd5b919050565b60008060008060008060c087890312156200017b57600080fd5b620001868762000144565b9550620001966020880162000144565b9450620001a66040880162000144565b9350620001b66060880162000144565b9250620001c66080880162000144565b9150620001d660a0880162000144565b90509295509295509295565b60805160a051612faa620002406000396000818161058c0152610fbb0152600081816107a401528181610e890152818161122d0152818161184401528181611b14015281816123a20152818161241901526126810152612faa6000f3fe608060405234801561001057600080fd5b50600436106102ad5760003560e01c8063766718081161017b578063ccb51004116100d8578063e110dfda1161008c578063e78a587511610071578063e78a5875146107d9578063f0234008146107e1578063f3ed8f251461080457600080fd5b8063e110dfda1461079f578063e36977cc146107c657600080fd5b8063d9a349c1116100bd578063d9a349c11461073e578063daeccc7914610751578063dfafd4fd1461077f57600080fd5b8063ccb5100414610723578063d2fbb3cb1461072b57600080fd5b8063ab1b71bd1161012f578063b3ba0e2b11610114578063b3ba0e2b146106e7578063bfccf0ec146106f0578063c34c08e51461070357600080fd5b8063ab1b71bd146106cc578063aea0e78b146106df57600080fd5b80638503ae3d116101605780638503ae3d146105d9578063a271e52514610696578063a7229fd9146106b957600080fd5b806376671808146105c95780638112c4af146105d157600080fd5b806338a6318311610229578063501ee126116101dd57806361d027b3116101c257806361d027b314610587578063654f2fc8146105ae5780636b64c769146105c157600080fd5b8063501ee1261461054957806355b4b1a41461055c57600080fd5b8063454a2ab31161020e578063454a2ab3146104dd578063466c01b8146104f05780634dd6c8de1461051b57600080fd5b806338a631831461047b578063396939f21461049b57600080fd5b806314e21ecf116102805780631a7d73d0116102655780631a7d73d01461041b5780631f21140514610460578063379607f51461046857600080fd5b806314e21ecf146103dd5780631810fe7f146103fe57600080fd5b8063032ef901146102b257806307f184f1146102c7578063128e771b146102da578063135022c2146102ed575b600080fd5b6102c56102c0366004612a13565b610827565b005b6102c56102d5366004612a59565b6108d6565b6102c56102e8366004612a59565b610a0e565b6103866102fb366004612a74565b60408051608081018252600080825260208201819052918101829052606081019190915250600090815260016020818152604092839020835160808101855281546fffffffffffffffffffffffffffffffff80821683527001000000000000000000000000000000009091041692810192909252918201549281019290925260020154606082015290565b6040516103d4919060006080820190506fffffffffffffffffffffffffffffffff80845116835280602085015116602084015250604083015160408301526060830151606083015292915050565b60405180910390f35b6103f06103eb366004612a59565b610b66565b6040519081526020016103d4565b60095461040b9060ff1681565b60405190151581526020016103d4565b600c5461043b9073ffffffffffffffffffffffffffffffffffffffff1681565b60405173ffffffffffffffffffffffffffffffffffffffff90911681526020016103d4565b6102c5610b7a565b6102c5610476366004612a74565b610c99565b60065461043b9073ffffffffffffffffffffffffffffffffffffffff1681565b61040b60008054815260016020526040812054427001000000000000000000000000000000009091046fffffffffffffffffffffffffffffffff161115905090565b6102c56104eb366004612a74565b610f13565b6103f06104fe366004612a8d565b600260209081526000928352604080842090915290825290205481565b61040b610529366004612a8d565b600360209081526000928352604080842090915290825290205460ff1681565b6102c5610557366004612a59565b61107a565b6103f061056a366004612a8d565b600460209081526000928352604080842090915290825290205481565b61043b7f000000000000000000000000000000000000000000000000000000000000000081565b6102c56105bc366004612a74565b611215565b6102c5611309565b6000546103f0565b6102c5611617565b61064f60408051606081018252600080825260208201819052918101919091525060408051606081018252600e5463ffffffff8082168352640100000000820416602083015268010000000000000000900477ffffffffffffffffffffffffffffffffffffffffffffffff169181019190915290565b60408051825163ffffffff9081168252602080850151909116908201529181015177ffffffffffffffffffffffffffffffffffffffffffffffff16908201526060016103d4565b6106a062093a8081565b60405167ffffffffffffffff90911681526020016103d4565b6102c56106c7366004612ab7565b611757565b6103f06106da366004612a8d565b611b43565b6103f0611c4e565b6103f0600d5481565b6102c56106fe366004612af3565b611c5d565b60075461043b9073ffffffffffffffffffffffffffffffffffffffff1681565b6102c5611e5c565b6102c5610739366004612b79565b611e66565b6102c561074c366004612a59565b612024565b61040b61075f366004612bc1565b600860209081526000928352604080842090915290825290205460ff1681565b600b5461043b9073ffffffffffffffffffffffffffffffffffffffff1681565b61043b7f000000000000000000000000000000000000000000000000000000000000000081565b6102c56107d4366004612bf4565b612169565b61040b612446565b6103f06107ef366004612a74565b60009081526001602052604090206002015490565b61040b610812366004612a74565b60056020526000908152604090205460ff1681565b60065473ffffffffffffffffffffffffffffffffffffffff163314610878576040517fc0185c6400000000000000000000000000000000000000000000000000000000815260040160405180910390fd5b604051811515907f18f4a9a726c72020fd959c636d2fd464c6cefe90afeaea3c830b971614cf70b690600090a2600980547fffffffffffffffffffffffffffffffffffffffffffffffffffffffffffffff0016911515919091179055565b60065473ffffffffffffffffffffffffffffffffffffffff163314610927576040517fc0185c6400000000000000000000000000000000000000000000000000000000815260040160405180910390fd5b73ffffffffffffffffffffffffffffffffffffffff8116610974576040517fe6c4247b00000000000000000000000000000000000000000000000000000000815260040160405180910390fd5b60095460405173ffffffffffffffffffffffffffffffffffffffff808416926101009004169033907f374d23b359cab0f8963c5c1715a6de7974f53af00aecc27de50d93906b70943e90600090a46009805473ffffffffffffffffffffffffffffffffffffffff909216610100027fffffffffffffffffffffff0000000000000000000000000000000000000000ff909216919091179055565b610a3c336000357fffffffff000000000000000000000000000000000000000000000000000000001661245e565b610a72576040517fc0185c6400000000000000000000000000000000000000000000000000000000815260040160405180910390fd5b600c80547fffffffffffffffffffffffff00000000000000000000000000000000000000001673ffffffffffffffffffffffffffffffffffffffff831617905560008054815260016020526040902054427001000000000000000000000000000000009091046fffffffffffffffffffffffffffffffff161115610b22576040517f398d4d3200000000000000000000000000000000000000000000000000000000815260040160405180910390fd5b60405173ffffffffffffffffffffffffffffffffffffffff8216907f9912e2a4535169ea3ec6c9138afab89a1ba028d9534726bbedd154a25f11392c90600090a250565b6000610b7482600054611b43565b92915050565b600a5473ffffffffffffffffffffffffffffffffffffffff163314610bcb576040517fc0185c6400000000000000000000000000000000000000000000000000000000815260040160405180910390fd5b60065473ffffffffffffffffffffffffffffffffffffffff163303610c1c576040517fe6c4247b00000000000000000000000000000000000000000000000000000000815260040160405180910390fd5b600754604051339173ffffffffffffffffffffffffffffffffffffffff16907fe963dc9c0d2165b080440a5d2665566142f2426b1ea15f3da8390b0fd336b06490600090a3600780547fffffffffffffffffffffffff00000000000000000000000000000000000000009081163317909155600a80549091169055565b60008181526001602052604090208054427001000000000000000000000000000000009091046fffffffffffffffffffffffffffffffff161115610d11576040517fbf009dab000000000000000000000000000000000000000000000000000000008152600481018390526024015b60405180910390fd5b80546fffffffffffffffffffffffffffffffff16600003610d5e576040517fd5b25b6300000000000000000000000000000000000000000000000000000000815260040160405180910390fd5b33600090815260036020908152604080832085845290915290205460ff1615610db3576040517f646cf55800000000000000000000000000000000000000000000000000000000815260040160405180910390fd5b33600090815260026020908152604080832085845290915281205490819003610e08576040517f54db0c8c00000000000000000000000000000000000000000000000000000000815260040160405180910390fd5b336000908152600360209081526040808320868452909152812080547fffffffffffffffffffffffffffffffffffffffffffffffffffffffffffffff00166001908117909155600284015490840154610e6391849184612521565b3360008181526004602090815260408083208984529091529020829055909150610ec5907f000000000000000000000000000000000000000000000000000000000000000073ffffffffffffffffffffffffffffffffffffffff169083612568565b604080518581526020810184905290810182905233907f45c072aa05b9853b5a993de7a28bc332ee01404a628cec1a23ce0f659f842ef19060600160405180910390a250505050565b905090565b600080548152600160205260409020610f2b906125e9565b610f61576040517f65ca8f5400000000000000000000000000000000000000000000000000000000815260040160405180910390fd5b80600003610f9b576040517f54db0c8c00000000000000000000000000000000000000000000000000000000815260040160405180910390fd5b600b54610fe09073ffffffffffffffffffffffffffffffffffffffff16337f000000000000000000000000000000000000000000000000000000000000000084612639565b60008054338252600260209081526040808420838552909152822080549192849261100c908490612c46565b909155505060008181526001602081905260408220908101805491928592611035908490612c46565b9091555050604080518381526020810185905233917f90890809c654f11d6e72a28fa60149770a0d11ec6c92319d6ceb2bb0a4ea1a15910160405180910390a2505050565b6110a8336000357fffffffff000000000000000000000000000000000000000000000000000000001661245e565b6110de576040517fc0185c6400000000000000000000000000000000000000000000000000000000815260040160405180910390fd5b73ffffffffffffffffffffffffffffffffffffffff811661112b576040517fe6c4247b00000000000000000000000000000000000000000000000000000000815260040160405180910390fd5b60008054815260016020526040902054427001000000000000000000000000000000009091046fffffffffffffffffffffffffffffffff16111561119b576040517f398d4d3200000000000000000000000000000000000000000000000000000000815260040160405180910390fd5b600b80547fffffffffffffffffffffffff00000000000000000000000000000000000000001673ffffffffffffffffffffffffffffffffffffffff83169081179091556040519081527f24e72a08217d19828f258be09f53f19295e0b24dbd7d8f168403e54e88af5bc9906020015b60405180910390a150565b3373ffffffffffffffffffffffffffffffffffffffff7f000000000000000000000000000000000000000000000000000000000000000016148015906112865750611284336000357fffffffff000000000000000000000000000000000000000000000000000000001661245e565b155b156112bd576040517fc0185c6400000000000000000000000000000000000000000000000000000000815260040160405180910390fd5b80600d60008282546112cf9190612c46565b9091555050604080518281524260208201527f1e215fdd40f0b4854c5a2b2cfe53859ca232f085a5b129c9f65b6bfeb094c5e4910161120a565b600c5473ffffffffffffffffffffffffffffffffffffffff16158015906113485750600c5473ffffffffffffffffffffffffffffffffffffffff163314155b1561137f576040517fc0185c6400000000000000000000000000000000000000000000000000000000815260040160405180910390fd5b60008054808252600160205260409091208054427001000000000000000000000000000000009091046fffffffffffffffffffffffffffffffff1611156113f2576040517ffcd189b500000000000000000000000000000000000000000000000000000000815260040160405180910390fd5b600e8215801590611450575080548254429161143c9163ffffffff9091169070010000000000000000000000000000000090046fffffffffffffffffffffffffffffffff16612c59565b6fffffffffffffffffffffffffffffffff16115b15611487576040517ffcd189b500000000000000000000000000000000000000000000000000000000815260040160405180910390fd5b61148f61267f565b600d8054600091829055906114a5856001612c46565b6000819055835490915068010000000000000000900477ffffffffffffffffffffffffffffffffffffffffffffffff16821015611511576040517fd1c6fee000000000000000000000000000000000000000000000000000000000815260048101839052602401610d08565b600081815260016020526040812060028101849055845490919061154390640100000000900463ffffffff1642612c59565b82547fffffffffffffffffffffffffffffffff00000000000000000000000000000000166fffffffffffffffffffffffffffffffff82161783559050600061158e62093a8083612c59565b83546fffffffffffffffffffffffffffffffff9081167001000000000000000000000000000000008383169081029190911786556040805188815292861660208401528201526060810187905290915033907f2f0e07e2baf6351377b2a46b5ccf5cd22b494921f870da223157659e174918f99060800160405180910390a25050505050505050565b600954610100900473ffffffffffffffffffffffffffffffffffffffff16331461166d576040517fc0185c6400000000000000000000000000000000000000000000000000000000815260040160405180910390fd5b60075473ffffffffffffffffffffffffffffffffffffffff1633036116be576040517fe6c4247b00000000000000000000000000000000000000000000000000000000815260040160405180910390fd5b600654604051339173ffffffffffffffffffffffffffffffffffffffff16907ff07131157ebea15896dc89264eb9a7572e67cc9fad6b855015730fcec10704e090600090a3600680547fffffffffffffffffffffffff00000000000000000000000000000000000000001633179055600980547fffffffffffffffffffffff0000000000000000000000000000000000000000ff169055565b611785336000357fffffffff000000000000000000000000000000000000000000000000000000001661245e565b6117bb576040517fc0185c6400000000000000000000000000000000000000000000000000000000815260040160405180910390fd5b73ffffffffffffffffffffffffffffffffffffffff8216611808576040517fe6c4247b00000000000000000000000000000000000000000000000000000000815260040160405180910390fd5b80600003611842576040517f54db0c8c00000000000000000000000000000000000000000000000000000000815260040160405180910390fd5b7f000000000000000000000000000000000000000000000000000000000000000073ffffffffffffffffffffffffffffffffffffffff168373ffffffffffffffffffffffffffffffffffffffff1614611922578273ffffffffffffffffffffffffffffffffffffffff168273ffffffffffffffffffffffffffffffffffffffff167f879f92dded0f26b83c3e00b12e0395dc72cfc3077343d1854ed6988edd1f9096836040516118f491815260200190565b60405180910390a361191d73ffffffffffffffffffffffffffffffffffffffff84168383612568565b505050565b600080548082526001602052604082208054919290916fffffffffffffffffffffffffffffffff169003611982576040517f398d4d3200000000000000000000000000000000000000000000000000000000815260040160405180910390fd5b61198b816125e9565b156119c2576040517fb37f700600000000000000000000000000000000000000000000000000000000815260040160405180910390fd5b8054427001000000000000000000000000000000009091046fffffffffffffffffffffffffffffffff1611611a23576040517fa0e9298400000000000000000000000000000000000000000000000000000000815260040160405180910390fd5b600281015480841115611a81576040517fb2b3b53b00000000000000000000000000000000000000000000000000000000815273ffffffffffffffffffffffffffffffffffffffff8716600482015260248101859052604401610d08565b6000838152600160208181526040808420848155928301849055600290920192909255600d80548785030190555185815273ffffffffffffffffffffffffffffffffffffffff88811692908816917f879f92dded0f26b83c3e00b12e0395dc72cfc3077343d1854ed6988edd1f9096910160405180910390a3611b3b73ffffffffffffffffffffffffffffffffffffffff7f0000000000000000000000000000000000000000000000000000000000000000168686612568565b505050505050565b73ffffffffffffffffffffffffffffffffffffffff8216600090815260036020908152604080832084845290915281205460ff1615611b8457506000610b74565b73ffffffffffffffffffffffffffffffffffffffff83166000908152600260209081526040808320858452909152902054801580611bc3575060005483115b15611bd2576000915050610b74565b6000838152600160208181526040808420815160808101835281546fffffffffffffffffffffffffffffffff8082168352700100000000000000000000000000000000909104169381019390935292830154908201819052600290920154606082018190529092611c4592859291612521565b95945050505050565b60008054610f0e906001612c46565b611c8b336000357fffffffff000000000000000000000000000000000000000000000000000000001661245e565b611cc1576040517fc0185c6400000000000000000000000000000000000000000000000000000000815260040160405180910390fd5b73ffffffffffffffffffffffffffffffffffffffff8316611d0e576040517fe6c4247b00000000000000000000000000000000000000000000000000000000815260040160405180910390fd5b6040805180820190915260008082526020820152819060005b82811015611b3b57848482818110611d4157611d41612c89565b905060400201803603810190611d579190612cb8565b91508160200151151582600001517bffffffffffffffffffffffffffffffffffffffffffffffffffffffff19168773ffffffffffffffffffffffffffffffffffffffff167ff5736e75de2c751f775d4c5ed517289f77074f8c337f451ba4c0c3ed1dd7f9ad60405160405180910390a460208281015173ffffffffffffffffffffffffffffffffffffffff8816600090815260088352604080822086517fffffffff000000000000000000000000000000000000000000000000000000001683529093529190912080547fffffffffffffffffffffffffffffffffffffffffffffffffffffffffffffff0016911515919091179055611e5581612d3c565b9050611d27565b611e6461267f565b565b611e94336000357fffffffff000000000000000000000000000000000000000000000000000000001661245e565b611eca576040517fc0185c6400000000000000000000000000000000000000000000000000000000815260040160405180910390fd5b611eda6040820160208301612d86565b63ffffffff161580611f135750611ef76060820160408301612dc9565b77ffffffffffffffffffffffffffffffffffffffffffffffff16155b80611f2e5750611f266020820182612d86565b63ffffffff16155b15611f65576040517f54db0c8c00000000000000000000000000000000000000000000000000000000815260040160405180910390fd5b600080548082526001602052604090912054427001000000000000000000000000000000009091046fffffffffffffffffffffffffffffffff161115611fd7576040517f398d4d3200000000000000000000000000000000000000000000000000000000815260040160405180910390fd5b81600e611fe48282612de6565b9050507f0ae1772a552aa48ab7e8bf58c335b3d4ce981b3d6c928f90d69a58f0f28d75fe8183604051612018929190612e8c565b60405180910390a15050565b612052336000357fffffffff000000000000000000000000000000000000000000000000000000001661245e565b612088576040517fc0185c6400000000000000000000000000000000000000000000000000000000815260040160405180910390fd5b73ffffffffffffffffffffffffffffffffffffffff81166120d5576040517fe6c4247b00000000000000000000000000000000000000000000000000000000815260040160405180910390fd5b600a5460075460405173ffffffffffffffffffffffffffffffffffffffff8085169381169216907f4857570a90fe0a0fc580e89a287e77576141ac8e2e8b3710cd26db44f44156c190600090a4600a80547fffffffffffffffffffffffff00000000000000000000000000000000000000001673ffffffffffffffffffffffffffffffffffffffff92909216919091179055565b612197336000357fffffffff000000000000000000000000000000000000000000000000000000001661245e565b6121cd576040517fc0185c6400000000000000000000000000000000000000000000000000000000815260040160405180910390fd5b73ffffffffffffffffffffffffffffffffffffffff811661221a576040517fe6c4247b00000000000000000000000000000000000000000000000000000000815260040160405180910390fd5b600054821115612256576040517fd5b25b6300000000000000000000000000000000000000000000000000000000815260040160405180910390fd5b60008281526005602052604090205460ff161561229f576040517f3e49310000000000000000000000000000000000000000000000000000000000815260040160405180910390fd5b60008281526001602052604090208054427001000000000000000000000000000000009091046fffffffffffffffffffffffffffffffff16111561230f576040517fb37f700600000000000000000000000000000000000000000000000000000000815260040160405180910390fd5b60018101541561234b576040517f398d4d3200000000000000000000000000000000000000000000000000000000815260040160405180910390fd5b6000838152600560205260409081902080547fffffffffffffffffffffffffffffffffffffffffffffffffffffffffffffff001660011790556002820154905173ffffffffffffffffffffffffffffffffffffffff7f0000000000000000000000000000000000000000000000000000000000000000811691908516907f879f92dded0f26b83c3e00b12e0395dc72cfc3077343d1854ed6988edd1f9096906123f79085815260200190565b60405180910390a361244073ffffffffffffffffffffffffffffffffffffffff7f0000000000000000000000000000000000000000000000000000000000000000168483612568565b50505050565b600080548152600160205260408120610f0e906125e9565b60095460009060ff1615612490575060065473ffffffffffffffffffffffffffffffffffffffff838116911614610b74565b60075473ffffffffffffffffffffffffffffffffffffffff8481169116148061250b575073ffffffffffffffffffffffffffffffffffffffff831660009081526008602090815260408083207fffffffff000000000000000000000000000000000000000000000000000000008616845290915290205460ff165b1561251857506001610b74565b50600092915050565b600061252e8585856126fb565b905081801561254d57506000838061254857612548612ef9565b858709115b156125605761255d600182612c46565b90505b949350505050565b60405173ffffffffffffffffffffffffffffffffffffffff83811660248301526044820183905261191d91859182169063a9059cbb906064015b604051602081830303815290604052915060e01b6020820180517bffffffffffffffffffffffffffffffffffffffffffffffffffffffff838183161783525050505061280c565b8054600090426fffffffffffffffffffffffffffffffff90911611801590610b745750505470010000000000000000000000000000000090046fffffffffffffffffffffffffffffffff16421090565b60405173ffffffffffffffffffffffffffffffffffffffff84811660248301528381166044830152606482018390526124409186918216906323b872dd906084016125a2565b7f000000000000000000000000000000000000000000000000000000000000000073ffffffffffffffffffffffffffffffffffffffff16631249c58b6040518163ffffffff1660e01b8152600401600060405180830381600087803b1580156126e757600080fd5b505af1158015612440573d6000803e3d6000fd5b600080807fffffffffffffffffffffffffffffffffffffffffffffffffffffffffffffffff858709858702925082811083820303915050806000036127535783828161274957612749612ef9565b0492505050612805565b83811061279d576040517f63a05778000000000000000000000000000000000000000000000000000000008152600481018790526024810186905260448101859052606401610d08565b600084868809851960019081018716968790049682860381900495909211909303600082900391909104909201919091029190911760038402600290811880860282030280860282030280860282030280860282030280860282030280860290910302029150505b9392505050565b600061282e73ffffffffffffffffffffffffffffffffffffffff8416836128a2565b905080516000141580156128535750808060200190518101906128519190612f28565b155b1561191d576040517f5274afe700000000000000000000000000000000000000000000000000000000815273ffffffffffffffffffffffffffffffffffffffff84166004820152602401610d08565b606061280583836000846000808573ffffffffffffffffffffffffffffffffffffffff1684866040516128d59190612f45565b60006040518083038185875af1925050503d8060008114612912576040519150601f19603f3d011682016040523d82523d6000602084013e612917565b606091505b5091509150612927868383612931565b9695505050505050565b60608261294657612941826129c0565b612805565b815115801561296a575073ffffffffffffffffffffffffffffffffffffffff84163b155b156129b9576040517f9996b31500000000000000000000000000000000000000000000000000000000815273ffffffffffffffffffffffffffffffffffffffff85166004820152602401610d08565b5080612805565b8051156129d05780518082602001fd5b6040517f1425ea4200000000000000000000000000000000000000000000000000000000815260040160405180910390fd5b50565b8015158114612a0257600080fd5b600060208284031215612a2557600080fd5b813561280581612a05565b803573ffffffffffffffffffffffffffffffffffffffff81168114612a5457600080fd5b919050565b600060208284031215612a6b57600080fd5b61280582612a30565b600060208284031215612a8657600080fd5b5035919050565b60008060408385031215612aa057600080fd5b612aa983612a30565b946020939093013593505050565b600080600060608486031215612acc57600080fd5b612ad584612a30565b9250612ae360208501612a30565b9150604084013590509250925092565b600080600060408486031215612b0857600080fd5b612b1184612a30565b9250602084013567ffffffffffffffff80821115612b2e57600080fd5b818601915086601f830112612b4257600080fd5b813581811115612b5157600080fd5b8760208260061b8501011115612b6657600080fd5b6020830194508093505050509250925092565b600060608284031215612b8b57600080fd5b50919050565b80357fffffffff0000000000000000000000000000000000000000000000000000000081168114612a5457600080fd5b60008060408385031215612bd457600080fd5b612bdd83612a30565b9150612beb60208401612b91565b90509250929050565b60008060408385031215612c0757600080fd5b82359150612beb60208401612a30565b7f4e487b7100000000000000000000000000000000000000000000000000000000600052601160045260246000fd5b80820180821115610b7457610b74612c17565b6fffffffffffffffffffffffffffffffff818116838216019080821115612c8257612c82612c17565b5092915050565b7f4e487b7100000000000000000000000000000000000000000000000000000000600052603260045260246000fd5b600060408284031215612cca57600080fd5b6040516040810181811067ffffffffffffffff82111715612d14577f4e487b7100000000000000000000000000000000000000000000000000000000600052604160045260246000fd5b604052612d2083612b91565b81526020830135612d3081612a05565b60208201529392505050565b60007fffffffffffffffffffffffffffffffffffffffffffffffffffffffffffffffff8203612d6d57612d6d612c17565b5060010190565b63ffffffff81168114612a0257600080fd5b600060208284031215612d9857600080fd5b813561280581612d74565b77ffffffffffffffffffffffffffffffffffffffffffffffff81168114612a0257600080fd5b600060208284031215612ddb57600080fd5b813561280581612da3565b8135612df181612d74565b63ffffffff811690508154817fffffffffffffffffffffffffffffffffffffffffffffffffffffffff0000000082161783556020840135612e3181612d74565b67ffffffff000000008160201b1690507fffffffffffffffffffffffffffffffffffffffffffffffff000000000000000081848285161717855560408601359250612e7b83612da3565b921760409190911b90911617905550565b828152608081018235612e9e81612d74565b63ffffffff808216602085015260208501359150612ebb82612d74565b16604083810191909152830135612ed181612da3565b77ffffffffffffffffffffffffffffffffffffffffffffffff81166060840152509392505050565b7f4e487b7100000000000000000000000000000000000000000000000000000000600052601260045260246000fd5b600060208284031215612f3a57600080fd5b815161280581612a05565b6000825160005b81811015612f665760208186018101518583015201612f4c565b50600092019182525091905056fea2646970667358221220cfdaff998e353abb9c668f7edd4d4ce42c4258910eb90aa3e080ab341e9afa9f64736f6c63430008140033",
  "linkReferences": {},
  "deployedLinkReferences": {}
}