{
  "_format": "hh-sol-artifact-1",
  "contractName": "Templar",
  "sourceName": "contracts/governance/Templar.sol",
  "abi": [
    {
      "inputs": [],
      "stateMutability": "nonpayable",
      "type": "constructor"
    },
    {
      "inputs": [
        {
          "internalType": "address",
          "name": "addr",
          "type": "address"
        }
      ],
      "name": "InvalidAddress",
      "type": "error"
    },
    {
      "inputs": [
        {
          "internalType": "uint256",
          "name": "discordId",
          "type": "uint256"
        }
      ],
      "name": "InvalidTemplar",
      "type": "error"
    },
    {
      "anonymous": false,
      "inputs": [
        {
          "indexed": true,
          "internalType": "address",
          "name": "owner",
          "type": "address"
        },
        {
          "indexed": true,
          "internalType": "address",
          "name": "approved",
          "type": "address"
        },
        {
          "indexed": true,
          "internalType": "uint256",
          "name": "tokenId",
          "type": "uint256"
        }
      ],
      "name": "Approval",
      "type": "event"
    },
    {
      "anonymous": false,
      "inputs": [
        {
          "indexed": true,
          "internalType": "address",
          "name": "owner",
          "type": "address"
        },
        {
          "indexed": true,
          "internalType": "address",
          "name": "operator",
          "type": "address"
        },
        {
          "indexed": false,
          "internalType": "bool",
          "name": "approved",
          "type": "bool"
        }
      ],
      "name": "ApprovalForAll",
      "type": "event"
    },
    {
      "anonymous": false,
      "inputs": [
        {
          "indexed": false,
          "internalType": "string",
          "name": "baseUri",
          "type": "string"
        }
      ],
      "name": "BaseUriUpdated",
      "type": "event"
    },
    {
      "anonymous": false,
      "inputs": [
        {
          "indexed": true,
          "internalType": "bytes32",
          "name": "role",
          "type": "bytes32"
        },
        {
          "indexed": true,
          "internalType": "bytes32",
          "name": "previousAdminRole",
          "type": "bytes32"
        },
        {
          "indexed": true,
          "internalType": "bytes32",
          "name": "newAdminRole",
          "type": "bytes32"
        }
      ],
      "name": "RoleAdminChanged",
      "type": "event"
    },
    {
      "anonymous": false,
      "inputs": [
        {
          "indexed": true,
          "internalType": "bytes32",
          "name": "role",
          "type": "bytes32"
        },
        {
          "indexed": true,
          "internalType": "address",
          "name": "account",
          "type": "address"
        },
        {
          "indexed": true,
          "internalType": "address",
          "name": "sender",
          "type": "address"
        }
      ],
      "name": "RoleGranted",
      "type": "event"
    },
    {
      "anonymous": false,
      "inputs": [
        {
          "indexed": true,
          "internalType": "bytes32",
          "name": "role",
          "type": "bytes32"
        },
        {
          "indexed": true,
          "internalType": "address",
          "name": "account",
          "type": "address"
        },
        {
          "indexed": true,
          "internalType": "address",
          "name": "sender",
          "type": "address"
        }
      ],
      "name": "RoleRevoked",
      "type": "event"
    },
    {
      "anonymous": false,
      "inputs": [
        {
          "indexed": true,
          "internalType": "address",
          "name": "from",
          "type": "address"
        },
        {
          "indexed": true,
          "internalType": "address",
          "name": "to",
          "type": "address"
        },
        {
          "indexed": true,
          "internalType": "uint256",
          "name": "tokenId",
          "type": "uint256"
        }
      ],
      "name": "Transfer",
      "type": "event"
    },
    {
      "inputs": [],
      "name": "CAN_ASSIGN",
      "outputs": [
        {
          "internalType": "bytes32",
          "name": "",
          "type": "bytes32"
        }
      ],
      "stateMutability": "view",
      "type": "function"
    },
    {
      "inputs": [],
      "name": "DEFAULT_ADMIN_ROLE",
      "outputs": [
        {
          "internalType": "bytes32",
          "name": "",
          "type": "bytes32"
        }
      ],
      "stateMutability": "view",
      "type": "function"
    },
    {
      "inputs": [],
      "name": "OWNER",
      "outputs": [
        {
          "internalType": "bytes32",
          "name": "",
          "type": "bytes32"
        }
      ],
      "stateMutability": "view",
      "type": "function"
    },
    {
      "inputs": [
        {
          "internalType": "address",
          "name": "to",
          "type": "address"
        },
        {
          "internalType": "uint256",
          "name": "tokenId",
          "type": "uint256"
        }
      ],
      "name": "approve",
      "outputs": [],
      "stateMutability": "nonpayable",
      "type": "function"
    },
    {
      "inputs": [
        {
          "internalType": "address",
          "name": "account",
          "type": "address"
        },
        {
          "internalType": "uint256",
          "name": "discordId",
          "type": "uint256"
        }
      ],
      "name": "assign",
      "outputs": [],
      "stateMutability": "nonpayable",
      "type": "function"
    },
    {
      "inputs": [
        {
          "internalType": "address",
          "name": "owner",
          "type": "address"
        }
      ],
      "name": "balanceOf",
      "outputs": [
        {
          "internalType": "uint256",
          "name": "",
          "type": "uint256"
        }
      ],
      "stateMutability": "view",
      "type": "function"
    },
    {
      "inputs": [],
      "name": "baseUri",
      "outputs": [
        {
          "internalType": "string",
          "name": "",
          "type": "string"
        }
      ],
      "stateMutability": "view",
      "type": "function"
    },
    {
      "inputs": [
        {
          "internalType": "uint256",
          "name": "discordId",
          "type": "uint256"
        }
      ],
      "name": "checkExists",
      "outputs": [],
      "stateMutability": "view",
      "type": "function"
    },
    {
      "inputs": [
        {
          "internalType": "uint256",
          "name": "discordId",
          "type": "uint256"
        }
      ],
      "name": "exists",
      "outputs": [
        {
          "internalType": "bool",
          "name": "",
          "type": "bool"
        }
      ],
      "stateMutability": "view",
      "type": "function"
    },
    {
      "inputs": [
        {
          "internalType": "uint256",
          "name": "tokenId",
          "type": "uint256"
        }
      ],
      "name": "getApproved",
      "outputs": [
        {
          "internalType": "address",
          "name": "",
          "type": "address"
        }
      ],
      "stateMutability": "view",
      "type": "function"
    },
    {
      "inputs": [
        {
          "internalType": "bytes32",
          "name": "role",
          "type": "bytes32"
        }
      ],
      "name": "getRoleAdmin",
      "outputs": [
        {
          "internalType": "bytes32",
          "name": "",
          "type": "bytes32"
        }
      ],
      "stateMutability": "view",
      "type": "function"
    },
    {
      "inputs": [
        {
          "internalType": "bytes32",
          "name": "role",
          "type": "bytes32"
        },
        {
          "internalType": "address",
          "name": "account",
          "type": "address"
        }
      ],
      "name": "grantRole",
      "outputs": [],
      "stateMutability": "nonpayable",
      "type": "function"
    },
    {
      "inputs": [
        {
          "internalType": "bytes32",
          "name": "role",
          "type": "bytes32"
        },
        {
          "internalType": "address",
          "name": "account",
          "type": "address"
        }
      ],
      "name": "hasRole",
      "outputs": [
        {
          "internalType": "bool",
          "name": "",
          "type": "bool"
        }
      ],
      "stateMutability": "view",
      "type": "function"
    },
    {
      "inputs": [
        {
          "internalType": "address",
          "name": "owner",
          "type": "address"
        },
        {
          "internalType": "address",
          "name": "operator",
          "type": "address"
        }
      ],
      "name": "isApprovedForAll",
      "outputs": [
        {
          "internalType": "bool",
          "name": "",
          "type": "bool"
        }
      ],
      "stateMutability": "view",
      "type": "function"
    },
    {
      "inputs": [],
      "name": "name",
      "outputs": [
        {
          "internalType": "string",
          "name": "",
          "type": "string"
        }
      ],
      "stateMutability": "view",
      "type": "function"
    },
    {
      "inputs": [
        {
          "internalType": "uint256",
          "name": "tokenId",
          "type": "uint256"
        }
      ],
      "name": "ownerOf",
      "outputs": [
        {
          "internalType": "address",
          "name": "",
          "type": "address"
        }
      ],
      "stateMutability": "view",
      "type": "function"
    },
    {
      "inputs": [
        {
          "internalType": "bytes32",
          "name": "role",
          "type": "bytes32"
        },
        {
          "internalType": "address",
          "name": "account",
          "type": "address"
        }
      ],
      "name": "renounceRole",
      "outputs": [],
      "stateMutability": "nonpayable",
      "type": "function"
    },
    {
      "inputs": [
        {
          "internalType": "bytes32",
          "name": "role",
          "type": "bytes32"
        },
        {
          "internalType": "address",
          "name": "account",
          "type": "address"
        }
      ],
      "name": "revokeRole",
      "outputs": [],
      "stateMutability": "nonpayable",
      "type": "function"
    },
    {
      "inputs": [
        {
          "internalType": "address",
          "name": "from",
          "type": "address"
        },
        {
          "internalType": "address",
          "name": "to",
          "type": "address"
        },
        {
          "internalType": "uint256",
          "name": "tokenId",
          "type": "uint256"
        }
      ],
      "name": "safeTransferFrom",
      "outputs": [],
      "stateMutability": "nonpayable",
      "type": "function"
    },
    {
      "inputs": [
        {
          "internalType": "address",
          "name": "from",
          "type": "address"
        },
        {
          "internalType": "address",
          "name": "to",
          "type": "address"
        },
        {
          "internalType": "uint256",
          "name": "tokenId",
          "type": "uint256"
        },
        {
          "internalType": "bytes",
          "name": "data",
          "type": "bytes"
        }
      ],
      "name": "safeTransferFrom",
      "outputs": [],
      "stateMutability": "nonpayable",
      "type": "function"
    },
    {
      "inputs": [
        {
          "internalType": "address",
          "name": "operator",
          "type": "address"
        },
        {
          "internalType": "bool",
          "name": "approved",
          "type": "bool"
        }
      ],
      "name": "setApprovalForAll",
      "outputs": [],
      "stateMutability": "nonpayable",
      "type": "function"
    },
    {
      "inputs": [
        {
          "internalType": "string",
          "name": "_baseUri",
          "type": "string"
        }
      ],
      "name": "setBaseUri",
      "outputs": [],
      "stateMutability": "nonpayable",
      "type": "function"
    },
    {
      "inputs": [
        {
          "internalType": "bytes4",
          "name": "interfaceId",
          "type": "bytes4"
        }
      ],
      "name": "supportsInterface",
      "outputs": [
        {
          "internalType": "bool",
          "name": "",
          "type": "bool"
        }
      ],
      "stateMutability": "view",
      "type": "function"
    },
    {
      "inputs": [],
      "name": "symbol",
      "outputs": [
        {
          "internalType": "string",
          "name": "",
          "type": "string"
        }
      ],
      "stateMutability": "view",
      "type": "function"
    },
    {
      "inputs": [
        {
          "internalType": "uint256",
          "name": "tokenId",
          "type": "uint256"
        }
      ],
      "name": "tokenURI",
      "outputs": [
        {
          "internalType": "string",
          "name": "",
          "type": "string"
        }
      ],
      "stateMutability": "view",
      "type": "function"
    },
    {
      "inputs": [
        {
          "internalType": "address",
          "name": "from",
          "type": "address"
        },
        {
          "internalType": "address",
          "name": "to",
          "type": "address"
        },
        {
          "internalType": "uint256",
          "name": "tokenId",
          "type": "uint256"
        }
      ],
      "name": "transferFrom",
      "outputs": [],
      "stateMutability": "nonpayable",
      "type": "function"
    }
  ],
  "bytecode": "0x60c0604052601d60809081527f68747470733a2f2f646973636f72646170702e636f6d2f75736572732f00000060a0526007906200003e90826200023f565b503480156200004c57600080fd5b50604051806040016040528060078152602001662a32b6b83630b960c91b815250604051806040016040528060078152602001662a22a6a82620a960c91b81525081600090816200009e91906200023f565b506001620000ad82826200023f565b505050620000e27f6270edb7c868f86fda4adedba75108201087268ea345934db8bad688e1feb91b33620000f560201b60201c565b620000ef600033620000f5565b6200030b565b60008281526006602090815260408083206001600160a01b038516845290915290205460ff16620001965760008281526006602090815260408083206001600160a01b03851684529091529020805460ff19166001179055620001553390565b6001600160a01b0316816001600160a01b0316837f2f8788117e7eff1d82e926ec794901d17c78024a50270940304540a733656f0d60405160405180910390a45b5050565b634e487b7160e01b600052604160045260246000fd5b600181811c90821680620001c557607f821691505b602082108103620001e657634e487b7160e01b600052602260045260246000fd5b50919050565b601f8211156200023a57600081815260208120601f850160051c81016020861015620002155750805b601f850160051c820191505b81811015620002365782815560010162000221565b5050505b505050565b81516001600160401b038111156200025b576200025b6200019a565b62000273816200026c8454620001b0565b84620001ec565b602080601f831160018114620002ab5760008415620002925750858301515b600019600386901b1c1916600185901b17855562000236565b600085815260208120601f198616915b82811015620002dc57888601518255948401946001909101908401620002bb565b5085821015620002fb5787850151600019600388901b60f8161c191681555b5050505050600190811b01905550565b612933806200031b6000396000f3fe608060405234801561001057600080fd5b50600436106101ae5760003560e01c806370a08231116100ee578063a217fddf11610097578063be76048811610071578063be760488146103eb578063c87b56dd146103fe578063d547741f14610411578063e985e9c51461042457600080fd5b8063a217fddf146103bd578063a22cb465146103c5578063b88d4fde146103d857600080fd5b80639a6c91f9116100c85780639a6c91f91461037b5780639abc8320146103a2578063a0bcfc7f146103aa57600080fd5b806370a082311461031a57806391d148541461032d57806395d89b411461037357600080fd5b806323b872dd1161015b57806336568abe1161013557806336568abe146102ce57806342842e0e146102e15780634f558e79146102f45780636352211e1461030757600080fd5b806323b872dd14610285578063248a9ca3146102985780632f2ff15d146102bb57600080fd5b8063095ea7b31161018c578063095ea7b3146102285780630e2e44e81461023d578063117803e31461025057600080fd5b806301ffc9a7146101b357806306fdde03146101db578063081812fc146101f0575b600080fd5b6101c66101c1366004612137565b61046d565b60405190151581526020015b60405180910390f35b6101e361048d565b6040516101d291906121c2565b6102036101fe3660046121d5565b61051f565b60405173ffffffffffffffffffffffffffffffffffffffff90911681526020016101d2565b61023b610236366004612217565b610553565b005b61023b61024b3660046121d5565b6106e4565b6102777f6270edb7c868f86fda4adedba75108201087268ea345934db8bad688e1feb91b81565b6040519081526020016101d2565b61023b610293366004612241565b610745565b6102776102a63660046121d5565b60009081526006602052604090206001015490565b61023b6102c936600461227d565b6107e6565b61023b6102dc36600461227d565b61080b565b61023b6102ef366004612241565b6108be565b6101c66103023660046121d5565b6108d9565b6102036103153660046121d5565b610905565b6102776103283660046122a9565b610991565b6101c661033b36600461227d565b600091825260066020908152604080842073ffffffffffffffffffffffffffffffffffffffff93909316845291905290205460ff1690565b6101e3610a5f565b6102777f709eaacc958b4ccc7b30fa5320524a69916886f681934efe0bc0b56086a549c681565b6101e3610a6e565b61023b6103b83660046122c4565b610afc565b610277600081565b61023b6103d3366004612336565b610b71565b61023b6103e63660046123a1565b610b7c565b61023b6103f9366004612217565b610c24565b6101e361040c3660046121d5565b610d35565b61023b61041f36600461227d565b610d9c565b6101c661043236600461249b565b73ffffffffffffffffffffffffffffffffffffffff918216600090815260056020908152604080832093909416825291909152205460ff1690565b600061047882610dc1565b80610487575061048782610ea4565b92915050565b60606000805461049c906124c5565b80601f01602080910402602001604051908101604052809291908181526020018280546104c8906124c5565b80156105155780601f106104ea57610100808354040283529160200191610515565b820191906000526020600020905b8154815290600101906020018083116104f857829003601f168201915b5050505050905090565b600061052a82610efa565b5060009081526004602052604090205473ffffffffffffffffffffffffffffffffffffffff1690565b600061055e82610905565b90508073ffffffffffffffffffffffffffffffffffffffff168373ffffffffffffffffffffffffffffffffffffffff1603610620576040517f08c379a000000000000000000000000000000000000000000000000000000000815260206004820152602160248201527f4552433732313a20617070726f76616c20746f2063757272656e74206f776e6560448201527f720000000000000000000000000000000000000000000000000000000000000060648201526084015b60405180910390fd5b3373ffffffffffffffffffffffffffffffffffffffff8216148061064957506106498133610432565b6106d5576040517f08c379a000000000000000000000000000000000000000000000000000000000815260206004820152603d60248201527f4552433732313a20617070726f76652063616c6c6572206973206e6f7420746f60448201527f6b656e206f776e6572206f7220617070726f76656420666f7220616c6c0000006064820152608401610617565b6106df8383610f85565b505050565b60008181526002602052604090205473ffffffffffffffffffffffffffffffffffffffff16610742576040517fce8f7c2700000000000000000000000000000000000000000000000000000000815260048101829052602401610617565b50565b61074f3382611025565b6107db576040517f08c379a000000000000000000000000000000000000000000000000000000000815260206004820152602d60248201527f4552433732313a2063616c6c6572206973206e6f7420746f6b656e206f776e6560448201527f72206f7220617070726f766564000000000000000000000000000000000000006064820152608401610617565b6106df8383836110e5565b600082815260066020526040902060010154610801816113e0565b6106df83836113ea565b73ffffffffffffffffffffffffffffffffffffffff811633146108b0576040517f08c379a000000000000000000000000000000000000000000000000000000000815260206004820152602f60248201527f416363657373436f6e74726f6c3a2063616e206f6e6c792072656e6f756e636560448201527f20726f6c657320666f722073656c6600000000000000000000000000000000006064820152608401610617565b6108ba82826114de565b5050565b6106df83838360405180602001604052806000815250610b7c565b60008181526002602052604081205473ffffffffffffffffffffffffffffffffffffffff161515610487565b60008181526002602052604081205473ffffffffffffffffffffffffffffffffffffffff1680610487576040517f08c379a000000000000000000000000000000000000000000000000000000000815260206004820152601860248201527f4552433732313a20696e76616c696420746f6b656e20494400000000000000006044820152606401610617565b600073ffffffffffffffffffffffffffffffffffffffff8216610a36576040517f08c379a000000000000000000000000000000000000000000000000000000000815260206004820152602960248201527f4552433732313a2061646472657373207a65726f206973206e6f74206120766160448201527f6c6964206f776e657200000000000000000000000000000000000000000000006064820152608401610617565b5073ffffffffffffffffffffffffffffffffffffffff1660009081526003602052604090205490565b60606001805461049c906124c5565b60078054610a7b906124c5565b80601f0160208091040260200160405190810160405280929190818152602001828054610aa7906124c5565b8015610af45780601f10610ac957610100808354040283529160200191610af4565b820191906000526020600020905b815481529060010190602001808311610ad757829003601f168201915b505050505081565b7f6270edb7c868f86fda4adedba75108201087268ea345934db8bad688e1feb91b610b26816113e0565b6007610b33838583612566565b507f24a9152dc695ecc801ad580886331ee12d7aac0fa2ae341a5ae3c2ccae36cb4f6007604051610b649190612681565b60405180910390a1505050565b6108ba338383611599565b610b863383611025565b610c12576040517f08c379a000000000000000000000000000000000000000000000000000000000815260206004820152602d60248201527f4552433732313a2063616c6c6572206973206e6f7420746f6b656e206f776e6560448201527f72206f7220617070726f766564000000000000000000000000000000000000006064820152608401610617565b610c1e848484846116c6565b50505050565b7f709eaacc958b4ccc7b30fa5320524a69916886f681934efe0bc0b56086a549c6610c4e816113e0565b73ffffffffffffffffffffffffffffffffffffffff8316610cb3576040517f8e4c8aa600000000000000000000000000000000000000000000000000000000815273ffffffffffffffffffffffffffffffffffffffff84166004820152602401610617565b60008281526002602052604090205473ffffffffffffffffffffffffffffffffffffffff1615610d2b578273ffffffffffffffffffffffffffffffffffffffff16610cfd83610905565b73ffffffffffffffffffffffffffffffffffffffff16146106df576106df610d2483610905565b84846110e5565b6106df8383611769565b6060610d4082610efa565b6000610d4a611783565b90506000815111610d6a5760405180602001604052806000815250610d95565b80610d7484611792565b604051602001610d8592919061272a565b6040516020818303038152906040525b9392505050565b600082815260066020526040902060010154610db7816113e0565b6106df83836114de565b60007fffffffff0000000000000000000000000000000000000000000000000000000082167f80ac58cd000000000000000000000000000000000000000000000000000000001480610e5457507fffffffff0000000000000000000000000000000000000000000000000000000082167f5b5e139f00000000000000000000000000000000000000000000000000000000145b8061048757507f01ffc9a7000000000000000000000000000000000000000000000000000000007fffffffff00000000000000000000000000000000000000000000000000000000831614610487565b60007fffffffff0000000000000000000000000000000000000000000000000000000082167f7965db0b000000000000000000000000000000000000000000000000000000001480610487575061048782610dc1565b60008181526002602052604090205473ffffffffffffffffffffffffffffffffffffffff16610742576040517f08c379a000000000000000000000000000000000000000000000000000000000815260206004820152601860248201527f4552433732313a20696e76616c696420746f6b656e20494400000000000000006044820152606401610617565b600081815260046020526040902080547fffffffffffffffffffffffff00000000000000000000000000000000000000001673ffffffffffffffffffffffffffffffffffffffff84169081179091558190610fdf82610905565b73ffffffffffffffffffffffffffffffffffffffff167f8c5be1e5ebec7d5bd14f71427d1e84f3dd0314c0f7b2291e5b200ac8c7c3b92560405160405180910390a45050565b60008061103183610905565b90508073ffffffffffffffffffffffffffffffffffffffff168473ffffffffffffffffffffffffffffffffffffffff16148061109f575073ffffffffffffffffffffffffffffffffffffffff80821660009081526005602090815260408083209388168352929052205460ff165b806110dd57508373ffffffffffffffffffffffffffffffffffffffff166110c58461051f565b73ffffffffffffffffffffffffffffffffffffffff16145b949350505050565b8273ffffffffffffffffffffffffffffffffffffffff1661110582610905565b73ffffffffffffffffffffffffffffffffffffffff16146111a8576040517f08c379a000000000000000000000000000000000000000000000000000000000815260206004820152602560248201527f4552433732313a207472616e736665722066726f6d20696e636f72726563742060448201527f6f776e65720000000000000000000000000000000000000000000000000000006064820152608401610617565b73ffffffffffffffffffffffffffffffffffffffff821661124a576040517f08c379a0000000000000000000000000000000000000000000000000000000008152602060048201526024808201527f4552433732313a207472616e7366657220746f20746865207a65726f2061646460448201527f72657373000000000000000000000000000000000000000000000000000000006064820152608401610617565b8273ffffffffffffffffffffffffffffffffffffffff1661126a82610905565b73ffffffffffffffffffffffffffffffffffffffff161461130d576040517f08c379a000000000000000000000000000000000000000000000000000000000815260206004820152602560248201527f4552433732313a207472616e736665722066726f6d20696e636f72726563742060448201527f6f776e65720000000000000000000000000000000000000000000000000000006064820152608401610617565b600081815260046020908152604080832080547fffffffffffffffffffffffff000000000000000000000000000000000000000090811690915573ffffffffffffffffffffffffffffffffffffffff8781168086526003855283862080547fffffffffffffffffffffffffffffffffffffffffffffffffffffffffffffffff01905590871680865283862080546001019055868652600290945282852080549092168417909155905184937fddf252ad1be2c89b69c2b068fc378daa952ba7f163c4a11628f55a4df523b3ef91a4505050565b6107428133611850565b600082815260066020908152604080832073ffffffffffffffffffffffffffffffffffffffff8516845290915290205460ff166108ba57600082815260066020908152604080832073ffffffffffffffffffffffffffffffffffffffff85168452909152902080547fffffffffffffffffffffffffffffffffffffffffffffffffffffffffffffff001660011790556114803390565b73ffffffffffffffffffffffffffffffffffffffff168173ffffffffffffffffffffffffffffffffffffffff16837f2f8788117e7eff1d82e926ec794901d17c78024a50270940304540a733656f0d60405160405180910390a45050565b600082815260066020908152604080832073ffffffffffffffffffffffffffffffffffffffff8516845290915290205460ff16156108ba57600082815260066020908152604080832073ffffffffffffffffffffffffffffffffffffffff8516808552925280832080547fffffffffffffffffffffffffffffffffffffffffffffffffffffffffffffff0016905551339285917ff6391f5c32d9c69d2a47ea670b442974b53935d1edc7fd64eb21e047a839171b9190a45050565b8173ffffffffffffffffffffffffffffffffffffffff168373ffffffffffffffffffffffffffffffffffffffff160361162e576040517f08c379a000000000000000000000000000000000000000000000000000000000815260206004820152601960248201527f4552433732313a20617070726f766520746f2063616c6c6572000000000000006044820152606401610617565b73ffffffffffffffffffffffffffffffffffffffff83811660008181526005602090815260408083209487168084529482529182902080547fffffffffffffffffffffffffffffffffffffffffffffffffffffffffffffff001686151590811790915591519182527f17307eab39ab6107e8899845ad3d59bd9653f200f220920489ca2b5937696c31910160405180910390a3505050565b6116d18484846110e5565b6116dd8484848461190a565b610c1e576040517f08c379a000000000000000000000000000000000000000000000000000000000815260206004820152603260248201527f4552433732313a207472616e7366657220746f206e6f6e20455243373231526560448201527f63656976657220696d706c656d656e74657200000000000000000000000000006064820152608401610617565b6108ba828260405180602001604052806000815250611afd565b60606007805461049c906124c5565b6060600061179f83611ba0565b600101905060008167ffffffffffffffff8111156117bf576117bf612372565b6040519080825280601f01601f1916602001820160405280156117e9576020820181803683370190505b5090508181016020015b7fffffffffffffffffffffffffffffffffffffffffffffffffffffffffffffffff017f3031323334353637383961626364656600000000000000000000000000000000600a86061a8153600a85049450846117f357509392505050565b600082815260066020908152604080832073ffffffffffffffffffffffffffffffffffffffff8516845290915290205460ff166108ba5761189081611c82565b61189b836020611ca1565b6040516020016118ac929190612759565b604080517fffffffffffffffffffffffffffffffffffffffffffffffffffffffffffffffe0818403018152908290527f08c379a0000000000000000000000000000000000000000000000000000000008252610617916004016121c2565b600073ffffffffffffffffffffffffffffffffffffffff84163b15611af2576040517f150b7a0200000000000000000000000000000000000000000000000000000000815273ffffffffffffffffffffffffffffffffffffffff85169063150b7a02906119819033908990889088906004016127da565b6020604051808303816000875af19250505080156119da575060408051601f3d9081017fffffffffffffffffffffffffffffffffffffffffffffffffffffffffffffffe01682019092526119d791810190612823565b60015b611aa7573d808015611a08576040519150601f19603f3d011682016040523d82523d6000602084013e611a0d565b606091505b508051600003611a9f576040517f08c379a000000000000000000000000000000000000000000000000000000000815260206004820152603260248201527f4552433732313a207472616e7366657220746f206e6f6e20455243373231526560448201527f63656976657220696d706c656d656e74657200000000000000000000000000006064820152608401610617565b805181602001fd5b7fffffffff00000000000000000000000000000000000000000000000000000000167f150b7a02000000000000000000000000000000000000000000000000000000001490506110dd565b506001949350505050565b611b078383611ee4565b611b14600084848461190a565b6106df576040517f08c379a000000000000000000000000000000000000000000000000000000000815260206004820152603260248201527f4552433732313a207472616e7366657220746f206e6f6e20455243373231526560448201527f63656976657220696d706c656d656e74657200000000000000000000000000006064820152608401610617565b6000807a184f03e93ff9f4daa797ed6e38ed64bf6a1f0100000000000000008310611be9577a184f03e93ff9f4daa797ed6e38ed64bf6a1f010000000000000000830492506040015b6d04ee2d6d415b85acef81000000008310611c15576d04ee2d6d415b85acef8100000000830492506020015b662386f26fc100008310611c3357662386f26fc10000830492506010015b6305f5e1008310611c4b576305f5e100830492506008015b6127108310611c5f57612710830492506004015b60648310611c71576064830492506002015b600a83106104875760010192915050565b606061048773ffffffffffffffffffffffffffffffffffffffff831660145b60606000611cb083600261286f565b611cbb906002612886565b67ffffffffffffffff811115611cd357611cd3612372565b6040519080825280601f01601f191660200182016040528015611cfd576020820181803683370190505b5090507f300000000000000000000000000000000000000000000000000000000000000081600081518110611d3457611d34612899565b60200101907effffffffffffffffffffffffffffffffffffffffffffffffffffffffffffff1916908160001a9053507f780000000000000000000000000000000000000000000000000000000000000081600181518110611d9757611d97612899565b60200101907effffffffffffffffffffffffffffffffffffffffffffffffffffffffffffff1916908160001a9053506000611dd384600261286f565b611dde906001612886565b90505b6001811115611e7b577f303132333435363738396162636465660000000000000000000000000000000085600f1660108110611e1f57611e1f612899565b1a60f81b828281518110611e3557611e35612899565b60200101907effffffffffffffffffffffffffffffffffffffffffffffffffffffffffffff1916908160001a90535060049490941c93611e74816128c8565b9050611de1565b508315610d95576040517f08c379a000000000000000000000000000000000000000000000000000000000815260206004820181905260248201527f537472696e67733a20686578206c656e67746820696e73756666696369656e746044820152606401610617565b73ffffffffffffffffffffffffffffffffffffffff8216611f61576040517f08c379a000000000000000000000000000000000000000000000000000000000815260206004820181905260248201527f4552433732313a206d696e7420746f20746865207a65726f20616464726573736044820152606401610617565b60008181526002602052604090205473ffffffffffffffffffffffffffffffffffffffff1615611fed576040517f08c379a000000000000000000000000000000000000000000000000000000000815260206004820152601c60248201527f4552433732313a20746f6b656e20616c7265616479206d696e746564000000006044820152606401610617565b60008181526002602052604090205473ffffffffffffffffffffffffffffffffffffffff1615612079576040517f08c379a000000000000000000000000000000000000000000000000000000000815260206004820152601c60248201527f4552433732313a20746f6b656e20616c7265616479206d696e746564000000006044820152606401610617565b73ffffffffffffffffffffffffffffffffffffffff8216600081815260036020908152604080832080546001019055848352600290915280822080547fffffffffffffffffffffffff0000000000000000000000000000000000000000168417905551839291907fddf252ad1be2c89b69c2b068fc378daa952ba7f163c4a11628f55a4df523b3ef908290a45050565b7fffffffff000000000000000000000000000000000000000000000000000000008116811461074257600080fd5b60006020828403121561214957600080fd5b8135610d9581612109565b60005b8381101561216f578181015183820152602001612157565b50506000910152565b60008151808452612190816020860160208601612154565b601f017fffffffffffffffffffffffffffffffffffffffffffffffffffffffffffffffe0169290920160200192915050565b602081526000610d956020830184612178565b6000602082840312156121e757600080fd5b5035919050565b803573ffffffffffffffffffffffffffffffffffffffff8116811461221257600080fd5b919050565b6000806040838503121561222a57600080fd5b612233836121ee565b946020939093013593505050565b60008060006060848603121561225657600080fd5b61225f846121ee565b925061226d602085016121ee565b9150604084013590509250925092565b6000806040838503121561229057600080fd5b823591506122a0602084016121ee565b90509250929050565b6000602082840312156122bb57600080fd5b610d95826121ee565b600080602083850312156122d757600080fd5b823567ffffffffffffffff808211156122ef57600080fd5b818501915085601f83011261230357600080fd5b81358181111561231257600080fd5b86602082850101111561232457600080fd5b60209290920196919550909350505050565b6000806040838503121561234957600080fd5b612352836121ee565b91506020830135801515811461236757600080fd5b809150509250929050565b7f4e487b7100000000000000000000000000000000000000000000000000000000600052604160045260246000fd5b600080600080608085870312156123b757600080fd5b6123c0856121ee565b93506123ce602086016121ee565b925060408501359150606085013567ffffffffffffffff808211156123f257600080fd5b818701915087601f83011261240657600080fd5b81358181111561241857612418612372565b604051601f82017fffffffffffffffffffffffffffffffffffffffffffffffffffffffffffffffe0908116603f0116810190838211818310171561245e5761245e612372565b816040528281528a602084870101111561247757600080fd5b82602086016020830137600060208483010152809550505050505092959194509250565b600080604083850312156124ae57600080fd5b6124b7836121ee565b91506122a0602084016121ee565b600181811c908216806124d957607f821691505b602082108103612512577f4e487b7100000000000000000000000000000000000000000000000000000000600052602260045260246000fd5b50919050565b601f8211156106df57600081815260208120601f850160051c8101602086101561253f5750805b601f850160051c820191505b8181101561255e5782815560010161254b565b505050505050565b67ffffffffffffffff83111561257e5761257e612372565b6125928361258c83546124c5565b83612518565b6000601f8411600181146125e457600085156125ae5750838201355b7fffffffffffffffffffffffffffffffffffffffffffffffffffffffffffffffff600387901b1c1916600186901b17835561267a565b6000838152602090207fffffffffffffffffffffffffffffffffffffffffffffffffffffffffffffffe0861690835b828110156126335786850135825560209485019460019092019101612613565b508682101561266e577fffffffffffffffffffffffffffffffffffffffffffffffffffffffffffffffff60f88860031b161c19848701351681555b505060018560011b0183555b5050505050565b6000602080835260008454612695816124c5565b808487015260406001808416600081146126b657600181146126ee5761271c565b7fffffffffffffffffffffffffffffffffffffffffffffffffffffffffffffff008516838a01528284151560051b8a0101955061271c565b896000528660002060005b858110156127145781548b82018601529083019088016126f9565b8a0184019650505b509398975050505050505050565b6000835161273c818460208801612154565b835190830190612750818360208801612154565b01949350505050565b7f416363657373436f6e74726f6c3a206163636f756e7420000000000000000000815260008351612791816017850160208801612154565b7f206973206d697373696e6720726f6c652000000000000000000000000000000060179184019182015283516127ce816028840160208801612154565b01602801949350505050565b600073ffffffffffffffffffffffffffffffffffffffff8087168352808616602084015250836040830152608060608301526128196080830184612178565b9695505050505050565b60006020828403121561283557600080fd5b8151610d9581612109565b7f4e487b7100000000000000000000000000000000000000000000000000000000600052601160045260246000fd5b808202811582820484141761048757610487612840565b8082018082111561048757610487612840565b7f4e487b7100000000000000000000000000000000000000000000000000000000600052603260045260246000fd5b6000816128d7576128d7612840565b507fffffffffffffffffffffffffffffffffffffffffffffffffffffffffffffffff019056fea26469706673582212204b0a846bda959ca76c682495d41ef230a964fd1964726051896b8b91328656f664736f6c63430008130033",
  "linkReferences": {},
  "deployedLinkReferences": {}
}