{
  "_format": "hh-sol-artifact-1",
  "contractName": "OpsManager",
  "sourceName": "contracts/core/OpsManager.sol",
  "abi": [
    {
      "inputs": [
        {
          "internalType": "contract IERC20",
          "name": "_templeToken",
          "type": "address"
        },
        {
          "internalType": "contract JoiningFee",
          "name": "_joiningFee",
          "type": "address"
        }
      ],
      "stateMutability": "nonpayable",
      "type": "constructor"
    },
    {
      "anonymous": false,
      "inputs": [
        {
          "indexed": false,
          "internalType": "address",
          "name": "exposure",
          "type": "address"
        },
        {
          "indexed": false,
          "internalType": "address",
          "name": "primaryRevenue",
          "type": "address"
        }
      ],
      "name": "CreateExposure",
      "type": "event"
    },
    {
      "anonymous": false,
      "inputs": [
        {
          "indexed": false,
          "internalType": "address",
          "name": "vault",
          "type": "address"
        }
      ],
      "name": "CreateVaultInstance",
      "type": "event"
    },
    {
      "anonymous": false,
      "inputs": [
        {
          "indexed": true,
          "internalType": "address",
          "name": "previousOwner",
          "type": "address"
        },
        {
          "indexed": true,
          "internalType": "address",
          "name": "newOwner",
          "type": "address"
        }
      ],
      "name": "OwnershipTransferred",
      "type": "event"
    },
    {
      "inputs": [
        {
          "internalType": "address",
          "name": "",
          "type": "address"
        }
      ],
      "name": "activeVaults",
      "outputs": [
        {
          "internalType": "bool",
          "name": "",
          "type": "bool"
        }
      ],
      "stateMutability": "view",
      "type": "function"
    },
    {
      "inputs": [
        {
          "internalType": "contract IERC20[]",
          "name": "exposureTokens",
          "type": "address[]"
        },
        {
          "internalType": "uint256[]",
          "name": "amounts",
          "type": "uint256[]"
        }
      ],
      "name": "addRevenue",
      "outputs": [],
      "stateMutability": "nonpayable",
      "type": "function"
    },
    {
      "inputs": [
        {
          "internalType": "string",
          "name": "name",
          "type": "string"
        },
        {
          "internalType": "string",
          "name": "symbol",
          "type": "string"
        },
        {
          "internalType": "contract IERC20",
          "name": "revalToken",
          "type": "address"
        }
      ],
      "name": "createExposure",
      "outputs": [],
      "stateMutability": "nonpayable",
      "type": "function"
    },
    {
      "inputs": [
        {
          "internalType": "string",
          "name": "name",
          "type": "string"
        },
        {
          "internalType": "string",
          "name": "symbol",
          "type": "string"
        },
        {
          "internalType": "uint256",
          "name": "periodDuration",
          "type": "uint256"
        },
        {
          "internalType": "uint256",
          "name": "enterExitWindowDuration",
          "type": "uint256"
        },
        {
          "components": [
            {
              "internalType": "uint256",
              "name": "p",
              "type": "uint256"
            },
            {
              "internalType": "uint256",
              "name": "q",
              "type": "uint256"
            }
          ],
          "internalType": "struct Rational",
          "name": "shareBoostFactor",
          "type": "tuple"
        },
        {
          "internalType": "uint256",
          "name": "firstPeriodStartTimestamp",
          "type": "uint256"
        }
      ],
      "name": "createVaultInstance",
      "outputs": [],
      "stateMutability": "nonpayable",
      "type": "function"
    },
    {
      "inputs": [
        {
          "internalType": "contract Vault[]",
          "name": "vaults",
          "type": "address[]"
        },
        {
          "internalType": "uint256[]",
          "name": "amountsTemple",
          "type": "uint256[]"
        }
      ],
      "name": "increaseVaultTemple",
      "outputs": [],
      "stateMutability": "nonpayable",
      "type": "function"
    },
    {
      "inputs": [],
      "name": "joiningFee",
      "outputs": [
        {
          "internalType": "contract JoiningFee",
          "name": "",
          "type": "address"
        }
      ],
      "stateMutability": "view",
      "type": "function"
    },
    {
      "inputs": [
        {
          "internalType": "contract Vault[]",
          "name": "vaults",
          "type": "address[]"
        },
        {
          "internalType": "contract IERC20[]",
          "name": "exposureTokens",
          "type": "address[]"
        }
      ],
      "name": "liquidateExposures",
      "outputs": [],
      "stateMutability": "nonpayable",
      "type": "function"
    },
    {
      "inputs": [],
      "name": "owner",
      "outputs": [
        {
          "internalType": "address",
          "name": "",
          "type": "address"
        }
      ],
      "stateMutability": "view",
      "type": "function"
    },
    {
      "inputs": [
        {
          "internalType": "contract IERC20",
          "name": "",
          "type": "address"
        }
      ],
      "name": "pools",
      "outputs": [
        {
          "internalType": "contract TreasuryFarmingRevenue",
          "name": "",
          "type": "address"
        }
      ],
      "stateMutability": "view",
      "type": "function"
    },
    {
      "inputs": [
        {
          "internalType": "contract Vault[]",
          "name": "vaults",
          "type": "address[]"
        },
        {
          "internalType": "contract IERC20",
          "name": "exposureToken",
          "type": "address"
        }
      ],
      "name": "rebalance",
      "outputs": [],
      "stateMutability": "nonpayable",
      "type": "function"
    },
    {
      "inputs": [],
      "name": "renounceOwnership",
      "outputs": [],
      "stateMutability": "nonpayable",
      "type": "function"
    },
    {
      "inputs": [
        {
          "internalType": "contract Vault[]",
          "name": "vaults",
          "type": "address[]"
        },
        {
          "internalType": "contract IERC20",
          "name": "exposureToken",
          "type": "address"
        }
      ],
      "name": "requiresRebalance",
      "outputs": [
        {
          "internalType": "bool[]",
          "name": "",
          "type": "bool[]"
        }
      ],
      "stateMutability": "view",
      "type": "function"
    },
    {
      "inputs": [
        {
          "internalType": "uint256",
          "name": "",
          "type": "uint256"
        }
      ],
      "name": "revalTokens",
      "outputs": [
        {
          "internalType": "address",
          "name": "",
          "type": "address"
        }
      ],
      "stateMutability": "view",
      "type": "function"
    },
    {
      "inputs": [
        {
          "internalType": "contract IERC20",
          "name": "exposureToken",
          "type": "address"
        },
        {
          "internalType": "contract ILiquidator",
          "name": "_liquidator",
          "type": "address"
        }
      ],
      "name": "setExposureLiquidator",
      "outputs": [],
      "stateMutability": "nonpayable",
      "type": "function"
    },
    {
      "inputs": [
        {
          "internalType": "contract IERC20",
          "name": "exposureToken",
          "type": "address"
        },
        {
          "internalType": "address",
          "name": "account",
          "type": "address"
        },
        {
          "internalType": "bool",
          "name": "state",
          "type": "bool"
        }
      ],
      "name": "setExposureMinterState",
      "outputs": [],
      "stateMutability": "nonpayable",
      "type": "function"
    },
    {
      "inputs": [],
      "name": "templeExposure",
      "outputs": [
        {
          "internalType": "contract Exposure",
          "name": "",
          "type": "address"
        }
      ],
      "stateMutability": "view",
      "type": "function"
    },
    {
      "inputs": [],
      "name": "templeToken",
      "outputs": [
        {
          "internalType": "contract IERC20",
          "name": "",
          "type": "address"
        }
      ],
      "stateMutability": "view",
      "type": "function"
    },
    {
      "inputs": [
        {
          "internalType": "address",
          "name": "newOwner",
          "type": "address"
        }
      ],
      "name": "transferOwnership",
      "outputs": [],
      "stateMutability": "nonpayable",
      "type": "function"
    },
    {
      "inputs": [
        {
          "internalType": "contract IERC20[]",
          "name": "exposureTokens",
          "type": "address[]"
        },
        {
          "internalType": "uint256[]",
          "name": "revals",
          "type": "uint256[]"
        }
      ],
      "name": "updateExposureReval",
      "outputs": [],
      "stateMutability": "nonpayable",
      "type": "function"
    },
    {
      "inputs": [],
      "name": "vaultedTemple",
      "outputs": [
        {
          "internalType": "contract VaultedTemple",
          "name": "",
          "type": "address"
        }
      ],
      "stateMutability": "view",
      "type": "function"
    }
  ],
  "bytecode": "0x60c06040523480156200001157600080fd5b50604051620082ed380380620082ed833981016040819052620000349162000303565b6200003f336200027e565b6001600160a01b03808316608052811660a05260405182906200006290620002ce565b6060808252600e908201526d7661756c7465642074656d706c6560901b608082015260a06020820181905260089082015267565f54454d504c4560c01b60c08201526001600160a01b03909116604082015260e001604051809103906000f080158015620000d4573d6000803e3d6000fd5b50600580546001600160a01b0319166001600160a01b039290921691821790556040516353a37c9d60e11b81523060048201526001602482015263a746f93a90604401600060405180830381600087803b1580156200013257600080fd5b505af115801562000147573d6000803e3d6000fd5b50506005546040518593506001600160a01b0390911691506200016a90620002dc565b6001600160a01b03928316815291166020820152604001604051809103906000f0801580156200019e573d6000803e3d6000fd5b50600680546001600160a01b0319166001600160a01b0392831690811790915560055460405163ae85d64160e01b815260048101929092529091169063ae85d64190602401600060405180830381600087803b158015620001fe57600080fd5b505af115801562000213573d6000803e3d6000fd5b505060065460405163f2fde38b60e01b81523360048201526001600160a01b03909116925063f2fde38b9150602401600060405180830381600087803b1580156200025d57600080fd5b505af115801562000272573d6000803e3d6000fd5b50505050505062000342565b600080546001600160a01b038381166001600160a01b0319831681178455604051919092169283917f8be0079c531659141344cd1fd0a4f28419497f9722a3daafe3b4186f6b6457e09190a35050565b611bca8062005aff83390190565b610c2480620076c983390190565b6001600160a01b03811681146200030057600080fd5b50565b600080604083850312156200031757600080fd5b82516200032481620002ea565b60208401519092506200033781620002ea565b809150509250929050565b60805160a051615789620003766000396000818161022601526108c00152600081816103b8015261087d01526157896000f3fe60806040523480156200001157600080fd5b5060043610620001895760003560e01c80638ccf2e9a11620000dd578063a7cd2a95116200008b578063b1a9069c116200006e578063b1a9069c14620003b2578063ca5b9ec514620003da578063f2fde38b14620003f157600080fd5b8063a7cd2a951462000384578063aa5220f8146200039b57600080fd5b80639d10ab8a11620000c05780639d10ab8a146200031d5780639e06e7ed1462000334578063a4063dbc146200034b57600080fd5b80638ccf2e9a14620002e75780638da5cb5b14620002fe57600080fd5b8063715018a6116200013b57806387cc5f79116200011e57806387cc5f79146200027857806389ce1a3114620002af5780638bc1437b14620002c657600080fd5b8063715018a614620002485780638142fc3e146200025257600080fd5b8063558d9f181162000170578063558d9f1814620001f25780636bacd59314620002095780636eeeaaa5146200022057600080fd5b80632ce8cfbf146200018e5780634d420cf514620001a7575b600080fd5b620001a56200019f36600462001819565b62000408565b005b600654620001c89073ffffffffffffffffffffffffffffffffffffffff1681565b60405173ffffffffffffffffffffffffffffffffffffffff90911681526020015b60405180910390f35b620001a56200020336600462001940565b6200069a565b620001a56200021a36600462001a40565b62000861565b620001c87f000000000000000000000000000000000000000000000000000000000000000081565b620001a562000a98565b620002696200026336600462001819565b62000ab0565b604051620001e9919062001b1b565b6200029e6200028936600462001b63565b60036020526000908152604090205460ff1681565b6040519015158152602001620001e9565b620001a5620002c036600462001940565b62000b9c565b600554620001c89073ffffffffffffffffffffffffffffffffffffffff1681565b620001a5620002f836600462001b83565b62000c33565b60005473ffffffffffffffffffffffffffffffffffffffff16620001c8565b620001c86200032e36600462001bbe565b62000e9f565b620001a56200034536600462001be7565b62000ed7565b620001c86200035c36600462001b63565b60016020526000908152604090205473ffffffffffffffffffffffffffffffffffffffff1681565b620001a56200039536600462001c39565b62000f90565b620001a5620003ac36600462001c9a565b620012bf565b620001c87f000000000000000000000000000000000000000000000000000000000000000081565b620001a5620003eb36600462001d10565b62001461565b620001a56200040236600462001b63565b620014e1565b73ffffffffffffffffffffffffffffffffffffffff81811660009081526001602052604090205416620004c2576040517f08c379a000000000000000000000000000000000000000000000000000000000815260206004820152603a60248201527f4e6f206578706f737572652f726576656e7565206661726d696e6720706f6f6c60448201527f20666f722074686520676976656e20455243323020546f6b656e00000000000060648201526084015b60405180910390fd5b60005b8251811015620006955760036000848381518110620004e857620004e862001d43565b60209081029190910181015173ffffffffffffffffffffffffffffffffffffffff1682528101919091526040016000205460ff16620005aa576040517f08c379a000000000000000000000000000000000000000000000000000000000815260206004820152602b60248201527f4f70734d616e616765723a20696e76616c69642f696e6163746976652076617560448201527f6c7420696e2061727261790000000000000000000000000000000000000000006064820152608401620004b9565b73__$c588408e34393e9644b73b59296e6d3047$__63789654b9848381518110620005d957620005d962001d43565b60209081029190910181015173ffffffffffffffffffffffffffffffffffffffff8681166000908152600190935260409283902054925160e085901b7fffffffff00000000000000000000000000000000000000000000000000000000168152918116600483015291909116602482015260440160006040518083038186803b1580156200066657600080fd5b505af41580156200067b573d6000803e3d6000fd5b5050505080806200068c9062001d72565b915050620004c5565b505050565b620006a46200159e565b805182511462000737576040517f08c379a000000000000000000000000000000000000000000000000000000000815260206004820152603360248201527f4578706f737572657320616e6420616d6f756e7473206172726179206d75737460448201527f206265207468652073616d65206c656e677468000000000000000000000000006064820152608401620004b9565b60005b82518110156200069557600160008483815181106200075d576200075d62001d43565b602002602001015173ffffffffffffffffffffffffffffffffffffffff1673ffffffffffffffffffffffffffffffffffffffff16815260200190815260200160002060009054906101000a900473ffffffffffffffffffffffffffffffffffffffff1673ffffffffffffffffffffffffffffffffffffffff166363ec512d838381518110620007f057620007f062001d43565b60200260200101516040518263ffffffff1660e01b81526004016200081791815260200190565b600060405180830381600087803b1580156200083257600080fd5b505af115801562000847573d6000803e3d6000fd5b505050508080620008589062001d72565b9150506200073a565b6200086b6200159e565b600554600654604051600092899289927f00000000000000000000000000000000000000000000000000000000000000009273ffffffffffffffffffffffffffffffffffffffff9081169216908a908a908a907f0000000000000000000000000000000000000000000000000000000000000000908b90620008ed9062001696565b620009029a9998979695949392919062001e38565b604051809103906000f0801580156200091f573d6000803e3d6000fd5b5073ffffffffffffffffffffffffffffffffffffffff81811660008181526003602052604080822080547fffffffffffffffffffffffffffffffffffffffffffffffffffffffffffffff00166001908117909155600480548083018255938190527f8a35acfbc15ff81a39ae7d344fd709f28e8600b4aa8c65c6b64bfe7fe36bd19b90930180547fffffffffffffffffffffffff0000000000000000000000000000000000000000168517905560055491517fa746f93a000000000000000000000000000000000000000000000000000000008152928301939093526024820192909252929350169063a746f93a90604401600060405180830381600087803b15801562000a2c57600080fd5b505af115801562000a41573d6000803e3d6000fd5b505060405173ffffffffffffffffffffffffffffffffffffffff841681527ff7d22e822fc5be306576f8f850c78d7957f332e493ceffa7ef2714b4e44aceac9250602001905060405180910390a150505050505050565b62000aa26200159e565b62000aae600062001621565b565b73ffffffffffffffffffffffffffffffffffffffff808216600090815260016020526040908190205490517f1e2e006500000000000000000000000000000000000000000000000000000000815260609273__$c588408e34393e9644b73b59296e6d3047$__92631e2e00659262000b2f928892169060040162001ecb565b600060405180830381865af415801562000b4d573d6000803e3d6000fd5b505050506040513d6000823e601f3d9081017fffffffffffffffffffffffffffffffffffffffffffffffffffffffffffffffe016820160405262000b95919081019062001f44565b9392505050565b62000ba66200159e565b6040517fc5f0b11600000000000000000000000000000000000000000000000000000000815273__$c588408e34393e9644b73b59296e6d3047$__9063c5f0b1169062000bfd908590859060019060040162001fe9565b60006040518083038186803b15801562000c1657600080fd5b505af415801562000c2b573d6000803e3d6000fd5b505050505050565b62000c3d6200159e565b805182511462000cd0576040517f08c379a000000000000000000000000000000000000000000000000000000000815260206004820152603060248201527f7661756c747320616e6420616d6f756e7473206172726179206d75737420626560448201527f207468652073616d65206c656e677468000000000000000000000000000000006064820152608401620004b9565b60005b825181101562000695576003600084838151811062000cf65762000cf662001d43565b60209081029190910181015173ffffffffffffffffffffffffffffffffffffffff1682528101919091526040016000205460ff1662000db8576040517f08c379a000000000000000000000000000000000000000000000000000000000815260206004820152602260248201527f4f70734d616e616765723a20696e76616c6964207661756c7420696e2061727260448201527f61790000000000000000000000000000000000000000000000000000000000006064820152608401620004b9565b600554835173ffffffffffffffffffffffffffffffffffffffff909116906340c10f199085908490811062000df15762000df162001d43565b602002602001015184848151811062000e0e5762000e0e62001d43565b60200260200101516040518363ffffffff1660e01b815260040162000e5592919073ffffffffffffffffffffffffffffffffffffffff929092168252602082015260400190565b600060405180830381600087803b15801562000e7057600080fd5b505af115801562000e85573d6000803e3d6000fd5b50505050808062000e969062001d72565b91505062000cd3565b6002818154811062000eb057600080fd5b60009182526020909120015473ffffffffffffffffffffffffffffffffffffffff16905081565b62000ee16200159e565b6040517f0a1d273e0000000000000000000000000000000000000000000000000000000081526001600482015273ffffffffffffffffffffffffffffffffffffffff808516602483015283166044820152811515606482015273__$c588408e34393e9644b73b59296e6d3047$__90630a1d273e9060840160006040518083038186803b15801562000f7257600080fd5b505af415801562000f87573d6000803e3d6000fd5b50505050505050565b62000f9a6200159e565b6000815167ffffffffffffffff81111562000fb95762000fb9620016a4565b60405190808252806020026020018201604052801562000fe3578160200160208202803683370190505b50905060005b82518110156200112f57600160008483815181106200100c576200100c62001d43565b602002602001015173ffffffffffffffffffffffffffffffffffffffff1673ffffffffffffffffffffffffffffffffffffffff16815260200190815260200160002060009054906101000a900473ffffffffffffffffffffffffffffffffffffffff1673ffffffffffffffffffffffffffffffffffffffff1663ebf7a41e6040518163ffffffff1660e01b8152600401602060405180830381865afa158015620010ba573d6000803e3d6000fd5b505050506040513d601f19601f82011682018060405250810190620010e0919062002087565b828281518110620010f557620010f562001d43565b73ffffffffffffffffffffffffffffffffffffffff9092166020928302919091019091015280620011268162001d72565b91505062000fe9565b5060005b8351811015620012b9576003600085838151811062001156576200115662001d43565b60209081029190910181015173ffffffffffffffffffffffffffffffffffffffff1682528101919091526040016000205460ff1662001218576040517f08c379a000000000000000000000000000000000000000000000000000000000815260206004820152602260248201527f4f70734d616e616765723a20696e76616c6964207661756c7420696e2061727260448201527f61790000000000000000000000000000000000000000000000000000000000006064820152608401620004b9565b8381815181106200122d576200122d62001d43565b602002602001015173ffffffffffffffffffffffffffffffffffffffff16636823920a836040518263ffffffff1660e01b81526004016200126f9190620020a7565b600060405180830381600087803b1580156200128a57600080fd5b505af11580156200129f573d6000803e3d6000fd5b505050508080620012b09062001d72565b91505062001133565b50505050565b620012c96200159e565b73ffffffffffffffffffffffffffffffffffffffff8181166000908152600160205260409020541615620012fc57600080fd5b6040517f02fab49800000000000000000000000000000000000000000000000000000000815260009073__$c588408e34393e9644b73b59296e6d3047$__906302fab498906200135890879087908790600190600401620020f7565b602060405180830381865af415801562001376573d6000803e3d6000fd5b505050506040513d601f19601f820116820180604052508101906200139c919062002087565b6002805460018082019092557f405787fa12a823e0f2b7631cc41b3ba8828b3321ca811111fa75cd3aa3bb5ace0180547fffffffffffffffffffffffff00000000000000000000000000000000000000001673ffffffffffffffffffffffffffffffffffffffff8681169182179092556000908152602092835260409081902054815185841681529216928201929092529192507f390f4da03f9e74fca8b97195d2227fcc77f077755b8b358e42782b69c5faeb36910160405180910390a150505050565b6200146b6200159e565b6040517ffead81f00000000000000000000000000000000000000000000000000000000081526001600482015273ffffffffffffffffffffffffffffffffffffffff80841660248301528216604482015273__$c588408e34393e9644b73b59296e6d3047$__9063fead81f09060640162000bfd565b620014eb6200159e565b73ffffffffffffffffffffffffffffffffffffffff811662001590576040517f08c379a000000000000000000000000000000000000000000000000000000000815260206004820152602660248201527f4f776e61626c653a206e6577206f776e657220697320746865207a65726f206160448201527f64647265737300000000000000000000000000000000000000000000000000006064820152608401620004b9565b6200159b8162001621565b50565b60005473ffffffffffffffffffffffffffffffffffffffff16331462000aae576040517f08c379a000000000000000000000000000000000000000000000000000000000815260206004820181905260248201527f4f776e61626c653a2063616c6c6572206973206e6f7420746865206f776e65726044820152606401620004b9565b6000805473ffffffffffffffffffffffffffffffffffffffff8381167fffffffffffffffffffffffff0000000000000000000000000000000000000000831681178455604051919092169283917f8be0079c531659141344cd1fd0a4f28419497f9722a3daafe3b4186f6b6457e09190a35050565b613609806200214b83390190565b7f4e487b7100000000000000000000000000000000000000000000000000000000600052604160045260246000fd5b6040805190810167ffffffffffffffff81118282101715620016f957620016f9620016a4565b60405290565b604051601f82017fffffffffffffffffffffffffffffffffffffffffffffffffffffffffffffffe016810167ffffffffffffffff81118282101715620017495762001749620016a4565b604052919050565b600067ffffffffffffffff8211156200176e576200176e620016a4565b5060051b60200190565b73ffffffffffffffffffffffffffffffffffffffff811681146200159b57600080fd5b600082601f830112620017ad57600080fd5b81356020620017c6620017c08362001751565b620016ff565b82815260059290921b84018101918181019086841115620017e657600080fd5b8286015b848110156200180e578035620018008162001778565b8352918301918301620017ea565b509695505050505050565b600080604083850312156200182d57600080fd5b823567ffffffffffffffff8111156200184557600080fd5b62001853858286016200179b565b9250506020830135620018668162001778565b809150509250929050565b600082601f8301126200188357600080fd5b8135602062001896620017c08362001751565b82815260059290921b84018101918181019086841115620018b657600080fd5b8286015b848110156200180e578035620018d08162001778565b8352918301918301620018ba565b600082601f830112620018f057600080fd5b8135602062001903620017c08362001751565b82815260059290921b840181019181810190868411156200192357600080fd5b8286015b848110156200180e578035835291830191830162001927565b600080604083850312156200195457600080fd5b823567ffffffffffffffff808211156200196d57600080fd5b6200197b8683870162001871565b935060208501359150808211156200199257600080fd5b50620019a185828601620018de565b9150509250929050565b600082601f830112620019bd57600080fd5b813567ffffffffffffffff811115620019da57620019da620016a4565b62001a0d60207fffffffffffffffffffffffffffffffffffffffffffffffffffffffffffffffe0601f84011601620016ff565b81815284602083860101111562001a2357600080fd5b816020850160208301376000918101602001919091529392505050565b60008060008060008086880360e081121562001a5b57600080fd5b873567ffffffffffffffff8082111562001a7457600080fd5b62001a828b838c01620019ab565b985060208a013591508082111562001a9957600080fd5b5062001aa88a828b01620019ab565b965050604088013594506060880135935060407fffffffffffffffffffffffffffffffffffffffffffffffffffffffffffffff808201121562001aea57600080fd5b5062001af5620016d3565b6080880135815260a088013560208201528092505060c087013590509295509295509295565b6020808252825182820181905260009190848201906040850190845b8181101562001b5757835115158352928401929184019160010162001b37565b50909695505050505050565b60006020828403121562001b7657600080fd5b813562000b958162001778565b6000806040838503121562001b9757600080fd5b823567ffffffffffffffff8082111562001bb057600080fd5b6200197b868387016200179b565b60006020828403121562001bd157600080fd5b5035919050565b80151581146200159b57600080fd5b60008060006060848603121562001bfd57600080fd5b833562001c0a8162001778565b9250602084013562001c1c8162001778565b9150604084013562001c2e8162001bd8565b809150509250925092565b6000806040838503121562001c4d57600080fd5b823567ffffffffffffffff8082111562001c6657600080fd5b62001c74868387016200179b565b9350602085013591508082111562001c8b57600080fd5b50620019a18582860162001871565b60008060006060848603121562001cb057600080fd5b833567ffffffffffffffff8082111562001cc957600080fd5b62001cd787838801620019ab565b9450602086013591508082111562001cee57600080fd5b5062001cfd86828701620019ab565b925050604084013562001c2e8162001778565b6000806040838503121562001d2457600080fd5b823562001d318162001778565b91506020830135620018668162001778565b7f4e487b7100000000000000000000000000000000000000000000000000000000600052603260045260246000fd5b60007fffffffffffffffffffffffffffffffffffffffffffffffffffffffffffffffff820362001dcb577f4e487b7100000000000000000000000000000000000000000000000000000000600052601160045260246000fd5b5060010190565b6000815180845260005b8181101562001dfa5760208185018101518683018201520162001ddc565b5060006020828601015260207fffffffffffffffffffffffffffffffffffffffffffffffffffffffffffffffe0601f83011685010191505092915050565b600061016080835262001e4e8184018e62001dd2565b9050828103602084015262001e64818d62001dd2565b73ffffffffffffffffffffffffffffffffffffffff9b8c166040850152998b1660608401525050958816608087015260a086019490945260c0850192909252805160e085015260200151610100840152909316610120820152610140019190915292915050565b604080825283519082018190526000906020906060840190828701845b8281101562001f1c57815173ffffffffffffffffffffffffffffffffffffffff168452928401929084019060010162001ee8565b50505073ffffffffffffffffffffffffffffffffffffffff9490941692019190915250919050565b6000602080838503121562001f5857600080fd5b825167ffffffffffffffff81111562001f7057600080fd5b8301601f8101851362001f8257600080fd5b805162001f93620017c08262001751565b81815260059190911b8201830190838101908783111562001fb357600080fd5b928401925b8284101562001fde57835162001fce8162001bd8565b8252928401929084019062001fb8565b979650505050505050565b606080825284519082018190526000906020906080840190828801845b828110156200203a57815173ffffffffffffffffffffffffffffffffffffffff168452928401929084019060010162002006565b5050508381038285015285518082528683019183019060005b81811015620020715783518352928401929184019160010162002053565b5050809350505050826040830152949350505050565b6000602082840312156200209a57600080fd5b815162000b958162001778565b6020808252825182820181905260009190848201906040850190845b8181101562001b5757835173ffffffffffffffffffffffffffffffffffffffff1683529284019291840191600101620020c3565b6080815260006200210c608083018762001dd2565b828103602084015262002120818762001dd2565b73ffffffffffffffffffffffffffffffffffffffff9590951660408401525050606001529291505056fe6102606040527f826f68b7f2dc717b262281384d6e69ddaba3805f6e37a8c771db2cc5d6ba4013610160523480156200003757600080fd5b5060405162003609380380620036098339810160408190526200005a91620003b3565b6040805180820190915260018152603160f81b60208201528a908a90829062000085826000620001a0565b6101205262000096816001620001a0565b61014052815160208084019190912060e052815190820120610100524660a0526200012460e05161010051604080517f8b73c3c69bb8fe3d512ecc4cf759cc79239f7b179b0ffacaa9a75d522b39400f60208201529081019290925260608201524660808201523060a082015260009060c00160405160208183030381529060405280519060200120905090565b60805250503060c0526200013833620001d9565b600662000146838262000529565b50600762000155828262000529565b5050506001600160a01b03978816610180529587166101a0529386166101c05261020092909252610220528051600b5560200151600c55909116610240526101e052506200064f9050565b6000602083511015620001c057620001b8836200022b565b9050620001d3565b81620001cd848262000529565b5060ff90505b92915050565b600280546001600160a01b038381166001600160a01b0319831681179093556040519116919082907f8be0079c531659141344cd1fd0a4f28419497f9722a3daafe3b4186f6b6457e090600090a35050565b600080829050601f8151111562000262578260405163305a27a960e01b8152600401620002599190620005f5565b60405180910390fd5b80516200026f826200062a565b179392505050565b634e487b7160e01b600052604160045260246000fd5b60005b83811015620002aa57818101518382015260200162000290565b50506000910152565b600082601f830112620002c557600080fd5b81516001600160401b0380821115620002e257620002e262000277565b604051601f8301601f19908116603f011681019082821181831017156200030d576200030d62000277565b816040528381528660208588010111156200032757600080fd5b6200033a8460208301602089016200028d565b9695505050505050565b80516001600160a01b03811681146200035c57600080fd5b919050565b6000604082840312156200037457600080fd5b604080519081016001600160401b038111828210171562000399576200039962000277565b604052825181526020928301519281019290925250919050565b6000806000806000806000806000806101608b8d031215620003d457600080fd5b8a516001600160401b0380821115620003ec57600080fd5b620003fa8e838f01620002b3565b9b5060208d01519150808211156200041157600080fd5b50620004208d828e01620002b3565b9950506200043160408c0162000344565b97506200044160608c0162000344565b96506200045160808c0162000344565b955060a08b0151945060c08b01519350620004708c60e08d0162000361565b9250620004816101208c0162000344565b91506101408b015190509295989b9194979a5092959850565b600181811c90821680620004af57607f821691505b602082108103620004d057634e487b7160e01b600052602260045260246000fd5b50919050565b601f8211156200052457600081815260208120601f850160051c81016020861015620004ff5750805b601f850160051c820191505b8181101562000520578281556001016200050b565b5050505b505050565b81516001600160401b0381111562000545576200054562000277565b6200055d816200055684546200049a565b84620004d6565b602080601f8311600181146200059557600084156200057c5750858301515b600019600386901b1c1916600185901b17855562000520565b600085815260208120601f198616915b82811015620005c657888601518255948401946001909101908401620005a5565b5085821015620005e55787850151600019600388901b60f8161c191681555b5050505050600190811b01905550565b6020815260008251806020840152620006168160408501602087016200028d565b601f01601f19169190910160400192915050565b80516020808301519190811015620004d05760001960209190910360031b1b16919050565b60805160a05160c05160e05161010051610120516101405161016051610180516101a0516101c0516101e051610200516102205161024051612e97620007726000396000818161047d0152610aed0152600081816106d90152610f500152600081816105f601528181610abe01528181610ef50152610f9501526000818161042601528181610a9801528181610ec401528181610f190152610f7101526000818161069f0152610c6401526000818161052601528181610cbe0152818161106a0152818161120f01526115f20152600081816105cf0152610c420152600081816104ff015261076e0152600061115b0152600061113101526000611e9301526000611e6b01526000611dc601526000611df001526000611e1a0152612e976000f3fe608060405234801561001057600080fd5b50600436106102de5760003560e01c8063715018a611610186578063a9059cbb116100e3578063b9844d8d11610097578063e1eda8f911610071578063e1eda8f91461069a578063f2fde38b146106c1578063fc1d3de2146106d457600080fd5b8063b9844d8d1461062b578063bca8371f1461064b578063dd62ed3e1461065457600080fd5b8063b1a9069c116100c8578063b1a9069c146105ca578063b470aade146105f1578063b6b55f251461061857600080fd5b8063a9059cbb146105a4578063b0ff1106146105b757600080fd5b806384b0196e1161013a57806395d89b411161011f57806395d89b4114610581578063981fc37214610589578063a457c2d71461059157600080fd5b806384b0196e146105485780638da5cb5b1461056357600080fd5b80637ecebe001161016b5780637ecebe00146104e757806381771329146104fa57806382dad8ac1461052157600080fd5b8063715018a6146104d75780637c5a227c146104df57600080fd5b80633644e5151161023f5780634473ad52116101f35780636b2f1417116101cd5780636b2f14171461045b5780636eeeaaa51461047857806370a08231146104c457600080fd5b80634473ad521461040157806363ceec65146104215780636823920a1461044857600080fd5b80633a98ef39116102245780633a98ef39146103e85780633d355f76146103f157806341ffb72e146103f957600080fd5b80633644e515146103cd57806339509351146103d557600080fd5b806323b872dd116102965780632f4f21e21161027b5780632f4f21e214610388578063313ce5671461039b578063341533d9146103aa57600080fd5b806323b872dd146103625780632e1a7d4d1461037557600080fd5b8063095ea7b3116102c7578063095ea7b314610316578063174e4ea61461033957806318160ddd1461035a57600080fd5b8063061e5844146102e357806306fdde03146102f8575b600080fd5b6102f66102f13660046128e0565b6106fb565b005b6103006108bd565b60405161030d91906129b0565b60405180910390f35b6103296103243660046129c3565b61094f565b604051901515815260200161030d565b61034c6103473660046129ef565b610969565b60405190815260200161030d565b61034c610998565b610329610370366004612a08565b6109aa565b6102f66103833660046129ef565b6109ce565b6102f66103963660046129c3565b6109dc565b6040516012815260200161030d565b600b54600c546103b8919082565b6040805192835260208301919091520161030d565b61034c610d8e565b6103296103e33660046129c3565b610d98565b61034c60085481565b610329610de4565b610329610df6565b61034c61040f366004612a49565b60096020526000908152604090205481565b61034c7f000000000000000000000000000000000000000000000000000000000000000081565b6102f6610456366004612aa5565b610e1b565b610463610ebf565b6040805192835290151560208301520161030d565b61049f7f000000000000000000000000000000000000000000000000000000000000000081565b60405173ffffffffffffffffffffffffffffffffffffffff909116815260200161030d565b61034c6104d2366004612a49565b610fdf565b6102f661100e565b6103b8611022565b61034c6104f5366004612a49565b6110f8565b61034c7f000000000000000000000000000000000000000000000000000000000000000081565b61049f7f000000000000000000000000000000000000000000000000000000000000000081565b610550611123565b60405161030d9796959493929190612b88565b60025473ffffffffffffffffffffffffffffffffffffffff1661049f565b6103006111c7565b61034c6111d6565b61032961059f3660046129c3565b6112a3565b6103296105b23660046129c3565b611374565b61034c6105c53660046129ef565b611382565b61049f7f000000000000000000000000000000000000000000000000000000000000000081565b61034c7f000000000000000000000000000000000000000000000000000000000000000081565b6102f66106263660046129ef565b61139f565b61034c610639366004612a49565b600a6020526000908152604090205481565b61034c61012c81565b61034c610662366004612c47565b73ffffffffffffffffffffffffffffffffffffffff918216600090815260046020908152604080832093909416825291909152205490565b61049f7f000000000000000000000000000000000000000000000000000000000000000081565b6102f66106cf366004612a49565b6113a9565b61034c7f000000000000000000000000000000000000000000000000000000000000000081565b8342111561076a576040517f08c379a000000000000000000000000000000000000000000000000000000000815260206004820152601760248201527f5661756c743a206578706972656420646561646c696e6500000000000000000060448201526064015b60405180910390fd5b60007f00000000000000000000000000000000000000000000000000000000000000008733888861079a8c61145d565b60408051602081019790975273ffffffffffffffffffffffffffffffffffffffff95861690870152939092166060850152608084015260a083015260c082015260e001604051602081830303815290604052805190602001209050600061080082611492565b90506000610810828787876114da565b90508873ffffffffffffffffffffffffffffffffffffffff168173ffffffffffffffffffffffffffffffffffffffff16146108a7576040517f08c379a000000000000000000000000000000000000000000000000000000000815260206004820152601860248201527f5661756c743a20696e76616c6964207369676e617475726500000000000000006044820152606401610761565b6108b289338a611502565b505050505050505050565b6060600680546108cc90612c80565b80601f01602080910402602001604051908101604052809291908181526020018280546108f890612c80565b80156109455780601f1061091a57610100808354040283529160200191610945565b820191906000526020600020905b81548152906001019060200180831161092857829003601f168201915b5050505050905090565b60003361095d8185856116a3565b60019150505b92915050565b6000806000610976611022565b9092509050806109868386612cfc565b6109909190612d13565b949350505050565b60006109a5600854610969565b905090565b6000336109b8858285611857565b6109c385858561192e565b506001949350505050565b6109d9333383611502565b50565b6109e4610de4565b610a70576040517f08c379a000000000000000000000000000000000000000000000000000000000815260206004820152603a60248201527f5661756c743a2043616e6e6f74206a6f696e207661756c74207768656e206f7560448201527f7473696465206f6620656e7465722f657869742077696e646f770000000000006064820152608401610761565b6040517f07e7cc270000000000000000000000000000000000000000000000000000000081527f000000000000000000000000000000000000000000000000000000000000000060048201527f000000000000000000000000000000000000000000000000000000000000000060248201523060448201526000907f000000000000000000000000000000000000000000000000000000000000000073ffffffffffffffffffffffffffffffffffffffff16906307e7cc2790606401602060405180830381865afa158015610b49573d6000803e3d6000fd5b505050506040513d601f19601f82011682018060405250810190610b6d9190612d4e565b90506000670de0b6b3a7640000610b848385612cfc565b610b8e9190612d13565b9050808311610c1f576040517f08c379a000000000000000000000000000000000000000000000000000000000815260206004820152603160248201527f5661756c743a2043616e6e6f74206a6f696e207768656e20666565206973206860448201527f6967686572207468616e20616d6f756e740000000000000000000000000000006064820152608401610761565b6000610c2b8285612d67565b90508315610d3057610c3d8582611bf1565b610c897f0000000000000000000000000000000000000000000000000000000000000000337f000000000000000000000000000000000000000000000000000000000000000087611d17565b6040517f40c10f19000000000000000000000000000000000000000000000000000000008152306004820152602481018590527f000000000000000000000000000000000000000000000000000000000000000073ffffffffffffffffffffffffffffffffffffffff16906340c10f1990604401600060405180830381600087803b158015610d1757600080fd5b505af1158015610d2b573d6000803e3d6000fd5b505050505b6040805173ffffffffffffffffffffffffffffffffffffffff87168152602081018690529081018290527f90890809c654f11d6e72a28fa60149770a0d11ec6c92319d6ceb2bb0a4ea1a159060600160405180910390a15050505050565b60006109a5611dac565b33600081815260046020908152604080832073ffffffffffffffffffffffffffffffffffffffff8716845290915281205490919061095d9082908690610ddf908790612d7a565b6116a3565b600080610def610ebf565b9392505050565b6000806000610e03610ebf565b91509150808015610e145750600082115b9250505090565b610e23611ee4565b60005b8151811015610ebb57818181518110610e4157610e41612d8d565b602002602001015173ffffffffffffffffffffffffffffffffffffffff1663be040fb06040518163ffffffff1660e01b8152600401600060405180830381600087803b158015610e9057600080fd5b505af1158015610ea4573d6000803e3d6000fd5b505050508080610eb390612dbc565b915050610e26565b5050565b6000807f0000000000000000000000000000000000000000000000000000000000000000421015610ef35750600091829150565b7f0000000000000000000000000000000000000000000000000000000000000000610f3e7f000000000000000000000000000000000000000000000000000000000000000042612d67565b610f489190612d13565b91504261012c7f00000000000000000000000000000000000000000000000000000000000000007f0000000000000000000000000000000000000000000000000000000000000000610fba7f000000000000000000000000000000000000000000000000000000000000000087612cfc565b610fc49190612d7a565b610fce9190612d7a565b610fd89190612d7a565b1190509091565b73ffffffffffffffffffffffffffffffffffffffff811660009081526009602052604081205461096390610969565b611016611ee4565b6110206000611f65565b565b6040517f70a08231000000000000000000000000000000000000000000000000000000008152306004820152600090819073ffffffffffffffffffffffffffffffffffffffff7f000000000000000000000000000000000000000000000000000000000000000016906370a0823190602401602060405180830381865afa1580156110b1573d6000803e3d6000fd5b505050506040513d601f19601f820116820180604052508101906110d59190612d4e565b91506008549050816000036110e957600191505b806000036110f45750805b9091565b73ffffffffffffffffffffffffffffffffffffffff81166000908152600a6020526040812054610963565b6000606080828080836111567f000000000000000000000000000000000000000000000000000000000000000083611fdc565b6111817f00000000000000000000000000000000000000000000000000000000000000006001611fdc565b604080516000808252602082019092527f0f000000000000000000000000000000000000000000000000000000000000009b939a50919850469750309650945092509050565b6060600780546108cc90612c80565b600c54600b546040517f70a0823100000000000000000000000000000000000000000000000000000000815230600482015260009291907f000000000000000000000000000000000000000000000000000000000000000073ffffffffffffffffffffffffffffffffffffffff16906370a0823190602401602060405180830381865afa15801561126b573d6000803e3d6000fd5b505050506040513d601f19601f8201168201806040525081019061128f9190612d4e565b6112999190612cfc565b6109a59190612d13565b33600081815260046020908152604080832073ffffffffffffffffffffffffffffffffffffffff8716845290915281205490919083811015611367576040517f08c379a000000000000000000000000000000000000000000000000000000000815260206004820152602560248201527f45524332303a2064656372656173656420616c6c6f77616e63652062656c6f7760448201527f207a65726f0000000000000000000000000000000000000000000000000000006064820152608401610761565b6109c382868684036116a3565b60003361095d81858561192e565b600080600061138f611022565b9092509050816109868286612cfc565b6109d933826109dc565b6113b1611ee4565b73ffffffffffffffffffffffffffffffffffffffff8116611454576040517f08c379a000000000000000000000000000000000000000000000000000000000815260206004820152602660248201527f4f776e61626c653a206e6577206f776e657220697320746865207a65726f206160448201527f64647265737300000000000000000000000000000000000000000000000000006064820152608401610761565b6109d981611f65565b73ffffffffffffffffffffffffffffffffffffffff81166000908152600a602052604090208054600181018255905b50919050565b600061096361149f611dac565b836040517f19010000000000000000000000000000000000000000000000000000000000008152600281019290925260228201526042902090565b60008060006114eb87878787612087565b915091506114f881612176565b5095945050505050565b61150a610df6565b611596576040517f08c379a000000000000000000000000000000000000000000000000000000000815260206004820152603a60248201527f5661756c743a2043616e6e6f742065786974207661756c74207768656e206f7560448201527f7473696465206f6620656e7465722f657869742077696e646f770000000000006064820152608401610761565b80156115a6576115a68382612329565b6040517f982755930000000000000000000000000000000000000000000000000000000081526004810182905273ffffffffffffffffffffffffffffffffffffffff83811660248301527f00000000000000000000000000000000000000000000000000000000000000001690639827559390604401600060405180830381600087803b15801561163657600080fd5b505af115801561164a573d6000803e3d6000fd5b50506040805173ffffffffffffffffffffffffffffffffffffffff87168152602081018590527f884edad9ce6fa2440d8a54cc123490eb96d2768479d49ff9c7366125a9424364935001905060405180910390a1505050565b73ffffffffffffffffffffffffffffffffffffffff8316611745576040517f08c379a0000000000000000000000000000000000000000000000000000000008152602060048201526024808201527f45524332303a20617070726f76652066726f6d20746865207a65726f2061646460448201527f72657373000000000000000000000000000000000000000000000000000000006064820152608401610761565b73ffffffffffffffffffffffffffffffffffffffff82166117e8576040517f08c379a000000000000000000000000000000000000000000000000000000000815260206004820152602260248201527f45524332303a20617070726f766520746f20746865207a65726f20616464726560448201527f73730000000000000000000000000000000000000000000000000000000000006064820152608401610761565b73ffffffffffffffffffffffffffffffffffffffff83811660008181526004602090815260408083209487168084529482529182902085905590518481527f8c5be1e5ebec7d5bd14f71427d1e84f3dd0314c0f7b2291e5b200ac8c7c3b92591015b60405180910390a3505050565b73ffffffffffffffffffffffffffffffffffffffff8381166000908152600460209081526040808320938616835292905220547fffffffffffffffffffffffffffffffffffffffffffffffffffffffffffffffff8114611928578181101561191b576040517f08c379a000000000000000000000000000000000000000000000000000000000815260206004820152601d60248201527f45524332303a20696e73756666696369656e7420616c6c6f77616e63650000006044820152606401610761565b61192884848484036116a3565b50505050565b73ffffffffffffffffffffffffffffffffffffffff83166119d1576040517f08c379a000000000000000000000000000000000000000000000000000000000815260206004820152602560248201527f45524332303a207472616e736665722066726f6d20746865207a65726f20616460448201527f64726573730000000000000000000000000000000000000000000000000000006064820152608401610761565b73ffffffffffffffffffffffffffffffffffffffff8216611a74576040517f08c379a000000000000000000000000000000000000000000000000000000000815260206004820152602360248201527f45524332303a207472616e7366657220746f20746865207a65726f206164647260448201527f65737300000000000000000000000000000000000000000000000000000000006064820152608401610761565b73ffffffffffffffffffffffffffffffffffffffff831660009081526009602052604081205490611aa483611382565b905080821015611b36576040517f08c379a000000000000000000000000000000000000000000000000000000000815260206004820152602660248201527f45524332303a207472616e7366657220616d6f756e742065786365656473206260448201527f616c616e636500000000000000000000000000000000000000000000000000006064820152608401610761565b73ffffffffffffffffffffffffffffffffffffffff8086166000908152600960205260408082208054859003905591861681529081208054839290611b7c908490612d7a565b925050819055508373ffffffffffffffffffffffffffffffffffffffff168573ffffffffffffffffffffffffffffffffffffffff167fddf252ad1be2c89b69c2b068fc378daa952ba7f163c4a11628f55a4df523b3ef85604051611be291815260200190565b60405180910390a35050505050565b73ffffffffffffffffffffffffffffffffffffffff8216611c6e576040517f08c379a000000000000000000000000000000000000000000000000000000000815260206004820152601f60248201527f45524332303a206d696e7420746f20746865207a65726f2061646472657373006044820152606401610761565b6000611c7982611382565b90508060086000828254611c8d9190612d7a565b909155505073ffffffffffffffffffffffffffffffffffffffff831660009081526009602052604081208054839290611cc7908490612d7a565b909155505060405182815273ffffffffffffffffffffffffffffffffffffffff8416906000907fddf252ad1be2c89b69c2b068fc378daa952ba7f163c4a11628f55a4df523b3ef9060200161184a565b6040805173ffffffffffffffffffffffffffffffffffffffff85811660248301528416604482015260648082018490528251808303909101815260849091019091526020810180517bffffffffffffffffffffffffffffffffffffffffffffffffffffffff167f23b872dd00000000000000000000000000000000000000000000000000000000179052611928908590612523565b60003073ffffffffffffffffffffffffffffffffffffffff7f000000000000000000000000000000000000000000000000000000000000000016148015611e1257507f000000000000000000000000000000000000000000000000000000000000000046145b15611e3c57507f000000000000000000000000000000000000000000000000000000000000000090565b6109a5604080517f8b73c3c69bb8fe3d512ecc4cf759cc79239f7b179b0ffacaa9a75d522b39400f60208201527f0000000000000000000000000000000000000000000000000000000000000000918101919091527f000000000000000000000000000000000000000000000000000000000000000060608201524660808201523060a082015260009060c00160405160208183030381529060405280519060200120905090565b60025473ffffffffffffffffffffffffffffffffffffffff163314611020576040517f08c379a000000000000000000000000000000000000000000000000000000000815260206004820181905260248201527f4f776e61626c653a2063616c6c6572206973206e6f7420746865206f776e65726044820152606401610761565b6002805473ffffffffffffffffffffffffffffffffffffffff8381167fffffffffffffffffffffffff0000000000000000000000000000000000000000831681179093556040519116919082907f8be0079c531659141344cd1fd0a4f28419497f9722a3daafe3b4186f6b6457e090600090a35050565b606060ff8314611ff657611fef83612637565b9050610963565b81805461200290612c80565b80601f016020809104026020016040519081016040528092919081815260200182805461202e90612c80565b801561207b5780601f106120505761010080835404028352916020019161207b565b820191906000526020600020905b81548152906001019060200180831161205e57829003601f168201915b50505050509050610963565b6000807f7fffffffffffffffffffffffffffffff5d576e7357a4501ddfe92f46681b20a08311156120be575060009050600361216d565b6040805160008082526020820180845289905260ff881692820192909252606081018690526080810185905260019060a0016020604051602081039080840390855afa158015612112573d6000803e3d6000fd5b50506040517fffffffffffffffffffffffffffffffffffffffffffffffffffffffffffffffe0015191505073ffffffffffffffffffffffffffffffffffffffff81166121665760006001925092505061216d565b9150600090505b94509492505050565b600081600481111561218a5761218a612df4565b036121925750565b60018160048111156121a6576121a6612df4565b0361220d576040517f08c379a000000000000000000000000000000000000000000000000000000000815260206004820152601860248201527f45434453413a20696e76616c6964207369676e617475726500000000000000006044820152606401610761565b600281600481111561222157612221612df4565b03612288576040517f08c379a000000000000000000000000000000000000000000000000000000000815260206004820152601f60248201527f45434453413a20696e76616c6964207369676e6174757265206c656e677468006044820152606401610761565b600381600481111561229c5761229c612df4565b036109d9576040517f08c379a000000000000000000000000000000000000000000000000000000000815260206004820152602260248201527f45434453413a20696e76616c6964207369676e6174757265202773272076616c60448201527f75650000000000000000000000000000000000000000000000000000000000006064820152608401610761565b73ffffffffffffffffffffffffffffffffffffffff82166123cc576040517f08c379a000000000000000000000000000000000000000000000000000000000815260206004820152602160248201527f45524332303a206275726e2066726f6d20746865207a65726f2061646472657360448201527f73000000000000000000000000000000000000000000000000000000000000006064820152608401610761565b73ffffffffffffffffffffffffffffffffffffffff8216600090815260096020526040812054906123fc83611382565b90508082101561248e576040517f08c379a000000000000000000000000000000000000000000000000000000000815260206004820152602260248201527f45524332303a206275726e20616d6f756e7420657863656564732062616c616e60448201527f63650000000000000000000000000000000000000000000000000000000000006064820152608401610761565b73ffffffffffffffffffffffffffffffffffffffff841660009081526009602052604081208284039055600880548392906124ca908490612d67565b909155505060405183815260009073ffffffffffffffffffffffffffffffffffffffff8616907fddf252ad1be2c89b69c2b068fc378daa952ba7f163c4a11628f55a4df523b3ef9060200160405180910390a350505050565b6000612585826040518060400160405280602081526020017f5361666545524332303a206c6f772d6c6576656c2063616c6c206661696c65648152508573ffffffffffffffffffffffffffffffffffffffff166126769092919063ffffffff16565b90508051600014806125a65750808060200190518101906125a69190612e23565b612632576040517f08c379a000000000000000000000000000000000000000000000000000000000815260206004820152602a60248201527f5361666545524332303a204552433230206f7065726174696f6e20646964206e60448201527f6f742073756363656564000000000000000000000000000000000000000000006064820152608401610761565b505050565b6060600061264483612685565b604080516020808252818301909252919250600091906020820181803683375050509182525060208101929092525090565b606061099084846000856126c6565b600060ff8216601f811115610963576040517fb3512b0c00000000000000000000000000000000000000000000000000000000815260040160405180910390fd5b606082471015612758576040517f08c379a000000000000000000000000000000000000000000000000000000000815260206004820152602660248201527f416464726573733a20696e73756666696369656e742062616c616e636520666f60448201527f722063616c6c00000000000000000000000000000000000000000000000000006064820152608401610761565b6000808673ffffffffffffffffffffffffffffffffffffffff1685876040516127819190612e45565b60006040518083038185875af1925050503d80600081146127be576040519150601f19603f3d011682016040523d82523d6000602084013e6127c3565b606091505b50915091506127d4878383876127df565b979650505050505050565b6060831561287557825160000361286e5773ffffffffffffffffffffffffffffffffffffffff85163b61286e576040517f08c379a000000000000000000000000000000000000000000000000000000000815260206004820152601d60248201527f416464726573733a2063616c6c20746f206e6f6e2d636f6e74726163740000006044820152606401610761565b5081610990565b610990838381511561288a5781518083602001fd5b806040517f08c379a000000000000000000000000000000000000000000000000000000000815260040161076191906129b0565b73ffffffffffffffffffffffffffffffffffffffff811681146109d957600080fd5b60008060008060008060c087890312156128f957600080fd5b8635612904816128be565b95506020870135945060408701359350606087013560ff8116811461292857600080fd5b9598949750929560808101359460a0909101359350915050565b60005b8381101561295d578181015183820152602001612945565b50506000910152565b6000815180845261297e816020860160208601612942565b601f017fffffffffffffffffffffffffffffffffffffffffffffffffffffffffffffffe0169290920160200192915050565b602081526000610def6020830184612966565b600080604083850312156129d657600080fd5b82356129e1816128be565b946020939093013593505050565b600060208284031215612a0157600080fd5b5035919050565b600080600060608486031215612a1d57600080fd5b8335612a28816128be565b92506020840135612a38816128be565b929592945050506040919091013590565b600060208284031215612a5b57600080fd5b8135610def816128be565b7f4e487b7100000000000000000000000000000000000000000000000000000000600052604160045260246000fd5b8035612aa0816128be565b919050565b60006020808385031215612ab857600080fd5b823567ffffffffffffffff80821115612ad057600080fd5b818501915085601f830112612ae457600080fd5b813581811115612af657612af6612a66565b8060051b6040517fffffffffffffffffffffffffffffffffffffffffffffffffffffffffffffffe0603f83011681018181108582111715612b3957612b39612a66565b604052918252848201925083810185019188831115612b5757600080fd5b938501935b82851015612b7c57612b6d85612a95565b84529385019392850192612b5c565b98975050505050505050565b7fff00000000000000000000000000000000000000000000000000000000000000881681526000602060e081840152612bc460e084018a612966565b8381036040850152612bd6818a612966565b6060850189905273ffffffffffffffffffffffffffffffffffffffff8816608086015260a0850187905284810360c0860152855180825283870192509083019060005b81811015612c3557835183529284019291840191600101612c19565b50909c9b505050505050505050505050565b60008060408385031215612c5a57600080fd5b8235612c65816128be565b91506020830135612c75816128be565b809150509250929050565b600181811c90821680612c9457607f821691505b60208210810361148c577f4e487b7100000000000000000000000000000000000000000000000000000000600052602260045260246000fd5b7f4e487b7100000000000000000000000000000000000000000000000000000000600052601160045260246000fd5b808202811582820484141761096357610963612ccd565b600082612d49577f4e487b7100000000000000000000000000000000000000000000000000000000600052601260045260246000fd5b500490565b600060208284031215612d6057600080fd5b5051919050565b8181038181111561096357610963612ccd565b8082018082111561096357610963612ccd565b7f4e487b7100000000000000000000000000000000000000000000000000000000600052603260045260246000fd5b60007fffffffffffffffffffffffffffffffffffffffffffffffffffffffffffffffff8203612ded57612ded612ccd565b5060010190565b7f4e487b7100000000000000000000000000000000000000000000000000000000600052602160045260246000fd5b600060208284031215612e3557600080fd5b81518015158114610def57600080fd5b60008251612e57818460208701612942565b919091019291505056fea26469706673582212208eb65146c9730b3f8a30161afade6d0783f540d14bdd5d5796102ae071443b0364736f6c63430008130033a26469706673582212201ed79cff59d0cdb05956b4ee28fba433ead98413fc84ee1a4e276ab6326cc92364736f6c6343000813003360806040523480156200001157600080fd5b5060405162001bca38038062001bca8339810160408190526200003491620001a0565b828262000041336200008b565b60046200004f8382620002bc565b5060056200005e8282620002bc565b5050600880546001600160a01b0319166001600160a01b0393909316929092179091555062000388915050565b600080546001600160a01b038381166001600160a01b0319831681178455604051919092169283917f8be0079c531659141344cd1fd0a4f28419497f9722a3daafe3b4186f6b6457e09190a35050565b634e487b7160e01b600052604160045260246000fd5b600082601f8301126200010357600080fd5b81516001600160401b0380821115620001205762000120620000db565b604051601f8301601f19908116603f011681019082821181831017156200014b576200014b620000db565b816040528381526020925086838588010111156200016857600080fd5b600091505b838210156200018c57858201830151818301840152908201906200016d565b600093810190920192909252949350505050565b600080600060608486031215620001b657600080fd5b83516001600160401b0380821115620001ce57600080fd5b620001dc87838801620000f1565b94506020860151915080821115620001f357600080fd5b506200020286828701620000f1565b604086015190935090506001600160a01b03811681146200022257600080fd5b809150509250925092565b600181811c908216806200024257607f821691505b6020821081036200026357634e487b7160e01b600052602260045260246000fd5b50919050565b601f821115620002b757600081815260208120601f850160051c81016020861015620002925750805b601f850160051c820191505b81811015620002b3578281556001016200029e565b5050505b505050565b81516001600160401b03811115620002d857620002d8620000db565b620002f081620002e984546200022d565b8462000269565b602080601f8311600181146200032857600084156200030f5750858301515b600019600386901b1c1916600185901b178555620002b3565b600085815260208120601f198616915b82811015620003595788860151825594840194600190910190840162000338565b5085821015620003785787850151600019600388901b60f8161c191681555b5050505050600190811b01905550565b61183280620003986000396000f3fe608060405234801561001057600080fd5b50600436106101da5760003560e01c8063715018a611610104578063a746f93a116100a2578063be040fb011610071578063be040fb014610420578063c2ba474414610428578063dd62ed3e1461044b578063f2fde38b1461049157600080fd5b8063a746f93a146103d4578063a9059cbb146103e7578063ae85d641146103fa578063b0ff11061461040d57600080fd5b80638da5cb5b116100de5780638da5cb5b1461038857806395d89b41146103a657806398275593146103ae578063a457c2d7146103c157600080fd5b8063715018a6146103435780637c5a227c1461034b578063873924e41461036857600080fd5b8063313ce5671161017c5780634046ebae1161014b5780634046ebae146102b857806340c10f19146102fd5780634473ad521461031057806370a082311461033057600080fd5b8063313ce5671461028457806339509351146102935780633a98ef39146102a65780633f3a0c5b146102af57600080fd5b8063095ea7b3116101b8578063095ea7b314610225578063174e4ea61461024857806318160ddd1461026957806323b872dd1461027157600080fd5b8063057ac848146101df578063064c97d6146101f457806306fdde0314610207575b600080fd5b6101f26101ed366004611539565b6104a4565b005b6101f2610202366004611539565b610506565b61020f610560565b60405161021c9190611552565b60405180910390f35b6102386102333660046115e0565b6105f2565b604051901515815260200161021c565b61025b610256366004611539565b61060c565b60405190815260200161021c565b61025b61063b565b61023861027f36600461160c565b61064d565b6040516012815260200161021c565b6102386102a13660046115e0565b610671565b61025b60065481565b61025b60095481565b600b546102d89073ffffffffffffffffffffffffffffffffffffffff1681565b60405173ffffffffffffffffffffffffffffffffffffffff909116815260200161021c565b6101f261030b3660046115e0565b6106bd565b61025b61031e36600461164d565b60076020526000908152604090205481565b61025b61033e36600461164d565b610760565b6101f261078f565b6103536107a3565b6040805192835260208301919091520161021c565b6008546102d89073ffffffffffffffffffffffffffffffffffffffff1681565b60005473ffffffffffffffffffffffffffffffffffffffff166102d8565b61020f6107c6565b6101f26103bc366004611671565b6107d5565b6102386103cf3660046115e0565b610900565b6101f26103e23660046116a1565b6109d1565b6102386103f53660046115e0565b610a60565b6101f261040836600461164d565b610a6e565b61025b61041b366004611539565b610aef565b6101f2610b0c565b61023861043636600461164d565b600a6020526000908152604090205460ff1681565b61025b6104593660046116d4565b73ffffffffffffffffffffffffffffffffffffffff918216600090815260026020908152604080832093909416825291909152205490565b6101f261049f36600461164d565b610b1e565b6104ac610bd5565b6009805490829060006104bf8385611731565b90915550506009546040805183815260208101929092527fa59e96b3c1d252b5b2fd20d08a77732f3af73142db0af5e50ced94b558c7fa0591015b60405180910390a15050565b61050e610bd5565b6009805490829060006105218385611744565b90915550506009546040805183815260208101929092527f307076957a8ce6e01b7d381f303646d1011fb16a9842dfa0859a9eddfd312e4291016104fa565b60606004805461056f90611757565b80601f016020809104026020016040519081016040528092919081815260200182805461059b90611757565b80156105e85780601f106105bd576101008083540402835291602001916105e8565b820191906000526020600020905b8154815290600101906020018083116105cb57829003601f168201915b5050505050905090565b600033610600818585610c56565b60019150505b92915050565b60008060006106196107a3565b90925090508061062983866117aa565b61063391906117c1565b949350505050565b600061064860065461060c565b905090565b60003361065b858285610e0a565b610666858585610ee1565b506001949350505050565b33600081815260026020908152604080832073ffffffffffffffffffffffffffffffffffffffff8716845290915281205490919061060090829086906106b8908790611731565b610c56565b336000908152600a602052604090205460ff1661073b576040517f08c379a000000000000000000000000000000000000000000000000000000000815260206004820152601f60248201527f4578706f737572653a2063616c6c6572206973206e6f742061207661756c740060448201526064015b60405180910390fd5b61074582826111a4565b80600960008282546107579190611731565b90915550505050565b73ffffffffffffffffffffffffffffffffffffffff81166000908152600760205260408120546106069061060c565b610797610bd5565b6107a160006112ca565b565b60095460065460008290036107b757600191505b806000036107c25750805b9091565b60606005805461056f90611757565b6107df338361133f565b81600960008282546107f19190611744565b9091555050600b5473ffffffffffffffffffffffffffffffffffffffff16156108a157600b546040517f4d4c23a80000000000000000000000000000000000000000000000000000000081526004810184905273ffffffffffffffffffffffffffffffffffffffff838116602483015290911690634d4c23a890604401600060405180830381600087803b15801561088857600080fd5b505af115801561089c573d6000803e3d6000fd5b505050505b6008546040805173ffffffffffffffffffffffffffffffffffffffff928316815233602082015291831690820152606081018390527fee02732fab40ece8284c756220846dff4b8d32058b86b35b4f0459bf172fcef0906080016104fa565b33600081815260026020908152604080832073ffffffffffffffffffffffffffffffffffffffff87168452909152812054909190838110156109c4576040517f08c379a000000000000000000000000000000000000000000000000000000000815260206004820152602560248201527f45524332303a2064656372656173656420616c6c6f77616e63652062656c6f7760448201527f207a65726f0000000000000000000000000000000000000000000000000000006064820152608401610732565b6106668286868403610c56565b6109d9610bd5565b73ffffffffffffffffffffffffffffffffffffffff82166000818152600a602090815260409182902080547fffffffffffffffffffffffffffffffffffffffffffffffffffffffffffffff00168515159081179091558251938452908301527f73d5b2f10126b99916a4c71d591a354f52ed52ca3b0278eaf584e35220addb7791016104fa565b600033610600818585610ee1565b610a76610bd5565b600b80547fffffffffffffffffffffffff00000000000000000000000000000000000000001673ffffffffffffffffffffffffffffffffffffffff83169081179091556040519081527f111c6aeb2006d748bdae2ddf082866e6ce7eb3d48ef324b5d9547570f5694e4f9060200160405180910390a150565b6000806000610afc6107a3565b90925090508161062982866117aa565b6107a1610b1833610760565b336107d5565b610b26610bd5565b73ffffffffffffffffffffffffffffffffffffffff8116610bc9576040517f08c379a000000000000000000000000000000000000000000000000000000000815260206004820152602660248201527f4f776e61626c653a206e6577206f776e657220697320746865207a65726f206160448201527f64647265737300000000000000000000000000000000000000000000000000006064820152608401610732565b610bd2816112ca565b50565b60005473ffffffffffffffffffffffffffffffffffffffff1633146107a1576040517f08c379a000000000000000000000000000000000000000000000000000000000815260206004820181905260248201527f4f776e61626c653a2063616c6c6572206973206e6f7420746865206f776e65726044820152606401610732565b73ffffffffffffffffffffffffffffffffffffffff8316610cf8576040517f08c379a0000000000000000000000000000000000000000000000000000000008152602060048201526024808201527f45524332303a20617070726f76652066726f6d20746865207a65726f2061646460448201527f72657373000000000000000000000000000000000000000000000000000000006064820152608401610732565b73ffffffffffffffffffffffffffffffffffffffff8216610d9b576040517f08c379a000000000000000000000000000000000000000000000000000000000815260206004820152602260248201527f45524332303a20617070726f766520746f20746865207a65726f20616464726560448201527f73730000000000000000000000000000000000000000000000000000000000006064820152608401610732565b73ffffffffffffffffffffffffffffffffffffffff83811660008181526002602090815260408083209487168084529482529182902085905590518481527f8c5be1e5ebec7d5bd14f71427d1e84f3dd0314c0f7b2291e5b200ac8c7c3b92591015b60405180910390a3505050565b73ffffffffffffffffffffffffffffffffffffffff8381166000908152600260209081526040808320938616835292905220547fffffffffffffffffffffffffffffffffffffffffffffffffffffffffffffffff8114610edb5781811015610ece576040517f08c379a000000000000000000000000000000000000000000000000000000000815260206004820152601d60248201527f45524332303a20696e73756666696369656e7420616c6c6f77616e63650000006044820152606401610732565b610edb8484848403610c56565b50505050565b73ffffffffffffffffffffffffffffffffffffffff8316610f84576040517f08c379a000000000000000000000000000000000000000000000000000000000815260206004820152602560248201527f45524332303a207472616e736665722066726f6d20746865207a65726f20616460448201527f64726573730000000000000000000000000000000000000000000000000000006064820152608401610732565b73ffffffffffffffffffffffffffffffffffffffff8216611027576040517f08c379a000000000000000000000000000000000000000000000000000000000815260206004820152602360248201527f45524332303a207472616e7366657220746f20746865207a65726f206164647260448201527f65737300000000000000000000000000000000000000000000000000000000006064820152608401610732565b73ffffffffffffffffffffffffffffffffffffffff83166000908152600760205260408120549061105783610aef565b9050808210156110e9576040517f08c379a000000000000000000000000000000000000000000000000000000000815260206004820152602660248201527f45524332303a207472616e7366657220616d6f756e742065786365656473206260448201527f616c616e636500000000000000000000000000000000000000000000000000006064820152608401610732565b73ffffffffffffffffffffffffffffffffffffffff808616600090815260076020526040808220805485900390559186168152908120805483929061112f908490611731565b925050819055508373ffffffffffffffffffffffffffffffffffffffff168573ffffffffffffffffffffffffffffffffffffffff167fddf252ad1be2c89b69c2b068fc378daa952ba7f163c4a11628f55a4df523b3ef8560405161119591815260200190565b60405180910390a35050505050565b73ffffffffffffffffffffffffffffffffffffffff8216611221576040517f08c379a000000000000000000000000000000000000000000000000000000000815260206004820152601f60248201527f45524332303a206d696e7420746f20746865207a65726f2061646472657373006044820152606401610732565b600061122c82610aef565b905080600660008282546112409190611731565b909155505073ffffffffffffffffffffffffffffffffffffffff83166000908152600760205260408120805483929061127a908490611731565b909155505060405182815273ffffffffffffffffffffffffffffffffffffffff8416906000907fddf252ad1be2c89b69c2b068fc378daa952ba7f163c4a11628f55a4df523b3ef90602001610dfd565b6000805473ffffffffffffffffffffffffffffffffffffffff8381167fffffffffffffffffffffffff0000000000000000000000000000000000000000831681178455604051919092169283917f8be0079c531659141344cd1fd0a4f28419497f9722a3daafe3b4186f6b6457e09190a35050565b73ffffffffffffffffffffffffffffffffffffffff82166113e2576040517f08c379a000000000000000000000000000000000000000000000000000000000815260206004820152602160248201527f45524332303a206275726e2066726f6d20746865207a65726f2061646472657360448201527f73000000000000000000000000000000000000000000000000000000000000006064820152608401610732565b73ffffffffffffffffffffffffffffffffffffffff82166000908152600760205260408120549061141283610aef565b9050808210156114a4576040517f08c379a000000000000000000000000000000000000000000000000000000000815260206004820152602260248201527f45524332303a206275726e20616d6f756e7420657863656564732062616c616e60448201527f63650000000000000000000000000000000000000000000000000000000000006064820152608401610732565b73ffffffffffffffffffffffffffffffffffffffff841660009081526007602052604081208284039055600680548392906114e0908490611744565b909155505060405183815260009073ffffffffffffffffffffffffffffffffffffffff8616907fddf252ad1be2c89b69c2b068fc378daa952ba7f163c4a11628f55a4df523b3ef9060200160405180910390a350505050565b60006020828403121561154b57600080fd5b5035919050565b600060208083528351808285015260005b8181101561157f57858101830151858201604001528201611563565b5060006040828601015260407fffffffffffffffffffffffffffffffffffffffffffffffffffffffffffffffe0601f8301168501019250505092915050565b73ffffffffffffffffffffffffffffffffffffffff81168114610bd257600080fd5b600080604083850312156115f357600080fd5b82356115fe816115be565b946020939093013593505050565b60008060006060848603121561162157600080fd5b833561162c816115be565b9250602084013561163c816115be565b929592945050506040919091013590565b60006020828403121561165f57600080fd5b813561166a816115be565b9392505050565b6000806040838503121561168457600080fd5b823591506020830135611696816115be565b809150509250929050565b600080604083850312156116b457600080fd5b82356116bf816115be565b91506020830135801515811461169657600080fd5b600080604083850312156116e757600080fd5b82356116f2816115be565b91506020830135611696816115be565b7f4e487b7100000000000000000000000000000000000000000000000000000000600052601160045260246000fd5b8082018082111561060657610606611702565b8181038181111561060657610606611702565b600181811c9082168061176b57607f821691505b6020821081036117a4577f4e487b7100000000000000000000000000000000000000000000000000000000600052602260045260246000fd5b50919050565b808202811582820484141761060657610606611702565b6000826117f7577f4e487b7100000000000000000000000000000000000000000000000000000000600052601260045260246000fd5b50049056fea264697066735822122023d50523323278d5d51dbe41fe9be37b11c00f4d77ff9097ffba9f3a850c9a6a64736f6c6343000813003360c060405234801561001057600080fd5b50604051610c24380380610c2483398101604081905261002f916100b7565b6100383361004f565b6001600160a01b039182166080521660a0526100f1565b600080546001600160a01b038381166001600160a01b0319831681178455604051919092169283917f8be0079c531659141344cd1fd0a4f28419497f9722a3daafe3b4186f6b6457e09190a35050565b6001600160a01b03811681146100b457600080fd5b50565b600080604083850312156100ca57600080fd5b82516100d58161009f565b60208401519092506100e68161009f565b809150509250929050565b60805160a051610b016101236000396000818160a40152610172015260008181610112015261024f0152610b016000f3fe608060405234801561001057600080fd5b506004361061007d5760003560e01c80638da5cb5b1161005b5780638da5cb5b146100ef578063b1a9069c1461010d578063d9caed1214610134578063f2fde38b1461014757600080fd5b80634d4c23a814610082578063715018a6146100975780638bc1437b1461009f575b600080fd5b61009561009036600461098e565b61015a565b005b610095610279565b6100c67f000000000000000000000000000000000000000000000000000000000000000081565b60405173ffffffffffffffffffffffffffffffffffffffff909116815260200160405180910390f35b60005473ffffffffffffffffffffffffffffffffffffffff166100c6565b6100c67f000000000000000000000000000000000000000000000000000000000000000081565b6100956101423660046109ba565b61028d565b6100956101553660046109f6565b61040d565b3373ffffffffffffffffffffffffffffffffffffffff7f0000000000000000000000000000000000000000000000000000000000000000161461024a576040517f08c379a000000000000000000000000000000000000000000000000000000000815260206004820152604860248201527f5661756c74656454656d706c653a204f6e6c792054656d70654578706f73757260448201527f652063616e2072656465656d2074656d706c65206f6e20626568616c66206f6660648201527f2061207661756c74000000000000000000000000000000000000000000000000608482015260a4015b60405180910390fd5b6102757f000000000000000000000000000000000000000000000000000000000000000082846104c4565b5050565b610281610551565b61028b60006105d2565b565b610295610551565b73ffffffffffffffffffffffffffffffffffffffff8216610312576040517f08c379a000000000000000000000000000000000000000000000000000000000815260206004820152600f60248201527f746f2061646472657373207a65726f00000000000000000000000000000000006044820152606401610241565b73ffffffffffffffffffffffffffffffffffffffff83166103fd5760008273ffffffffffffffffffffffffffffffffffffffff168260405160006040518083038185875af1925050503d8060008114610387576040519150601f19603f3d011682016040523d82523d6000602084013e61038c565b606091505b50509050806103f7576040517f08c379a000000000000000000000000000000000000000000000000000000000815260206004820152600b60248201527f73656e64206661696c65640000000000000000000000000000000000000000006044820152606401610241565b50505050565b6104088383836104c4565b505050565b610415610551565b73ffffffffffffffffffffffffffffffffffffffff81166104b8576040517f08c379a000000000000000000000000000000000000000000000000000000000815260206004820152602660248201527f4f776e61626c653a206e6577206f776e657220697320746865207a65726f206160448201527f64647265737300000000000000000000000000000000000000000000000000006064820152608401610241565b6104c1816105d2565b50565b6040805173ffffffffffffffffffffffffffffffffffffffff8416602482015260448082018490528251808303909101815260649091019091526020810180517bffffffffffffffffffffffffffffffffffffffffffffffffffffffff167fa9059cbb00000000000000000000000000000000000000000000000000000000179052610408908490610647565b60005473ffffffffffffffffffffffffffffffffffffffff16331461028b576040517f08c379a000000000000000000000000000000000000000000000000000000000815260206004820181905260248201527f4f776e61626c653a2063616c6c6572206973206e6f7420746865206f776e65726044820152606401610241565b6000805473ffffffffffffffffffffffffffffffffffffffff8381167fffffffffffffffffffffffff0000000000000000000000000000000000000000831681178455604051919092169283917f8be0079c531659141344cd1fd0a4f28419497f9722a3daafe3b4186f6b6457e09190a35050565b60006106a9826040518060400160405280602081526020017f5361666545524332303a206c6f772d6c6576656c2063616c6c206661696c65648152508573ffffffffffffffffffffffffffffffffffffffff166107569092919063ffffffff16565b90508051600014806106ca5750808060200190518101906106ca9190610a18565b610408576040517f08c379a000000000000000000000000000000000000000000000000000000000815260206004820152602a60248201527f5361666545524332303a204552433230206f7065726174696f6e20646964206e60448201527f6f742073756363656564000000000000000000000000000000000000000000006064820152608401610241565b6060610765848460008561076d565b949350505050565b6060824710156107ff576040517f08c379a000000000000000000000000000000000000000000000000000000000815260206004820152602660248201527f416464726573733a20696e73756666696369656e742062616c616e636520666f60448201527f722063616c6c00000000000000000000000000000000000000000000000000006064820152608401610241565b6000808673ffffffffffffffffffffffffffffffffffffffff1685876040516108289190610a5e565b60006040518083038185875af1925050503d8060008114610865576040519150601f19603f3d011682016040523d82523d6000602084013e61086a565b606091505b509150915061087b87838387610886565b979650505050505050565b6060831561091c5782516000036109155773ffffffffffffffffffffffffffffffffffffffff85163b610915576040517f08c379a000000000000000000000000000000000000000000000000000000000815260206004820152601d60248201527f416464726573733a2063616c6c20746f206e6f6e2d636f6e74726163740000006044820152606401610241565b5081610765565b61076583838151156109315781518083602001fd5b806040517f08c379a00000000000000000000000000000000000000000000000000000000081526004016102419190610a7a565b803573ffffffffffffffffffffffffffffffffffffffff8116811461098957600080fd5b919050565b600080604083850312156109a157600080fd5b823591506109b160208401610965565b90509250929050565b6000806000606084860312156109cf57600080fd5b6109d884610965565b92506109e660208501610965565b9150604084013590509250925092565b600060208284031215610a0857600080fd5b610a1182610965565b9392505050565b600060208284031215610a2a57600080fd5b81518015158114610a1157600080fd5b60005b83811015610a55578181015183820152602001610a3d565b50506000910152565b60008251610a70818460208701610a3a565b9190910192915050565b6020815260008251806020840152610a99816040850160208701610a3a565b601f017fffffffffffffffffffffffffffffffffffffffffffffffffffffffffffffffe016919091016040019291505056fea2646970667358221220b06e848b9e2080bdb3d2b184aef6034154a8503d1dc3c18c25a9840294992ab464736f6c63430008130033",
  "linkReferences": {
    "contracts/core/OpsManagerLib.sol": {
      "OpsManagerLib": [
        {
          "length": 20,
          "start": 2338
        },
        {
          "length": 20,
          "start": 3705
        },
        {
          "length": 20,
          "start": 3908
        },
        {
          "length": 20,
          "start": 4786
        },
        {
          "length": 20,
          "start": 5789
        },
        {
          "length": 20,
          "start": 6196
        }
      ]
    }
  },
  "deployedLinkReferences": {
    "contracts/core/OpsManagerLib.sol": {
      "OpsManagerLib": [
        {
          "length": 20,
          "start": 1452
        },
        {
          "length": 20,
          "start": 2819
        },
        {
          "length": 20,
          "start": 3022
        },
        {
          "length": 20,
          "start": 3900
        },
        {
          "length": 20,
          "start": 4903
        },
        {
          "length": 20,
          "start": 5310
        }
      ]
    }
  }
}