{
  "_format": "hh-sol-artifact-1",
  "contractName": "TreasuryIV",
  "sourceName": "contracts/amm/TreasuryIV.sol",
  "abi": [
    {
      "inputs": [
        {
          "internalType": "uint256",
          "name": "frax",
          "type": "uint256"
        },
        {
          "internalType": "uint256",
          "name": "temple",
          "type": "uint256"
        }
      ],
      "stateMutability": "nonpayable",
      "type": "constructor"
    },
    {
      "anonymous": false,
      "inputs": [
        {
          "indexed": true,
          "internalType": "address",
          "name": "previousOwner",
          "type": "address"
        },
        {
          "indexed": true,
          "internalType": "address",
          "name": "newOwner",
          "type": "address"
        }
      ],
      "name": "OwnershipTransferred",
      "type": "event"
    },
    {
      "inputs": [],
      "name": "intrinsicValueRatio",
      "outputs": [
        {
          "internalType": "uint256",
          "name": "frax",
          "type": "uint256"
        },
        {
          "internalType": "uint256",
          "name": "temple",
          "type": "uint256"
        }
      ],
      "stateMutability": "view",
      "type": "function"
    },
    {
      "inputs": [],
      "name": "owner",
      "outputs": [
        {
          "internalType": "address",
          "name": "",
          "type": "address"
        }
      ],
      "stateMutability": "view",
      "type": "function"
    },
    {
      "inputs": [],
      "name": "renounceOwnership",
      "outputs": [],
      "stateMutability": "nonpayable",
      "type": "function"
    },
    {
      "inputs": [
        {
          "internalType": "uint256",
          "name": "frax",
          "type": "uint256"
        },
        {
          "internalType": "uint256",
          "name": "temple",
          "type": "uint256"
        }
      ],
      "name": "setIV",
      "outputs": [],
      "stateMutability": "nonpayable",
      "type": "function"
    },
    {
      "inputs": [
        {
          "internalType": "address",
          "name": "newOwner",
          "type": "address"
        }
      ],
      "name": "transferOwnership",
      "outputs": [],
      "stateMutability": "nonpayable",
      "type": "function"
    }
  ],
  "bytecode": "0x608060405234801561001057600080fd5b5060405161042338038061042383398101604081905261002f91610096565b61003833610046565b6001919091556002556100ba565b600080546001600160a01b038381166001600160a01b0319831681178455604051919092169283917f8be0079c531659141344cd1fd0a4f28419497f9722a3daafe3b4186f6b6457e09190a35050565b600080604083850312156100a957600080fd5b505080516020909101519092909150565b61035a806100c96000396000f3fe608060405234801561001057600080fd5b50600436106100675760003560e01c80638da5cb5b116100505780638da5cb5b14610089578063a340bae2146100b6578063f2fde38b146100d957600080fd5b8063187c7ca21461006c578063715018a614610081575b600080fd5b61007f61007a3660046102c5565b6100ec565b005b61007f6100ff565b60005460405173ffffffffffffffffffffffffffffffffffffffff90911681526020015b60405180910390f35b6001546002546100c4919082565b604080519283526020830191909152016100ad565b61007f6100e73660046102e7565b610113565b6100f46101cf565b600191909155600255565b6101076101cf565b6101116000610250565b565b61011b6101cf565b73ffffffffffffffffffffffffffffffffffffffff81166101c3576040517f08c379a000000000000000000000000000000000000000000000000000000000815260206004820152602660248201527f4f776e61626c653a206e6577206f776e657220697320746865207a65726f206160448201527f646472657373000000000000000000000000000000000000000000000000000060648201526084015b60405180910390fd5b6101cc81610250565b50565b60005473ffffffffffffffffffffffffffffffffffffffff163314610111576040517f08c379a000000000000000000000000000000000000000000000000000000000815260206004820181905260248201527f4f776e61626c653a2063616c6c6572206973206e6f7420746865206f776e657260448201526064016101ba565b6000805473ffffffffffffffffffffffffffffffffffffffff8381167fffffffffffffffffffffffff0000000000000000000000000000000000000000831681178455604051919092169283917f8be0079c531659141344cd1fd0a4f28419497f9722a3daafe3b4186f6b6457e09190a35050565b600080604083850312156102d857600080fd5b50508035926020909101359150565b6000602082840312156102f957600080fd5b813573ffffffffffffffffffffffffffffffffffffffff8116811461031d57600080fd5b939250505056fea2646970667358221220eaa89f28fa18e5c494581460700508bd516b68ddf3b9b8699ffcdf709bfe830064736f6c63430008130033",
  "linkReferences": {},
  "deployedLinkReferences": {}
}