{
  "_format": "hh-sol-artifact-1",
  "contractName": "TempleCircuitBreakerProxy",
  "sourceName": "contracts/v2/circuitBreaker/TempleCircuitBreakerProxy.sol",
  "abi": [
    {
      "inputs": [
        {
          "internalType": "address",
          "name": "_initialRescuer",
          "type": "address"
        },
        {
          "internalType": "address",
          "name": "_initialExecutor",
          "type": "address"
        }
      ],
      "stateMutability": "nonpayable",
      "type": "constructor"
    },
    {
      "inputs": [],
      "name": "InvalidAccess",
      "type": "error"
    },
    {
      "inputs": [],
      "name": "InvalidAddress",
      "type": "error"
    },
    {
      "inputs": [],
      "name": "InvalidParam",
      "type": "error"
    },
    {
      "anonymous": false,
      "inputs": [
        {
          "indexed": true,
          "internalType": "bytes32",
          "name": "identifier",
          "type": "bytes32"
        },
        {
          "indexed": true,
          "internalType": "address",
          "name": "token",
          "type": "address"
        },
        {
          "indexed": false,
          "internalType": "address",
          "name": "circuitBreaker",
          "type": "address"
        }
      ],
      "name": "CircuitBreakerSet",
      "type": "event"
    },
    {
      "anonymous": false,
      "inputs": [
        {
          "indexed": true,
          "internalType": "address",
          "name": "account",
          "type": "address"
        },
        {
          "indexed": true,
          "internalType": "bytes4",
          "name": "fnSelector",
          "type": "bytes4"
        },
        {
          "indexed": true,
          "internalType": "bool",
          "name": "value",
          "type": "bool"
        }
      ],
      "name": "ExplicitAccessSet",
      "type": "event"
    },
    {
      "anonymous": false,
      "inputs": [
        {
          "indexed": true,
          "internalType": "address",
          "name": "caller",
          "type": "address"
        },
        {
          "indexed": false,
          "internalType": "string",
          "name": "identifierString",
          "type": "string"
        },
        {
          "indexed": false,
          "internalType": "bytes32",
          "name": "identifier",
          "type": "bytes32"
        }
      ],
      "name": "IdentifierForCallerSet",
      "type": "event"
    },
    {
      "anonymous": false,
      "inputs": [
        {
          "indexed": true,
          "internalType": "address",
          "name": "oldExecutor",
          "type": "address"
        },
        {
          "indexed": true,
          "internalType": "address",
          "name": "newExecutor",
          "type": "address"
        }
      ],
      "name": "NewExecutorAccepted",
      "type": "event"
    },
    {
      "anonymous": false,
      "inputs": [
        {
          "indexed": true,
          "internalType": "address",
          "name": "oldExecutor",
          "type": "address"
        },
        {
          "indexed": true,
          "internalType": "address",
          "name": "oldProposedExecutor",
          "type": "address"
        },
        {
          "indexed": true,
          "internalType": "address",
          "name": "newProposedExecutor",
          "type": "address"
        }
      ],
      "name": "NewExecutorProposed",
      "type": "event"
    },
    {
      "anonymous": false,
      "inputs": [
        {
          "indexed": true,
          "internalType": "address",
          "name": "oldRescuer",
          "type": "address"
        },
        {
          "indexed": true,
          "internalType": "address",
          "name": "newRescuer",
          "type": "address"
        }
      ],
      "name": "NewRescuerAccepted",
      "type": "event"
    },
    {
      "anonymous": false,
      "inputs": [
        {
          "indexed": true,
          "internalType": "address",
          "name": "oldRescuer",
          "type": "address"
        },
        {
          "indexed": true,
          "internalType": "address",
          "name": "oldProposedRescuer",
          "type": "address"
        },
        {
          "indexed": true,
          "internalType": "address",
          "name": "newProposedRescuer",
          "type": "address"
        }
      ],
      "name": "NewRescuerProposed",
      "type": "event"
    },
    {
      "anonymous": false,
      "inputs": [
        {
          "indexed": true,
          "internalType": "bool",
          "name": "value",
          "type": "bool"
        }
      ],
      "name": "RescueModeSet",
      "type": "event"
    },
    {
      "inputs": [],
      "name": "acceptExecutor",
      "outputs": [],
      "stateMutability": "nonpayable",
      "type": "function"
    },
    {
      "inputs": [],
      "name": "acceptRescuer",
      "outputs": [],
      "stateMutability": "nonpayable",
      "type": "function"
    },
    {
      "inputs": [
        {
          "internalType": "address",
          "name": "",
          "type": "address"
        }
      ],
      "name": "callerToIdentifier",
      "outputs": [
        {
          "internalType": "bytes32",
          "name": "",
          "type": "bytes32"
        }
      ],
      "stateMutability": "view",
      "type": "function"
    },
    {
      "inputs": [
        {
          "internalType": "bytes32",
          "name": "",
          "type": "bytes32"
        },
        {
          "internalType": "address",
          "name": "",
          "type": "address"
        }
      ],
      "name": "circuitBreakers",
      "outputs": [
        {
          "internalType": "contract ITempleCircuitBreaker",
          "name": "",
          "type": "address"
        }
      ],
      "stateMutability": "view",
      "type": "function"
    },
    {
      "inputs": [],
      "name": "executor",
      "outputs": [
        {
          "internalType": "address",
          "name": "",
          "type": "address"
        }
      ],
      "stateMutability": "view",
      "type": "function"
    },
    {
      "inputs": [
        {
          "internalType": "address",
          "name": "",
          "type": "address"
        },
        {
          "internalType": "bytes4",
          "name": "",
          "type": "bytes4"
        }
      ],
      "name": "explicitFunctionAccess",
      "outputs": [
        {
          "internalType": "bool",
          "name": "",
          "type": "bool"
        }
      ],
      "stateMutability": "view",
      "type": "function"
    },
    {
      "inputs": [],
      "name": "identifiers",
      "outputs": [
        {
          "internalType": "bytes32[]",
          "name": "",
          "type": "bytes32[]"
        }
      ],
      "stateMutability": "view",
      "type": "function"
    },
    {
      "inputs": [],
      "name": "inRescueMode",
      "outputs": [
        {
          "internalType": "bool",
          "name": "",
          "type": "bool"
        }
      ],
      "stateMutability": "view",
      "type": "function"
    },
    {
      "inputs": [
        {
          "internalType": "address",
          "name": "token",
          "type": "address"
        },
        {
          "internalType": "address",
          "name": "onBehalfOf",
          "type": "address"
        },
        {
          "internalType": "uint256",
          "name": "amount",
          "type": "uint256"
        }
      ],
      "name": "preCheck",
      "outputs": [],
      "stateMutability": "nonpayable",
      "type": "function"
    },
    {
      "inputs": [
        {
          "internalType": "address",
          "name": "account",
          "type": "address"
        }
      ],
      "name": "proposeNewExecutor",
      "outputs": [],
      "stateMutability": "nonpayable",
      "type": "function"
    },
    {
      "inputs": [
        {
          "internalType": "address",
          "name": "account",
          "type": "address"
        }
      ],
      "name": "proposeNewRescuer",
      "outputs": [],
      "stateMutability": "nonpayable",
      "type": "function"
    },
    {
      "inputs": [],
      "name": "rescuer",
      "outputs": [
        {
          "internalType": "address",
          "name": "",
          "type": "address"
        }
      ],
      "stateMutability": "view",
      "type": "function"
    },
    {
      "inputs": [
        {
          "internalType": "bytes32",
          "name": "identifier",
          "type": "bytes32"
        },
        {
          "internalType": "address",
          "name": "token",
          "type": "address"
        },
        {
          "internalType": "address",
          "name": "circuitBreaker",
          "type": "address"
        }
      ],
      "name": "setCircuitBreaker",
      "outputs": [],
      "stateMutability": "nonpayable",
      "type": "function"
    },
    {
      "inputs": [
        {
          "internalType": "address",
          "name": "allowedCaller",
          "type": "address"
        },
        {
          "components": [
            {
              "internalType": "bytes4",
              "name": "fnSelector",
              "type": "bytes4"
            },
            {
              "internalType": "bool",
              "name": "allowed",
              "type": "bool"
            }
          ],
          "internalType": "struct ITempleElevatedAccess.ExplicitAccess[]",
          "name": "access",
          "type": "tuple[]"
        }
      ],
      "name": "setExplicitAccess",
      "outputs": [],
      "stateMutability": "nonpayable",
      "type": "function"
    },
    {
      "inputs": [
        {
          "internalType": "address",
          "name": "caller",
          "type": "address"
        },
        {
          "internalType": "string",
          "name": "identifierString",
          "type": "string"
        }
      ],
      "name": "setIdentifierForCaller",
      "outputs": [],
      "stateMutability": "nonpayable",
      "type": "function"
    },
    {
      "inputs": [
        {
          "internalType": "bool",
          "name": "value",
          "type": "bool"
        }
      ],
      "name": "setRescueMode",
      "outputs": [],
      "stateMutability": "nonpayable",
      "type": "function"
    }
  ],
  "bytecode": "0x60806040523480156200001157600080fd5b50604051620016393803806200163983398101604081905262000034916200010b565b81816001600160a01b0382166200005e5760405163e6c4247b60e01b815260040160405180910390fd5b6001600160a01b038116620000865760405163e6c4247b60e01b815260040160405180910390fd5b816001600160a01b0316816001600160a01b031603620000b95760405163e6c4247b60e01b815260040160405180910390fd5b600080546001600160a01b039384166001600160a01b0319918216179091556001805492909316911617905550620001439050565b80516001600160a01b03811681146200010657600080fd5b919050565b600080604083850312156200011f57600080fd5b6200012a83620000ee565b91506200013a60208401620000ee565b90509250929050565b6114e680620001536000396000f3fe608060405234801561001057600080fd5b50600436106101005760003560e01c80638112c4af11610097578063c34c08e511610066578063c34c08e514610261578063d9a349c114610281578063daeccc7914610294578063e5a83c1d146102c257600080fd5b80638112c4af1461020357806389fa081e1461020b578063913f6ad514610239578063bfccf0ec1461024e57600080fd5b80631f211405116100d35780631f211405146101b557806320cf3776146101bd57806338a63183146101d057806357f597b7146101f057600080fd5b8063032ef9011461010557806307f184f11461011a57806317e062e41461012d5780631810fe7f14610198575b600080fd5b610118610113366004610ff0565b6102d5565b005b61011861012836600461102f565b610384565b61016e61013b36600461104a565b600660209081526000928352604080842090915290825290205473ffffffffffffffffffffffffffffffffffffffff1681565b60405173ffffffffffffffffffffffffffffffffffffffff90911681526020015b60405180910390f35b6003546101a59060ff1681565b604051901515815260200161018f565b6101186104bc565b6101186101cb366004611076565b6105db565b60005461016e9073ffffffffffffffffffffffffffffffffffffffff1681565b6101186101fe3660046110b2565b610764565b61011861081a565b61022b61021936600461102f565b60056020526000908152604090205481565b60405190815260200161018f565b61024161095a565b60405161018f91906110ee565b61011861025c366004611132565b61096b565b60015461016e9073ffffffffffffffffffffffffffffffffffffffff1681565b61011861028f36600461102f565b610b72565b6101a56102a23660046111e8565b600260209081526000928352604080842090915290825290205460ff1681565b6101186102d0366004611290565b610cb7565b60005473ffffffffffffffffffffffffffffffffffffffff163314610326576040517fc0185c6400000000000000000000000000000000000000000000000000000000815260040160405180910390fd5b604051811515907f18f4a9a726c72020fd959c636d2fd464c6cefe90afeaea3c830b971614cf70b690600090a2600380547fffffffffffffffffffffffffffffffffffffffffffffffffffffffffffffff0016911515919091179055565b60005473ffffffffffffffffffffffffffffffffffffffff1633146103d5576040517fc0185c6400000000000000000000000000000000000000000000000000000000815260040160405180910390fd5b73ffffffffffffffffffffffffffffffffffffffff8116610422576040517fe6c4247b00000000000000000000000000000000000000000000000000000000815260040160405180910390fd5b60035460405173ffffffffffffffffffffffffffffffffffffffff808416926101009004169033907f374d23b359cab0f8963c5c1715a6de7974f53af00aecc27de50d93906b70943e90600090a46003805473ffffffffffffffffffffffffffffffffffffffff909216610100027fffffffffffffffffffffff0000000000000000000000000000000000000000ff909216919091179055565b60045473ffffffffffffffffffffffffffffffffffffffff16331461050d576040517fc0185c6400000000000000000000000000000000000000000000000000000000815260040160405180910390fd5b60005473ffffffffffffffffffffffffffffffffffffffff16330361055e576040517fe6c4247b00000000000000000000000000000000000000000000000000000000815260040160405180910390fd5b600154604051339173ffffffffffffffffffffffffffffffffffffffff16907fe963dc9c0d2165b080440a5d2665566142f2426b1ea15f3da8390b0fd336b06490600090a3600180547fffffffffffffffffffffffff00000000000000000000000000000000000000009081163317909155600480549091169055565b610609336000357fffffffff0000000000000000000000000000000000000000000000000000000016610e38565b61063f576040517fc0185c6400000000000000000000000000000000000000000000000000000000815260040160405180910390fd5b61064a600784610efc565b610680576040517fd252903400000000000000000000000000000000000000000000000000000000815260040160405180910390fd5b73ffffffffffffffffffffffffffffffffffffffff81166106cd576040517fe6c4247b00000000000000000000000000000000000000000000000000000000815260040160405180910390fd5b600083815260066020908152604080832073ffffffffffffffffffffffffffffffffffffffff8681168086529184529382902080547fffffffffffffffffffffffff000000000000000000000000000000000000000016948616948517905590519283529185917f76f9665f4e916a5157773626d57ac454ed3e752fd2c84764a62e5eab353dd77f910160405180910390a3505050565b336000908152600560209081526040808320548084526006835281842073ffffffffffffffffffffffffffffffffffffffff88811686529352928190205490517f93edc0240000000000000000000000000000000000000000000000000000000081528583166004820152602481018590529116906393edc02490604401600060405180830381600087803b1580156107fc57600080fd5b505af1158015610810573d6000803e3d6000fd5b5050505050505050565b600354610100900473ffffffffffffffffffffffffffffffffffffffff163314610870576040517fc0185c6400000000000000000000000000000000000000000000000000000000815260040160405180910390fd5b60015473ffffffffffffffffffffffffffffffffffffffff1633036108c1576040517fe6c4247b00000000000000000000000000000000000000000000000000000000815260040160405180910390fd5b60008054604051339273ffffffffffffffffffffffffffffffffffffffff909216917ff07131157ebea15896dc89264eb9a7572e67cc9fad6b855015730fcec10704e091a3600080547fffffffffffffffffffffffff00000000000000000000000000000000000000001633179055600380547fffffffffffffffffffffff0000000000000000000000000000000000000000ff169055565b60606109666007610f17565b905090565b610999336000357fffffffff0000000000000000000000000000000000000000000000000000000016610e38565b6109cf576040517fc0185c6400000000000000000000000000000000000000000000000000000000815260040160405180910390fd5b73ffffffffffffffffffffffffffffffffffffffff8316610a1c576040517fe6c4247b00000000000000000000000000000000000000000000000000000000815260040160405180910390fd5b6040805180820190915260008082526020820152819060005b82811015610b6a57848482818110610a4f57610a4f611354565b905060400201803603810190610a659190611383565b91508160200151151582600001517bffffffffffffffffffffffffffffffffffffffffffffffffffffffff19168773ffffffffffffffffffffffffffffffffffffffff167ff5736e75de2c751f775d4c5ed517289f77074f8c337f451ba4c0c3ed1dd7f9ad60405160405180910390a460208281015173ffffffffffffffffffffffffffffffffffffffff8816600090815260028352604080822086517fffffffff000000000000000000000000000000000000000000000000000000001683529093529190912080547fffffffffffffffffffffffffffffffffffffffffffffffffffffffffffffff0016911515919091179055610b63816113de565b9050610a35565b505050505050565b610ba0336000357fffffffff0000000000000000000000000000000000000000000000000000000016610e38565b610bd6576040517fc0185c6400000000000000000000000000000000000000000000000000000000815260040160405180910390fd5b73ffffffffffffffffffffffffffffffffffffffff8116610c23576040517fe6c4247b00000000000000000000000000000000000000000000000000000000815260040160405180910390fd5b60045460015460405173ffffffffffffffffffffffffffffffffffffffff8085169381169216907f4857570a90fe0a0fc580e89a287e77576141ac8e2e8b3710cd26db44f44156c190600090a4600480547fffffffffffffffffffffffff00000000000000000000000000000000000000001673ffffffffffffffffffffffffffffffffffffffff92909216919091179055565b610ce5336000357fffffffff0000000000000000000000000000000000000000000000000000000016610e38565b610d1b576040517fc0185c6400000000000000000000000000000000000000000000000000000000815260040160405180910390fd5b73ffffffffffffffffffffffffffffffffffffffff8216610d68576040517fe6c4247b00000000000000000000000000000000000000000000000000000000815260040160405180910390fd5b8051600003610da3576040517fd252903400000000000000000000000000000000000000000000000000000000815260040160405180910390fd5b805160208083019190912073ffffffffffffffffffffffffffffffffffffffff8416600090815260059092526040909120819055610de2600782610f24565b508273ffffffffffffffffffffffffffffffffffffffff167f2bb3a56b3d3e7dcc35104bfde069569b51da8bbd1c494b1a2ab9f021220fefb68383604051610e2b92919061143d565b60405180910390a2505050565b60035460009060ff1615610e6a575060005473ffffffffffffffffffffffffffffffffffffffff838116911614610ef6565b60015473ffffffffffffffffffffffffffffffffffffffff84811691161480610ee5575073ffffffffffffffffffffffffffffffffffffffff831660009081526002602090815260408083207fffffffff000000000000000000000000000000000000000000000000000000008616845290915290205460ff165b15610ef257506001610ef6565b5060005b92915050565b600081815260018301602052604081205415155b9392505050565b60606000610f1083610f30565b6000610f108383610f8c565b606081600001805480602002602001604051908101604052809291908181526020018280548015610f8057602002820191906000526020600020905b815481526020019060010190808311610f6c575b50505050509050919050565b6000818152600183016020526040812054610fd357508154600181810184556000848152602080822090930184905584548482528286019093526040902091909155610ef6565b506000610ef6565b80358015158114610feb57600080fd5b919050565b60006020828403121561100257600080fd5b610f1082610fdb565b803573ffffffffffffffffffffffffffffffffffffffff81168114610feb57600080fd5b60006020828403121561104157600080fd5b610f108261100b565b6000806040838503121561105d57600080fd5b8235915061106d6020840161100b565b90509250929050565b60008060006060848603121561108b57600080fd5b8335925061109b6020850161100b565b91506110a96040850161100b565b90509250925092565b6000806000606084860312156110c757600080fd5b6110d08461100b565b92506110de6020850161100b565b9150604084013590509250925092565b6020808252825182820181905260009190848201906040850190845b818110156111265783518352928401929184019160010161110a565b50909695505050505050565b60008060006040848603121561114757600080fd5b6111508461100b565b9250602084013567ffffffffffffffff8082111561116d57600080fd5b818601915086601f83011261118157600080fd5b81358181111561119057600080fd5b8760208260061b85010111156111a557600080fd5b6020830194508093505050509250925092565b80357fffffffff0000000000000000000000000000000000000000000000000000000081168114610feb57600080fd5b600080604083850312156111fb57600080fd5b6112048361100b565b915061106d602084016111b8565b7f4e487b7100000000000000000000000000000000000000000000000000000000600052604160045260246000fd5b604051601f82017fffffffffffffffffffffffffffffffffffffffffffffffffffffffffffffffe016810167ffffffffffffffff8111828210171561128857611288611212565b604052919050565b600080604083850312156112a357600080fd5b6112ac8361100b565b915060208084013567ffffffffffffffff808211156112ca57600080fd5b818601915086601f8301126112de57600080fd5b8135818111156112f0576112f0611212565b611320847fffffffffffffffffffffffffffffffffffffffffffffffffffffffffffffffe0601f84011601611241565b9150808252878482850101111561133657600080fd5b80848401858401376000848284010152508093505050509250929050565b7f4e487b7100000000000000000000000000000000000000000000000000000000600052603260045260246000fd5b60006040828403121561139557600080fd5b6040516040810181811067ffffffffffffffff821117156113b8576113b8611212565b6040526113c4836111b8565b81526113d260208401610fdb565b60208201529392505050565b60007fffffffffffffffffffffffffffffffffffffffffffffffffffffffffffffffff8203611436577f4e487b7100000000000000000000000000000000000000000000000000000000600052601160045260246000fd5b5060010190565b604081526000835180604084015260005b8181101561146b576020818701810151606086840101520161144e565b5060006060828501015260607fffffffffffffffffffffffffffffffffffffffffffffffffffffffffffffffe0601f830116840101915050826020830152939250505056fea2646970667358221220d24bd3b0672f436e2d8a03bae19ce554581b61b21c6ab2cebab2c3b00b4410d264736f6c63430008130033",
  "linkReferences": {},
  "deployedLinkReferences": {}
}