{
  "_format": "hh-sol-artifact-1",
  "contractName": "TempleStaking",
  "sourceName": "contracts/deprecated/TempleStaking.sol",
  "abi": [
    {
      "inputs": [
        {
          "internalType": "contract IERC20",
          "name": "_TEMPLE",
          "type": "address"
        },
        {
          "internalType": "contract IExitQueue",
          "name": "_EXIT_QUEUE",
          "type": "address"
        },
        {
          "internalType": "uint256",
          "name": "_epochSizeSeconds",
          "type": "uint256"
        },
        {
          "internalType": "uint256",
          "name": "_startTimestamp",
          "type": "uint256"
        }
      ],
      "stateMutability": "nonpayable",
      "type": "constructor"
    },
    {
      "anonymous": false,
      "inputs": [
        {
          "indexed": false,
          "internalType": "uint256",
          "name": "_epochsProcessed",
          "type": "uint256"
        },
        {
          "indexed": false,
          "internalType": "uint256",
          "name": "_currentEpoch",
          "type": "uint256"
        },
        {
          "indexed": false,
          "internalType": "uint256",
          "name": "_accumulationFactor",
          "type": "uint256"
        }
      ],
      "name": "AccumulationFactorUpdated",
      "type": "event"
    },
    {
      "anonymous": false,
      "inputs": [
        {
          "indexed": true,
          "internalType": "address",
          "name": "previousOwner",
          "type": "address"
        },
        {
          "indexed": true,
          "internalType": "address",
          "name": "newOwner",
          "type": "address"
        }
      ],
      "name": "OwnershipTransferred",
      "type": "event"
    },
    {
      "anonymous": false,
      "inputs": [
        {
          "indexed": false,
          "internalType": "address",
          "name": "_staker",
          "type": "address"
        },
        {
          "indexed": false,
          "internalType": "uint256",
          "name": "_amount",
          "type": "uint256"
        },
        {
          "indexed": false,
          "internalType": "uint256",
          "name": "_lockedUntil",
          "type": "uint256"
        }
      ],
      "name": "StakeCompleted",
      "type": "event"
    },
    {
      "anonymous": false,
      "inputs": [
        {
          "indexed": false,
          "internalType": "address",
          "name": "_staker",
          "type": "address"
        },
        {
          "indexed": false,
          "internalType": "uint256",
          "name": "_amount",
          "type": "uint256"
        }
      ],
      "name": "UnstakeCompleted",
      "type": "event"
    },
    {
      "inputs": [],
      "name": "EXIT_QUEUE",
      "outputs": [
        {
          "internalType": "contract IExitQueue",
          "name": "",
          "type": "address"
        }
      ],
      "stateMutability": "view",
      "type": "function"
    },
    {
      "inputs": [],
      "name": "OG_TEMPLE",
      "outputs": [
        {
          "internalType": "contract OGTemple",
          "name": "",
          "type": "address"
        }
      ],
      "stateMutability": "view",
      "type": "function"
    },
    {
      "inputs": [],
      "name": "TEMPLE",
      "outputs": [
        {
          "internalType": "contract IERC20",
          "name": "",
          "type": "address"
        }
      ],
      "stateMutability": "view",
      "type": "function"
    },
    {
      "inputs": [],
      "name": "accumulationFactor",
      "outputs": [
        {
          "internalType": "int128",
          "name": "",
          "type": "int128"
        }
      ],
      "stateMutability": "view",
      "type": "function"
    },
    {
      "inputs": [
        {
          "internalType": "uint256",
          "name": "amountOgTemple",
          "type": "uint256"
        }
      ],
      "name": "balance",
      "outputs": [
        {
          "internalType": "uint256",
          "name": "",
          "type": "uint256"
        }
      ],
      "stateMutability": "view",
      "type": "function"
    },
    {
      "inputs": [],
      "name": "currentEpoch",
      "outputs": [
        {
          "internalType": "uint256",
          "name": "",
          "type": "uint256"
        }
      ],
      "stateMutability": "view",
      "type": "function"
    },
    {
      "inputs": [],
      "name": "epochSizeSeconds",
      "outputs": [
        {
          "internalType": "uint256",
          "name": "",
          "type": "uint256"
        }
      ],
      "stateMutability": "view",
      "type": "function"
    },
    {
      "inputs": [],
      "name": "epy",
      "outputs": [
        {
          "internalType": "int128",
          "name": "",
          "type": "int128"
        }
      ],
      "stateMutability": "view",
      "type": "function"
    },
    {
      "inputs": [
        {
          "internalType": "uint256",
          "name": "_scale",
          "type": "uint256"
        }
      ],
      "name": "getAccumulationFactor",
      "outputs": [
        {
          "internalType": "uint256",
          "name": "",
          "type": "uint256"
        }
      ],
      "stateMutability": "view",
      "type": "function"
    },
    {
      "inputs": [
        {
          "internalType": "uint256",
          "name": "_scale",
          "type": "uint256"
        }
      ],
      "name": "getEpy",
      "outputs": [
        {
          "internalType": "uint256",
          "name": "",
          "type": "uint256"
        }
      ],
      "stateMutability": "view",
      "type": "function"
    },
    {
      "inputs": [],
      "name": "lastUpdatedEpoch",
      "outputs": [
        {
          "internalType": "uint256",
          "name": "",
          "type": "uint256"
        }
      ],
      "stateMutability": "view",
      "type": "function"
    },
    {
      "inputs": [],
      "name": "owner",
      "outputs": [
        {
          "internalType": "address",
          "name": "",
          "type": "address"
        }
      ],
      "stateMutability": "view",
      "type": "function"
    },
    {
      "inputs": [],
      "name": "renounceOwnership",
      "outputs": [],
      "stateMutability": "nonpayable",
      "type": "function"
    },
    {
      "inputs": [
        {
          "internalType": "uint256",
          "name": "_numerator",
          "type": "uint256"
        },
        {
          "internalType": "uint256",
          "name": "_denominator",
          "type": "uint256"
        }
      ],
      "name": "setEpy",
      "outputs": [],
      "stateMutability": "nonpayable",
      "type": "function"
    },
    {
      "inputs": [
        {
          "internalType": "contract IExitQueue",
          "name": "_EXIT_QUEUE",
          "type": "address"
        }
      ],
      "name": "setExitQueue",
      "outputs": [],
      "stateMutability": "nonpayable",
      "type": "function"
    },
    {
      "inputs": [
        {
          "internalType": "uint256",
          "name": "_amountTemple",
          "type": "uint256"
        }
      ],
      "name": "stake",
      "outputs": [
        {
          "internalType": "uint256",
          "name": "amountOgTemple",
          "type": "uint256"
        }
      ],
      "stateMutability": "nonpayable",
      "type": "function"
    },
    {
      "inputs": [
        {
          "internalType": "address",
          "name": "_staker",
          "type": "address"
        },
        {
          "internalType": "uint256",
          "name": "_amountTemple",
          "type": "uint256"
        }
      ],
      "name": "stakeFor",
      "outputs": [
        {
          "internalType": "uint256",
          "name": "amountOgTemple",
          "type": "uint256"
        }
      ],
      "stateMutability": "nonpayable",
      "type": "function"
    },
    {
      "inputs": [],
      "name": "startTimestamp",
      "outputs": [
        {
          "internalType": "uint256",
          "name": "",
          "type": "uint256"
        }
      ],
      "stateMutability": "view",
      "type": "function"
    },
    {
      "inputs": [
        {
          "internalType": "address",
          "name": "newOwner",
          "type": "address"
        }
      ],
      "name": "transferOwnership",
      "outputs": [],
      "stateMutability": "nonpayable",
      "type": "function"
    },
    {
      "inputs": [
        {
          "internalType": "uint256",
          "name": "_amountOgTemple",
          "type": "uint256"
        }
      ],
      "name": "unstake",
      "outputs": [],
      "stateMutability": "nonpayable",
      "type": "function"
    }
  ],
  "bytecode": "0x60c06040523480156200001157600080fd5b506040516200315a3803806200315a833981016040819052620000349162000284565b6200003f33620001ef565b428110620000a05760405162461bcd60e51b815260206004820152602360248201527f53746172742074696d657374616d70206d75737420626520696e207468652070604482015262185cdd60ea1b60648201526084015b60405180910390fd5b620000af6202a30042620002d1565b8111620001255760405162461bcd60e51b815260206004820152603560248201527f53746172742074696d657374616d702063616e2774206265206d6f726520746860448201527f616e2032206461797320696e2074686520706173740000000000000000000000606482015260840162000097565b6001600160a01b03848116608052600180546001600160a01b03191691851691909117905560405162000158906200025d565b604051809103906000f08015801562000175573d6000803e3d6000fd5b506001600160a01b031660a052600382905560048190556200019860016200023f565b600280546001600160801b0319166001600160801b0392909216919091179055620001c460016200023f565b600580546001600160801b0319166001600160801b039290921691909117905550620002f992505050565b600080546001600160a01b038381166001600160a01b0319831681178455604051919092169283917f8be0079c531659141344cd1fd0a4f28419497f9722a3daafe3b4186f6b6457e09190a35050565b600060016001603f1b038211156200025657600080fd5b5060401b90565b61131b8062001e3f83390190565b6001600160a01b03811681146200028157600080fd5b50565b600080600080608085870312156200029b57600080fd5b8451620002a8816200026b565b6020860151909450620002bb816200026b565b6040860151606090960151949790965092505050565b81810381811115620002f357634e487b7160e01b600052601160045260246000fd5b92915050565b60805160a051611afd620003426000396000818161028701528181610370015281816104ce01526107680152600081816101f70152818161054701526106f50152611afd6000f3fe608060405234801561001057600080fd5b506004361061016c5760003560e01c80638da5cb5b116100cd578063cf98400d11610081578063e6fd48bc11610066578063e6fd48bc1461030b578063ed3b970414610314578063f2fde38b1461032757600080fd5b8063cf98400d146102d8578063d3e06b5e146102eb57600080fd5b8063a694fc3a116100b2578063a694fc3a146102a9578063a9f53dac146102bc578063b7642a43146102cf57600080fd5b80638da5cb5b146102645780638f1284aa1461028257600080fd5b806350e23d0011610124578063715018a611610109578063715018a61461024b57806376671808146102535780637ca076d71461025b57600080fd5b806350e23d00146101f257806359167e481461023e57600080fd5b80633740d556116101555780633740d556146101ac578063386dea67146101cc57806347bb89f0146101df57600080fd5b80632e17de78146101715780632ee4090814610186575b600080fd5b61018461017f366004611850565b61033a565b005b61019961019436600461188b565b61064d565b6040519081526020015b60405180910390f35b6005546101b990600f0b81565b604051600f9190910b81526020016101a3565b6101846101da3660046118b7565b610822565b6101996101ed366004611850565b610871565b6102197f000000000000000000000000000000000000000000000000000000000000000081565b60405173ffffffffffffffffffffffffffffffffffffffff90911681526020016101a3565b6002546101b990600f0b81565b6101846108a4565b6101996108b8565b61019960035481565b60005473ffffffffffffffffffffffffffffffffffffffff16610219565b6102197f000000000000000000000000000000000000000000000000000000000000000081565b6101996102b7366004611850565b6108da565b6101846102ca3660046118d4565b6108e6565b61019960065481565b6101996102e6366004611850565b61095b565b6001546102199073ffffffffffffffffffffffffffffffffffffffff1681565b61019960045481565b610199610322366004611850565b61098f565b6101846103353660046118b7565b6109b9565b6040517fdd62ed3e00000000000000000000000000000000000000000000000000000000815233600482015230602482015281907f000000000000000000000000000000000000000000000000000000000000000073ffffffffffffffffffffffffffffffffffffffff169063dd62ed3e90604401602060405180830381865afa1580156103cc573d6000803e3d6000fd5b505050506040513d601f19601f820116820180604052508101906103f091906118f6565b1015610483576040517f08c379a000000000000000000000000000000000000000000000000000000000815260206004820152602f60248201527f496e73756666696369656e74204f4754656d706c6520616c6c6f77616e63652e60448201527f2043616e6e6f7420756e7374616b65000000000000000000000000000000000060648201526084015b60405180910390fd5b61048b610a70565b600061049682610871565b6040517f79cc6790000000000000000000000000000000000000000000000000000000008152336004820152602481018490529091507f000000000000000000000000000000000000000000000000000000000000000073ffffffffffffffffffffffffffffffffffffffff16906379cc679090604401600060405180830381600087803b15801561052757600080fd5b505af115801561053b573d6000803e3d6000fd5b505060015461058492507f0000000000000000000000000000000000000000000000000000000000000000915073ffffffffffffffffffffffffffffffffffffffff1683610b47565b6001546040517f3b4da69f0000000000000000000000000000000000000000000000000000000081523360048201526024810183905273ffffffffffffffffffffffffffffffffffffffff90911690633b4da69f90604401600060405180830381600087803b1580156105f657600080fd5b505af115801561060a573d6000803e3d6000fd5b505060408051338152602081018690527fdf2b996992aeaae3212b8d32b9c3c224196146804bed6814ec28d864b4eb3fc593500190505b60405180910390a15050565b60008082116106b8576040517f08c379a000000000000000000000000000000000000000000000000000000000815260206004820152601560248201527f43616e6e6f74207374616b65203020746f6b656e730000000000000000000000604482015260640161047a565b6106c0610a70565b6005546106ee906106e990600f0b6106e085670de0b6b3a7640000610cc4565b600f0b90610d17565b610d90565b905061071c7f0000000000000000000000000000000000000000000000000000000000000000333085610e0c565b6040517f40c10f1900000000000000000000000000000000000000000000000000000000815273ffffffffffffffffffffffffffffffffffffffff8481166004830152602482018390527f000000000000000000000000000000000000000000000000000000000000000016906340c10f1990604401600060405180830381600087803b1580156107ac57600080fd5b505af11580156107c0573d6000803e3d6000fd5b50506040805173ffffffffffffffffffffffffffffffffffffffff871681526020810186905260008183015290517fcf5c56b135ea8f1d57357dad28d8a7f64f55756e226643908842181edd74d8019350908190036060019150a15b92915050565b61082a610e6a565b600180547fffffffffffffffffffffffff00000000000000000000000000000000000000001673ffffffffffffffffffffffffffffffffffffffff92909216919091179055565b600061081c6106e96108896108846108b8565b610eeb565b61089b85670de0b6b3a7640000610cc4565b600f0b90610f1b565b6108ac610e6a565b6108b66000610f72565b565b6000600354600454426108cb919061193e565b6108d59190611980565b905090565b600061081c338361064d565b6108ee610e6a565b6108f6610a70565b6109166109038383610cc4565b61090d6001610fe7565b600f0b90611005565b600280547fffffffffffffffffffffffffffffffff00000000000000000000000000000000166fffffffffffffffffffffffffffffffff929092169190911790555050565b600061097f61097761096c84610fe7565b61089b6108846108b8565b600f0b611059565b67ffffffffffffffff1692915050565b600061097f6109776109a084610fe7565b61089b6109ad6001610fe7565b600254600f0b90611075565b6109c1610e6a565b73ffffffffffffffffffffffffffffffffffffffff8116610a64576040517f08c379a000000000000000000000000000000000000000000000000000000000815260206004820152602660248201527f4f776e61626c653a206e6577206f776e657220697320746865207a65726f206160448201527f6464726573730000000000000000000000000000000000000000000000000000606482015260840161047a565b610a6d81610f72565b50565b6000610a7a6108b8565b90506006548111610a885750565b610a9181610eeb565b600580547fffffffffffffffffffffffffffffffff00000000000000000000000000000000166fffffffffffffffffffffffffffffffff9290921691909117905560068190556000610ae3828061193e565b6005549091507faede5390ed10bde4ef7003c320b4df98c2b8df8749030985178fdd5a55c506469082908490610b229061097790600f0b612710610f1b565b60408051938452602084019290925267ffffffffffffffff1690820152606001610641565b6040517fdd62ed3e00000000000000000000000000000000000000000000000000000000815230600482015273ffffffffffffffffffffffffffffffffffffffff83811660248301526000919085169063dd62ed3e90604401602060405180830381865afa158015610bbd573d6000803e3d6000fd5b505050506040513d601f19601f82011682018060405250810190610be191906118f6565b9050610cbe847f095ea7b30000000000000000000000000000000000000000000000000000000085610c1386866119bb565b60405173ffffffffffffffffffffffffffffffffffffffff909216602483015260448201526064015b604080517fffffffffffffffffffffffffffffffffffffffffffffffffffffffffffffffe08184030181529190526020810180517bffffffffffffffffffffffffffffffffffffffffffffffffffffffff167fffffffff00000000000000000000000000000000000000000000000000000000909316929092179091526110c9565b50505050565b600081600003610cd357600080fd5b6000610cdf84846111dd565b90506f7fffffffffffffffffffffffffffffff6fffffffffffffffffffffffffffffffff82161115610d1057600080fd5b9392505050565b600081600f0b600003610d2957600080fd5b600082600f0b604085600f0b901b81610d4457610d44611951565b0590507fffffffffffffffffffffffffffffffff800000000000000000000000000000008112801590610d8757506f7fffffffffffffffffffffffffffffff8113155b610d1057600080fd5b600080610d9f83600f0b611059565b67ffffffffffffffff1690506000610ddb610977610dc4670de0b6b3a7640000610fe7565b61089b610dd086610fe7565b600f89900b90611075565b67ffffffffffffffff16905080610dfa83670de0b6b3a76400006119ce565b610e0491906119bb565b949350505050565b60405173ffffffffffffffffffffffffffffffffffffffff80851660248301528316604482015260648101829052610cbe9085907f23b872dd0000000000000000000000000000000000000000000000000000000090608401610c3c565b60005473ffffffffffffffffffffffffffffffffffffffff1633146108b6576040517f08c379a000000000000000000000000000000000000000000000000000000000815260206004820181905260248201527f4f776e61626c653a2063616c6c6572206973206e6f7420746865206f776e6572604482015260640161047a565b60008060065483610efc919061193e565b600254909150610d1090610f1390600f0b8361136e565b600554600f0b905b6000600f83810b9083900b0260401d7fffffffffffffffffffffffffffffffff800000000000000000000000000000008112801590610d8757506f7fffffffffffffffffffffffffffffff811315610d1057600080fd5b6000805473ffffffffffffffffffffffffffffffffffffffff8381167fffffffffffffffffffffffff0000000000000000000000000000000000000000831681178455604051919092169283917f8be0079c531659141344cd1fd0a4f28419497f9722a3daafe3b4186f6b6457e09190a35050565b6000677fffffffffffffff821115610ffe57600080fd5b5060401b90565b6000600f83810b9083900b017fffffffffffffffffffffffffffffffff800000000000000000000000000000008112801590610d8757506f7fffffffffffffffffffffffffffffff811315610d1057600080fd5b60008082600f0b121561106b57600080fd5b50600f0b60401d90565b6000600f82810b9084900b037fffffffffffffffffffffffffffffffff800000000000000000000000000000008112801590610d8757506f7fffffffffffffffffffffffffffffff811315610d1057600080fd5b600061112b826040518060400160405280602081526020017f5361666545524332303a206c6f772d6c6576656c2063616c6c206661696c65648152508573ffffffffffffffffffffffffffffffffffffffff166116df9092919063ffffffff16565b905080516000148061114c57508080602001905181019061114c91906119e5565b6111d8576040517f08c379a000000000000000000000000000000000000000000000000000000000815260206004820152602a60248201527f5361666545524332303a204552433230206f7065726174696f6e20646964206e60448201527f6f74207375636365656400000000000000000000000000000000000000000000606482015260840161047a565b505050565b6000816000036111ec57600080fd5b600077ffffffffffffffffffffffffffffffffffffffffffffffff84116112285782604085901b8161122057611220611951565b049050611351565b60c084811c6401000000008110611241576020918201911c5b620100008110611253576010918201911c5b6101008110611264576008918201911c5b60108110611274576004918201911c5b60048110611284576002918201911c5b60028110611293576001820191505b60bf820360018603901c6001018260ff0387901b816112b4576112b4611951565b0492506fffffffffffffffffffffffffffffffff8311156112d457600080fd5b608085901c83026fffffffffffffffffffffffffffffffff8616840260c088901c604089901b82811015611309576001820391505b608084901b92900382811015611320576001820391505b829003608084901c821461133657611336611a07565b88818161134557611345611951565b04870196505050505050505b6fffffffffffffffffffffffffffffffff811115610d1057600080fd5b600080600084600f0b1280156113875750826001166001145b905060008085600f0b1261139b57846113a0565b846000035b6fffffffffffffffffffffffffffffffff16905070010000000000000000000000000000000068010000000000000000821161145057603f82901b91505b84156114485760018516156113f3578102607f1c5b908002607f1c906002851615611409578102607f1c5b908002607f1c90600485161561141f578102607f1c5b908002607f1c906008851615611435578102607f1c5b60049490941c93908002607f1c906113de565b60401c611678565b603f6c010000000000000000000000008310156114915760209290921b917fffffffffffffffffffffffffffffffffffffffffffffffffffffffffffffffe0015b6e0100000000000000000000000000008310156114d25760109290921b917ffffffffffffffffffffffffffffffffffffffffffffffffffffffffffffffff0015b6f010000000000000000000000000000008310156115145760089290921b917ffffffffffffffffffffffffffffffffffffffffffffffffffffffffffffffff8015b6f100000000000000000000000000000008310156115565760049290921b917ffffffffffffffffffffffffffffffffffffffffffffffffffffffffffffffffc015b6f400000000000000000000000000000008310156115985760029290921b917ffffffffffffffffffffffffffffffffffffffffffffffffffffffffffffffffe015b6f800000000000000000000000000000008310156115da5760019290921b917fffffffffffffffffffffffffffffffffffffffffffffffffffffffffffffffff015b60005b861561166157604082106115f057600080fd5b600187161561162357918302607f1c91810170010000000000000000000000000000000083111561162357600192831c92015b928002607f1c9260019190911b90700100000000000000000000000000000000841061165557600193841c9391909101905b600187901c96506115dd565b6040811061166e57600080fd5b6040039190911c90505b600083611685578161168a565b816000035b90507fffffffffffffffffffffffffffffffff8000000000000000000000000000000081128015906116cc57506f7fffffffffffffffffffffffffffffff8113155b6116d557600080fd5b9695505050505050565b6060610e048484600085856000808673ffffffffffffffffffffffffffffffffffffffff1685876040516117139190611a5a565b60006040518083038185875af1925050503d8060008114611750576040519150601f19603f3d011682016040523d82523d6000602084013e611755565b606091505b509150915061176687838387611771565b979650505050505050565b606083156118075782516000036118005773ffffffffffffffffffffffffffffffffffffffff85163b611800576040517f08c379a000000000000000000000000000000000000000000000000000000000815260206004820152601d60248201527f416464726573733a2063616c6c20746f206e6f6e2d636f6e7472616374000000604482015260640161047a565b5081610e04565b610e04838381511561181c5781518083602001fd5b806040517f08c379a000000000000000000000000000000000000000000000000000000000815260040161047a9190611a76565b60006020828403121561186257600080fd5b5035919050565b73ffffffffffffffffffffffffffffffffffffffff81168114610a6d57600080fd5b6000806040838503121561189e57600080fd5b82356118a981611869565b946020939093013593505050565b6000602082840312156118c957600080fd5b8135610d1081611869565b600080604083850312156118e757600080fd5b50508035926020909101359150565b60006020828403121561190857600080fd5b5051919050565b7f4e487b7100000000000000000000000000000000000000000000000000000000600052601160045260246000fd5b8181038181111561081c5761081c61190f565b7f4e487b7100000000000000000000000000000000000000000000000000000000600052601260045260246000fd5b6000826119b6577f4e487b7100000000000000000000000000000000000000000000000000000000600052601260045260246000fd5b500490565b8082018082111561081c5761081c61190f565b808202811582820484141761081c5761081c61190f565b6000602082840312156119f757600080fd5b81518015158114610d1057600080fd5b7f4e487b7100000000000000000000000000000000000000000000000000000000600052600160045260246000fd5b60005b83811015611a51578181015183820152602001611a39565b50506000910152565b60008251611a6c818460208701611a36565b9190910192915050565b6020815260008251806020840152611a95816040850160208701611a36565b601f017fffffffffffffffffffffffffffffffffffffffffffffffffffffffffffffffe016919091016040019291505056fea2646970667358221220428349e2ab26f96930c5aceda0a22486a9fc7def3adff1254df49885bac6c54b64736f6c6343000813003360806040523480156200001157600080fd5b50604051806040016040528060088152602001674f4754656d706c6560c01b815250604051806040016040528060098152602001684f475f54454d504c4560b81b815250816003908162000066919062000193565b50600462000075828262000193565b505050620000926200008c6200009860201b60201c565b6200009c565b6200025f565b3390565b600580546001600160a01b038381166001600160a01b0319831681179093556040519116919082907f8be0079c531659141344cd1fd0a4f28419497f9722a3daafe3b4186f6b6457e090600090a35050565b634e487b7160e01b600052604160045260246000fd5b600181811c908216806200011957607f821691505b6020821081036200013a57634e487b7160e01b600052602260045260246000fd5b50919050565b601f8211156200018e57600081815260208120601f850160051c81016020861015620001695750805b601f850160051c820191505b818110156200018a5782815560010162000175565b5050505b505050565b81516001600160401b03811115620001af57620001af620000ee565b620001c781620001c0845462000104565b8462000140565b602080601f831160018114620001ff5760008415620001e65750858301515b600019600386901b1c1916600185901b1785556200018a565b600085815260208120601f198616915b8281101562000230578886015182559484019460019091019084016200020f565b50858210156200024f5787850151600019600388901b60f8161c191681555b5050505050600190811b01905550565b6110ac806200026f6000396000f3fe608060405234801561001057600080fd5b506004361061011b5760003560e01c806370a08231116100b257806395d89b4111610081578063a9059cbb11610066578063a9059cbb14610264578063dd62ed3e14610277578063f2fde38b146102bd57600080fd5b806395d89b4114610249578063a457c2d71461025157600080fd5b806370a08231146101d0578063715018a61461020657806379cc67901461020e5780638da5cb5b1461022157600080fd5b8063313ce567116100ee578063313ce56714610186578063395093511461019557806340c10f19146101a857806342966c68146101bd57600080fd5b806306fdde0314610120578063095ea7b31461013e57806318160ddd1461016157806323b872dd14610173575b600080fd5b6101286102d0565b6040516101359190610e80565b60405180910390f35b61015161014c366004610f15565b610362565b6040519015158152602001610135565b6002545b604051908152602001610135565b610151610181366004610f3f565b61037c565b60405160128152602001610135565b6101516101a3366004610f15565b6103a0565b6101bb6101b6366004610f15565b6103ec565b005b6101bb6101cb366004610f7b565b610402565b6101656101de366004610f94565b73ffffffffffffffffffffffffffffffffffffffff1660009081526020819052604090205490565b6101bb61040f565b6101bb61021c366004610f15565b610423565b60055460405173ffffffffffffffffffffffffffffffffffffffff9091168152602001610135565b610128610438565b61015161025f366004610f15565b610447565b610151610272366004610f15565b61051d565b610165610285366004610fb6565b73ffffffffffffffffffffffffffffffffffffffff918216600090815260016020908152604080832093909416825291909152205490565b6101bb6102cb366004610f94565b61052b565b6060600380546102df90610fe9565b80601f016020809104026020016040519081016040528092919081815260200182805461030b90610fe9565b80156103585780601f1061032d57610100808354040283529160200191610358565b820191906000526020600020905b81548152906001019060200180831161033b57829003601f168201915b5050505050905090565b6000336103708185856105df565b60019150505b92915050565b60003361038a858285610793565b61039585858561086a565b506001949350505050565b33600081815260016020908152604080832073ffffffffffffffffffffffffffffffffffffffff8716845290915281205490919061037090829086906103e790879061103c565b6105df565b6103f4610ad9565b6103fe8282610b5a565b5050565b61040c3382610c4d565b50565b610417610ad9565b6104216000610e09565b565b61042e823383610793565b6103fe8282610c4d565b6060600480546102df90610fe9565b33600081815260016020908152604080832073ffffffffffffffffffffffffffffffffffffffff8716845290915281205490919083811015610510576040517f08c379a000000000000000000000000000000000000000000000000000000000815260206004820152602560248201527f45524332303a2064656372656173656420616c6c6f77616e63652062656c6f7760448201527f207a65726f00000000000000000000000000000000000000000000000000000060648201526084015b60405180910390fd5b61039582868684036105df565b60003361037081858561086a565b610533610ad9565b73ffffffffffffffffffffffffffffffffffffffff81166105d6576040517f08c379a000000000000000000000000000000000000000000000000000000000815260206004820152602660248201527f4f776e61626c653a206e6577206f776e657220697320746865207a65726f206160448201527f64647265737300000000000000000000000000000000000000000000000000006064820152608401610507565b61040c81610e09565b73ffffffffffffffffffffffffffffffffffffffff8316610681576040517f08c379a0000000000000000000000000000000000000000000000000000000008152602060048201526024808201527f45524332303a20617070726f76652066726f6d20746865207a65726f2061646460448201527f72657373000000000000000000000000000000000000000000000000000000006064820152608401610507565b73ffffffffffffffffffffffffffffffffffffffff8216610724576040517f08c379a000000000000000000000000000000000000000000000000000000000815260206004820152602260248201527f45524332303a20617070726f766520746f20746865207a65726f20616464726560448201527f73730000000000000000000000000000000000000000000000000000000000006064820152608401610507565b73ffffffffffffffffffffffffffffffffffffffff83811660008181526001602090815260408083209487168084529482529182902085905590518481527f8c5be1e5ebec7d5bd14f71427d1e84f3dd0314c0f7b2291e5b200ac8c7c3b92591015b60405180910390a3505050565b73ffffffffffffffffffffffffffffffffffffffff8381166000908152600160209081526040808320938616835292905220547fffffffffffffffffffffffffffffffffffffffffffffffffffffffffffffffff81146108645781811015610857576040517f08c379a000000000000000000000000000000000000000000000000000000000815260206004820152601d60248201527f45524332303a20696e73756666696369656e7420616c6c6f77616e63650000006044820152606401610507565b61086484848484036105df565b50505050565b73ffffffffffffffffffffffffffffffffffffffff831661090d576040517f08c379a000000000000000000000000000000000000000000000000000000000815260206004820152602560248201527f45524332303a207472616e736665722066726f6d20746865207a65726f20616460448201527f64726573730000000000000000000000000000000000000000000000000000006064820152608401610507565b73ffffffffffffffffffffffffffffffffffffffff82166109b0576040517f08c379a000000000000000000000000000000000000000000000000000000000815260206004820152602360248201527f45524332303a207472616e7366657220746f20746865207a65726f206164647260448201527f65737300000000000000000000000000000000000000000000000000000000006064820152608401610507565b73ffffffffffffffffffffffffffffffffffffffff831660009081526020819052604090205481811015610a66576040517f08c379a000000000000000000000000000000000000000000000000000000000815260206004820152602660248201527f45524332303a207472616e7366657220616d6f756e742065786365656473206260448201527f616c616e636500000000000000000000000000000000000000000000000000006064820152608401610507565b73ffffffffffffffffffffffffffffffffffffffff848116600081815260208181526040808320878703905593871680835291849020805487019055925185815290927fddf252ad1be2c89b69c2b068fc378daa952ba7f163c4a11628f55a4df523b3ef910160405180910390a3610864565b60055473ffffffffffffffffffffffffffffffffffffffff163314610421576040517f08c379a000000000000000000000000000000000000000000000000000000000815260206004820181905260248201527f4f776e61626c653a2063616c6c6572206973206e6f7420746865206f776e65726044820152606401610507565b73ffffffffffffffffffffffffffffffffffffffff8216610bd7576040517f08c379a000000000000000000000000000000000000000000000000000000000815260206004820152601f60248201527f45524332303a206d696e7420746f20746865207a65726f2061646472657373006044820152606401610507565b8060026000828254610be9919061103c565b909155505073ffffffffffffffffffffffffffffffffffffffff8216600081815260208181526040808320805486019055518481527fddf252ad1be2c89b69c2b068fc378daa952ba7f163c4a11628f55a4df523b3ef910160405180910390a35050565b73ffffffffffffffffffffffffffffffffffffffff8216610cf0576040517f08c379a000000000000000000000000000000000000000000000000000000000815260206004820152602160248201527f45524332303a206275726e2066726f6d20746865207a65726f2061646472657360448201527f73000000000000000000000000000000000000000000000000000000000000006064820152608401610507565b73ffffffffffffffffffffffffffffffffffffffff821660009081526020819052604090205481811015610da6576040517f08c379a000000000000000000000000000000000000000000000000000000000815260206004820152602260248201527f45524332303a206275726e20616d6f756e7420657863656564732062616c616e60448201527f63650000000000000000000000000000000000000000000000000000000000006064820152608401610507565b73ffffffffffffffffffffffffffffffffffffffff83166000818152602081815260408083208686039055600280548790039055518581529192917fddf252ad1be2c89b69c2b068fc378daa952ba7f163c4a11628f55a4df523b3ef9101610786565b6005805473ffffffffffffffffffffffffffffffffffffffff8381167fffffffffffffffffffffffff0000000000000000000000000000000000000000831681179093556040519116919082907f8be0079c531659141344cd1fd0a4f28419497f9722a3daafe3b4186f6b6457e090600090a35050565b600060208083528351808285015260005b81811015610ead57858101830151858201604001528201610e91565b5060006040828601015260407fffffffffffffffffffffffffffffffffffffffffffffffffffffffffffffffe0601f8301168501019250505092915050565b803573ffffffffffffffffffffffffffffffffffffffff81168114610f1057600080fd5b919050565b60008060408385031215610f2857600080fd5b610f3183610eec565b946020939093013593505050565b600080600060608486031215610f5457600080fd5b610f5d84610eec565b9250610f6b60208501610eec565b9150604084013590509250925092565b600060208284031215610f8d57600080fd5b5035919050565b600060208284031215610fa657600080fd5b610faf82610eec565b9392505050565b60008060408385031215610fc957600080fd5b610fd283610eec565b9150610fe060208401610eec565b90509250929050565b600181811c90821680610ffd57607f821691505b602082108103611036577f4e487b7100000000000000000000000000000000000000000000000000000000600052602260045260246000fd5b50919050565b80820180821115610376577f4e487b7100000000000000000000000000000000000000000000000000000000600052601160045260246000fdfea26469706673582212203ebedec018f84ed631d77fa2b377c85b420590ada84e2b78bccf15f23a36ed7164736f6c63430008130033",
  "linkReferences": {},
  "deployedLinkReferences": {}
}