{
  "_format": "hh-sol-artifact-1",
  "contractName": "VaultEarlyWithdraw",
  "sourceName": "contracts/core/VaultEarlyWithdraw.sol",
  "abi": [
    {
      "inputs": [
        {
          "internalType": "address",
          "name": "_templeTokenAddress",
          "type": "address"
        },
        {
          "internalType": "address[]",
          "name": "_validVaults",
          "type": "address[]"
        }
      ],
      "stateMutability": "nonpayable",
      "type": "constructor"
    },
    {
      "inputs": [
        {
          "internalType": "address",
          "name": "_addr",
          "type": "address"
        }
      ],
      "name": "InvalidAddress",
      "type": "error"
    },
    {
      "inputs": [
        {
          "internalType": "address",
          "name": "_vaultAddress",
          "type": "address"
        }
      ],
      "name": "InvalidVault",
      "type": "error"
    },
    {
      "inputs": [],
      "name": "MinAmountNotMet",
      "type": "error"
    },
    {
      "inputs": [],
      "name": "SendFailed",
      "type": "error"
    },
    {
      "anonymous": false,
      "inputs": [
        {
          "indexed": true,
          "internalType": "address",
          "name": "addr",
          "type": "address"
        },
        {
          "indexed": false,
          "internalType": "uint256",
          "name": "amount",
          "type": "uint256"
        }
      ],
      "name": "EarlyWithdraw",
      "type": "event"
    },
    {
      "anonymous": false,
      "inputs": [
        {
          "indexed": false,
          "internalType": "uint256",
          "name": "amount",
          "type": "uint256"
        }
      ],
      "name": "MinWithdrawAmountSet",
      "type": "event"
    },
    {
      "anonymous": false,
      "inputs": [
        {
          "indexed": true,
          "internalType": "address",
          "name": "previousOwner",
          "type": "address"
        },
        {
          "indexed": true,
          "internalType": "address",
          "name": "newOwner",
          "type": "address"
        }
      ],
      "name": "OwnershipTransferred",
      "type": "event"
    },
    {
      "anonymous": false,
      "inputs": [
        {
          "indexed": false,
          "internalType": "address",
          "name": "account",
          "type": "address"
        }
      ],
      "name": "Paused",
      "type": "event"
    },
    {
      "anonymous": false,
      "inputs": [
        {
          "indexed": true,
          "internalType": "address",
          "name": "token",
          "type": "address"
        },
        {
          "indexed": true,
          "internalType": "address",
          "name": "to",
          "type": "address"
        },
        {
          "indexed": false,
          "internalType": "uint256",
          "name": "amount",
          "type": "uint256"
        }
      ],
      "name": "TokenRecovered",
      "type": "event"
    },
    {
      "anonymous": false,
      "inputs": [
        {
          "indexed": false,
          "internalType": "address",
          "name": "account",
          "type": "address"
        }
      ],
      "name": "Unpaused",
      "type": "event"
    },
    {
      "inputs": [],
      "name": "minWithdrawAmount",
      "outputs": [
        {
          "internalType": "uint256",
          "name": "",
          "type": "uint256"
        }
      ],
      "stateMutability": "view",
      "type": "function"
    },
    {
      "inputs": [],
      "name": "owner",
      "outputs": [
        {
          "internalType": "address",
          "name": "",
          "type": "address"
        }
      ],
      "stateMutability": "view",
      "type": "function"
    },
    {
      "inputs": [],
      "name": "pause",
      "outputs": [],
      "stateMutability": "nonpayable",
      "type": "function"
    },
    {
      "inputs": [],
      "name": "paused",
      "outputs": [
        {
          "internalType": "bool",
          "name": "",
          "type": "bool"
        }
      ],
      "stateMutability": "view",
      "type": "function"
    },
    {
      "inputs": [
        {
          "internalType": "address",
          "name": "token",
          "type": "address"
        },
        {
          "internalType": "address",
          "name": "to",
          "type": "address"
        },
        {
          "internalType": "uint256",
          "name": "amount",
          "type": "uint256"
        }
      ],
      "name": "recoverToken",
      "outputs": [],
      "stateMutability": "nonpayable",
      "type": "function"
    },
    {
      "inputs": [],
      "name": "renounceOwnership",
      "outputs": [],
      "stateMutability": "nonpayable",
      "type": "function"
    },
    {
      "inputs": [
        {
          "internalType": "uint256",
          "name": "amount",
          "type": "uint256"
        }
      ],
      "name": "setMinWithdrawAmount",
      "outputs": [],
      "stateMutability": "nonpayable",
      "type": "function"
    },
    {
      "inputs": [],
      "name": "templeToken",
      "outputs": [
        {
          "internalType": "contract IERC20",
          "name": "",
          "type": "address"
        }
      ],
      "stateMutability": "view",
      "type": "function"
    },
    {
      "inputs": [
        {
          "internalType": "address",
          "name": "newOwner",
          "type": "address"
        }
      ],
      "name": "transferOwnership",
      "outputs": [],
      "stateMutability": "nonpayable",
      "type": "function"
    },
    {
      "inputs": [],
      "name": "unpause",
      "outputs": [],
      "stateMutability": "nonpayable",
      "type": "function"
    },
    {
      "inputs": [
        {
          "internalType": "address",
          "name": "",
          "type": "address"
        }
      ],
      "name": "validVaults",
      "outputs": [
        {
          "internalType": "bool",
          "name": "",
          "type": "bool"
        }
      ],
      "stateMutability": "view",
      "type": "function"
    },
    {
      "inputs": [
        {
          "internalType": "address",
          "name": "_vault",
          "type": "address"
        },
        {
          "internalType": "uint256",
          "name": "_templeAmount",
          "type": "uint256"
        }
      ],
      "name": "withdraw",
      "outputs": [],
      "stateMutability": "nonpayable",
      "type": "function"
    }
  ],
  "bytecode": "0x60a06040526103e86002553480156200001757600080fd5b5060405162001114380380620011148339810160408190526200003a916200015d565b6000805460ff191690556200004f33620000d1565b6001600160a01b03821660805260005b8151811015620000c857600180600084848151811062000083576200008362000246565b6020908102919091018101516001600160a01b03168252810191909152604001600020805460ff1916911515919091179055620000c0816200025c565b90506200005f565b50505062000284565b600080546001600160a01b03838116610100818102610100600160a81b0319851617855560405193049190911692909183917f8be0079c531659141344cd1fd0a4f28419497f9722a3daafe3b4186f6b6457e091a35050565b80516001600160a01b03811681146200014257600080fd5b919050565b634e487b7160e01b600052604160045260246000fd5b600080604083850312156200017157600080fd5b6200017c836200012a565b602084810151919350906001600160401b03808211156200019c57600080fd5b818601915086601f830112620001b157600080fd5b815181811115620001c657620001c662000147565b8060051b604051601f19603f83011681018181108582111715620001ee57620001ee62000147565b6040529182528482019250838101850191898311156200020d57600080fd5b938501935b82851015620002365762000226856200012a565b8452938501939285019262000212565b8096505050505050509250929050565b634e487b7160e01b600052603260045260246000fd5b6000600182016200027d57634e487b7160e01b600052601160045260246000fd5b5060010190565b608051610e6d620002a7600039600081816101b8015261054a0152610e6d6000f3fe608060405234801561001057600080fd5b50600436106100d45760003560e01c80638456cb5911610081578063b1a9069c1161005b578063b1a9069c146101b3578063f2fde38b146101da578063f3fef3a3146101ed57600080fd5b80638456cb59146101545780638da5cb5b1461015c578063a7229fd9146101a057600080fd5b80635c975abb116100b25780635c975abb146101125780636657fc6714610129578063715018a61461014c57600080fd5b80633f4ba83a146100d9578063457e1a49146100e35780635abdb0dc146100ff575b600080fd5b6100e1610200565b005b6100ec60025481565b6040519081526020015b60405180910390f35b6100e161010d366004610cba565b610212565b60005460ff165b60405190151581526020016100f6565b610119610137366004610cfc565b60016020526000908152604090205460ff1681565b6100e1610255565b6100e1610267565b600054610100900473ffffffffffffffffffffffffffffffffffffffff165b60405173ffffffffffffffffffffffffffffffffffffffff90911681526020016100f6565b6100e16101ae366004610d1e565b610277565b61017b7f000000000000000000000000000000000000000000000000000000000000000081565b6100e16101e8366004610cfc565b610376565b6100e16101fb366004610d5a565b61042d565b6102086105aa565b610210610631565b565b61021a6105aa565b60028190556040518181527f755134315a797bb3da2a1dd9a4fe4183310c83d99e9b32ca94eb17d356a083e69060200160405180910390a150565b61025d6105aa565b61021060006106ae565b61026f6105aa565b61021061072b565b61027f6105aa565b73ffffffffffffffffffffffffffffffffffffffff82166102e9576040517f8e4c8aa600000000000000000000000000000000000000000000000000000000815273ffffffffffffffffffffffffffffffffffffffff831660048201526024015b60405180910390fd5b61030a73ffffffffffffffffffffffffffffffffffffffff84168383610786565b8173ffffffffffffffffffffffffffffffffffffffff168373ffffffffffffffffffffffffffffffffffffffff167f879f92dded0f26b83c3e00b12e0395dc72cfc3077343d1854ed6988edd1f90968360405161036991815260200190565b60405180910390a3505050565b61037e6105aa565b73ffffffffffffffffffffffffffffffffffffffff8116610421576040517f08c379a000000000000000000000000000000000000000000000000000000000815260206004820152602660248201527f4f776e61626c653a206e6577206f776e657220697320746865207a65726f206160448201527f646472657373000000000000000000000000000000000000000000000000000060648201526084016102e0565b61042a816106ae565b50565b61043561085f565b73ffffffffffffffffffffffffffffffffffffffff821660009081526001602052604090205460ff166104ac576040517faf7301ae00000000000000000000000000000000000000000000000000000000815273ffffffffffffffffffffffffffffffffffffffff831660048201526024016102e0565b6002548110156104e8576040517f2fe65d3d00000000000000000000000000000000000000000000000000000000815260040160405180910390fd5b6105303361051160005473ffffffffffffffffffffffffffffffffffffffff6101009091041690565b73ffffffffffffffffffffffffffffffffffffffff85169190846108cc565b61057173ffffffffffffffffffffffffffffffffffffffff7f0000000000000000000000000000000000000000000000000000000000000000163383610786565b60405181815233907f79273e16333ddc825a0d0ac202d9e533b62bc03870b7f8c978b30afad47efeca9060200160405180910390a25050565b60005473ffffffffffffffffffffffffffffffffffffffff610100909104163314610210576040517f08c379a000000000000000000000000000000000000000000000000000000000815260206004820181905260248201527f4f776e61626c653a2063616c6c6572206973206e6f7420746865206f776e657260448201526064016102e0565b610639610930565b600080547fffffffffffffffffffffffffffffffffffffffffffffffffffffffffffffff001690557f5db9ee0a495bf2e6ff9c91a7834c1ba4fdd244a5e8aa4e537bd38aeae4b073aa335b60405173ffffffffffffffffffffffffffffffffffffffff909116815260200160405180910390a1565b6000805473ffffffffffffffffffffffffffffffffffffffff8381166101008181027fffffffffffffffffffffff0000000000000000000000000000000000000000ff851617855560405193049190911692909183917f8be0079c531659141344cd1fd0a4f28419497f9722a3daafe3b4186f6b6457e091a35050565b61073361085f565b600080547fffffffffffffffffffffffffffffffffffffffffffffffffffffffffffffff001660011790557f62e78cea01bee320cd4e420270b5ea74000d11b0c9f74754ebdbfc544b05a2586106843390565b60405173ffffffffffffffffffffffffffffffffffffffff831660248201526044810182905261085a9084907fa9059cbb00000000000000000000000000000000000000000000000000000000906064015b604080517fffffffffffffffffffffffffffffffffffffffffffffffffffffffffffffffe08184030181529190526020810180517bffffffffffffffffffffffffffffffffffffffffffffffffffffffff167fffffffff000000000000000000000000000000000000000000000000000000009093169290921790915261099c565b505050565b60005460ff1615610210576040517f08c379a000000000000000000000000000000000000000000000000000000000815260206004820152601060248201527f5061757361626c653a207061757365640000000000000000000000000000000060448201526064016102e0565b60405173ffffffffffffffffffffffffffffffffffffffff8085166024830152831660448201526064810182905261092a9085907f23b872dd00000000000000000000000000000000000000000000000000000000906084016107d8565b50505050565b60005460ff16610210576040517f08c379a000000000000000000000000000000000000000000000000000000000815260206004820152601460248201527f5061757361626c653a206e6f742070617573656400000000000000000000000060448201526064016102e0565b60006109fe826040518060400160405280602081526020017f5361666545524332303a206c6f772d6c6576656c2063616c6c206661696c65648152508573ffffffffffffffffffffffffffffffffffffffff16610aab9092919063ffffffff16565b9050805160001480610a1f575080806020019051810190610a1f9190610d84565b61085a576040517f08c379a000000000000000000000000000000000000000000000000000000000815260206004820152602a60248201527f5361666545524332303a204552433230206f7065726174696f6e20646964206e60448201527f6f7420737563636565640000000000000000000000000000000000000000000060648201526084016102e0565b6060610aba8484600085610ac2565b949350505050565b606082471015610b54576040517f08c379a000000000000000000000000000000000000000000000000000000000815260206004820152602660248201527f416464726573733a20696e73756666696369656e742062616c616e636520666f60448201527f722063616c6c000000000000000000000000000000000000000000000000000060648201526084016102e0565b6000808673ffffffffffffffffffffffffffffffffffffffff168587604051610b7d9190610dca565b60006040518083038185875af1925050503d8060008114610bba576040519150601f19603f3d011682016040523d82523d6000602084013e610bbf565b606091505b5091509150610bd087838387610bdb565b979650505050505050565b60608315610c71578251600003610c6a5773ffffffffffffffffffffffffffffffffffffffff85163b610c6a576040517f08c379a000000000000000000000000000000000000000000000000000000000815260206004820152601d60248201527f416464726573733a2063616c6c20746f206e6f6e2d636f6e747261637400000060448201526064016102e0565b5081610aba565b610aba8383815115610c865781518083602001fd5b806040517f08c379a00000000000000000000000000000000000000000000000000000000081526004016102e09190610de6565b600060208284031215610ccc57600080fd5b5035919050565b803573ffffffffffffffffffffffffffffffffffffffff81168114610cf757600080fd5b919050565b600060208284031215610d0e57600080fd5b610d1782610cd3565b9392505050565b600080600060608486031215610d3357600080fd5b610d3c84610cd3565b9250610d4a60208501610cd3565b9150604084013590509250925092565b60008060408385031215610d6d57600080fd5b610d7683610cd3565b946020939093013593505050565b600060208284031215610d9657600080fd5b81518015158114610d1757600080fd5b60005b83811015610dc1578181015183820152602001610da9565b50506000910152565b60008251610ddc818460208701610da6565b9190910192915050565b6020815260008251806020840152610e05816040850160208701610da6565b601f017fffffffffffffffffffffffffffffffffffffffffffffffffffffffffffffffe016919091016040019291505056fea264697066735822122079ca258e92c2395efbaf8a9766f63c9026043db1194c3f93a5dbd2db177abec864736f6c63430008130033",
  "linkReferences": {},
  "deployedLinkReferences": {}
}