{
  "_format": "hh-sol-artifact-1",
  "contractName": "TreasuryPriceIndexOracle",
  "sourceName": "contracts/v2/TreasuryPriceIndexOracle.sol",
  "abi": [
    {
      "inputs": [
        {
          "internalType": "address",
          "name": "_initialRescuer",
          "type": "address"
        },
        {
          "internalType": "address",
          "name": "_initialExecutor",
          "type": "address"
        },
        {
          "internalType": "uint96",
          "name": "_initialTreasuryPriceIndex",
          "type": "uint96"
        },
        {
          "internalType": "uint256",
          "name": "_maxTreasuryPriceIndexDelta",
          "type": "uint256"
        },
        {
          "internalType": "uint32",
          "name": "_cooldownSecs",
          "type": "uint32"
        }
      ],
      "stateMutability": "nonpayable",
      "type": "constructor"
    },
    {
      "inputs": [
        {
          "internalType": "uint96",
          "name": "oldTpi",
          "type": "uint96"
        },
        {
          "internalType": "uint96",
          "name": "newTpi",
          "type": "uint96"
        },
        {
          "internalType": "uint256",
          "name": "maxDelta",
          "type": "uint256"
        }
      ],
      "name": "BreachedMaxTpiDelta",
      "type": "error"
    },
    {
      "inputs": [],
      "name": "InvalidAccess",
      "type": "error"
    },
    {
      "inputs": [],
      "name": "InvalidAddress",
      "type": "error"
    },
    {
      "anonymous": false,
      "inputs": [
        {
          "indexed": true,
          "internalType": "address",
          "name": "account",
          "type": "address"
        },
        {
          "indexed": true,
          "internalType": "bytes4",
          "name": "fnSelector",
          "type": "bytes4"
        },
        {
          "indexed": true,
          "internalType": "bool",
          "name": "value",
          "type": "bool"
        }
      ],
      "name": "ExplicitAccessSet",
      "type": "event"
    },
    {
      "anonymous": false,
      "inputs": [
        {
          "indexed": false,
          "internalType": "uint256",
          "name": "maxDelta",
          "type": "uint256"
        }
      ],
      "name": "MaxTreasuryPriceIndexDeltaSet",
      "type": "event"
    },
    {
      "anonymous": false,
      "inputs": [
        {
          "indexed": true,
          "internalType": "address",
          "name": "oldExecutor",
          "type": "address"
        },
        {
          "indexed": true,
          "internalType": "address",
          "name": "newExecutor",
          "type": "address"
        }
      ],
      "name": "NewExecutorAccepted",
      "type": "event"
    },
    {
      "anonymous": false,
      "inputs": [
        {
          "indexed": true,
          "internalType": "address",
          "name": "oldExecutor",
          "type": "address"
        },
        {
          "indexed": true,
          "internalType": "address",
          "name": "oldProposedExecutor",
          "type": "address"
        },
        {
          "indexed": true,
          "internalType": "address",
          "name": "newProposedExecutor",
          "type": "address"
        }
      ],
      "name": "NewExecutorProposed",
      "type": "event"
    },
    {
      "anonymous": false,
      "inputs": [
        {
          "indexed": true,
          "internalType": "address",
          "name": "oldRescuer",
          "type": "address"
        },
        {
          "indexed": true,
          "internalType": "address",
          "name": "newRescuer",
          "type": "address"
        }
      ],
      "name": "NewRescuerAccepted",
      "type": "event"
    },
    {
      "anonymous": false,
      "inputs": [
        {
          "indexed": true,
          "internalType": "address",
          "name": "oldRescuer",
          "type": "address"
        },
        {
          "indexed": true,
          "internalType": "address",
          "name": "oldProposedRescuer",
          "type": "address"
        },
        {
          "indexed": true,
          "internalType": "address",
          "name": "newProposedRescuer",
          "type": "address"
        }
      ],
      "name": "NewRescuerProposed",
      "type": "event"
    },
    {
      "anonymous": false,
      "inputs": [
        {
          "indexed": true,
          "internalType": "bool",
          "name": "value",
          "type": "bool"
        }
      ],
      "name": "RescueModeSet",
      "type": "event"
    },
    {
      "anonymous": false,
      "inputs": [
        {
          "indexed": false,
          "internalType": "uint32",
          "name": "cooldownSecs",
          "type": "uint32"
        }
      ],
      "name": "TpiCooldownSet",
      "type": "event"
    },
    {
      "anonymous": false,
      "inputs": [
        {
          "indexed": false,
          "internalType": "uint96",
          "name": "oldTpi",
          "type": "uint96"
        },
        {
          "indexed": false,
          "internalType": "uint96",
          "name": "newTpi",
          "type": "uint96"
        }
      ],
      "name": "TreasuryPriceIndexSet",
      "type": "event"
    },
    {
      "inputs": [],
      "name": "TPI_DECIMALS",
      "outputs": [
        {
          "internalType": "uint256",
          "name": "",
          "type": "uint256"
        }
      ],
      "stateMutability": "view",
      "type": "function"
    },
    {
      "inputs": [],
      "name": "acceptExecutor",
      "outputs": [],
      "stateMutability": "nonpayable",
      "type": "function"
    },
    {
      "inputs": [],
      "name": "acceptRescuer",
      "outputs": [],
      "stateMutability": "nonpayable",
      "type": "function"
    },
    {
      "inputs": [],
      "name": "executor",
      "outputs": [
        {
          "internalType": "address",
          "name": "",
          "type": "address"
        }
      ],
      "stateMutability": "view",
      "type": "function"
    },
    {
      "inputs": [
        {
          "internalType": "address",
          "name": "",
          "type": "address"
        },
        {
          "internalType": "bytes4",
          "name": "",
          "type": "bytes4"
        }
      ],
      "name": "explicitFunctionAccess",
      "outputs": [
        {
          "internalType": "bool",
          "name": "",
          "type": "bool"
        }
      ],
      "stateMutability": "view",
      "type": "function"
    },
    {
      "inputs": [],
      "name": "inRescueMode",
      "outputs": [
        {
          "internalType": "bool",
          "name": "",
          "type": "bool"
        }
      ],
      "stateMutability": "view",
      "type": "function"
    },
    {
      "inputs": [],
      "name": "maxTreasuryPriceIndexDelta",
      "outputs": [
        {
          "internalType": "uint256",
          "name": "",
          "type": "uint256"
        }
      ],
      "stateMutability": "view",
      "type": "function"
    },
    {
      "inputs": [
        {
          "internalType": "address",
          "name": "account",
          "type": "address"
        }
      ],
      "name": "proposeNewExecutor",
      "outputs": [],
      "stateMutability": "nonpayable",
      "type": "function"
    },
    {
      "inputs": [
        {
          "internalType": "address",
          "name": "account",
          "type": "address"
        }
      ],
      "name": "proposeNewRescuer",
      "outputs": [],
      "stateMutability": "nonpayable",
      "type": "function"
    },
    {
      "inputs": [],
      "name": "rescuer",
      "outputs": [
        {
          "internalType": "address",
          "name": "",
          "type": "address"
        }
      ],
      "stateMutability": "view",
      "type": "function"
    },
    {
      "inputs": [
        {
          "internalType": "address",
          "name": "allowedCaller",
          "type": "address"
        },
        {
          "components": [
            {
              "internalType": "bytes4",
              "name": "fnSelector",
              "type": "bytes4"
            },
            {
              "internalType": "bool",
              "name": "allowed",
              "type": "bool"
            }
          ],
          "internalType": "struct ITempleElevatedAccess.ExplicitAccess[]",
          "name": "access",
          "type": "tuple[]"
        }
      ],
      "name": "setExplicitAccess",
      "outputs": [],
      "stateMutability": "nonpayable",
      "type": "function"
    },
    {
      "inputs": [
        {
          "internalType": "uint256",
          "name": "maxDelta",
          "type": "uint256"
        }
      ],
      "name": "setMaxTreasuryPriceIndexDelta",
      "outputs": [],
      "stateMutability": "nonpayable",
      "type": "function"
    },
    {
      "inputs": [
        {
          "internalType": "bool",
          "name": "value",
          "type": "bool"
        }
      ],
      "name": "setRescueMode",
      "outputs": [],
      "stateMutability": "nonpayable",
      "type": "function"
    },
    {
      "inputs": [
        {
          "internalType": "uint32",
          "name": "cooldownSecs",
          "type": "uint32"
        }
      ],
      "name": "setTpiCooldown",
      "outputs": [],
      "stateMutability": "nonpayable",
      "type": "function"
    },
    {
      "inputs": [
        {
          "internalType": "uint96",
          "name": "value",
          "type": "uint96"
        }
      ],
      "name": "setTreasuryPriceIndex",
      "outputs": [],
      "stateMutability": "nonpayable",
      "type": "function"
    },
    {
      "inputs": [],
      "name": "tpiData",
      "outputs": [
        {
          "internalType": "uint96",
          "name": "currentTpi",
          "type": "uint96"
        },
        {
          "internalType": "uint96",
          "name": "previousTpi",
          "type": "uint96"
        },
        {
          "internalType": "uint32",
          "name": "lastUpdatedAt",
          "type": "uint32"
        },
        {
          "internalType": "uint32",
          "name": "cooldownSecs",
          "type": "uint32"
        }
      ],
      "stateMutability": "view",
      "type": "function"
    },
    {
      "inputs": [],
      "name": "treasuryPriceIndex",
      "outputs": [
        {
          "internalType": "uint96",
          "name": "",
          "type": "uint96"
        }
      ],
      "stateMutability": "view",
      "type": "function"
    }
  ],
  "bytecode": "0x60806040523480156200001157600080fd5b506040516200159a3803806200159a833981016040819052620000349162000199565b84846001600160a01b0382166200005e5760405163e6c4247b60e01b815260040160405180910390fd5b6001600160a01b038116620000865760405163e6c4247b60e01b815260040160405180910390fd5b816001600160a01b0316816001600160a01b031603620000b95760405163e6c4247b60e01b815260040160405180910390fd5b600080546001600160a01b03199081166001600160a01b03948516179091556001805490911691909216179055604080516080810182526001600160601b0394909416808552602085018190524263ffffffff908116928601839052929092166060909401849052600580546001600160c01b03191683176c01000000000000000000000000909302929092176001600160c01b0316600160c01b9091026001600160e01b031617600160e01b90930292909217909155600655506200021b9050565b80516001600160a01b03811681146200019457600080fd5b919050565b600080600080600060a08688031215620001b257600080fd5b620001bd866200017c565b9450620001cd602087016200017c565b60408701519094506001600160601b0381168114620001eb57600080fd5b60608701516080880151919450925063ffffffff811681146200020d57600080fd5b809150509295509295909350565b61136f806200022b6000396000f3fe608060405234801561001057600080fd5b506004361061011b5760003560e01c80638f320cef116100b2578063c34c08e511610081578063d9a349c111610066578063d9a349c11461030c578063daeccc791461031f578063df2e55961461034d57600080fd5b8063c34c08e51461023c578063d4353b7d1461025c57600080fd5b80638f320cef146101e85780639ed384f1146101fb578063a47a448414610220578063bfccf0ec1461022957600080fd5b806338a63183116100ee57806338a631831461017257806341400be1146101b75780635e468f40146101cd5780638112c4af146101e057600080fd5b8063032ef9011461012057806307f184f1146101355780631810fe7f146101485780631f2114051461016a575b600080fd5b61013361012e366004611046565b610360565b005b61013361014336600461108c565b61040f565b6003546101559060ff1681565b60405190151581526020015b60405180910390f35b610133610547565b6000546101929073ffffffffffffffffffffffffffffffffffffffff1681565b60405173ffffffffffffffffffffffffffffffffffffffff9091168152602001610161565b6101bf601281565b604051908152602001610161565b6101336101db3660046110a7565b610666565b6101336108bb565b6101336101f63660046110d5565b6109fb565b610203610aeb565b6040516bffffffffffffffffffffffff9091168152602001610161565b6101bf60065481565b6101336102373660046110fb565b610b85565b6001546101929073ffffffffffffffffffffffffffffffffffffffff1681565b6005546102d0906bffffffffffffffffffffffff808216916c0100000000000000000000000081049091169063ffffffff780100000000000000000000000000000000000000000000000082048116917c010000000000000000000000000000000000000000000000000000000090041684565b604080516bffffffffffffffffffffffff958616815294909316602085015263ffffffff91821692840192909252166060820152608001610161565b61013361031a36600461108c565b610d8c565b61015561032d3660046111b1565b600260209081526000928352604080842090915290825290205460ff1681565b61013361035b3660046111e4565b610ed1565b60005473ffffffffffffffffffffffffffffffffffffffff1633146103b1576040517fc0185c6400000000000000000000000000000000000000000000000000000000815260040160405180910390fd5b604051811515907f18f4a9a726c72020fd959c636d2fd464c6cefe90afeaea3c830b971614cf70b690600090a2600380547fffffffffffffffffffffffffffffffffffffffffffffffffffffffffffffff0016911515919091179055565b60005473ffffffffffffffffffffffffffffffffffffffff163314610460576040517fc0185c6400000000000000000000000000000000000000000000000000000000815260040160405180910390fd5b73ffffffffffffffffffffffffffffffffffffffff81166104ad576040517fe6c4247b00000000000000000000000000000000000000000000000000000000815260040160405180910390fd5b60035460405173ffffffffffffffffffffffffffffffffffffffff808416926101009004169033907f374d23b359cab0f8963c5c1715a6de7974f53af00aecc27de50d93906b70943e90600090a46003805473ffffffffffffffffffffffffffffffffffffffff909216610100027fffffffffffffffffffffff0000000000000000000000000000000000000000ff909216919091179055565b60045473ffffffffffffffffffffffffffffffffffffffff163314610598576040517fc0185c6400000000000000000000000000000000000000000000000000000000815260040160405180910390fd5b60005473ffffffffffffffffffffffffffffffffffffffff1633036105e9576040517fe6c4247b00000000000000000000000000000000000000000000000000000000815260040160405180910390fd5b600154604051339173ffffffffffffffffffffffffffffffffffffffff16907fe963dc9c0d2165b080440a5d2665566142f2426b1ea15f3da8390b0fd336b06490600090a3600180547fffffffffffffffffffffffff00000000000000000000000000000000000000009081163317909155600480549091169055565b610694336000357fffffffff0000000000000000000000000000000000000000000000000000000016610f6d565b6106ca576040517fc0185c6400000000000000000000000000000000000000000000000000000000815260040160405180910390fd5b60006106d4610aeb565b90508160006bffffffffffffffffffffffff808416908316116106f9578183036106fd565b8282035b6bffffffffffffffffffffffff169050600654811115610770576006546040517f19c8e1630000000000000000000000000000000000000000000000000000000081526bffffffffffffffffffffffff808616600483015284166024820152604481019190915260640160405180910390fd5b50604080516bffffffffffffffffffffffff8085168252831660208201527feae3d871f50c7f047f66aa3f130df7207a4765b71fad6a5ce3b133ccaaf51a41910160405180910390a1604080516080810182526bffffffffffffffffffffffff92831680825293909216602083018190524263ffffffff908116928401839052600580547c010000000000000000000000000000000000000000000000000000000080820490931660609096018690527fffffffffffffffff000000000000000000000000000000000000000000000000169095176c010000000000000000000000009092029190911777ffffffffffffffffffffffffffffffffffffffffffffffff1678010000000000000000000000000000000000000000000000009092027bffffffffffffffffffffffffffffffffffffffffffffffffffffffff1691909117910217905550565b600354610100900473ffffffffffffffffffffffffffffffffffffffff163314610911576040517fc0185c6400000000000000000000000000000000000000000000000000000000815260040160405180910390fd5b60015473ffffffffffffffffffffffffffffffffffffffff163303610962576040517fe6c4247b00000000000000000000000000000000000000000000000000000000815260040160405180910390fd5b60008054604051339273ffffffffffffffffffffffffffffffffffffffff909216917ff07131157ebea15896dc89264eb9a7572e67cc9fad6b855015730fcec10704e091a3600080547fffffffffffffffffffffffff00000000000000000000000000000000000000001633179055600380547fffffffffffffffffffffff0000000000000000000000000000000000000000ff169055565b610a29336000357fffffffff0000000000000000000000000000000000000000000000000000000016610f6d565b610a5f576040517fc0185c6400000000000000000000000000000000000000000000000000000000815260040160405180910390fd5b60405163ffffffff821681527f140cd3b3be0b8001c79be56b82e3db11347fadfa65b70f340f8cd41827764ff89060200160405180910390a16005805463ffffffff9092167c0100000000000000000000000000000000000000000000000000000000027bffffffffffffffffffffffffffffffffffffffffffffffffffffffff909216919091179055565b600554600090610b3f9063ffffffff7c01000000000000000000000000000000000000000000000000000000008204811691780100000000000000000000000000000000000000000000000090041661122c565b63ffffffff164210610b6057506005546bffffffffffffffffffffffff1690565b506005546c0100000000000000000000000090046bffffffffffffffffffffffff1690565b610bb3336000357fffffffff0000000000000000000000000000000000000000000000000000000016610f6d565b610be9576040517fc0185c6400000000000000000000000000000000000000000000000000000000815260040160405180910390fd5b73ffffffffffffffffffffffffffffffffffffffff8316610c36576040517fe6c4247b00000000000000000000000000000000000000000000000000000000815260040160405180910390fd5b6040805180820190915260008082526020820152819060005b82811015610d8457848482818110610c6957610c69611250565b905060400201803603810190610c7f919061127f565b91508160200151151582600001517bffffffffffffffffffffffffffffffffffffffffffffffffffffffff19168773ffffffffffffffffffffffffffffffffffffffff167ff5736e75de2c751f775d4c5ed517289f77074f8c337f451ba4c0c3ed1dd7f9ad60405160405180910390a460208281015173ffffffffffffffffffffffffffffffffffffffff8816600090815260028352604080822086517fffffffff000000000000000000000000000000000000000000000000000000001683529093529190912080547fffffffffffffffffffffffffffffffffffffffffffffffffffffffffffffff0016911515919091179055610d7d81611301565b9050610c4f565b505050505050565b610dba336000357fffffffff0000000000000000000000000000000000000000000000000000000016610f6d565b610df0576040517fc0185c6400000000000000000000000000000000000000000000000000000000815260040160405180910390fd5b73ffffffffffffffffffffffffffffffffffffffff8116610e3d576040517fe6c4247b00000000000000000000000000000000000000000000000000000000815260040160405180910390fd5b60045460015460405173ffffffffffffffffffffffffffffffffffffffff8085169381169216907f4857570a90fe0a0fc580e89a287e77576141ac8e2e8b3710cd26db44f44156c190600090a4600480547fffffffffffffffffffffffff00000000000000000000000000000000000000001673ffffffffffffffffffffffffffffffffffffffff92909216919091179055565b610eff336000357fffffffff0000000000000000000000000000000000000000000000000000000016610f6d565b610f35576040517fc0185c6400000000000000000000000000000000000000000000000000000000815260040160405180910390fd5b6040518181527fd888630b64a96cdd97f6fe3cf4f36a554f728804c3fb7e96b9b62a10b811ed0b9060200160405180910390a1600655565b60035460009060ff1615610f9f575060005473ffffffffffffffffffffffffffffffffffffffff83811691161461102b565b60015473ffffffffffffffffffffffffffffffffffffffff8481169116148061101a575073ffffffffffffffffffffffffffffffffffffffff831660009081526002602090815260408083207fffffffff000000000000000000000000000000000000000000000000000000008616845290915290205460ff165b156110275750600161102b565b5060005b92915050565b8035801515811461104157600080fd5b919050565b60006020828403121561105857600080fd5b61106182611031565b9392505050565b803573ffffffffffffffffffffffffffffffffffffffff8116811461104157600080fd5b60006020828403121561109e57600080fd5b61106182611068565b6000602082840312156110b957600080fd5b81356bffffffffffffffffffffffff8116811461106157600080fd5b6000602082840312156110e757600080fd5b813563ffffffff8116811461106157600080fd5b60008060006040848603121561111057600080fd5b61111984611068565b9250602084013567ffffffffffffffff8082111561113657600080fd5b818601915086601f83011261114a57600080fd5b81358181111561115957600080fd5b8760208260061b850101111561116e57600080fd5b6020830194508093505050509250925092565b80357fffffffff000000000000000000000000000000000000000000000000000000008116811461104157600080fd5b600080604083850312156111c457600080fd5b6111cd83611068565b91506111db60208401611181565b90509250929050565b6000602082840312156111f657600080fd5b5035919050565b7f4e487b7100000000000000000000000000000000000000000000000000000000600052601160045260246000fd5b63ffffffff818116838216019080821115611249576112496111fd565b5092915050565b7f4e487b7100000000000000000000000000000000000000000000000000000000600052603260045260246000fd5b60006040828403121561129157600080fd5b6040516040810181811067ffffffffffffffff821117156112db577f4e487b7100000000000000000000000000000000000000000000000000000000600052604160045260246000fd5b6040526112e783611181565b81526112f560208401611031565b60208201529392505050565b60007fffffffffffffffffffffffffffffffffffffffffffffffffffffffffffffffff8203611332576113326111fd565b506001019056fea2646970667358221220fe501ffc794c55bcb1757dd08b31c52660d78c85393690d30c755b0ddd10f26764736f6c63430008130033",
  "linkReferences": {},
  "deployedLinkReferences": {}
}