{
  "_format": "hh-sol-artifact-1",
  "contractName": "TemplarMetadata",
  "sourceName": "contracts/governance/TemplarMetadata.sol",
  "abi": [
    {
      "inputs": [
        {
          "internalType": "contract Templar",
          "name": "_templars",
          "type": "address"
        }
      ],
      "stateMutability": "nonpayable",
      "type": "constructor"
    },
    {
      "anonymous": false,
      "inputs": [
        {
          "indexed": true,
          "internalType": "bytes32",
          "name": "role",
          "type": "bytes32"
        },
        {
          "indexed": true,
          "internalType": "bytes32",
          "name": "previousAdminRole",
          "type": "bytes32"
        },
        {
          "indexed": true,
          "internalType": "bytes32",
          "name": "newAdminRole",
          "type": "bytes32"
        }
      ],
      "name": "RoleAdminChanged",
      "type": "event"
    },
    {
      "anonymous": false,
      "inputs": [
        {
          "indexed": true,
          "internalType": "bytes32",
          "name": "role",
          "type": "bytes32"
        },
        {
          "indexed": true,
          "internalType": "address",
          "name": "account",
          "type": "address"
        },
        {
          "indexed": true,
          "internalType": "address",
          "name": "sender",
          "type": "address"
        }
      ],
      "name": "RoleGranted",
      "type": "event"
    },
    {
      "anonymous": false,
      "inputs": [
        {
          "indexed": true,
          "internalType": "bytes32",
          "name": "role",
          "type": "bytes32"
        },
        {
          "indexed": true,
          "internalType": "address",
          "name": "account",
          "type": "address"
        },
        {
          "indexed": true,
          "internalType": "address",
          "name": "sender",
          "type": "address"
        }
      ],
      "name": "RoleRevoked",
      "type": "event"
    },
    {
      "anonymous": false,
      "inputs": [
        {
          "indexed": true,
          "internalType": "uint256",
          "name": "discordId",
          "type": "uint256"
        },
        {
          "indexed": false,
          "internalType": "string",
          "name": "templeRole",
          "type": "string"
        }
      ],
      "name": "UpdateTempleRole",
      "type": "event"
    },
    {
      "inputs": [],
      "name": "CAN_UPDATE",
      "outputs": [
        {
          "internalType": "bytes32",
          "name": "",
          "type": "bytes32"
        }
      ],
      "stateMutability": "view",
      "type": "function"
    },
    {
      "inputs": [],
      "name": "DEFAULT_ADMIN_ROLE",
      "outputs": [
        {
          "internalType": "bytes32",
          "name": "",
          "type": "bytes32"
        }
      ],
      "stateMutability": "view",
      "type": "function"
    },
    {
      "inputs": [
        {
          "internalType": "bytes32",
          "name": "role",
          "type": "bytes32"
        }
      ],
      "name": "getRoleAdmin",
      "outputs": [
        {
          "internalType": "bytes32",
          "name": "",
          "type": "bytes32"
        }
      ],
      "stateMutability": "view",
      "type": "function"
    },
    {
      "inputs": [
        {
          "internalType": "bytes32",
          "name": "role",
          "type": "bytes32"
        },
        {
          "internalType": "address",
          "name": "account",
          "type": "address"
        }
      ],
      "name": "grantRole",
      "outputs": [],
      "stateMutability": "nonpayable",
      "type": "function"
    },
    {
      "inputs": [
        {
          "internalType": "bytes32",
          "name": "role",
          "type": "bytes32"
        },
        {
          "internalType": "address",
          "name": "account",
          "type": "address"
        }
      ],
      "name": "hasRole",
      "outputs": [
        {
          "internalType": "bool",
          "name": "",
          "type": "bool"
        }
      ],
      "stateMutability": "view",
      "type": "function"
    },
    {
      "inputs": [
        {
          "internalType": "bytes32",
          "name": "role",
          "type": "bytes32"
        },
        {
          "internalType": "address",
          "name": "account",
          "type": "address"
        }
      ],
      "name": "renounceRole",
      "outputs": [],
      "stateMutability": "nonpayable",
      "type": "function"
    },
    {
      "inputs": [
        {
          "internalType": "bytes32",
          "name": "role",
          "type": "bytes32"
        },
        {
          "internalType": "address",
          "name": "account",
          "type": "address"
        }
      ],
      "name": "revokeRole",
      "outputs": [],
      "stateMutability": "nonpayable",
      "type": "function"
    },
    {
      "inputs": [
        {
          "internalType": "uint256",
          "name": "discordId",
          "type": "uint256"
        },
        {
          "internalType": "string",
          "name": "_templeRole",
          "type": "string"
        }
      ],
      "name": "setRole",
      "outputs": [],
      "stateMutability": "nonpayable",
      "type": "function"
    },
    {
      "inputs": [
        {
          "internalType": "bytes4",
          "name": "interfaceId",
          "type": "bytes4"
        }
      ],
      "name": "supportsInterface",
      "outputs": [
        {
          "internalType": "bool",
          "name": "",
          "type": "bool"
        }
      ],
      "stateMutability": "view",
      "type": "function"
    },
    {
      "inputs": [],
      "name": "templars",
      "outputs": [
        {
          "internalType": "contract Templar",
          "name": "",
          "type": "address"
        }
      ],
      "stateMutability": "view",
      "type": "function"
    },
    {
      "inputs": [
        {
          "internalType": "uint256",
          "name": "",
          "type": "uint256"
        }
      ],
      "name": "templeRole",
      "outputs": [
        {
          "internalType": "string",
          "name": "",
          "type": "string"
        }
      ],
      "stateMutability": "view",
      "type": "function"
    }
  ],
  "bytecode": "0x608060405234801561001057600080fd5b506040516111ff3803806111ff83398101604081905261002f916100fa565b600280546001600160a01b0319166001600160a01b03831617905561005560003361005b565b5061012a565b6000828152602081815260408083206001600160a01b038516845290915290205460ff166100f6576000828152602081815260408083206001600160a01b03851684529091529020805460ff191660011790556100b53390565b6001600160a01b0316816001600160a01b0316837f2f8788117e7eff1d82e926ec794901d17c78024a50270940304540a733656f0d60405160405180910390a45b5050565b60006020828403121561010c57600080fd5b81516001600160a01b038116811461012357600080fd5b9392505050565b6110c6806101396000396000f3fe608060405234801561001057600080fd5b50600436106100c95760003560e01c806362475fe411610081578063adb8ce4b1161005b578063adb8ce4b14610200578063b1945a4914610227578063d547741f1461023a57600080fd5b806362475fe41461016f57806391d14854146101b4578063a217fddf146101f857600080fd5b80632f2ff15d116100b25780632f2ff15d1461012757806336568abe1461013c5780634c846d8a1461014f57600080fd5b806301ffc9a7146100ce578063248a9ca3146100f6575b600080fd5b6100e16100dc366004610ae1565b61024d565b60405190151581526020015b60405180910390f35b610119610104366004610b23565b60009081526020819052604090206001015490565b6040519081526020016100ed565b61013a610135366004610b3c565b6102e6565b005b61013a61014a366004610b3c565b610310565b61016261015d366004610b23565b6103c8565b6040516100ed9190610ba9565b60025461018f9073ffffffffffffffffffffffffffffffffffffffff1681565b60405173ffffffffffffffffffffffffffffffffffffffff90911681526020016100ed565b6100e16101c2366004610b3c565b60009182526020828152604080842073ffffffffffffffffffffffffffffffffffffffff93909316845291905290205460ff1690565b610119600081565b6101197fec0223fa751197ea5595bdbb395d84cba45b7cf50a5dac2e95b1a7e811fed48181565b61013a610235366004610bfa565b610462565b61013a610248366004610b3c565b6105e7565b60007fffffffff0000000000000000000000000000000000000000000000000000000082167f7965db0b0000000000000000000000000000000000000000000000000000000014806102e057507f01ffc9a7000000000000000000000000000000000000000000000000000000007fffffffff000000000000000000000000000000000000000000000000000000008316145b92915050565b6000828152602081905260409020600101546103018161060c565b61030b8383610619565b505050565b73ffffffffffffffffffffffffffffffffffffffff811633146103ba576040517f08c379a000000000000000000000000000000000000000000000000000000000815260206004820152602f60248201527f416363657373436f6e74726f6c3a2063616e206f6e6c792072656e6f756e636560448201527f20726f6c657320666f722073656c66000000000000000000000000000000000060648201526084015b60405180910390fd5b6103c48282610709565b5050565b600160205260009081526040902080546103e190610c76565b80601f016020809104026020016040519081016040528092919081815260200182805461040d90610c76565b801561045a5780601f1061042f5761010080835404028352916020019161045a565b820191906000526020600020905b81548152906001019060200180831161043d57829003601f168201915b505050505081565b7fec0223fa751197ea5595bdbb395d84cba45b7cf50a5dac2e95b1a7e811fed48161048c8161060c565b6002546040517f0e2e44e80000000000000000000000000000000000000000000000000000000081526004810186905273ffffffffffffffffffffffffffffffffffffffff90911690630e2e44e89060240160006040518083038186803b1580156104f657600080fd5b505afa15801561050a573d6000803e3d6000fd5b505050508282604051602001610521929190610cc9565b604080517fffffffffffffffffffffffffffffffffffffffffffffffffffffffffffffffe08184030181528282528051602091820120600088815260018352929092209192610571929101610cd9565b60405160208183030381529060405280519060200120146105e15760008481526001602052604090206105a5838583610dea565b50837f8cd835d1bfe29714c85ccb882e3d41c5ad29aa51270d6d157946a2bcb18d8b2484846040516105d8929190610f05565b60405180910390a25b50505050565b6000828152602081905260409020600101546106028161060c565b61030b8383610709565b61061681336107c0565b50565b60008281526020818152604080832073ffffffffffffffffffffffffffffffffffffffff8516845290915290205460ff166103c45760008281526020818152604080832073ffffffffffffffffffffffffffffffffffffffff85168452909152902080547fffffffffffffffffffffffffffffffffffffffffffffffffffffffffffffff001660011790556106ab3390565b73ffffffffffffffffffffffffffffffffffffffff168173ffffffffffffffffffffffffffffffffffffffff16837f2f8788117e7eff1d82e926ec794901d17c78024a50270940304540a733656f0d60405160405180910390a45050565b60008281526020818152604080832073ffffffffffffffffffffffffffffffffffffffff8516845290915290205460ff16156103c45760008281526020818152604080832073ffffffffffffffffffffffffffffffffffffffff8516808552925280832080547fffffffffffffffffffffffffffffffffffffffffffffffffffffffffffffff0016905551339285917ff6391f5c32d9c69d2a47ea670b442974b53935d1edc7fd64eb21e047a839171b9190a45050565b60008281526020818152604080832073ffffffffffffffffffffffffffffffffffffffff8516845290915290205460ff166103c4576107fe81610878565b610809836020610897565b60405160200161081a929190610f52565b604080517fffffffffffffffffffffffffffffffffffffffffffffffffffffffffffffffe0818403018152908290527f08c379a00000000000000000000000000000000000000000000000000000000082526103b191600401610ba9565b60606102e073ffffffffffffffffffffffffffffffffffffffff831660145b606060006108a6836002611002565b6108b1906002611019565b67ffffffffffffffff8111156108c9576108c9610d6d565b6040519080825280601f01601f1916602001820160405280156108f3576020820181803683370190505b5090507f30000000000000000000000000000000000000000000000000000000000000008160008151811061092a5761092a61102c565b60200101907effffffffffffffffffffffffffffffffffffffffffffffffffffffffffffff1916908160001a9053507f78000000000000000000000000000000000000000000000000000000000000008160018151811061098d5761098d61102c565b60200101907effffffffffffffffffffffffffffffffffffffffffffffffffffffffffffff1916908160001a90535060006109c9846002611002565b6109d4906001611019565b90505b6001811115610a71577f303132333435363738396162636465660000000000000000000000000000000085600f1660108110610a1557610a1561102c565b1a60f81b828281518110610a2b57610a2b61102c565b60200101907effffffffffffffffffffffffffffffffffffffffffffffffffffffffffffff1916908160001a90535060049490941c93610a6a8161105b565b90506109d7565b508315610ada576040517f08c379a000000000000000000000000000000000000000000000000000000000815260206004820181905260248201527f537472696e67733a20686578206c656e67746820696e73756666696369656e7460448201526064016103b1565b9392505050565b600060208284031215610af357600080fd5b81357fffffffff0000000000000000000000000000000000000000000000000000000081168114610ada57600080fd5b600060208284031215610b3557600080fd5b5035919050565b60008060408385031215610b4f57600080fd5b82359150602083013573ffffffffffffffffffffffffffffffffffffffff81168114610b7a57600080fd5b809150509250929050565b60005b83811015610ba0578181015183820152602001610b88565b50506000910152565b6020815260008251806020840152610bc8816040850160208701610b85565b601f017fffffffffffffffffffffffffffffffffffffffffffffffffffffffffffffffe0169190910160400192915050565b600080600060408486031215610c0f57600080fd5b83359250602084013567ffffffffffffffff80821115610c2e57600080fd5b818601915086601f830112610c4257600080fd5b813581811115610c5157600080fd5b876020828501011115610c6357600080fd5b6020830194508093505050509250925092565b600181811c90821680610c8a57607f821691505b602082108103610cc3577f4e487b7100000000000000000000000000000000000000000000000000000000600052602260045260246000fd5b50919050565b8183823760009101908152919050565b6000808354610ce781610c76565b60018281168015610cff5760018114610d3257610d61565b7fffffffffffffffffffffffffffffffffffffffffffffffffffffffffffffff0084168752821515830287019450610d61565b8760005260208060002060005b85811015610d585781548a820152908401908201610d3f565b50505082870194505b50929695505050505050565b7f4e487b7100000000000000000000000000000000000000000000000000000000600052604160045260246000fd5b601f82111561030b57600081815260208120601f850160051c81016020861015610dc35750805b601f850160051c820191505b81811015610de257828155600101610dcf565b505050505050565b67ffffffffffffffff831115610e0257610e02610d6d565b610e1683610e108354610c76565b83610d9c565b6000601f841160018114610e685760008515610e325750838201355b7fffffffffffffffffffffffffffffffffffffffffffffffffffffffffffffffff600387901b1c1916600186901b178355610efe565b6000838152602090207fffffffffffffffffffffffffffffffffffffffffffffffffffffffffffffffe0861690835b82811015610eb75786850135825560209485019460019092019101610e97565b5086821015610ef2577fffffffffffffffffffffffffffffffffffffffffffffffffffffffffffffffff60f88860031b161c19848701351681555b505060018560011b0183555b5050505050565b60208152816020820152818360408301376000818301604090810191909152601f9092017fffffffffffffffffffffffffffffffffffffffffffffffffffffffffffffffe0160101919050565b7f416363657373436f6e74726f6c3a206163636f756e7420000000000000000000815260008351610f8a816017850160208801610b85565b7f206973206d697373696e6720726f6c65200000000000000000000000000000006017918401918201528351610fc7816028840160208801610b85565b01602801949350505050565b7f4e487b7100000000000000000000000000000000000000000000000000000000600052601160045260246000fd5b80820281158282048414176102e0576102e0610fd3565b808201808211156102e0576102e0610fd3565b7f4e487b7100000000000000000000000000000000000000000000000000000000600052603260045260246000fd5b60008161106a5761106a610fd3565b507fffffffffffffffffffffffffffffffffffffffffffffffffffffffffffffffff019056fea2646970667358221220ab183a074057998b29528540bda40b0f30c6a163d585749149f2ea0e2c953bc064736f6c63430008130033",
  "linkReferences": {},
  "deployedLinkReferences": {}
}