{
  "_format": "hh-sol-artifact-1",
  "contractName": "TempleGoldAdmin",
  "sourceName": "contracts/templegold/TempleGoldAdmin.sol",
  "abi": [
    {
      "inputs": [
        {
          "internalType": "address",
          "name": "_rescuer",
          "type": "address"
        },
        {
          "internalType": "address",
          "name": "_executor",
          "type": "address"
        },
        {
          "internalType": "address",
          "name": "_templeGold",
          "type": "address"
        }
      ],
      "stateMutability": "nonpayable",
      "type": "constructor"
    },
    {
      "inputs": [],
      "name": "InvalidAccess",
      "type": "error"
    },
    {
      "inputs": [],
      "name": "InvalidAddress",
      "type": "error"
    },
    {
      "anonymous": false,
      "inputs": [
        {
          "indexed": true,
          "internalType": "address",
          "name": "account",
          "type": "address"
        },
        {
          "indexed": true,
          "internalType": "bytes4",
          "name": "fnSelector",
          "type": "bytes4"
        },
        {
          "indexed": true,
          "internalType": "bool",
          "name": "value",
          "type": "bool"
        }
      ],
      "name": "ExplicitAccessSet",
      "type": "event"
    },
    {
      "anonymous": false,
      "inputs": [
        {
          "indexed": true,
          "internalType": "address",
          "name": "oldExecutor",
          "type": "address"
        },
        {
          "indexed": true,
          "internalType": "address",
          "name": "newExecutor",
          "type": "address"
        }
      ],
      "name": "NewExecutorAccepted",
      "type": "event"
    },
    {
      "anonymous": false,
      "inputs": [
        {
          "indexed": true,
          "internalType": "address",
          "name": "oldExecutor",
          "type": "address"
        },
        {
          "indexed": true,
          "internalType": "address",
          "name": "oldProposedExecutor",
          "type": "address"
        },
        {
          "indexed": true,
          "internalType": "address",
          "name": "newProposedExecutor",
          "type": "address"
        }
      ],
      "name": "NewExecutorProposed",
      "type": "event"
    },
    {
      "anonymous": false,
      "inputs": [
        {
          "indexed": true,
          "internalType": "address",
          "name": "oldRescuer",
          "type": "address"
        },
        {
          "indexed": true,
          "internalType": "address",
          "name": "newRescuer",
          "type": "address"
        }
      ],
      "name": "NewRescuerAccepted",
      "type": "event"
    },
    {
      "anonymous": false,
      "inputs": [
        {
          "indexed": true,
          "internalType": "address",
          "name": "oldRescuer",
          "type": "address"
        },
        {
          "indexed": true,
          "internalType": "address",
          "name": "oldProposedRescuer",
          "type": "address"
        },
        {
          "indexed": true,
          "internalType": "address",
          "name": "newProposedRescuer",
          "type": "address"
        }
      ],
      "name": "NewRescuerProposed",
      "type": "event"
    },
    {
      "anonymous": false,
      "inputs": [
        {
          "indexed": true,
          "internalType": "bool",
          "name": "value",
          "type": "bool"
        }
      ],
      "name": "RescueModeSet",
      "type": "event"
    },
    {
      "inputs": [],
      "name": "acceptExecutor",
      "outputs": [],
      "stateMutability": "nonpayable",
      "type": "function"
    },
    {
      "inputs": [],
      "name": "acceptRescuer",
      "outputs": [],
      "stateMutability": "nonpayable",
      "type": "function"
    },
    {
      "inputs": [
        {
          "internalType": "address",
          "name": "_contract",
          "type": "address"
        },
        {
          "internalType": "bool",
          "name": "_whitelist",
          "type": "bool"
        }
      ],
      "name": "authorizeContract",
      "outputs": [],
      "stateMutability": "nonpayable",
      "type": "function"
    },
    {
      "inputs": [],
      "name": "executor",
      "outputs": [
        {
          "internalType": "address",
          "name": "",
          "type": "address"
        }
      ],
      "stateMutability": "view",
      "type": "function"
    },
    {
      "inputs": [
        {
          "internalType": "address",
          "name": "",
          "type": "address"
        },
        {
          "internalType": "bytes4",
          "name": "",
          "type": "bytes4"
        }
      ],
      "name": "explicitFunctionAccess",
      "outputs": [
        {
          "internalType": "bool",
          "name": "",
          "type": "bool"
        }
      ],
      "stateMutability": "view",
      "type": "function"
    },
    {
      "inputs": [],
      "name": "inRescueMode",
      "outputs": [
        {
          "internalType": "bool",
          "name": "",
          "type": "bool"
        }
      ],
      "stateMutability": "view",
      "type": "function"
    },
    {
      "inputs": [
        {
          "internalType": "address",
          "name": "account",
          "type": "address"
        }
      ],
      "name": "proposeNewExecutor",
      "outputs": [],
      "stateMutability": "nonpayable",
      "type": "function"
    },
    {
      "inputs": [
        {
          "internalType": "address",
          "name": "account",
          "type": "address"
        }
      ],
      "name": "proposeNewRescuer",
      "outputs": [],
      "stateMutability": "nonpayable",
      "type": "function"
    },
    {
      "inputs": [],
      "name": "rescuer",
      "outputs": [
        {
          "internalType": "address",
          "name": "",
          "type": "address"
        }
      ],
      "stateMutability": "view",
      "type": "function"
    },
    {
      "inputs": [
        {
          "internalType": "address",
          "name": "_delegate",
          "type": "address"
        }
      ],
      "name": "setDelegate",
      "outputs": [],
      "stateMutability": "nonpayable",
      "type": "function"
    },
    {
      "inputs": [
        {
          "components": [
            {
              "internalType": "uint256",
              "name": "staking",
              "type": "uint256"
            },
            {
              "internalType": "uint256",
              "name": "auction",
              "type": "uint256"
            },
            {
              "internalType": "uint256",
              "name": "gnosis",
              "type": "uint256"
            }
          ],
          "internalType": "struct ITempleGold.DistributionParams",
          "name": "_params",
          "type": "tuple"
        }
      ],
      "name": "setDistributionParams",
      "outputs": [],
      "stateMutability": "nonpayable",
      "type": "function"
    },
    {
      "inputs": [
        {
          "components": [
            {
              "internalType": "uint32",
              "name": "eid",
              "type": "uint32"
            },
            {
              "internalType": "uint16",
              "name": "msgType",
              "type": "uint16"
            },
            {
              "internalType": "bytes",
              "name": "options",
              "type": "bytes"
            }
          ],
          "internalType": "struct EnforcedOptionParam[]",
          "name": "_enforcedOptions",
          "type": "tuple[]"
        }
      ],
      "name": "setEnforcedOptions",
      "outputs": [],
      "stateMutability": "nonpayable",
      "type": "function"
    },
    {
      "inputs": [
        {
          "internalType": "address",
          "name": "allowedCaller",
          "type": "address"
        },
        {
          "components": [
            {
              "internalType": "bytes4",
              "name": "fnSelector",
              "type": "bytes4"
            },
            {
              "internalType": "bool",
              "name": "allowed",
              "type": "bool"
            }
          ],
          "internalType": "struct ITempleElevatedAccess.ExplicitAccess[]",
          "name": "access",
          "type": "tuple[]"
        }
      ],
      "name": "setExplicitAccess",
      "outputs": [],
      "stateMutability": "nonpayable",
      "type": "function"
    },
    {
      "inputs": [
        {
          "internalType": "address",
          "name": "_msgInspector",
          "type": "address"
        }
      ],
      "name": "setMsgInspector",
      "outputs": [],
      "stateMutability": "nonpayable",
      "type": "function"
    },
    {
      "inputs": [
        {
          "internalType": "uint32",
          "name": "_eid",
          "type": "uint32"
        },
        {
          "internalType": "bytes32",
          "name": "_peer",
          "type": "bytes32"
        }
      ],
      "name": "setPeer",
      "outputs": [],
      "stateMutability": "nonpayable",
      "type": "function"
    },
    {
      "inputs": [
        {
          "internalType": "address",
          "name": "_preCrime",
          "type": "address"
        }
      ],
      "name": "setPreCrime",
      "outputs": [],
      "stateMutability": "nonpayable",
      "type": "function"
    },
    {
      "inputs": [
        {
          "internalType": "bool",
          "name": "value",
          "type": "bool"
        }
      ],
      "name": "setRescueMode",
      "outputs": [],
      "stateMutability": "nonpayable",
      "type": "function"
    },
    {
      "inputs": [
        {
          "internalType": "address",
          "name": "_auction",
          "type": "address"
        }
      ],
      "name": "setStableGoldAuction",
      "outputs": [],
      "stateMutability": "nonpayable",
      "type": "function"
    },
    {
      "inputs": [
        {
          "internalType": "address",
          "name": "_staking",
          "type": "address"
        }
      ],
      "name": "setStaking",
      "outputs": [],
      "stateMutability": "nonpayable",
      "type": "function"
    },
    {
      "inputs": [
        {
          "internalType": "address",
          "name": "_gnosis",
          "type": "address"
        }
      ],
      "name": "setTeamGnosis",
      "outputs": [],
      "stateMutability": "nonpayable",
      "type": "function"
    },
    {
      "inputs": [
        {
          "components": [
            {
              "internalType": "uint128",
              "name": "value",
              "type": "uint128"
            },
            {
              "internalType": "uint128",
              "name": "weekMultiplier",
              "type": "uint128"
            }
          ],
          "internalType": "struct ITempleGold.VestingFactor",
          "name": "_factor",
          "type": "tuple"
        }
      ],
      "name": "setVestingFactor",
      "outputs": [],
      "stateMutability": "nonpayable",
      "type": "function"
    },
    {
      "inputs": [],
      "name": "templeGold",
      "outputs": [
        {
          "internalType": "contract ITempleGold",
          "name": "",
          "type": "address"
        }
      ],
      "stateMutability": "view",
      "type": "function"
    }
  ],
  "bytecode": "0x60a060405234801561001057600080fd5b50604051611d1c380380611d1c83398101604081905261002f91610108565b82826001600160a01b0382166100585760405163e6c4247b60e01b815260040160405180910390fd5b6001600160a01b03811661007f5760405163e6c4247b60e01b815260040160405180910390fd5b816001600160a01b0316816001600160a01b0316036100b15760405163e6c4247b60e01b815260040160405180910390fd5b600080546001600160a01b03199081166001600160a01b039485161790915560018054909116918316919091179055166080525061014b9050565b80516001600160a01b038116811461010357600080fd5b919050565b60008060006060848603121561011d57600080fd5b610126846100ec565b9250610134602085016100ec565b9150610142604085016100ec565b90509250925092565b608051611b696101b3600039600081816103700152818161073f015281816108530152818161097a01528181610a5201528181610c6a01528181610d4201528181610e1a01528181610eea015281816111c1015281816112a2015261138f0152611b696000f3fe608060405234801561001057600080fd5b50600436106101825760003560e01c80638ff39099116100d8578063ca5eb5e11161008c578063d9a349c111610066578063d9a349c11461032a578063daeccc791461033d578063e110dfda1461036b57600080fd5b8063ca5eb5e1146102f1578063cb5cf37014610304578063d42438851461031757600080fd5b8063b98bd070116100bd578063b98bd070146102ab578063bfccf0ec146102be578063c34c08e5146102d157600080fd5b80638ff3909914610285578063a1b85eba1461029857600080fd5b80633400288b1161013a5780636fc1b31e116101145780636fc1b31e146102575780638112c4af1461026a5780638f2419d31461027257600080fd5b80633400288b146101ec57806338a63183146101ff5780635cbeb13f1461024457600080fd5b80631810fe7f1161016b5780631810fe7f146101af5780631f211405146101d157806324608027146101d957600080fd5b8063032ef9011461018757806307f184f11461019c575b600080fd5b61019a6101953660046115dc565b610392565b005b61019a6101aa366004611622565b610441565b6003546101bc9060ff1681565b60405190151581526020015b60405180910390f35b61019a610579565b61019a6101e736600461168d565b610698565b61019a6101fa366004611726565b6107b4565b60005461021f9073ffffffffffffffffffffffffffffffffffffffff1681565b60405173ffffffffffffffffffffffffffffffffffffffff90911681526020016101c8565b61019a610252366004611750565b6108c9565b61019a610265366004611622565b6109a9565b61019a610a81565b61019a610280366004611622565b610bc1565b61019a610293366004611622565b610c99565b61019a6102a6366004611622565b610d71565b61019a6102b9366004611783565b610e49565b61019a6102cc3660046117fa565b610f21565b60015461021f9073ffffffffffffffffffffffffffffffffffffffff1681565b61019a6102ff366004611622565b611118565b61019a6103123660046118a2565b6111f0565b61019a610325366004611622565b6112e6565b61019a610338366004611622565b6113be565b6101bc61034b366004611911565b600260209081526000928352604080842090915290825290205460ff1681565b61021f7f000000000000000000000000000000000000000000000000000000000000000081565b60005473ffffffffffffffffffffffffffffffffffffffff1633146103e3576040517fc0185c6400000000000000000000000000000000000000000000000000000000815260040160405180910390fd5b604051811515907f18f4a9a726c72020fd959c636d2fd464c6cefe90afeaea3c830b971614cf70b690600090a2600380547fffffffffffffffffffffffffffffffffffffffffffffffffffffffffffffff0016911515919091179055565b60005473ffffffffffffffffffffffffffffffffffffffff163314610492576040517fc0185c6400000000000000000000000000000000000000000000000000000000815260040160405180910390fd5b73ffffffffffffffffffffffffffffffffffffffff81166104df576040517fe6c4247b00000000000000000000000000000000000000000000000000000000815260040160405180910390fd5b60035460405173ffffffffffffffffffffffffffffffffffffffff808416926101009004169033907f374d23b359cab0f8963c5c1715a6de7974f53af00aecc27de50d93906b70943e90600090a46003805473ffffffffffffffffffffffffffffffffffffffff909216610100027fffffffffffffffffffffff0000000000000000000000000000000000000000ff909216919091179055565b60045473ffffffffffffffffffffffffffffffffffffffff1633146105ca576040517fc0185c6400000000000000000000000000000000000000000000000000000000815260040160405180910390fd5b60005473ffffffffffffffffffffffffffffffffffffffff16330361061b576040517fe6c4247b00000000000000000000000000000000000000000000000000000000815260040160405180910390fd5b600154604051339173ffffffffffffffffffffffffffffffffffffffff16907fe963dc9c0d2165b080440a5d2665566142f2426b1ea15f3da8390b0fd336b06490600090a3600180547fffffffffffffffffffffffff00000000000000000000000000000000000000009081163317909155600480549091169055565b6106c6336000357fffffffff0000000000000000000000000000000000000000000000000000000016611503565b6106fc576040517fc0185c6400000000000000000000000000000000000000000000000000000000815260040160405180910390fd5b604080517f2460802700000000000000000000000000000000000000000000000000000000815282516004820152602083015160248201529082015160448201527f000000000000000000000000000000000000000000000000000000000000000073ffffffffffffffffffffffffffffffffffffffff16906324608027906064015b600060405180830381600087803b15801561079957600080fd5b505af11580156107ad573d6000803e3d6000fd5b5050505050565b6107e2336000357fffffffff0000000000000000000000000000000000000000000000000000000016611503565b610818576040517fc0185c6400000000000000000000000000000000000000000000000000000000815260040160405180910390fd5b6040517f3400288b00000000000000000000000000000000000000000000000000000000815263ffffffff83166004820152602481018290527f000000000000000000000000000000000000000000000000000000000000000073ffffffffffffffffffffffffffffffffffffffff1690633400288b906044015b600060405180830381600087803b1580156108ad57600080fd5b505af11580156108c1573d6000803e3d6000fd5b505050505050565b6108f7336000357fffffffff0000000000000000000000000000000000000000000000000000000016611503565b61092d576040517fc0185c6400000000000000000000000000000000000000000000000000000000815260040160405180910390fd5b6040517f5cbeb13f00000000000000000000000000000000000000000000000000000000815273ffffffffffffffffffffffffffffffffffffffff838116600483015282151560248301527f00000000000000000000000000000000000000000000000000000000000000001690635cbeb13f90604401610893565b6109d7336000357fffffffff0000000000000000000000000000000000000000000000000000000016611503565b610a0d576040517fc0185c6400000000000000000000000000000000000000000000000000000000815260040160405180910390fd5b6040517f6fc1b31e00000000000000000000000000000000000000000000000000000000815273ffffffffffffffffffffffffffffffffffffffff82811660048301527f00000000000000000000000000000000000000000000000000000000000000001690636fc1b31e9060240161077f565b600354610100900473ffffffffffffffffffffffffffffffffffffffff163314610ad7576040517fc0185c6400000000000000000000000000000000000000000000000000000000815260040160405180910390fd5b60015473ffffffffffffffffffffffffffffffffffffffff163303610b28576040517fe6c4247b00000000000000000000000000000000000000000000000000000000815260040160405180910390fd5b60008054604051339273ffffffffffffffffffffffffffffffffffffffff909216917ff07131157ebea15896dc89264eb9a7572e67cc9fad6b855015730fcec10704e091a3600080547fffffffffffffffffffffffff00000000000000000000000000000000000000001633179055600380547fffffffffffffffffffffff0000000000000000000000000000000000000000ff169055565b610bef336000357fffffffff0000000000000000000000000000000000000000000000000000000016611503565b610c25576040517fc0185c6400000000000000000000000000000000000000000000000000000000815260040160405180910390fd5b6040517f8f2419d300000000000000000000000000000000000000000000000000000000815273ffffffffffffffffffffffffffffffffffffffff82811660048301527f00000000000000000000000000000000000000000000000000000000000000001690638f2419d39060240161077f565b610cc7336000357fffffffff0000000000000000000000000000000000000000000000000000000016611503565b610cfd576040517fc0185c6400000000000000000000000000000000000000000000000000000000815260040160405180910390fd5b6040517f8ff3909900000000000000000000000000000000000000000000000000000000815273ffffffffffffffffffffffffffffffffffffffff82811660048301527f00000000000000000000000000000000000000000000000000000000000000001690638ff390999060240161077f565b610d9f336000357fffffffff0000000000000000000000000000000000000000000000000000000016611503565b610dd5576040517fc0185c6400000000000000000000000000000000000000000000000000000000815260040160405180910390fd5b6040517fa1b85eba00000000000000000000000000000000000000000000000000000000815273ffffffffffffffffffffffffffffffffffffffff82811660048301527f0000000000000000000000000000000000000000000000000000000000000000169063a1b85eba9060240161077f565b610e77336000357fffffffff0000000000000000000000000000000000000000000000000000000016611503565b610ead576040517fc0185c6400000000000000000000000000000000000000000000000000000000815260040160405180910390fd5b6040517fb98bd07000000000000000000000000000000000000000000000000000000000815273ffffffffffffffffffffffffffffffffffffffff7f0000000000000000000000000000000000000000000000000000000000000000169063b98bd070906108939085908590600401611984565b610f4f336000357fffffffff0000000000000000000000000000000000000000000000000000000016611503565b610f85576040517fc0185c6400000000000000000000000000000000000000000000000000000000815260040160405180910390fd5b73ffffffffffffffffffffffffffffffffffffffff8316610fd2576040517fe6c4247b00000000000000000000000000000000000000000000000000000000815260040160405180910390fd5b6040805180820190915260008082526020820152819060005b828110156108c15784848281811061100557611005611ad1565b90506040020180360381019061101b9190611b00565b91508160200151151582600001517bffffffffffffffffffffffffffffffffffffffffffffffffffffffff19168773ffffffffffffffffffffffffffffffffffffffff167ff5736e75de2c751f775d4c5ed517289f77074f8c337f451ba4c0c3ed1dd7f9ad60405160405180910390a460208281015173ffffffffffffffffffffffffffffffffffffffff8816600090815260028352604080822086517fffffffff000000000000000000000000000000000000000000000000000000001683529093529190912080547fffffffffffffffffffffffffffffffffffffffffffffffffffffffffffffff0016911515919091179055600101610feb565b611146336000357fffffffff0000000000000000000000000000000000000000000000000000000016611503565b61117c576040517fc0185c6400000000000000000000000000000000000000000000000000000000815260040160405180910390fd5b6040517fca5eb5e100000000000000000000000000000000000000000000000000000000815273ffffffffffffffffffffffffffffffffffffffff82811660048301527f0000000000000000000000000000000000000000000000000000000000000000169063ca5eb5e19060240161077f565b61121e336000357fffffffff0000000000000000000000000000000000000000000000000000000016611503565b611254576040517fc0185c6400000000000000000000000000000000000000000000000000000000815260040160405180910390fd5b6040517fcb5cf37000000000000000000000000000000000000000000000000000000000815281516fffffffffffffffffffffffffffffffff908116600483015260208301511660248201527f000000000000000000000000000000000000000000000000000000000000000073ffffffffffffffffffffffffffffffffffffffff169063cb5cf3709060440161077f565b611314336000357fffffffff0000000000000000000000000000000000000000000000000000000016611503565b61134a576040517fc0185c6400000000000000000000000000000000000000000000000000000000815260040160405180910390fd5b6040517fd424388500000000000000000000000000000000000000000000000000000000815273ffffffffffffffffffffffffffffffffffffffff82811660048301527f0000000000000000000000000000000000000000000000000000000000000000169063d42438859060240161077f565b6113ec336000357fffffffff0000000000000000000000000000000000000000000000000000000016611503565b611422576040517fc0185c6400000000000000000000000000000000000000000000000000000000815260040160405180910390fd5b73ffffffffffffffffffffffffffffffffffffffff811661146f576040517fe6c4247b00000000000000000000000000000000000000000000000000000000815260040160405180910390fd5b60045460015460405173ffffffffffffffffffffffffffffffffffffffff8085169381169216907f4857570a90fe0a0fc580e89a287e77576141ac8e2e8b3710cd26db44f44156c190600090a4600480547fffffffffffffffffffffffff00000000000000000000000000000000000000001673ffffffffffffffffffffffffffffffffffffffff92909216919091179055565b60035460009060ff1615611535575060005473ffffffffffffffffffffffffffffffffffffffff8381169116146115c1565b60015473ffffffffffffffffffffffffffffffffffffffff848116911614806115b0575073ffffffffffffffffffffffffffffffffffffffff831660009081526002602090815260408083207fffffffff000000000000000000000000000000000000000000000000000000008616845290915290205460ff165b156115bd575060016115c1565b5060005b92915050565b803580151581146115d757600080fd5b919050565b6000602082840312156115ee57600080fd5b6115f7826115c7565b9392505050565b803573ffffffffffffffffffffffffffffffffffffffff811681146115d757600080fd5b60006020828403121561163457600080fd5b6115f7826115fe565b6040805190810167ffffffffffffffff81118282101715611687577f4e487b7100000000000000000000000000000000000000000000000000000000600052604160045260246000fd5b60405290565b600060608284031280156116a057600080fd5b506040516000906060810167ffffffffffffffff811182821017156116ec577f4e487b710000000000000000000000000000000000000000000000000000000083526041600452602483fd5b604090815284358252602080860135908301529384013593810193909352509092915050565b803563ffffffff811681146115d757600080fd5b6000806040838503121561173957600080fd5b61174283611712565b946020939093013593505050565b6000806040838503121561176357600080fd5b61176c836115fe565b915061177a602084016115c7565b90509250929050565b6000806020838503121561179657600080fd5b823567ffffffffffffffff8111156117ad57600080fd5b8301601f810185136117be57600080fd5b803567ffffffffffffffff8111156117d557600080fd5b8560208260051b84010111156117ea57600080fd5b6020919091019590945092505050565b60008060006040848603121561180f57600080fd5b611818846115fe565b9250602084013567ffffffffffffffff81111561183457600080fd5b8401601f8101861361184557600080fd5b803567ffffffffffffffff81111561185c57600080fd5b8660208260061b840101111561187157600080fd5b939660209190910195509293505050565b80356fffffffffffffffffffffffffffffffff811681146115d757600080fd5b600060408284031280156118b557600080fd5b506118be61163d565b6118c783611882565b81526118d560208401611882565b60208201529392505050565b80357fffffffff00000000000000000000000000000000000000000000000000000000811681146115d757600080fd5b6000806040838503121561192457600080fd5b61192d836115fe565b915061177a602084016118e1565b8183528181602085013750600060208284010152600060207fffffffffffffffffffffffffffffffffffffffffffffffffffffffffffffffe0601f840116840101905092915050565b6020808252810182905260006040600584901b8301810190830185837fffffffffffffffffffffffffffffffffffffffffffffffffffffffffffffffa136839003015b87821015611ac4577fffffffffffffffffffffffffffffffffffffffffffffffffffffffffffffffc08786030184528235818112611a0457600080fd5b890163ffffffff611a1482611712565b168652602081013561ffff8116808214611a2d57600080fd5b6020880152506040810135368290037fffffffffffffffffffffffffffffffffffffffffffffffffffffffffffffffe1018112611a6957600080fd5b0160208101903567ffffffffffffffff811115611a8557600080fd5b803603821315611a9457600080fd5b60606040880152611aa960608801828461193b565b965050506020830192506020840193506001820191506119c7565b5092979650505050505050565b7f4e487b7100000000000000000000000000000000000000000000000000000000600052603260045260246000fd5b60006040828403128015611b1357600080fd5b50611b1c61163d565b611b25836118e1565b81526118d5602084016115c756fea2646970667358221220145f5a521c2a976507eb592d6ce5a6a6e61e7c3374a3f4e5cf6004ae1ad767d264736f6c634300081c0033",
  "linkReferences": {},
  "deployedLinkReferences": {}
}