{
  "_format": "hh-sol-artifact-1",
  "contractName": "TempleGold",
  "sourceName": "contracts/templegold/TempleGold.sol",
  "abi": [
    {
      "inputs": [
        {
          "components": [
            {
              "internalType": "address",
              "name": "executor",
              "type": "address"
            },
            {
              "internalType": "address",
              "name": "layerZeroEndpoint",
              "type": "address"
            },
            {
              "internalType": "uint128",
              "name": "mintChainId",
              "type": "uint128"
            },
            {
              "internalType": "uint128",
              "name": "mintChainLzEid",
              "type": "uint128"
            },
            {
              "internalType": "string",
              "name": "name",
              "type": "string"
            },
            {
              "internalType": "string",
              "name": "symbol",
              "type": "string"
            }
          ],
          "internalType": "struct ITempleGold.InitArgs",
          "name": "_initArgs",
          "type": "tuple"
        }
      ],
      "stateMutability": "nonpayable",
      "type": "constructor"
    },
    {
      "inputs": [
        {
          "internalType": "address",
          "name": "target",
          "type": "address"
        }
      ],
      "name": "AddressEmptyCode",
      "type": "error"
    },
    {
      "inputs": [
        {
          "internalType": "address",
          "name": "account",
          "type": "address"
        }
      ],
      "name": "AddressInsufficientBalance",
      "type": "error"
    },
    {
      "inputs": [],
      "name": "CannotCompose",
      "type": "error"
    },
    {
      "inputs": [
        {
          "internalType": "address",
          "name": "spender",
          "type": "address"
        },
        {
          "internalType": "uint256",
          "name": "allowance",
          "type": "uint256"
        },
        {
          "internalType": "uint256",
          "name": "needed",
          "type": "uint256"
        }
      ],
      "name": "ERC20InsufficientAllowance",
      "type": "error"
    },
    {
      "inputs": [
        {
          "internalType": "address",
          "name": "sender",
          "type": "address"
        },
        {
          "internalType": "uint256",
          "name": "balance",
          "type": "uint256"
        },
        {
          "internalType": "uint256",
          "name": "needed",
          "type": "uint256"
        }
      ],
      "name": "ERC20InsufficientBalance",
      "type": "error"
    },
    {
      "inputs": [
        {
          "internalType": "address",
          "name": "approver",
          "type": "address"
        }
      ],
      "name": "ERC20InvalidApprover",
      "type": "error"
    },
    {
      "inputs": [
        {
          "internalType": "address",
          "name": "receiver",
          "type": "address"
        }
      ],
      "name": "ERC20InvalidReceiver",
      "type": "error"
    },
    {
      "inputs": [
        {
          "internalType": "address",
          "name": "sender",
          "type": "address"
        }
      ],
      "name": "ERC20InvalidSender",
      "type": "error"
    },
    {
      "inputs": [
        {
          "internalType": "address",
          "name": "spender",
          "type": "address"
        }
      ],
      "name": "ERC20InvalidSpender",
      "type": "error"
    },
    {
      "inputs": [],
      "name": "ExpectedNonZero",
      "type": "error"
    },
    {
      "inputs": [],
      "name": "FailedInnerCall",
      "type": "error"
    },
    {
      "inputs": [],
      "name": "InvalidAddress",
      "type": "error"
    },
    {
      "inputs": [],
      "name": "InvalidDelegate",
      "type": "error"
    },
    {
      "inputs": [],
      "name": "InvalidEndpointCall",
      "type": "error"
    },
    {
      "inputs": [],
      "name": "InvalidLocalDecimals",
      "type": "error"
    },
    {
      "inputs": [
        {
          "internalType": "bytes",
          "name": "options",
          "type": "bytes"
        }
      ],
      "name": "InvalidOptions",
      "type": "error"
    },
    {
      "inputs": [],
      "name": "InvalidParam",
      "type": "error"
    },
    {
      "inputs": [],
      "name": "InvalidTotalShare",
      "type": "error"
    },
    {
      "inputs": [],
      "name": "LzTokenUnavailable",
      "type": "error"
    },
    {
      "inputs": [],
      "name": "MissingParameter",
      "type": "error"
    },
    {
      "inputs": [
        {
          "internalType": "uint32",
          "name": "eid",
          "type": "uint32"
        }
      ],
      "name": "NoPeer",
      "type": "error"
    },
    {
      "inputs": [
        {
          "internalType": "address",
          "name": "from",
          "type": "address"
        },
        {
          "internalType": "address",
          "name": "to",
          "type": "address"
        }
      ],
      "name": "NonTransferrable",
      "type": "error"
    },
    {
      "inputs": [
        {
          "internalType": "uint256",
          "name": "msgValue",
          "type": "uint256"
        }
      ],
      "name": "NotEnoughNative",
      "type": "error"
    },
    {
      "inputs": [
        {
          "internalType": "address",
          "name": "addr",
          "type": "address"
        }
      ],
      "name": "OnlyEndpoint",
      "type": "error"
    },
    {
      "inputs": [
        {
          "internalType": "uint32",
          "name": "eid",
          "type": "uint32"
        },
        {
          "internalType": "bytes32",
          "name": "sender",
          "type": "bytes32"
        }
      ],
      "name": "OnlyPeer",
      "type": "error"
    },
    {
      "inputs": [],
      "name": "OnlySelf",
      "type": "error"
    },
    {
      "inputs": [
        {
          "internalType": "address",
          "name": "owner",
          "type": "address"
        }
      ],
      "name": "OwnableInvalidOwner",
      "type": "error"
    },
    {
      "inputs": [
        {
          "internalType": "address",
          "name": "account",
          "type": "address"
        }
      ],
      "name": "OwnableUnauthorizedAccount",
      "type": "error"
    },
    {
      "inputs": [
        {
          "internalType": "uint256",
          "name": "x",
          "type": "uint256"
        },
        {
          "internalType": "uint256",
          "name": "y",
          "type": "uint256"
        },
        {
          "internalType": "uint256",
          "name": "denominator",
          "type": "uint256"
        }
      ],
      "name": "PRBMath_MulDiv_Overflow",
      "type": "error"
    },
    {
      "inputs": [
        {
          "internalType": "address",
          "name": "token",
          "type": "address"
        }
      ],
      "name": "SafeERC20FailedOperation",
      "type": "error"
    },
    {
      "inputs": [
        {
          "internalType": "bytes",
          "name": "result",
          "type": "bytes"
        }
      ],
      "name": "SimulationResult",
      "type": "error"
    },
    {
      "inputs": [
        {
          "internalType": "uint256",
          "name": "amountLD",
          "type": "uint256"
        },
        {
          "internalType": "uint256",
          "name": "minAmountLD",
          "type": "uint256"
        }
      ],
      "name": "SlippageExceeded",
      "type": "error"
    },
    {
      "inputs": [],
      "name": "WrongChain",
      "type": "error"
    },
    {
      "anonymous": false,
      "inputs": [
        {
          "indexed": true,
          "internalType": "address",
          "name": "owner",
          "type": "address"
        },
        {
          "indexed": true,
          "internalType": "address",
          "name": "spender",
          "type": "address"
        },
        {
          "indexed": false,
          "internalType": "uint256",
          "name": "value",
          "type": "uint256"
        }
      ],
      "name": "Approval",
      "type": "event"
    },
    {
      "anonymous": false,
      "inputs": [
        {
          "indexed": true,
          "internalType": "address",
          "name": "sender",
          "type": "address"
        },
        {
          "indexed": false,
          "internalType": "uint256",
          "name": "amount",
          "type": "uint256"
        },
        {
          "indexed": false,
          "internalType": "uint256",
          "name": "circulatingSuppply",
          "type": "uint256"
        },
        {
          "indexed": false,
          "internalType": "uint256",
          "name": "totalBurned",
          "type": "uint256"
        }
      ],
      "name": "CirculatingSupplyUpdated",
      "type": "event"
    },
    {
      "anonymous": false,
      "inputs": [
        {
          "indexed": true,
          "internalType": "address",
          "name": "_contract",
          "type": "address"
        },
        {
          "indexed": false,
          "internalType": "bool",
          "name": "_whitelisted",
          "type": "bool"
        }
      ],
      "name": "ContractAuthorizationSet",
      "type": "event"
    },
    {
      "anonymous": false,
      "inputs": [
        {
          "indexed": false,
          "internalType": "uint256",
          "name": "stakingAmount",
          "type": "uint256"
        },
        {
          "indexed": false,
          "internalType": "uint256",
          "name": "auctionAmount",
          "type": "uint256"
        },
        {
          "indexed": false,
          "internalType": "uint256",
          "name": "gnosisAmount",
          "type": "uint256"
        },
        {
          "indexed": false,
          "internalType": "uint256",
          "name": "timestamp",
          "type": "uint256"
        }
      ],
      "name": "Distributed",
      "type": "event"
    },
    {
      "anonymous": false,
      "inputs": [
        {
          "indexed": false,
          "internalType": "uint256",
          "name": "staking",
          "type": "uint256"
        },
        {
          "indexed": false,
          "internalType": "uint256",
          "name": "auction",
          "type": "uint256"
        },
        {
          "indexed": false,
          "internalType": "uint256",
          "name": "gnosis",
          "type": "uint256"
        }
      ],
      "name": "DistributionParamsSet",
      "type": "event"
    },
    {
      "anonymous": false,
      "inputs": [
        {
          "components": [
            {
              "internalType": "uint32",
              "name": "eid",
              "type": "uint32"
            },
            {
              "internalType": "uint16",
              "name": "msgType",
              "type": "uint16"
            },
            {
              "internalType": "bytes",
              "name": "options",
              "type": "bytes"
            }
          ],
          "indexed": false,
          "internalType": "struct EnforcedOptionParam[]",
          "name": "_enforcedOptions",
          "type": "tuple[]"
        }
      ],
      "name": "EnforcedOptionSet",
      "type": "event"
    },
    {
      "anonymous": false,
      "inputs": [
        {
          "indexed": false,
          "internalType": "address",
          "name": "inspector",
          "type": "address"
        }
      ],
      "name": "MsgInspectorSet",
      "type": "event"
    },
    {
      "anonymous": false,
      "inputs": [
        {
          "indexed": true,
          "internalType": "bytes32",
          "name": "guid",
          "type": "bytes32"
        },
        {
          "indexed": false,
          "internalType": "uint32",
          "name": "srcEid",
          "type": "uint32"
        },
        {
          "indexed": true,
          "internalType": "address",
          "name": "toAddress",
          "type": "address"
        },
        {
          "indexed": false,
          "internalType": "uint256",
          "name": "amountReceivedLD",
          "type": "uint256"
        }
      ],
      "name": "OFTReceived",
      "type": "event"
    },
    {
      "anonymous": false,
      "inputs": [
        {
          "indexed": true,
          "internalType": "bytes32",
          "name": "guid",
          "type": "bytes32"
        },
        {
          "indexed": false,
          "internalType": "uint32",
          "name": "dstEid",
          "type": "uint32"
        },
        {
          "indexed": true,
          "internalType": "address",
          "name": "fromAddress",
          "type": "address"
        },
        {
          "indexed": false,
          "internalType": "uint256",
          "name": "amountSentLD",
          "type": "uint256"
        },
        {
          "indexed": false,
          "internalType": "uint256",
          "name": "amountReceivedLD",
          "type": "uint256"
        }
      ],
      "name": "OFTSent",
      "type": "event"
    },
    {
      "anonymous": false,
      "inputs": [
        {
          "indexed": true,
          "internalType": "address",
          "name": "previousOwner",
          "type": "address"
        },
        {
          "indexed": true,
          "internalType": "address",
          "name": "newOwner",
          "type": "address"
        }
      ],
      "name": "OwnershipTransferred",
      "type": "event"
    },
    {
      "anonymous": false,
      "inputs": [
        {
          "indexed": false,
          "internalType": "uint32",
          "name": "eid",
          "type": "uint32"
        },
        {
          "indexed": false,
          "internalType": "bytes32",
          "name": "peer",
          "type": "bytes32"
        }
      ],
      "name": "PeerSet",
      "type": "event"
    },
    {
      "anonymous": false,
      "inputs": [
        {
          "indexed": false,
          "internalType": "address",
          "name": "preCrimeAddress",
          "type": "address"
        }
      ],
      "name": "PreCrimeSet",
      "type": "event"
    },
    {
      "anonymous": false,
      "inputs": [
        {
          "indexed": false,
          "internalType": "address",
          "name": "auction",
          "type": "address"
        }
      ],
      "name": "StableGoldAuctionSet",
      "type": "event"
    },
    {
      "anonymous": false,
      "inputs": [
        {
          "indexed": false,
          "internalType": "address",
          "name": "staking",
          "type": "address"
        }
      ],
      "name": "StakingSet",
      "type": "event"
    },
    {
      "anonymous": false,
      "inputs": [
        {
          "indexed": false,
          "internalType": "address",
          "name": "gnosis",
          "type": "address"
        }
      ],
      "name": "TeamGnosisSet",
      "type": "event"
    },
    {
      "anonymous": false,
      "inputs": [
        {
          "indexed": true,
          "internalType": "address",
          "name": "from",
          "type": "address"
        },
        {
          "indexed": true,
          "internalType": "address",
          "name": "to",
          "type": "address"
        },
        {
          "indexed": false,
          "internalType": "uint256",
          "name": "value",
          "type": "uint256"
        }
      ],
      "name": "Transfer",
      "type": "event"
    },
    {
      "anonymous": false,
      "inputs": [
        {
          "indexed": false,
          "internalType": "uint128",
          "name": "numerator",
          "type": "uint128"
        },
        {
          "indexed": false,
          "internalType": "uint128",
          "name": "denominator",
          "type": "uint128"
        }
      ],
      "name": "VestingFactorSet",
      "type": "event"
    },
    {
      "inputs": [],
      "name": "DISTRIBUTION_DIVISOR",
      "outputs": [
        {
          "internalType": "uint256",
          "name": "",
          "type": "uint256"
        }
      ],
      "stateMutability": "view",
      "type": "function"
    },
    {
      "inputs": [],
      "name": "MAX_CIRCULATING_SUPPLY",
      "outputs": [
        {
          "internalType": "uint256",
          "name": "",
          "type": "uint256"
        }
      ],
      "stateMutability": "view",
      "type": "function"
    },
    {
      "inputs": [],
      "name": "MINIMUM_MINT",
      "outputs": [
        {
          "internalType": "uint256",
          "name": "",
          "type": "uint256"
        }
      ],
      "stateMutability": "view",
      "type": "function"
    },
    {
      "inputs": [],
      "name": "SEND",
      "outputs": [
        {
          "internalType": "uint16",
          "name": "",
          "type": "uint16"
        }
      ],
      "stateMutability": "view",
      "type": "function"
    },
    {
      "inputs": [],
      "name": "SEND_AND_CALL",
      "outputs": [
        {
          "internalType": "uint16",
          "name": "",
          "type": "uint16"
        }
      ],
      "stateMutability": "view",
      "type": "function"
    },
    {
      "inputs": [
        {
          "components": [
            {
              "internalType": "uint32",
              "name": "srcEid",
              "type": "uint32"
            },
            {
              "internalType": "bytes32",
              "name": "sender",
              "type": "bytes32"
            },
            {
              "internalType": "uint64",
              "name": "nonce",
              "type": "uint64"
            }
          ],
          "internalType": "struct Origin",
          "name": "origin",
          "type": "tuple"
        }
      ],
      "name": "allowInitializePath",
      "outputs": [
        {
          "internalType": "bool",
          "name": "",
          "type": "bool"
        }
      ],
      "stateMutability": "view",
      "type": "function"
    },
    {
      "inputs": [
        {
          "internalType": "address",
          "name": "owner",
          "type": "address"
        },
        {
          "internalType": "address",
          "name": "spender",
          "type": "address"
        }
      ],
      "name": "allowance",
      "outputs": [
        {
          "internalType": "uint256",
          "name": "",
          "type": "uint256"
        }
      ],
      "stateMutability": "view",
      "type": "function"
    },
    {
      "inputs": [],
      "name": "approvalRequired",
      "outputs": [
        {
          "internalType": "bool",
          "name": "",
          "type": "bool"
        }
      ],
      "stateMutability": "pure",
      "type": "function"
    },
    {
      "inputs": [
        {
          "internalType": "address",
          "name": "spender",
          "type": "address"
        },
        {
          "internalType": "uint256",
          "name": "value",
          "type": "uint256"
        }
      ],
      "name": "approve",
      "outputs": [
        {
          "internalType": "bool",
          "name": "",
          "type": "bool"
        }
      ],
      "stateMutability": "nonpayable",
      "type": "function"
    },
    {
      "inputs": [],
      "name": "auction",
      "outputs": [
        {
          "internalType": "contract IStableGoldAuction",
          "name": "",
          "type": "address"
        }
      ],
      "stateMutability": "view",
      "type": "function"
    },
    {
      "inputs": [
        {
          "internalType": "address",
          "name": "_contract",
          "type": "address"
        },
        {
          "internalType": "bool",
          "name": "_whitelist",
          "type": "bool"
        }
      ],
      "name": "authorizeContract",
      "outputs": [],
      "stateMutability": "nonpayable",
      "type": "function"
    },
    {
      "inputs": [
        {
          "internalType": "address",
          "name": "",
          "type": "address"
        }
      ],
      "name": "authorized",
      "outputs": [
        {
          "internalType": "bool",
          "name": "",
          "type": "bool"
        }
      ],
      "stateMutability": "view",
      "type": "function"
    },
    {
      "inputs": [
        {
          "internalType": "address",
          "name": "account",
          "type": "address"
        }
      ],
      "name": "balanceOf",
      "outputs": [
        {
          "internalType": "uint256",
          "name": "",
          "type": "uint256"
        }
      ],
      "stateMutability": "view",
      "type": "function"
    },
    {
      "inputs": [
        {
          "internalType": "uint256",
          "name": "amount",
          "type": "uint256"
        }
      ],
      "name": "burn",
      "outputs": [],
      "stateMutability": "nonpayable",
      "type": "function"
    },
    {
      "inputs": [],
      "name": "canDistribute",
      "outputs": [
        {
          "internalType": "bool",
          "name": "",
          "type": "bool"
        }
      ],
      "stateMutability": "view",
      "type": "function"
    },
    {
      "inputs": [],
      "name": "circulatingSupply",
      "outputs": [
        {
          "internalType": "uint256",
          "name": "",
          "type": "uint256"
        }
      ],
      "stateMutability": "view",
      "type": "function"
    },
    {
      "inputs": [
        {
          "internalType": "uint32",
          "name": "_eid",
          "type": "uint32"
        },
        {
          "internalType": "uint16",
          "name": "_msgType",
          "type": "uint16"
        },
        {
          "internalType": "bytes",
          "name": "_extraOptions",
          "type": "bytes"
        }
      ],
      "name": "combineOptions",
      "outputs": [
        {
          "internalType": "bytes",
          "name": "",
          "type": "bytes"
        }
      ],
      "stateMutability": "view",
      "type": "function"
    },
    {
      "inputs": [],
      "name": "decimalConversionRate",
      "outputs": [
        {
          "internalType": "uint256",
          "name": "",
          "type": "uint256"
        }
      ],
      "stateMutability": "view",
      "type": "function"
    },
    {
      "inputs": [],
      "name": "decimals",
      "outputs": [
        {
          "internalType": "uint8",
          "name": "",
          "type": "uint8"
        }
      ],
      "stateMutability": "view",
      "type": "function"
    },
    {
      "inputs": [],
      "name": "endpoint",
      "outputs": [
        {
          "internalType": "contract ILayerZeroEndpointV2",
          "name": "",
          "type": "address"
        }
      ],
      "stateMutability": "view",
      "type": "function"
    },
    {
      "inputs": [
        {
          "internalType": "uint32",
          "name": "eid",
          "type": "uint32"
        },
        {
          "internalType": "uint16",
          "name": "msgType",
          "type": "uint16"
        }
      ],
      "name": "enforcedOptions",
      "outputs": [
        {
          "internalType": "bytes",
          "name": "enforcedOption",
          "type": "bytes"
        }
      ],
      "stateMutability": "view",
      "type": "function"
    },
    {
      "inputs": [],
      "name": "getDistributionParameters",
      "outputs": [
        {
          "components": [
            {
              "internalType": "uint256",
              "name": "staking",
              "type": "uint256"
            },
            {
              "internalType": "uint256",
              "name": "auction",
              "type": "uint256"
            },
            {
              "internalType": "uint256",
              "name": "gnosis",
              "type": "uint256"
            }
          ],
          "internalType": "struct ITempleGold.DistributionParams",
          "name": "",
          "type": "tuple"
        }
      ],
      "stateMutability": "view",
      "type": "function"
    },
    {
      "inputs": [],
      "name": "getMintAmount",
      "outputs": [
        {
          "internalType": "uint256",
          "name": "",
          "type": "uint256"
        }
      ],
      "stateMutability": "view",
      "type": "function"
    },
    {
      "inputs": [],
      "name": "getVestingFactor",
      "outputs": [
        {
          "components": [
            {
              "internalType": "uint128",
              "name": "value",
              "type": "uint128"
            },
            {
              "internalType": "uint128",
              "name": "weekMultiplier",
              "type": "uint128"
            }
          ],
          "internalType": "struct ITempleGold.VestingFactor",
          "name": "",
          "type": "tuple"
        }
      ],
      "stateMutability": "view",
      "type": "function"
    },
    {
      "inputs": [
        {
          "components": [
            {
              "internalType": "uint32",
              "name": "srcEid",
              "type": "uint32"
            },
            {
              "internalType": "bytes32",
              "name": "sender",
              "type": "bytes32"
            },
            {
              "internalType": "uint64",
              "name": "nonce",
              "type": "uint64"
            }
          ],
          "internalType": "struct Origin",
          "name": "",
          "type": "tuple"
        },
        {
          "internalType": "bytes",
          "name": "",
          "type": "bytes"
        },
        {
          "internalType": "address",
          "name": "_sender",
          "type": "address"
        }
      ],
      "name": "isComposeMsgSender",
      "outputs": [
        {
          "internalType": "bool",
          "name": "",
          "type": "bool"
        }
      ],
      "stateMutability": "view",
      "type": "function"
    },
    {
      "inputs": [
        {
          "internalType": "uint32",
          "name": "_eid",
          "type": "uint32"
        },
        {
          "internalType": "bytes32",
          "name": "_peer",
          "type": "bytes32"
        }
      ],
      "name": "isPeer",
      "outputs": [
        {
          "internalType": "bool",
          "name": "",
          "type": "bool"
        }
      ],
      "stateMutability": "view",
      "type": "function"
    },
    {
      "inputs": [],
      "name": "lastMintTimestamp",
      "outputs": [
        {
          "internalType": "uint32",
          "name": "",
          "type": "uint32"
        }
      ],
      "stateMutability": "view",
      "type": "function"
    },
    {
      "inputs": [
        {
          "components": [
            {
              "internalType": "uint32",
              "name": "srcEid",
              "type": "uint32"
            },
            {
              "internalType": "bytes32",
              "name": "sender",
              "type": "bytes32"
            },
            {
              "internalType": "uint64",
              "name": "nonce",
              "type": "uint64"
            }
          ],
          "internalType": "struct Origin",
          "name": "_origin",
          "type": "tuple"
        },
        {
          "internalType": "bytes32",
          "name": "_guid",
          "type": "bytes32"
        },
        {
          "internalType": "bytes",
          "name": "_message",
          "type": "bytes"
        },
        {
          "internalType": "address",
          "name": "_executor",
          "type": "address"
        },
        {
          "internalType": "bytes",
          "name": "_extraData",
          "type": "bytes"
        }
      ],
      "name": "lzReceive",
      "outputs": [],
      "stateMutability": "payable",
      "type": "function"
    },
    {
      "inputs": [
        {
          "components": [
            {
              "components": [
                {
                  "internalType": "uint32",
                  "name": "srcEid",
                  "type": "uint32"
                },
                {
                  "internalType": "bytes32",
                  "name": "sender",
                  "type": "bytes32"
                },
                {
                  "internalType": "uint64",
                  "name": "nonce",
                  "type": "uint64"
                }
              ],
              "internalType": "struct Origin",
              "name": "origin",
              "type": "tuple"
            },
            {
              "internalType": "uint32",
              "name": "dstEid",
              "type": "uint32"
            },
            {
              "internalType": "address",
              "name": "receiver",
              "type": "address"
            },
            {
              "internalType": "bytes32",
              "name": "guid",
              "type": "bytes32"
            },
            {
              "internalType": "uint256",
              "name": "value",
              "type": "uint256"
            },
            {
              "internalType": "address",
              "name": "executor",
              "type": "address"
            },
            {
              "internalType": "bytes",
              "name": "message",
              "type": "bytes"
            },
            {
              "internalType": "bytes",
              "name": "extraData",
              "type": "bytes"
            }
          ],
          "internalType": "struct InboundPacket[]",
          "name": "_packets",
          "type": "tuple[]"
        }
      ],
      "name": "lzReceiveAndRevert",
      "outputs": [],
      "stateMutability": "payable",
      "type": "function"
    },
    {
      "inputs": [
        {
          "components": [
            {
              "internalType": "uint32",
              "name": "srcEid",
              "type": "uint32"
            },
            {
              "internalType": "bytes32",
              "name": "sender",
              "type": "bytes32"
            },
            {
              "internalType": "uint64",
              "name": "nonce",
              "type": "uint64"
            }
          ],
          "internalType": "struct Origin",
          "name": "_origin",
          "type": "tuple"
        },
        {
          "internalType": "bytes32",
          "name": "_guid",
          "type": "bytes32"
        },
        {
          "internalType": "bytes",
          "name": "_message",
          "type": "bytes"
        },
        {
          "internalType": "address",
          "name": "_executor",
          "type": "address"
        },
        {
          "internalType": "bytes",
          "name": "_extraData",
          "type": "bytes"
        }
      ],
      "name": "lzReceiveSimulate",
      "outputs": [],
      "stateMutability": "payable",
      "type": "function"
    },
    {
      "inputs": [],
      "name": "mint",
      "outputs": [],
      "stateMutability": "nonpayable",
      "type": "function"
    },
    {
      "inputs": [],
      "name": "msgInspector",
      "outputs": [
        {
          "internalType": "address",
          "name": "",
          "type": "address"
        }
      ],
      "stateMutability": "view",
      "type": "function"
    },
    {
      "inputs": [],
      "name": "name",
      "outputs": [
        {
          "internalType": "string",
          "name": "",
          "type": "string"
        }
      ],
      "stateMutability": "view",
      "type": "function"
    },
    {
      "inputs": [
        {
          "internalType": "uint32",
          "name": "",
          "type": "uint32"
        },
        {
          "internalType": "bytes32",
          "name": "",
          "type": "bytes32"
        }
      ],
      "name": "nextNonce",
      "outputs": [
        {
          "internalType": "uint64",
          "name": "nonce",
          "type": "uint64"
        }
      ],
      "stateMutability": "view",
      "type": "function"
    },
    {
      "inputs": [],
      "name": "oApp",
      "outputs": [
        {
          "internalType": "address",
          "name": "",
          "type": "address"
        }
      ],
      "stateMutability": "view",
      "type": "function"
    },
    {
      "inputs": [],
      "name": "oAppVersion",
      "outputs": [
        {
          "internalType": "uint64",
          "name": "senderVersion",
          "type": "uint64"
        },
        {
          "internalType": "uint64",
          "name": "receiverVersion",
          "type": "uint64"
        }
      ],
      "stateMutability": "pure",
      "type": "function"
    },
    {
      "inputs": [],
      "name": "oftVersion",
      "outputs": [
        {
          "internalType": "bytes4",
          "name": "interfaceId",
          "type": "bytes4"
        },
        {
          "internalType": "uint64",
          "name": "version",
          "type": "uint64"
        }
      ],
      "stateMutability": "pure",
      "type": "function"
    },
    {
      "inputs": [],
      "name": "owner",
      "outputs": [
        {
          "internalType": "address",
          "name": "",
          "type": "address"
        }
      ],
      "stateMutability": "view",
      "type": "function"
    },
    {
      "inputs": [
        {
          "internalType": "uint32",
          "name": "eid",
          "type": "uint32"
        }
      ],
      "name": "peers",
      "outputs": [
        {
          "internalType": "bytes32",
          "name": "peer",
          "type": "bytes32"
        }
      ],
      "stateMutability": "view",
      "type": "function"
    },
    {
      "inputs": [],
      "name": "preCrime",
      "outputs": [
        {
          "internalType": "address",
          "name": "",
          "type": "address"
        }
      ],
      "stateMutability": "view",
      "type": "function"
    },
    {
      "inputs": [
        {
          "components": [
            {
              "internalType": "uint32",
              "name": "dstEid",
              "type": "uint32"
            },
            {
              "internalType": "bytes32",
              "name": "to",
              "type": "bytes32"
            },
            {
              "internalType": "uint256",
              "name": "amountLD",
              "type": "uint256"
            },
            {
              "internalType": "uint256",
              "name": "minAmountLD",
              "type": "uint256"
            },
            {
              "internalType": "bytes",
              "name": "extraOptions",
              "type": "bytes"
            },
            {
              "internalType": "bytes",
              "name": "composeMsg",
              "type": "bytes"
            },
            {
              "internalType": "bytes",
              "name": "oftCmd",
              "type": "bytes"
            }
          ],
          "internalType": "struct SendParam",
          "name": "_sendParam",
          "type": "tuple"
        }
      ],
      "name": "quoteOFT",
      "outputs": [
        {
          "components": [
            {
              "internalType": "uint256",
              "name": "minAmountLD",
              "type": "uint256"
            },
            {
              "internalType": "uint256",
              "name": "maxAmountLD",
              "type": "uint256"
            }
          ],
          "internalType": "struct OFTLimit",
          "name": "oftLimit",
          "type": "tuple"
        },
        {
          "components": [
            {
              "internalType": "int256",
              "name": "feeAmountLD",
              "type": "int256"
            },
            {
              "internalType": "string",
              "name": "description",
              "type": "string"
            }
          ],
          "internalType": "struct OFTFeeDetail[]",
          "name": "oftFeeDetails",
          "type": "tuple[]"
        },
        {
          "components": [
            {
              "internalType": "uint256",
              "name": "amountSentLD",
              "type": "uint256"
            },
            {
              "internalType": "uint256",
              "name": "amountReceivedLD",
              "type": "uint256"
            }
          ],
          "internalType": "struct OFTReceipt",
          "name": "oftReceipt",
          "type": "tuple"
        }
      ],
      "stateMutability": "view",
      "type": "function"
    },
    {
      "inputs": [
        {
          "components": [
            {
              "internalType": "uint32",
              "name": "dstEid",
              "type": "uint32"
            },
            {
              "internalType": "bytes32",
              "name": "to",
              "type": "bytes32"
            },
            {
              "internalType": "uint256",
              "name": "amountLD",
              "type": "uint256"
            },
            {
              "internalType": "uint256",
              "name": "minAmountLD",
              "type": "uint256"
            },
            {
              "internalType": "bytes",
              "name": "extraOptions",
              "type": "bytes"
            },
            {
              "internalType": "bytes",
              "name": "composeMsg",
              "type": "bytes"
            },
            {
              "internalType": "bytes",
              "name": "oftCmd",
              "type": "bytes"
            }
          ],
          "internalType": "struct SendParam",
          "name": "_sendParam",
          "type": "tuple"
        },
        {
          "internalType": "bool",
          "name": "_payInLzToken",
          "type": "bool"
        }
      ],
      "name": "quoteSend",
      "outputs": [
        {
          "components": [
            {
              "internalType": "uint256",
              "name": "nativeFee",
              "type": "uint256"
            },
            {
              "internalType": "uint256",
              "name": "lzTokenFee",
              "type": "uint256"
            }
          ],
          "internalType": "struct MessagingFee",
          "name": "msgFee",
          "type": "tuple"
        }
      ],
      "stateMutability": "view",
      "type": "function"
    },
    {
      "inputs": [],
      "name": "renounceOwnership",
      "outputs": [],
      "stateMutability": "nonpayable",
      "type": "function"
    },
    {
      "inputs": [
        {
          "components": [
            {
              "internalType": "uint32",
              "name": "dstEid",
              "type": "uint32"
            },
            {
              "internalType": "bytes32",
              "name": "to",
              "type": "bytes32"
            },
            {
              "internalType": "uint256",
              "name": "amountLD",
              "type": "uint256"
            },
            {
              "internalType": "uint256",
              "name": "minAmountLD",
              "type": "uint256"
            },
            {
              "internalType": "bytes",
              "name": "extraOptions",
              "type": "bytes"
            },
            {
              "internalType": "bytes",
              "name": "composeMsg",
              "type": "bytes"
            },
            {
              "internalType": "bytes",
              "name": "oftCmd",
              "type": "bytes"
            }
          ],
          "internalType": "struct SendParam",
          "name": "_sendParam",
          "type": "tuple"
        },
        {
          "components": [
            {
              "internalType": "uint256",
              "name": "nativeFee",
              "type": "uint256"
            },
            {
              "internalType": "uint256",
              "name": "lzTokenFee",
              "type": "uint256"
            }
          ],
          "internalType": "struct MessagingFee",
          "name": "_fee",
          "type": "tuple"
        },
        {
          "internalType": "address",
          "name": "_refundAddress",
          "type": "address"
        }
      ],
      "name": "send",
      "outputs": [
        {
          "components": [
            {
              "internalType": "bytes32",
              "name": "guid",
              "type": "bytes32"
            },
            {
              "internalType": "uint64",
              "name": "nonce",
              "type": "uint64"
            },
            {
              "components": [
                {
                  "internalType": "uint256",
                  "name": "nativeFee",
                  "type": "uint256"
                },
                {
                  "internalType": "uint256",
                  "name": "lzTokenFee",
                  "type": "uint256"
                }
              ],
              "internalType": "struct MessagingFee",
              "name": "fee",
              "type": "tuple"
            }
          ],
          "internalType": "struct MessagingReceipt",
          "name": "msgReceipt",
          "type": "tuple"
        },
        {
          "components": [
            {
              "internalType": "uint256",
              "name": "amountSentLD",
              "type": "uint256"
            },
            {
              "internalType": "uint256",
              "name": "amountReceivedLD",
              "type": "uint256"
            }
          ],
          "internalType": "struct OFTReceipt",
          "name": "oftReceipt",
          "type": "tuple"
        }
      ],
      "stateMutability": "payable",
      "type": "function"
    },
    {
      "inputs": [
        {
          "internalType": "address",
          "name": "_delegate",
          "type": "address"
        }
      ],
      "name": "setDelegate",
      "outputs": [],
      "stateMutability": "nonpayable",
      "type": "function"
    },
    {
      "inputs": [
        {
          "components": [
            {
              "internalType": "uint256",
              "name": "staking",
              "type": "uint256"
            },
            {
              "internalType": "uint256",
              "name": "auction",
              "type": "uint256"
            },
            {
              "internalType": "uint256",
              "name": "gnosis",
              "type": "uint256"
            }
          ],
          "internalType": "struct ITempleGold.DistributionParams",
          "name": "_params",
          "type": "tuple"
        }
      ],
      "name": "setDistributionParams",
      "outputs": [],
      "stateMutability": "nonpayable",
      "type": "function"
    },
    {
      "inputs": [
        {
          "components": [
            {
              "internalType": "uint32",
              "name": "eid",
              "type": "uint32"
            },
            {
              "internalType": "uint16",
              "name": "msgType",
              "type": "uint16"
            },
            {
              "internalType": "bytes",
              "name": "options",
              "type": "bytes"
            }
          ],
          "internalType": "struct EnforcedOptionParam[]",
          "name": "_enforcedOptions",
          "type": "tuple[]"
        }
      ],
      "name": "setEnforcedOptions",
      "outputs": [],
      "stateMutability": "nonpayable",
      "type": "function"
    },
    {
      "inputs": [
        {
          "internalType": "address",
          "name": "_msgInspector",
          "type": "address"
        }
      ],
      "name": "setMsgInspector",
      "outputs": [],
      "stateMutability": "nonpayable",
      "type": "function"
    },
    {
      "inputs": [
        {
          "internalType": "uint32",
          "name": "_eid",
          "type": "uint32"
        },
        {
          "internalType": "bytes32",
          "name": "_peer",
          "type": "bytes32"
        }
      ],
      "name": "setPeer",
      "outputs": [],
      "stateMutability": "nonpayable",
      "type": "function"
    },
    {
      "inputs": [
        {
          "internalType": "address",
          "name": "_preCrime",
          "type": "address"
        }
      ],
      "name": "setPreCrime",
      "outputs": [],
      "stateMutability": "nonpayable",
      "type": "function"
    },
    {
      "inputs": [
        {
          "internalType": "address",
          "name": "_auction",
          "type": "address"
        }
      ],
      "name": "setStableGoldAuction",
      "outputs": [],
      "stateMutability": "nonpayable",
      "type": "function"
    },
    {
      "inputs": [
        {
          "internalType": "address",
          "name": "_staking",
          "type": "address"
        }
      ],
      "name": "setStaking",
      "outputs": [],
      "stateMutability": "nonpayable",
      "type": "function"
    },
    {
      "inputs": [
        {
          "internalType": "address",
          "name": "_gnosis",
          "type": "address"
        }
      ],
      "name": "setTeamGnosis",
      "outputs": [],
      "stateMutability": "nonpayable",
      "type": "function"
    },
    {
      "inputs": [
        {
          "components": [
            {
              "internalType": "uint128",
              "name": "value",
              "type": "uint128"
            },
            {
              "internalType": "uint128",
              "name": "weekMultiplier",
              "type": "uint128"
            }
          ],
          "internalType": "struct ITempleGold.VestingFactor",
          "name": "_factor",
          "type": "tuple"
        }
      ],
      "name": "setVestingFactor",
      "outputs": [],
      "stateMutability": "nonpayable",
      "type": "function"
    },
    {
      "inputs": [],
      "name": "sharedDecimals",
      "outputs": [
        {
          "internalType": "uint8",
          "name": "",
          "type": "uint8"
        }
      ],
      "stateMutability": "view",
      "type": "function"
    },
    {
      "inputs": [],
      "name": "staking",
      "outputs": [
        {
          "internalType": "contract ITempleGoldStaking",
          "name": "",
          "type": "address"
        }
      ],
      "stateMutability": "view",
      "type": "function"
    },
    {
      "inputs": [],
      "name": "symbol",
      "outputs": [
        {
          "internalType": "string",
          "name": "",
          "type": "string"
        }
      ],
      "stateMutability": "view",
      "type": "function"
    },
    {
      "inputs": [],
      "name": "teamGnosis",
      "outputs": [
        {
          "internalType": "address",
          "name": "",
          "type": "address"
        }
      ],
      "stateMutability": "view",
      "type": "function"
    },
    {
      "inputs": [],
      "name": "token",
      "outputs": [
        {
          "internalType": "address",
          "name": "",
          "type": "address"
        }
      ],
      "stateMutability": "view",
      "type": "function"
    },
    {
      "inputs": [],
      "name": "totalDistributed",
      "outputs": [
        {
          "internalType": "uint256",
          "name": "",
          "type": "uint256"
        }
      ],
      "stateMutability": "view",
      "type": "function"
    },
    {
      "inputs": [],
      "name": "totalSupply",
      "outputs": [
        {
          "internalType": "uint256",
          "name": "",
          "type": "uint256"
        }
      ],
      "stateMutability": "view",
      "type": "function"
    },
    {
      "inputs": [
        {
          "internalType": "address",
          "name": "to",
          "type": "address"
        },
        {
          "internalType": "uint256",
          "name": "value",
          "type": "uint256"
        }
      ],
      "name": "transfer",
      "outputs": [
        {
          "internalType": "bool",
          "name": "",
          "type": "bool"
        }
      ],
      "stateMutability": "nonpayable",
      "type": "function"
    },
    {
      "inputs": [
        {
          "internalType": "address",
          "name": "from",
          "type": "address"
        },
        {
          "internalType": "address",
          "name": "to",
          "type": "address"
        },
        {
          "internalType": "uint256",
          "name": "value",
          "type": "uint256"
        }
      ],
      "name": "transferFrom",
      "outputs": [
        {
          "internalType": "bool",
          "name": "",
          "type": "bool"
        }
      ],
      "stateMutability": "nonpayable",
      "type": "function"
    },
    {
      "inputs": [
        {
          "internalType": "address",
          "name": "newOwner",
          "type": "address"
        }
      ],
      "name": "transferOwnership",
      "outputs": [],
      "stateMutability": "nonpayable",
      "type": "function"
    }
  ],
  "bytecode": "0x61010060405234801561001157600080fd5b5060405161571738038061571783398101604081905261003091610326565b608081015160a08201516020830151835183836012848481818181806001600160a01b03811661007a57604051631e4fbdf760e01b81526000600482015260240160405180910390fd5b610083816101ab565b506001600160a01b0380831660805281166100b157604051632d618d8160e21b815260040160405180910390fd5b60805160405163ca5eb5e160e01b81526001600160a01b0383811660048301529091169063ca5eb5e190602401600060405180830381600087803b1580156100f857600080fd5b505af115801561010c573d6000803e3d6000fd5b50505050505050506101226101fb60201b60201c565b60ff168360ff161015610148576040516301e9714b60e41b815260040160405180910390fd5b61015360068461041a565b61015e90600a610520565b60a0525060089150610172905083826105bf565b50600961017f82826105bf565b50505060408501516001600160801b0390811660c05260609095015190941660e0525061067d92505050565b600080546001600160a01b038381166001600160a01b0319831681178455604051919092169283917f8be0079c531659141344cd1fd0a4f28419497f9722a3daafe3b4186f6b6457e09190a35050565b600690565b634e487b7160e01b600052604160045260246000fd5b60405160c081016001600160401b038111828210171561023857610238610200565b60405290565b604051601f8201601f191681016001600160401b038111828210171561026657610266610200565b604052919050565b80516001600160a01b038116811461028557600080fd5b919050565b80516001600160801b038116811461028557600080fd5b600082601f8301126102b257600080fd5b81516001600160401b038111156102cb576102cb610200565b6102de601f8201601f191660200161023e565b8181528460208386010111156102f357600080fd5b60005b82811015610312576020818601810151838301820152016102f6565b506000918101602001919091529392505050565b60006020828403121561033857600080fd5b81516001600160401b0381111561034e57600080fd5b820160c0818503121561036057600080fd5b610368610216565b6103718261026e565b815261037f6020830161026e565b60208201526103906040830161028a565b60408201526103a16060830161028a565b606082015260808201516001600160401b038111156103bf57600080fd5b6103cb868285016102a1565b60808301525060a08201516001600160401b038111156103ea57600080fd5b6103f6868285016102a1565b60a083015250949350505050565b634e487b7160e01b600052601160045260246000fd5b60ff828116828216039081111561043357610433610404565b92915050565b6001815b60018411156104745780850481111561045857610458610404565b600184161561046657908102905b60019390931c92800261043d565b935093915050565b60008261048b57506001610433565b8161049857506000610433565b81600181146104ae57600281146104b8576104d4565b6001915050610433565b60ff8411156104c9576104c9610404565b50506001821b610433565b5060208310610133831016604e8410600b84101617156104f7575081810a610433565b6105046000198484610439565b806000190482111561051857610518610404565b029392505050565b600061052f60ff84168361047c565b9392505050565b600181811c9082168061054a57607f821691505b60208210810361056a57634e487b7160e01b600052602260045260246000fd5b50919050565b601f8211156105ba57806000526020600020601f840160051c810160208510156105975750805b601f840160051c820191505b818110156105b757600081556001016105a3565b50505b505050565b81516001600160401b038111156105d8576105d8610200565b6105ec816105e68454610536565b84610570565b6020601f82116001811461062057600083156106085750848201515b600019600385901b1c1916600184901b1784556105b7565b600084815260208120601f198516915b828110156106505787850151825560209485019460019092019101610630565b508482101561066e5786840151600019600387901b60f8161c191681555b50505050600190811b01905550565b60805160a05160c05160e051614ff861071f6000396000611e01015260008181610ebb01528181611116015281816112ba015281816115c0015281816116f30152818161183501526120940152600081816109b10152818161332e0152818161343b01526135a301526000818161072501528181610fe90152818161202b01528181612d0a015281816130e60152818161369f01526137980152614ff86000f3fe6080604052600436106103c35760003560e01c80638da5cb5b116101f2578063b98bd0701161010d578063d4243885116100a0578063efca2eed1161006f578063efca2eed14610ce6578063f2fde38b14610cfb578063fc0c546a14610689578063ff7bd03d14610d1b57600080fd5b8063d424388514610be8578063d677947e14610c08578063dd62ed3e14610c1d578063e71cc65c14610c7057600080fd5b8063c7c7f5b3116100dc578063c7c7f5b314610b74578063ca5eb5e114610b95578063cb5cf37014610bb5578063d045a0dc14610bd557600080fd5b8063b98bd07014610af4578063bb0b6a5314610b14578063bc70b35414610b41578063bd815db014610b6157600080fd5b80639f335d9a11610185578063a9059cbb11610154578063a9059cbb14610a5a578063b731ea0a14610a7a578063b7de9ad614610aa7578063b918161114610ac457600080fd5b80639f335d9a146109f35780639f68b96414610a11578063a1b85eba14610a25578063a8995deb14610a4557600080fd5b80639358928b116101c15780639358928b1461097557806395d89b411461098a578063963efcaa1461099f5780639dcb114c146109d357600080fd5b80638da5cb5b146108c05780638e80ff5d146108eb5780638f2419d3146109355780638ff390991461095557600080fd5b806342966c68116102e25780637027ecfb116102755780637d25a05e116102445780637d25a05e146108235780637d9f6db51461085f57806382413eac1461088c578063857749b0146108ac57600080fd5b80637027ecfb1461076757806370a082311461079e578063715018a6146107e15780637a962f4c146107f657600080fd5b80635a0dfe4d116102b15780635a0dfe4d146106bc5780635cbeb13f146106f35780635e280f11146107135780636fc1b31e1461074757600080fd5b806342966c681461063c5780634cf088d91461065c57806352ae2879146106895780635535d4611461069c57600080fd5b806317442b701161035a578063246080271161032957806324608027146105ad578063313ce567146105cd5780633400288b146105ef5780633b6f743b1461060f57600080fd5b806317442b701461053757806318160ddd146105595780631f5e13341461057857806323b872dd1461058d57600080fd5b80631249c58b116103965780631249c58b146104a457806313137d65146104bb578063134d4f25146104ce578063156a0d0f146104f657600080fd5b806306fdde03146103c8578063095ea7b3146103f35780630d35b41514610423578063111ecdad14610452575b600080fd5b3480156103d457600080fd5b506103dd610d3b565b6040516103ea9190613d8f565b60405180910390f35b3480156103ff57600080fd5b5061041361040e366004613dc4565b610dcd565b60405190151581526020016103ea565b34801561042f57600080fd5b5061044361043e366004613e08565b610de7565b6040516103ea93929190613e3d565b34801561045e57600080fd5b5060045461047f9073ffffffffffffffffffffffffffffffffffffffff1681565b60405173ffffffffffffffffffffffffffffffffffffffff90911681526020016103ea565b3480156104b057600080fd5b506104b9610eb9565b005b6104b96104c9366004613f53565b610fe7565b3480156104da57600080fd5b506104e3600281565b60405161ffff90911681526020016103ea565b34801561050257600080fd5b50604080517f02e49c2c00000000000000000000000000000000000000000000000000000000815260016020820152016103ea565b34801561054357600080fd5b50604080516001815260026020820152016103ea565b34801561056557600080fd5b506007545b6040519081526020016103ea565b34801561058457600080fd5b506104e3600181565b34801561059957600080fd5b506104136105a8366004613ff6565b6110e6565b3480156105b957600080fd5b506104b96105c8366004614037565b61110c565b3480156105d957600080fd5b5060125b60405160ff90911681526020016103ea565b3480156105fb57600080fd5b506104b961060a36600461406c565b61123b565b34801561061b57600080fd5b5061062f61062a366004614096565b611251565b6040516103ea91906140e8565b34801561064857600080fd5b506104b96106573660046140ff565b6112b8565b34801561066857600080fd5b50600a5461047f9073ffffffffffffffffffffffffffffffffffffffff1681565b34801561069557600080fd5b503061047f565b3480156106a857600080fd5b506103dd6106b736600461412a565b61133a565b3480156106c857600080fd5b506104136106d736600461406c565b63ffffffff919091166000908152600160205260409020541490565b3480156106ff57600080fd5b506104b961070e36600461415d565b6113df565b34801561071f57600080fd5b5061047f7f000000000000000000000000000000000000000000000000000000000000000081565b34801561075357600080fd5b506104b961076236600461418b565b6114be565b34801561077357600080fd5b5061077c611539565b60408051825181526020808401519082015291810151908201526060016103ea565b3480156107aa57600080fd5b5061056a6107b936600461418b565b73ffffffffffffffffffffffffffffffffffffffff1660009081526005602052604090205490565b3480156107ed57600080fd5b506104b9611582565b34801561080257600080fd5b50600c5461047f9073ffffffffffffffffffffffffffffffffffffffff1681565b34801561082f57600080fd5b5061084661083e36600461406c565b600092915050565b60405167ffffffffffffffff90911681526020016103ea565b34801561086b57600080fd5b50600b5461047f9073ffffffffffffffffffffffffffffffffffffffff1681565b34801561089857600080fd5b506104136108a73660046141a8565b611594565b3480156108b857600080fd5b5060066105dd565b3480156108cc57600080fd5b5060005473ffffffffffffffffffffffffffffffffffffffff1661047f565b3480156108f757600080fd5b50600c546109209074010000000000000000000000000000000000000000900463ffffffff1681565b60405163ffffffff90911681526020016103ea565b34801561094157600080fd5b506104b961095036600461418b565b6115b6565b34801561096157600080fd5b506104b961097036600461418b565b6116e9565b34801561098157600080fd5b50600f5461056a565b34801561099657600080fd5b506103dd61181c565b3480156109ab57600080fd5b5061056a7f000000000000000000000000000000000000000000000000000000000000000081565b3480156109df57600080fd5b5061056a6b033b2e3c9fd0803ce800000081565b3480156109ff57600080fd5b5061056a69021e19e0c9bab240000081565b348015610a1d57600080fd5b506000610413565b348015610a3157600080fd5b506104b9610a4036600461418b565b61182b565b348015610a5157600080fd5b5061056a61195e565b348015610a6657600080fd5b50610413610a75366004613dc4565b6119ae565b348015610a8657600080fd5b5060025461047f9073ffffffffffffffffffffffffffffffffffffffff1681565b348015610ab357600080fd5b5061056a68056bc75e2d6310000081565b348015610ad057600080fd5b50610413610adf36600461418b565b60106020526000908152604090205460ff1681565b348015610b0057600080fd5b506104b9610b0f366004614254565b6119bc565b348015610b2057600080fd5b5061056a610b2f366004614296565b60016020526000908152604090205481565b348015610b4d57600080fd5b506103dd610b5c3660046142b1565b6119d6565b6104b9610b6f366004614254565b611b97565b610b87610b82366004614324565b611d65565b6040516103ea929190614387565b348015610ba157600080fd5b506104b9610bb036600461418b565b611fde565b348015610bc157600080fd5b506104b9610bd03660046143da565b61208a565b6104b9610be3366004613f53565b612271565b348015610bf457600080fd5b506104b9610c0336600461418b565b6122b9565b348015610c1457600080fd5b50610413612334565b348015610c2957600080fd5b5061056a610c383660046143f6565b73ffffffffffffffffffffffffffffffffffffffff918216600090815260066020908152604080832093909416825291909152205490565b348015610c7c57600080fd5b506040805180820182526000808252602091820152815180830183526014546fffffffffffffffffffffffffffffffff80821680845270010000000000000000000000000000000090920481169284019283528451918252915190911691810191909152016103ea565b348015610cf257600080fd5b50600d5461056a565b348015610d0757600080fd5b506104b9610d1636600461418b565b61237e565b348015610d2757600080fd5b50610413610d36366004614037565b6123df565b606060088054610d4a90614424565b80601f0160208091040260200160405190810160405280929190818152602001828054610d7690614424565b8015610dc35780601f10610d9857610100808354040283529160200191610dc3565b820191906000526020600020905b815481529060010190602001808311610da657829003601f168201915b5050505050905090565b600033610ddb818585612415565b60019150505b92915050565b60408051808201909152600080825260208201526060610e1a604051806040016040528060008152602001600081525090565b604080518082018252600080825267ffffffffffffffff602080840182905284518381529081019094529195509182610e76565b604080518082019091526000815260606020820152815260200190600190039081610e4e5790505b509350600080610e9b604089013560608a0135610e9660208c018c614296565b612422565b60408051808201909152918252602082015296989597505050505050565b7f00000000000000000000000000000000000000000000000000000000000000006fffffffffffffffffffffffffffffffff164614610f24576040517f10dfc03300000000000000000000000000000000000000000000000000000000815260040160405180910390fd5b604080518082019091526014546fffffffffffffffffffffffffffffffff808216808452700100000000000000000000000000000000909204166020830152601190600003610f71575050565b6000610f7c8361247f565b9050610f8781612553565b610f9057505050565b600c80547fffffffffffffffff00000000ffffffffffffffffffffffffffffffffffffffff16740100000000000000000000000000000000000000004263ffffffff1602179055610fe1828261259b565b5050505b565b7f000000000000000000000000000000000000000000000000000000000000000073ffffffffffffffffffffffffffffffffffffffff16331461105d576040517f91ac5e4f0000000000000000000000000000000000000000000000000000000081523360048201526024015b60405180910390fd5b6020870180359061107790611072908a614296565b6127f3565b146110ce576110896020880188614296565b6040517fc26bebcc00000000000000000000000000000000000000000000000000000000815263ffffffff909116600482015260208801356024820152604401611054565b6110dd87878787878787612848565b50505050505050565b6000336110f485828561297b565b6110ff858585612a4a565b60019150505b9392505050565b611114612af5565b7f00000000000000000000000000000000000000000000000000000000000000006fffffffffffffffffffffffffffffffff16461461117f576040517f10dfc03300000000000000000000000000000000000000000000000000000000815260040160405180910390fd5b68056bc75e2d63100000602082013561119d604084013584356144cf565b6111a791906144cf565b146111de576040517fd092e7b700000000000000000000000000000000000000000000000000000000815260040160405180910390fd5b80356011819055602080830135601281905560408085013560138190558151948552928401919091528201527f3b4270ae8d61147b12973c792d879467685ec408647743ce9b9afd6a0763289c906060015b60405180910390a150565b611243612af5565b61124d8282612b48565b5050565b6040805180820190915260008082526020820152600061128160408501356060860135610e966020880188614296565b9150506000806112918684612b9d565b90925090506112ae6112a66020880188614296565b838388612cf4565b9695505050505050565b7f00000000000000000000000000000000000000000000000000000000000000006fffffffffffffffffffffffffffffffff164614611323576040517f10dfc03300000000000000000000000000000000000000000000000000000000815260040160405180910390fd5b61132d3382612de2565b6113373382612e3e565b50565b60036020908152600092835260408084209091529082529020805461135e90614424565b80601f016020809104026020016040519081016040528092919081815260200182805461138a90614424565b80156113d75780601f106113ac576101008083540402835291602001916113d7565b820191906000526020600020905b8154815290600101906020018083116113ba57829003601f168201915b505050505081565b6113e7612af5565b73ffffffffffffffffffffffffffffffffffffffff8216611434576040517fe6c4247b00000000000000000000000000000000000000000000000000000000815260040160405180910390fd5b73ffffffffffffffffffffffffffffffffffffffff821660008181526010602090815260409182902080547fffffffffffffffffffffffffffffffffffffffffffffffffffffffffffffff001685151590811790915591519182527f8ef11fcc7ba2acd30d3c67a4ed9b0261e93c5bb66d31d5dd4dff82c83d860bda910160405180910390a25050565b6114c6612af5565b600480547fffffffffffffffffffffffff00000000000000000000000000000000000000001673ffffffffffffffffffffffffffffffffffffffff83169081179091556040519081527ff0be4f1e87349231d80c36b33f9e8639658eeaf474014dee15a3e6a4d441419790602001611230565b61155d60405180606001604052806000815260200160008152602001600081525090565b5060408051606081018252601154815260125460208201526013549181019190915290565b61158a612af5565b610fe56000612ecc565b73ffffffffffffffffffffffffffffffffffffffff811630145b949350505050565b6115be612af5565b7f00000000000000000000000000000000000000000000000000000000000000006fffffffffffffffffffffffffffffffff164614611629576040517f10dfc03300000000000000000000000000000000000000000000000000000000815260040160405180910390fd5b73ffffffffffffffffffffffffffffffffffffffff8116611676576040517fe6c4247b00000000000000000000000000000000000000000000000000000000815260040160405180910390fd5b600c80547fffffffffffffffffffffffff00000000000000000000000000000000000000001673ffffffffffffffffffffffffffffffffffffffff83169081179091556040519081527ff782216d1b02bb841c11576e3acbe7ef0dcc261caed6eee061871387f3cfd18190602001611230565b6116f1612af5565b7f00000000000000000000000000000000000000000000000000000000000000006fffffffffffffffffffffffffffffffff16461461175c576040517f10dfc03300000000000000000000000000000000000000000000000000000000815260040160405180910390fd5b73ffffffffffffffffffffffffffffffffffffffff81166117a9576040517fe6c4247b00000000000000000000000000000000000000000000000000000000815260040160405180910390fd5b600a80547fffffffffffffffffffffffff00000000000000000000000000000000000000001673ffffffffffffffffffffffffffffffffffffffff83169081179091556040519081527ff520447191196b125f76f7110397fdf32b1b9cefb7dec323bd3b998022ac233890602001611230565b606060098054610d4a90614424565b611833612af5565b7f00000000000000000000000000000000000000000000000000000000000000006fffffffffffffffffffffffffffffffff16461461189e576040517f10dfc03300000000000000000000000000000000000000000000000000000000815260040160405180910390fd5b73ffffffffffffffffffffffffffffffffffffffff81166118eb576040517fe6c4247b00000000000000000000000000000000000000000000000000000000815260040160405180910390fd5b600b80547fffffffffffffffffffffffff00000000000000000000000000000000000000001673ffffffffffffffffffffffffffffffffffffffff83169081179091556040519081527f0345019a4b882f65ce6451a4c87d09510f8606cb6eb18799aba7018d65ebada590602001611230565b604080518082019091526014546fffffffffffffffffffffffffffffffff80821683527001000000000000000000000000000000009091041660208201526000906119a88161247f565b91505090565b600033610ddb818585612a4a565b6119c4612af5565b61124d6119d182846145c3565b612f41565b63ffffffff8416600090815260036020908152604080832061ffff87168452909152812080546060929190611a0a90614424565b80601f0160208091040260200160405190810160405280929190818152602001828054611a3690614424565b8015611a835780601f10611a5857610100808354040283529160200191611a83565b820191906000526020600020905b815481529060010190602001808311611a6657829003601f168201915b505050505090508051600003611ad35783838080601f0160208091040260200160405190810160405280939291908181526020018383808284376000920191909152509294506115ae9350505050565b6000839003611ae35790506115ae565b60028310611b6157611b2a84848080601f01602080910402602001604051908101604052809392919081815260200183838082843760009201919091525061304892505050565b80611b3884600281886146ef565b604051602001611b4a93929190614719565b6040516020818303038152906040529150506115ae565b83836040517f9a6d49cd00000000000000000000000000000000000000000000000000000000815260040161105492919061478a565b60005b81811015611ca05736838383818110611bb557611bb561479e565b9050602002810190611bc791906147cd565b9050611bfa611bd96020830183614296565b602083013563ffffffff919091166000908152600160205260409020541490565b611c045750611c98565b3063d045a0dc60c08301358360a0810135611c2361010083018361480b565b611c34610100890160e08a0161418b565b611c426101208a018a61480b565b6040518963ffffffff1660e01b8152600401611c649796959493929190614886565b6000604051808303818588803b158015611c7d57600080fd5b505af1158015611c91573d6000803e3d6000fd5b5050505050505b600101611b9a565b503373ffffffffffffffffffffffffffffffffffffffff16638e9e70996040518163ffffffff1660e01b8152600401600060405180830381865afa158015611cec573d6000803e3d6000fd5b505050506040513d6000823e601f3d9081017fffffffffffffffffffffffffffffffffffffffffffffffffffffffffffffffe0168201604052611d32919081019061491a565b6040517f8351eea70000000000000000000000000000000000000000000000000000000081526004016110549190613d8f565b611d6d613cd9565b60408051808201909152600080825260208201526000611d9060a087018761480b565b90501115611dca576040517f9cad625100000000000000000000000000000000000000000000000000000000815260040160405180910390fd5b602085013573ffffffffffffffffffffffffffffffffffffffff8116158015611e3757506fffffffffffffffffffffffffffffffff7f000000000000000000000000000000000000000000000000000000000000000016611e2e6020880188614296565b63ffffffff1614155b15611e6e576040517fd252903400000000000000000000000000000000000000000000000000000000815260040160405180910390fd5b73ffffffffffffffffffffffffffffffffffffffff811615801590611ea957503373ffffffffffffffffffffffffffffffffffffffff821614155b15611efe576040517fd1d0c78400000000000000000000000000000000000000000000000000000000815233600482015273ffffffffffffffffffffffffffffffffffffffff82166024820152604401611054565b600080611f213360408a013560608b0135611f1c60208d018d614296565b61308d565b91509150600080611f328a84612b9d565b9092509050611f5e611f4760208c018c614296565b8383611f58368e90038e018e614988565b8c6130b3565b60408051808201909152858152602080820186905282519299509097503391907f85496b760a4b7f8d66384b9df21b381f5d1b1e79f229a47aaf4c232edc2fe59a90611fac908e018e614296565b6040805163ffffffff909216825260208201899052810187905260600160405180910390a35050505050935093915050565b611fe6612af5565b6040517fca5eb5e100000000000000000000000000000000000000000000000000000000815273ffffffffffffffffffffffffffffffffffffffff82811660048301527f0000000000000000000000000000000000000000000000000000000000000000169063ca5eb5e190602401600060405180830381600087803b15801561206f57600080fd5b505af1158015612083573d6000803e3d6000fd5b5050505050565b612092612af5565b7f00000000000000000000000000000000000000000000000000000000000000006fffffffffffffffffffffffffffffffff1646146120fd576040517f10dfc03300000000000000000000000000000000000000000000000000000000815260040160405180910390fd5b61210a60208201826149d9565b6fffffffffffffffffffffffffffffffff161580612147575061213360408201602083016149d9565b6fffffffffffffffffffffffffffffffff16155b1561217e576040517f54db0c8c00000000000000000000000000000000000000000000000000000000815260040160405180910390fd5b600c5474010000000000000000000000000000000000000000900463ffffffff166000036121f257600c80547fffffffffffffffff00000000ffffffffffffffffffffffffffffffffffffffff16740100000000000000000000000000000000000000004263ffffffff16021790556121fa565b6121fa610eb9565b80601461220782826149f6565b507fb3cfdbde4244db49a852e823f0cd30cbb8d07432d26b944547cfe887f09e3fb2905061223860208301836149d9565b61224860408401602085016149d9565b604080516fffffffffffffffffffffffffffffffff938416815292909116602083015201611230565b3330146122aa576040517f14d4a4e800000000000000000000000000000000000000000000000000000000815260040160405180910390fd5b6110dd878787878787876110ce565b6122c1612af5565b600280547fffffffffffffffffffffffff00000000000000000000000000000000000000001673ffffffffffffffffffffffffffffffffffffffff83169081179091556040519081527fd48d879cef83a1c0bdda516f27b13ddb1b3f8bbac1c9e1511bb2a659c242776090602001611230565b604080518082019091526014546fffffffffffffffffffffffffffffffff80821683527001000000000000000000000000000000009091041660208201526000906119a8816131cb565b612386612af5565b73ffffffffffffffffffffffffffffffffffffffff81166123d6576040517f1e4fbdf700000000000000000000000000000000000000000000000000000000815260006004820152602401611054565b61133781612ecc565b60006020820180359060019083906123f79086614296565b63ffffffff1681526020810191909152604001600020541492915050565b610fe183838360016131e2565b60008061242e8561332a565b915081905083811015612477576040517f71c4efed0000000000000000000000000000000000000000000000000000000081526004810182905260248101859052604401611054565b935093915050565b600c5460009074010000000000000000000000000000000000000000900463ffffffff168082036124b35750600092915050565b600f5460208401516fffffffffffffffffffffffffffffffff166125116124e063ffffffff851642614a77565b6124f6846b033b2e3c9fd0803ce8000000614a77565b87516fffffffffffffffffffffffffffffffff166000613361565b61251b9190614ab9565b92506b033b2e3c9fd0803ce800000061253484836144cf565b111561254c57806b033b2e3c9fd0803ce80000000392505b5050919050565b6000811580159061257c57506b033b2e3c9fd0803ce800000082600f5461257a91906144cf565b145b6125935769021e19e0c9bab2400000821015610de1565b600192915050565b60006125b783600001548368056bc75e2d631000006000613361565b9050801561266757600a546125e29073ffffffffffffffffffffffffffffffffffffffff168261339d565b600a546040517f654f2fc80000000000000000000000000000000000000000000000000000000081526004810183905273ffffffffffffffffffffffffffffffffffffffff9091169063654f2fc890602401600060405180830381600087803b15801561264e57600080fd5b505af1158015612662573d6000803e3d6000fd5b505050505b600061268384600101548468056bc75e2d631000006000613361565b9050801561273357600b546126ae9073ffffffffffffffffffffffffffffffffffffffff168261339d565b600b546040517f654f2fc80000000000000000000000000000000000000000000000000000000081526004810183905273ffffffffffffffffffffffffffffffffffffffff9091169063654f2fc890602401600060405180830381600087803b15801561271a57600080fd5b505af115801561272e573d6000803e3d6000fd5b505050505b6000816127408486614a77565b61274a9190614a77565b9050801561277557600c546127759073ffffffffffffffffffffffffffffffffffffffff168261339d565b83600d600082825461278791906144cf565b9250508190555083600f60008282546127a091906144cf565b909155505060408051848152602081018490529081018290524260608201527ff7576d8c2653e9d07af5ef229acf59b339e327d4e0eaddb4a96615534cf148f89060800160405180910390a15050505050565b63ffffffff811660009081526001602052604081205480610de1576040517ff6ff4fb700000000000000000000000000000000000000000000000000000000815263ffffffff84166004820152602401611054565b6028841115612883576040517f9cad625100000000000000000000000000000000000000000000000000000000815260040160405180910390fd5b600061289561289287876133f9565b90565b73ffffffffffffffffffffffffffffffffffffffff16036128d4576128cf60208801356128ca6128c58888613411565b613434565b612e3e565b6110dd565b60006128e361289287876133f9565b9050600061290a826128f86128c58a8a613411565b61290560208d018d614296565b61346a565b905073ffffffffffffffffffffffffffffffffffffffff8216887fefed6d3500546b29533b128a29e3a94d70788727f0507505ac12eaf2e578fd9c61295260208d018d614296565b6040805163ffffffff9092168252602082018690520160405180910390a3505050505050505050565b73ffffffffffffffffffffffffffffffffffffffff8381166000908152600660209081526040808320938616835292905220547fffffffffffffffffffffffffffffffffffffffffffffffffffffffffffffffff8114612a445781811015612a35576040517ffb8f41b200000000000000000000000000000000000000000000000000000000815273ffffffffffffffffffffffffffffffffffffffff841660048201526024810182905260448101839052606401611054565b612a44848484840360006131e2565b50505050565b73ffffffffffffffffffffffffffffffffffffffff8316612a9a576040517f96c6fd1e00000000000000000000000000000000000000000000000000000000815260006004820152602401611054565b73ffffffffffffffffffffffffffffffffffffffff8216612aea576040517fec442f0500000000000000000000000000000000000000000000000000000000815260006004820152602401611054565b610fe183838361349f565b60005473ffffffffffffffffffffffffffffffffffffffff163314610fe5576040517f118cdaa7000000000000000000000000000000000000000000000000000000008152336004820152602401611054565b63ffffffff8216600081815260016020908152604091829020849055815192835282018390527f238399d427b947898edb290f5ff0f9109849b1c3ba196a42e35f00c50a54b98b910160405180910390a15050565b6060806000612bfa8560200135612bb38661359c565b612bc060a089018961480b565b8080601f0160208091040260200160405190810160405280939291908181526020018383808284376000920191909152506135c892505050565b9093509050600081612c0d576001612c10565b60025b9050612c30612c226020880188614296565b82610b5c60808a018a61480b565b60045490935073ffffffffffffffffffffffffffffffffffffffff1615612ceb57600480546040517f043a78eb00000000000000000000000000000000000000000000000000000000815273ffffffffffffffffffffffffffffffffffffffff9091169163043a78eb91612ca8918891889101614af4565b602060405180830381865afa158015612cc5573d6000803e3d6000fd5b505050506040513d601f19601f82011682018060405250810190612ce99190614b19565b505b50509250929050565b60408051808201909152600080825260208201527f000000000000000000000000000000000000000000000000000000000000000073ffffffffffffffffffffffffffffffffffffffff1663ddc28c586040518060a001604052808863ffffffff168152602001612d64896127f3565b8152602001878152602001868152602001851515815250306040518363ffffffff1660e01b8152600401612d99929190614b36565b6040805180830381865afa158015612db5573d6000803e3d6000fd5b505050506040513d601f19601f82011682018060405250810190612dd99190614c0b565b95945050505050565b73ffffffffffffffffffffffffffffffffffffffff8216612e32576040517f96c6fd1e00000000000000000000000000000000000000000000000000000000815260006004820152602401611054565b61124d8260008361349f565b600081600e54612e4e91906144cf565b600e8190559050600082600f54612e659190614a77565b600f819055604080518581526020810183905290810184905290915073ffffffffffffffffffffffffffffffffffffffff8516907f87dad80f3ba50e9e7ca4442fee6772eb468383860cc7e9d493b2b6bc33da7d199060600160405180910390a250505050565b6000805473ffffffffffffffffffffffffffffffffffffffff8381167fffffffffffffffffffffffff0000000000000000000000000000000000000000831681178455604051919092169283917f8be0079c531659141344cd1fd0a4f28419497f9722a3daafe3b4186f6b6457e09190a35050565b60005b815181101561301857612f73828281518110612f6257612f6261479e565b602002602001015160400151613048565b818181518110612f8557612f8561479e565b60200260200101516040015160036000848481518110612fa757612fa761479e565b60200260200101516000015163ffffffff1663ffffffff1681526020019081526020016000206000848481518110612fe157612fe161479e565b60200260200101516020015161ffff1661ffff168152602001908152602001600020908161300f9190614c6e565b50600101612f44565b507fbe4864a8e820971c0247f5992e2da559595f7bf076a21cb5928d443d2a13b674816040516112309190614d87565b600281015161ffff811660031461124d57816040517f9a6d49cd0000000000000000000000000000000000000000000000000000000081526004016110549190613d8f565b60008061309b858585612422565b90925090506130aa8683612de2565b94509492505050565b6130bb613cd9565b60006130ca846000015161365a565b6020850151909150156130e4576130e4846020015161369b565b7f000000000000000000000000000000000000000000000000000000000000000073ffffffffffffffffffffffffffffffffffffffff16632637a450826040518060a001604052808b63ffffffff1681526020016131418c6127f3565b81526020018a815260200189815260200160008960200151111515815250866040518463ffffffff1660e01b815260040161317d929190614b36565b60806040518083038185885af115801561319b573d6000803e3d6000fd5b50505050506040513d601f19601f820116820180604052508101906131c09190614e35565b979650505050505050565b6000806131d78361247f565b905061110581612553565b73ffffffffffffffffffffffffffffffffffffffff8416613232576040517fe602df0500000000000000000000000000000000000000000000000000000000815260006004820152602401611054565b73ffffffffffffffffffffffffffffffffffffffff8316613282576040517f94280d6200000000000000000000000000000000000000000000000000000000815260006004820152602401611054565b73ffffffffffffffffffffffffffffffffffffffff80851660009081526006602090815260408083209387168352929052208290558015612a44578273ffffffffffffffffffffffffffffffffffffffff168473ffffffffffffffffffffffffffffffffffffffff167f8c5be1e5ebec7d5bd14f71427d1e84f3dd0314c0f7b2291e5b200ac8c7c3b9258460405161331c91815260200190565b60405180910390a350505050565b60007f00000000000000000000000000000000000000000000000000000000000000006133578184614ab9565b610de19190614e81565b600061336e8585856137bd565b905081801561338d57506000838061338857613388614a8a565b858709115b156115ae57612dd96001826144cf565b73ffffffffffffffffffffffffffffffffffffffff82166133ed576040517fec442f0500000000000000000000000000000000000000000000000000000000815260006004820152602401611054565b61124d6000838361349f565b600061340860208284866146ef565b61110591614e98565b60006134216028602084866146ef565b61342a91614ed4565b60c01c9392505050565b6000610de17f000000000000000000000000000000000000000000000000000000000000000067ffffffffffffffff8416614e81565b600073ffffffffffffffffffffffffffffffffffffffff841661348d5761dead93505b613497848461339d565b509092915050565b73ffffffffffffffffffffffffffffffffffffffff8316158015906134d9575073ffffffffffffffffffffffffffffffffffffffff821615155b156135915773ffffffffffffffffffffffffffffffffffffffff831660009081526010602052604090205460ff1615801561353a575073ffffffffffffffffffffffffffffffffffffffff821660009081526010602052604090205460ff16155b15613591576040517fd1d0c78400000000000000000000000000000000000000000000000000000000815273ffffffffffffffffffffffffffffffffffffffff808516600483015283166024820152604401611054565b610fe18383836138c8565b6000610de17f000000000000000000000000000000000000000000000000000000000000000083614ab9565b805160609015158061362957848460405160200161361592919091825260c01b7fffffffffffffffff00000000000000000000000000000000000000000000000016602082015260280190565b604051602081830303815290604052613650565b848433856040516020016136409493929190614f3a565b6040516020818303038152906040525b9150935093915050565b6000813414613697576040517f9f704120000000000000000000000000000000000000000000000000000000008152346004820152602401611054565b5090565b60007f000000000000000000000000000000000000000000000000000000000000000073ffffffffffffffffffffffffffffffffffffffff1663e4fe1d946040518163ffffffff1660e01b8152600401602060405180830381865afa158015613708573d6000803e3d6000fd5b505050506040513d601f19601f8201168201806040525081019061372c9190614f93565b905073ffffffffffffffffffffffffffffffffffffffff811661377b576040517f5373352a00000000000000000000000000000000000000000000000000000000815260040160405180910390fd5b61124d73ffffffffffffffffffffffffffffffffffffffff8216337f000000000000000000000000000000000000000000000000000000000000000085613a73565b600080807fffffffffffffffffffffffffffffffffffffffffffffffffffffffffffffffff858709858702925082811083820303915050806000036138155783828161380b5761380b614a8a565b0492505050611105565b83811061385f576040517f63a05778000000000000000000000000000000000000000000000000000000008152600481018790526024810186905260448101859052606401611054565b60008486880960026001871981018816978890046003810283188082028403028082028403028082028403028082028403028082028403029081029092039091026000889003889004909101858311909403939093029303949094049190911702949350505050565b73ffffffffffffffffffffffffffffffffffffffff83166139005780600760008282546138f591906144cf565b909155506139b29050565b73ffffffffffffffffffffffffffffffffffffffff831660009081526005602052604090205481811015613986576040517fe450d38c00000000000000000000000000000000000000000000000000000000815273ffffffffffffffffffffffffffffffffffffffff851660048201526024810182905260448101839052606401611054565b73ffffffffffffffffffffffffffffffffffffffff841660009081526005602052604090209082900390555b73ffffffffffffffffffffffffffffffffffffffff82166139db57600780548290039055613a07565b73ffffffffffffffffffffffffffffffffffffffff821660009081526005602052604090208054820190555b8173ffffffffffffffffffffffffffffffffffffffff168373ffffffffffffffffffffffffffffffffffffffff167fddf252ad1be2c89b69c2b068fc378daa952ba7f163c4a11628f55a4df523b3ef83604051613a6691815260200190565b60405180910390a3505050565b6040805173ffffffffffffffffffffffffffffffffffffffff8581166024830152848116604483015260648083018590528351808403909101815260849092019092526020810180517bffffffffffffffffffffffffffffffffffffffffffffffffffffffff167f23b872dd00000000000000000000000000000000000000000000000000000000179052612a4491869190600090613b1490841683613b88565b90508051600014158015613b39575080806020019051810190613b379190614b19565b155b15610fe1576040517f5274afe700000000000000000000000000000000000000000000000000000000815273ffffffffffffffffffffffffffffffffffffffff84166004820152602401611054565b606061110583836000846000808573ffffffffffffffffffffffffffffffffffffffff168486604051613bbb9190614fb0565b60006040518083038185875af1925050503d8060008114613bf8576040519150601f19603f3d011682016040523d82523d6000602084013e613bfd565b606091505b50915091506112ae868383606082613c1d57613c1882613c97565b611105565b8151158015613c41575073ffffffffffffffffffffffffffffffffffffffff84163b155b15613c90576040517f9996b31500000000000000000000000000000000000000000000000000000000815273ffffffffffffffffffffffffffffffffffffffff85166004820152602401611054565b5080611105565b805115613ca75780518082602001fd5b6040517f1425ea4200000000000000000000000000000000000000000000000000000000815260040160405180910390fd5b604051806060016040528060008019168152602001600067ffffffffffffffff168152602001613d1c604051806040016040528060008152602001600081525090565b905290565b60005b83811015613d3c578181015183820152602001613d24565b50506000910152565b60008151808452613d5d816020860160208601613d21565b601f017fffffffffffffffffffffffffffffffffffffffffffffffffffffffffffffffe0169290920160200192915050565b6020815260006111056020830184613d45565b73ffffffffffffffffffffffffffffffffffffffff8116811461133757600080fd5b60008060408385031215613dd757600080fd5b8235613de281613da2565b946020939093013593505050565b600060e08284031215613e0257600080fd5b50919050565b600060208284031215613e1a57600080fd5b813567ffffffffffffffff811115613e3157600080fd5b6115ae84828501613df0565b8351815260208085015190820152600060a0820160a0604084015280855180835260c08501915060c08160051b86010192506020870160005b82811015613edc577fffffffffffffffffffffffffffffffffffffffffffffffffffffffffffffff408786030184528151805186526020810151905060406020870152613ec66040870182613d45565b9550506020938401939190910190600101613e76565b50508551606086015250506020840151608084015290506115ae565b600060608284031215613e0257600080fd5b60008083601f840112613f1c57600080fd5b50813567ffffffffffffffff811115613f3457600080fd5b602083019150836020828501011115613f4c57600080fd5b9250929050565b600080600080600080600060e0888a031215613f6e57600080fd5b613f788989613ef8565b965060608801359550608088013567ffffffffffffffff811115613f9b57600080fd5b613fa78a828b01613f0a565b90965094505060a0880135613fbb81613da2565b925060c088013567ffffffffffffffff811115613fd757600080fd5b613fe38a828b01613f0a565b989b979a50959850939692959293505050565b60008060006060848603121561400b57600080fd5b833561401681613da2565b9250602084013561402681613da2565b929592945050506040919091013590565b60006060828403121561404957600080fd5b6111058383613ef8565b803563ffffffff8116811461406757600080fd5b919050565b6000806040838503121561407f57600080fd5b613de283614053565b801515811461133757600080fd5b600080604083850312156140a957600080fd5b823567ffffffffffffffff8111156140c057600080fd5b6140cc85828601613df0565b92505060208301356140dd81614088565b809150509250929050565b815181526020808301519082015260408101610de1565b60006020828403121561411157600080fd5b5035919050565b803561ffff8116811461406757600080fd5b6000806040838503121561413d57600080fd5b61414683614053565b915061415460208401614118565b90509250929050565b6000806040838503121561417057600080fd5b823561417b81613da2565b915060208301356140dd81614088565b60006020828403121561419d57600080fd5b813561110581613da2565b60008060008060a085870312156141be57600080fd5b6141c88686613ef8565b9350606085013567ffffffffffffffff8111156141e457600080fd5b6141f087828801613f0a565b909450925050608085013561420481613da2565b939692955090935050565b60008083601f84011261422157600080fd5b50813567ffffffffffffffff81111561423957600080fd5b6020830191508360208260051b8501011115613f4c57600080fd5b6000806020838503121561426757600080fd5b823567ffffffffffffffff81111561427e57600080fd5b61428a8582860161420f565b90969095509350505050565b6000602082840312156142a857600080fd5b61110582614053565b600080600080606085870312156142c757600080fd5b6142d085614053565b93506142de60208601614118565b9250604085013567ffffffffffffffff8111156142fa57600080fd5b61430687828801613f0a565b95989497509550505050565b600060408284031215613e0257600080fd5b60008060006080848603121561433957600080fd5b833567ffffffffffffffff81111561435057600080fd5b61435c86828701613df0565b93505061436c8560208601614312565b9150606084013561437c81613da2565b809150509250925092565b600060c0820190508351825267ffffffffffffffff602085015116602083015260408401516143c3604084018280518252602090810151910152565b5082516080830152602083015160a0830152611105565b6000604082840312156143ec57600080fd5b6111058383614312565b6000806040838503121561440957600080fd5b823561441481613da2565b915060208301356140dd81613da2565b600181811c9082168061443857607f821691505b602082108103613e02577f4e487b7100000000000000000000000000000000000000000000000000000000600052602260045260246000fd5b7f4e487b7100000000000000000000000000000000000000000000000000000000600052604160045260246000fd5b7f4e487b7100000000000000000000000000000000000000000000000000000000600052601160045260246000fd5b80820180821115610de157610de16144a0565b6040516060810167ffffffffffffffff8111828210171561450557614505614471565b60405290565b6040805190810167ffffffffffffffff8111828210171561450557614505614471565b604051601f82017fffffffffffffffffffffffffffffffffffffffffffffffffffffffffffffffe016810167ffffffffffffffff8111828210171561457557614575614471565b604052919050565b600067ffffffffffffffff82111561459757614597614471565b50601f017fffffffffffffffffffffffffffffffffffffffffffffffffffffffffffffffe01660200190565b600067ffffffffffffffff8311156145dd576145dd614471565b8260051b6145ed6020820161452e565b8481529083019060208101903683111561460657600080fd5b845b838110156146e557803567ffffffffffffffff81111561462757600080fd5b8601606036829003121561463a57600080fd5b6146426144e2565b61464b82614053565b815261465960208301614118565b6020820152604082013567ffffffffffffffff81111561467857600080fd5b919091019036601f83011261468c57600080fd5b813561469f61469a8261457d565b61452e565b8181523660208386010111156146b457600080fd5b8160208501602083013760006020838301015280604084015250508085525050602083019250602081019050614608565b5095945050505050565b600080858511156146ff57600080fd5b8386111561470c57600080fd5b5050820193919092039150565b6000845161472b818460208901613d21565b8201838582376000930192835250909392505050565b8183528181602085013750600060208284010152600060207fffffffffffffffffffffffffffffffffffffffffffffffffffffffffffffffe0601f840116840101905092915050565b6020815260006115ae602083018486614741565b7f4e487b7100000000000000000000000000000000000000000000000000000000600052603260045260246000fd5b600082357ffffffffffffffffffffffffffffffffffffffffffffffffffffffffffffffec183360301811261480157600080fd5b9190910192915050565b60008083357fffffffffffffffffffffffffffffffffffffffffffffffffffffffffffffffe184360301811261484057600080fd5b83018035915067ffffffffffffffff82111561485b57600080fd5b602001915036819003821315613f4c57600080fd5b67ffffffffffffffff8116811461133757600080fd5b63ffffffff61489489614053565b16815260208881013590820152600060408901356148b181614870565b67ffffffffffffffff811660408401525087606083015260e060808301526148dd60e083018789614741565b73ffffffffffffffffffffffffffffffffffffffff861660a084015282810360c084015261490c818587614741565b9a9950505050505050505050565b60006020828403121561492c57600080fd5b815167ffffffffffffffff81111561494357600080fd5b8201601f8101841361495457600080fd5b805161496261469a8261457d565b81815285602083850101111561497757600080fd5b612dd9826020830160208601613d21565b6000604082840312801561499b57600080fd5b506149a461450b565b823581526020928301359281019290925250919050565b6fffffffffffffffffffffffffffffffff8116811461133757600080fd5b6000602082840312156149eb57600080fd5b8135611105816149bb565b8135614a01816149bb565b6fffffffffffffffffffffffffffffffff81169050807fffffffffffffffffffffffffffffffff000000000000000000000000000000008354161782556020830135614a4c816149bb565b60801b7fffffffffffffffffffffffffffffffff000000000000000000000000000000001617905550565b81810381811115610de157610de16144a0565b7f4e487b7100000000000000000000000000000000000000000000000000000000600052601260045260246000fd5b600082614aef577f4e487b7100000000000000000000000000000000000000000000000000000000600052601260045260246000fd5b500490565b604081526000614b076040830185613d45565b8281036020840152612dd98185613d45565b600060208284031215614b2b57600080fd5b815161110581614088565b6040815263ffffffff8351166040820152602083015160608201526000604084015160a06080840152614b6c60e0840182613d45565b905060608501517fffffffffffffffffffffffffffffffffffffffffffffffffffffffffffffffc08483030160a0850152614ba78282613d45565b60809690960151151560c085015250505073ffffffffffffffffffffffffffffffffffffffff9190911660209091015290565b600060408284031215614bec57600080fd5b614bf461450b565b825181526020928301519281019290925250919050565b600060408284031215614c1d57600080fd5b6111058383614bda565b601f821115610fe157806000526020600020601f840160051c81016020851015614c4e5750805b601f840160051c820191505b818110156120835760008155600101614c5a565b815167ffffffffffffffff811115614c8857614c88614471565b614c9c81614c968454614424565b84614c27565b6020601f821160018114614cee5760008315614cb85750848201515b7fffffffffffffffffffffffffffffffffffffffffffffffffffffffffffffffff600385901b1c1916600184901b178455612083565b6000848152602081207fffffffffffffffffffffffffffffffffffffffffffffffffffffffffffffffe08516915b82811015614d3c5787850151825560209485019460019092019101614d1c565b5084821015614d7857868401517fffffffffffffffffffffffffffffffffffffffffffffffffffffffffffffffff600387901b60f8161c191681555b50505050600190811b01905550565b6000602082016020835280845180835260408501915060408160051b86010192506020860160005b82811015614e29577fffffffffffffffffffffffffffffffffffffffffffffffffffffffffffffffc0878603018452815163ffffffff815116865261ffff60208201511660208701526040810151905060606040870152614e136060870182613d45565b9550506020938401939190910190600101614daf565b50929695505050505050565b60006080828403128015614e4857600080fd5b50614e516144e2565b825181526020830151614e6381614870565b6020820152614e758460408501614bda565b60408201529392505050565b8082028115828204841417610de157610de16144a0565b80356020831015610de1577fffffffffffffffffffffffffffffffffffffffffffffffffffffffffffffffff602084900360031b1b1692915050565b80357fffffffffffffffff0000000000000000000000000000000000000000000000008116906008841015614f33577fffffffffffffffff000000000000000000000000000000000000000000000000808560080360031b1b82161691505b5092915050565b8481527fffffffffffffffff0000000000000000000000000000000000000000000000008460c01b16602082015282602882015260008251614f83816048850160208701613d21565b9190910160480195945050505050565b600060208284031215614fa557600080fd5b815161110581613da2565b60008251614801818460208701613d2156fea26469706673582212205883a5fd4dd9d6985cad8f2c68c426040cc134676b8a26267c4fc2cdf1a5243d64736f6c634300081c0033",
  "linkReferences": {},
  "deployedLinkReferences": {}
}