{
  "_format": "hh-sol-artifact-1",
  "contractName": "ElderElection",
  "sourceName": "contracts/governance/ElderElection.sol",
  "abi": [
    {
      "inputs": [
        {
          "internalType": "contract Templar",
          "name": "_templars",
          "type": "address"
        }
      ],
      "stateMutability": "nonpayable",
      "type": "constructor"
    },
    {
      "inputs": [
        {
          "internalType": "uint256",
          "name": "lateBy",
          "type": "uint256"
        }
      ],
      "name": "DeadlineExpired",
      "type": "error"
    },
    {
      "inputs": [
        {
          "internalType": "address",
          "name": "account",
          "type": "address"
        }
      ],
      "name": "InvalidNonce",
      "type": "error"
    },
    {
      "inputs": [
        {
          "internalType": "address",
          "name": "account",
          "type": "address"
        }
      ],
      "name": "InvalidSignature",
      "type": "error"
    },
    {
      "inputs": [
        {
          "internalType": "uint256",
          "name": "discordId",
          "type": "uint256"
        }
      ],
      "name": "NotCandidate",
      "type": "error"
    },
    {
      "inputs": [
        {
          "internalType": "address",
          "name": "account",
          "type": "address"
        },
        {
          "internalType": "uint256",
          "name": "discordId",
          "type": "uint256"
        }
      ],
      "name": "NotFromTemplar",
      "type": "error"
    },
    {
      "inputs": [],
      "name": "TooManyEndorsements",
      "type": "error"
    },
    {
      "anonymous": false,
      "inputs": [
        {
          "indexed": true,
          "internalType": "bytes32",
          "name": "role",
          "type": "bytes32"
        },
        {
          "indexed": true,
          "internalType": "bytes32",
          "name": "previousAdminRole",
          "type": "bytes32"
        },
        {
          "indexed": true,
          "internalType": "bytes32",
          "name": "newAdminRole",
          "type": "bytes32"
        }
      ],
      "name": "RoleAdminChanged",
      "type": "event"
    },
    {
      "anonymous": false,
      "inputs": [
        {
          "indexed": true,
          "internalType": "bytes32",
          "name": "role",
          "type": "bytes32"
        },
        {
          "indexed": true,
          "internalType": "address",
          "name": "account",
          "type": "address"
        },
        {
          "indexed": true,
          "internalType": "address",
          "name": "sender",
          "type": "address"
        }
      ],
      "name": "RoleGranted",
      "type": "event"
    },
    {
      "anonymous": false,
      "inputs": [
        {
          "indexed": true,
          "internalType": "bytes32",
          "name": "role",
          "type": "bytes32"
        },
        {
          "indexed": true,
          "internalType": "address",
          "name": "account",
          "type": "address"
        },
        {
          "indexed": true,
          "internalType": "address",
          "name": "sender",
          "type": "address"
        }
      ],
      "name": "RoleRevoked",
      "type": "event"
    },
    {
      "anonymous": false,
      "inputs": [
        {
          "indexed": true,
          "internalType": "address",
          "name": "account",
          "type": "address"
        },
        {
          "indexed": false,
          "internalType": "uint256[]",
          "name": "discordIds",
          "type": "uint256[]"
        }
      ],
      "name": "UpdateEndorsements",
      "type": "event"
    },
    {
      "anonymous": false,
      "inputs": [
        {
          "indexed": true,
          "internalType": "uint256",
          "name": "discordId",
          "type": "uint256"
        },
        {
          "indexed": false,
          "internalType": "bool",
          "name": "isNominated",
          "type": "bool"
        }
      ],
      "name": "UpdateNomination",
      "type": "event"
    },
    {
      "inputs": [],
      "name": "CAN_NOMINATE",
      "outputs": [
        {
          "internalType": "bytes32",
          "name": "",
          "type": "bytes32"
        }
      ],
      "stateMutability": "view",
      "type": "function"
    },
    {
      "inputs": [],
      "name": "DEFAULT_ADMIN_ROLE",
      "outputs": [
        {
          "internalType": "bytes32",
          "name": "",
          "type": "bytes32"
        }
      ],
      "stateMutability": "view",
      "type": "function"
    },
    {
      "inputs": [
        {
          "internalType": "uint256",
          "name": "",
          "type": "uint256"
        }
      ],
      "name": "candidates",
      "outputs": [
        {
          "internalType": "bool",
          "name": "",
          "type": "bool"
        }
      ],
      "stateMutability": "view",
      "type": "function"
    },
    {
      "inputs": [
        {
          "internalType": "address",
          "name": "",
          "type": "address"
        },
        {
          "internalType": "uint256",
          "name": "",
          "type": "uint256"
        }
      ],
      "name": "endorsementsBy",
      "outputs": [
        {
          "internalType": "uint256",
          "name": "",
          "type": "uint256"
        }
      ],
      "stateMutability": "view",
      "type": "function"
    },
    {
      "inputs": [
        {
          "internalType": "bytes32",
          "name": "role",
          "type": "bytes32"
        }
      ],
      "name": "getRoleAdmin",
      "outputs": [
        {
          "internalType": "bytes32",
          "name": "",
          "type": "bytes32"
        }
      ],
      "stateMutability": "view",
      "type": "function"
    },
    {
      "inputs": [
        {
          "internalType": "bytes32",
          "name": "role",
          "type": "bytes32"
        },
        {
          "internalType": "address",
          "name": "account",
          "type": "address"
        }
      ],
      "name": "grantRole",
      "outputs": [],
      "stateMutability": "nonpayable",
      "type": "function"
    },
    {
      "inputs": [
        {
          "internalType": "bytes32",
          "name": "role",
          "type": "bytes32"
        },
        {
          "internalType": "address",
          "name": "account",
          "type": "address"
        }
      ],
      "name": "hasRole",
      "outputs": [
        {
          "internalType": "bool",
          "name": "",
          "type": "bool"
        }
      ],
      "stateMutability": "view",
      "type": "function"
    },
    {
      "inputs": [
        {
          "internalType": "uint256",
          "name": "discordId",
          "type": "uint256"
        }
      ],
      "name": "nominate",
      "outputs": [],
      "stateMutability": "nonpayable",
      "type": "function"
    },
    {
      "inputs": [
        {
          "internalType": "address",
          "name": "",
          "type": "address"
        }
      ],
      "name": "nonces",
      "outputs": [
        {
          "internalType": "uint256",
          "name": "_value",
          "type": "uint256"
        }
      ],
      "stateMutability": "view",
      "type": "function"
    },
    {
      "inputs": [],
      "name": "numCandidates",
      "outputs": [
        {
          "internalType": "uint256",
          "name": "",
          "type": "uint256"
        }
      ],
      "stateMutability": "view",
      "type": "function"
    },
    {
      "inputs": [
        {
          "components": [
            {
              "internalType": "address",
              "name": "account",
              "type": "address"
            },
            {
              "internalType": "uint256[]",
              "name": "discordIds",
              "type": "uint256[]"
            },
            {
              "internalType": "uint256",
              "name": "deadline",
              "type": "uint256"
            },
            {
              "internalType": "uint256",
              "name": "nonce",
              "type": "uint256"
            }
          ],
          "internalType": "struct ElderElection.EndorsementReq",
          "name": "req",
          "type": "tuple"
        },
        {
          "internalType": "bytes",
          "name": "signature",
          "type": "bytes"
        }
      ],
      "name": "relayedSetEndorsementsFor",
      "outputs": [],
      "stateMutability": "nonpayable",
      "type": "function"
    },
    {
      "inputs": [
        {
          "internalType": "bytes32",
          "name": "role",
          "type": "bytes32"
        },
        {
          "internalType": "address",
          "name": "account",
          "type": "address"
        }
      ],
      "name": "renounceRole",
      "outputs": [],
      "stateMutability": "nonpayable",
      "type": "function"
    },
    {
      "inputs": [
        {
          "internalType": "uint256",
          "name": "discordId",
          "type": "uint256"
        }
      ],
      "name": "resign",
      "outputs": [],
      "stateMutability": "nonpayable",
      "type": "function"
    },
    {
      "inputs": [
        {
          "internalType": "bytes32",
          "name": "role",
          "type": "bytes32"
        },
        {
          "internalType": "address",
          "name": "account",
          "type": "address"
        }
      ],
      "name": "revokeRole",
      "outputs": [],
      "stateMutability": "nonpayable",
      "type": "function"
    },
    {
      "inputs": [
        {
          "internalType": "uint256[]",
          "name": "discordIds",
          "type": "uint256[]"
        }
      ],
      "name": "setEndorsements",
      "outputs": [],
      "stateMutability": "nonpayable",
      "type": "function"
    },
    {
      "inputs": [
        {
          "internalType": "bytes4",
          "name": "interfaceId",
          "type": "bytes4"
        }
      ],
      "name": "supportsInterface",
      "outputs": [
        {
          "internalType": "bool",
          "name": "",
          "type": "bool"
        }
      ],
      "stateMutability": "view",
      "type": "function"
    },
    {
      "inputs": [],
      "name": "templars",
      "outputs": [
        {
          "internalType": "contract Templar",
          "name": "",
          "type": "address"
        }
      ],
      "stateMutability": "view",
      "type": "function"
    }
  ],
  "bytecode": "0x60a06040523480156200001157600080fd5b5060405162001aa938038062001aa98339810160408190526200003491620001bb565b600480546001600160a01b0319166001600160a01b0383161790556200005c6000336200011a565b506040805160a08082018352600d60608084019182526c22b63232b922b632b1ba34b7b760991b6080808601919091529184528451808601865260018152603160f81b6020808301918252808701839052468789018190529651805190820120925190912087517fc2f8787176b8ac6bf7215b4adcc1e069bf4ab82d9ab1df05a57a91d425935b6e818401528089019390935292820192909252808301949094528451808503830181529390920190935281519101209052620001ed565b6000828152602081815260408083206001600160a01b038516845290915290205460ff16620001b7576000828152602081815260408083206001600160a01b03851684529091529020805460ff19166001179055620001763390565b6001600160a01b0316816001600160a01b0316837f2f8788117e7eff1d82e926ec794901d17c78024a50270940304540a733656f0d60405160405180910390a45b5050565b600060208284031215620001ce57600080fd5b81516001600160a01b0381168114620001e657600080fd5b9392505050565b6080516118a062000209600039600061075201526118a06000f3fe608060405234801561001057600080fd5b506004361061011b5760003560e01c806374446bc9116100b2578063b03d48ca11610081578063d547741f11610066578063d547741f146102de578063f6d3c3b8146102f1578063ff58984f1461030457600080fd5b8063b03d48ca146102a4578063c5f28e49146102cb57600080fd5b806374446bc9146102255780637ecebe001461023857806391d1485414610258578063a217fddf1461029c57600080fd5b80633477ee2e116100ee5780633477ee2e146101a157806336568abe146101c45780635216509a146101d757806362475fe4146101e057600080fd5b806301ffc9a71461012057806308d9801c14610148578063248a9ca31461015d5780632f2ff15d1461018e575b600080fd5b61013361012e3660046111fe565b610317565b60405190151581526020015b60405180910390f35b61015b610156366004611240565b6103b0565b005b61018061016b366004611240565b60009081526020819052604090206001015490565b60405190815260200161013f565b61015b61019c366004611282565b6104fc565b6101336101af366004611240565b60016020526000908152604090205460ff1681565b61015b6101d2366004611282565b610526565b61018060025481565b6004546102009073ffffffffffffffffffffffffffffffffffffffff1681565b60405173ffffffffffffffffffffffffffffffffffffffff909116815260200161013f565b61015b6102333660046112ae565b6105da565b610180610246366004611323565b60056020526000908152604090205481565b610133610266366004611282565b60009182526020828152604080842073ffffffffffffffffffffffffffffffffffffffff93909316845291905290205460ff1690565b610180600081565b6101807ff30641a45a85a618e8a3f2baf155ecb1f3eca7bbc05f237c578245d02c78e0c981565b61015b6102d9366004611240565b6105e5565b61015b6102ec366004611282565b610729565b61015b6102ff36600461133e565b61074e565b6101806103123660046113dd565b6109f3565b60007fffffffff0000000000000000000000000000000000000000000000000000000082167f7965db0b0000000000000000000000000000000000000000000000000000000014806103aa57507f01ffc9a7000000000000000000000000000000000000000000000000000000007fffffffff000000000000000000000000000000000000000000000000000000008316145b92915050565b7ff30641a45a85a618e8a3f2baf155ecb1f3eca7bbc05f237c578245d02c78e0c96103da81610a24565b600480546040517f0e2e44e800000000000000000000000000000000000000000000000000000000815291820184905273ffffffffffffffffffffffffffffffffffffffff1690630e2e44e89060240160006040518083038186803b15801561044257600080fd5b505afa158015610456573d6000803e3d6000fd5b50505060008381526001602052604090205460ff161590506104f8576000828152600160208190526040822080547fffffffffffffffffffffffffffffffffffffffffffffffffffffffffffffff0016905560028054919290916104bb908490611436565b90915550506040516000815282907f2a11c0b7ccdfbb01ac9ecc8ebe438d26f017e861fcca878abc936f48fec18f52906020015b60405180910390a25b5050565b60008281526020819052604090206001015461051781610a24565b6105218383610a31565b505050565b73ffffffffffffffffffffffffffffffffffffffff811633146105d0576040517f08c379a000000000000000000000000000000000000000000000000000000000815260206004820152602f60248201527f416363657373436f6e74726f6c3a2063616e206f6e6c792072656e6f756e636560448201527f20726f6c657320666f722073656c66000000000000000000000000000000000060648201526084015b60405180910390fd5b6104f88282610b21565b6104f8338383610bd8565b7ff30641a45a85a618e8a3f2baf155ecb1f3eca7bbc05f237c578245d02c78e0c961060f81610a24565b600480546040517f0e2e44e800000000000000000000000000000000000000000000000000000000815291820184905273ffffffffffffffffffffffffffffffffffffffff1690630e2e44e89060240160006040518083038186803b15801561067757600080fd5b505afa15801561068b573d6000803e3d6000fd5b50505060008381526001602052604090205460ff1690506104f8576000828152600160208190526040822080547fffffffffffffffffffffffffffffffffffffffffffffffffffffffffffffff00168217905560028054919290916106f1908490611449565b90915550506040516001815282907f2a11c0b7ccdfbb01ac9ecc8ebe438d26f017e861fcca878abc936f48fec18f52906020016104ef565b60008281526020819052604090206001015461074481610a24565b6105218383610b21565b60007f000000000000000000000000000000000000000000000000000000000000000061078261077d86611503565b610c9a565b6040517f19010000000000000000000000000000000000000000000000000000000000006020820152602281019290925260428201526062016040516020818303038152906040528051906020012090506000806108168386868080601f016020809104026020016040519081016040528093929190818152602001838380828437600092019190915250610d3692505050565b9092509050600081600481111561082f5761082f6115da565b1461088c576108416020870187611323565b6040517fd855c4f400000000000000000000000000000000000000000000000000000000815273ffffffffffffffffffffffffffffffffffffffff90911660048201526024016105c7565b85604001354211156108db576108a6604087013542611436565b6040517fbc3088ef0000000000000000000000000000000000000000000000000000000081526004016105c791815260200190565b6108e86020870187611323565b73ffffffffffffffffffffffffffffffffffffffff168273ffffffffffffffffffffffffffffffffffffffff1614610927576108416020870187611323565b606086013561096c61093c6020890189611323565b73ffffffffffffffffffffffffffffffffffffffff16600090815260056020526040902080546001810190915590565b146109c95761097e6020870187611323565b6040517fc9c7838300000000000000000000000000000000000000000000000000000000815273ffffffffffffffffffffffffffffffffffffffff90911660048201526024016105c7565b6109eb6109d96020880188611323565b6109e66020890189611609565b610bd8565b505050505050565b60036020528160005260406000208181548110610a0f57600080fd5b90600052602060002001600091509150505481565b610a2e8133610d7b565b50565b60008281526020818152604080832073ffffffffffffffffffffffffffffffffffffffff8516845290915290205460ff166104f85760008281526020818152604080832073ffffffffffffffffffffffffffffffffffffffff85168452909152902080547fffffffffffffffffffffffffffffffffffffffffffffffffffffffffffffff00166001179055610ac33390565b73ffffffffffffffffffffffffffffffffffffffff168173ffffffffffffffffffffffffffffffffffffffff16837f2f8788117e7eff1d82e926ec794901d17c78024a50270940304540a733656f0d60405160405180910390a45050565b60008281526020818152604080832073ffffffffffffffffffffffffffffffffffffffff8516845290915290205460ff16156104f85760008281526020818152604080832073ffffffffffffffffffffffffffffffffffffffff8516808552925280832080547fffffffffffffffffffffffffffffffffffffffffffffffffffffffffffffff0016905551339285917ff6391f5c32d9c69d2a47ea670b442974b53935d1edc7fd64eb21e047a839171b9190a45050565b600254811115610c14576040517fa300300000000000000000000000000000000000000000000000000000000000815260040160405180910390fd5b73ffffffffffffffffffffffffffffffffffffffff83166000908152600360205260409020610c4490838361119e565b508273ffffffffffffffffffffffffffffffffffffffff167fe1e033370be28bdd2a7b73796f5a1b4f4e7c27ca8b94d610c1f0387ef5a6d7898383604051610c8d929190611671565b60405180910390a2505050565b60007f71a639611fdf3926d8551959b78369e0a6216ef5034c5825ed44494b2f8ff9cf8260000151610ccf8460200151610e33565b6040808601516060808801518351602081019790975273ffffffffffffffffffffffffffffffffffffffff9095169286019290925290840191909152608083015260a082015260c0015b604051602081830303815290604052805190602001209050919050565b6000808251604103610d6c5760208301516040840151606085015160001a610d6087828585610e46565b94509450505050610d74565b506000905060025b9250929050565b60008281526020818152604080832073ffffffffffffffffffffffffffffffffffffffff8516845290915290205460ff166104f857610db981610f35565b610dc4836020610f54565b604051602001610dd59291906116e7565b604080517fffffffffffffffffffffffffffffffffffffffffffffffffffffffffffffffe0818403018152908290527f08c379a00000000000000000000000000000000000000000000000000000000082526105c791600401611768565b600081604051602001610d1991906117b9565b6000807f7fffffffffffffffffffffffffffffff5d576e7357a4501ddfe92f46681b20a0831115610e7d5750600090506003610f2c565b6040805160008082526020820180845289905260ff881692820192909252606081018690526080810185905260019060a0016020604051602081039080840390855afa158015610ed1573d6000803e3d6000fd5b50506040517fffffffffffffffffffffffffffffffffffffffffffffffffffffffffffffffe0015191505073ffffffffffffffffffffffffffffffffffffffff8116610f2557600060019250925050610f2c565b9150600090505b94509492505050565b60606103aa73ffffffffffffffffffffffffffffffffffffffff831660145b60606000610f638360026117ef565b610f6e906002611449565b67ffffffffffffffff811115610f8657610f8661145c565b6040519080825280601f01601f191660200182016040528015610fb0576020820181803683370190505b5090507f300000000000000000000000000000000000000000000000000000000000000081600081518110610fe757610fe7611806565b60200101907effffffffffffffffffffffffffffffffffffffffffffffffffffffffffffff1916908160001a9053507f78000000000000000000000000000000000000000000000000000000000000008160018151811061104a5761104a611806565b60200101907effffffffffffffffffffffffffffffffffffffffffffffffffffffffffffff1916908160001a90535060006110868460026117ef565b611091906001611449565b90505b600181111561112e577f303132333435363738396162636465660000000000000000000000000000000085600f16601081106110d2576110d2611806565b1a60f81b8282815181106110e8576110e8611806565b60200101907effffffffffffffffffffffffffffffffffffffffffffffffffffffffffffff1916908160001a90535060049490941c9361112781611835565b9050611094565b508315611197576040517f08c379a000000000000000000000000000000000000000000000000000000000815260206004820181905260248201527f537472696e67733a20686578206c656e67746820696e73756666696369656e7460448201526064016105c7565b9392505050565b8280548282559060005260206000209081019282156111d9579160200282015b828111156111d95782358255916020019190600101906111be565b506111e59291506111e9565b5090565b5b808211156111e557600081556001016111ea565b60006020828403121561121057600080fd5b81357fffffffff000000000000000000000000000000000000000000000000000000008116811461119757600080fd5b60006020828403121561125257600080fd5b5035919050565b803573ffffffffffffffffffffffffffffffffffffffff8116811461127d57600080fd5b919050565b6000806040838503121561129557600080fd5b823591506112a560208401611259565b90509250929050565b600080602083850312156112c157600080fd5b823567ffffffffffffffff808211156112d957600080fd5b818501915085601f8301126112ed57600080fd5b8135818111156112fc57600080fd5b8660208260051b850101111561131157600080fd5b60209290920196919550909350505050565b60006020828403121561133557600080fd5b61119782611259565b60008060006040848603121561135357600080fd5b833567ffffffffffffffff8082111561136b57600080fd5b908501906080828803121561137f57600080fd5b9093506020850135908082111561139557600080fd5b818601915086601f8301126113a957600080fd5b8135818111156113b857600080fd5b8760208285010111156113ca57600080fd5b6020830194508093505050509250925092565b600080604083850312156113f057600080fd5b6113f983611259565b946020939093013593505050565b7f4e487b7100000000000000000000000000000000000000000000000000000000600052601160045260246000fd5b818103818111156103aa576103aa611407565b808201808211156103aa576103aa611407565b7f4e487b7100000000000000000000000000000000000000000000000000000000600052604160045260246000fd5b6040516080810167ffffffffffffffff811182821017156114ae576114ae61145c565b60405290565b604051601f82017fffffffffffffffffffffffffffffffffffffffffffffffffffffffffffffffe016810167ffffffffffffffff811182821017156114fb576114fb61145c565b604052919050565b60006080823603121561151557600080fd5b61151d61148b565b61152683611259565b815260208084013567ffffffffffffffff8082111561154457600080fd5b9085019036601f83011261155757600080fd5b8135818111156115695761156961145c565b8060051b915061157a8483016114b4565b818152918301840191848101903684111561159457600080fd5b938501935b838510156115b257843582529385019390850190611599565b8086880152505050505050604083013560408201526060830135606082015280915050919050565b7f4e487b7100000000000000000000000000000000000000000000000000000000600052602160045260246000fd5b60008083357fffffffffffffffffffffffffffffffffffffffffffffffffffffffffffffffe184360301811261163e57600080fd5b83018035915067ffffffffffffffff82111561165957600080fd5b6020019150600581901b3603821315610d7457600080fd5b6020815281602082015260007f07ffffffffffffffffffffffffffffffffffffffffffffffffffffffffffffff8311156116aa57600080fd5b8260051b80856040850137919091016040019392505050565b60005b838110156116de5781810151838201526020016116c6565b50506000910152565b7f416363657373436f6e74726f6c3a206163636f756e742000000000000000000081526000835161171f8160178501602088016116c3565b7f206973206d697373696e6720726f6c6520000000000000000000000000000000601791840191820152835161175c8160288401602088016116c3565b01602801949350505050565b60208152600082518060208401526117878160408501602087016116c3565b601f017fffffffffffffffffffffffffffffffffffffffffffffffffffffffffffffffe0169190910160400192915050565b815160009082906020808601845b838110156117e3578151855293820193908201906001016117c7565b50929695505050505050565b80820281158282048414176103aa576103aa611407565b7f4e487b7100000000000000000000000000000000000000000000000000000000600052603260045260246000fd5b60008161184457611844611407565b507fffffffffffffffffffffffffffffffffffffffffffffffffffffffffffffffff019056fea26469706673582212208af61d1013dd2e70cf3153fef55bd5ef4ae0e0dd61cd87a6cbb190b92e058d4764736f6c63430008130033",
  "linkReferences": {},
  "deployedLinkReferences": {}
}