{
  "_format": "hh-sol-artifact-1",
  "contractName": "TempleTeleporter",
  "sourceName": "contracts/templegold/TempleTeleporter.sol",
  "abi": [
    {
      "inputs": [
        {
          "internalType": "address",
          "name": "_executor",
          "type": "address"
        },
        {
          "internalType": "address",
          "name": "_temple",
          "type": "address"
        },
        {
          "internalType": "address",
          "name": "_endpoint",
          "type": "address"
        }
      ],
      "stateMutability": "nonpayable",
      "type": "constructor"
    },
    {
      "inputs": [
        {
          "internalType": "address",
          "name": "target",
          "type": "address"
        }
      ],
      "name": "AddressEmptyCode",
      "type": "error"
    },
    {
      "inputs": [
        {
          "internalType": "address",
          "name": "account",
          "type": "address"
        }
      ],
      "name": "AddressInsufficientBalance",
      "type": "error"
    },
    {
      "inputs": [],
      "name": "ExpectedNonZero",
      "type": "error"
    },
    {
      "inputs": [],
      "name": "FailedInnerCall",
      "type": "error"
    },
    {
      "inputs": [],
      "name": "InvalidAddress",
      "type": "error"
    },
    {
      "inputs": [],
      "name": "InvalidDelegate",
      "type": "error"
    },
    {
      "inputs": [],
      "name": "InvalidEndpointCall",
      "type": "error"
    },
    {
      "inputs": [],
      "name": "LzTokenUnavailable",
      "type": "error"
    },
    {
      "inputs": [
        {
          "internalType": "uint32",
          "name": "eid",
          "type": "uint32"
        }
      ],
      "name": "NoPeer",
      "type": "error"
    },
    {
      "inputs": [
        {
          "internalType": "uint256",
          "name": "msgValue",
          "type": "uint256"
        }
      ],
      "name": "NotEnoughNative",
      "type": "error"
    },
    {
      "inputs": [
        {
          "internalType": "address",
          "name": "addr",
          "type": "address"
        }
      ],
      "name": "OnlyEndpoint",
      "type": "error"
    },
    {
      "inputs": [
        {
          "internalType": "uint32",
          "name": "eid",
          "type": "uint32"
        },
        {
          "internalType": "bytes32",
          "name": "sender",
          "type": "bytes32"
        }
      ],
      "name": "OnlyPeer",
      "type": "error"
    },
    {
      "inputs": [
        {
          "internalType": "address",
          "name": "owner",
          "type": "address"
        }
      ],
      "name": "OwnableInvalidOwner",
      "type": "error"
    },
    {
      "inputs": [
        {
          "internalType": "address",
          "name": "account",
          "type": "address"
        }
      ],
      "name": "OwnableUnauthorizedAccount",
      "type": "error"
    },
    {
      "inputs": [
        {
          "internalType": "address",
          "name": "token",
          "type": "address"
        }
      ],
      "name": "SafeERC20FailedOperation",
      "type": "error"
    },
    {
      "anonymous": false,
      "inputs": [
        {
          "indexed": true,
          "internalType": "address",
          "name": "previousOwner",
          "type": "address"
        },
        {
          "indexed": true,
          "internalType": "address",
          "name": "newOwner",
          "type": "address"
        }
      ],
      "name": "OwnershipTransferred",
      "type": "event"
    },
    {
      "anonymous": false,
      "inputs": [
        {
          "indexed": false,
          "internalType": "uint32",
          "name": "eid",
          "type": "uint32"
        },
        {
          "indexed": false,
          "internalType": "bytes32",
          "name": "peer",
          "type": "bytes32"
        }
      ],
      "name": "PeerSet",
      "type": "event"
    },
    {
      "anonymous": false,
      "inputs": [
        {
          "indexed": false,
          "internalType": "uint32",
          "name": "dstEid",
          "type": "uint32"
        },
        {
          "indexed": true,
          "internalType": "address",
          "name": "sender",
          "type": "address"
        },
        {
          "indexed": true,
          "internalType": "address",
          "name": "recipient",
          "type": "address"
        },
        {
          "indexed": false,
          "internalType": "uint256",
          "name": "amount",
          "type": "uint256"
        }
      ],
      "name": "TempleTeleported",
      "type": "event"
    },
    {
      "inputs": [
        {
          "components": [
            {
              "internalType": "uint32",
              "name": "srcEid",
              "type": "uint32"
            },
            {
              "internalType": "bytes32",
              "name": "sender",
              "type": "bytes32"
            },
            {
              "internalType": "uint64",
              "name": "nonce",
              "type": "uint64"
            }
          ],
          "internalType": "struct Origin",
          "name": "origin",
          "type": "tuple"
        }
      ],
      "name": "allowInitializePath",
      "outputs": [
        {
          "internalType": "bool",
          "name": "",
          "type": "bool"
        }
      ],
      "stateMutability": "view",
      "type": "function"
    },
    {
      "inputs": [],
      "name": "endpoint",
      "outputs": [
        {
          "internalType": "contract ILayerZeroEndpointV2",
          "name": "",
          "type": "address"
        }
      ],
      "stateMutability": "view",
      "type": "function"
    },
    {
      "inputs": [
        {
          "components": [
            {
              "internalType": "uint32",
              "name": "srcEid",
              "type": "uint32"
            },
            {
              "internalType": "bytes32",
              "name": "sender",
              "type": "bytes32"
            },
            {
              "internalType": "uint64",
              "name": "nonce",
              "type": "uint64"
            }
          ],
          "internalType": "struct Origin",
          "name": "",
          "type": "tuple"
        },
        {
          "internalType": "bytes",
          "name": "",
          "type": "bytes"
        },
        {
          "internalType": "address",
          "name": "_sender",
          "type": "address"
        }
      ],
      "name": "isComposeMsgSender",
      "outputs": [
        {
          "internalType": "bool",
          "name": "",
          "type": "bool"
        }
      ],
      "stateMutability": "view",
      "type": "function"
    },
    {
      "inputs": [
        {
          "components": [
            {
              "internalType": "uint32",
              "name": "srcEid",
              "type": "uint32"
            },
            {
              "internalType": "bytes32",
              "name": "sender",
              "type": "bytes32"
            },
            {
              "internalType": "uint64",
              "name": "nonce",
              "type": "uint64"
            }
          ],
          "internalType": "struct Origin",
          "name": "_origin",
          "type": "tuple"
        },
        {
          "internalType": "bytes32",
          "name": "_guid",
          "type": "bytes32"
        },
        {
          "internalType": "bytes",
          "name": "_message",
          "type": "bytes"
        },
        {
          "internalType": "address",
          "name": "_executor",
          "type": "address"
        },
        {
          "internalType": "bytes",
          "name": "_extraData",
          "type": "bytes"
        }
      ],
      "name": "lzReceive",
      "outputs": [],
      "stateMutability": "payable",
      "type": "function"
    },
    {
      "inputs": [
        {
          "internalType": "uint32",
          "name": "",
          "type": "uint32"
        },
        {
          "internalType": "bytes32",
          "name": "",
          "type": "bytes32"
        }
      ],
      "name": "nextNonce",
      "outputs": [
        {
          "internalType": "uint64",
          "name": "nonce",
          "type": "uint64"
        }
      ],
      "stateMutability": "view",
      "type": "function"
    },
    {
      "inputs": [],
      "name": "oAppVersion",
      "outputs": [
        {
          "internalType": "uint64",
          "name": "senderVersion",
          "type": "uint64"
        },
        {
          "internalType": "uint64",
          "name": "receiverVersion",
          "type": "uint64"
        }
      ],
      "stateMutability": "pure",
      "type": "function"
    },
    {
      "inputs": [],
      "name": "owner",
      "outputs": [
        {
          "internalType": "address",
          "name": "",
          "type": "address"
        }
      ],
      "stateMutability": "view",
      "type": "function"
    },
    {
      "inputs": [
        {
          "internalType": "uint32",
          "name": "eid",
          "type": "uint32"
        }
      ],
      "name": "peers",
      "outputs": [
        {
          "internalType": "bytes32",
          "name": "peer",
          "type": "bytes32"
        }
      ],
      "stateMutability": "view",
      "type": "function"
    },
    {
      "inputs": [
        {
          "internalType": "uint32",
          "name": "_dstEid",
          "type": "uint32"
        },
        {
          "internalType": "address",
          "name": "_to",
          "type": "address"
        },
        {
          "internalType": "uint256",
          "name": "_amount",
          "type": "uint256"
        },
        {
          "internalType": "bytes",
          "name": "_options",
          "type": "bytes"
        }
      ],
      "name": "quote",
      "outputs": [
        {
          "components": [
            {
              "internalType": "uint256",
              "name": "nativeFee",
              "type": "uint256"
            },
            {
              "internalType": "uint256",
              "name": "lzTokenFee",
              "type": "uint256"
            }
          ],
          "internalType": "struct MessagingFee",
          "name": "fee",
          "type": "tuple"
        }
      ],
      "stateMutability": "view",
      "type": "function"
    },
    {
      "inputs": [
        {
          "internalType": "uint32",
          "name": "_dstEid",
          "type": "uint32"
        },
        {
          "internalType": "bytes",
          "name": "_message",
          "type": "bytes"
        },
        {
          "internalType": "bytes",
          "name": "_options",
          "type": "bytes"
        }
      ],
      "name": "quote",
      "outputs": [
        {
          "components": [
            {
              "internalType": "uint256",
              "name": "nativeFee",
              "type": "uint256"
            },
            {
              "internalType": "uint256",
              "name": "lzTokenFee",
              "type": "uint256"
            }
          ],
          "internalType": "struct MessagingFee",
          "name": "fee",
          "type": "tuple"
        }
      ],
      "stateMutability": "view",
      "type": "function"
    },
    {
      "inputs": [],
      "name": "renounceOwnership",
      "outputs": [],
      "stateMutability": "nonpayable",
      "type": "function"
    },
    {
      "inputs": [
        {
          "internalType": "address",
          "name": "_delegate",
          "type": "address"
        }
      ],
      "name": "setDelegate",
      "outputs": [],
      "stateMutability": "nonpayable",
      "type": "function"
    },
    {
      "inputs": [
        {
          "internalType": "uint32",
          "name": "_eid",
          "type": "uint32"
        },
        {
          "internalType": "bytes32",
          "name": "_peer",
          "type": "bytes32"
        }
      ],
      "name": "setPeer",
      "outputs": [],
      "stateMutability": "nonpayable",
      "type": "function"
    },
    {
      "inputs": [
        {
          "internalType": "uint32",
          "name": "dstEid",
          "type": "uint32"
        },
        {
          "internalType": "address",
          "name": "to",
          "type": "address"
        },
        {
          "internalType": "uint256",
          "name": "amount",
          "type": "uint256"
        },
        {
          "internalType": "bytes",
          "name": "options",
          "type": "bytes"
        }
      ],
      "name": "teleport",
      "outputs": [
        {
          "components": [
            {
              "internalType": "bytes32",
              "name": "guid",
              "type": "bytes32"
            },
            {
              "internalType": "uint64",
              "name": "nonce",
              "type": "uint64"
            },
            {
              "components": [
                {
                  "internalType": "uint256",
                  "name": "nativeFee",
                  "type": "uint256"
                },
                {
                  "internalType": "uint256",
                  "name": "lzTokenFee",
                  "type": "uint256"
                }
              ],
              "internalType": "struct MessagingFee",
              "name": "fee",
              "type": "tuple"
            }
          ],
          "internalType": "struct MessagingReceipt",
          "name": "receipt",
          "type": "tuple"
        }
      ],
      "stateMutability": "payable",
      "type": "function"
    },
    {
      "inputs": [],
      "name": "temple",
      "outputs": [
        {
          "internalType": "contract ITempleERC20Token",
          "name": "",
          "type": "address"
        }
      ],
      "stateMutability": "view",
      "type": "function"
    },
    {
      "inputs": [
        {
          "internalType": "address",
          "name": "newOwner",
          "type": "address"
        }
      ],
      "name": "transferOwnership",
      "outputs": [],
      "stateMutability": "nonpayable",
      "type": "function"
    }
  ],
  "bytecode": "0x60c060405234801561001057600080fd5b50604051611ac7380380611ac783398101604081905261002f9161017e565b80838181806001600160a01b03811661006257604051631e4fbdf760e01b81526000600482015260240160405180910390fd5b61006b81610112565b506001600160a01b03808316608052811661009957604051632d618d8160e21b815260040160405180910390fd5b60805160405163ca5eb5e160e01b81526001600160a01b0383811660048301529091169063ca5eb5e190602401600060405180830381600087803b1580156100e057600080fd5b505af11580156100f4573d6000803e3d6000fd5b5050506001600160a01b0390961660a052506101c195505050505050565b600080546001600160a01b038381166001600160a01b0319831681178455604051919092169283917f8be0079c531659141344cd1fd0a4f28419497f9722a3daafe3b4186f6b6457e09190a35050565b80516001600160a01b038116811461017957600080fd5b919050565b60008060006060848603121561019357600080fd5b61019c84610162565b92506101aa60208501610162565b91506101b860408501610162565b90509250925092565b60805160a0516118a961021e600039600081816102a4015281816105f601526109b6015260008181610166015281816103b00152818161077901528181610b6f01528181610c5f01528181610d730152610e5d01526118a96000f3fe6080604052600436106100f35760003560e01c80638da5cb5b1161008a578063d65d28c311610059578063d65d28c314610321578063f2fde38b1461034e578063fccbe2201461036e578063ff7bd03d1461038e57600080fd5b80638da5cb5b1461026757806397cd9a3414610292578063bb0b6a53146102c6578063ca5eb5e11461030157600080fd5b8063715018a6116100c6578063715018a6146101ad5780637626be8c146101c25780637d25a05e146101e257806382413eac1461021b57600080fd5b806313137d65146100f857806317442b701461010d5780633400288b146101345780635e280f1114610154575b600080fd5b61010b6101063660046111db565b6103ae565b005b34801561011957600080fd5b50604080516001815260026020820152015b60405180910390f35b34801561014057600080fd5b5061010b61014f366004611297565b6104ad565b34801561016057600080fd5b506101887f000000000000000000000000000000000000000000000000000000000000000081565b60405173ffffffffffffffffffffffffffffffffffffffff909116815260200161012b565b3480156101b957600080fd5b5061010b6104c3565b6101d56101d03660046112c1565b6104d7565b60405161012b9190611332565b3480156101ee57600080fd5b506102026101fd366004611297565b610723565b60405167ffffffffffffffff909116815260200161012b565b34801561022757600080fd5b50610257610236366004611375565b73ffffffffffffffffffffffffffffffffffffffff81163014949350505050565b604051901515815260200161012b565b34801561027357600080fd5b5060005473ffffffffffffffffffffffffffffffffffffffff16610188565b34801561029e57600080fd5b506101887f000000000000000000000000000000000000000000000000000000000000000081565b3480156102d257600080fd5b506102f36102e13660046113dc565b60016020526000908152604090205481565b60405190815260200161012b565b34801561030d57600080fd5b5061010b61031c3660046113f7565b61072c565b34801561032d57600080fd5b5061034161033c3660046114f0565b6107d8565b60405161012b919061155a565b34801561035a57600080fd5b5061010b6103693660046113f7565b61083b565b34801561037a57600080fd5b50610341610389366004611571565b61089f565b34801561039a57600080fd5b506102576103a93660046115ea565b6108ca565b7f000000000000000000000000000000000000000000000000000000000000000073ffffffffffffffffffffffffffffffffffffffff163314610424576040517f91ac5e4f0000000000000000000000000000000000000000000000000000000081523360048201526024015b60405180910390fd5b6020870180359061043e90610439908a6113dc565b610900565b146104955761045060208801886113dc565b6040517fc26bebcc00000000000000000000000000000000000000000000000000000000815263ffffffff90911660048201526020880135602482015260440161041b565b6104a487878787878787610955565b50505050505050565b6104b5610a1f565b6104bf8282610a72565b5050565b6104cb610a1f565b6104d56000610ac7565b565b6104df611110565b83600003610519576040517f54db0c8c00000000000000000000000000000000000000000000000000000000815260040160405180910390fd5b73ffffffffffffffffffffffffffffffffffffffff8516610566576040517fe6c4247b00000000000000000000000000000000000000000000000000000000815260040160405180910390fd5b600073ffffffffffffffffffffffffffffffffffffffff86166040805160208101929092528101869052606001604080518083037fffffffffffffffffffffffffffffffffffffffffffffffffffffffffffffffe0018152908290527f79cc67900000000000000000000000000000000000000000000000000000000082523360048301526024820187905291507f000000000000000000000000000000000000000000000000000000000000000073ffffffffffffffffffffffffffffffffffffffff16906379cc679090604401600060405180830381600087803b15801561064f57600080fd5b505af1158015610663573d6000803e3d6000fd5b50506040805163ffffffff8b1681526020810189905273ffffffffffffffffffffffffffffffffffffffff8a1693503392507f54c4a194b05dc181761d873dfa15d370b0836fb76e18164f589b71d591c7a73a910160405180910390a3610718878286868080601f01602080910402602001604051908101604052809392919081815260200183838082843760009201829052506040805180820190915234815260208101919091529250339150610b3c9050565b979650505050505050565b60005b92915050565b610734610a1f565b6040517fca5eb5e100000000000000000000000000000000000000000000000000000000815273ffffffffffffffffffffffffffffffffffffffff82811660048301527f0000000000000000000000000000000000000000000000000000000000000000169063ca5eb5e190602401600060405180830381600087803b1580156107bd57600080fd5b505af11580156107d1573d6000803e3d6000fd5b5050505050565b60408051808201909152600080825260208201526108328573ffffffffffffffffffffffffffffffffffffffff86166040805160208101929092528101869052606001604051602081830303815290604052846000610c49565b95945050505050565b610843610a1f565b73ffffffffffffffffffffffffffffffffffffffff8116610893576040517f1e4fbdf70000000000000000000000000000000000000000000000000000000081526000600482015260240161041b565b61089c81610ac7565b50565b60408051808201909152600080825260208201526108c08484846000610c49565b90505b9392505050565b60006020820180359060019083906108e290866113dc565b63ffffffff1681526020810191909152604001600020541492915050565b63ffffffff811660009081526001602052604081205480610726576040517ff6ff4fb700000000000000000000000000000000000000000000000000000000815263ffffffff8416600482015260240161041b565b60008061096486880188611606565b6040517f40c10f1900000000000000000000000000000000000000000000000000000000815273ffffffffffffffffffffffffffffffffffffffff8084166004830152602482018390529294509092507f0000000000000000000000000000000000000000000000000000000000000000909116906340c10f1990604401600060405180830381600087803b1580156109fc57600080fd5b505af1158015610a10573d6000803e3d6000fd5b50505050505050505050505050565b60005473ffffffffffffffffffffffffffffffffffffffff1633146104d5576040517f118cdaa700000000000000000000000000000000000000000000000000000000815233600482015260240161041b565b63ffffffff8216600081815260016020908152604091829020849055815192835282018390527f238399d427b947898edb290f5ff0f9109849b1c3ba196a42e35f00c50a54b98b910160405180910390a15050565b6000805473ffffffffffffffffffffffffffffffffffffffff8381167fffffffffffffffffffffffff0000000000000000000000000000000000000000831681178455604051919092169283917f8be0079c531659141344cd1fd0a4f28419497f9722a3daafe3b4186f6b6457e09190a35050565b610b44611110565b6000610b538460000151610d2e565b602085015190915015610b6d57610b6d8460200151610d6f565b7f000000000000000000000000000000000000000000000000000000000000000073ffffffffffffffffffffffffffffffffffffffff16632637a450826040518060a001604052808b63ffffffff168152602001610bca8c610900565b81526020018a815260200189815260200160008960200151111515815250866040518463ffffffff1660e01b8152600401610c06929190611692565b60806040518083038185885af1158015610c24573d6000803e3d6000fd5b50505050506040513d601f19601f820116820180604052508101906107189190611785565b60408051808201909152600080825260208201527f000000000000000000000000000000000000000000000000000000000000000073ffffffffffffffffffffffffffffffffffffffff1663ddc28c586040518060a001604052808863ffffffff168152602001610cb989610900565b8152602001878152602001868152602001851515815250306040518363ffffffff1660e01b8152600401610cee929190611692565b6040805180830381865afa158015610d0a573d6000803e3d6000fd5b505050506040513d601f19601f8201168201806040525081019061083291906117fc565b6000813414610d6b576040517f9f70412000000000000000000000000000000000000000000000000000000000815234600482015260240161041b565b5090565b60007f000000000000000000000000000000000000000000000000000000000000000073ffffffffffffffffffffffffffffffffffffffff1663e4fe1d946040518163ffffffff1660e01b8152600401602060405180830381865afa158015610ddc573d6000803e3d6000fd5b505050506040513d601f19601f82011682018060405250810190610e009190611818565b905073ffffffffffffffffffffffffffffffffffffffff8116610e4f576040517f5373352a00000000000000000000000000000000000000000000000000000000815260040160405180910390fd5b6040805133602482018190527f000000000000000000000000000000000000000000000000000000000000000073ffffffffffffffffffffffffffffffffffffffff818116604485015260648085018890528551808603909101815260849094019094526020830180517bffffffffffffffffffffffffffffffffffffffffffffffffffffffff167f23b872dd000000000000000000000000000000000000000000000000000000001790526104bf938516928690610f0f908590610f15565b50505050565b6000610f3773ffffffffffffffffffffffffffffffffffffffff841683610fb0565b90508051600014158015610f5c575080806020019051810190610f5a9190611835565b155b15610fab576040517f5274afe700000000000000000000000000000000000000000000000000000000815273ffffffffffffffffffffffffffffffffffffffff8416600482015260240161041b565b505050565b60606108c383836000846000808573ffffffffffffffffffffffffffffffffffffffff168486604051610fe39190611857565b60006040518083038185875af1925050503d8060008114611020576040519150601f19603f3d011682016040523d82523d6000602084013e611025565b606091505b509150915061103586838361103f565b9695505050505050565b6060826110545761104f826110ce565b6108c3565b8151158015611078575073ffffffffffffffffffffffffffffffffffffffff84163b155b156110c7576040517f9996b31500000000000000000000000000000000000000000000000000000000815273ffffffffffffffffffffffffffffffffffffffff8516600482015260240161041b565b50806108c3565b8051156110de5780518082602001fd5b6040517f1425ea4200000000000000000000000000000000000000000000000000000000815260040160405180910390fd5b604051806060016040528060008019168152602001600067ffffffffffffffff168152602001611153604051806040016040528060008152602001600081525090565b905290565b60006060828403121561116a57600080fd5b50919050565b60008083601f84011261118257600080fd5b50813567ffffffffffffffff81111561119a57600080fd5b6020830191508360208285010111156111b257600080fd5b9250929050565b73ffffffffffffffffffffffffffffffffffffffff8116811461089c57600080fd5b600080600080600080600060e0888a0312156111f657600080fd5b6112008989611158565b965060608801359550608088013567ffffffffffffffff81111561122357600080fd5b61122f8a828b01611170565b90965094505060a0880135611243816111b9565b925060c088013567ffffffffffffffff81111561125f57600080fd5b61126b8a828b01611170565b989b979a50959850939692959293505050565b803563ffffffff8116811461129257600080fd5b919050565b600080604083850312156112aa57600080fd5b6112b38361127e565b946020939093013593505050565b6000806000806000608086880312156112d957600080fd5b6112e28661127e565b945060208601356112f2816111b9565b935060408601359250606086013567ffffffffffffffff81111561131557600080fd5b61132188828901611170565b969995985093965092949392505050565b60006080820190508251825267ffffffffffffffff6020840151166020830152604083015161136e604084018280518252602090810151910152565b5092915050565b60008060008060a0858703121561138b57600080fd5b6113958686611158565b9350606085013567ffffffffffffffff8111156113b157600080fd5b6113bd87828801611170565b90945092505060808501356113d1816111b9565b939692955090935050565b6000602082840312156113ee57600080fd5b6108c38261127e565b60006020828403121561140957600080fd5b81356108c3816111b9565b7f4e487b7100000000000000000000000000000000000000000000000000000000600052604160045260246000fd5b600082601f83011261145457600080fd5b813567ffffffffffffffff81111561146e5761146e611414565b604051601f82017fffffffffffffffffffffffffffffffffffffffffffffffffffffffffffffffe0908116603f0116810167ffffffffffffffff811182821017156114bb576114bb611414565b6040528181528382016020018510156114d357600080fd5b816020850160208301376000918101602001919091529392505050565b6000806000806080858703121561150657600080fd5b61150f8561127e565b9350602085013561151f816111b9565b925060408501359150606085013567ffffffffffffffff81111561154257600080fd5b61154e87828801611443565b91505092959194509250565b815181526020808301519082015260408101610726565b60008060006060848603121561158657600080fd5b61158f8461127e565b9250602084013567ffffffffffffffff8111156115ab57600080fd5b6115b786828701611443565b925050604084013567ffffffffffffffff8111156115d457600080fd5b6115e086828701611443565b9150509250925092565b6000606082840312156115fc57600080fd5b6108c38383611158565b6000806040838503121561161957600080fd5b82356112b3816111b9565b60005b8381101561163f578181015183820152602001611627565b50506000910152565b60008151808452611660816020860160208601611624565b601f017fffffffffffffffffffffffffffffffffffffffffffffffffffffffffffffffe0169290920160200192915050565b6040815263ffffffff8351166040820152602083015160608201526000604084015160a060808401526116c860e0840182611648565b905060608501517fffffffffffffffffffffffffffffffffffffffffffffffffffffffffffffffc08483030160a08501526117038282611648565b60809690960151151560c085015250505073ffffffffffffffffffffffffffffffffffffffff9190911660209091015290565b60006040828403121561174857600080fd5b6040805190810167ffffffffffffffff8111828210171561176b5761176b611414565b604052825181526020928301519281019290925250919050565b6000608082840312801561179857600080fd5b506040516060810167ffffffffffffffff811182821017156117bc576117bc611414565b60405282518152602083015167ffffffffffffffff811681146117de57600080fd5b60208201526117f08460408501611736565b60408201529392505050565b60006040828403121561180e57600080fd5b6108c38383611736565b60006020828403121561182a57600080fd5b81516108c3816111b9565b60006020828403121561184757600080fd5b815180151581146108c357600080fd5b60008251611869818460208701611624565b919091019291505056fea264697066735822122043f7196bebff6dfdd5193b0693b6b9e994957a28c8366b11af22819c57c168f664736f6c634300081c0033",
  "linkReferences": {},
  "deployedLinkReferences": {}
}