{
  "_format": "hh-sol-artifact-1",
  "contractName": "TempleStableAMMRouter",
  "sourceName": "contracts/amm/TempleStableAMMRouter.sol",
  "abi": [
    {
      "inputs": [
        {
          "internalType": "contract TempleERC20Token",
          "name": "_templeToken",
          "type": "address"
        },
        {
          "internalType": "contract ITreasuryIV",
          "name": "_templeTreasury",
          "type": "address"
        },
        {
          "internalType": "address",
          "name": "_defendStable",
          "type": "address"
        }
      ],
      "stateMutability": "nonpayable",
      "type": "constructor"
    },
    {
      "anonymous": false,
      "inputs": [
        {
          "indexed": true,
          "internalType": "address",
          "name": "previousOwner",
          "type": "address"
        },
        {
          "indexed": true,
          "internalType": "address",
          "name": "newOwner",
          "type": "address"
        }
      ],
      "name": "OwnershipTransferred",
      "type": "event"
    },
    {
      "inputs": [
        {
          "internalType": "uint256",
          "name": "amountADesired",
          "type": "uint256"
        },
        {
          "internalType": "uint256",
          "name": "amountBDesired",
          "type": "uint256"
        },
        {
          "internalType": "uint256",
          "name": "amountAMin",
          "type": "uint256"
        },
        {
          "internalType": "uint256",
          "name": "amountBMin",
          "type": "uint256"
        },
        {
          "internalType": "address",
          "name": "stable",
          "type": "address"
        },
        {
          "internalType": "address",
          "name": "to",
          "type": "address"
        },
        {
          "internalType": "uint256",
          "name": "deadline",
          "type": "uint256"
        }
      ],
      "name": "addLiquidity",
      "outputs": [
        {
          "internalType": "uint256",
          "name": "amountA",
          "type": "uint256"
        },
        {
          "internalType": "uint256",
          "name": "amountB",
          "type": "uint256"
        },
        {
          "internalType": "uint256",
          "name": "liquidity",
          "type": "uint256"
        }
      ],
      "stateMutability": "nonpayable",
      "type": "function"
    },
    {
      "inputs": [
        {
          "internalType": "address",
          "name": "_token",
          "type": "address"
        },
        {
          "internalType": "address",
          "name": "_pair",
          "type": "address"
        }
      ],
      "name": "addPair",
      "outputs": [],
      "stateMutability": "nonpayable",
      "type": "function"
    },
    {
      "inputs": [],
      "name": "defendStable",
      "outputs": [
        {
          "internalType": "address",
          "name": "",
          "type": "address"
        }
      ],
      "stateMutability": "view",
      "type": "function"
    },
    {
      "inputs": [
        {
          "internalType": "uint256",
          "name": "amountIn",
          "type": "uint256"
        },
        {
          "internalType": "uint256",
          "name": "reserveIn",
          "type": "uint256"
        },
        {
          "internalType": "uint256",
          "name": "reserveOut",
          "type": "uint256"
        }
      ],
      "name": "getAmountOut",
      "outputs": [
        {
          "internalType": "uint256",
          "name": "amountOut",
          "type": "uint256"
        }
      ],
      "stateMutability": "pure",
      "type": "function"
    },
    {
      "inputs": [],
      "name": "owner",
      "outputs": [
        {
          "internalType": "address",
          "name": "",
          "type": "address"
        }
      ],
      "stateMutability": "view",
      "type": "function"
    },
    {
      "inputs": [
        {
          "internalType": "uint256",
          "name": "amountA",
          "type": "uint256"
        },
        {
          "internalType": "uint256",
          "name": "reserveA",
          "type": "uint256"
        },
        {
          "internalType": "uint256",
          "name": "reserveB",
          "type": "uint256"
        }
      ],
      "name": "quote",
      "outputs": [
        {
          "internalType": "uint256",
          "name": "amountB",
          "type": "uint256"
        }
      ],
      "stateMutability": "pure",
      "type": "function"
    },
    {
      "inputs": [
        {
          "internalType": "uint256",
          "name": "liquidity",
          "type": "uint256"
        },
        {
          "internalType": "uint256",
          "name": "amountAMin",
          "type": "uint256"
        },
        {
          "internalType": "uint256",
          "name": "amountBMin",
          "type": "uint256"
        },
        {
          "internalType": "address",
          "name": "stable",
          "type": "address"
        },
        {
          "internalType": "address",
          "name": "to",
          "type": "address"
        },
        {
          "internalType": "uint256",
          "name": "deadline",
          "type": "uint256"
        }
      ],
      "name": "removeLiquidity",
      "outputs": [
        {
          "internalType": "uint256",
          "name": "amountA",
          "type": "uint256"
        },
        {
          "internalType": "uint256",
          "name": "amountB",
          "type": "uint256"
        }
      ],
      "stateMutability": "nonpayable",
      "type": "function"
    },
    {
      "inputs": [],
      "name": "renounceOwnership",
      "outputs": [],
      "stateMutability": "nonpayable",
      "type": "function"
    },
    {
      "inputs": [
        {
          "internalType": "address",
          "name": "_defendStable",
          "type": "address"
        }
      ],
      "name": "setDefendStable",
      "outputs": [],
      "stateMutability": "nonpayable",
      "type": "function"
    },
    {
      "inputs": [
        {
          "internalType": "contract ITreasuryIV",
          "name": "_templeTreasury",
          "type": "address"
        }
      ],
      "name": "setTreasury",
      "outputs": [],
      "stateMutability": "nonpayable",
      "type": "function"
    },
    {
      "inputs": [
        {
          "internalType": "uint256",
          "name": "amountIn",
          "type": "uint256"
        },
        {
          "internalType": "uint256",
          "name": "amountOutMin",
          "type": "uint256"
        },
        {
          "internalType": "address",
          "name": "stable",
          "type": "address"
        },
        {
          "internalType": "address",
          "name": "to",
          "type": "address"
        },
        {
          "internalType": "uint256",
          "name": "deadline",
          "type": "uint256"
        }
      ],
      "name": "swapExactStableForTemple",
      "outputs": [
        {
          "internalType": "uint256",
          "name": "amountOut",
          "type": "uint256"
        }
      ],
      "stateMutability": "nonpayable",
      "type": "function"
    },
    {
      "inputs": [
        {
          "internalType": "address",
          "name": "pair",
          "type": "address"
        },
        {
          "internalType": "uint256",
          "name": "amountIn",
          "type": "uint256"
        }
      ],
      "name": "swapExactStableForTempleQuote",
      "outputs": [
        {
          "internalType": "uint256",
          "name": "amountOut",
          "type": "uint256"
        }
      ],
      "stateMutability": "view",
      "type": "function"
    },
    {
      "inputs": [
        {
          "internalType": "uint256",
          "name": "amountIn",
          "type": "uint256"
        },
        {
          "internalType": "uint256",
          "name": "amountOutMin",
          "type": "uint256"
        },
        {
          "internalType": "address",
          "name": "stable",
          "type": "address"
        },
        {
          "internalType": "address",
          "name": "to",
          "type": "address"
        },
        {
          "internalType": "uint256",
          "name": "deadline",
          "type": "uint256"
        }
      ],
      "name": "swapExactTempleForStable",
      "outputs": [
        {
          "internalType": "uint256",
          "name": "",
          "type": "uint256"
        }
      ],
      "stateMutability": "nonpayable",
      "type": "function"
    },
    {
      "inputs": [
        {
          "internalType": "address",
          "name": "pair",
          "type": "address"
        },
        {
          "internalType": "uint256",
          "name": "amountIn",
          "type": "uint256"
        }
      ],
      "name": "swapExactTempleForStableQuote",
      "outputs": [
        {
          "internalType": "bool",
          "name": "priceBelowIV",
          "type": "bool"
        },
        {
          "internalType": "uint256",
          "name": "amountOut",
          "type": "uint256"
        }
      ],
      "stateMutability": "view",
      "type": "function"
    },
    {
      "inputs": [],
      "name": "templeToken",
      "outputs": [
        {
          "internalType": "contract TempleERC20Token",
          "name": "",
          "type": "address"
        }
      ],
      "stateMutability": "view",
      "type": "function"
    },
    {
      "inputs": [],
      "name": "templeTreasury",
      "outputs": [
        {
          "internalType": "contract ITreasuryIV",
          "name": "",
          "type": "address"
        }
      ],
      "stateMutability": "view",
      "type": "function"
    },
    {
      "inputs": [
        {
          "internalType": "address",
          "name": "",
          "type": "address"
        }
      ],
      "name": "tokenPair",
      "outputs": [
        {
          "internalType": "address",
          "name": "",
          "type": "address"
        }
      ],
      "stateMutability": "view",
      "type": "function"
    },
    {
      "inputs": [
        {
          "internalType": "address",
          "name": "newOwner",
          "type": "address"
        }
      ],
      "name": "transferOwnership",
      "outputs": [],
      "stateMutability": "nonpayable",
      "type": "function"
    },
    {
      "inputs": [
        {
          "internalType": "address",
          "name": "token",
          "type": "address"
        },
        {
          "internalType": "address",
          "name": "to",
          "type": "address"
        },
        {
          "internalType": "uint256",
          "name": "amount",
          "type": "uint256"
        }
      ],
      "name": "withdraw",
      "outputs": [],
      "stateMutability": "nonpayable",
      "type": "function"
    }
  ],
  "bytecode": "0x60a06040523480156200001157600080fd5b5060405162002562380380620025628339810160408190526200003491620000df565b6200003f3362000076565b6001600160a01b03928316608052600280549284166001600160a01b03199384161790556003805491909316911617905562000133565b600080546001600160a01b038381166001600160a01b0319831681178455604051919092169283917f8be0079c531659141344cd1fd0a4f28419497f9722a3daafe3b4186f6b6457e09190a35050565b6001600160a01b0381168114620000dc57600080fd5b50565b600080600060608486031215620000f557600080fd5b83516200010281620000c6565b60208501519093506200011581620000c6565b60408501519092506200012881620000c6565b809150509250925092565b6080516123fe62000164600039600081816102dd015281816106e9015281816114d0015261160001526123fe6000f3fe608060405234801561001057600080fd5b50600436106101515760003560e01c80638da5cb5b116100cd578063c4b58a1e11610081578063e94e36b911610066578063e94e36b914610358578063f0f442601461036b578063f2fde38b1461037e57600080fd5b8063c4b58a1e14610332578063d9caed121461034557600080fd5b8063b1a9069c116100b2578063b1a9069c146102d8578063b272d5a2146102ff578063b6f3e0871461031f57600080fd5b80638da5cb5b146102a7578063ad615dec146102c557600080fd5b80632c908de5116101245780636727a70b116101095780636727a70b14610262578063715018a61461028a578063854f71061461029457600080fd5b80632c908de5146102255780634dfe82a51461023857600080fd5b8063054d50d41461015657806314e920981461017c5780631cc6391e146101aa57806328fef2a114610205575b600080fd5b610169610164366004611f21565b610391565b6040519081526020015b60405180910390f35b61018f61018a366004611f6f565b610511565b60408051938452602084019290925290820152606001610173565b6101e06101b8366004611fd8565b60016020526000908152604090205473ffffffffffffffffffffffffffffffffffffffff1681565b60405173ffffffffffffffffffffffffffffffffffffffff9091168152602001610173565b6002546101e09073ffffffffffffffffffffffffffffffffffffffff1681565b610169610233366004611ff5565b6107bf565b61024b610246366004611ff5565b61086c565b604080519215158352602083019190915201610173565b610275610270366004612021565b6109ea565b60408051928352602083019190915201610173565b610292610cdc565b005b6101696102a236600461207f565b610cf0565b60005473ffffffffffffffffffffffffffffffffffffffff166101e0565b6101696102d3366004611f21565b610f5e565b6101e07f000000000000000000000000000000000000000000000000000000000000000081565b6003546101e09073ffffffffffffffffffffffffffffffffffffffff1681565b61029261032d3660046120d1565b6110a8565b610292610340366004611fd8565b611103565b61029261035336600461210a565b611152565b61016961036636600461207f565b6112d2565b610292610379366004611fd8565b6116cc565b61029261038c366004611fd8565b61171b565b6000808411610427576040517f08c379a000000000000000000000000000000000000000000000000000000000815260206004820152602b60248201527f556e697377617056324c6962726172793a20494e53554646494349454e545f4960448201527f4e5055545f414d4f554e5400000000000000000000000000000000000000000060648201526084015b60405180910390fd5b6000831180156104375750600082115b6104c3576040517f08c379a000000000000000000000000000000000000000000000000000000000815260206004820152602860248201527f556e697377617056324c6962726172793a20494e53554646494349454e545f4c60448201527f4951554944495459000000000000000000000000000000000000000000000000606482015260840161041e565b60006104d1856103e361217a565b905060006104df848361217a565b90506000826104f0876103e861217a565b6104fa9190612197565b905061050681836121aa565b979650505050505050565b60008060008342811015610581576040517f08c379a000000000000000000000000000000000000000000000000000000000815260206004820152601e60248201527f54656d706c65537461626c65414d4d526f757465723a20455850495245440000604482015260640161041e565b73ffffffffffffffffffffffffffffffffffffffff8088166000908152600160205260409020541680610636576040517f08c379a000000000000000000000000000000000000000000000000000000000815260206004820152602760248201527f54656d706c65537461626c65414d4d526f757465723a20554e535550504f525460448201527f45445f5041495200000000000000000000000000000000000000000000000000606482015260840161041e565b898c101580156106465750888b10155b6106d2576040517f08c379a000000000000000000000000000000000000000000000000000000000815260206004820152602660248201527f54656d706c65537461626c65414d4d526f757465723a204d45565f455854524160448201527f435441424c450000000000000000000000000000000000000000000000000000606482015260840161041e565b6106df8c8c8c8c856117d2565b90955093506107107f00000000000000000000000000000000000000000000000000000000000000003383886119fe565b61071c883383876119fe565b6040517f6a62784200000000000000000000000000000000000000000000000000000000815273ffffffffffffffffffffffffffffffffffffffff8881166004830152821690636a627842906024016020604051808303816000875af115801561078a573d6000803e3d6000fd5b505050506040513d601f19601f820116820180604052508101906107ae91906121e5565b925050509750975097945050505050565b60008060008473ffffffffffffffffffffffffffffffffffffffff16630902f1ac6040518163ffffffff1660e01b8152600401606060405180830381865afa15801561080f573d6000803e3d6000fd5b505050506040513d601f19601f820116820180604052508101906108339190612221565b506dffffffffffffffffffffffffffff1691506dffffffffffffffffffffffffffff169150610863848284610391565b95945050505050565b6000806000808573ffffffffffffffffffffffffffffffffffffffff16630902f1ac6040518163ffffffff1660e01b8152600401606060405180830381865afa1580156108bd573d6000803e3d6000fd5b505050506040513d601f19601f820116820180604052508101906108e19190612221565b506dffffffffffffffffffffffffffff1691506dffffffffffffffffffffffffffff169150600080600260009054906101000a900473ffffffffffffffffffffffffffffffffffffffff1673ffffffffffffffffffffffffffffffffffffffff1663a340bae26040518163ffffffff1660e01b81526004016040805180830381865afa158015610975573d6000803e3d6000fd5b505050506040513d601f19601f820116820180604052508101906109999190612271565b9150915060006109aa888686610391565b90506000826109b9858b61217a565b6109c391906121aa565b9050818111156109d957809650600197506109dd565b8196505b5050505050509250929050565b6000808242811015610a58576040517f08c379a000000000000000000000000000000000000000000000000000000000815260206004820152601e60248201527f54656d706c65537461626c65414d4d526f757465723a20455850495245440000604482015260640161041e565b73ffffffffffffffffffffffffffffffffffffffff8087166000908152600160205260409020541680610b0d576040517f08c379a000000000000000000000000000000000000000000000000000000000815260206004820152602760248201527f54656d706c65537461626c65414d4d526f757465723a20554e535550504f525460448201527f45445f5041495200000000000000000000000000000000000000000000000000606482015260840161041e565b610b198133838d6119fe565b6040517f89afcb4400000000000000000000000000000000000000000000000000000000815273ffffffffffffffffffffffffffffffffffffffff87811660048301528216906389afcb449060240160408051808303816000875af1158015610b86573d6000803e3d6000fd5b505050506040513d601f19601f82011682018060405250810190610baa9190612271565b909450925088841015610c3f576040517f08c379a000000000000000000000000000000000000000000000000000000000815260206004820152602a60248201527f54656d706c65537461626c65414d4d526f757465723a20494e5355464649434960448201527f454e545f54454d504c4500000000000000000000000000000000000000000000606482015260840161041e565b87831015610ccf576040517f08c379a000000000000000000000000000000000000000000000000000000000815260206004820152602660248201527f54656d706c6546726178414d4d526f757465723a20494e53554646494349454e60448201527f545f465241580000000000000000000000000000000000000000000000000000606482015260840161041e565b5050965096945050505050565b610ce4611ada565b610cee6000611b5b565b565b60008142811015610d5d576040517f08c379a000000000000000000000000000000000000000000000000000000000815260206004820152601e60248201527f54656d706c65537461626c65414d4d526f757465723a20455850495245440000604482015260640161041e565b73ffffffffffffffffffffffffffffffffffffffff8086166000908152600160205260409020541680610e12576040517f08c379a000000000000000000000000000000000000000000000000000000000815260206004820152602760248201527f54656d706c65537461626c65414d4d526f757465723a20554e535550504f525460448201527f45445f5041495200000000000000000000000000000000000000000000000000606482015260840161041e565b6000610e1e828a6107bf565b905087811015610eb0576040517f08c379a000000000000000000000000000000000000000000000000000000000815260206004820152603160248201527f54656d706c65537461626c65414d4d526f757465723a20494e5355464649434960448201527f454e545f4f55545055545f414d4f554e54000000000000000000000000000000606482015260840161041e565b610ebc8733848c6119fe565b60408051600080825260208201928390527f022c0d9f0000000000000000000000000000000000000000000000000000000090925273ffffffffffffffffffffffffffffffffffffffff84169163022c0d9f91610f209185918b9060248101612303565b600060405180830381600087803b158015610f3a57600080fd5b505af1158015610f4e573d6000803e3d6000fd5b5050505050505095945050505050565b6000808411610fef576040517f08c379a000000000000000000000000000000000000000000000000000000000815260206004820152602560248201527f556e697377617056324c6962726172793a20494e53554646494349454e545f4160448201527f4d4f554e54000000000000000000000000000000000000000000000000000000606482015260840161041e565b600083118015610fff5750600082115b61108b576040517f08c379a000000000000000000000000000000000000000000000000000000000815260206004820152602860248201527f556e697377617056324c6962726172793a20494e53554646494349454e545f4c60448201527f4951554944495459000000000000000000000000000000000000000000000000606482015260840161041e565b82611096838661217a565b6110a091906121aa565b949350505050565b6110b0611ada565b73ffffffffffffffffffffffffffffffffffffffff918216600090815260016020526040902080547fffffffffffffffffffffffff00000000000000000000000000000000000000001691909216179055565b61110b611ada565b600380547fffffffffffffffffffffffff00000000000000000000000000000000000000001673ffffffffffffffffffffffffffffffffffffffff92909216919091179055565b61115a611ada565b73ffffffffffffffffffffffffffffffffffffffff82166111d7576040517f08c379a000000000000000000000000000000000000000000000000000000000815260206004820152600f60248201527f746f2061646472657373207a65726f0000000000000000000000000000000000604482015260640161041e565b73ffffffffffffffffffffffffffffffffffffffff83166112c25760008273ffffffffffffffffffffffffffffffffffffffff168260405160006040518083038185875af1925050503d806000811461124c576040519150601f19603f3d011682016040523d82523d6000602084013e611251565b606091505b50509050806112bc576040517f08c379a000000000000000000000000000000000000000000000000000000000815260206004820152600b60248201527f73656e64206661696c6564000000000000000000000000000000000000000000604482015260640161041e565b50505050565b6112cd838383611bd0565b505050565b6000814281101561133f576040517f08c379a000000000000000000000000000000000000000000000000000000000815260206004820152601e60248201527f54656d706c65537461626c65414d4d526f757465723a20455850495245440000604482015260640161041e565b73ffffffffffffffffffffffffffffffffffffffff80861660009081526001602052604090205416806113f4576040517f08c379a000000000000000000000000000000000000000000000000000000000815260206004820152602760248201527f54656d706c65537461626c65414d4d526f757465723a20554e535550504f525460448201527f45445f5041495200000000000000000000000000000000000000000000000000606482015260840161041e565b600080611401838b61086c565b91509150811561156b578881101561149b576040517f08c379a000000000000000000000000000000000000000000000000000000000815260206004820152603160248201527f54656d706c65537461626c65414d4d526f757465723a20494e5355464649434960448201527f454e545f4f55545055545f414d4f554e54000000000000000000000000000000606482015260840161041e565b6040517f79cc6790000000000000000000000000000000000000000000000000000000008152336004820152602481018b90527f000000000000000000000000000000000000000000000000000000000000000073ffffffffffffffffffffffffffffffffffffffff16906379cc679090604401600060405180830381600087803b15801561152957600080fd5b505af115801561153d573d6000803e3d6000fd5b5050600354611566925073ffffffffffffffffffffffffffffffffffffffff1690508883611bd0565b6116bf565b888110156115fb576040517f08c379a000000000000000000000000000000000000000000000000000000000815260206004820152603160248201527f54656d706c65537461626c65414d4d526f757465723a20494e5355464649434960448201527f454e545f4f55545055545f414d4f554e54000000000000000000000000000000606482015260840161041e565b6116277f000000000000000000000000000000000000000000000000000000000000000033858d6119fe565b60408051600080825260208201928390527f022c0d9f0000000000000000000000000000000000000000000000000000000090925273ffffffffffffffffffffffffffffffffffffffff85169163022c0d9f9161168c919085908c9060248101612303565b600060405180830381600087803b1580156116a657600080fd5b505af11580156116ba573d6000803e3d6000fd5b505050505b9998505050505050505050565b6116d4611ada565b600280547fffffffffffffffffffffffff00000000000000000000000000000000000000001673ffffffffffffffffffffffffffffffffffffffff92909216919091179055565b611723611ada565b73ffffffffffffffffffffffffffffffffffffffff81166117c6576040517f08c379a000000000000000000000000000000000000000000000000000000000815260206004820152602660248201527f4f776e61626c653a206e6577206f776e657220697320746865207a65726f206160448201527f6464726573730000000000000000000000000000000000000000000000000000606482015260840161041e565b6117cf81611b5b565b50565b6000806000808473ffffffffffffffffffffffffffffffffffffffff16630902f1ac6040518163ffffffff1660e01b8152600401606060405180830381865afa158015611823573d6000803e3d6000fd5b505050506040513d601f19601f820116820180604052508101906118479190612221565b506dffffffffffffffffffffffffffff1691506dffffffffffffffffffffffffffff16915081600014801561187a575080155b1561188a578893508792506119f2565b60006118978a8484610f5e565b905088811161193b5786811015611930576040517f08c379a000000000000000000000000000000000000000000000000000000000815260206004820152602a60248201527f54656d706c65537461626c65414d4d526f757465723a20494e5355464649434960448201527f454e545f535441424c4500000000000000000000000000000000000000000000606482015260840161041e565b8994509250826119f0565b60006119488a8486610f5e565b90508a81111561195a5761195a612348565b888110156119ea576040517f08c379a000000000000000000000000000000000000000000000000000000000815260206004820152602a60248201527f54656d706c65537461626c65414d4d526f757465723a20494e5355464649434960448201527f454e545f54454d504c4500000000000000000000000000000000000000000000606482015260840161041e565b94508893505b505b50509550959350505050565b60405173ffffffffffffffffffffffffffffffffffffffff808516602483015283166044820152606481018290526112bc9085907f23b872dd00000000000000000000000000000000000000000000000000000000906084015b604080517fffffffffffffffffffffffffffffffffffffffffffffffffffffffffffffffe08184030181529190526020810180517bffffffffffffffffffffffffffffffffffffffffffffffffffffffff167fffffffff0000000000000000000000000000000000000000000000000000000090931692909217909152611c26565b60005473ffffffffffffffffffffffffffffffffffffffff163314610cee576040517f08c379a000000000000000000000000000000000000000000000000000000000815260206004820181905260248201527f4f776e61626c653a2063616c6c6572206973206e6f7420746865206f776e6572604482015260640161041e565b6000805473ffffffffffffffffffffffffffffffffffffffff8381167fffffffffffffffffffffffff0000000000000000000000000000000000000000831681178455604051919092169283917f8be0079c531659141344cd1fd0a4f28419497f9722a3daafe3b4186f6b6457e09190a35050565b60405173ffffffffffffffffffffffffffffffffffffffff83166024820152604481018290526112cd9084907fa9059cbb0000000000000000000000000000000000000000000000000000000090606401611a58565b6000611c88826040518060400160405280602081526020017f5361666545524332303a206c6f772d6c6576656c2063616c6c206661696c65648152508573ffffffffffffffffffffffffffffffffffffffff16611d329092919063ffffffff16565b8051909150156112cd5780806020019051810190611ca69190612377565b6112cd576040517f08c379a000000000000000000000000000000000000000000000000000000000815260206004820152602a60248201527f5361666545524332303a204552433230206f7065726174696f6e20646964206e60448201527f6f74207375636365656400000000000000000000000000000000000000000000606482015260840161041e565b60606110a08484600085611d48565b9392505050565b606082471015611dda576040517f08c379a000000000000000000000000000000000000000000000000000000000815260206004820152602660248201527f416464726573733a20696e73756666696369656e742062616c616e636520666f60448201527f722063616c6c0000000000000000000000000000000000000000000000000000606482015260840161041e565b73ffffffffffffffffffffffffffffffffffffffff85163b611e58576040517f08c379a000000000000000000000000000000000000000000000000000000000815260206004820152601d60248201527f416464726573733a2063616c6c20746f206e6f6e2d636f6e7472616374000000604482015260640161041e565b6000808673ffffffffffffffffffffffffffffffffffffffff168587604051611e819190612399565b60006040518083038185875af1925050503d8060008114611ebe576040519150601f19603f3d011682016040523d82523d6000602084013e611ec3565b606091505b509150915061050682828660608315611edd575081611d41565b825115611eed5782518084602001fd5b816040517f08c379a000000000000000000000000000000000000000000000000000000000815260040161041e91906123b5565b600080600060608486031215611f3657600080fd5b505081359360208301359350604090920135919050565b73ffffffffffffffffffffffffffffffffffffffff811681146117cf57600080fd5b600080600080600080600060e0888a031215611f8a57600080fd5b873596506020880135955060408801359450606088013593506080880135611fb181611f4d565b925060a0880135611fc181611f4d565b8092505060c0880135905092959891949750929550565b600060208284031215611fea57600080fd5b8135611d4181611f4d565b6000806040838503121561200857600080fd5b823561201381611f4d565b946020939093013593505050565b60008060008060008060c0878903121561203a57600080fd5b863595506020870135945060408701359350606087013561205a81611f4d565b9250608087013561206a81611f4d565b8092505060a087013590509295509295509295565b600080600080600060a0868803121561209757600080fd5b853594506020860135935060408601356120b081611f4d565b925060608601356120c081611f4d565b949793965091946080013592915050565b600080604083850312156120e457600080fd5b82356120ef81611f4d565b915060208301356120ff81611f4d565b809150509250929050565b60008060006060848603121561211f57600080fd5b833561212a81611f4d565b9250602084013561213a81611f4d565b929592945050506040919091013590565b7f4e487b7100000000000000000000000000000000000000000000000000000000600052601160045260246000fd5b80820281158282048414176121915761219161214b565b92915050565b808201808211156121915761219161214b565b6000826121e0577f4e487b7100000000000000000000000000000000000000000000000000000000600052601260045260246000fd5b500490565b6000602082840312156121f757600080fd5b5051919050565b80516dffffffffffffffffffffffffffff8116811461221c57600080fd5b919050565b60008060006060848603121561223657600080fd5b61223f846121fe565b925061224d602085016121fe565b9150604084015163ffffffff8116811461226657600080fd5b809150509250925092565b6000806040838503121561228457600080fd5b505080516020909101519092909150565b60005b838110156122b0578181015183820152602001612298565b50506000910152565b600081518084526122d1816020860160208601612295565b601f017fffffffffffffffffffffffffffffffffffffffffffffffffffffffffffffffe0169290920160200192915050565b84815283602082015273ffffffffffffffffffffffffffffffffffffffff8316604082015260806060820152600061233e60808301846122b9565b9695505050505050565b7f4e487b7100000000000000000000000000000000000000000000000000000000600052600160045260246000fd5b60006020828403121561238957600080fd5b81518015158114611d4157600080fd5b600082516123ab818460208701612295565b9190910192915050565b602081526000611d4160208301846122b956fea2646970667358221220b71a5e4e6c31d4ddd43616707f35b79feab87ca061abcec72dfd0381f263ece564736f6c63430008110033",
  "linkReferences": {},
  "deployedLinkReferences": {}
}