{
  "_format": "hh-sol-artifact-1",
  "contractName": "TempleTeamPaymentsFactory",
  "sourceName": "contracts/admin/TempleTeamPaymentsFactory.sol",
  "abi": [
    {
      "inputs": [
        {
          "internalType": "address",
          "name": "_implementation",
          "type": "address"
        },
        {
          "internalType": "uint16",
          "name": "_lastPaidEpoch",
          "type": "uint16"
        }
      ],
      "stateMutability": "nonpayable",
      "type": "constructor"
    },
    {
      "inputs": [],
      "name": "AllocationAddressZero",
      "type": "error"
    },
    {
      "inputs": [],
      "name": "AllocationsLengthMismatch",
      "type": "error"
    },
    {
      "inputs": [],
      "name": "ClaimZeroValue",
      "type": "error"
    },
    {
      "inputs": [],
      "name": "ImplementationAddressZero",
      "type": "error"
    },
    {
      "anonymous": false,
      "inputs": [
        {
          "indexed": true,
          "internalType": "uint256",
          "name": "fundingRound",
          "type": "uint256"
        },
        {
          "indexed": true,
          "internalType": "address[]",
          "name": "dests",
          "type": "address[]"
        },
        {
          "indexed": true,
          "internalType": "uint256[]",
          "name": "amounts",
          "type": "uint256[]"
        },
        {
          "indexed": false,
          "internalType": "address",
          "name": "deployedTo",
          "type": "address"
        }
      ],
      "name": "FundingDeployed",
      "type": "event"
    },
    {
      "anonymous": false,
      "inputs": [
        {
          "indexed": true,
          "internalType": "uint256",
          "name": "fundingRound",
          "type": "uint256"
        },
        {
          "indexed": true,
          "internalType": "address[]",
          "name": "dests",
          "type": "address[]"
        },
        {
          "indexed": true,
          "internalType": "uint256[]",
          "name": "amounts",
          "type": "uint256[]"
        }
      ],
      "name": "FundingPaid",
      "type": "event"
    },
    {
      "anonymous": false,
      "inputs": [
        {
          "indexed": true,
          "internalType": "address",
          "name": "newImplementation",
          "type": "address"
        }
      ],
      "name": "ImplementationChanged",
      "type": "event"
    },
    {
      "anonymous": false,
      "inputs": [
        {
          "indexed": true,
          "internalType": "address",
          "name": "previousOwner",
          "type": "address"
        },
        {
          "indexed": true,
          "internalType": "address",
          "name": "newOwner",
          "type": "address"
        }
      ],
      "name": "OwnershipTransferred",
      "type": "event"
    },
    {
      "anonymous": false,
      "inputs": [
        {
          "indexed": true,
          "internalType": "address",
          "name": "token",
          "type": "address"
        },
        {
          "indexed": false,
          "internalType": "uint256",
          "name": "amount",
          "type": "uint256"
        }
      ],
      "name": "TokenRecovered",
      "type": "event"
    },
    {
      "inputs": [
        {
          "internalType": "contract IERC20",
          "name": "_token",
          "type": "address"
        },
        {
          "internalType": "address[]",
          "name": "_dests",
          "type": "address[]"
        },
        {
          "internalType": "uint256[]",
          "name": "_allocations",
          "type": "uint256[]"
        },
        {
          "internalType": "uint256",
          "name": "_totalFunding",
          "type": "uint256"
        }
      ],
      "name": "deployPayouts",
      "outputs": [
        {
          "internalType": "contract TempleTeamPaymentsV2",
          "name": "",
          "type": "address"
        }
      ],
      "stateMutability": "nonpayable",
      "type": "function"
    },
    {
      "inputs": [
        {
          "internalType": "contract IERC20",
          "name": "_token",
          "type": "address"
        },
        {
          "internalType": "address[]",
          "name": "_dests",
          "type": "address[]"
        },
        {
          "internalType": "uint256[]",
          "name": "_allocations",
          "type": "uint256[]"
        }
      ],
      "name": "directPayouts",
      "outputs": [],
      "stateMutability": "nonpayable",
      "type": "function"
    },
    {
      "inputs": [
        {
          "internalType": "uint256",
          "name": "",
          "type": "uint256"
        }
      ],
      "name": "epochsFunded",
      "outputs": [
        {
          "internalType": "address",
          "name": "paymentContract",
          "type": "address"
        },
        {
          "internalType": "uint16",
          "name": "epoch",
          "type": "uint16"
        },
        {
          "internalType": "uint256",
          "name": "totalFunding",
          "type": "uint256"
        }
      ],
      "stateMutability": "view",
      "type": "function"
    },
    {
      "inputs": [],
      "name": "initialEpoch",
      "outputs": [
        {
          "internalType": "uint16",
          "name": "",
          "type": "uint16"
        }
      ],
      "stateMutability": "view",
      "type": "function"
    },
    {
      "inputs": [],
      "name": "lastPaidEpoch",
      "outputs": [
        {
          "internalType": "uint16",
          "name": "",
          "type": "uint16"
        }
      ],
      "stateMutability": "view",
      "type": "function"
    },
    {
      "inputs": [],
      "name": "owner",
      "outputs": [
        {
          "internalType": "address",
          "name": "",
          "type": "address"
        }
      ],
      "stateMutability": "view",
      "type": "function"
    },
    {
      "inputs": [],
      "name": "renounceOwnership",
      "outputs": [],
      "stateMutability": "nonpayable",
      "type": "function"
    },
    {
      "inputs": [
        {
          "internalType": "address",
          "name": "_templeTeamPaymentsImplementation",
          "type": "address"
        }
      ],
      "name": "setTempleTeamPaymentsImplementation",
      "outputs": [],
      "stateMutability": "nonpayable",
      "type": "function"
    },
    {
      "inputs": [],
      "name": "templeTeamPaymentsImplementation",
      "outputs": [
        {
          "internalType": "address",
          "name": "",
          "type": "address"
        }
      ],
      "stateMutability": "view",
      "type": "function"
    },
    {
      "inputs": [
        {
          "internalType": "address",
          "name": "newOwner",
          "type": "address"
        }
      ],
      "name": "transferOwnership",
      "outputs": [],
      "stateMutability": "nonpayable",
      "type": "function"
    },
    {
      "inputs": [
        {
          "internalType": "contract IERC20",
          "name": "_token",
          "type": "address"
        },
        {
          "internalType": "uint256",
          "name": "_amount",
          "type": "uint256"
        }
      ],
      "name": "withdrawToken",
      "outputs": [],
      "stateMutability": "nonpayable",
      "type": "function"
    }
  ],
  "bytecode": "0x60a06040523480156200001157600080fd5b5060405162001728380380620017288339810160408190526200003491620000d5565b6200003f3362000085565b6001805461ffff8316600160a01b026001600160b01b03199091166001600160a01b038516171781556200007590829062000125565b61ffff1660805250620001569050565b600080546001600160a01b038381166001600160a01b0319831681178455604051919092169283917f8be0079c531659141344cd1fd0a4f28419497f9722a3daafe3b4186f6b6457e09190a35050565b60008060408385031215620000e957600080fd5b82516001600160a01b03811681146200010157600080fd5b602084015190925061ffff811681146200011a57600080fd5b809150509250929050565b61ffff8181168382160190808211156200014f57634e487b7160e01b600052601160045260246000fd5b5092915050565b6080516115b66200017260003960006101e901526115b66000f3fe608060405234801561001057600080fd5b50600436106100c95760003560e01c806370ef4ad3116100815780639e281a981161005b5780639e281a9814610244578063f2fde38b14610257578063f36d583f1461026a57600080fd5b806370ef4ad3146101e4578063715018a61461021e5780638da5cb5b1461022657600080fd5b80634795b7aa116100b25780634795b7aa146100f657806359ab3e7b146101405780635c99b931146101d157600080fd5b80633e42e49b146100ce5780633e5a4ded146100e3575b600080fd5b6100e16100dc366004611121565b610290565b005b6100e16100f1366004611191565b610354565b6001546101169073ffffffffffffffffffffffffffffffffffffffff1681565b60405173ffffffffffffffffffffffffffffffffffffffff90911681526020015b60405180910390f35b61019c61014e366004611214565b6002602052600090815260409020805460019091015473ffffffffffffffffffffffffffffffffffffffff82169174010000000000000000000000000000000000000000900461ffff169083565b6040805173ffffffffffffffffffffffffffffffffffffffff909416845261ffff909216602084015290820152606001610137565b6101166101df36600461122d565b61051f565b61020b7f000000000000000000000000000000000000000000000000000000000000000081565b60405161ffff9091168152602001610137565b6100e1610860565b60005473ffffffffffffffffffffffffffffffffffffffff16610116565b6100e16102523660046112b8565b610874565b6100e1610265366004611121565b610915565b60015461020b9074010000000000000000000000000000000000000000900461ffff1681565b6102986109d1565b73ffffffffffffffffffffffffffffffffffffffff81166102e5576040517f4bc15f0400000000000000000000000000000000000000000000000000000000815260040160405180910390fd5b600180547fffffffffffffffffffffffff00000000000000000000000000000000000000001673ffffffffffffffffffffffffffffffffffffffff83169081179091556040517f2989b377844ae55f0ca303ad21490d8519f8cf871ad6b5ba3dbec736bb54c63f90600090a250565b61035c6109d1565b828114610395576040517fb3a5096900000000000000000000000000000000000000000000000000000000815260040160405180910390fd5b6000805b848110156104925760008686838181106103b5576103b56112e4565b90506020020160208101906103ca9190611121565b905073ffffffffffffffffffffffffffffffffffffffff8116610419576040517f3668db1500000000000000000000000000000000000000000000000000000000815260040160405180910390fd5b600085858481811061042d5761042d6112e4565b90506020020135905080600003610470576040517f325a011400000000000000000000000000000000000000000000000000000000815260040160405180910390fd5b61047c89338484610a52565b6104868185611342565b93505050600101610399565b5061049d3082610b34565b82826040516104ad929190611355565b604051809103902085856040516104c5929190611397565b60405190819003812060015490917401000000000000000000000000000000000000000090910461ffff16907fb51d0a90e6ca194c350b81f9965917278c2480d0f770c0d42f260fe623e65e1d90600090a4505050505050565b60006105296109d1565b600087600160149054906101000a900461ffff16600161054991906113e6565b6040516020016105af92919060609290921b7fffffffffffffffffffffffffffffffffffffffff00000000000000000000000016825260f01b7fffff00000000000000000000000000000000000000000000000000000000000016601482015260160190565b604080517fffffffffffffffffffffffffffffffffffffffffffffffffffffffffffffffe0818403018152919052805160209091012060015490915060009061060e9073ffffffffffffffffffffffffffffffffffffffff1683610c47565b6040517fc4d66de800000000000000000000000000000000000000000000000000000000815273ffffffffffffffffffffffffffffffffffffffff8b811660048301529192509082169063c4d66de890602401600060405180830381600087803b15801561067b57600080fd5b505af115801561068f573d6000803e3d6000fd5b50506040517f1ff64acd00000000000000000000000000000000000000000000000000000000815273ffffffffffffffffffffffffffffffffffffffff84169250631ff64acd91506106eb908b908b908b908b90600401611408565b600060405180830381600087803b15801561070557600080fd5b505af1158015610719573d6000803e3d6000fd5b50506040517ff2fde38b00000000000000000000000000000000000000000000000000000000815233600482015273ffffffffffffffffffffffffffffffffffffffff8416925063f2fde38b9150602401600060405180830381600087803b15801561078457600080fd5b505af1158015610798573d6000803e3d6000fd5b50505050836000146107b0576107b089338387610a52565b6107ba8185610b34565b85856040516107ca929190611355565b604051809103902088886040516107e2929190611397565b60405190819003812060015473ffffffffffffffffffffffffffffffffffffffff8516835290917401000000000000000000000000000000000000000090910461ffff16907f82b2b476561f8414387dc96d9ff0745099bbf7601d37cb74abec4d193a4ead6b9060200160405180910390a498975050505050505050565b6108686109d1565b6108726000610d11565b565b61087c6109d1565b806000036108b6576040517f325a011400000000000000000000000000000000000000000000000000000000815260040160405180910390fd5b6108c1823383610d86565b8173ffffffffffffffffffffffffffffffffffffffff167f4590b594be6fdef6bd5e18792a2494ddf2156b618c7bbe48d13a92831208af058260405161090991815260200190565b60405180910390a25050565b61091d6109d1565b73ffffffffffffffffffffffffffffffffffffffff81166109c5576040517f08c379a000000000000000000000000000000000000000000000000000000000815260206004820152602660248201527f4f776e61626c653a206e6577206f776e657220697320746865207a65726f206160448201527f646472657373000000000000000000000000000000000000000000000000000060648201526084015b60405180910390fd5b6109ce81610d11565b50565b60005473ffffffffffffffffffffffffffffffffffffffff163314610872576040517f08c379a000000000000000000000000000000000000000000000000000000000815260206004820181905260248201527f4f776e61626c653a2063616c6c6572206973206e6f7420746865206f776e657260448201526064016109bc565b60405173ffffffffffffffffffffffffffffffffffffffff80851660248301528316604482015260648101829052610b2e9085907f23b872dd00000000000000000000000000000000000000000000000000000000906084015b604080517fffffffffffffffffffffffffffffffffffffffffffffffffffffffffffffffe08184030181529190526020810180517bffffffffffffffffffffffffffffffffffffffffffffffffffffffff167fffffffff0000000000000000000000000000000000000000000000000000000090931692909217909152610de1565b50505050565b604080516060810190915273ffffffffffffffffffffffffffffffffffffffff831681526001805460009291602083019174010000000000000000000000000000000000000000900461ffff16906014610b8d836114ac565b82546101009290920a61ffff81810219909316918316021790915590811682526020918201949094526001805474010000000000000000000000000000000000000000908190048616600090815260028452604090819020855181549587015173ffffffffffffffffffffffffffffffffffffffff9091167fffffffffffffffffffff0000000000000000000000000000000000000000000090961695909517949097169091029290921785559101519201919091555050565b6000763d602d80600a3d3981f3363d3d373d3d3d363d730000008360601b60e81c176000526e5af43d82803e903d91602b57fd5bf38360781b1760205281603760096000f5905073ffffffffffffffffffffffffffffffffffffffff8116610d0b576040517f08c379a000000000000000000000000000000000000000000000000000000000815260206004820152601760248201527f455243313136373a2063726561746532206661696c656400000000000000000060448201526064016109bc565b92915050565b6000805473ffffffffffffffffffffffffffffffffffffffff8381167fffffffffffffffffffffffff0000000000000000000000000000000000000000831681178455604051919092169283917f8be0079c531659141344cd1fd0a4f28419497f9722a3daafe3b4186f6b6457e09190a35050565b60405173ffffffffffffffffffffffffffffffffffffffff8316602482015260448101829052610ddc9084907fa9059cbb0000000000000000000000000000000000000000000000000000000090606401610aac565b505050565b6000610e43826040518060400160405280602081526020017f5361666545524332303a206c6f772d6c6576656c2063616c6c206661696c65648152508573ffffffffffffffffffffffffffffffffffffffff16610ef09092919063ffffffff16565b9050805160001480610e64575080806020019051810190610e6491906114cd565b610ddc576040517f08c379a000000000000000000000000000000000000000000000000000000000815260206004820152602a60248201527f5361666545524332303a204552433230206f7065726174696f6e20646964206e60448201527f6f7420737563636565640000000000000000000000000000000000000000000060648201526084016109bc565b6060610eff8484600085610f07565b949350505050565b606082471015610f99576040517f08c379a000000000000000000000000000000000000000000000000000000000815260206004820152602660248201527f416464726573733a20696e73756666696369656e742062616c616e636520666f60448201527f722063616c6c000000000000000000000000000000000000000000000000000060648201526084016109bc565b6000808673ffffffffffffffffffffffffffffffffffffffff168587604051610fc29190611513565b60006040518083038185875af1925050503d8060008114610fff576040519150601f19603f3d011682016040523d82523d6000602084013e611004565b606091505b509150915061101587838387611020565b979650505050505050565b606083156110b65782516000036110af5773ffffffffffffffffffffffffffffffffffffffff85163b6110af576040517f08c379a000000000000000000000000000000000000000000000000000000000815260206004820152601d60248201527f416464726573733a2063616c6c20746f206e6f6e2d636f6e747261637400000060448201526064016109bc565b5081610eff565b610eff83838151156110cb5781518083602001fd5b806040517f08c379a00000000000000000000000000000000000000000000000000000000081526004016109bc919061152f565b73ffffffffffffffffffffffffffffffffffffffff811681146109ce57600080fd5b60006020828403121561113357600080fd5b813561113e816110ff565b9392505050565b60008083601f84011261115757600080fd5b50813567ffffffffffffffff81111561116f57600080fd5b6020830191508360208260051b850101111561118a57600080fd5b9250929050565b6000806000806000606086880312156111a957600080fd5b85356111b4816110ff565b9450602086013567ffffffffffffffff808211156111d157600080fd5b6111dd89838a01611145565b909650945060408801359150808211156111f657600080fd5b5061120388828901611145565b969995985093965092949392505050565b60006020828403121561122657600080fd5b5035919050565b6000806000806000806080878903121561124657600080fd5b8635611251816110ff565b9550602087013567ffffffffffffffff8082111561126e57600080fd5b61127a8a838b01611145565b9097509550604089013591508082111561129357600080fd5b506112a089828a01611145565b979a9699509497949695606090950135949350505050565b600080604083850312156112cb57600080fd5b82356112d6816110ff565b946020939093013593505050565b7f4e487b7100000000000000000000000000000000000000000000000000000000600052603260045260246000fd5b7f4e487b7100000000000000000000000000000000000000000000000000000000600052601160045260246000fd5b80820180821115610d0b57610d0b611313565b60007f07ffffffffffffffffffffffffffffffffffffffffffffffffffffffffffffff83111561138457600080fd5b8260051b80858437919091019392505050565b60008184825b858110156113db5781356113b0816110ff565b73ffffffffffffffffffffffffffffffffffffffff168352602092830192919091019060010161139d565b509095945050505050565b61ffff81811683821601908082111561140157611401611313565b5092915050565b6040808252810184905260008560608301825b8781101561145857823561142e816110ff565b73ffffffffffffffffffffffffffffffffffffffff1682526020928301929091019060010161141b565b5083810360208501528481527f07ffffffffffffffffffffffffffffffffffffffffffffffffffffffffffffff85111561149157600080fd5b8460051b915081866020830137016020019695505050505050565b600061ffff8083168181036114c3576114c3611313565b6001019392505050565b6000602082840312156114df57600080fd5b8151801515811461113e57600080fd5b60005b8381101561150a5781810151838201526020016114f2565b50506000910152565b600082516115258184602087016114ef565b9190910192915050565b602081526000825180602084015261154e8160408501602087016114ef565b601f017fffffffffffffffffffffffffffffffffffffffffffffffffffffffffffffffe016919091016040019291505056fea26469706673582212200be8f63a7b24754bc73597fd78c14ca539137f52fea06784c791b0de779cbc2f64736f6c63430008130033",
  "linkReferences": {},
  "deployedLinkReferences": {}
}