{
  "_format": "hh-sol-artifact-1",
  "contractName": "OpsManagerLib",
  "sourceName": "contracts/core/OpsManagerLib.sol",
  "abi": [
    {
      "inputs": [
        {
          "internalType": "contract Vault[]",
          "name": "vaults",
          "type": "Vault[]"
        },
        {
          "internalType": "contract TreasuryFarmingRevenue",
          "name": "farmingPool",
          "type": "TreasuryFarmingRevenue"
        }
      ],
      "name": "requiresRebalance",
      "outputs": [
        {
          "internalType": "bool[]",
          "name": "",
          "type": "bool[]"
        }
      ],
      "stateMutability": "view",
      "type": "function"
    }
  ],
  "bytecode": "0x613c6a61003a600b82828239805160001a60731461002d57634e487b7160e01b600052600060045260246000fd5b30600052607381538281f3fe7300000000000000000000000000000000000000003014608060405260043610620000845760003560e01c8063789654b9116200005f578063789654b91462000125578063c5f0b116146200014a578063fead81f0146200016f57600080fd5b806302fab49814620000895780630a1d273e14620000d85780631e2e006514620000ff575b600080fd5b8180156200009657600080fd5b50620000ae620000a836600462001044565b62000194565b60405173ffffffffffffffffffffffffffffffffffffffff90911681526020015b60405180910390f35b818015620000e557600080fd5b50620000fd620000f7366004620010da565b620002f1565b005b62000116620001103660046200116d565b6200042a565b604051620000cf91906200122c565b8180156200013257600080fd5b50620000fd6200014436600462001274565b620006b1565b8180156200015757600080fd5b50620000fd620001693660046200131f565b62000a3b565b8180156200017c57600080fd5b50620000fd6200018e366004620013f8565b62000dbd565b600080858585604051620001a89062000eec565b620001b693929190620014a5565b604051809103906000f080158015620001d3573d6000803e3d6000fd5b50905080604051620001e59062000efa565b73ffffffffffffffffffffffffffffffffffffffff9091168152602001604051809103906000f0801580156200021f573d6000803e3d6000fd5b5073ffffffffffffffffffffffffffffffffffffffff8581166000908152602086905260409081902080547fffffffffffffffffffffffff0000000000000000000000000000000000000000169383169384179055517fa746f93a00000000000000000000000000000000000000000000000000000000815260048101929092526001602483015282169063a746f93a90604401600060405180830381600087803b158015620002ce57600080fd5b505af1158015620002e3573d6000803e3d6000fd5b509298975050505050505050565b73ffffffffffffffffffffffffffffffffffffffff8084166000908152602086815260408083205481517febf7a41e00000000000000000000000000000000000000000000000000000000815291519394169263ebf7a41e926004808401939192918290030181865afa1580156200036d573d6000803e3d6000fd5b505050506040513d601f19601f82011682018060405250810190620003939190620014f5565b6040517fa746f93a00000000000000000000000000000000000000000000000000000000815273ffffffffffffffffffffffffffffffffffffffff858116600483015284151560248301529192509082169063a746f93a906044015b600060405180830381600087803b1580156200040a57600080fd5b505af11580156200041f573d6000803e3d6000fd5b505050505050505050565b60606000835167ffffffffffffffff8111156200044b576200044b62000f08565b60405190808252806020026020018201604052801562000475578160200160208202803683370190505b50905060005b8451811015620006a75760008582815181106200049c576200049c6200151c565b602002602001015173ffffffffffffffffffffffffffffffffffffffff16636b2f14176040518163ffffffff1660e01b81526004016040805180830381865afa158015620004ee573d6000803e3d6000fd5b505050506040513d601f19601f820116820180604052508101906200051491906200154b565b915050801562000525575062000692565b8582815181106200053a576200053a6200151c565b602002602001015173ffffffffffffffffffffffffffffffffffffffff1663981fc3726040518163ffffffff1660e01b8152600401602060405180830381865afa1580156200058d573d6000803e3d6000fd5b505050506040513d601f19601f82011682018060405250810190620005b3919062001573565b8573ffffffffffffffffffffffffffffffffffffffff1663ce7c2ac2888581518110620005e457620005e46200151c565b60200260200101516040518263ffffffff1660e01b815260040162000625919073ffffffffffffffffffffffffffffffffffffffff91909116815260200190565b602060405180830381865afa15801562000643573d6000803e3d6000fd5b505050506040513d601f19601f8201168201806040525081019062000669919062001573565b14158383815181106200068057620006806200151c565b91151560209283029190910190910152505b806200069e81620015bc565b9150506200047b565b5090505b92915050565b60008273ffffffffffffffffffffffffffffffffffffffff16636b2f14176040518163ffffffff1660e01b81526004016040805180830381865afa158015620006fe573d6000803e3d6000fd5b505050506040513d601f19601f820116820180604052508101906200072491906200154b565b9150508015620007e1576040517f08c379a000000000000000000000000000000000000000000000000000000000815260206004820152604960248201527f4661726d696e67526576656e75654d616e616765723a2043616e6e6f7420726560448201527f62616c616e6365207661756c747320696e20746865697220657869742f656e7460648201527f72792077696e646f770000000000000000000000000000000000000000000000608482015260a4015b60405180910390fd5b6040517fce7c2ac200000000000000000000000000000000000000000000000000000000815273ffffffffffffffffffffffffffffffffffffffff84811660048301526000919084169063ce7c2ac290602401602060405180830381865afa15801562000852573d6000803e3d6000fd5b505050506040513d601f19601f8201168201806040525081019062000878919062001573565b905060008473ffffffffffffffffffffffffffffffffffffffff1663981fc3726040518163ffffffff1660e01b8152600401602060405180830381865afa158015620008c8573d6000803e3d6000fd5b505050506040513d601f19601f82011682018060405250810190620008ee919062001573565b905081811115620009ad5773ffffffffffffffffffffffffffffffffffffffff84166386c011db86620009228585620015f7565b6040517fffffffff0000000000000000000000000000000000000000000000000000000060e085901b16815273ffffffffffffffffffffffffffffffffffffffff90921660048301526024820152604401600060405180830381600087803b1580156200098e57600080fd5b505af1158015620009a3573d6000803e3d6000fd5b5050505062000a34565b81811015620009df5773ffffffffffffffffffffffffffffffffffffffff84166387983d1386620009228486620015f7565b6040517fddeae03300000000000000000000000000000000000000000000000000000000815273ffffffffffffffffffffffffffffffffffffffff868116600483015285169063ddeae03390602401620003ef565b5050505050565b815183511462000ace576040517f08c379a000000000000000000000000000000000000000000000000000000000815260206004820152603960248201527f4578706f737572657320616e6420726576616c20616d6f756e7473206172726160448201527f79206d757374206265207468652073616d65206c656e677468000000000000006064820152608401620007d8565b60005b835181101562000db757600082600086848151811062000af55762000af56200151c565b602002602001015173ffffffffffffffffffffffffffffffffffffffff1673ffffffffffffffffffffffffffffffffffffffff16815260200190815260200160002060009054906101000a900473ffffffffffffffffffffffffffffffffffffffff1673ffffffffffffffffffffffffffffffffffffffff1663ebf7a41e6040518163ffffffff1660e01b8152600401602060405180830381865afa15801562000ba3573d6000803e3d6000fd5b505050506040513d601f19601f8201168201806040525081019062000bc99190620014f5565b905060008173ffffffffffffffffffffffffffffffffffffffff16633f3a0c5b6040518163ffffffff1660e01b8152600401602060405180830381865afa15801562000c19573d6000803e3d6000fd5b505050506040513d601f19601f8201168201806040525081019062000c3f919062001573565b905084838151811062000c565762000c566200151c565b602002602001015181111562000d05578173ffffffffffffffffffffffffffffffffffffffff1663064c97d686858151811062000c975762000c976200151c565b60200260200101518362000cac9190620015f7565b6040518263ffffffff1660e01b815260040162000ccb91815260200190565b600060405180830381600087803b15801562000ce657600080fd5b505af115801562000cfb573d6000803e3d6000fd5b5050505062000d9f565b8173ffffffffffffffffffffffffffffffffffffffff1663057ac8488287868151811062000d375762000d376200151c565b602002602001015162000d4b9190620015f7565b6040518263ffffffff1660e01b815260040162000d6a91815260200190565b600060405180830381600087803b15801562000d8557600080fd5b505af115801562000d9a573d6000803e3d6000fd5b505050505b5050808062000dae90620015bc565b91505062000ad1565b50505050565b73ffffffffffffffffffffffffffffffffffffffff8083166000908152602085815260408083205481517febf7a41e00000000000000000000000000000000000000000000000000000000815291519394169263ebf7a41e926004808401939192918290030181865afa15801562000e39573d6000803e3d6000fd5b505050506040513d601f19601f8201168201806040525081019062000e5f9190620014f5565b6040517fae85d64100000000000000000000000000000000000000000000000000000000815273ffffffffffffffffffffffffffffffffffffffff84811660048301529192509082169063ae85d64190602401600060405180830381600087803b15801562000ecd57600080fd5b505af115801562000ee2573d6000803e3d6000fd5b5050505050505050565b611bca806200160e83390190565b610a5d80620031d883390190565b7f4e487b7100000000000000000000000000000000000000000000000000000000600052604160045260246000fd5b604051601f82017fffffffffffffffffffffffffffffffffffffffffffffffffffffffffffffffe016810167ffffffffffffffff8111828210171562000f815762000f8162000f08565b604052919050565b600082601f83011262000f9b57600080fd5b813567ffffffffffffffff81111562000fb85762000fb862000f08565b62000feb60207fffffffffffffffffffffffffffffffffffffffffffffffffffffffffffffffe0601f8401160162000f37565b8181528460208386010111156200100157600080fd5b816020850160208301376000918101602001919091529392505050565b73ffffffffffffffffffffffffffffffffffffffff811681146200104157600080fd5b50565b600080600080608085870312156200105b57600080fd5b843567ffffffffffffffff808211156200107457600080fd5b620010828883890162000f89565b955060208701359150808211156200109957600080fd5b50620010a88782880162000f89565b9350506040850135620010bb816200101e565b9396929550929360600135925050565b80151581146200104157600080fd5b60008060008060808587031215620010f157600080fd5b84359350602085013562001105816200101e565b9250604085013562001117816200101e565b915060608501356200112981620010cb565b939692955090935050565b600067ffffffffffffffff82111562001151576200115162000f08565b5060051b60200190565b803562001168816200101e565b919050565b600080604083850312156200118157600080fd5b823567ffffffffffffffff8111156200119957600080fd5b8301601f81018513620011ab57600080fd5b80356020620011c4620011be8362001134565b62000f37565b82815260059290921b83018101918181019088841115620011e457600080fd5b938201935b838510156200120f578435620011ff816200101e565b82529382019390820190620011e9565b95506200122090508682016200115b565b93505050509250929050565b6020808252825182820181905260009190848201906040850190845b818110156200126857835115158352928401929184019160010162001248565b50909695505050505050565b600080604083850312156200128857600080fd5b823562001295816200101e565b91506020830135620012a7816200101e565b809150509250929050565b600082601f830112620012c457600080fd5b81356020620012d7620011be8362001134565b82815260059290921b84018101918181019086841115620012f757600080fd5b8286015b84811015620013145780358352918301918301620012fb565b509695505050505050565b6000806000606084860312156200133557600080fd5b833567ffffffffffffffff808211156200134e57600080fd5b818601915086601f8301126200136357600080fd5b8135602062001376620011be8362001134565b82815260059290921b8401810191818101908a8411156200139657600080fd5b948201945b83861015620013c1578535620013b1816200101e565b825294820194908201906200139b565b97505087013592505080821115620013d857600080fd5b50620013e786828701620012b2565b925050604084013590509250925092565b6000806000606084860312156200140e57600080fd5b83359250602084013562001422816200101e565b9150604084013562001434816200101e565b809150509250925092565b6000815180845260005b81811015620014675760208185018101518683018201520162001449565b5060006020828601015260207fffffffffffffffffffffffffffffffffffffffffffffffffffffffffffffffe0601f83011685010191505092915050565b606081526000620014ba60608301866200143f565b8281036020840152620014ce81866200143f565b91505073ffffffffffffffffffffffffffffffffffffffff83166040830152949350505050565b6000602082840312156200150857600080fd5b815162001515816200101e565b9392505050565b7f4e487b7100000000000000000000000000000000000000000000000000000000600052603260045260246000fd5b600080604083850312156200155f57600080fd5b825191506020830151620012a781620010cb565b6000602082840312156200158657600080fd5b5051919050565b7f4e487b7100000000000000000000000000000000000000000000000000000000600052601160045260246000fd5b60007fffffffffffffffffffffffffffffffffffffffffffffffffffffffffffffffff8203620015f057620015f06200158d565b5060010190565b81810381811115620006ab57620006ab6200158d56fe60806040523480156200001157600080fd5b5060405162001bca38038062001bca8339810160408190526200003491620001a0565b828262000041336200008b565b60046200004f8382620002bc565b5060056200005e8282620002bc565b5050600880546001600160a01b0319166001600160a01b0393909316929092179091555062000388915050565b600080546001600160a01b038381166001600160a01b0319831681178455604051919092169283917f8be0079c531659141344cd1fd0a4f28419497f9722a3daafe3b4186f6b6457e09190a35050565b634e487b7160e01b600052604160045260246000fd5b600082601f8301126200010357600080fd5b81516001600160401b0380821115620001205762000120620000db565b604051601f8301601f19908116603f011681019082821181831017156200014b576200014b620000db565b816040528381526020925086838588010111156200016857600080fd5b600091505b838210156200018c57858201830151818301840152908201906200016d565b600093810190920192909252949350505050565b600080600060608486031215620001b657600080fd5b83516001600160401b0380821115620001ce57600080fd5b620001dc87838801620000f1565b94506020860151915080821115620001f357600080fd5b506200020286828701620000f1565b604086015190935090506001600160a01b03811681146200022257600080fd5b809150509250925092565b600181811c908216806200024257607f821691505b6020821081036200026357634e487b7160e01b600052602260045260246000fd5b50919050565b601f821115620002b757600081815260208120601f850160051c81016020861015620002925750805b601f850160051c820191505b81811015620002b3578281556001016200029e565b5050505b505050565b81516001600160401b03811115620002d857620002d8620000db565b620002f081620002e984546200022d565b8462000269565b602080601f8311600181146200032857600084156200030f5750858301515b600019600386901b1c1916600185901b178555620002b3565b600085815260208120601f198616915b82811015620003595788860151825594840194600190910190840162000338565b5085821015620003785787850151600019600388901b60f8161c191681555b5050505050600190811b01905550565b61183280620003986000396000f3fe608060405234801561001057600080fd5b50600436106101da5760003560e01c8063715018a611610104578063a746f93a116100a2578063be040fb011610071578063be040fb014610420578063c2ba474414610428578063dd62ed3e1461044b578063f2fde38b1461049157600080fd5b8063a746f93a146103d4578063a9059cbb146103e7578063ae85d641146103fa578063b0ff11061461040d57600080fd5b80638da5cb5b116100de5780638da5cb5b1461038857806395d89b41146103a657806398275593146103ae578063a457c2d7146103c157600080fd5b8063715018a6146103435780637c5a227c1461034b578063873924e41461036857600080fd5b8063313ce5671161017c5780634046ebae1161014b5780634046ebae146102b857806340c10f19146102fd5780634473ad521461031057806370a082311461033057600080fd5b8063313ce5671461028457806339509351146102935780633a98ef39146102a65780633f3a0c5b146102af57600080fd5b8063095ea7b3116101b8578063095ea7b314610225578063174e4ea61461024857806318160ddd1461026957806323b872dd1461027157600080fd5b8063057ac848146101df578063064c97d6146101f457806306fdde0314610207575b600080fd5b6101f26101ed366004611539565b6104a4565b005b6101f2610202366004611539565b610506565b61020f610560565b60405161021c9190611552565b60405180910390f35b6102386102333660046115e0565b6105f2565b604051901515815260200161021c565b61025b610256366004611539565b61060c565b60405190815260200161021c565b61025b61063b565b61023861027f36600461160c565b61064d565b6040516012815260200161021c565b6102386102a13660046115e0565b610671565b61025b60065481565b61025b60095481565b600b546102d89073ffffffffffffffffffffffffffffffffffffffff1681565b60405173ffffffffffffffffffffffffffffffffffffffff909116815260200161021c565b6101f261030b3660046115e0565b6106bd565b61025b61031e36600461164d565b60076020526000908152604090205481565b61025b61033e36600461164d565b610760565b6101f261078f565b6103536107a3565b6040805192835260208301919091520161021c565b6008546102d89073ffffffffffffffffffffffffffffffffffffffff1681565b60005473ffffffffffffffffffffffffffffffffffffffff166102d8565b61020f6107c6565b6101f26103bc366004611671565b6107d5565b6102386103cf3660046115e0565b610900565b6101f26103e23660046116a1565b6109d1565b6102386103f53660046115e0565b610a60565b6101f261040836600461164d565b610a6e565b61025b61041b366004611539565b610aef565b6101f2610b0c565b61023861043636600461164d565b600a6020526000908152604090205460ff1681565b61025b6104593660046116d4565b73ffffffffffffffffffffffffffffffffffffffff918216600090815260026020908152604080832093909416825291909152205490565b6101f261049f36600461164d565b610b1e565b6104ac610bd5565b6009805490829060006104bf8385611731565b90915550506009546040805183815260208101929092527fa59e96b3c1d252b5b2fd20d08a77732f3af73142db0af5e50ced94b558c7fa0591015b60405180910390a15050565b61050e610bd5565b6009805490829060006105218385611744565b90915550506009546040805183815260208101929092527f307076957a8ce6e01b7d381f303646d1011fb16a9842dfa0859a9eddfd312e4291016104fa565b60606004805461056f90611757565b80601f016020809104026020016040519081016040528092919081815260200182805461059b90611757565b80156105e85780601f106105bd576101008083540402835291602001916105e8565b820191906000526020600020905b8154815290600101906020018083116105cb57829003601f168201915b5050505050905090565b600033610600818585610c56565b60019150505b92915050565b60008060006106196107a3565b90925090508061062983866117aa565b61063391906117c1565b949350505050565b600061064860065461060c565b905090565b60003361065b858285610e0a565b610666858585610ee1565b506001949350505050565b33600081815260026020908152604080832073ffffffffffffffffffffffffffffffffffffffff8716845290915281205490919061060090829086906106b8908790611731565b610c56565b336000908152600a602052604090205460ff1661073b576040517f08c379a000000000000000000000000000000000000000000000000000000000815260206004820152601f60248201527f4578706f737572653a2063616c6c6572206973206e6f742061207661756c740060448201526064015b60405180910390fd5b61074582826111a4565b80600960008282546107579190611731565b90915550505050565b73ffffffffffffffffffffffffffffffffffffffff81166000908152600760205260408120546106069061060c565b610797610bd5565b6107a160006112ca565b565b60095460065460008290036107b757600191505b806000036107c25750805b9091565b60606005805461056f90611757565b6107df338361133f565b81600960008282546107f19190611744565b9091555050600b5473ffffffffffffffffffffffffffffffffffffffff16156108a157600b546040517f4d4c23a80000000000000000000000000000000000000000000000000000000081526004810184905273ffffffffffffffffffffffffffffffffffffffff838116602483015290911690634d4c23a890604401600060405180830381600087803b15801561088857600080fd5b505af115801561089c573d6000803e3d6000fd5b505050505b6008546040805173ffffffffffffffffffffffffffffffffffffffff928316815233602082015291831690820152606081018390527fee02732fab40ece8284c756220846dff4b8d32058b86b35b4f0459bf172fcef0906080016104fa565b33600081815260026020908152604080832073ffffffffffffffffffffffffffffffffffffffff87168452909152812054909190838110156109c4576040517f08c379a000000000000000000000000000000000000000000000000000000000815260206004820152602560248201527f45524332303a2064656372656173656420616c6c6f77616e63652062656c6f7760448201527f207a65726f0000000000000000000000000000000000000000000000000000006064820152608401610732565b6106668286868403610c56565b6109d9610bd5565b73ffffffffffffffffffffffffffffffffffffffff82166000818152600a602090815260409182902080547fffffffffffffffffffffffffffffffffffffffffffffffffffffffffffffff00168515159081179091558251938452908301527f73d5b2f10126b99916a4c71d591a354f52ed52ca3b0278eaf584e35220addb7791016104fa565b600033610600818585610ee1565b610a76610bd5565b600b80547fffffffffffffffffffffffff00000000000000000000000000000000000000001673ffffffffffffffffffffffffffffffffffffffff83169081179091556040519081527f111c6aeb2006d748bdae2ddf082866e6ce7eb3d48ef324b5d9547570f5694e4f9060200160405180910390a150565b6000806000610afc6107a3565b90925090508161062982866117aa565b6107a1610b1833610760565b336107d5565b610b26610bd5565b73ffffffffffffffffffffffffffffffffffffffff8116610bc9576040517f08c379a000000000000000000000000000000000000000000000000000000000815260206004820152602660248201527f4f776e61626c653a206e6577206f776e657220697320746865207a65726f206160448201527f64647265737300000000000000000000000000000000000000000000000000006064820152608401610732565b610bd2816112ca565b50565b60005473ffffffffffffffffffffffffffffffffffffffff1633146107a1576040517f08c379a000000000000000000000000000000000000000000000000000000000815260206004820181905260248201527f4f776e61626c653a2063616c6c6572206973206e6f7420746865206f776e65726044820152606401610732565b73ffffffffffffffffffffffffffffffffffffffff8316610cf8576040517f08c379a0000000000000000000000000000000000000000000000000000000008152602060048201526024808201527f45524332303a20617070726f76652066726f6d20746865207a65726f2061646460448201527f72657373000000000000000000000000000000000000000000000000000000006064820152608401610732565b73ffffffffffffffffffffffffffffffffffffffff8216610d9b576040517f08c379a000000000000000000000000000000000000000000000000000000000815260206004820152602260248201527f45524332303a20617070726f766520746f20746865207a65726f20616464726560448201527f73730000000000000000000000000000000000000000000000000000000000006064820152608401610732565b73ffffffffffffffffffffffffffffffffffffffff83811660008181526002602090815260408083209487168084529482529182902085905590518481527f8c5be1e5ebec7d5bd14f71427d1e84f3dd0314c0f7b2291e5b200ac8c7c3b92591015b60405180910390a3505050565b73ffffffffffffffffffffffffffffffffffffffff8381166000908152600260209081526040808320938616835292905220547fffffffffffffffffffffffffffffffffffffffffffffffffffffffffffffffff8114610edb5781811015610ece576040517f08c379a000000000000000000000000000000000000000000000000000000000815260206004820152601d60248201527f45524332303a20696e73756666696369656e7420616c6c6f77616e63650000006044820152606401610732565b610edb8484848403610c56565b50505050565b73ffffffffffffffffffffffffffffffffffffffff8316610f84576040517f08c379a000000000000000000000000000000000000000000000000000000000815260206004820152602560248201527f45524332303a207472616e736665722066726f6d20746865207a65726f20616460448201527f64726573730000000000000000000000000000000000000000000000000000006064820152608401610732565b73ffffffffffffffffffffffffffffffffffffffff8216611027576040517f08c379a000000000000000000000000000000000000000000000000000000000815260206004820152602360248201527f45524332303a207472616e7366657220746f20746865207a65726f206164647260448201527f65737300000000000000000000000000000000000000000000000000000000006064820152608401610732565b73ffffffffffffffffffffffffffffffffffffffff83166000908152600760205260408120549061105783610aef565b9050808210156110e9576040517f08c379a000000000000000000000000000000000000000000000000000000000815260206004820152602660248201527f45524332303a207472616e7366657220616d6f756e742065786365656473206260448201527f616c616e636500000000000000000000000000000000000000000000000000006064820152608401610732565b73ffffffffffffffffffffffffffffffffffffffff808616600090815260076020526040808220805485900390559186168152908120805483929061112f908490611731565b925050819055508373ffffffffffffffffffffffffffffffffffffffff168573ffffffffffffffffffffffffffffffffffffffff167fddf252ad1be2c89b69c2b068fc378daa952ba7f163c4a11628f55a4df523b3ef8560405161119591815260200190565b60405180910390a35050505050565b73ffffffffffffffffffffffffffffffffffffffff8216611221576040517f08c379a000000000000000000000000000000000000000000000000000000000815260206004820152601f60248201527f45524332303a206d696e7420746f20746865207a65726f2061646472657373006044820152606401610732565b600061122c82610aef565b905080600660008282546112409190611731565b909155505073ffffffffffffffffffffffffffffffffffffffff83166000908152600760205260408120805483929061127a908490611731565b909155505060405182815273ffffffffffffffffffffffffffffffffffffffff8416906000907fddf252ad1be2c89b69c2b068fc378daa952ba7f163c4a11628f55a4df523b3ef90602001610dfd565b6000805473ffffffffffffffffffffffffffffffffffffffff8381167fffffffffffffffffffffffff0000000000000000000000000000000000000000831681178455604051919092169283917f8be0079c531659141344cd1fd0a4f28419497f9722a3daafe3b4186f6b6457e09190a35050565b73ffffffffffffffffffffffffffffffffffffffff82166113e2576040517f08c379a000000000000000000000000000000000000000000000000000000000815260206004820152602160248201527f45524332303a206275726e2066726f6d20746865207a65726f2061646472657360448201527f73000000000000000000000000000000000000000000000000000000000000006064820152608401610732565b73ffffffffffffffffffffffffffffffffffffffff82166000908152600760205260408120549061141283610aef565b9050808210156114a4576040517f08c379a000000000000000000000000000000000000000000000000000000000815260206004820152602260248201527f45524332303a206275726e20616d6f756e7420657863656564732062616c616e60448201527f63650000000000000000000000000000000000000000000000000000000000006064820152608401610732565b73ffffffffffffffffffffffffffffffffffffffff841660009081526007602052604081208284039055600680548392906114e0908490611744565b909155505060405183815260009073ffffffffffffffffffffffffffffffffffffffff8616907fddf252ad1be2c89b69c2b068fc378daa952ba7f163c4a11628f55a4df523b3ef9060200160405180910390a350505050565b60006020828403121561154b57600080fd5b5035919050565b600060208083528351808285015260005b8181101561157f57858101830151858201604001528201611563565b5060006040828601015260407fffffffffffffffffffffffffffffffffffffffffffffffffffffffffffffffe0601f8301168501019250505092915050565b73ffffffffffffffffffffffffffffffffffffffff81168114610bd257600080fd5b600080604083850312156115f357600080fd5b82356115fe816115be565b946020939093013593505050565b60008060006060848603121561162157600080fd5b833561162c816115be565b9250602084013561163c816115be565b929592945050506040919091013590565b60006020828403121561165f57600080fd5b813561166a816115be565b9392505050565b6000806040838503121561168457600080fd5b823591506020830135611696816115be565b809150509250929050565b600080604083850312156116b457600080fd5b82356116bf816115be565b91506020830135801515811461169657600080fd5b600080604083850312156116e757600080fd5b82356116f2816115be565b91506020830135611696816115be565b7f4e487b7100000000000000000000000000000000000000000000000000000000600052601160045260246000fd5b8082018082111561060657610606611702565b8181038181111561060657610606611702565b600181811c9082168061176b57607f821691505b6020821081036117a4577f4e487b7100000000000000000000000000000000000000000000000000000000600052602260045260246000fd5b50919050565b808202811582820484141761060657610606611702565b6000826117f7577f4e487b7100000000000000000000000000000000000000000000000000000000600052601260045260246000fd5b50049056fea264697066735822122023d50523323278d5d51dbe41fe9be37b11c00f4d77ff9097ffba9f3a850c9a6a64736f6c6343000813003360a060405234801561001057600080fd5b50604051610a5d380380610a5d83398101604081905261002f91610099565b61003833610049565b6001600160a01b03166080526100c9565b600080546001600160a01b038381166001600160a01b0319831681178455604051919092169283917f8be0079c531659141344cd1fd0a4f28419497f9722a3daafe3b4186f6b6457e09190a35050565b6000602082840312156100ab57600080fd5b81516001600160a01b03811681146100c257600080fd5b9392505050565b6080516109726100eb600039600081816101d8015261052a01526109726000f3fe608060405234801561001057600080fd5b50600436106100d45760003560e01c80638da5cb5b11610081578063de5e63301161005b578063de5e6330146101ca578063ebf7a41e146101d3578063f2fde38b146101fa57600080fd5b80638da5cb5b14610158578063ce7c2ac214610197578063ddeae033146101b757600080fd5b8063715018a6116100b2578063715018a61461012a57806386c011db1461013257806387983d131461014557600080fd5b806326603b95146100d95780633a98ef391461010c57806363ec512d14610115575b600080fd5b6100f96100e736600461082a565b60036020526000908152604090205481565b6040519081526020015b60405180910390f35b6100f960025481565b61012861012336600461084c565b61020d565b005b61012861028a565b610128610140366004610865565b61029e565b610128610153366004610865565b61039d565b60005473ffffffffffffffffffffffffffffffffffffffff165b60405173ffffffffffffffffffffffffffffffffffffffff9091168152602001610103565b6100f96101a536600461082a565b60016020526000908152604090205481565b6101286101c536600461082a565b610494565b6100f960045481565b6101727f000000000000000000000000000000000000000000000000000000000000000081565b61012861020836600461082a565b61064f565b61021561070b565b60025461022a670de0b6b3a7640000836108be565b61023491906108db565b600460008282546102459190610916565b90915550506004546040805183815260208101929092527f44c8e79be0ba50742684a585db3a9db56735a204cfa14b6d54fadc2b141ebd89910160405180910390a150565b61029261070b565b61029c600061078c565b565b6102a661070b565b6102af82610494565b73ffffffffffffffffffffffffffffffffffffffff8216600090815260016020526040812080548392906102e4908490610916565b9250508190555080600260008282546102fd9190610916565b909155505060045461030f90826108be565b73ffffffffffffffffffffffffffffffffffffffff831660009081526003602052604081208054909190610344908490610916565b90915550506040805173ffffffffffffffffffffffffffffffffffffffff84168152602081018390527f50de8324aee226699209f9c49e31220e9e7e4f7a3d2d76060d913995cd11148e91015b60405180910390a15050565b6103a561070b565b6103ae82610494565b73ffffffffffffffffffffffffffffffffffffffff8216600090815260016020526040812080548392906103e3908490610929565b9250508190555080600260008282546103fc9190610929565b909155505060045461040e90826108be565b73ffffffffffffffffffffffffffffffffffffffff831660009081526003602052604081208054909190610443908490610929565b90915550506040805173ffffffffffffffffffffffffffffffffffffffff84168152602081018390527f7f057847ef731c18392c410072b87537e1ebd5fc3ca97d90d44e23f10010e2919101610391565b60045473ffffffffffffffffffffffffffffffffffffffff821660009081526001602052604081205490916104c8916108be565b73ffffffffffffffffffffffffffffffffffffffff8316600090815260036020526040812054919250906104fc9083610929565b73ffffffffffffffffffffffffffffffffffffffff80851660009081526003602052604090208490559091507f0000000000000000000000000000000000000000000000000000000000000000166340c10f1984610562670de0b6b3a7640000856108db565b6040517fffffffff0000000000000000000000000000000000000000000000000000000060e085901b16815273ffffffffffffffffffffffffffffffffffffffff90921660048301526024820152604401600060405180830381600087803b1580156105cd57600080fd5b505af11580156105e1573d6000803e3d6000fd5b505050507fc15f451120b13b6b40c6ad6203614ab3088308bef9150c0d6f46ea79bf46422483670de0b6b3a76400008361061b91906108db565b6040805173ffffffffffffffffffffffffffffffffffffffff909316835260208301919091520160405180910390a1505050565b61065761070b565b73ffffffffffffffffffffffffffffffffffffffff81166106ff576040517f08c379a000000000000000000000000000000000000000000000000000000000815260206004820152602660248201527f4f776e61626c653a206e6577206f776e657220697320746865207a65726f206160448201527f646472657373000000000000000000000000000000000000000000000000000060648201526084015b60405180910390fd5b6107088161078c565b50565b60005473ffffffffffffffffffffffffffffffffffffffff16331461029c576040517f08c379a000000000000000000000000000000000000000000000000000000000815260206004820181905260248201527f4f776e61626c653a2063616c6c6572206973206e6f7420746865206f776e657260448201526064016106f6565b6000805473ffffffffffffffffffffffffffffffffffffffff8381167fffffffffffffffffffffffff0000000000000000000000000000000000000000831681178455604051919092169283917f8be0079c531659141344cd1fd0a4f28419497f9722a3daafe3b4186f6b6457e09190a35050565b803573ffffffffffffffffffffffffffffffffffffffff8116811461082557600080fd5b919050565b60006020828403121561083c57600080fd5b61084582610801565b9392505050565b60006020828403121561085e57600080fd5b5035919050565b6000806040838503121561087857600080fd5b61088183610801565b946020939093013593505050565b7f4e487b7100000000000000000000000000000000000000000000000000000000600052601160045260246000fd5b80820281158282048414176108d5576108d561088f565b92915050565b600082610911577f4e487b7100000000000000000000000000000000000000000000000000000000600052601260045260246000fd5b500490565b808201808211156108d5576108d561088f565b818103818111156108d5576108d561088f56fea264697066735822122082ef6a9750978f29dd4b1407381b94710f57d0208bca6046e88541cf4adcf35664736f6c63430008130033a2646970667358221220cd3a82c19e50d87f498e952e6b804fe678f38a5e62a5e0bc46ad3b3bebba279f64736f6c63430008130033",
  "linkReferences": {},
  "deployedLinkReferences": {}
}