{
  "_format": "hh-sol-artifact-1",
  "contractName": "LockedOGTemple",
  "sourceName": "contracts/deprecated/LockedOGTemple.sol",
  "abi": [
    {
      "inputs": [
        {
          "internalType": "contract OGTemple",
          "name": "_OG_TEMPLE",
          "type": "address"
        }
      ],
      "stateMutability": "nonpayable",
      "type": "constructor"
    },
    {
      "anonymous": false,
      "inputs": [
        {
          "indexed": false,
          "internalType": "address",
          "name": "_staker",
          "type": "address"
        },
        {
          "indexed": false,
          "internalType": "uint256",
          "name": "_amount",
          "type": "uint256"
        },
        {
          "indexed": false,
          "internalType": "uint256",
          "name": "_lockedUntil",
          "type": "uint256"
        }
      ],
      "name": "OGTempleLocked",
      "type": "event"
    },
    {
      "anonymous": false,
      "inputs": [
        {
          "indexed": false,
          "internalType": "address",
          "name": "_staker",
          "type": "address"
        },
        {
          "indexed": false,
          "internalType": "uint256",
          "name": "_amount",
          "type": "uint256"
        }
      ],
      "name": "OGTempleWithdraw",
      "type": "event"
    },
    {
      "inputs": [],
      "name": "OG_TEMPLE",
      "outputs": [
        {
          "internalType": "contract OGTemple",
          "name": "",
          "type": "address"
        }
      ],
      "stateMutability": "view",
      "type": "function"
    },
    {
      "inputs": [
        {
          "internalType": "uint256",
          "name": "_amountOGTemple",
          "type": "uint256"
        },
        {
          "internalType": "uint256",
          "name": "_lockedUntilTimestamp",
          "type": "uint256"
        }
      ],
      "name": "lock",
      "outputs": [],
      "stateMutability": "nonpayable",
      "type": "function"
    },
    {
      "inputs": [
        {
          "internalType": "address",
          "name": "_staker",
          "type": "address"
        },
        {
          "internalType": "uint256",
          "name": "_amountOGTemple",
          "type": "uint256"
        },
        {
          "internalType": "uint256",
          "name": "_lockedUntilTimestamp",
          "type": "uint256"
        }
      ],
      "name": "lockFor",
      "outputs": [],
      "stateMutability": "nonpayable",
      "type": "function"
    },
    {
      "inputs": [
        {
          "internalType": "address",
          "name": "",
          "type": "address"
        },
        {
          "internalType": "uint256",
          "name": "",
          "type": "uint256"
        }
      ],
      "name": "locked",
      "outputs": [
        {
          "internalType": "uint256",
          "name": "BalanceOGTemple",
          "type": "uint256"
        },
        {
          "internalType": "uint256",
          "name": "LockedUntilTimestamp",
          "type": "uint256"
        }
      ],
      "stateMutability": "view",
      "type": "function"
    },
    {
      "inputs": [
        {
          "internalType": "address",
          "name": "_staker",
          "type": "address"
        }
      ],
      "name": "numLocks",
      "outputs": [
        {
          "internalType": "uint256",
          "name": "",
          "type": "uint256"
        }
      ],
      "stateMutability": "view",
      "type": "function"
    },
    {
      "inputs": [
        {
          "internalType": "uint256",
          "name": "_idx",
          "type": "uint256"
        }
      ],
      "name": "withdraw",
      "outputs": [],
      "stateMutability": "nonpayable",
      "type": "function"
    },
    {
      "inputs": [
        {
          "internalType": "address",
          "name": "_staker",
          "type": "address"
        },
        {
          "internalType": "uint256",
          "name": "_idx",
          "type": "uint256"
        }
      ],
      "name": "withdrawFor",
      "outputs": [],
      "stateMutability": "nonpayable",
      "type": "function"
    }
  ],
  "bytecode": "0x608060405234801561001057600080fd5b50604051610cae380380610cae83398101604081905261002f91610054565b600180546001600160a01b0319166001600160a01b0392909216919091179055610084565b60006020828403121561006657600080fd5b81516001600160a01b038116811461007d57600080fd5b9392505050565b610c1b806100936000396000f3fe608060405234801561001057600080fd5b506004361061007d5760003560e01c80638f1284aa1161005b5780638f1284aa146100bd578063b9ef083014610107578063bf7bab731461014b578063db518db21461017357600080fd5b80631338736f146100825780632e1a7d4d1461009757806383e25f8a146100aa575b600080fd5b6100956100903660046109b1565b610186565b005b6100956100a53660046109d3565b610195565b6100956100b8366004610a15565b6101a2565b6001546100dd9073ffffffffffffffffffffffffffffffffffffffff1681565b60405173ffffffffffffffffffffffffffffffffffffffff90911681526020015b60405180910390f35b61013d610115366004610a48565b73ffffffffffffffffffffffffffffffffffffffff1660009081526020819052604090205490565b6040519081526020016100fe565b61015e610159366004610a6a565b61026c565b604080519283526020830191909152016100fe565b610095610181366004610a6a565b6102a8565b6101913383836101a2565b5050565b61019f33826102a8565b50565b604080518082018252838152602080820184815273ffffffffffffffffffffffffffffffffffffffff80881660009081528084529485208054600181810183559187529390952084516002909402019283559051918401919091559154909161020e9116333086610556565b6040805173ffffffffffffffffffffffffffffffffffffffff86168152602081018590529081018390527faeba50e43ba4efe965d916ca4acb966022f5da3097e03c782578df36df61c59d906060015b60405180910390a150505050565b6000602052816000526040600020818154811061028857600080fd5b600091825260209091206002909102018054600190910154909250905082565b73ffffffffffffffffffffffffffffffffffffffff8216600090815260208190526040902080548210610361576040517f08c379a0000000000000000000000000000000000000000000000000000000008152602060048201526024808201527f4e6f206c6f636b20656e7472792061742074686520737065636966696564206960448201527f6e6465780000000000000000000000000000000000000000000000000000000060648201526084015b60405180910390fd5b4281838154811061037457610374610a94565b906000526020600020906002020160010154106103ed576040517f08c379a000000000000000000000000000000000000000000000000000000000815260206004820152601f60248201527f53706563696669656420656e747279206973207374696c6c206c6f636b6564006044820152606401610358565b600081838154811061040157610401610a94565b906000526020600020906002020160405180604001604052908160008201548152602001600182015481525050905081600183805490506104429190610ac3565b8154811061045257610452610a94565b906000526020600020906002020182848154811061047257610472610a94565b60009182526020909120825460029092020190815560019182015491015581548290806104a1576104a1610b03565b60008281526020812060027fffffffffffffffffffffffffffffffffffffffffffffffffffffffffffffffff9093019283020181815560019081019190915591555481516105079173ffffffffffffffffffffffffffffffffffffffff16908690610638565b80516040805173ffffffffffffffffffffffffffffffffffffffff8716815260208101929092527f0c2301a118e6f0843fbd110920bbe9b409fc9330867e8b9c4f4637a7633ada83910161025e565b60405173ffffffffffffffffffffffffffffffffffffffff808516602483015283166044820152606481018290526106329085907f23b872dd00000000000000000000000000000000000000000000000000000000906084015b604080517fffffffffffffffffffffffffffffffffffffffffffffffffffffffffffffffe08184030181529190526020810180517bffffffffffffffffffffffffffffffffffffffffffffffffffffffff167fffffffff0000000000000000000000000000000000000000000000000000000090931692909217909152610693565b50505050565b60405173ffffffffffffffffffffffffffffffffffffffff831660248201526044810182905261068e9084907fa9059cbb00000000000000000000000000000000000000000000000000000000906064016105b0565b505050565b60006106f5826040518060400160405280602081526020017f5361666545524332303a206c6f772d6c6576656c2063616c6c206661696c65648152508573ffffffffffffffffffffffffffffffffffffffff166107a29092919063ffffffff16565b90508051600014806107165750808060200190518101906107169190610b32565b61068e576040517f08c379a000000000000000000000000000000000000000000000000000000000815260206004820152602a60248201527f5361666545524332303a204552433230206f7065726174696f6e20646964206e60448201527f6f742073756363656564000000000000000000000000000000000000000000006064820152608401610358565b60606107b184846000856107b9565b949350505050565b60608247101561084b576040517f08c379a000000000000000000000000000000000000000000000000000000000815260206004820152602660248201527f416464726573733a20696e73756666696369656e742062616c616e636520666f60448201527f722063616c6c00000000000000000000000000000000000000000000000000006064820152608401610358565b6000808673ffffffffffffffffffffffffffffffffffffffff1685876040516108749190610b78565b60006040518083038185875af1925050503d80600081146108b1576040519150601f19603f3d011682016040523d82523d6000602084013e6108b6565b606091505b50915091506108c7878383876108d2565b979650505050505050565b606083156109685782516000036109615773ffffffffffffffffffffffffffffffffffffffff85163b610961576040517f08c379a000000000000000000000000000000000000000000000000000000000815260206004820152601d60248201527f416464726573733a2063616c6c20746f206e6f6e2d636f6e74726163740000006044820152606401610358565b50816107b1565b6107b1838381511561097d5781518083602001fd5b806040517f08c379a00000000000000000000000000000000000000000000000000000000081526004016103589190610b94565b600080604083850312156109c457600080fd5b50508035926020909101359150565b6000602082840312156109e557600080fd5b5035919050565b803573ffffffffffffffffffffffffffffffffffffffff81168114610a1057600080fd5b919050565b600080600060608486031215610a2a57600080fd5b610a33846109ec565b95602085013595506040909401359392505050565b600060208284031215610a5a57600080fd5b610a63826109ec565b9392505050565b60008060408385031215610a7d57600080fd5b610a86836109ec565b946020939093013593505050565b7f4e487b7100000000000000000000000000000000000000000000000000000000600052603260045260246000fd5b81810381811115610afd577f4e487b7100000000000000000000000000000000000000000000000000000000600052601160045260246000fd5b92915050565b7f4e487b7100000000000000000000000000000000000000000000000000000000600052603160045260246000fd5b600060208284031215610b4457600080fd5b81518015158114610a6357600080fd5b60005b83811015610b6f578181015183820152602001610b57565b50506000910152565b60008251610b8a818460208701610b54565b9190910192915050565b6020815260008251806020840152610bb3816040850160208701610b54565b601f017fffffffffffffffffffffffffffffffffffffffffffffffffffffffffffffffe016919091016040019291505056fea26469706673582212203bd39220fdb40f8b0c520fd34800ed2ce70238aeedb477076ee28628f6000e2264736f6c63430008130033",
  "linkReferences": {},
  "deployedLinkReferences": {}
}