{
  "_format": "hh-sol-artifact-1",
  "contractName": "VaultedTemple",
  "sourceName": "contracts/core/VaultedTemple.sol",
  "abi": [
    {
      "inputs": [
        {
          "internalType": "contract IERC20",
          "name": "_templeToken",
          "type": "address"
        },
        {
          "internalType": "address",
          "name": "_templeExposure",
          "type": "address"
        }
      ],
      "stateMutability": "nonpayable",
      "type": "constructor"
    },
    {
      "anonymous": false,
      "inputs": [
        {
          "indexed": true,
          "internalType": "address",
          "name": "previousOwner",
          "type": "address"
        },
        {
          "indexed": true,
          "internalType": "address",
          "name": "newOwner",
          "type": "address"
        }
      ],
      "name": "OwnershipTransferred",
      "type": "event"
    },
    {
      "inputs": [],
      "name": "owner",
      "outputs": [
        {
          "internalType": "address",
          "name": "",
          "type": "address"
        }
      ],
      "stateMutability": "view",
      "type": "function"
    },
    {
      "inputs": [],
      "name": "renounceOwnership",
      "outputs": [],
      "stateMutability": "nonpayable",
      "type": "function"
    },
    {
      "inputs": [],
      "name": "templeExposure",
      "outputs": [
        {
          "internalType": "address",
          "name": "",
          "type": "address"
        }
      ],
      "stateMutability": "view",
      "type": "function"
    },
    {
      "inputs": [],
      "name": "templeToken",
      "outputs": [
        {
          "internalType": "contract IERC20",
          "name": "",
          "type": "address"
        }
      ],
      "stateMutability": "view",
      "type": "function"
    },
    {
      "inputs": [
        {
          "internalType": "uint256",
          "name": "amount",
          "type": "uint256"
        },
        {
          "internalType": "address",
          "name": "toAccount",
          "type": "address"
        }
      ],
      "name": "toTemple",
      "outputs": [],
      "stateMutability": "nonpayable",
      "type": "function"
    },
    {
      "inputs": [
        {
          "internalType": "address",
          "name": "newOwner",
          "type": "address"
        }
      ],
      "name": "transferOwnership",
      "outputs": [],
      "stateMutability": "nonpayable",
      "type": "function"
    },
    {
      "inputs": [
        {
          "internalType": "address",
          "name": "token",
          "type": "address"
        },
        {
          "internalType": "address",
          "name": "to",
          "type": "address"
        },
        {
          "internalType": "uint256",
          "name": "amount",
          "type": "uint256"
        }
      ],
      "name": "withdraw",
      "outputs": [],
      "stateMutability": "nonpayable",
      "type": "function"
    }
  ],
  "bytecode": "0x60c060405234801561001057600080fd5b50604051610c24380380610c2483398101604081905261002f916100b7565b6100383361004f565b6001600160a01b039182166080521660a0526100f1565b600080546001600160a01b038381166001600160a01b0319831681178455604051919092169283917f8be0079c531659141344cd1fd0a4f28419497f9722a3daafe3b4186f6b6457e09190a35050565b6001600160a01b03811681146100b457600080fd5b50565b600080604083850312156100ca57600080fd5b82516100d58161009f565b60208401519092506100e68161009f565b809150509250929050565b60805160a051610b016101236000396000818160a40152610172015260008181610112015261024f0152610b016000f3fe608060405234801561001057600080fd5b506004361061007d5760003560e01c80638da5cb5b1161005b5780638da5cb5b146100ef578063b1a9069c1461010d578063d9caed1214610134578063f2fde38b1461014757600080fd5b80634d4c23a814610082578063715018a6146100975780638bc1437b1461009f575b600080fd5b61009561009036600461098e565b61015a565b005b610095610279565b6100c67f000000000000000000000000000000000000000000000000000000000000000081565b60405173ffffffffffffffffffffffffffffffffffffffff909116815260200160405180910390f35b60005473ffffffffffffffffffffffffffffffffffffffff166100c6565b6100c67f000000000000000000000000000000000000000000000000000000000000000081565b6100956101423660046109ba565b61028d565b6100956101553660046109f6565b61040d565b3373ffffffffffffffffffffffffffffffffffffffff7f0000000000000000000000000000000000000000000000000000000000000000161461024a576040517f08c379a000000000000000000000000000000000000000000000000000000000815260206004820152604860248201527f5661756c74656454656d706c653a204f6e6c792054656d70654578706f73757260448201527f652063616e2072656465656d2074656d706c65206f6e20626568616c66206f6660648201527f2061207661756c74000000000000000000000000000000000000000000000000608482015260a4015b60405180910390fd5b6102757f000000000000000000000000000000000000000000000000000000000000000082846104c4565b5050565b610281610551565b61028b60006105d2565b565b610295610551565b73ffffffffffffffffffffffffffffffffffffffff8216610312576040517f08c379a000000000000000000000000000000000000000000000000000000000815260206004820152600f60248201527f746f2061646472657373207a65726f00000000000000000000000000000000006044820152606401610241565b73ffffffffffffffffffffffffffffffffffffffff83166103fd5760008273ffffffffffffffffffffffffffffffffffffffff168260405160006040518083038185875af1925050503d8060008114610387576040519150601f19603f3d011682016040523d82523d6000602084013e61038c565b606091505b50509050806103f7576040517f08c379a000000000000000000000000000000000000000000000000000000000815260206004820152600b60248201527f73656e64206661696c65640000000000000000000000000000000000000000006044820152606401610241565b50505050565b6104088383836104c4565b505050565b610415610551565b73ffffffffffffffffffffffffffffffffffffffff81166104b8576040517f08c379a000000000000000000000000000000000000000000000000000000000815260206004820152602660248201527f4f776e61626c653a206e6577206f776e657220697320746865207a65726f206160448201527f64647265737300000000000000000000000000000000000000000000000000006064820152608401610241565b6104c1816105d2565b50565b6040805173ffffffffffffffffffffffffffffffffffffffff8416602482015260448082018490528251808303909101815260649091019091526020810180517bffffffffffffffffffffffffffffffffffffffffffffffffffffffff167fa9059cbb00000000000000000000000000000000000000000000000000000000179052610408908490610647565b60005473ffffffffffffffffffffffffffffffffffffffff16331461028b576040517f08c379a000000000000000000000000000000000000000000000000000000000815260206004820181905260248201527f4f776e61626c653a2063616c6c6572206973206e6f7420746865206f776e65726044820152606401610241565b6000805473ffffffffffffffffffffffffffffffffffffffff8381167fffffffffffffffffffffffff0000000000000000000000000000000000000000831681178455604051919092169283917f8be0079c531659141344cd1fd0a4f28419497f9722a3daafe3b4186f6b6457e09190a35050565b60006106a9826040518060400160405280602081526020017f5361666545524332303a206c6f772d6c6576656c2063616c6c206661696c65648152508573ffffffffffffffffffffffffffffffffffffffff166107569092919063ffffffff16565b90508051600014806106ca5750808060200190518101906106ca9190610a18565b610408576040517f08c379a000000000000000000000000000000000000000000000000000000000815260206004820152602a60248201527f5361666545524332303a204552433230206f7065726174696f6e20646964206e60448201527f6f742073756363656564000000000000000000000000000000000000000000006064820152608401610241565b6060610765848460008561076d565b949350505050565b6060824710156107ff576040517f08c379a000000000000000000000000000000000000000000000000000000000815260206004820152602660248201527f416464726573733a20696e73756666696369656e742062616c616e636520666f60448201527f722063616c6c00000000000000000000000000000000000000000000000000006064820152608401610241565b6000808673ffffffffffffffffffffffffffffffffffffffff1685876040516108289190610a5e565b60006040518083038185875af1925050503d8060008114610865576040519150601f19603f3d011682016040523d82523d6000602084013e61086a565b606091505b509150915061087b87838387610886565b979650505050505050565b6060831561091c5782516000036109155773ffffffffffffffffffffffffffffffffffffffff85163b610915576040517f08c379a000000000000000000000000000000000000000000000000000000000815260206004820152601d60248201527f416464726573733a2063616c6c20746f206e6f6e2d636f6e74726163740000006044820152606401610241565b5081610765565b61076583838151156109315781518083602001fd5b806040517f08c379a00000000000000000000000000000000000000000000000000000000081526004016102419190610a7a565b803573ffffffffffffffffffffffffffffffffffffffff8116811461098957600080fd5b919050565b600080604083850312156109a157600080fd5b823591506109b160208401610965565b90509250929050565b6000806000606084860312156109cf57600080fd5b6109d884610965565b92506109e660208501610965565b9150604084013590509250925092565b600060208284031215610a0857600080fd5b610a1182610965565b9392505050565b600060208284031215610a2a57600080fd5b81518015158114610a1157600080fd5b60005b83811015610a55578181015183820152602001610a3d565b50506000910152565b60008251610a70818460208701610a3a565b9190910192915050565b6020815260008251806020840152610a99816040850160208701610a3a565b601f017fffffffffffffffffffffffffffffffffffffffffffffffffffffffffffffffe016919091016040019291505056fea2646970667358221220b06e848b9e2080bdb3d2b184aef6034154a8503d1dc3c18c25a9840294992ab464736f6c63430008130033",
  "linkReferences": {},
  "deployedLinkReferences": {}
}