{
  "_format": "hh-sol-artifact-1",
  "contractName": "TempleUniswapV2Pair",
  "sourceName": "contracts/amm/TempleUniswapV2Pair.sol",
  "abi": [
    {
      "inputs": [
        {
          "internalType": "address",
          "name": "_owner",
          "type": "address"
        },
        {
          "internalType": "address",
          "name": "_token0",
          "type": "address"
        },
        {
          "internalType": "address",
          "name": "_token1",
          "type": "address"
        }
      ],
      "payable": false,
      "stateMutability": "nonpayable",
      "type": "constructor"
    },
    {
      "anonymous": false,
      "inputs": [
        {
          "indexed": true,
          "internalType": "address",
          "name": "owner",
          "type": "address"
        },
        {
          "indexed": true,
          "internalType": "address",
          "name": "spender",
          "type": "address"
        },
        {
          "indexed": false,
          "internalType": "uint256",
          "name": "value",
          "type": "uint256"
        }
      ],
      "name": "Approval",
      "type": "event"
    },
    {
      "anonymous": false,
      "inputs": [
        {
          "indexed": true,
          "internalType": "address",
          "name": "sender",
          "type": "address"
        },
        {
          "indexed": false,
          "internalType": "uint256",
          "name": "amount0",
          "type": "uint256"
        },
        {
          "indexed": false,
          "internalType": "uint256",
          "name": "amount1",
          "type": "uint256"
        },
        {
          "indexed": true,
          "internalType": "address",
          "name": "to",
          "type": "address"
        }
      ],
      "name": "Burn",
      "type": "event"
    },
    {
      "anonymous": false,
      "inputs": [
        {
          "indexed": true,
          "internalType": "address",
          "name": "sender",
          "type": "address"
        },
        {
          "indexed": false,
          "internalType": "uint256",
          "name": "amount0",
          "type": "uint256"
        },
        {
          "indexed": false,
          "internalType": "uint256",
          "name": "amount1",
          "type": "uint256"
        }
      ],
      "name": "Mint",
      "type": "event"
    },
    {
      "anonymous": false,
      "inputs": [
        {
          "indexed": true,
          "internalType": "address",
          "name": "sender",
          "type": "address"
        },
        {
          "indexed": false,
          "internalType": "uint256",
          "name": "amount0In",
          "type": "uint256"
        },
        {
          "indexed": false,
          "internalType": "uint256",
          "name": "amount1In",
          "type": "uint256"
        },
        {
          "indexed": false,
          "internalType": "uint256",
          "name": "amount0Out",
          "type": "uint256"
        },
        {
          "indexed": false,
          "internalType": "uint256",
          "name": "amount1Out",
          "type": "uint256"
        },
        {
          "indexed": true,
          "internalType": "address",
          "name": "to",
          "type": "address"
        }
      ],
      "name": "Swap",
      "type": "event"
    },
    {
      "anonymous": false,
      "inputs": [
        {
          "indexed": false,
          "internalType": "uint112",
          "name": "reserve0",
          "type": "uint112"
        },
        {
          "indexed": false,
          "internalType": "uint112",
          "name": "reserve1",
          "type": "uint112"
        }
      ],
      "name": "Sync",
      "type": "event"
    },
    {
      "anonymous": false,
      "inputs": [
        {
          "indexed": true,
          "internalType": "address",
          "name": "from",
          "type": "address"
        },
        {
          "indexed": true,
          "internalType": "address",
          "name": "to",
          "type": "address"
        },
        {
          "indexed": false,
          "internalType": "uint256",
          "name": "value",
          "type": "uint256"
        }
      ],
      "name": "Transfer",
      "type": "event"
    },
    {
      "constant": true,
      "inputs": [],
      "name": "DOMAIN_SEPARATOR",
      "outputs": [
        {
          "internalType": "bytes32",
          "name": "",
          "type": "bytes32"
        }
      ],
      "payable": false,
      "stateMutability": "view",
      "type": "function"
    },
    {
      "constant": true,
      "inputs": [],
      "name": "MINIMUM_LIQUIDITY",
      "outputs": [
        {
          "internalType": "uint256",
          "name": "",
          "type": "uint256"
        }
      ],
      "payable": false,
      "stateMutability": "view",
      "type": "function"
    },
    {
      "constant": true,
      "inputs": [],
      "name": "PERMIT_TYPEHASH",
      "outputs": [
        {
          "internalType": "bytes32",
          "name": "",
          "type": "bytes32"
        }
      ],
      "payable": false,
      "stateMutability": "view",
      "type": "function"
    },
    {
      "constant": true,
      "inputs": [
        {
          "internalType": "address",
          "name": "",
          "type": "address"
        },
        {
          "internalType": "address",
          "name": "",
          "type": "address"
        }
      ],
      "name": "allowance",
      "outputs": [
        {
          "internalType": "uint256",
          "name": "",
          "type": "uint256"
        }
      ],
      "payable": false,
      "stateMutability": "view",
      "type": "function"
    },
    {
      "constant": false,
      "inputs": [
        {
          "internalType": "address",
          "name": "spender",
          "type": "address"
        },
        {
          "internalType": "uint256",
          "name": "value",
          "type": "uint256"
        }
      ],
      "name": "approve",
      "outputs": [
        {
          "internalType": "bool",
          "name": "",
          "type": "bool"
        }
      ],
      "payable": false,
      "stateMutability": "nonpayable",
      "type": "function"
    },
    {
      "constant": true,
      "inputs": [
        {
          "internalType": "address",
          "name": "",
          "type": "address"
        }
      ],
      "name": "balanceOf",
      "outputs": [
        {
          "internalType": "uint256",
          "name": "",
          "type": "uint256"
        }
      ],
      "payable": false,
      "stateMutability": "view",
      "type": "function"
    },
    {
      "constant": false,
      "inputs": [
        {
          "internalType": "address",
          "name": "to",
          "type": "address"
        }
      ],
      "name": "burn",
      "outputs": [
        {
          "internalType": "uint256",
          "name": "amount0",
          "type": "uint256"
        },
        {
          "internalType": "uint256",
          "name": "amount1",
          "type": "uint256"
        }
      ],
      "payable": false,
      "stateMutability": "nonpayable",
      "type": "function"
    },
    {
      "constant": true,
      "inputs": [],
      "name": "decimals",
      "outputs": [
        {
          "internalType": "uint8",
          "name": "",
          "type": "uint8"
        }
      ],
      "payable": false,
      "stateMutability": "view",
      "type": "function"
    },
    {
      "constant": true,
      "inputs": [],
      "name": "getReserves",
      "outputs": [
        {
          "internalType": "uint112",
          "name": "_reserve0",
          "type": "uint112"
        },
        {
          "internalType": "uint112",
          "name": "_reserve1",
          "type": "uint112"
        },
        {
          "internalType": "uint32",
          "name": "_blockTimestampLast",
          "type": "uint32"
        }
      ],
      "payable": false,
      "stateMutability": "view",
      "type": "function"
    },
    {
      "constant": true,
      "inputs": [],
      "name": "kLast",
      "outputs": [
        {
          "internalType": "uint256",
          "name": "",
          "type": "uint256"
        }
      ],
      "payable": false,
      "stateMutability": "view",
      "type": "function"
    },
    {
      "constant": false,
      "inputs": [
        {
          "internalType": "address",
          "name": "to",
          "type": "address"
        }
      ],
      "name": "mint",
      "outputs": [
        {
          "internalType": "uint256",
          "name": "liquidity",
          "type": "uint256"
        }
      ],
      "payable": false,
      "stateMutability": "nonpayable",
      "type": "function"
    },
    {
      "constant": true,
      "inputs": [],
      "name": "name",
      "outputs": [
        {
          "internalType": "string",
          "name": "",
          "type": "string"
        }
      ],
      "payable": false,
      "stateMutability": "view",
      "type": "function"
    },
    {
      "constant": true,
      "inputs": [
        {
          "internalType": "address",
          "name": "",
          "type": "address"
        }
      ],
      "name": "nonces",
      "outputs": [
        {
          "internalType": "uint256",
          "name": "",
          "type": "uint256"
        }
      ],
      "payable": false,
      "stateMutability": "view",
      "type": "function"
    },
    {
      "constant": true,
      "inputs": [],
      "name": "owner",
      "outputs": [
        {
          "internalType": "address",
          "name": "",
          "type": "address"
        }
      ],
      "payable": false,
      "stateMutability": "view",
      "type": "function"
    },
    {
      "constant": false,
      "inputs": [
        {
          "internalType": "address",
          "name": "owner",
          "type": "address"
        },
        {
          "internalType": "address",
          "name": "spender",
          "type": "address"
        },
        {
          "internalType": "uint256",
          "name": "value",
          "type": "uint256"
        },
        {
          "internalType": "uint256",
          "name": "deadline",
          "type": "uint256"
        },
        {
          "internalType": "uint8",
          "name": "v",
          "type": "uint8"
        },
        {
          "internalType": "bytes32",
          "name": "r",
          "type": "bytes32"
        },
        {
          "internalType": "bytes32",
          "name": "s",
          "type": "bytes32"
        }
      ],
      "name": "permit",
      "outputs": [],
      "payable": false,
      "stateMutability": "nonpayable",
      "type": "function"
    },
    {
      "constant": true,
      "inputs": [],
      "name": "price0CumulativeLast",
      "outputs": [
        {
          "internalType": "uint256",
          "name": "",
          "type": "uint256"
        }
      ],
      "payable": false,
      "stateMutability": "view",
      "type": "function"
    },
    {
      "constant": true,
      "inputs": [],
      "name": "price1CumulativeLast",
      "outputs": [
        {
          "internalType": "uint256",
          "name": "",
          "type": "uint256"
        }
      ],
      "payable": false,
      "stateMutability": "view",
      "type": "function"
    },
    {
      "constant": true,
      "inputs": [],
      "name": "router",
      "outputs": [
        {
          "internalType": "address",
          "name": "",
          "type": "address"
        }
      ],
      "payable": false,
      "stateMutability": "view",
      "type": "function"
    },
    {
      "constant": false,
      "inputs": [
        {
          "internalType": "address",
          "name": "_router",
          "type": "address"
        }
      ],
      "name": "setRouter",
      "outputs": [],
      "payable": false,
      "stateMutability": "nonpayable",
      "type": "function"
    },
    {
      "constant": false,
      "inputs": [
        {
          "internalType": "address",
          "name": "to",
          "type": "address"
        }
      ],
      "name": "skim",
      "outputs": [],
      "payable": false,
      "stateMutability": "nonpayable",
      "type": "function"
    },
    {
      "constant": false,
      "inputs": [
        {
          "internalType": "uint256",
          "name": "amount0Out",
          "type": "uint256"
        },
        {
          "internalType": "uint256",
          "name": "amount1Out",
          "type": "uint256"
        },
        {
          "internalType": "address",
          "name": "to",
          "type": "address"
        },
        {
          "internalType": "bytes",
          "name": "data",
          "type": "bytes"
        }
      ],
      "name": "swap",
      "outputs": [],
      "payable": false,
      "stateMutability": "nonpayable",
      "type": "function"
    },
    {
      "constant": true,
      "inputs": [],
      "name": "symbol",
      "outputs": [
        {
          "internalType": "string",
          "name": "",
          "type": "string"
        }
      ],
      "payable": false,
      "stateMutability": "view",
      "type": "function"
    },
    {
      "constant": false,
      "inputs": [],
      "name": "sync",
      "outputs": [],
      "payable": false,
      "stateMutability": "nonpayable",
      "type": "function"
    },
    {
      "constant": true,
      "inputs": [],
      "name": "token0",
      "outputs": [
        {
          "internalType": "address",
          "name": "",
          "type": "address"
        }
      ],
      "payable": false,
      "stateMutability": "view",
      "type": "function"
    },
    {
      "constant": true,
      "inputs": [],
      "name": "token1",
      "outputs": [
        {
          "internalType": "address",
          "name": "",
          "type": "address"
        }
      ],
      "payable": false,
      "stateMutability": "view",
      "type": "function"
    },
    {
      "constant": true,
      "inputs": [],
      "name": "totalSupply",
      "outputs": [
        {
          "internalType": "uint256",
          "name": "",
          "type": "uint256"
        }
      ],
      "payable": false,
      "stateMutability": "view",
      "type": "function"
    },
    {
      "constant": false,
      "inputs": [
        {
          "internalType": "address",
          "name": "to",
          "type": "address"
        },
        {
          "internalType": "uint256",
          "name": "value",
          "type": "uint256"
        }
      ],
      "name": "transfer",
      "outputs": [
        {
          "internalType": "bool",
          "name": "",
          "type": "bool"
        }
      ],
      "payable": false,
      "stateMutability": "nonpayable",
      "type": "function"
    },
    {
      "constant": false,
      "inputs": [
        {
          "internalType": "address",
          "name": "from",
          "type": "address"
        },
        {
          "internalType": "address",
          "name": "to",
          "type": "address"
        },
        {
          "internalType": "uint256",
          "name": "value",
          "type": "uint256"
        }
      ],
      "name": "transferFrom",
      "outputs": [
        {
          "internalType": "bool",
          "name": "",
          "type": "bool"
        }
      ],
      "payable": false,
      "stateMutability": "nonpayable",
      "type": "function"
    }
  ],
  "bytecode": "0x60806040526001600d5534801561001557600080fd5b50604051612c46380380612c468339818101604052606081101561003857600080fd5b50805160208201516040928301519251919290914690806052612bf48239604080519182900360520182208282018252600a8352692ab734b9bbb0b8102b1960b11b6020938401528151808301835260018152603160f81b908401528151808401919091527fbfcc8ef98ffbf7b6c3fec7bf5185b566b9863e35a9d83acd49ad6824b5969738818301527fc89efdaa54c0f20c7adf612882df0950f5a951637e0307cdcb4c672f298b8bc6606082015260808101949094523060a0808601919091528151808603909101815260c09094019052825192019190912060035550600580546001600160a01b039485166001600160a01b031991821617909155600680549385169382169390931790925560078054919093169116179055612a91806101636000396000f3fe608060405234801561001057600080fd5b50600436106101c45760003560e01c80637464fc3d116100f9578063bc25cf7711610097578063d505accf11610071578063d505accf146105e5578063dd62ed3e14610643578063f887ea401461067e578063fff6cae914610686576101c4565b8063bc25cf7714610577578063c0d78655146105aa578063d21220a7146105dd576101c4565b80638da5cb5b116100d35780638da5cb5b1461052657806395d89b411461052e578063a9059cbb14610536578063ba9a7a561461056f576101c4565b80637464fc3d1461049f5780637ecebe00146104a757806389afcb44146104da576101c4565b806330adf81f116101665780635909c0d5116101405780635909c0d5146104295780635a3d5493146104315780636a6278421461043957806370a082311461046c576101c4565b806330adf81f146103fb578063313ce567146104035780633644e51514610421576101c4565b8063095ea7b3116101a2578063095ea7b3146103205780630dfe16811461036d57806318160ddd1461039e57806323b872dd146103b8576101c4565b8063022c0d9f146101c957806306fdde03146102645780630902f1ac146102e1575b600080fd5b610262600480360360808110156101df57600080fd5b81359160208101359173ffffffffffffffffffffffffffffffffffffffff604083013516919081019060808101606082013564010000000081111561022357600080fd5b82018360208201111561023557600080fd5b8035906020019184600183028401116401000000008311171561025757600080fd5b50909250905061068e565b005b61026c610de8565b6040805160208082528351818301528351919283929083019185019080838360005b838110156102a657818101518382015260200161028e565b50505050905090810190601f1680156102d35780820380516001836020036101000a031916815260200191505b509250505060405180910390f35b6102e9610e21565b604080516dffffffffffffffffffffffffffff948516815292909316602083015263ffffffff168183015290519081900360600190f35b6103596004803603604081101561033657600080fd5b5073ffffffffffffffffffffffffffffffffffffffff8135169060200135610e76565b604080519115158252519081900360200190f35b610375610e8d565b6040805173ffffffffffffffffffffffffffffffffffffffff9092168252519081900360200190f35b6103a6610ea9565b60408051918252519081900360200190f35b610359600480360360608110156103ce57600080fd5b5073ffffffffffffffffffffffffffffffffffffffff813581169160208101359091169060400135610eaf565b6103a6610f8e565b61040b610fb2565b6040805160ff9092168252519081900360200190f35b6103a6610fb7565b6103a6610fbd565b6103a6610fc3565b6103a66004803603602081101561044f57600080fd5b503573ffffffffffffffffffffffffffffffffffffffff16610fc9565b6103a66004803603602081101561048257600080fd5b503573ffffffffffffffffffffffffffffffffffffffff16611332565b6103a6611344565b6103a6600480360360208110156104bd57600080fd5b503573ffffffffffffffffffffffffffffffffffffffff1661134a565b61050d600480360360208110156104f057600080fd5b503573ffffffffffffffffffffffffffffffffffffffff1661135c565b6040805192835260208301919091528051918290030190f35b6103756117a9565b61026c6117c5565b6103596004803603604081101561054c57600080fd5b5073ffffffffffffffffffffffffffffffffffffffff81351690602001356117fe565b6103a661180b565b6102626004803603602081101561058d57600080fd5b503573ffffffffffffffffffffffffffffffffffffffff16611811565b610262600480360360208110156105c057600080fd5b503573ffffffffffffffffffffffffffffffffffffffff16611a07565b610375611ad4565b610262600480360360e08110156105fb57600080fd5b5073ffffffffffffffffffffffffffffffffffffffff813581169160208101359091169060408101359060608101359060ff6080820135169060a08101359060c00135611af0565b6103a66004803603604081101561065957600080fd5b5073ffffffffffffffffffffffffffffffffffffffff81358116916020013516611dbc565b610375611dd9565b610262611df5565b600d546001146106ff57604080517f08c379a000000000000000000000000000000000000000000000000000000000815260206004820152601160248201527f556e697377617056323a204c4f434b4544000000000000000000000000000000604482015290519081900360640190fd5b6000600d55841515806107125750600084115b610767576040517f08c379a00000000000000000000000000000000000000000000000000000000081526004018080602001828103825260258152602001806129a36025913960400191505060405180910390fd5b600c5473ffffffffffffffffffffffffffffffffffffffff1633146107ed57604080517f08c379a000000000000000000000000000000000000000000000000000000000815260206004820152601460248201527f556e697377617056323a20464f5242494444454e000000000000000000000000604482015290519081900360640190fd5b6000806107f8610e21565b5091509150816dffffffffffffffffffffffffffff168710801561082b5750806dffffffffffffffffffffffffffff1686105b610880576040517f08c379a00000000000000000000000000000000000000000000000000000000081526004018080602001828103825260218152602001806129ec6021913960400191505060405180910390fd5b600654600754600091829173ffffffffffffffffffffffffffffffffffffffff9182169190811690891682148015906108e557508073ffffffffffffffffffffffffffffffffffffffff168973ffffffffffffffffffffffffffffffffffffffff1614155b61095057604080517f08c379a000000000000000000000000000000000000000000000000000000000815260206004820152601560248201527f556e697377617056323a20494e56414c49445f544f0000000000000000000000604482015290519081900360640190fd5b8a1561096157610961828a8d611fdb565b891561097257610972818a8c611fdb565b8615610a54578873ffffffffffffffffffffffffffffffffffffffff166310d1e85c338d8d8c8c6040518663ffffffff1660e01b8152600401808673ffffffffffffffffffffffffffffffffffffffff1673ffffffffffffffffffffffffffffffffffffffff168152602001858152602001848152602001806020018281038252848482818152602001925080828437600081840152601f19601f8201169050808301925050509650505050505050600060405180830381600087803b158015610a3b57600080fd5b505af1158015610a4f573d6000803e3d6000fd5b505050505b604080517f70a08231000000000000000000000000000000000000000000000000000000008152306004820152905173ffffffffffffffffffffffffffffffffffffffff8416916370a08231916024808301926020929190829003018186803b158015610ac057600080fd5b505afa158015610ad4573d6000803e3d6000fd5b505050506040513d6020811015610aea57600080fd5b5051604080517f70a08231000000000000000000000000000000000000000000000000000000008152306004820152905191955073ffffffffffffffffffffffffffffffffffffffff8316916370a0823191602480820192602092909190829003018186803b158015610b5c57600080fd5b505afa158015610b70573d6000803e3d6000fd5b505050506040513d6020811015610b8657600080fd5b5051925060009150506dffffffffffffffffffffffffffff85168a90038311610bb0576000610bc6565b89856dffffffffffffffffffffffffffff160383035b9050600089856dffffffffffffffffffffffffffff16038311610bea576000610c00565b89856dffffffffffffffffffffffffffff160383035b90506000821180610c115750600081115b610c66576040517f08c379a00000000000000000000000000000000000000000000000000000000081526004018080602001828103825260248152602001806129c86024913960400191505060405180910390fd5b6000610c9a610c7c84600363ffffffff6121e816565b610c8e876103e863ffffffff6121e816565b9063ffffffff61226e16565b90506000610cb2610c7c84600363ffffffff6121e816565b9050610cea620f4240610cde6dffffffffffffffffffffffffffff8b8116908b1663ffffffff6121e816565b9063ffffffff6121e816565b610cfa838363ffffffff6121e816565b1015610d6757604080517f08c379a000000000000000000000000000000000000000000000000000000000815260206004820152600c60248201527f556e697377617056323a204b0000000000000000000000000000000000000000604482015290519081900360640190fd5b5050610d75848488886122e0565b60408051838152602081018390528082018d9052606081018c9052905173ffffffffffffffffffffffffffffffffffffffff8b169133917fd78ad95fa46c994b6551d0da85fc275fe613ce37657fb8d5e3d130840159d8229181900360800190a350506001600d55505050505050505050565b6040518060400160405280600a81526020017f556e69737761702056320000000000000000000000000000000000000000000081525081565b6008546dffffffffffffffffffffffffffff808216926e0100000000000000000000000000008304909116917c0100000000000000000000000000000000000000000000000000000000900463ffffffff1690565b6000610e8333848461259c565b5060015b92915050565b60065473ffffffffffffffffffffffffffffffffffffffff1681565b60005481565b73ffffffffffffffffffffffffffffffffffffffff831660009081526002602090815260408083203384529091528120547fffffffffffffffffffffffffffffffffffffffffffffffffffffffffffffffff14610f795773ffffffffffffffffffffffffffffffffffffffff84166000908152600260209081526040808320338452909152902054610f47908363ffffffff61226e16565b73ffffffffffffffffffffffffffffffffffffffff851660009081526002602090815260408083203384529091529020555b610f8484848461260b565b5060019392505050565b7f6e71edae12b1b97f4d1f60370fef10105fa2faae0126114a169c64845d6126c981565b601281565b60035481565b60095481565b600a5481565b6000600d5460011461103c57604080517f08c379a000000000000000000000000000000000000000000000000000000000815260206004820152601160248201527f556e697377617056323a204c4f434b4544000000000000000000000000000000604482015290519081900360640190fd5b6000600d8190558061104c610e21565b50600654604080517f70a08231000000000000000000000000000000000000000000000000000000008152306004820152905193955091935060009273ffffffffffffffffffffffffffffffffffffffff909116916370a08231916024808301926020929190829003018186803b1580156110c657600080fd5b505afa1580156110da573d6000803e3d6000fd5b505050506040513d60208110156110f057600080fd5b5051600754604080517f70a08231000000000000000000000000000000000000000000000000000000008152306004820152905192935060009273ffffffffffffffffffffffffffffffffffffffff909216916370a0823191602480820192602092909190829003018186803b15801561116957600080fd5b505afa15801561117d573d6000803e3d6000fd5b505050506040513d602081101561119357600080fd5b5051905060006111b9836dffffffffffffffffffffffffffff871663ffffffff61226e16565b905060006111dd836dffffffffffffffffffffffffffff871663ffffffff61226e16565b6000549091508061121a576112066103e8610c8e611201868663ffffffff6121e816565b6126ec565b975061121560006103e861273e565b611277565b6112746dffffffffffffffffffffffffffff881661123e858463ffffffff6121e816565b8161124557fe5b046dffffffffffffffffffffffffffff8816611267858563ffffffff6121e816565b8161126e57fe5b046127ee565b97505b600088116112d0576040517f08c379a0000000000000000000000000000000000000000000000000000000008152600401808060200182810382526028815260200180612a356028913960400191505060405180910390fd5b6112da898961273e565b6112e6858589896122e0565b6040805184815260208101849052815133927f4c209b5fc8ad50758f13e2e1088ba56a560dff690a1c6fef26394f4c03821c4f928290030190a250506001600d55509395945050505050565b60016020526000908152604090205481565b600b5481565b60046020526000908152604090205481565b600080600d546001146113d057604080517f08c379a000000000000000000000000000000000000000000000000000000000815260206004820152601160248201527f556e697377617056323a204c4f434b4544000000000000000000000000000000604482015290519081900360640190fd5b6000600d819055806113e0610e21565b50600654600754604080517f70a08231000000000000000000000000000000000000000000000000000000008152306004820152905194965092945073ffffffffffffffffffffffffffffffffffffffff9182169391169160009184916370a08231916024808301926020929190829003018186803b15801561146257600080fd5b505afa158015611476573d6000803e3d6000fd5b505050506040513d602081101561148c57600080fd5b5051604080517f70a08231000000000000000000000000000000000000000000000000000000008152306004820152905191925060009173ffffffffffffffffffffffffffffffffffffffff8516916370a08231916024808301926020929190829003018186803b15801561150057600080fd5b505afa158015611514573d6000803e3d6000fd5b505050506040513d602081101561152a57600080fd5b50513060009081526001602052604081205490549192509080611553838663ffffffff6121e816565b8161155a57fe5b0499508061156e838563ffffffff6121e816565b8161157557fe5b04985060008a1180156115885750600089115b6115dd576040517f08c379a0000000000000000000000000000000000000000000000000000000008152600401808060200182810382526028815260200180612a0d6028913960400191505060405180910390fd5b6115e73083612806565b6115f2868c8c611fdb565b6115fd858c8b611fdb565b604080517f70a08231000000000000000000000000000000000000000000000000000000008152306004820152905173ffffffffffffffffffffffffffffffffffffffff8816916370a08231916024808301926020929190829003018186803b15801561166957600080fd5b505afa15801561167d573d6000803e3d6000fd5b505050506040513d602081101561169357600080fd5b5051604080517f70a08231000000000000000000000000000000000000000000000000000000008152306004820152905191955073ffffffffffffffffffffffffffffffffffffffff8716916370a0823191602480820192602092909190829003018186803b15801561170557600080fd5b505afa158015611719573d6000803e3d6000fd5b505050506040513d602081101561172f57600080fd5b5051925061173f84848a8a6122e0565b604080518b8152602081018b9052815173ffffffffffffffffffffffffffffffffffffffff8e169233927fdccd412f0b1252819cb1fd330b93224ca42612892bb3f4f789976e6d81936496929081900390910190a350505050505050506001600d81905550915091565b60055473ffffffffffffffffffffffffffffffffffffffff1681565b6040518060400160405280600681526020017f554e492d5632000000000000000000000000000000000000000000000000000081525081565b6000610e8333848461260b565b6103e881565b600d5460011461188257604080517f08c379a000000000000000000000000000000000000000000000000000000000815260206004820152601160248201527f556e697377617056323a204c4f434b4544000000000000000000000000000000604482015290519081900360640190fd5b6000600d55600654600754600854604080517f70a08231000000000000000000000000000000000000000000000000000000008152306004820152905173ffffffffffffffffffffffffffffffffffffffff948516949093169261195e9285928792611959926dffffffffffffffffffffffffffff169185916370a0823191602480820192602092909190829003018186803b15801561192157600080fd5b505afa158015611935573d6000803e3d6000fd5b505050506040513d602081101561194b57600080fd5b50519063ffffffff61226e16565b611fdb565b600854604080517f70a0823100000000000000000000000000000000000000000000000000000000815230600482015290516119fd9284928792611959926e01000000000000000000000000000090046dffffffffffffffffffffffffffff169173ffffffffffffffffffffffffffffffffffffffff8616916370a0823191602480820192602092909190829003018186803b15801561192157600080fd5b50506001600d5550565b60055473ffffffffffffffffffffffffffffffffffffffff163314611a8d57604080517f08c379a000000000000000000000000000000000000000000000000000000000815260206004820152601460248201527f556e697377617056323a20464f5242494444454e000000000000000000000000604482015290519081900360640190fd5b600c80547fffffffffffffffffffffffff00000000000000000000000000000000000000001673ffffffffffffffffffffffffffffffffffffffff92909216919091179055565b60075473ffffffffffffffffffffffffffffffffffffffff1681565b42841015611b5f57604080517f08c379a000000000000000000000000000000000000000000000000000000000815260206004820152601260248201527f556e697377617056323a20455850495245440000000000000000000000000000604482015290519081900360640190fd5b60035473ffffffffffffffffffffffffffffffffffffffff80891660008181526004602090815260408083208054600180820190925582517f6e71edae12b1b97f4d1f60370fef10105fa2faae0126114a169c64845d6126c98186015280840196909652958d166060860152608085018c905260a085019590955260c08085018b90528151808603909101815260e0850182528051908301207f19010000000000000000000000000000000000000000000000000000000000006101008601526101028501969096526101228085019690965280518085039096018652610142840180825286519683019690962095839052610162840180825286905260ff89166101828501526101a284018890526101c28401879052519193926101e2808201937fffffffffffffffffffffffffffffffffffffffffffffffffffffffffffffffe081019281900390910190855afa158015611cc0573d6000803e3d6000fd5b50506040517fffffffffffffffffffffffffffffffffffffffffffffffffffffffffffffffe0015191505073ffffffffffffffffffffffffffffffffffffffff811615801590611d3b57508873ffffffffffffffffffffffffffffffffffffffff168173ffffffffffffffffffffffffffffffffffffffff16145b611da657604080517f08c379a000000000000000000000000000000000000000000000000000000000815260206004820152601c60248201527f556e697377617056323a20494e56414c49445f5349474e415455524500000000604482015290519081900360640190fd5b611db189898961259c565b505050505050505050565b600260209081526000928352604080842090915290825290205481565b600c5473ffffffffffffffffffffffffffffffffffffffff1681565b600d54600114611e6657604080517f08c379a000000000000000000000000000000000000000000000000000000000815260206004820152601160248201527f556e697377617056323a204c4f434b4544000000000000000000000000000000604482015290519081900360640190fd5b6000600d55600654604080517f70a082310000000000000000000000000000000000000000000000000000000081523060048201529051611fd49273ffffffffffffffffffffffffffffffffffffffff16916370a08231916024808301926020929190829003018186803b158015611edd57600080fd5b505afa158015611ef1573d6000803e3d6000fd5b505050506040513d6020811015611f0757600080fd5b5051600754604080517f70a08231000000000000000000000000000000000000000000000000000000008152306004820152905173ffffffffffffffffffffffffffffffffffffffff909216916370a0823191602480820192602092909190829003018186803b158015611f7a57600080fd5b505afa158015611f8e573d6000803e3d6000fd5b505050506040513d6020811015611fa457600080fd5b50516008546dffffffffffffffffffffffffffff808216916e0100000000000000000000000000009004166122e0565b6001600d55565b604080518082018252601981527f7472616e7366657228616464726573732c75696e743235362900000000000000602091820152815173ffffffffffffffffffffffffffffffffffffffff85811660248301526044808301869052845180840390910181526064909201845291810180517bffffffffffffffffffffffffffffffffffffffffffffffffffffffff167fa9059cbb000000000000000000000000000000000000000000000000000000001781529251815160009460609489169392918291908083835b602083106120e157805182527fffffffffffffffffffffffffffffffffffffffffffffffffffffffffffffffe090920191602091820191016120a4565b6001836020036101000a0380198251168184511680821785525050505050509050019150506000604051808303816000865af19150503d8060008114612143576040519150601f19603f3d011682016040523d82523d6000602084013e612148565b606091505b5091509150818015612176575080511580612176575080806020019051602081101561217357600080fd5b50515b6121e157604080517f08c379a000000000000000000000000000000000000000000000000000000000815260206004820152601a60248201527f556e697377617056323a205452414e534645525f4641494c4544000000000000604482015290519081900360640190fd5b5050505050565b60008115806122035750508082028282828161220057fe5b04145b610e8757604080517f08c379a000000000000000000000000000000000000000000000000000000000815260206004820152601460248201527f64732d6d6174682d6d756c2d6f766572666c6f77000000000000000000000000604482015290519081900360640190fd5b80820382811115610e8757604080517f08c379a000000000000000000000000000000000000000000000000000000000815260206004820152601560248201527f64732d6d6174682d7375622d756e646572666c6f770000000000000000000000604482015290519081900360640190fd5b6dffffffffffffffffffffffffffff841180159061230c57506dffffffffffffffffffffffffffff8311155b61237757604080517f08c379a000000000000000000000000000000000000000000000000000000000815260206004820152601360248201527f556e697377617056323a204f564552464c4f5700000000000000000000000000604482015290519081900360640190fd5b60085463ffffffff428116917c0100000000000000000000000000000000000000000000000000000000900481168203908116158015906123c757506dffffffffffffffffffffffffffff841615155b80156123e257506dffffffffffffffffffffffffffff831615155b15612492578063ffffffff16612425856123fb866128cb565b7bffffffffffffffffffffffffffffffffffffffffffffffffffffffff169063ffffffff6128ef16565b600980547bffffffffffffffffffffffffffffffffffffffffffffffffffffffff929092169290920201905563ffffffff8116612465846123fb876128cb565b600a80547bffffffffffffffffffffffffffffffffffffffffffffffffffffffff92909216929092020190555b600880547fffffffffffffffffffffffffffffffffffff0000000000000000000000000000166dffffffffffffffffffffffffffff888116919091177fffffffff0000000000000000000000000000ffffffffffffffffffffffffffff166e0100000000000000000000000000008883168102919091177bffffffffffffffffffffffffffffffffffffffffffffffffffffffff167c010000000000000000000000000000000000000000000000000000000063ffffffff871602179283905560408051848416815291909304909116602082015281517f1c411e9a96e071241c2f21f7726b17ae89e3cab4c78be50e062b03a9fffbbad1929181900390910190a1505050505050565b73ffffffffffffffffffffffffffffffffffffffff808416600081815260026020908152604080832094871680845294825291829020859055815185815291517f8c5be1e5ebec7d5bd14f71427d1e84f3dd0314c0f7b2291e5b200ac8c7c3b9259281900390910190a3505050565b73ffffffffffffffffffffffffffffffffffffffff8316600090815260016020526040902054612641908263ffffffff61226e16565b73ffffffffffffffffffffffffffffffffffffffff8085166000908152600160205260408082209390935590841681522054612683908263ffffffff61293016565b73ffffffffffffffffffffffffffffffffffffffff80841660008181526001602090815260409182902094909455805185815290519193928716927fddf252ad1be2c89b69c2b068fc378daa952ba7f163c4a11628f55a4df523b3ef92918290030190a3505050565b6000600382111561272f575080600160028204015b818110156127295780915060028182858161271857fe5b04018161272157fe5b049050612701565b50612739565b8115612739575060015b919050565b600054612751908263ffffffff61293016565b600090815573ffffffffffffffffffffffffffffffffffffffff8316815260016020526040902054612789908263ffffffff61293016565b73ffffffffffffffffffffffffffffffffffffffff831660008181526001602090815260408083209490945583518581529351929391927fddf252ad1be2c89b69c2b068fc378daa952ba7f163c4a11628f55a4df523b3ef9281900390910190a35050565b60008183106127fd57816127ff565b825b9392505050565b73ffffffffffffffffffffffffffffffffffffffff821660009081526001602052604090205461283c908263ffffffff61226e16565b73ffffffffffffffffffffffffffffffffffffffff831660009081526001602052604081209190915554612876908263ffffffff61226e16565b600090815560408051838152905173ffffffffffffffffffffffffffffffffffffffff8516917fddf252ad1be2c89b69c2b068fc378daa952ba7f163c4a11628f55a4df523b3ef919081900360200190a35050565b6dffffffffffffffffffffffffffff166e0100000000000000000000000000000290565b60006dffffffffffffffffffffffffffff82167bffffffffffffffffffffffffffffffffffffffffffffffffffffffff84168161292857fe5b049392505050565b80820182811015610e8757604080517f08c379a000000000000000000000000000000000000000000000000000000000815260206004820152601460248201527f64732d6d6174682d6164642d6f766572666c6f77000000000000000000000000604482015290519081900360640190fdfe556e697377617056323a20494e53554646494349454e545f4f55545055545f414d4f554e54556e697377617056323a20494e53554646494349454e545f494e5055545f414d4f554e54556e697377617056323a20494e53554646494349454e545f4c4951554944495459556e697377617056323a20494e53554646494349454e545f4c49515549444954595f4255524e4544556e697377617056323a20494e53554646494349454e545f4c49515549444954595f4d494e544544a265627a7a72315820c4f16b1ebb28cf8093b22eb4530289b1f015070b7c6376f8b1d0a137b402e4e264736f6c63430005100032454950373132446f6d61696e28737472696e67206e616d652c737472696e672076657273696f6e2c75696e7432353620636861696e49642c6164647265737320766572696679696e67436f6e747261637429",
  "linkReferences": {},
  "deployedLinkReferences": {}
}