{
  "_format": "hh-sol-artifact-1",
  "contractName": "TempleTeamPaymentsV2",
  "sourceName": "contracts/admin/TempleTeamPaymentsV2.sol",
  "abi": [
    {
      "inputs": [],
      "name": "AllocationAddressZero",
      "type": "error"
    },
    {
      "inputs": [],
      "name": "AllocationsLengthMismatch",
      "type": "error"
    },
    {
      "inputs": [],
      "name": "ClaimMemberPaused",
      "type": "error"
    },
    {
      "inputs": [],
      "name": "ClaimZeroValue",
      "type": "error"
    },
    {
      "anonymous": false,
      "inputs": [
        {
          "indexed": true,
          "internalType": "address",
          "name": "member",
          "type": "address"
        },
        {
          "indexed": false,
          "internalType": "uint256",
          "name": "allocation",
          "type": "uint256"
        }
      ],
      "name": "AllocationSet",
      "type": "event"
    },
    {
      "anonymous": false,
      "inputs": [
        {
          "indexed": true,
          "internalType": "address",
          "name": "member",
          "type": "address"
        },
        {
          "indexed": false,
          "internalType": "uint256",
          "name": "amount",
          "type": "uint256"
        }
      ],
      "name": "Claimed",
      "type": "event"
    },
    {
      "anonymous": false,
      "inputs": [
        {
          "indexed": false,
          "internalType": "uint8",
          "name": "version",
          "type": "uint8"
        }
      ],
      "name": "Initialized",
      "type": "event"
    },
    {
      "anonymous": false,
      "inputs": [
        {
          "indexed": true,
          "internalType": "address",
          "name": "member",
          "type": "address"
        },
        {
          "indexed": false,
          "internalType": "bool",
          "name": "status",
          "type": "bool"
        }
      ],
      "name": "MemberToggled",
      "type": "event"
    },
    {
      "anonymous": false,
      "inputs": [
        {
          "indexed": true,
          "internalType": "address",
          "name": "previousOwner",
          "type": "address"
        },
        {
          "indexed": true,
          "internalType": "address",
          "name": "newOwner",
          "type": "address"
        }
      ],
      "name": "OwnershipTransferred",
      "type": "event"
    },
    {
      "anonymous": false,
      "inputs": [
        {
          "indexed": true,
          "internalType": "address",
          "name": "token",
          "type": "address"
        },
        {
          "indexed": false,
          "internalType": "uint256",
          "name": "amount",
          "type": "uint256"
        }
      ],
      "name": "TokenRecovered",
      "type": "event"
    },
    {
      "inputs": [
        {
          "internalType": "address",
          "name": "",
          "type": "address"
        }
      ],
      "name": "allocation",
      "outputs": [
        {
          "internalType": "uint256",
          "name": "",
          "type": "uint256"
        }
      ],
      "stateMutability": "view",
      "type": "function"
    },
    {
      "inputs": [
        {
          "internalType": "address",
          "name": "_member",
          "type": "address"
        }
      ],
      "name": "calculateClaimable",
      "outputs": [
        {
          "internalType": "uint256",
          "name": "",
          "type": "uint256"
        }
      ],
      "stateMutability": "view",
      "type": "function"
    },
    {
      "inputs": [
        {
          "internalType": "uint256",
          "name": "_claimAmount",
          "type": "uint256"
        }
      ],
      "name": "claim",
      "outputs": [],
      "stateMutability": "nonpayable",
      "type": "function"
    },
    {
      "inputs": [
        {
          "internalType": "address",
          "name": "",
          "type": "address"
        }
      ],
      "name": "claimed",
      "outputs": [
        {
          "internalType": "uint256",
          "name": "",
          "type": "uint256"
        }
      ],
      "stateMutability": "view",
      "type": "function"
    },
    {
      "inputs": [
        {
          "internalType": "contract IERC20",
          "name": "_temple",
          "type": "address"
        }
      ],
      "name": "initialize",
      "outputs": [],
      "stateMutability": "nonpayable",
      "type": "function"
    },
    {
      "inputs": [],
      "name": "owner",
      "outputs": [
        {
          "internalType": "address",
          "name": "",
          "type": "address"
        }
      ],
      "stateMutability": "view",
      "type": "function"
    },
    {
      "inputs": [
        {
          "internalType": "address",
          "name": "",
          "type": "address"
        }
      ],
      "name": "paused",
      "outputs": [
        {
          "internalType": "bool",
          "name": "",
          "type": "bool"
        }
      ],
      "stateMutability": "view",
      "type": "function"
    },
    {
      "inputs": [],
      "name": "renounceOwnership",
      "outputs": [],
      "stateMutability": "nonpayable",
      "type": "function"
    },
    {
      "inputs": [
        {
          "internalType": "address",
          "name": "_address",
          "type": "address"
        },
        {
          "internalType": "uint256",
          "name": "_amount",
          "type": "uint256"
        }
      ],
      "name": "setAllocation",
      "outputs": [],
      "stateMutability": "nonpayable",
      "type": "function"
    },
    {
      "inputs": [
        {
          "internalType": "address[]",
          "name": "_addresses",
          "type": "address[]"
        },
        {
          "internalType": "uint256[]",
          "name": "_amounts",
          "type": "uint256[]"
        }
      ],
      "name": "setAllocations",
      "outputs": [],
      "stateMutability": "nonpayable",
      "type": "function"
    },
    {
      "inputs": [],
      "name": "temple",
      "outputs": [
        {
          "internalType": "contract IERC20",
          "name": "",
          "type": "address"
        }
      ],
      "stateMutability": "view",
      "type": "function"
    },
    {
      "inputs": [
        {
          "internalType": "address",
          "name": "_address",
          "type": "address"
        }
      ],
      "name": "toggleMember",
      "outputs": [],
      "stateMutability": "nonpayable",
      "type": "function"
    },
    {
      "inputs": [
        {
          "internalType": "address",
          "name": "newOwner",
          "type": "address"
        }
      ],
      "name": "transferOwnership",
      "outputs": [],
      "stateMutability": "nonpayable",
      "type": "function"
    },
    {
      "inputs": [
        {
          "internalType": "contract IERC20",
          "name": "_token",
          "type": "address"
        },
        {
          "internalType": "uint256",
          "name": "_amount",
          "type": "uint256"
        }
      ],
      "name": "withdrawToken",
      "outputs": [],
      "stateMutability": "nonpayable",
      "type": "function"
    }
  ],
  "bytecode": "0x608060405234801561001057600080fd5b5061120a806100206000396000f3fe608060405234801561001057600080fd5b50600436106100ea5760003560e01c80639e281a981161008c578063c884ef8311610066578063c884ef831461021d578063e62df6f41461023d578063f2fde38b14610250578063fe7b00071461026357600080fd5b80639e281a98146101c9578063b81b8630146101dc578063c4d66de81461020a57600080fd5b8063715018a6116100c8578063715018a61461014f5780638da5cb5b146101575780639076c1661461019657806397cd9a34146101a957600080fd5b80631ff64acd146100ef5780632e48152c14610104578063379607f51461013c575b600080fd5b6101026100fd366004610f72565b610276565b005b610127610112366004611034565b60686020526000908152604090205460ff1681565b60405190151581526020015b60405180910390f35b61010261014a366004611058565b61030e565b61010261042d565b60335473ffffffffffffffffffffffffffffffffffffffff165b60405173ffffffffffffffffffffffffffffffffffffffff9091168152602001610133565b6101026101a4366004611071565b610441565b6065546101719073ffffffffffffffffffffffffffffffffffffffff1681565b6101026101d7366004611071565b610457565b6101fc6101ea366004611034565b60666020526000908152604090205481565b604051908152602001610133565b610102610218366004611034565b6104ec565b6101fc61022b366004611034565b60676020526000908152604090205481565b61010261024b366004611034565b6106c3565b61010261025e366004611034565b610761565b6101fc610271366004611034565b610818565b61027e610859565b80518251146102b9576040517fb3a5096900000000000000000000000000000000000000000000000000000000815260040160405180910390fd5b60005b8251811015610309576103018382815181106102da576102da61109d565b60200260200101518383815181106102f4576102f461109d565b60200260200101516108da565b6001016102bc565b505050565b3360009081526068602052604090205460ff1615610358576040517ff96bc70800000000000000000000000000000000000000000000000000000000815260040160405180910390fd5b600061036333610818565b90508060000361039f576040517f325a011400000000000000000000000000000000000000000000000000000000815260040160405180910390fd5b808211156103ab578091505b33600090815260676020526040812080548492906103ca9084906110fb565b90915550506065546103f39073ffffffffffffffffffffffffffffffffffffffff163384610981565b60405182815233907fd8138f8a3f377c5259ca548e70e4c2de94f129f5a11036a15b69513cba2b426a906020015b60405180910390a25050565b610435610859565b61043f6000610a0e565b565b610449610859565b61045382826108da565b5050565b61045f610859565b80600003610499576040517f325a011400000000000000000000000000000000000000000000000000000000815260040160405180910390fd5b6104a4823383610981565b8173ffffffffffffffffffffffffffffffffffffffff167f4590b594be6fdef6bd5e18792a2494ddf2156b618c7bbe48d13a92831208af058260405161042191815260200190565b600054610100900460ff161580801561050c5750600054600160ff909116105b806105265750303b158015610526575060005460ff166001145b6105b7576040517f08c379a000000000000000000000000000000000000000000000000000000000815260206004820152602e60248201527f496e697469616c697a61626c653a20636f6e747261637420697320616c72656160448201527f647920696e697469616c697a656400000000000000000000000000000000000060648201526084015b60405180910390fd5b600080547fffffffffffffffffffffffffffffffffffffffffffffffffffffffffffffff00166001179055801561061557600080547fffffffffffffffffffffffffffffffffffffffffffffffffffffffffffff00ff166101001790555b61061d610a85565b606580547fffffffffffffffffffffffff00000000000000000000000000000000000000001673ffffffffffffffffffffffffffffffffffffffff8416179055801561045357600080547fffffffffffffffffffffffffffffffffffffffffffffffffffffffffffff00ff169055604051600181527f7f26b83ff96e1f2b6a682f133852f6798a09c465da95921460cefb38474024989060200160405180910390a15050565b6106cb610859565b73ffffffffffffffffffffffffffffffffffffffff81166000818152606860205260409081902080547fffffffffffffffffffffffffffffffffffffffffffffffffffffffffffffff00811660ff9182161590811790925591517f2fb26ecb06f91eb2cafa469f8c793ca039aec03cb5ba97207b81afcd576734959261075692161515815260200190565b60405180910390a250565b610769610859565b73ffffffffffffffffffffffffffffffffffffffff811661080c576040517f08c379a000000000000000000000000000000000000000000000000000000000815260206004820152602660248201527f4f776e61626c653a206e6577206f776e657220697320746865207a65726f206160448201527f646472657373000000000000000000000000000000000000000000000000000060648201526084016105ae565b61081581610a0e565b50565b73ffffffffffffffffffffffffffffffffffffffff81166000908152606760209081526040808320546066909252822054610853919061110e565b92915050565b60335473ffffffffffffffffffffffffffffffffffffffff16331461043f576040517f08c379a000000000000000000000000000000000000000000000000000000000815260206004820181905260248201527f4f776e61626c653a2063616c6c6572206973206e6f7420746865206f776e657260448201526064016105ae565b73ffffffffffffffffffffffffffffffffffffffff8216610927576040517f3668db1500000000000000000000000000000000000000000000000000000000815260040160405180910390fd5b73ffffffffffffffffffffffffffffffffffffffff821660008181526066602052604090819020839055517fedfc909d0ab2a1625b7911d925efbd8200cdd99d4c7ba44e720328b17879f0b3906104219084815260200190565b6040805173ffffffffffffffffffffffffffffffffffffffff8416602482015260448082018490528251808303909101815260649091019091526020810180517bffffffffffffffffffffffffffffffffffffffffffffffffffffffff167fa9059cbb00000000000000000000000000000000000000000000000000000000179052610309908490610b25565b6033805473ffffffffffffffffffffffffffffffffffffffff8381167fffffffffffffffffffffffff0000000000000000000000000000000000000000831681179093556040519116919082907f8be0079c531659141344cd1fd0a4f28419497f9722a3daafe3b4186f6b6457e090600090a35050565b600054610100900460ff16610b1c576040517f08c379a000000000000000000000000000000000000000000000000000000000815260206004820152602b60248201527f496e697469616c697a61626c653a20636f6e7472616374206973206e6f74206960448201527f6e697469616c697a696e6700000000000000000000000000000000000000000060648201526084016105ae565b61043f33610a0e565b6000610b87826040518060400160405280602081526020017f5361666545524332303a206c6f772d6c6576656c2063616c6c206661696c65648152508573ffffffffffffffffffffffffffffffffffffffff16610c349092919063ffffffff16565b9050805160001480610ba8575080806020019051810190610ba89190611121565b610309576040517f08c379a000000000000000000000000000000000000000000000000000000000815260206004820152602a60248201527f5361666545524332303a204552433230206f7065726174696f6e20646964206e60448201527f6f7420737563636565640000000000000000000000000000000000000000000060648201526084016105ae565b6060610c438484600085610c4b565b949350505050565b606082471015610cdd576040517f08c379a000000000000000000000000000000000000000000000000000000000815260206004820152602660248201527f416464726573733a20696e73756666696369656e742062616c616e636520666f60448201527f722063616c6c000000000000000000000000000000000000000000000000000060648201526084016105ae565b6000808673ffffffffffffffffffffffffffffffffffffffff168587604051610d069190611167565b60006040518083038185875af1925050503d8060008114610d43576040519150601f19603f3d011682016040523d82523d6000602084013e610d48565b606091505b5091509150610d5987838387610d64565b979650505050505050565b60608315610dfa578251600003610df35773ffffffffffffffffffffffffffffffffffffffff85163b610df3576040517f08c379a000000000000000000000000000000000000000000000000000000000815260206004820152601d60248201527f416464726573733a2063616c6c20746f206e6f6e2d636f6e747261637400000060448201526064016105ae565b5081610c43565b610c438383815115610e0f5781518083602001fd5b806040517f08c379a00000000000000000000000000000000000000000000000000000000081526004016105ae9190611183565b7f4e487b7100000000000000000000000000000000000000000000000000000000600052604160045260246000fd5b604051601f82017fffffffffffffffffffffffffffffffffffffffffffffffffffffffffffffffe016810167ffffffffffffffff81118282101715610eb957610eb9610e43565b604052919050565b600067ffffffffffffffff821115610edb57610edb610e43565b5060051b60200190565b73ffffffffffffffffffffffffffffffffffffffff8116811461081557600080fd5b600082601f830112610f1857600080fd5b81356020610f2d610f2883610ec1565b610e72565b82815260059290921b84018101918181019086841115610f4c57600080fd5b8286015b84811015610f675780358352918301918301610f50565b509695505050505050565b60008060408385031215610f8557600080fd5b823567ffffffffffffffff80821115610f9d57600080fd5b818501915085601f830112610fb157600080fd5b81356020610fc1610f2883610ec1565b82815260059290921b84018101918181019089841115610fe057600080fd5b948201945b83861015611007578535610ff881610ee5565b82529482019490820190610fe5565b9650508601359250508082111561101d57600080fd5b5061102a85828601610f07565b9150509250929050565b60006020828403121561104657600080fd5b813561105181610ee5565b9392505050565b60006020828403121561106a57600080fd5b5035919050565b6000806040838503121561108457600080fd5b823561108f81610ee5565b946020939093013593505050565b7f4e487b7100000000000000000000000000000000000000000000000000000000600052603260045260246000fd5b7f4e487b7100000000000000000000000000000000000000000000000000000000600052601160045260246000fd5b80820180821115610853576108536110cc565b81810381811115610853576108536110cc565b60006020828403121561113357600080fd5b8151801515811461105157600080fd5b60005b8381101561115e578181015183820152602001611146565b50506000910152565b60008251611179818460208701611143565b9190910192915050565b60208152600082518060208401526111a2816040850160208701611143565b601f017fffffffffffffffffffffffffffffffffffffffffffffffffffffffffffffffe016919091016040019291505056fea2646970667358221220e16c930745fe4c1ae79ffd12c11c8bd1f9a7ec9663d4328c675986485a41520464736f6c63430008130033",
  "linkReferences": {},
  "deployedLinkReferences": {}
}