{
  "_format": "hh-sol-artifact-1",
  "contractName": "InstantExitQueue",
  "sourceName": "contracts/deprecated/InstantExitQueue.sol",
  "abi": [
    {
      "inputs": [
        {
          "internalType": "contract TempleStaking",
          "name": "_templeStaking",
          "type": "address"
        },
        {
          "internalType": "contract TempleERC20Token",
          "name": "_templeToken",
          "type": "address"
        }
      ],
      "stateMutability": "nonpayable",
      "type": "constructor"
    },
    {
      "inputs": [
        {
          "internalType": "address",
          "name": "_exiter",
          "type": "address"
        },
        {
          "internalType": "uint256",
          "name": "_amount",
          "type": "uint256"
        }
      ],
      "name": "join",
      "outputs": [],
      "stateMutability": "nonpayable",
      "type": "function"
    }
  ],
  "bytecode": "0x608060405234801561001057600080fd5b506040516106a83803806106a883398101604081905261002f91610078565b600080546001600160a01b039384166001600160a01b031991821617909155600180549290931691161790556100b2565b6001600160a01b038116811461007557600080fd5b50565b6000806040838503121561008b57600080fd5b825161009681610060565b60208401519092506100a781610060565b809150509250929050565b6105e7806100c16000396000f3fe608060405234801561001057600080fd5b506004361061002b5760003560e01c80633b4da69f14610030575b600080fd5b61004361003e3660046104b2565b610045565b005b60005473ffffffffffffffffffffffffffffffffffffffff1633146100cb576040517f08c379a000000000000000000000000000000000000000000000000000000000815260206004820152601560248201527f6f6e6c79207374616b696e6720636f6e7472616374000000000000000000000060448201526064015b60405180910390fd5b6001546100f09073ffffffffffffffffffffffffffffffffffffffff163384846100f4565b5050565b6040805173ffffffffffffffffffffffffffffffffffffffff85811660248301528416604482015260648082018490528251808303909101815260849091019091526020810180517bffffffffffffffffffffffffffffffffffffffffffffffffffffffff167f23b872dd0000000000000000000000000000000000000000000000000000000017905261018990859061018f565b50505050565b60006101f1826040518060400160405280602081526020017f5361666545524332303a206c6f772d6c6576656c2063616c6c206661696c65648152508573ffffffffffffffffffffffffffffffffffffffff166102a39092919063ffffffff16565b905080516000148061021257508080602001905181019061021291906104f7565b61029e576040517f08c379a000000000000000000000000000000000000000000000000000000000815260206004820152602a60248201527f5361666545524332303a204552433230206f7065726174696f6e20646964206e60448201527f6f7420737563636565640000000000000000000000000000000000000000000060648201526084016100c2565b505050565b60606102b284846000856102ba565b949350505050565b60608247101561034c576040517f08c379a000000000000000000000000000000000000000000000000000000000815260206004820152602660248201527f416464726573733a20696e73756666696369656e742062616c616e636520666f60448201527f722063616c6c000000000000000000000000000000000000000000000000000060648201526084016100c2565b6000808673ffffffffffffffffffffffffffffffffffffffff1685876040516103759190610544565b60006040518083038185875af1925050503d80600081146103b2576040519150601f19603f3d011682016040523d82523d6000602084013e6103b7565b606091505b50915091506103c8878383876103d3565b979650505050505050565b606083156104695782516000036104625773ffffffffffffffffffffffffffffffffffffffff85163b610462576040517f08c379a000000000000000000000000000000000000000000000000000000000815260206004820152601d60248201527f416464726573733a2063616c6c20746f206e6f6e2d636f6e747261637400000060448201526064016100c2565b50816102b2565b6102b2838381511561047e5781518083602001fd5b806040517f08c379a00000000000000000000000000000000000000000000000000000000081526004016100c29190610560565b600080604083850312156104c557600080fd5b823573ffffffffffffffffffffffffffffffffffffffff811681146104e957600080fd5b946020939093013593505050565b60006020828403121561050957600080fd5b8151801515811461051957600080fd5b9392505050565b60005b8381101561053b578181015183820152602001610523565b50506000910152565b60008251610556818460208701610520565b9190910192915050565b602081526000825180602084015261057f816040850160208701610520565b601f017fffffffffffffffffffffffffffffffffffffffffffffffffffffffffffffffe016919091016040019291505056fea264697066735822122076cc47f5d82f83a3d201318be9a924f2ac45a512fca6ead9db733e84553d6f3864736f6c63430008130033",
  "linkReferences": {},
  "deployedLinkReferences": {}
}