{
  "_format": "hh-sol-artifact-1",
  "contractName": "StableGoldAuction",
  "sourceName": "contracts/templegold/StableGoldAuction.sol",
  "abi": [
    {
      "inputs": [
        {
          "internalType": "address",
          "name": "_templeGold",
          "type": "address"
        },
        {
          "internalType": "address",
          "name": "_bidToken",
          "type": "address"
        },
        {
          "internalType": "address",
          "name": "_treasury",
          "type": "address"
        },
        {
          "internalType": "address",
          "name": "_rescuer",
          "type": "address"
        },
        {
          "internalType": "address",
          "name": "_executor",
          "type": "address"
        },
        {
          "internalType": "address",
          "name": "_auctionStarter",
          "type": "address"
        }
      ],
      "stateMutability": "nonpayable",
      "type": "constructor"
    },
    {
      "inputs": [
        {
          "internalType": "address",
          "name": "target",
          "type": "address"
        }
      ],
      "name": "AddressEmptyCode",
      "type": "error"
    },
    {
      "inputs": [
        {
          "internalType": "address",
          "name": "account",
          "type": "address"
        }
      ],
      "name": "AddressInsufficientBalance",
      "type": "error"
    },
    {
      "inputs": [],
      "name": "AlreadyClaimed",
      "type": "error"
    },
    {
      "inputs": [],
      "name": "AlreadyRecovered",
      "type": "error"
    },
    {
      "inputs": [],
      "name": "AuctionActive",
      "type": "error"
    },
    {
      "inputs": [],
      "name": "AuctionEnded",
      "type": "error"
    },
    {
      "inputs": [
        {
          "internalType": "uint256",
          "name": "epochId",
          "type": "uint256"
        }
      ],
      "name": "CannotClaim",
      "type": "error"
    },
    {
      "inputs": [],
      "name": "CannotDeposit",
      "type": "error"
    },
    {
      "inputs": [],
      "name": "CannotStartAuction",
      "type": "error"
    },
    {
      "inputs": [],
      "name": "ExpectedNonZero",
      "type": "error"
    },
    {
      "inputs": [],
      "name": "FailedInnerCall",
      "type": "error"
    },
    {
      "inputs": [],
      "name": "InvalidAccess",
      "type": "error"
    },
    {
      "inputs": [],
      "name": "InvalidAddress",
      "type": "error"
    },
    {
      "inputs": [
        {
          "internalType": "address",
          "name": "token",
          "type": "address"
        },
        {
          "internalType": "uint256",
          "name": "amount",
          "type": "uint256"
        }
      ],
      "name": "InvalidAmount",
      "type": "error"
    },
    {
      "inputs": [],
      "name": "InvalidEpoch",
      "type": "error"
    },
    {
      "inputs": [],
      "name": "InvalidOperation",
      "type": "error"
    },
    {
      "inputs": [
        {
          "internalType": "uint256",
          "name": "epochGoldAmount",
          "type": "uint256"
        }
      ],
      "name": "LowGoldDistributed",
      "type": "error"
    },
    {
      "inputs": [
        {
          "internalType": "uint256",
          "name": "x",
          "type": "uint256"
        },
        {
          "internalType": "uint256",
          "name": "y",
          "type": "uint256"
        },
        {
          "internalType": "uint256",
          "name": "denominator",
          "type": "uint256"
        }
      ],
      "name": "PRBMath_MulDiv_Overflow",
      "type": "error"
    },
    {
      "inputs": [
        {
          "internalType": "address",
          "name": "token",
          "type": "address"
        }
      ],
      "name": "SafeERC20FailedOperation",
      "type": "error"
    },
    {
      "anonymous": false,
      "inputs": [
        {
          "indexed": false,
          "internalType": "uint256",
          "name": "epochId",
          "type": "uint256"
        },
        {
          "components": [
            {
              "internalType": "uint32",
              "name": "auctionsTimeDiff",
              "type": "uint32"
            },
            {
              "internalType": "uint32",
              "name": "auctionStartCooldown",
              "type": "uint32"
            },
            {
              "internalType": "uint192",
              "name": "auctionMinimumDistributedGold",
              "type": "uint192"
            }
          ],
          "indexed": false,
          "internalType": "struct IStableGoldAuction.AuctionConfig",
          "name": "config",
          "type": "tuple"
        }
      ],
      "name": "AuctionConfigSet",
      "type": "event"
    },
    {
      "anonymous": false,
      "inputs": [
        {
          "indexed": false,
          "internalType": "uint256",
          "name": "epochId",
          "type": "uint256"
        },
        {
          "indexed": true,
          "internalType": "address",
          "name": "starter",
          "type": "address"
        },
        {
          "indexed": false,
          "internalType": "uint128",
          "name": "startTime",
          "type": "uint128"
        },
        {
          "indexed": false,
          "internalType": "uint128",
          "name": "endTime",
          "type": "uint128"
        },
        {
          "indexed": false,
          "internalType": "uint256",
          "name": "auctionTokenAmount",
          "type": "uint256"
        }
      ],
      "name": "AuctionStarted",
      "type": "event"
    },
    {
      "anonymous": false,
      "inputs": [
        {
          "indexed": true,
          "internalType": "address",
          "name": "starter",
          "type": "address"
        }
      ],
      "name": "AuctionStarterSet",
      "type": "event"
    },
    {
      "anonymous": false,
      "inputs": [
        {
          "indexed": false,
          "internalType": "address",
          "name": "bidToken",
          "type": "address"
        }
      ],
      "name": "BidTokenSet",
      "type": "event"
    },
    {
      "anonymous": false,
      "inputs": [
        {
          "indexed": true,
          "internalType": "address",
          "name": "user",
          "type": "address"
        },
        {
          "indexed": false,
          "internalType": "uint256",
          "name": "epochId",
          "type": "uint256"
        },
        {
          "indexed": false,
          "internalType": "uint256",
          "name": "bidTokenAmount",
          "type": "uint256"
        },
        {
          "indexed": false,
          "internalType": "uint256",
          "name": "auctionTokenAmount",
          "type": "uint256"
        }
      ],
      "name": "Claim",
      "type": "event"
    },
    {
      "anonymous": false,
      "inputs": [
        {
          "indexed": true,
          "internalType": "address",
          "name": "depositor",
          "type": "address"
        },
        {
          "indexed": false,
          "internalType": "uint256",
          "name": "epochId",
          "type": "uint256"
        },
        {
          "indexed": false,
          "internalType": "uint256",
          "name": "amount",
          "type": "uint256"
        }
      ],
      "name": "Deposit",
      "type": "event"
    },
    {
      "anonymous": false,
      "inputs": [
        {
          "indexed": true,
          "internalType": "address",
          "name": "account",
          "type": "address"
        },
        {
          "indexed": true,
          "internalType": "bytes4",
          "name": "fnSelector",
          "type": "bytes4"
        },
        {
          "indexed": true,
          "internalType": "bool",
          "name": "value",
          "type": "bool"
        }
      ],
      "name": "ExplicitAccessSet",
      "type": "event"
    },
    {
      "anonymous": false,
      "inputs": [
        {
          "indexed": false,
          "internalType": "uint256",
          "name": "amount",
          "type": "uint256"
        },
        {
          "indexed": false,
          "internalType": "uint256",
          "name": "timestamp",
          "type": "uint256"
        }
      ],
      "name": "GoldDistributionNotified",
      "type": "event"
    },
    {
      "anonymous": false,
      "inputs": [
        {
          "indexed": true,
          "internalType": "address",
          "name": "oldExecutor",
          "type": "address"
        },
        {
          "indexed": true,
          "internalType": "address",
          "name": "newExecutor",
          "type": "address"
        }
      ],
      "name": "NewExecutorAccepted",
      "type": "event"
    },
    {
      "anonymous": false,
      "inputs": [
        {
          "indexed": true,
          "internalType": "address",
          "name": "oldExecutor",
          "type": "address"
        },
        {
          "indexed": true,
          "internalType": "address",
          "name": "oldProposedExecutor",
          "type": "address"
        },
        {
          "indexed": true,
          "internalType": "address",
          "name": "newProposedExecutor",
          "type": "address"
        }
      ],
      "name": "NewExecutorProposed",
      "type": "event"
    },
    {
      "anonymous": false,
      "inputs": [
        {
          "indexed": true,
          "internalType": "address",
          "name": "oldRescuer",
          "type": "address"
        },
        {
          "indexed": true,
          "internalType": "address",
          "name": "newRescuer",
          "type": "address"
        }
      ],
      "name": "NewRescuerAccepted",
      "type": "event"
    },
    {
      "anonymous": false,
      "inputs": [
        {
          "indexed": true,
          "internalType": "address",
          "name": "oldRescuer",
          "type": "address"
        },
        {
          "indexed": true,
          "internalType": "address",
          "name": "oldProposedRescuer",
          "type": "address"
        },
        {
          "indexed": true,
          "internalType": "address",
          "name": "newProposedRescuer",
          "type": "address"
        }
      ],
      "name": "NewRescuerProposed",
      "type": "event"
    },
    {
      "anonymous": false,
      "inputs": [
        {
          "indexed": true,
          "internalType": "bool",
          "name": "value",
          "type": "bool"
        }
      ],
      "name": "RescueModeSet",
      "type": "event"
    },
    {
      "anonymous": false,
      "inputs": [
        {
          "indexed": true,
          "internalType": "address",
          "name": "to",
          "type": "address"
        },
        {
          "indexed": true,
          "internalType": "address",
          "name": "token",
          "type": "address"
        },
        {
          "indexed": false,
          "internalType": "uint256",
          "name": "amount",
          "type": "uint256"
        }
      ],
      "name": "TokenRecovered",
      "type": "event"
    },
    {
      "inputs": [],
      "name": "AUCTION_DURATION",
      "outputs": [
        {
          "internalType": "uint64",
          "name": "",
          "type": "uint64"
        }
      ],
      "stateMutability": "view",
      "type": "function"
    },
    {
      "inputs": [],
      "name": "acceptExecutor",
      "outputs": [],
      "stateMutability": "nonpayable",
      "type": "function"
    },
    {
      "inputs": [],
      "name": "acceptRescuer",
      "outputs": [],
      "stateMutability": "nonpayable",
      "type": "function"
    },
    {
      "inputs": [],
      "name": "auctionStarter",
      "outputs": [
        {
          "internalType": "address",
          "name": "",
          "type": "address"
        }
      ],
      "stateMutability": "view",
      "type": "function"
    },
    {
      "inputs": [
        {
          "internalType": "uint256",
          "name": "amount",
          "type": "uint256"
        }
      ],
      "name": "bid",
      "outputs": [],
      "stateMutability": "nonpayable",
      "type": "function"
    },
    {
      "inputs": [],
      "name": "bidToken",
      "outputs": [
        {
          "internalType": "contract IERC20",
          "name": "",
          "type": "address"
        }
      ],
      "stateMutability": "view",
      "type": "function"
    },
    {
      "inputs": [],
      "name": "canDeposit",
      "outputs": [
        {
          "internalType": "bool",
          "name": "",
          "type": "bool"
        }
      ],
      "stateMutability": "view",
      "type": "function"
    },
    {
      "inputs": [
        {
          "internalType": "uint256",
          "name": "epochId",
          "type": "uint256"
        }
      ],
      "name": "claim",
      "outputs": [],
      "stateMutability": "nonpayable",
      "type": "function"
    },
    {
      "inputs": [
        {
          "internalType": "address",
          "name": "depositor",
          "type": "address"
        },
        {
          "internalType": "uint256",
          "name": "epochId",
          "type": "uint256"
        }
      ],
      "name": "claimed",
      "outputs": [
        {
          "internalType": "bool",
          "name": "claimed",
          "type": "bool"
        }
      ],
      "stateMutability": "view",
      "type": "function"
    },
    {
      "inputs": [
        {
          "internalType": "address",
          "name": "depositor",
          "type": "address"
        },
        {
          "internalType": "uint256",
          "name": "epochId",
          "type": "uint256"
        }
      ],
      "name": "claimedAmount",
      "outputs": [
        {
          "internalType": "uint256",
          "name": "claimedAmount",
          "type": "uint256"
        }
      ],
      "stateMutability": "view",
      "type": "function"
    },
    {
      "inputs": [],
      "name": "currentEpoch",
      "outputs": [
        {
          "internalType": "uint256",
          "name": "",
          "type": "uint256"
        }
      ],
      "stateMutability": "view",
      "type": "function"
    },
    {
      "inputs": [
        {
          "internalType": "address",
          "name": "depositor",
          "type": "address"
        },
        {
          "internalType": "uint256",
          "name": "epochId",
          "type": "uint256"
        }
      ],
      "name": "depositors",
      "outputs": [
        {
          "internalType": "uint256",
          "name": "amount",
          "type": "uint256"
        }
      ],
      "stateMutability": "view",
      "type": "function"
    },
    {
      "inputs": [],
      "name": "distributeGold",
      "outputs": [],
      "stateMutability": "nonpayable",
      "type": "function"
    },
    {
      "inputs": [
        {
          "internalType": "uint256",
          "name": "epochId",
          "type": "uint256"
        }
      ],
      "name": "epochGoldSupply",
      "outputs": [
        {
          "internalType": "uint256",
          "name": "",
          "type": "uint256"
        }
      ],
      "stateMutability": "view",
      "type": "function"
    },
    {
      "inputs": [
        {
          "internalType": "uint256",
          "name": "epochId",
          "type": "uint256"
        }
      ],
      "name": "epochsWithoutBidsRecovered",
      "outputs": [
        {
          "internalType": "bool",
          "name": "recovered",
          "type": "bool"
        }
      ],
      "stateMutability": "view",
      "type": "function"
    },
    {
      "inputs": [],
      "name": "executor",
      "outputs": [
        {
          "internalType": "address",
          "name": "",
          "type": "address"
        }
      ],
      "stateMutability": "view",
      "type": "function"
    },
    {
      "inputs": [
        {
          "internalType": "address",
          "name": "",
          "type": "address"
        },
        {
          "internalType": "bytes4",
          "name": "",
          "type": "bytes4"
        }
      ],
      "name": "explicitFunctionAccess",
      "outputs": [
        {
          "internalType": "bool",
          "name": "",
          "type": "bool"
        }
      ],
      "stateMutability": "view",
      "type": "function"
    },
    {
      "inputs": [],
      "name": "getAuctionConfig",
      "outputs": [
        {
          "components": [
            {
              "internalType": "uint32",
              "name": "auctionsTimeDiff",
              "type": "uint32"
            },
            {
              "internalType": "uint32",
              "name": "auctionStartCooldown",
              "type": "uint32"
            },
            {
              "internalType": "uint192",
              "name": "auctionMinimumDistributedGold",
              "type": "uint192"
            }
          ],
          "internalType": "struct IStableGoldAuction.AuctionConfig",
          "name": "",
          "type": "tuple"
        }
      ],
      "stateMutability": "view",
      "type": "function"
    },
    {
      "inputs": [
        {
          "internalType": "address",
          "name": "depositor",
          "type": "address"
        }
      ],
      "name": "getClaimableAtCurrentEpoch",
      "outputs": [
        {
          "internalType": "uint256",
          "name": "",
          "type": "uint256"
        }
      ],
      "stateMutability": "view",
      "type": "function"
    },
    {
      "inputs": [
        {
          "internalType": "address",
          "name": "depositor",
          "type": "address"
        },
        {
          "internalType": "uint256",
          "name": "epochId",
          "type": "uint256"
        }
      ],
      "name": "getClaimableAtEpoch",
      "outputs": [
        {
          "internalType": "uint256",
          "name": "",
          "type": "uint256"
        }
      ],
      "stateMutability": "view",
      "type": "function"
    },
    {
      "inputs": [
        {
          "internalType": "uint256",
          "name": "epochId",
          "type": "uint256"
        }
      ],
      "name": "getEpochInfo",
      "outputs": [
        {
          "components": [
            {
              "internalType": "uint128",
              "name": "startTime",
              "type": "uint128"
            },
            {
              "internalType": "uint128",
              "name": "endTime",
              "type": "uint128"
            },
            {
              "internalType": "uint256",
              "name": "totalBidTokenAmount",
              "type": "uint256"
            },
            {
              "internalType": "uint256",
              "name": "totalAuctionTokenAmount",
              "type": "uint256"
            }
          ],
          "internalType": "struct IAuctionBase.EpochInfo",
          "name": "",
          "type": "tuple"
        }
      ],
      "stateMutability": "view",
      "type": "function"
    },
    {
      "inputs": [],
      "name": "inRescueMode",
      "outputs": [
        {
          "internalType": "bool",
          "name": "",
          "type": "bool"
        }
      ],
      "stateMutability": "view",
      "type": "function"
    },
    {
      "inputs": [],
      "name": "isCurrentEpochEnded",
      "outputs": [
        {
          "internalType": "bool",
          "name": "",
          "type": "bool"
        }
      ],
      "stateMutability": "view",
      "type": "function"
    },
    {
      "inputs": [],
      "name": "nextAuctionGoldAmount",
      "outputs": [
        {
          "internalType": "uint256",
          "name": "",
          "type": "uint256"
        }
      ],
      "stateMutability": "view",
      "type": "function"
    },
    {
      "inputs": [],
      "name": "nextEpoch",
      "outputs": [
        {
          "internalType": "uint256",
          "name": "",
          "type": "uint256"
        }
      ],
      "stateMutability": "view",
      "type": "function"
    },
    {
      "inputs": [
        {
          "internalType": "uint256",
          "name": "amount",
          "type": "uint256"
        }
      ],
      "name": "notifyDistribution",
      "outputs": [],
      "stateMutability": "nonpayable",
      "type": "function"
    },
    {
      "inputs": [
        {
          "internalType": "address",
          "name": "account",
          "type": "address"
        }
      ],
      "name": "proposeNewExecutor",
      "outputs": [],
      "stateMutability": "nonpayable",
      "type": "function"
    },
    {
      "inputs": [
        {
          "internalType": "address",
          "name": "account",
          "type": "address"
        }
      ],
      "name": "proposeNewRescuer",
      "outputs": [],
      "stateMutability": "nonpayable",
      "type": "function"
    },
    {
      "inputs": [
        {
          "internalType": "uint256",
          "name": "epochId",
          "type": "uint256"
        },
        {
          "internalType": "address",
          "name": "to",
          "type": "address"
        }
      ],
      "name": "recoverTempleGoldForZeroBidAuction",
      "outputs": [],
      "stateMutability": "nonpayable",
      "type": "function"
    },
    {
      "inputs": [
        {
          "internalType": "address",
          "name": "token",
          "type": "address"
        },
        {
          "internalType": "address",
          "name": "to",
          "type": "address"
        },
        {
          "internalType": "uint256",
          "name": "amount",
          "type": "uint256"
        }
      ],
      "name": "recoverToken",
      "outputs": [],
      "stateMutability": "nonpayable",
      "type": "function"
    },
    {
      "inputs": [],
      "name": "rescuer",
      "outputs": [
        {
          "internalType": "address",
          "name": "",
          "type": "address"
        }
      ],
      "stateMutability": "view",
      "type": "function"
    },
    {
      "inputs": [
        {
          "components": [
            {
              "internalType": "uint32",
              "name": "auctionsTimeDiff",
              "type": "uint32"
            },
            {
              "internalType": "uint32",
              "name": "auctionStartCooldown",
              "type": "uint32"
            },
            {
              "internalType": "uint192",
              "name": "auctionMinimumDistributedGold",
              "type": "uint192"
            }
          ],
          "internalType": "struct IStableGoldAuction.AuctionConfig",
          "name": "_config",
          "type": "tuple"
        }
      ],
      "name": "setAuctionConfig",
      "outputs": [],
      "stateMutability": "nonpayable",
      "type": "function"
    },
    {
      "inputs": [
        {
          "internalType": "address",
          "name": "_starter",
          "type": "address"
        }
      ],
      "name": "setAuctionStarter",
      "outputs": [],
      "stateMutability": "nonpayable",
      "type": "function"
    },
    {
      "inputs": [
        {
          "internalType": "address",
          "name": "_bidToken",
          "type": "address"
        }
      ],
      "name": "setBidToken",
      "outputs": [],
      "stateMutability": "nonpayable",
      "type": "function"
    },
    {
      "inputs": [
        {
          "internalType": "address",
          "name": "allowedCaller",
          "type": "address"
        },
        {
          "components": [
            {
              "internalType": "bytes4",
              "name": "fnSelector",
              "type": "bytes4"
            },
            {
              "internalType": "bool",
              "name": "allowed",
              "type": "bool"
            }
          ],
          "internalType": "struct ITempleElevatedAccess.ExplicitAccess[]",
          "name": "access",
          "type": "tuple[]"
        }
      ],
      "name": "setExplicitAccess",
      "outputs": [],
      "stateMutability": "nonpayable",
      "type": "function"
    },
    {
      "inputs": [
        {
          "internalType": "bool",
          "name": "value",
          "type": "bool"
        }
      ],
      "name": "setRescueMode",
      "outputs": [],
      "stateMutability": "nonpayable",
      "type": "function"
    },
    {
      "inputs": [],
      "name": "startAuction",
      "outputs": [],
      "stateMutability": "nonpayable",
      "type": "function"
    },
    {
      "inputs": [],
      "name": "templeGold",
      "outputs": [
        {
          "internalType": "contract ITempleGold",
          "name": "",
          "type": "address"
        }
      ],
      "stateMutability": "view",
      "type": "function"
    },
    {
      "inputs": [],
      "name": "treasury",
      "outputs": [
        {
          "internalType": "address",
          "name": "",
          "type": "address"
        }
      ],
      "stateMutability": "view",
      "type": "function"
    }
  ],
  "bytecode": "0x60c060405234801561001057600080fd5b5060405161322338038061322383398101604081905261002f91610157565b82826001600160a01b0382166100585760405163e6c4247b60e01b815260040160405180910390fd5b6001600160a01b03811661007f5760405163e6c4247b60e01b815260040160405180910390fd5b816001600160a01b0316816001600160a01b0316036100b15760405163e6c4247b60e01b815260040160405180910390fd5b600680546001600160a01b03199081166001600160a01b039485161790915560078054821692841692909217909155878216608052600b8054821688841617905585821660a052600c805490911691831691821790556040517f9912e2a4535169ea3ec6c9138afab89a1ba028d9534726bbedd154a25f11392c90600090a25050505050506101cb565b80516001600160a01b038116811461015257600080fd5b919050565b60008060008060008060c0878903121561017057600080fd5b6101798761013b565b95506101876020880161013b565b94506101956040880161013b565b93506101a36060880161013b565b92506101b16080880161013b565b91506101bf60a0880161013b565b90509295509295509295565b60805160a051612ffb6102286000396000818161059a0152610fc90152600081816107b201528181610e970152818161123b015281816118b301528181611b83015281816124090152818161248001526126e80152612ffb6000f3fe608060405234801561001057600080fd5b50600436106102ad5760003560e01c8063766718081161017b578063ccb51004116100d8578063e110dfda1161008c578063e78a587511610071578063e78a5875146107e7578063f0234008146107ef578063f3ed8f251461081257600080fd5b8063e110dfda146107ad578063e36977cc146107d457600080fd5b8063d9a349c1116100bd578063d9a349c11461074c578063daeccc791461075f578063dfafd4fd1461078d57600080fd5b8063ccb5100414610731578063d2fbb3cb1461073957600080fd5b8063ab1b71bd1161012f578063b3ba0e2b11610114578063b3ba0e2b146106f5578063bfccf0ec146106fe578063c34c08e51461071157600080fd5b8063ab1b71bd146106da578063aea0e78b146106ed57600080fd5b80638503ae3d116101605780638503ae3d146105e7578063a271e525146106a4578063a7229fd9146106c757600080fd5b806376671808146105d75780638112c4af146105df57600080fd5b806338a6318311610229578063501ee126116101dd57806361d027b3116101c257806361d027b314610595578063654f2fc8146105bc5780636b64c769146105cf57600080fd5b8063501ee1261461055757806355b4b1a41461056a57600080fd5b8063454a2ab31161020e578063454a2ab3146104eb578063466c01b8146104fe5780634dd6c8de1461052957600080fd5b806338a6318314610489578063396939f2146104a957600080fd5b806314e21ecf116102805780631a7d73d0116102655780631a7d73d0146104295780631f2114051461046e578063379607f51461047657600080fd5b806314e21ecf146103eb5780631810fe7f1461040c57600080fd5b8063032ef901146102b257806307f184f1146102c7578063128e771b146102da578063135022c2146102ed575b600080fd5b6102c56102c0366004612a7a565b610835565b005b6102c56102d5366004612ac0565b6108e4565b6102c56102e8366004612ac0565b610a1c565b6103866102fb366004612adb565b60408051608081018252600080825260208201819052918101829052606081019190915250600090815260016020818152604092839020835160808101855281546fffffffffffffffffffffffffffffffff80821683527001000000000000000000000000000000009091041692810192909252918201549281019290925260020154606082015290565b6040516103e2919060006080820190506fffffffffffffffffffffffffffffffff83511682526fffffffffffffffffffffffffffffffff6020840151166020830152604083015160408301526060830151606083015292915050565b60405180910390f35b6103fe6103f9366004612ac0565b610b74565b6040519081526020016103e2565b6009546104199060ff1681565b60405190151581526020016103e2565b600c546104499073ffffffffffffffffffffffffffffffffffffffff1681565b60405173ffffffffffffffffffffffffffffffffffffffff90911681526020016103e2565b6102c5610b88565b6102c5610484366004612adb565b610ca7565b6006546104499073ffffffffffffffffffffffffffffffffffffffff1681565b61041960008054815260016020526040812054427001000000000000000000000000000000009091046fffffffffffffffffffffffffffffffff161115905090565b6102c56104f9366004612adb565b610f21565b6103fe61050c366004612af4565b600260209081526000928352604080842090915290825290205481565b610419610537366004612af4565b600360209081526000928352604080842090915290825290205460ff1681565b6102c5610565366004612ac0565b611088565b6103fe610578366004612af4565b600460209081526000928352604080842090915290825290205481565b6104497f000000000000000000000000000000000000000000000000000000000000000081565b6102c56105ca366004612adb565b611223565b6102c5611317565b6000546103fe565b6102c5611686565b61065d60408051606081018252600080825260208201819052918101919091525060408051606081018252600e5463ffffffff8082168352640100000000820416602083015268010000000000000000900477ffffffffffffffffffffffffffffffffffffffffffffffff169181019190915290565b60408051825163ffffffff9081168252602080850151909116908201529181015177ffffffffffffffffffffffffffffffffffffffffffffffff16908201526060016103e2565b6106ae62093a8081565b60405167ffffffffffffffff90911681526020016103e2565b6102c56106d5366004612b1e565b6117c6565b6103fe6106e8366004612af4565b611bb2565b6103fe611cbd565b6103fe600d5481565b6102c561070c366004612b5b565b611ccc565b6007546104499073ffffffffffffffffffffffffffffffffffffffff1681565b6102c5611ec3565b6102c5610747366004612be3565b611ecd565b6102c561075a366004612ac0565b61208b565b61041961076d366004612c2e565b600860209081526000928352604080842090915290825290205460ff1681565b600b546104499073ffffffffffffffffffffffffffffffffffffffff1681565b6104497f000000000000000000000000000000000000000000000000000000000000000081565b6102c56107e2366004612c61565b6121d0565b6104196124ad565b6103fe6107fd366004612adb565b60009081526001602052604090206002015490565b610419610820366004612adb565b60056020526000908152604090205460ff1681565b60065473ffffffffffffffffffffffffffffffffffffffff163314610886576040517fc0185c6400000000000000000000000000000000000000000000000000000000815260040160405180910390fd5b604051811515907f18f4a9a726c72020fd959c636d2fd464c6cefe90afeaea3c830b971614cf70b690600090a2600980547fffffffffffffffffffffffffffffffffffffffffffffffffffffffffffffff0016911515919091179055565b60065473ffffffffffffffffffffffffffffffffffffffff163314610935576040517fc0185c6400000000000000000000000000000000000000000000000000000000815260040160405180910390fd5b73ffffffffffffffffffffffffffffffffffffffff8116610982576040517fe6c4247b00000000000000000000000000000000000000000000000000000000815260040160405180910390fd5b60095460405173ffffffffffffffffffffffffffffffffffffffff808416926101009004169033907f374d23b359cab0f8963c5c1715a6de7974f53af00aecc27de50d93906b70943e90600090a46009805473ffffffffffffffffffffffffffffffffffffffff909216610100027fffffffffffffffffffffff0000000000000000000000000000000000000000ff909216919091179055565b610a4a336000357fffffffff00000000000000000000000000000000000000000000000000000000166124c5565b610a80576040517fc0185c6400000000000000000000000000000000000000000000000000000000815260040160405180910390fd5b600c80547fffffffffffffffffffffffff00000000000000000000000000000000000000001673ffffffffffffffffffffffffffffffffffffffff831617905560008054815260016020526040902054427001000000000000000000000000000000009091046fffffffffffffffffffffffffffffffff161115610b30576040517f398d4d3200000000000000000000000000000000000000000000000000000000815260040160405180910390fd5b60405173ffffffffffffffffffffffffffffffffffffffff8216907f9912e2a4535169ea3ec6c9138afab89a1ba028d9534726bbedd154a25f11392c90600090a250565b6000610b8282600054611bb2565b92915050565b600a5473ffffffffffffffffffffffffffffffffffffffff163314610bd9576040517fc0185c6400000000000000000000000000000000000000000000000000000000815260040160405180910390fd5b60065473ffffffffffffffffffffffffffffffffffffffff163303610c2a576040517fe6c4247b00000000000000000000000000000000000000000000000000000000815260040160405180910390fd5b600754604051339173ffffffffffffffffffffffffffffffffffffffff16907fe963dc9c0d2165b080440a5d2665566142f2426b1ea15f3da8390b0fd336b06490600090a3600780547fffffffffffffffffffffffff00000000000000000000000000000000000000009081163317909155600a80549091169055565b60008181526001602052604090208054427001000000000000000000000000000000009091046fffffffffffffffffffffffffffffffff161115610d1f576040517fbf009dab000000000000000000000000000000000000000000000000000000008152600481018390526024015b60405180910390fd5b80546fffffffffffffffffffffffffffffffff16600003610d6c576040517fd5b25b6300000000000000000000000000000000000000000000000000000000815260040160405180910390fd5b33600090815260036020908152604080832085845290915290205460ff1615610dc1576040517f646cf55800000000000000000000000000000000000000000000000000000000815260040160405180910390fd5b33600090815260026020908152604080832085845290915281205490819003610e16576040517f54db0c8c00000000000000000000000000000000000000000000000000000000815260040160405180910390fd5b336000908152600360209081526040808320868452909152812080547fffffffffffffffffffffffffffffffffffffffffffffffffffffffffffffff00166001908117909155600284015490840154610e7191849184612588565b3360008181526004602090815260408083208984529091529020829055909150610ed3907f000000000000000000000000000000000000000000000000000000000000000073ffffffffffffffffffffffffffffffffffffffff1690836125cf565b604080518581526020810184905290810182905233907f45c072aa05b9853b5a993de7a28bc332ee01404a628cec1a23ce0f659f842ef19060600160405180910390a250505050565b905090565b600080548152600160205260409020610f3990612650565b610f6f576040517f65ca8f5400000000000000000000000000000000000000000000000000000000815260040160405180910390fd5b80600003610fa9576040517f54db0c8c00000000000000000000000000000000000000000000000000000000815260040160405180910390fd5b600b54610fee9073ffffffffffffffffffffffffffffffffffffffff16337f0000000000000000000000000000000000000000000000000000000000000000846126a0565b60008054338252600260209081526040808420838552909152822080549192849261101a908490612cb3565b909155505060008181526001602081905260408220908101805491928592611043908490612cb3565b9091555050604080518381526020810185905233917f90890809c654f11d6e72a28fa60149770a0d11ec6c92319d6ceb2bb0a4ea1a15910160405180910390a2505050565b6110b6336000357fffffffff00000000000000000000000000000000000000000000000000000000166124c5565b6110ec576040517fc0185c6400000000000000000000000000000000000000000000000000000000815260040160405180910390fd5b73ffffffffffffffffffffffffffffffffffffffff8116611139576040517fe6c4247b00000000000000000000000000000000000000000000000000000000815260040160405180910390fd5b60008054815260016020526040902054427001000000000000000000000000000000009091046fffffffffffffffffffffffffffffffff1611156111a9576040517f398d4d3200000000000000000000000000000000000000000000000000000000815260040160405180910390fd5b600b80547fffffffffffffffffffffffff00000000000000000000000000000000000000001673ffffffffffffffffffffffffffffffffffffffff83169081179091556040519081527f24e72a08217d19828f258be09f53f19295e0b24dbd7d8f168403e54e88af5bc9906020015b60405180910390a150565b3373ffffffffffffffffffffffffffffffffffffffff7f000000000000000000000000000000000000000000000000000000000000000016148015906112945750611292336000357fffffffff00000000000000000000000000000000000000000000000000000000166124c5565b155b156112cb576040517fc0185c6400000000000000000000000000000000000000000000000000000000815260040160405180910390fd5b80600d60008282546112dd9190612cb3565b9091555050604080518281524260208201527f1e215fdd40f0b4854c5a2b2cfe53859ca232f085a5b129c9f65b6bfeb094c5e49101611218565b600c5473ffffffffffffffffffffffffffffffffffffffff16158015906113565750600c5473ffffffffffffffffffffffffffffffffffffffff163314155b1561138d576040517fc0185c6400000000000000000000000000000000000000000000000000000000815260040160405180910390fd5b60008054808252600160205260409091208054427001000000000000000000000000000000009091046fffffffffffffffffffffffffffffffff161115611400576040517ffcd189b500000000000000000000000000000000000000000000000000000000815260040160405180910390fd5b600e821580159061145e575080548254429161144a9163ffffffff9091169070010000000000000000000000000000000090046fffffffffffffffffffffffffffffffff16612cc6565b6fffffffffffffffffffffffffffffffff16115b15611495576040517ffcd189b500000000000000000000000000000000000000000000000000000000815260040160405180910390fd5b805468010000000000000000900477ffffffffffffffffffffffffffffffffffffffffffffffff166000036114f6576040517f54db0c8c00000000000000000000000000000000000000000000000000000000815260040160405180910390fd5b6114fe6126e6565b600d805460009182905590611514856001612cb3565b6000819055835490915068010000000000000000900477ffffffffffffffffffffffffffffffffffffffffffffffff16821015611580576040517fd1c6fee000000000000000000000000000000000000000000000000000000000815260048101839052602401610d16565b60008181526001602052604081206002810184905584549091906115b290640100000000900463ffffffff1642612cc6565b82547fffffffffffffffffffffffffffffffff00000000000000000000000000000000166fffffffffffffffffffffffffffffffff8216178355905060006115fd62093a8083612cc6565b83546fffffffffffffffffffffffffffffffff9081167001000000000000000000000000000000008383169081029190911786556040805188815292861660208401528201526060810187905290915033907f2f0e07e2baf6351377b2a46b5ccf5cd22b494921f870da223157659e174918f99060800160405180910390a25050505050505050565b600954610100900473ffffffffffffffffffffffffffffffffffffffff1633146116dc576040517fc0185c6400000000000000000000000000000000000000000000000000000000815260040160405180910390fd5b60075473ffffffffffffffffffffffffffffffffffffffff16330361172d576040517fe6c4247b00000000000000000000000000000000000000000000000000000000815260040160405180910390fd5b600654604051339173ffffffffffffffffffffffffffffffffffffffff16907ff07131157ebea15896dc89264eb9a7572e67cc9fad6b855015730fcec10704e090600090a3600680547fffffffffffffffffffffffff00000000000000000000000000000000000000001633179055600980547fffffffffffffffffffffff0000000000000000000000000000000000000000ff169055565b6117f4336000357fffffffff00000000000000000000000000000000000000000000000000000000166124c5565b61182a576040517fc0185c6400000000000000000000000000000000000000000000000000000000815260040160405180910390fd5b73ffffffffffffffffffffffffffffffffffffffff8216611877576040517fe6c4247b00000000000000000000000000000000000000000000000000000000815260040160405180910390fd5b806000036118b1576040517f54db0c8c00000000000000000000000000000000000000000000000000000000815260040160405180910390fd5b7f000000000000000000000000000000000000000000000000000000000000000073ffffffffffffffffffffffffffffffffffffffff168373ffffffffffffffffffffffffffffffffffffffff1614611991578273ffffffffffffffffffffffffffffffffffffffff168273ffffffffffffffffffffffffffffffffffffffff167f879f92dded0f26b83c3e00b12e0395dc72cfc3077343d1854ed6988edd1f90968360405161196391815260200190565b60405180910390a361198c73ffffffffffffffffffffffffffffffffffffffff841683836125cf565b505050565b600080548082526001602052604082208054919290916fffffffffffffffffffffffffffffffff1690036119f1576040517f398d4d3200000000000000000000000000000000000000000000000000000000815260040160405180910390fd5b6119fa81612650565b15611a31576040517fb37f700600000000000000000000000000000000000000000000000000000000815260040160405180910390fd5b8054427001000000000000000000000000000000009091046fffffffffffffffffffffffffffffffff1611611a92576040517fa0e9298400000000000000000000000000000000000000000000000000000000815260040160405180910390fd5b600281015480841115611af0576040517fb2b3b53b00000000000000000000000000000000000000000000000000000000815273ffffffffffffffffffffffffffffffffffffffff8716600482015260248101859052604401610d16565b6000838152600160208181526040808420848155928301849055600290920192909255600d80548785030190555185815273ffffffffffffffffffffffffffffffffffffffff88811692908816917f879f92dded0f26b83c3e00b12e0395dc72cfc3077343d1854ed6988edd1f9096910160405180910390a3611baa73ffffffffffffffffffffffffffffffffffffffff7f00000000000000000000000000000000000000000000000000000000000000001686866125cf565b505050505050565b73ffffffffffffffffffffffffffffffffffffffff8216600090815260036020908152604080832084845290915281205460ff1615611bf357506000610b82565b73ffffffffffffffffffffffffffffffffffffffff83166000908152600260209081526040808320858452909152902054801580611c32575060005483115b15611c41576000915050610b82565b6000838152600160208181526040808420815160808101835281546fffffffffffffffffffffffffffffffff8082168352700100000000000000000000000000000000909104169381019390935292830154908201819052600290920154606082018190529092611cb492859291612588565b95945050505050565b60008054610f1c906001612cb3565b611cfa336000357fffffffff00000000000000000000000000000000000000000000000000000000166124c5565b611d30576040517fc0185c6400000000000000000000000000000000000000000000000000000000815260040160405180910390fd5b73ffffffffffffffffffffffffffffffffffffffff8316611d7d576040517fe6c4247b00000000000000000000000000000000000000000000000000000000815260040160405180910390fd5b6040805180820190915260008082526020820152819060005b82811015611baa57848482818110611db057611db0612cee565b905060400201803603810190611dc69190612d1d565b91508160200151151582600001517bffffffffffffffffffffffffffffffffffffffffffffffffffffffff19168773ffffffffffffffffffffffffffffffffffffffff167ff5736e75de2c751f775d4c5ed517289f77074f8c337f451ba4c0c3ed1dd7f9ad60405160405180910390a460208281015173ffffffffffffffffffffffffffffffffffffffff8816600090815260088352604080822086517fffffffff000000000000000000000000000000000000000000000000000000001683529093529190912080547fffffffffffffffffffffffffffffffffffffffffffffffffffffffffffffff0016911515919091179055600101611d96565b611ecb6126e6565b565b611efb336000357fffffffff00000000000000000000000000000000000000000000000000000000166124c5565b611f31576040517fc0185c6400000000000000000000000000000000000000000000000000000000815260040160405180910390fd5b611f416040820160208301612db5565b63ffffffff161580611f7a5750611f5e6060820160408301612df8565b77ffffffffffffffffffffffffffffffffffffffffffffffff16155b80611f955750611f8d6020820182612db5565b63ffffffff16155b15611fcc576040517f54db0c8c00000000000000000000000000000000000000000000000000000000815260040160405180910390fd5b600080548082526001602052604090912054427001000000000000000000000000000000009091046fffffffffffffffffffffffffffffffff16111561203e576040517f398d4d3200000000000000000000000000000000000000000000000000000000815260040160405180910390fd5b81600e61204b8282612e15565b9050507f0ae1772a552aa48ab7e8bf58c335b3d4ce981b3d6c928f90d69a58f0f28d75fe818360405161207f929190612eda565b60405180910390a15050565b6120b9336000357fffffffff00000000000000000000000000000000000000000000000000000000166124c5565b6120ef576040517fc0185c6400000000000000000000000000000000000000000000000000000000815260040160405180910390fd5b73ffffffffffffffffffffffffffffffffffffffff811661213c576040517fe6c4247b00000000000000000000000000000000000000000000000000000000815260040160405180910390fd5b600a5460075460405173ffffffffffffffffffffffffffffffffffffffff8085169381169216907f4857570a90fe0a0fc580e89a287e77576141ac8e2e8b3710cd26db44f44156c190600090a4600a80547fffffffffffffffffffffffff00000000000000000000000000000000000000001673ffffffffffffffffffffffffffffffffffffffff92909216919091179055565b6121fe336000357fffffffff00000000000000000000000000000000000000000000000000000000166124c5565b612234576040517fc0185c6400000000000000000000000000000000000000000000000000000000815260040160405180910390fd5b73ffffffffffffffffffffffffffffffffffffffff8116612281576040517fe6c4247b00000000000000000000000000000000000000000000000000000000815260040160405180910390fd5b6000548211156122bd576040517fd5b25b6300000000000000000000000000000000000000000000000000000000815260040160405180910390fd5b60008281526005602052604090205460ff1615612306576040517f3e49310000000000000000000000000000000000000000000000000000000000815260040160405180910390fd5b60008281526001602052604090208054427001000000000000000000000000000000009091046fffffffffffffffffffffffffffffffff161115612376576040517fb37f700600000000000000000000000000000000000000000000000000000000815260040160405180910390fd5b6001810154156123b2576040517f398d4d3200000000000000000000000000000000000000000000000000000000815260040160405180910390fd5b6000838152600560205260409081902080547fffffffffffffffffffffffffffffffffffffffffffffffffffffffffffffff001660011790556002820154905173ffffffffffffffffffffffffffffffffffffffff7f0000000000000000000000000000000000000000000000000000000000000000811691908516907f879f92dded0f26b83c3e00b12e0395dc72cfc3077343d1854ed6988edd1f90969061245e9085815260200190565b60405180910390a36124a773ffffffffffffffffffffffffffffffffffffffff7f00000000000000000000000000000000000000000000000000000000000000001684836125cf565b50505050565b600080548152600160205260408120610f1c90612650565b60095460009060ff16156124f7575060065473ffffffffffffffffffffffffffffffffffffffff838116911614610b82565b60075473ffffffffffffffffffffffffffffffffffffffff84811691161480612572575073ffffffffffffffffffffffffffffffffffffffff831660009081526008602090815260408083207fffffffff000000000000000000000000000000000000000000000000000000008616845290915290205460ff165b1561257f57506001610b82565b50600092915050565b6000612595858585612762565b90508180156125b45750600083806125af576125af612f4a565b858709115b156125c7576125c4600182612cb3565b90505b949350505050565b60405173ffffffffffffffffffffffffffffffffffffffff83811660248301526044820183905261198c91859182169063a9059cbb906064015b604051602081830303815290604052915060e01b6020820180517bffffffffffffffffffffffffffffffffffffffffffffffffffffffff8381831617835250505050612873565b8054600090426fffffffffffffffffffffffffffffffff90911611801590610b825750505470010000000000000000000000000000000090046fffffffffffffffffffffffffffffffff16421090565b60405173ffffffffffffffffffffffffffffffffffffffff84811660248301528381166044830152606482018390526124a79186918216906323b872dd90608401612609565b7f000000000000000000000000000000000000000000000000000000000000000073ffffffffffffffffffffffffffffffffffffffff16631249c58b6040518163ffffffff1660e01b8152600401600060405180830381600087803b15801561274e57600080fd5b505af11580156124a7573d6000803e3d6000fd5b600080807fffffffffffffffffffffffffffffffffffffffffffffffffffffffffffffffff858709858702925082811083820303915050806000036127ba578382816127b0576127b0612f4a565b049250505061286c565b838110612804576040517f63a05778000000000000000000000000000000000000000000000000000000008152600481018790526024810186905260448101859052606401610d16565b600084868809851960019081018716968790049682860381900495909211909303600082900391909104909201919091029190911760038402600290811880860282030280860282030280860282030280860282030280860282030280860290910302029150505b9392505050565b600061289573ffffffffffffffffffffffffffffffffffffffff841683612909565b905080516000141580156128ba5750808060200190518101906128b89190612f79565b155b1561198c576040517f5274afe700000000000000000000000000000000000000000000000000000000815273ffffffffffffffffffffffffffffffffffffffff84166004820152602401610d16565b606061286c83836000846000808573ffffffffffffffffffffffffffffffffffffffff16848660405161293c9190612f96565b60006040518083038185875af1925050503d8060008114612979576040519150601f19603f3d011682016040523d82523d6000602084013e61297e565b606091505b509150915061298e868383612998565b9695505050505050565b6060826129ad576129a882612a27565b61286c565b81511580156129d1575073ffffffffffffffffffffffffffffffffffffffff84163b155b15612a20576040517f9996b31500000000000000000000000000000000000000000000000000000000815273ffffffffffffffffffffffffffffffffffffffff85166004820152602401610d16565b508061286c565b805115612a375780518082602001fd5b6040517f1425ea4200000000000000000000000000000000000000000000000000000000815260040160405180910390fd5b50565b8015158114612a6957600080fd5b600060208284031215612a8c57600080fd5b813561286c81612a6c565b803573ffffffffffffffffffffffffffffffffffffffff81168114612abb57600080fd5b919050565b600060208284031215612ad257600080fd5b61286c82612a97565b600060208284031215612aed57600080fd5b5035919050565b60008060408385031215612b0757600080fd5b612b1083612a97565b946020939093013593505050565b600080600060608486031215612b3357600080fd5b612b3c84612a97565b9250612b4a60208501612a97565b929592945050506040919091013590565b600080600060408486031215612b7057600080fd5b612b7984612a97565b9250602084013567ffffffffffffffff811115612b9557600080fd5b8401601f81018613612ba657600080fd5b803567ffffffffffffffff811115612bbd57600080fd5b8660208260061b8401011115612bd257600080fd5b939660209190910195509293505050565b60006060828403128015612bf657600080fd5b509092915050565b80357fffffffff0000000000000000000000000000000000000000000000000000000081168114612abb57600080fd5b60008060408385031215612c4157600080fd5b612c4a83612a97565b9150612c5860208401612bfe565b90509250929050565b60008060408385031215612c7457600080fd5b82359150612c5860208401612a97565b7f4e487b7100000000000000000000000000000000000000000000000000000000600052601160045260246000fd5b80820180821115610b8257610b82612c84565b6fffffffffffffffffffffffffffffffff8181168382160190811115610b8257610b82612c84565b7f4e487b7100000000000000000000000000000000000000000000000000000000600052603260045260246000fd5b60006040828403128015612d3057600080fd5b506040805190810167ffffffffffffffff81118282101715612d7b577f4e487b7100000000000000000000000000000000000000000000000000000000600052604160045260246000fd5b604052612d8783612bfe565b81526020830135612d9781612a6c565b60208201529392505050565b63ffffffff81168114612a6957600080fd5b600060208284031215612dc757600080fd5b813561286c81612da3565b77ffffffffffffffffffffffffffffffffffffffffffffffff81168114612a6957600080fd5b600060208284031215612e0a57600080fd5b813561286c81612dd2565b8135612e2081612da3565b63ffffffff811690508154817fffffffffffffffffffffffffffffffffffffffffffffffffffffffff0000000082161783556020840135612e6081612da3565b67ffffffff000000008160201b16905080837fffffffffffffffffffffffffffffffffffffffffffffffff000000000000000084161717845560408501359150612ea982612dd2565b90911760409190911b7fffffffffffffffffffffffffffffffffffffffffffffffff00000000000000001617905550565b828152608081018235612eec81612da3565b63ffffffff81166020840152506020830135612f0781612da3565b63ffffffff81166040840152506040830135612f2281612dd2565b77ffffffffffffffffffffffffffffffffffffffffffffffff81166060840152509392505050565b7f4e487b7100000000000000000000000000000000000000000000000000000000600052601260045260246000fd5b600060208284031215612f8b57600080fd5b815161286c81612a6c565b6000825160005b81811015612fb75760208186018101518583015201612f9d565b50600092019182525091905056fea2646970667358221220f04074cfc1c336c5b34bf043ca300f3519398aac60ec08f02ec5e7f842a2de9e64736f6c634300081c0033",
  "linkReferences": {},
  "deployedLinkReferences": {}
}