{
  "_format": "hh-sol-artifact-1",
  "contractName": "VaultProxy",
  "sourceName": "contracts/core/VaultProxy.sol",
  "abi": [
    {
      "inputs": [
        {
          "internalType": "contract OGTemple",
          "name": "_ogTemple",
          "type": "address"
        },
        {
          "internalType": "contract IERC20",
          "name": "_temple",
          "type": "address"
        },
        {
          "internalType": "contract TempleStaking",
          "name": "_templeStaking",
          "type": "address"
        },
        {
          "internalType": "contract Faith",
          "name": "_faith",
          "type": "address"
        }
      ],
      "stateMutability": "nonpayable",
      "type": "constructor"
    },
    {
      "anonymous": false,
      "inputs": [
        {
          "indexed": true,
          "internalType": "address",
          "name": "previousOwner",
          "type": "address"
        },
        {
          "indexed": true,
          "internalType": "address",
          "name": "newOwner",
          "type": "address"
        }
      ],
      "name": "OwnershipTransferred",
      "type": "event"
    },
    {
      "inputs": [
        {
          "internalType": "uint256",
          "name": "_amount",
          "type": "uint256"
        },
        {
          "internalType": "contract Vault",
          "name": "vault",
          "type": "address"
        }
      ],
      "name": "depositTempleFor",
      "outputs": [],
      "stateMutability": "nonpayable",
      "type": "function"
    },
    {
      "inputs": [
        {
          "internalType": "uint256",
          "name": "_amountTemple",
          "type": "uint256"
        },
        {
          "internalType": "uint112",
          "name": "_amountFaith",
          "type": "uint112"
        },
        {
          "internalType": "contract Vault",
          "name": "vault",
          "type": "address"
        }
      ],
      "name": "depositTempleWithFaith",
      "outputs": [],
      "stateMutability": "nonpayable",
      "type": "function"
    },
    {
      "inputs": [],
      "name": "faith",
      "outputs": [
        {
          "internalType": "contract Faith",
          "name": "",
          "type": "address"
        }
      ],
      "stateMutability": "view",
      "type": "function"
    },
    {
      "inputs": [],
      "name": "faithClaimEnabled",
      "outputs": [
        {
          "internalType": "bool",
          "name": "",
          "type": "bool"
        }
      ],
      "stateMutability": "view",
      "type": "function"
    },
    {
      "inputs": [
        {
          "internalType": "uint256",
          "name": "_amountFaith",
          "type": "uint256"
        },
        {
          "internalType": "uint256",
          "name": "_amountTemple",
          "type": "uint256"
        }
      ],
      "name": "getFaithMultiplier",
      "outputs": [
        {
          "internalType": "uint256",
          "name": "",
          "type": "uint256"
        }
      ],
      "stateMutability": "pure",
      "type": "function"
    },
    {
      "inputs": [],
      "name": "ogTemple",
      "outputs": [
        {
          "internalType": "contract IERC20",
          "name": "",
          "type": "address"
        }
      ],
      "stateMutability": "view",
      "type": "function"
    },
    {
      "inputs": [],
      "name": "owner",
      "outputs": [
        {
          "internalType": "address",
          "name": "",
          "type": "address"
        }
      ],
      "stateMutability": "view",
      "type": "function"
    },
    {
      "inputs": [],
      "name": "renounceOwnership",
      "outputs": [],
      "stateMutability": "nonpayable",
      "type": "function"
    },
    {
      "inputs": [],
      "name": "temple",
      "outputs": [
        {
          "internalType": "contract IERC20",
          "name": "",
          "type": "address"
        }
      ],
      "stateMutability": "view",
      "type": "function"
    },
    {
      "inputs": [],
      "name": "templeStaking",
      "outputs": [
        {
          "internalType": "contract TempleStaking",
          "name": "",
          "type": "address"
        }
      ],
      "stateMutability": "view",
      "type": "function"
    },
    {
      "inputs": [],
      "name": "toggleFaithClaimEnabled",
      "outputs": [],
      "stateMutability": "nonpayable",
      "type": "function"
    },
    {
      "inputs": [
        {
          "internalType": "address",
          "name": "newOwner",
          "type": "address"
        }
      ],
      "name": "transferOwnership",
      "outputs": [],
      "stateMutability": "nonpayable",
      "type": "function"
    },
    {
      "inputs": [
        {
          "internalType": "uint256",
          "name": "_amountOGT",
          "type": "uint256"
        },
        {
          "internalType": "contract Vault",
          "name": "vault",
          "type": "address"
        }
      ],
      "name": "unstakeAndDepositIntoVault",
      "outputs": [],
      "stateMutability": "nonpayable",
      "type": "function"
    },
    {
      "inputs": [
        {
          "internalType": "uint256",
          "name": "_amountOGT",
          "type": "uint256"
        },
        {
          "internalType": "uint112",
          "name": "_amountFaith",
          "type": "uint112"
        },
        {
          "internalType": "contract Vault",
          "name": "vault",
          "type": "address"
        }
      ],
      "name": "unstakeAndDepositTempleWithFaith",
      "outputs": [],
      "stateMutability": "nonpayable",
      "type": "function"
    },
    {
      "inputs": [
        {
          "internalType": "address",
          "name": "token",
          "type": "address"
        },
        {
          "internalType": "address",
          "name": "to",
          "type": "address"
        },
        {
          "internalType": "uint256",
          "name": "amount",
          "type": "uint256"
        }
      ],
      "name": "withdraw",
      "outputs": [],
      "stateMutability": "nonpayable",
      "type": "function"
    }
  ],
  "bytecode": "0x6101006040523480156200001257600080fd5b5060405162002a9938038062002a998339810160408190526200003591620000df565b620000403362000076565b6001600160a01b0393841660805291831660a052821660c0521660e0526000805460ff60a01b1916600160a01b17905562000147565b600080546001600160a01b038381166001600160a01b0319831681178455604051919092169283917f8be0079c531659141344cd1fd0a4f28419497f9722a3daafe3b4186f6b6457e09190a35050565b6001600160a01b0381168114620000dc57600080fd5b50565b60008060008060808587031215620000f657600080fd5b84516200010381620000c6565b60208601519094506200011681620000c6565b60408601519093506200012981620000c6565b60608601519092506200013c81620000c6565b939692955090935050565b60805160a05160c05160e0516128b7620001e26000396000818161019a0152818161048c01526108b501526000818160ff01528181611f5c015261209001526000818161021b015281816102bd015281816102e8015281816105200152818161054c0152818161095601528181610a1b01528181611fde015261213101526000818161029601528181611f3b0152611f8601526128b76000f3fe608060405234801561001057600080fd5b50600436106100f55760003560e01c80638da5cb5b11610097578063c852f2cd11610066578063c852f2cd14610258578063d9caed121461026b578063f2fde38b1461027e578063fa949e021461029157600080fd5b80638da5cb5b146101f857806397cd9a34146102165780639ceaf48e1461023d578063ab1db0391461024557600080fd5b80636e5640c6116100d35780636e5640c6146101955780636f1ae0ab146101bc578063715018a6146101cf578063773eb42e146101d757600080fd5b80631138a22d146100fa578063637fc0a51461014b578063695957c414610180575b600080fd5b6101217f000000000000000000000000000000000000000000000000000000000000000081565b60405173ffffffffffffffffffffffffffffffffffffffff90911681526020015b60405180910390f35b6000546101709074010000000000000000000000000000000000000000900460ff1681565b6040519015158152602001610142565b61019361018e3660046125fd565b6102b8565b005b6101217f000000000000000000000000000000000000000000000000000000000000000081565b6101936101ca36600461262d565b610399565b6101936105fe565b6101ea6101e5366004612682565b610612565b604051908152602001610142565b60005473ffffffffffffffffffffffffffffffffffffffff16610121565b6101217f000000000000000000000000000000000000000000000000000000000000000081565b610193610772565b61019361025336600461262d565b6107c7565b6101936102663660046125fd565b610a09565b6101936102793660046126a4565b610acc565b61019361028c3660046126e5565b610c4c565b6101217f000000000000000000000000000000000000000000000000000000000000000081565b6102e37f00000000000000000000000000000000000000000000000000000000000000008284610d03565b61030f7f0000000000000000000000000000000000000000000000000000000000000000333085610e7a565b6040517f2f4f21e20000000000000000000000000000000000000000000000000000000081523360048201526024810183905273ffffffffffffffffffffffffffffffffffffffff821690632f4f21e290604401600060405180830381600087803b15801561037d57600080fd5b505af1158015610391573d6000803e3d6000fd5b505050505050565b60005474010000000000000000000000000000000000000000900460ff16610448576040517f08c379a000000000000000000000000000000000000000000000000000000000815260206004820152602960248201527f5661756c7450726f78793a20466169746820636c61696d206e6f206c6f6e676560448201527f7220656e61626c6564000000000000000000000000000000000000000000000060648201526084015b60405180910390fd5b6040517f3a847cb20000000000000000000000000000000000000000000000000000000081523360048201526dffffffffffffffffffffffffffff831660248201527f000000000000000000000000000000000000000000000000000000000000000073ffffffffffffffffffffffffffffffffffffffff1690633a847cb290604401600060405180830381600087803b1580156104e557600080fd5b505af11580156104f9573d6000803e3d6000fd5b505050506000610519836dffffffffffffffffffffffffffff1685610612565b90506105477f0000000000000000000000000000000000000000000000000000000000000000333087610e7a565b6105727f00000000000000000000000000000000000000000000000000000000000000008383610d03565b6040517f2f4f21e20000000000000000000000000000000000000000000000000000000081523360048201526024810182905273ffffffffffffffffffffffffffffffffffffffff831690632f4f21e290604401600060405180830381600087803b1580156105e057600080fd5b505af11580156105f4573d6000803e3d6000fd5b5050505050505050565b610606610ed8565b6106106000610f59565b565b60008061061e84610fce565b9050600061062b84610fce565b905060006106ba61068861065f7f40004000000000000000000000000000000000000000000000000000000000008561103c565b7fffffffffffffffffffffffffffffffff0000000000000000000000000000000086169061148e565b6106926001610fce565b7fffffffffffffffffffffffffffffffff0000000000000000000000000000000016906118b5565b905060007fffffffffffffffffffffffffffffffff0000000000000000000000000000000082167f3fff4ccccccccccccccccccccccccccc000000000000000000000000000000001061070d578161072f565b7f3fff4ccccccccccccccccccccccccccc000000000000000000000000000000005b90506107656107607fffffffffffffffffffffffffffffffff0000000000000000000000000000000085168361103c565b611e75565b9450505050505b92915050565b61077a610ed8565b600080547fffffffffffffffffffffff00ffffffffffffffffffffffffffffffffffffffff8116740100000000000000000000000000000000000000009182900460ff1615909102179055565b60005474010000000000000000000000000000000000000000900460ff16610871576040517f08c379a000000000000000000000000000000000000000000000000000000000815260206004820152602960248201527f5661756c7450726f78793a20466169746820636c61696d206e6f206c6f6e676560448201527f7220656e61626c65640000000000000000000000000000000000000000000000606482015260840161043f565b6040517f3a847cb20000000000000000000000000000000000000000000000000000000081523360048201526dffffffffffffffffffffffffffff831660248201527f000000000000000000000000000000000000000000000000000000000000000073ffffffffffffffffffffffffffffffffffffffff1690633a847cb290604401600060405180830381600087803b15801561090e57600080fd5b505af1158015610922573d6000803e3d6000fd5b50505050600061093184611f34565b9050600061094f846dffffffffffffffffffffffffffff1683610612565b905061097c7f00000000000000000000000000000000000000000000000000000000000000008483610d03565b6040517f2f4f21e20000000000000000000000000000000000000000000000000000000081523360048201526024810182905273ffffffffffffffffffffffffffffffffffffffff841690632f4f21e290604401600060405180830381600087803b1580156109ea57600080fd5b505af11580156109fe573d6000803e3d6000fd5b505050505050505050565b6000610a1483611f34565b9050610a417f00000000000000000000000000000000000000000000000000000000000000008383610d03565b6040517f2f4f21e20000000000000000000000000000000000000000000000000000000081523360048201526024810182905273ffffffffffffffffffffffffffffffffffffffff831690632f4f21e290604401600060405180830381600087803b158015610aaf57600080fd5b505af1158015610ac3573d6000803e3d6000fd5b50505050505050565b610ad4610ed8565b73ffffffffffffffffffffffffffffffffffffffff8216610b51576040517f08c379a000000000000000000000000000000000000000000000000000000000815260206004820152600f60248201527f746f2061646472657373207a65726f0000000000000000000000000000000000604482015260640161043f565b73ffffffffffffffffffffffffffffffffffffffff8316610c3c5760008273ffffffffffffffffffffffffffffffffffffffff168260405160006040518083038185875af1925050503d8060008114610bc6576040519150601f19603f3d011682016040523d82523d6000602084013e610bcb565b606091505b5050905080610c36576040517f08c379a000000000000000000000000000000000000000000000000000000000815260206004820152600b60248201527f73656e64206661696c6564000000000000000000000000000000000000000000604482015260640161043f565b50505050565b610c47838383612255565b505050565b610c54610ed8565b73ffffffffffffffffffffffffffffffffffffffff8116610cf7576040517f08c379a000000000000000000000000000000000000000000000000000000000815260206004820152602660248201527f4f776e61626c653a206e6577206f776e657220697320746865207a65726f206160448201527f6464726573730000000000000000000000000000000000000000000000000000606482015260840161043f565b610d0081610f59565b50565b6040517fdd62ed3e00000000000000000000000000000000000000000000000000000000815230600482015273ffffffffffffffffffffffffffffffffffffffff83811660248301526000919085169063dd62ed3e90604401602060405180830381865afa158015610d79573d6000803e3d6000fd5b505050506040513d601f19601f82011682018060405250810190610d9d9190612702565b9050610c36847f095ea7b30000000000000000000000000000000000000000000000000000000085610dcf868661274a565b60405173ffffffffffffffffffffffffffffffffffffffff909216602483015260448201526064015b604080517fffffffffffffffffffffffffffffffffffffffffffffffffffffffffffffffe08184030181529190526020810180517bffffffffffffffffffffffffffffffffffffffffffffffffffffffff167fffffffff00000000000000000000000000000000000000000000000000000000909316929092179091526122ab565b60405173ffffffffffffffffffffffffffffffffffffffff80851660248301528316604482015260648101829052610c369085907f23b872dd0000000000000000000000000000000000000000000000000000000090608401610df8565b60005473ffffffffffffffffffffffffffffffffffffffff163314610610576040517f08c379a000000000000000000000000000000000000000000000000000000000815260206004820181905260248201527f4f776e61626c653a2063616c6c6572206973206e6f7420746865206f776e6572604482015260640161043f565b6000805473ffffffffffffffffffffffffffffffffffffffff8381167fffffffffffffffffffffffff0000000000000000000000000000000000000000831681178455604051919092169283917f8be0079c531659141344cd1fd0a4f28419497f9722a3daafe3b4186f6b6457e09190a35050565b600081600003610fe057506000919050565b816000610fec826123ba565b90506070811015611005578060700382901b9150611018565b6070811115611018576070810382901c91505b613fff0160701b6dffffffffffffffffffffffffffff919091161760801b92915050565b6000617fff60f084811c8216919084901c8116908290036111bc5780617fff0361113a577fffffffffffffffffffffffffffffffff00000000000000000000000000000000808516908616036110b9575050507f80000000000000000000000000000000000000000000000000000000000000008116821861076c565b7fffffffffffffffffffffffffffffffff00000000000000000000000000000000858518167f80000000000000000000000000000000000000000000000000000000000000000361110f5750505081811761076c565b507f7fff800000000000000000000000000000000000000000000000000000000000915061076c9050565b7f7fffffffffffffffffffffffffffffff00000000000000000000000000000000841660000361118f57507f7fff800000000000000000000000000000000000000000000000000000000000915061076c9050565b5050507f80000000000000000000000000000000000000000000000000000000000000008116821861076c565b80617fff03611247577f7fffffffffffffffffffffffffffffff00000000000000000000000000000000851660000361121a57507f7fff800000000000000000000000000000000000000000000000000000000000915061076c9050565b5050507f80000000000000000000000000000000000000000000000000000000000000008216811861076c565b6dffffffffffffffffffffffffffff608086901c16600083900361126e5760019250611280565b6e010000000000000000000000000000175b6dffffffffffffffffffffffffffff608086901c1660008390036112a757600192506112b9565b6e010000000000000000000000000000175b808202915081600003611323577f8000000000000000000000000000000000000000000000000000000000000000878718166112f6576000611318565b7f80000000000000000000000000000000000000000000000000000000000000005b94505050505061076c565b9282019260007c0200000000000000000000000000000000000000000000000000000000831015611388577c01000000000000000000000000000000000000000000000000000000008310156113815761137c836123ba565b61138b565b60e061138b565b60e15b905061407081860110156113a657600094506000925061144a565b6140e081860110156113e9576140708510156113cb57846140700383901c92506113e0565b6140708511156113e057614070850383901b92505b6000945061144a565b61c0dd818601111561140357617fff94506000925061144a565b607081111561141a576070810383901c925061142d565b607081101561142d578060700383901b92505b6dffffffffffffffffffffffffffff831692506140df8186010394505b82607086901b888a186f8000000000000000000000000000000060801b1660801c6fffffffffffffffffffffffffffffffff16171760801b9550505050505061076c565b6000617fff60f084811c8216919084901c8116908290036114dd5780617fff0361118f57507f7fff800000000000000000000000000000000000000000000000000000000000915061076c9050565b80617fff03611564577dffffffffffffffffffffffffffff0000000000000000000000000000000084161561153757507f7fff800000000000000000000000000000000000000000000000000000000000915061076c9050565b5050508082187f80000000000000000000000000000000000000000000000000000000000000001661076c565b7f7fffffffffffffffffffffffffffffff000000000000000000000000000000008416600003611632577f7fffffffffffffffffffffffffffffff0000000000000000000000000000000085166000036115e357507f7fff800000000000000000000000000000000000000000000000000000000000915061076c9050565b5050508082187f8000000000000000000000000000000000000000000000000000000000000000167f7fff0000000000000000000000000000000000000000000000000000000000001761076c565b6dffffffffffffffffffffffffffff608085901c166000829003611659576001915061166b565b6e010000000000000000000000000000175b6dffffffffffffffffffffffffffff608087901c1660008490036116d35780156116ce57600061169a826123ba565b6001955060e2039384017fffffffffffffffffffffffffffffffffffffffffffffffffffffffffffffff8e01939190911b90505b6116e8565b6e0100000000000000000000000000001760721b5b8181816116f7576116f761275d565b04905080600003611732577f8000000000000000000000000000000000000000000000000000000000000000878718166112f6576000611318565b6d10000000000000000000000000008110156117505761175061278c565b60006e0800000000000000000000000000008210156117b0576e0400000000000000000000000000008210156117a5576e02000000000000000000000000000082101561179e5760706117a8565b60716117a8565b60725b60ff166117b9565b6117b9826123ba565b9050836140710181860111156117d757617fff945060009150611871565b83818601613ffc0110156117f2576000945060009150611871565b83818601613f8c01101561183f578385613ffc01111561181d578385613ffc010382901b9150611836565b8385613ffc01101561183657613ffc8585030382901c91505b60009450611871565b6070811115611852576070810382901c91505b6dffffffffffffffffffffffffffff8216915083818601613f8d010394505b81607086901b888a186f8000000000000000000000000000000060801b1660801c6fffffffffffffffffffffffffffffffff16171760801b9550505050505061076c565b6000617fff60f084811c8216919084901c8116908290036119195780617fff0361190f577fffffffffffffffffffffffffffffffff000000000000000000000000000000008085169086160361110f57849250505061076c565b849250505061076c565b80617fff0361192c57839250505061076c565b6f80000000000000000000000000000000608086901c90811015906dffffffffffffffffffffffffffff166000849003611969576001935061197b565b6e010000000000000000000000000000175b6f80000000000000000000000000000000608087901c90811015906dffffffffffffffffffffffffffff1660008590036119b857600194506119ca565b6e010000000000000000000000000000175b82600003611a31577fffffffffffffffffffffffffffffffff0000000000000000000000000000000088167f800000000000000000000000000000000000000000000000000000000000000014611a215787611a24565b60005b965050505050505061076c565b80600003611a88577fffffffffffffffffffffffffffffffff0000000000000000000000000000000089167f800000000000000000000000000000000000000000000000000000000000000014611a215788611a24565b84860382151585151503611c14576070811315611aae578997505050505050505061076c565b6000811315611ac05790811c90611b0d565b7fffffffffffffffffffffffffffffffffffffffffffffffffffffffffffffff90811215611af7578897505050505050505061076c565b6000811215611b0d578060000384901c93508596505b928101926e0200000000000000000000000000008410611b33576001968701969390931c925b86617fff03611b975784611b67577f7fff000000000000000000000000000000000000000000000000000000000000611b89565b7fffff0000000000000000000000000000000000000000000000000000000000005b97505050505050505061076c565b6e010000000000000000000000000000841015611bb75760009650611bcb565b6dffffffffffffffffffffffffffff841693505b83607088901b86611bdd576000611bef565b6f800000000000000000000000000000005b6fffffffffffffffffffffffffffffffff16171760801b97505050505050505061076c565b6000811315611c2f57600184901b9350600187039650611c46565b6000811215611c4657600182901b91506001860396505b6070811315611c585760019150611ce1565b6001811315611c75576001810360018303901c6001019150611ce1565b7fffffffffffffffffffffffffffffffffffffffffffffffffffffffffffffff90811215611ca65760019350611ce1565b7fffffffffffffffffffffffffffffffffffffffffffffffffffffffffffffffff811215611ce1576001816000030360018503901c60010193505b818410611cf2578184039350611cfb565b83820393508294505b83600003611d1457506000965061076c95505050505050565b6000611d1f856123ba565b905080607103611d4b57600185901c6dffffffffffffffffffffffffffff169450600188019750611dc6565b6070811015611db257607081900380891115611d81578086901b6dffffffffffffffffffffffffffff1695508089039850611dac565b6000987fffffffffffffffffffffffffffffffffffffffffffffffffffffffffffffffff019590951b945b50611dc6565b6dffffffffffffffffffffffffffff851694505b87617fff03611e2b5785611dfa577f7fff000000000000000000000000000000000000000000000000000000000000611e1c565b7fffff0000000000000000000000000000000000000000000000000000000000005b9850505050505050505061076c565b84607089901b87611e3d576000611e4f565b6f800000000000000000000000000000005b6fffffffffffffffffffffffffffffffff16171760801b9850505050505050505061076c565b6000617fff60f083901c16613fff811015611e935750600092915050565b6f80000000000000000000000000000000608084901c10611eb357600080fd5b6140fe811115611ec257600080fd5b6e0100000000000000000000000000006dffffffffffffffffffffffffffff608085901c161761406f821015611efe5761406f8290031c611f2d565b61406f821115611f2d577fffffffffffffffffffffffffffffffffffffffffffffffffffffffffffffbf9182011b5b9392505050565b6000611f817f00000000000000000000000000000000000000000000000000000000000000007f000000000000000000000000000000000000000000000000000000000000000084610d03565b611fad7f0000000000000000000000000000000000000000000000000000000000000000333085610e7a565b6040517f70a082310000000000000000000000000000000000000000000000000000000081523060048201526000907f000000000000000000000000000000000000000000000000000000000000000073ffffffffffffffffffffffffffffffffffffffff16906370a0823190602401602060405180830381865afa15801561203a573d6000803e3d6000fd5b505050506040513d601f19601f8201168201806040525081019061205e9190612702565b6040517f2e17de78000000000000000000000000000000000000000000000000000000008152600481018590529091507f000000000000000000000000000000000000000000000000000000000000000073ffffffffffffffffffffffffffffffffffffffff1690632e17de7890602401600060405180830381600087803b1580156120e957600080fd5b505af11580156120fd573d6000803e3d6000fd5b50506040517f70a08231000000000000000000000000000000000000000000000000000000008152306004820152600092507f000000000000000000000000000000000000000000000000000000000000000073ffffffffffffffffffffffffffffffffffffffff1691506370a0823190602401602060405180830381865afa15801561218e573d6000803e3d6000fd5b505050506040513d601f19601f820116820180604052508101906121b29190612702565b9050818111612243576040517f08c379a000000000000000000000000000000000000000000000000000000000815260206004820152602e60248201527f5661756c742050726f78793a206e6f2054656d706c652072656365697665642060448201527f7768656e20756e7374616b696e67000000000000000000000000000000000000606482015260840161043f565b61224d82826127bb565b949350505050565b60405173ffffffffffffffffffffffffffffffffffffffff8316602482015260448101829052610c479084907fa9059cbb0000000000000000000000000000000000000000000000000000000090606401610df8565b600061230d826040518060400160405280602081526020017f5361666545524332303a206c6f772d6c6576656c2063616c6c206661696c65648152508573ffffffffffffffffffffffffffffffffffffffff1661246a9092919063ffffffff16565b905080516000148061232e57508080602001905181019061232e91906127ce565b610c47576040517f08c379a000000000000000000000000000000000000000000000000000000000815260206004820152602a60248201527f5361666545524332303a204552433230206f7065726174696f6e20646964206e60448201527f6f74207375636365656400000000000000000000000000000000000000000000606482015260840161043f565b60008082116123c857600080fd5b600070010000000000000000000000000000000083106123ea57608092831c92015b68010000000000000000831061240257604092831c92015b640100000000831061241657602092831c92015b62010000831061242857601092831c92015b610100831061243957600892831c92015b6010831061244957600492831c92015b6004831061245957600292831c92015b6002831061076c5760010192915050565b606061224d8484600085856000808673ffffffffffffffffffffffffffffffffffffffff16858760405161249e9190612814565b60006040518083038185875af1925050503d80600081146124db576040519150601f19603f3d011682016040523d82523d6000602084013e6124e0565b606091505b50915091506124f1878383876124fc565b979650505050505050565b6060831561259257825160000361258b5773ffffffffffffffffffffffffffffffffffffffff85163b61258b576040517f08c379a000000000000000000000000000000000000000000000000000000000815260206004820152601d60248201527f416464726573733a2063616c6c20746f206e6f6e2d636f6e7472616374000000604482015260640161043f565b508161224d565b61224d83838151156125a75781518083602001fd5b806040517f08c379a000000000000000000000000000000000000000000000000000000000815260040161043f9190612830565b73ffffffffffffffffffffffffffffffffffffffff81168114610d0057600080fd5b6000806040838503121561261057600080fd5b823591506020830135612622816125db565b809150509250929050565b60008060006060848603121561264257600080fd5b8335925060208401356dffffffffffffffffffffffffffff8116811461266757600080fd5b91506040840135612677816125db565b809150509250925092565b6000806040838503121561269557600080fd5b50508035926020909101359150565b6000806000606084860312156126b957600080fd5b83356126c4816125db565b925060208401356126d4816125db565b929592945050506040919091013590565b6000602082840312156126f757600080fd5b8135611f2d816125db565b60006020828403121561271457600080fd5b5051919050565b7f4e487b7100000000000000000000000000000000000000000000000000000000600052601160045260246000fd5b8082018082111561076c5761076c61271b565b7f4e487b7100000000000000000000000000000000000000000000000000000000600052601260045260246000fd5b7f4e487b7100000000000000000000000000000000000000000000000000000000600052600160045260246000fd5b8181038181111561076c5761076c61271b565b6000602082840312156127e057600080fd5b81518015158114611f2d57600080fd5b60005b8381101561280b5781810151838201526020016127f3565b50506000910152565b600082516128268184602087016127f0565b9190910192915050565b602081526000825180602084015261284f8160408501602087016127f0565b601f017fffffffffffffffffffffffffffffffffffffffffffffffffffffffffffffffe016919091016040019291505056fea2646970667358221220bef2cd724911ab5e310ce59bfeb0036311cb71aca0ae383405b8e1bff8fd390664736f6c63430008130033",
  "linkReferences": {},
  "deployedLinkReferences": {}
}