{
  "_format": "hh-sol-artifact-1",
  "contractName": "JoiningFee",
  "sourceName": "contracts/core/JoiningFee.sol",
  "abi": [
    {
      "inputs": [
        {
          "internalType": "uint256",
          "name": "_defaultHourlyJoiningFee",
          "type": "uint256"
        }
      ],
      "stateMutability": "nonpayable",
      "type": "constructor"
    },
    {
      "anonymous": false,
      "inputs": [
        {
          "indexed": true,
          "internalType": "address",
          "name": "previousOwner",
          "type": "address"
        },
        {
          "indexed": true,
          "internalType": "address",
          "name": "newOwner",
          "type": "address"
        }
      ],
      "name": "OwnershipTransferred",
      "type": "event"
    },
    {
      "anonymous": false,
      "inputs": [
        {
          "indexed": false,
          "internalType": "address",
          "name": "vault",
          "type": "address"
        },
        {
          "indexed": false,
          "internalType": "uint256",
          "name": "amount",
          "type": "uint256"
        }
      ],
      "name": "SetJoiningFee",
      "type": "event"
    },
    {
      "inputs": [
        {
          "internalType": "uint256",
          "name": "firstPeriodStartTimestamp",
          "type": "uint256"
        },
        {
          "internalType": "uint256",
          "name": "periodDuration",
          "type": "uint256"
        },
        {
          "internalType": "address",
          "name": "vault",
          "type": "address"
        }
      ],
      "name": "calc",
      "outputs": [
        {
          "internalType": "uint256",
          "name": "",
          "type": "uint256"
        }
      ],
      "stateMutability": "view",
      "type": "function"
    },
    {
      "inputs": [],
      "name": "defaultHourlyJoiningFee",
      "outputs": [
        {
          "internalType": "uint256",
          "name": "",
          "type": "uint256"
        }
      ],
      "stateMutability": "view",
      "type": "function"
    },
    {
      "inputs": [
        {
          "internalType": "address",
          "name": "",
          "type": "address"
        }
      ],
      "name": "hourlyJoiningFeeFor",
      "outputs": [
        {
          "internalType": "uint256",
          "name": "",
          "type": "uint256"
        }
      ],
      "stateMutability": "view",
      "type": "function"
    },
    {
      "inputs": [],
      "name": "owner",
      "outputs": [
        {
          "internalType": "address",
          "name": "",
          "type": "address"
        }
      ],
      "stateMutability": "view",
      "type": "function"
    },
    {
      "inputs": [],
      "name": "renounceOwnership",
      "outputs": [],
      "stateMutability": "nonpayable",
      "type": "function"
    },
    {
      "inputs": [
        {
          "internalType": "address",
          "name": "vault",
          "type": "address"
        },
        {
          "internalType": "uint256",
          "name": "amount",
          "type": "uint256"
        }
      ],
      "name": "setHourlyJoiningFeeFor",
      "outputs": [],
      "stateMutability": "nonpayable",
      "type": "function"
    },
    {
      "inputs": [
        {
          "internalType": "address",
          "name": "newOwner",
          "type": "address"
        }
      ],
      "name": "transferOwnership",
      "outputs": [],
      "stateMutability": "nonpayable",
      "type": "function"
    }
  ],
  "bytecode": "0x608060405234801561001057600080fd5b5060405161065638038061065683398101604081905261002f91610090565b61003833610040565b6001556100a9565b600080546001600160a01b038381166001600160a01b0319831681178455604051919092169283917f8be0079c531659141344cd1fd0a4f28419497f9722a3daafe3b4186f6b6457e09190a35050565b6000602082840312156100a257600080fd5b5051919050565b61059e806100b86000396000f3fe608060405234801561001057600080fd5b506004361061007d5760003560e01c80638530a9761161005b5780638530a976146100c55780638da5cb5b146100ce578063cb7d6e44146100f6578063f2fde38b1461011657600080fd5b806307e7cc2714610082578063715018a6146100a85780637cb30b21146100b2575b600080fd5b61009561009036600461044d565b610129565b6040519081526020015b60405180910390f35b6100b06101b5565b005b6100b06100c0366004610482565b6101c9565b61009560015481565b60005460405173ffffffffffffffffffffffffffffffffffffffff909116815260200161009f565b6100956101043660046104ac565b60026020526000908152604090205481565b6100b06101243660046104ac565b610272565b73ffffffffffffffffffffffffffffffffffffffff811660009081526002602052604081205480820361015b57506001545b60008461016887426104fd565b6101729190610516565b905081610e10876101838885610551565b61018d90426104fd565b61019791906104fd565b6101a19190610516565b6101ab9190610551565b9695505050505050565b6101bd61032e565b6101c760006103af565b565b6101d161032e565b73ffffffffffffffffffffffffffffffffffffffff82166101f657600181905561021f565b73ffffffffffffffffffffffffffffffffffffffff821660009081526002602052604090208190555b6040805173ffffffffffffffffffffffffffffffffffffffff84168152602081018390527fdbc1891aa43b25d34c9e91ae51cf4bdd4cee6562180419a686d464e7514aced1910160405180910390a15050565b61027a61032e565b73ffffffffffffffffffffffffffffffffffffffff8116610322576040517f08c379a000000000000000000000000000000000000000000000000000000000815260206004820152602660248201527f4f776e61626c653a206e6577206f776e657220697320746865207a65726f206160448201527f646472657373000000000000000000000000000000000000000000000000000060648201526084015b60405180910390fd5b61032b816103af565b50565b60005473ffffffffffffffffffffffffffffffffffffffff1633146101c7576040517f08c379a000000000000000000000000000000000000000000000000000000000815260206004820181905260248201527f4f776e61626c653a2063616c6c6572206973206e6f7420746865206f776e65726044820152606401610319565b6000805473ffffffffffffffffffffffffffffffffffffffff8381167fffffffffffffffffffffffff0000000000000000000000000000000000000000831681178455604051919092169283917f8be0079c531659141344cd1fd0a4f28419497f9722a3daafe3b4186f6b6457e09190a35050565b803573ffffffffffffffffffffffffffffffffffffffff8116811461044857600080fd5b919050565b60008060006060848603121561046257600080fd5b833592506020840135915061047960408501610424565b90509250925092565b6000806040838503121561049557600080fd5b61049e83610424565b946020939093013593505050565b6000602082840312156104be57600080fd5b6104c782610424565b9392505050565b7f4e487b7100000000000000000000000000000000000000000000000000000000600052601160045260246000fd5b81810381811115610510576105106104ce565b92915050565b60008261054c577f4e487b7100000000000000000000000000000000000000000000000000000000600052601260045260246000fd5b500490565b8082028115828204841417610510576105106104ce56fea2646970667358221220d72c11be32c736cd0825ff5754a9c428373973769452e4523dc5317b96f4130f64736f6c63430008130033",
  "linkReferences": {},
  "deployedLinkReferences": {}
}